{
	"contracts/staking.sol": {
		"App": {
			"abi": [
				{
					"inputs": [],
					"stateMutability": "nonpayable",
					"type": "constructor"
				},
				{
					"inputs": [
						{
							"internalType": "address",
							"name": "",
							"type": "address"
						}
					],
					"name": "hasStaked",
					"outputs": [
						{
							"internalType": "bool",
							"name": "",
							"type": "bool"
						}
					],
					"stateMutability": "view",
					"type": "function"
				},
				{
					"inputs": [
						{
							"internalType": "address",
							"name": "",
							"type": "address"
						}
					],
					"name": "isStaking",
					"outputs": [
						{
							"internalType": "bool",
							"name": "",
							"type": "bool"
						}
					],
					"stateMutability": "view",
					"type": "function"
				},
				{
					"inputs": [],
					"name": "issueRewards",
					"outputs": [
						{
							"internalType": "uint256",
							"name": "",
							"type": "uint256"
						}
					],
					"stateMutability": "view",
					"type": "function"
				},
				{
					"inputs": [],
					"name": "owner",
					"outputs": [
						{
							"internalType": "address",
							"name": "",
							"type": "address"
						}
					],
					"stateMutability": "view",
					"type": "function"
				},
				{
					"inputs": [],
					"name": "pauseContract",
					"outputs": [],
					"stateMutability": "view",
					"type": "function"
				},
				{
					"inputs": [],
					"name": "paused",
					"outputs": [
						{
							"internalType": "bool",
							"name": "",
							"type": "bool"
						}
					],
					"stateMutability": "view",
					"type": "function"
				},
				{
					"inputs": [
						{
							"internalType": "bool",
							"name": "_paused",
							"type": "bool"
						}
					],
					"name": "setPaused",
					"outputs": [],
					"stateMutability": "nonpayable",
					"type": "function"
				},
				{
					"inputs": [
						{
							"internalType": "uint256",
							"name": "_amount",
							"type": "uint256"
						}
					],
					"name": "stakeToken",
					"outputs": [],
					"stateMutability": "nonpayable",
					"type": "function"
				},
				{
					"inputs": [
						{
							"internalType": "uint256",
							"name": "",
							"type": "uint256"
						}
					],
					"name": "stakers",
					"outputs": [
						{
							"internalType": "address",
							"name": "",
							"type": "address"
						}
					],
					"stateMutability": "view",
					"type": "function"
				},
				{
					"inputs": [
						{
							"internalType": "address",
							"name": "",
							"type": "address"
						}
					],
					"name": "stakingBalance",
					"outputs": [
						{
							"internalType": "uint256",
							"name": "",
							"type": "uint256"
						}
					],
					"stateMutability": "view",
					"type": "function"
				},
				{
					"inputs": [],
					"name": "treasuryWallet",
					"outputs": [
						{
							"internalType": "address",
							"name": "",
							"type": "address"
						}
					],
					"stateMutability": "view",
					"type": "function"
				},
				{
					"inputs": [],
					"name": "unstakeToken",
					"outputs": [],
					"stateMutability": "nonpayable",
					"type": "function"
				}
			],
			"devdoc": {
				"kind": "dev",
				"methods": {},
				"version": 1
			},
			"evm": {
				"assembly": "    /* \"contracts/staking.sol\":37:2032  contract App{\r... */\n  mstore(0x40, 0x80)\n    /* \"contracts/staking.sol\":330:387  constructor() public{\r... */\n  callvalue\n  dup1\n  iszero\n  tag_1\n  jumpi\n  0x00\n  dup1\n  revert\ntag_1:\n  pop\n    /* \"contracts/staking.sol\":369:379  msg.sender */\n  caller\n    /* \"contracts/staking.sol\":361:366  owner */\n  0x00\n  dup1\n    /* \"contracts/staking.sol\":361:379  owner = msg.sender */\n  0x0100\n  exp\n  dup2\n  sload\n  dup2\n  0xffffffffffffffffffffffffffffffffffffffff\n  mul\n  not\n  and\n  swap1\n  dup4\n  0xffffffffffffffffffffffffffffffffffffffff\n  and\n  mul\n  or\n  swap1\n  sstore\n  pop\n    /* \"contracts/staking.sol\":37:2032  contract App{\r... */\n  dataSize(sub_0)\n  dup1\n  dataOffset(sub_0)\n  0x00\n  codecopy\n  0x00\n  return\nstop\n\nsub_0: assembly {\n        /* \"contracts/staking.sol\":37:2032  contract App{\r... */\n      mstore(0x40, 0x80)\n      callvalue\n      dup1\n      iszero\n      tag_1\n      jumpi\n      0x00\n      dup1\n      revert\n    tag_1:\n      pop\n      jumpi(tag_2, lt(calldatasize, 0x04))\n      shr(0xe0, calldataload(0x00))\n      dup1\n      0x6f49712b\n      gt\n      tag_15\n      jumpi\n      dup1\n      0x6f49712b\n      eq\n      tag_9\n      jumpi\n      dup1\n      0x8da5cb5b\n      eq\n      tag_10\n      jumpi\n      dup1\n      0xb0370e0c\n      eq\n      tag_11\n      jumpi\n      dup1\n      0xc93c8f34\n      eq\n      tag_12\n      jumpi\n      dup1\n      0xcda6b847\n      eq\n      tag_13\n      jumpi\n      dup1\n      0xfd5e6dd1\n      eq\n      tag_14\n      jumpi\n      jump(tag_2)\n    tag_15:\n      dup1\n      0x16c38b3c\n      eq\n      tag_3\n      jumpi\n      dup1\n      0x20eb640c\n      eq\n      tag_4\n      jumpi\n      dup1\n      0x439766ce\n      eq\n      tag_5\n      jumpi\n      dup1\n      0x45bc78ab\n      eq\n      tag_6\n      jumpi\n      dup1\n      0x4626402b\n      eq\n      tag_7\n      jumpi\n      dup1\n      0x5c975abb\n      eq\n      tag_8\n      jumpi\n    tag_2:\n      0x00\n      dup1\n      revert\n        /* \"contracts/staking.sol\":1498:1637  function setPaused(bool _paused) public {\r... */\n    tag_3:\n      tag_16\n      0x04\n      dup1\n      calldatasize\n      sub\n      dup2\n      add\n      swap1\n      tag_17\n      swap2\n      swap1\n      tag_18\n      jump\t// in\n    tag_17:\n      tag_19\n      jump\t// in\n    tag_16:\n      stop\n        /* \"contracts/staking.sol\":740:1096  function unstakeToken() public{\r... */\n    tag_4:\n      tag_20\n      tag_21\n      jump\t// in\n    tag_20:\n      stop\n        /* \"contracts/staking.sol\":1645:1829  function pauseContract() public view{\r... */\n    tag_5:\n      tag_22\n      tag_23\n      jump\t// in\n    tag_22:\n      stop\n        /* \"contracts/staking.sol\":179:225  mapping(address => uint) public stakingBalance */\n    tag_6:\n      tag_24\n      0x04\n      dup1\n      calldatasize\n      sub\n      dup2\n      add\n      swap1\n      tag_25\n      swap2\n      swap1\n      tag_26\n      jump\t// in\n    tag_25:\n      tag_27\n      jump\t// in\n    tag_24:\n      mload(0x40)\n      tag_28\n      swap2\n      swap1\n      tag_29\n      jump\t// in\n    tag_28:\n      mload(0x40)\n      dup1\n      swap2\n      sub\n      swap1\n      return\n        /* \"contracts/staking.sol\":108:137  address public treasuryWallet */\n    tag_7:\n      tag_30\n      tag_31\n      jump\t// in\n    tag_30:\n      mload(0x40)\n      tag_32\n      swap2\n      swap1\n      tag_33\n      jump\t// in\n    tag_32:\n      mload(0x40)\n      dup1\n      swap2\n      sub\n      swap1\n      return\n        /* \"contracts/staking.sol\":83:101  bool public paused */\n    tag_8:\n      tag_34\n      tag_35\n      jump\t// in\n    tag_34:\n      mload(0x40)\n      tag_36\n      swap2\n      swap1\n      tag_37\n      jump\t// in\n    tag_36:\n      mload(0x40)\n      dup1\n      swap2\n      sub\n      swap1\n      return\n        /* \"contracts/staking.sol\":280:321  mapping(address => bool) public isStaking */\n    tag_9:\n      tag_38\n      0x04\n      dup1\n      calldatasize\n      sub\n      dup2\n      add\n      swap1\n      tag_39\n      swap2\n      swap1\n      tag_26\n      jump\t// in\n    tag_39:\n      tag_40\n      jump\t// in\n    tag_38:\n      mload(0x40)\n      tag_41\n      swap2\n      swap1\n      tag_37\n      jump\t// in\n    tag_41:\n      mload(0x40)\n      dup1\n      swap2\n      sub\n      swap1\n      return\n        /* \"contracts/staking.sol\":56:76  address public owner */\n    tag_10:\n      tag_42\n      tag_43\n      jump\t// in\n    tag_42:\n      mload(0x40)\n      tag_44\n      swap2\n      swap1\n      tag_33\n      jump\t// in\n    tag_44:\n      mload(0x40)\n      dup1\n      swap2\n      sub\n      swap1\n      return\n        /* \"contracts/staking.sol\":1104:1490  function issueRewards() public view returns(uint){\r... */\n    tag_11:\n      tag_45\n      tag_46\n      jump\t// in\n    tag_45:\n      mload(0x40)\n      tag_47\n      swap2\n      swap1\n      tag_29\n      jump\t// in\n    tag_47:\n      mload(0x40)\n      dup1\n      swap2\n      sub\n      swap1\n      return\n        /* \"contracts/staking.sol\":232:273  mapping(address => bool) public hasStaked */\n    tag_12:\n      tag_48\n      0x04\n      dup1\n      calldatasize\n      sub\n      dup2\n      add\n      swap1\n      tag_49\n      swap2\n      swap1\n      tag_26\n      jump\t// in\n    tag_49:\n      tag_50\n      jump\t// in\n    tag_48:\n      mload(0x40)\n      tag_51\n      swap2\n      swap1\n      tag_37\n      jump\t// in\n    tag_51:\n      mload(0x40)\n      dup1\n      swap2\n      sub\n      swap1\n      return\n        /* \"contracts/staking.sol\":397:732  function stakeToken(uint _amount) public {\r... */\n    tag_13:\n      tag_52\n      0x04\n      dup1\n      calldatasize\n      sub\n      dup2\n      add\n      swap1\n      tag_53\n      swap2\n      swap1\n      tag_54\n      jump\t// in\n    tag_53:\n      tag_55\n      jump\t// in\n    tag_52:\n      stop\n        /* \"contracts/staking.sol\":146:170  address[] public stakers */\n    tag_14:\n      tag_56\n      0x04\n      dup1\n      calldatasize\n      sub\n      dup2\n      add\n      swap1\n      tag_57\n      swap2\n      swap1\n      tag_54\n      jump\t// in\n    tag_57:\n      tag_58\n      jump\t// in\n    tag_56:\n      mload(0x40)\n      tag_59\n      swap2\n      swap1\n      tag_33\n      jump\t// in\n    tag_59:\n      mload(0x40)\n      dup1\n      swap2\n      sub\n      swap1\n      return\n        /* \"contracts/staking.sol\":1498:1637  function setPaused(bool _paused) public {\r... */\n    tag_19:\n        /* \"contracts/staking.sol\":1571:1576  owner */\n      0x00\n      dup1\n      sload\n      swap1\n      0x0100\n      exp\n      swap1\n      div\n      0xffffffffffffffffffffffffffffffffffffffff\n      and\n        /* \"contracts/staking.sol\":1557:1576  msg.sender == owner */\n      0xffffffffffffffffffffffffffffffffffffffff\n      and\n        /* \"contracts/staking.sol\":1557:1567  msg.sender */\n      caller\n        /* \"contracts/staking.sol\":1557:1576  msg.sender == owner */\n      0xffffffffffffffffffffffffffffffffffffffff\n      and\n      eq\n        /* \"contracts/staking.sol\":1549:1602  require(msg.sender == owner, \"You are not the owner\") */\n      tag_61\n      jumpi\n      mload(0x40)\n      0x08c379a000000000000000000000000000000000000000000000000000000000\n      dup2\n      mstore\n      0x04\n      add\n      tag_62\n      swap1\n      tag_63\n      jump\t// in\n    tag_62:\n      mload(0x40)\n      dup1\n      swap2\n      sub\n      swap1\n      revert\n    tag_61:\n        /* \"contracts/staking.sol\":1622:1629  _paused */\n      dup1\n        /* \"contracts/staking.sol\":1613:1619  paused */\n      0x00\n      0x14\n        /* \"contracts/staking.sol\":1613:1629  paused = _paused */\n      0x0100\n      exp\n      dup2\n      sload\n      dup2\n      0xff\n      mul\n      not\n      and\n      swap1\n      dup4\n      iszero\n      iszero\n      mul\n      or\n      swap1\n      sstore\n      pop\n        /* \"contracts/staking.sol\":1498:1637  function setPaused(bool _paused) public {\r... */\n      pop\n      jump\t// out\n        /* \"contracts/staking.sol\":740:1096  function unstakeToken() public{\r... */\n    tag_21:\n        /* \"contracts/staking.sol\":791:803  uint balance */\n      0x00\n        /* \"contracts/staking.sol\":806:820  stakingBalance */\n      0x03\n        /* \"contracts/staking.sol\":806:832  stakingBalance[msg.sender] */\n      0x00\n        /* \"contracts/staking.sol\":821:831  msg.sender */\n      caller\n        /* \"contracts/staking.sol\":806:832  stakingBalance[msg.sender] */\n      0xffffffffffffffffffffffffffffffffffffffff\n      and\n      0xffffffffffffffffffffffffffffffffffffffff\n      and\n      dup2\n      mstore\n      0x20\n      add\n      swap1\n      dup2\n      mstore\n      0x20\n      add\n      0x00\n      keccak256\n      sload\n        /* \"contracts/staking.sol\":791:832  uint balance = stakingBalance[msg.sender] */\n      swap1\n      pop\n        /* \"contracts/staking.sol\":861:862  0 */\n      0x00\n        /* \"contracts/staking.sol\":851:858  balance */\n      dup2\n        /* \"contracts/staking.sol\":851:862  balance > 0 */\n      gt\n        /* \"contracts/staking.sol\":843:904  require(balance > 0, \"staking Balance cannot be less than 0\") */\n      tag_65\n      jumpi\n      mload(0x40)\n      0x08c379a000000000000000000000000000000000000000000000000000000000\n      dup2\n      mstore\n      0x04\n      add\n      tag_66\n      swap1\n      tag_67\n      jump\t// in\n    tag_66:\n      mload(0x40)\n      dup1\n      swap2\n      sub\n      swap1\n      revert\n    tag_65:\n        /* \"contracts/staking.sol\":946:947  0 */\n      0x00\n        /* \"contracts/staking.sol\":917:931  stakingBalance */\n      0x03\n        /* \"contracts/staking.sol\":917:943  stakingBalance[msg.sender] */\n      0x00\n        /* \"contracts/staking.sol\":932:942  msg.sender */\n      caller\n        /* \"contracts/staking.sol\":917:943  stakingBalance[msg.sender] */\n      0xffffffffffffffffffffffffffffffffffffffff\n      and\n      0xffffffffffffffffffffffffffffffffffffffff\n      and\n      dup2\n      mstore\n      0x20\n      add\n      swap1\n      dup2\n      mstore\n      0x20\n      add\n      0x00\n      keccak256\n        /* \"contracts/staking.sol\":917:947  stakingBalance[msg.sender] = 0 */\n      dup2\n      swap1\n      sstore\n      pop\n        /* \"contracts/staking.sol\":972:981  hasStaked */\n      0x04\n        /* \"contracts/staking.sol\":972:993  hasStaked[msg.sender] */\n      0x00\n        /* \"contracts/staking.sol\":982:992  msg.sender */\n      caller\n        /* \"contracts/staking.sol\":972:993  hasStaked[msg.sender] */\n      0xffffffffffffffffffffffffffffffffffffffff\n      and\n      0xffffffffffffffffffffffffffffffffffffffff\n      and\n      dup2\n      mstore\n      0x20\n      add\n      swap1\n      dup2\n      mstore\n      0x20\n      add\n      0x00\n      keccak256\n      0x00\n      swap1\n      sload\n      swap1\n      0x0100\n      exp\n      swap1\n      div\n      0xff\n      and\n        /* \"contracts/staking.sol\":968:1045  if(!hasStaked[msg.sender]){\r... */\n      tag_68\n      jumpi\n        /* \"contracts/staking.sol\":1009:1016  stakers */\n      0x02\n        /* \"contracts/staking.sol\":1022:1032  msg.sender */\n      caller\n        /* \"contracts/staking.sol\":1009:1033  stakers.push(msg.sender) */\n      swap1\n      dup1\n      0x01\n      dup2\n      sload\n      add\n      dup1\n      dup3\n      sstore\n      dup1\n      swap2\n      pop\n      pop\n      0x01\n      swap1\n      sub\n      swap1\n      0x00\n      mstore\n      keccak256(0x00, 0x20)\n      add\n      0x00\n      swap1\n      swap2\n      swap1\n      swap2\n      swap1\n      swap2\n      0x0100\n      exp\n      dup2\n      sload\n      dup2\n      0xffffffffffffffffffffffffffffffffffffffff\n      mul\n      not\n      and\n      swap1\n      dup4\n      0xffffffffffffffffffffffffffffffffffffffff\n      and\n      mul\n      or\n      swap1\n      sstore\n      pop\n        /* \"contracts/staking.sol\":968:1045  if(!hasStaked[msg.sender]){\r... */\n    tag_68:\n        /* \"contracts/staking.sol\":1081:1086  false */\n      0x00\n        /* \"contracts/staking.sol\":1057:1066  isStaking */\n      0x05\n        /* \"contracts/staking.sol\":1057:1078  isStaking[msg.sender] */\n      0x00\n        /* \"contracts/staking.sol\":1067:1077  msg.sender */\n      caller\n        /* \"contracts/staking.sol\":1057:1078  isStaking[msg.sender] */\n      0xffffffffffffffffffffffffffffffffffffffff\n      and\n      0xffffffffffffffffffffffffffffffffffffffff\n      and\n      dup2\n      mstore\n      0x20\n      add\n      swap1\n      dup2\n      mstore\n      0x20\n      add\n      0x00\n      keccak256\n      0x00\n        /* \"contracts/staking.sol\":1057:1086  isStaking[msg.sender] = false */\n      0x0100\n      exp\n      dup2\n      sload\n      dup2\n      0xff\n      mul\n      not\n      and\n      swap1\n      dup4\n      iszero\n      iszero\n      mul\n      or\n      swap1\n      sstore\n      pop\n        /* \"contracts/staking.sol\":770:1096  {\r... */\n      pop\n        /* \"contracts/staking.sol\":740:1096  function unstakeToken() public{\r... */\n      jump\t// out\n        /* \"contracts/staking.sol\":1645:1829  function pauseContract() public view{\r... */\n    tag_23:\n        /* \"contracts/staking.sol\":1714:1719  owner */\n      0x00\n      dup1\n      sload\n      swap1\n      0x0100\n      exp\n      swap1\n      div\n      0xffffffffffffffffffffffffffffffffffffffff\n      and\n        /* \"contracts/staking.sol\":1700:1719  msg.sender == owner */\n      0xffffffffffffffffffffffffffffffffffffffff\n      and\n        /* \"contracts/staking.sol\":1700:1710  msg.sender */\n      caller\n        /* \"contracts/staking.sol\":1700:1719  msg.sender == owner */\n      0xffffffffffffffffffffffffffffffffffffffff\n      and\n      eq\n        /* \"contracts/staking.sol\":1692:1757  require(msg.sender == owner, \"Only owner can pause the contract\") */\n      tag_71\n      jumpi\n      mload(0x40)\n      0x08c379a000000000000000000000000000000000000000000000000000000000\n      dup2\n      mstore\n      0x04\n      add\n      tag_72\n      swap1\n      tag_73\n      jump\t// in\n    tag_72:\n      mload(0x40)\n      dup1\n      swap2\n      sub\n      swap1\n      revert\n    tag_71:\n        /* \"contracts/staking.sol\":1786:1791  false */\n      0x00\n        /* \"contracts/staking.sol\":1776:1791  paused == false */\n      iszero\n      iszero\n        /* \"contracts/staking.sol\":1776:1782  paused */\n      0x00\n      0x14\n      swap1\n      sload\n      swap1\n      0x0100\n      exp\n      swap1\n      div\n      0xff\n      and\n        /* \"contracts/staking.sol\":1776:1791  paused == false */\n      iszero\n      iszero\n      eq\n        /* \"contracts/staking.sol\":1768:1811  require(paused == false, \"Contract Paused\") */\n      tag_74\n      jumpi\n      mload(0x40)\n      0x08c379a000000000000000000000000000000000000000000000000000000000\n      dup2\n      mstore\n      0x04\n      add\n      tag_75\n      swap1\n      tag_76\n      jump\t// in\n    tag_75:\n      mload(0x40)\n      dup1\n      swap2\n      sub\n      swap1\n      revert\n    tag_74:\n        /* \"contracts/staking.sol\":1645:1829  function pauseContract() public view{\r... */\n      jump\t// out\n        /* \"contracts/staking.sol\":179:225  mapping(address => uint) public stakingBalance */\n    tag_27:\n      mstore(0x20, 0x03)\n      dup1\n      0x00\n      mstore\n      keccak256(0x00, 0x40)\n      0x00\n      swap2\n      pop\n      swap1\n      pop\n      sload\n      dup2\n      jump\t// out\n        /* \"contracts/staking.sol\":108:137  address public treasuryWallet */\n    tag_31:\n      0x01\n      0x00\n      swap1\n      sload\n      swap1\n      0x0100\n      exp\n      swap1\n      div\n      0xffffffffffffffffffffffffffffffffffffffff\n      and\n      dup2\n      jump\t// out\n        /* \"contracts/staking.sol\":83:101  bool public paused */\n    tag_35:\n      0x00\n      0x14\n      swap1\n      sload\n      swap1\n      0x0100\n      exp\n      swap1\n      div\n      0xff\n      and\n      dup2\n      jump\t// out\n        /* \"contracts/staking.sol\":280:321  mapping(address => bool) public isStaking */\n    tag_40:\n      mstore(0x20, 0x05)\n      dup1\n      0x00\n      mstore\n      keccak256(0x00, 0x40)\n      0x00\n      swap2\n      pop\n      sload\n      swap1\n      0x0100\n      exp\n      swap1\n      div\n      0xff\n      and\n      dup2\n      jump\t// out\n        /* \"contracts/staking.sol\":56:76  address public owner */\n    tag_43:\n      0x00\n      dup1\n      sload\n      swap1\n      0x0100\n      exp\n      swap1\n      div\n      0xffffffffffffffffffffffffffffffffffffffff\n      and\n      dup2\n      jump\t// out\n        /* \"contracts/staking.sol\":1104:1490  function issueRewards() public view returns(uint){\r... */\n    tag_46:\n        /* \"contracts/staking.sol\":1148:1152  uint */\n      0x00\n        /* \"contracts/staking.sol\":1186:1191  owner */\n      dup1\n      0x00\n      swap1\n      sload\n      swap1\n      0x0100\n      exp\n      swap1\n      div\n      0xffffffffffffffffffffffffffffffffffffffff\n      and\n        /* \"contracts/staking.sol\":1172:1191  msg.sender == owner */\n      0xffffffffffffffffffffffffffffffffffffffff\n      and\n        /* \"contracts/staking.sol\":1172:1182  msg.sender */\n      caller\n        /* \"contracts/staking.sol\":1172:1191  msg.sender == owner */\n      0xffffffffffffffffffffffffffffffffffffffff\n      and\n      eq\n        /* \"contracts/staking.sol\":1164:1220  require(msg.sender == owner, \"caller must be the owner\") */\n      tag_78\n      jumpi\n      mload(0x40)\n      0x08c379a000000000000000000000000000000000000000000000000000000000\n      dup2\n      mstore\n      0x04\n      add\n      tag_79\n      swap1\n      tag_80\n      jump\t// in\n    tag_79:\n      mload(0x40)\n      dup1\n      swap2\n      sub\n      swap1\n      revert\n    tag_78:\n        /* \"contracts/staking.sol\":1246:1252  uint i */\n      0x00\n        /* \"contracts/staking.sol\":1241:1473  for (uint i = 0; i < stakers.length; i++){\r... */\n    tag_81:\n        /* \"contracts/staking.sol\":1262:1269  stakers */\n      0x02\n        /* \"contracts/staking.sol\":1262:1276  stakers.length */\n      dup1\n      sload\n      swap1\n      pop\n        /* \"contracts/staking.sol\":1258:1259  i */\n      dup2\n        /* \"contracts/staking.sol\":1258:1276  i < stakers.length */\n      lt\n        /* \"contracts/staking.sol\":1241:1473  for (uint i = 0; i < stakers.length; i++){\r... */\n      iszero\n      tag_82\n      jumpi\n        /* \"contracts/staking.sol\":1297:1314  address recipient */\n      0x00\n        /* \"contracts/staking.sol\":1317:1324  stakers */\n      0x02\n        /* \"contracts/staking.sol\":1325:1326  i */\n      dup3\n        /* \"contracts/staking.sol\":1317:1327  stakers[i] */\n      dup2\n      sload\n      dup2\n      lt\n      tag_84\n      jumpi\n      tag_85\n      tag_86\n      jump\t// in\n    tag_85:\n    tag_84:\n      swap1\n      0x00\n      mstore\n      keccak256(0x00, 0x20)\n      add\n      0x00\n      swap1\n      sload\n      swap1\n      0x0100\n      exp\n      swap1\n      div\n      0xffffffffffffffffffffffffffffffffffffffff\n      and\n        /* \"contracts/staking.sol\":1297:1327  address recipient = stakers[i] */\n      swap1\n      pop\n        /* \"contracts/staking.sol\":1342:1353  uint reward */\n      0x00\n        /* \"contracts/staking.sol\":1382:1385  100 */\n      0x64\n        /* \"contracts/staking.sol\":1356:1370  stakingBalance */\n      0x03\n        /* \"contracts/staking.sol\":1356:1381  stakingBalance[recipient] */\n      0x00\n        /* \"contracts/staking.sol\":1371:1380  recipient */\n      dup5\n        /* \"contracts/staking.sol\":1356:1381  stakingBalance[recipient] */\n      0xffffffffffffffffffffffffffffffffffffffff\n      and\n      0xffffffffffffffffffffffffffffffffffffffff\n      and\n      dup2\n      mstore\n      0x20\n      add\n      swap1\n      dup2\n      mstore\n      0x20\n      add\n      0x00\n      keccak256\n      sload\n        /* \"contracts/staking.sol\":1356:1385  stakingBalance[recipient]/100 */\n      tag_88\n      swap2\n      swap1\n      tag_89\n      jump\t// in\n    tag_88:\n        /* \"contracts/staking.sol\":1342:1385  uint reward = stakingBalance[recipient]/100 */\n      swap1\n      pop\n        /* \"contracts/staking.sol\":1412:1413  0 */\n      0x00\n        /* \"contracts/staking.sol\":1403:1409  reward */\n      dup2\n        /* \"contracts/staking.sol\":1403:1413  reward > 0 */\n      gt\n        /* \"contracts/staking.sol\":1400:1462  if(reward > 0){\r... */\n      iszero\n      tag_90\n      jumpi\n        /* \"contracts/staking.sol\":1440:1446  reward */\n      dup1\n        /* \"contracts/staking.sol\":1433:1446  return reward */\n      swap4\n      pop\n      pop\n      pop\n      pop\n      jump(tag_77)\n        /* \"contracts/staking.sol\":1400:1462  if(reward > 0){\r... */\n    tag_90:\n        /* \"contracts/staking.sol\":1282:1473  {\r... */\n      pop\n      pop\n        /* \"contracts/staking.sol\":1278:1281  i++ */\n      dup1\n      dup1\n      tag_91\n      swap1\n      tag_92\n      jump\t// in\n    tag_91:\n      swap2\n      pop\n      pop\n        /* \"contracts/staking.sol\":1241:1473  for (uint i = 0; i < stakers.length; i++){\r... */\n      jump(tag_81)\n    tag_82:\n      pop\n        /* \"contracts/staking.sol\":1104:1490  function issueRewards() public view returns(uint){\r... */\n    tag_77:\n      swap1\n      jump\t// out\n        /* \"contracts/staking.sol\":232:273  mapping(address => bool) public hasStaked */\n    tag_50:\n      mstore(0x20, 0x04)\n      dup1\n      0x00\n      mstore\n      keccak256(0x00, 0x40)\n      0x00\n      swap2\n      pop\n      sload\n      swap1\n      0x0100\n      exp\n      swap1\n      div\n      0xff\n      and\n      dup2\n      jump\t// out\n        /* \"contracts/staking.sol\":397:732  function stakeToken(uint _amount) public {\r... */\n    tag_55:\n        /* \"contracts/staking.sol\":473:474  0 */\n      0x00\n        /* \"contracts/staking.sol\":463:470  _amount */\n      dup2\n        /* \"contracts/staking.sol\":463:474  _amount > 0 */\n      gt\n        /* \"contracts/staking.sol\":455:497  require(_amount > 0, \"amount cannot be 0\") */\n      tag_94\n      jumpi\n      mload(0x40)\n      0x08c379a000000000000000000000000000000000000000000000000000000000\n      dup2\n      mstore\n      0x04\n      add\n      tag_95\n      swap1\n      tag_96\n      jump\t// in\n    tag_95:\n      mload(0x40)\n      dup1\n      swap2\n      sub\n      swap1\n      revert\n    tag_94:\n        /* \"contracts/staking.sol\":540:547  _amount */\n      dup1\n        /* \"contracts/staking.sol\":510:524  stakingBalance */\n      0x03\n        /* \"contracts/staking.sol\":510:536  stakingBalance[msg.sender] */\n      0x00\n        /* \"contracts/staking.sol\":525:535  msg.sender */\n      caller\n        /* \"contracts/staking.sol\":510:536  stakingBalance[msg.sender] */\n      0xffffffffffffffffffffffffffffffffffffffff\n      and\n      0xffffffffffffffffffffffffffffffffffffffff\n      and\n      dup2\n      mstore\n      0x20\n      add\n      swap1\n      dup2\n      mstore\n      0x20\n      add\n      0x00\n      keccak256\n      0x00\n        /* \"contracts/staking.sol\":510:547  stakingBalance[msg.sender] += _amount */\n      dup3\n      dup3\n      sload\n      tag_97\n      swap2\n      swap1\n      tag_98\n      jump\t// in\n    tag_97:\n      swap3\n      pop\n      pop\n      dup2\n      swap1\n      sstore\n      pop\n        /* \"contracts/staking.sol\":572:581  hasStaked */\n      0x04\n        /* \"contracts/staking.sol\":572:593  hasStaked[msg.sender] */\n      0x00\n        /* \"contracts/staking.sol\":582:592  msg.sender */\n      caller\n        /* \"contracts/staking.sol\":572:593  hasStaked[msg.sender] */\n      0xffffffffffffffffffffffffffffffffffffffff\n      and\n      0xffffffffffffffffffffffffffffffffffffffff\n      and\n      dup2\n      mstore\n      0x20\n      add\n      swap1\n      dup2\n      mstore\n      0x20\n      add\n      0x00\n      keccak256\n      0x00\n      swap1\n      sload\n      swap1\n      0x0100\n      exp\n      swap1\n      div\n      0xff\n      and\n        /* \"contracts/staking.sol\":568:645  if(!hasStaked[msg.sender]){\r... */\n      tag_99\n      jumpi\n        /* \"contracts/staking.sol\":609:616  stakers */\n      0x02\n        /* \"contracts/staking.sol\":622:632  msg.sender */\n      caller\n        /* \"contracts/staking.sol\":609:633  stakers.push(msg.sender) */\n      swap1\n      dup1\n      0x01\n      dup2\n      sload\n      add\n      dup1\n      dup3\n      sstore\n      dup1\n      swap2\n      pop\n      pop\n      0x01\n      swap1\n      sub\n      swap1\n      0x00\n      mstore\n      keccak256(0x00, 0x20)\n      add\n      0x00\n      swap1\n      swap2\n      swap1\n      swap2\n      swap1\n      swap2\n      0x0100\n      exp\n      dup2\n      sload\n      dup2\n      0xffffffffffffffffffffffffffffffffffffffff\n      mul\n      not\n      and\n      swap1\n      dup4\n      0xffffffffffffffffffffffffffffffffffffffff\n      and\n      mul\n      or\n      swap1\n      sstore\n      pop\n        /* \"contracts/staking.sol\":568:645  if(!hasStaked[msg.sender]){\r... */\n    tag_99:\n        /* \"contracts/staking.sol\":681:685  true */\n      0x01\n        /* \"contracts/staking.sol\":657:666  isStaking */\n      0x05\n        /* \"contracts/staking.sol\":657:678  isStaking[msg.sender] */\n      0x00\n        /* \"contracts/staking.sol\":667:677  msg.sender */\n      caller\n        /* \"contracts/staking.sol\":657:678  isStaking[msg.sender] */\n      0xffffffffffffffffffffffffffffffffffffffff\n      and\n      0xffffffffffffffffffffffffffffffffffffffff\n      and\n      dup2\n      mstore\n      0x20\n      add\n      swap1\n      dup2\n      mstore\n      0x20\n      add\n      0x00\n      keccak256\n      0x00\n        /* \"contracts/staking.sol\":657:685  isStaking[msg.sender] = true */\n      0x0100\n      exp\n      dup2\n      sload\n      dup2\n      0xff\n      mul\n      not\n      and\n      swap1\n      dup4\n      iszero\n      iszero\n      mul\n      or\n      swap1\n      sstore\n      pop\n        /* \"contracts/staking.sol\":720:724  true */\n      0x01\n        /* \"contracts/staking.sol\":696:705  hasStaked */\n      0x04\n        /* \"contracts/staking.sol\":696:717  hasStaked[msg.sender] */\n      0x00\n        /* \"contracts/staking.sol\":706:716  msg.sender */\n      caller\n        /* \"contracts/staking.sol\":696:717  hasStaked[msg.sender] */\n      0xffffffffffffffffffffffffffffffffffffffff\n      and\n      0xffffffffffffffffffffffffffffffffffffffff\n      and\n      dup2\n      mstore\n      0x20\n      add\n      swap1\n      dup2\n      mstore\n      0x20\n      add\n      0x00\n      keccak256\n      0x00\n        /* \"contracts/staking.sol\":696:724  hasStaked[msg.sender] = true */\n      0x0100\n      exp\n      dup2\n      sload\n      dup2\n      0xff\n      mul\n      not\n      and\n      swap1\n      dup4\n      iszero\n      iszero\n      mul\n      or\n      swap1\n      sstore\n      pop\n        /* \"contracts/staking.sol\":397:732  function stakeToken(uint _amount) public {\r... */\n      pop\n      jump\t// out\n        /* \"contracts/staking.sol\":146:170  address[] public stakers */\n    tag_58:\n      0x02\n      dup2\n      dup2\n      sload\n      dup2\n      lt\n      tag_101\n      jumpi\n      0x00\n      dup1\n      revert\n    tag_101:\n      swap1\n      0x00\n      mstore\n      keccak256(0x00, 0x20)\n      add\n      0x00\n      swap2\n      pop\n      sload\n      swap1\n      0x0100\n      exp\n      swap1\n      div\n      0xffffffffffffffffffffffffffffffffffffffff\n      and\n      dup2\n      jump\t// out\n        /* \"#utility.yul\":7:146   */\n    tag_104:\n        /* \"#utility.yul\":53:58   */\n      0x00\n        /* \"#utility.yul\":91:97   */\n      dup2\n        /* \"#utility.yul\":78:98   */\n      calldataload\n        /* \"#utility.yul\":69:98   */\n      swap1\n      pop\n        /* \"#utility.yul\":107:140   */\n      tag_106\n        /* \"#utility.yul\":134:139   */\n      dup2\n        /* \"#utility.yul\":107:140   */\n      tag_107\n      jump\t// in\n    tag_106:\n        /* \"#utility.yul\":7:146   */\n      swap3\n      swap2\n      pop\n      pop\n      jump\t// out\n        /* \"#utility.yul\":152:285   */\n    tag_108:\n        /* \"#utility.yul\":195:200   */\n      0x00\n        /* \"#utility.yul\":233:239   */\n      dup2\n        /* \"#utility.yul\":220:240   */\n      calldataload\n        /* \"#utility.yul\":211:240   */\n      swap1\n      pop\n        /* \"#utility.yul\":249:279   */\n      tag_110\n        /* \"#utility.yul\":273:278   */\n      dup2\n        /* \"#utility.yul\":249:279   */\n      tag_111\n      jump\t// in\n    tag_110:\n        /* \"#utility.yul\":152:285   */\n      swap3\n      swap2\n      pop\n      pop\n      jump\t// out\n        /* \"#utility.yul\":291:430   */\n    tag_112:\n        /* \"#utility.yul\":337:342   */\n      0x00\n        /* \"#utility.yul\":375:381   */\n      dup2\n        /* \"#utility.yul\":362:382   */\n      calldataload\n        /* \"#utility.yul\":353:382   */\n      swap1\n      pop\n        /* \"#utility.yul\":391:424   */\n      tag_114\n        /* \"#utility.yul\":418:423   */\n      dup2\n        /* \"#utility.yul\":391:424   */\n      tag_115\n      jump\t// in\n    tag_114:\n        /* \"#utility.yul\":291:430   */\n      swap3\n      swap2\n      pop\n      pop\n      jump\t// out\n        /* \"#utility.yul\":436:765   */\n    tag_26:\n        /* \"#utility.yul\":495:501   */\n      0x00\n        /* \"#utility.yul\":544:546   */\n      0x20\n        /* \"#utility.yul\":532:541   */\n      dup3\n        /* \"#utility.yul\":523:530   */\n      dup5\n        /* \"#utility.yul\":519:542   */\n      sub\n        /* \"#utility.yul\":515:547   */\n      slt\n        /* \"#utility.yul\":512:631   */\n      iszero\n      tag_117\n      jumpi\n        /* \"#utility.yul\":550:629   */\n      tag_118\n      tag_119\n      jump\t// in\n    tag_118:\n        /* \"#utility.yul\":512:631   */\n    tag_117:\n        /* \"#utility.yul\":670:671   */\n      0x00\n        /* \"#utility.yul\":695:748   */\n      tag_120\n        /* \"#utility.yul\":740:747   */\n      dup5\n        /* \"#utility.yul\":731:737   */\n      dup3\n        /* \"#utility.yul\":720:729   */\n      dup6\n        /* \"#utility.yul\":716:738   */\n      add\n        /* \"#utility.yul\":695:748   */\n      tag_104\n      jump\t// in\n    tag_120:\n        /* \"#utility.yul\":685:748   */\n      swap2\n      pop\n        /* \"#utility.yul\":641:758   */\n      pop\n        /* \"#utility.yul\":436:765   */\n      swap3\n      swap2\n      pop\n      pop\n      jump\t// out\n        /* \"#utility.yul\":771:1094   */\n    tag_18:\n        /* \"#utility.yul\":827:833   */\n      0x00\n        /* \"#utility.yul\":876:878   */\n      0x20\n        /* \"#utility.yul\":864:873   */\n      dup3\n        /* \"#utility.yul\":855:862   */\n      dup5\n        /* \"#utility.yul\":851:874   */\n      sub\n        /* \"#utility.yul\":847:879   */\n      slt\n        /* \"#utility.yul\":844:963   */\n      iszero\n      tag_122\n      jumpi\n        /* \"#utility.yul\":882:961   */\n      tag_123\n      tag_119\n      jump\t// in\n    tag_123:\n        /* \"#utility.yul\":844:963   */\n    tag_122:\n        /* \"#utility.yul\":1002:1003   */\n      0x00\n        /* \"#utility.yul\":1027:1077   */\n      tag_124\n        /* \"#utility.yul\":1069:1076   */\n      dup5\n        /* \"#utility.yul\":1060:1066   */\n      dup3\n        /* \"#utility.yul\":1049:1058   */\n      dup6\n        /* \"#utility.yul\":1045:1067   */\n      add\n        /* \"#utility.yul\":1027:1077   */\n      tag_108\n      jump\t// in\n    tag_124:\n        /* \"#utility.yul\":1017:1077   */\n      swap2\n      pop\n        /* \"#utility.yul\":973:1087   */\n      pop\n        /* \"#utility.yul\":771:1094   */\n      swap3\n      swap2\n      pop\n      pop\n      jump\t// out\n        /* \"#utility.yul\":1100:1429   */\n    tag_54:\n        /* \"#utility.yul\":1159:1165   */\n      0x00\n        /* \"#utility.yul\":1208:1210   */\n      0x20\n        /* \"#utility.yul\":1196:1205   */\n      dup3\n        /* \"#utility.yul\":1187:1194   */\n      dup5\n        /* \"#utility.yul\":1183:1206   */\n      sub\n        /* \"#utility.yul\":1179:1211   */\n      slt\n        /* \"#utility.yul\":1176:1295   */\n      iszero\n      tag_126\n      jumpi\n        /* \"#utility.yul\":1214:1293   */\n      tag_127\n      tag_119\n      jump\t// in\n    tag_127:\n        /* \"#utility.yul\":1176:1295   */\n    tag_126:\n        /* \"#utility.yul\":1334:1335   */\n      0x00\n        /* \"#utility.yul\":1359:1412   */\n      tag_128\n        /* \"#utility.yul\":1404:1411   */\n      dup5\n        /* \"#utility.yul\":1395:1401   */\n      dup3\n        /* \"#utility.yul\":1384:1393   */\n      dup6\n        /* \"#utility.yul\":1380:1402   */\n      add\n        /* \"#utility.yul\":1359:1412   */\n      tag_112\n      jump\t// in\n    tag_128:\n        /* \"#utility.yul\":1349:1412   */\n      swap2\n      pop\n        /* \"#utility.yul\":1305:1422   */\n      pop\n        /* \"#utility.yul\":1100:1429   */\n      swap3\n      swap2\n      pop\n      pop\n      jump\t// out\n        /* \"#utility.yul\":1435:1553   */\n    tag_129:\n        /* \"#utility.yul\":1522:1546   */\n      tag_131\n        /* \"#utility.yul\":1540:1545   */\n      dup2\n        /* \"#utility.yul\":1522:1546   */\n      tag_132\n      jump\t// in\n    tag_131:\n        /* \"#utility.yul\":1517:1520   */\n      dup3\n        /* \"#utility.yul\":1510:1547   */\n      mstore\n        /* \"#utility.yul\":1435:1553   */\n      pop\n      pop\n      jump\t// out\n        /* \"#utility.yul\":1559:1668   */\n    tag_133:\n        /* \"#utility.yul\":1640:1661   */\n      tag_135\n        /* \"#utility.yul\":1655:1660   */\n      dup2\n        /* \"#utility.yul\":1640:1661   */\n      tag_136\n      jump\t// in\n    tag_135:\n        /* \"#utility.yul\":1635:1638   */\n      dup3\n        /* \"#utility.yul\":1628:1662   */\n      mstore\n        /* \"#utility.yul\":1559:1668   */\n      pop\n      pop\n      jump\t// out\n        /* \"#utility.yul\":1674:2040   */\n    tag_137:\n        /* \"#utility.yul\":1816:1819   */\n      0x00\n        /* \"#utility.yul\":1837:1904   */\n      tag_139\n        /* \"#utility.yul\":1901:1903   */\n      0x18\n        /* \"#utility.yul\":1896:1899   */\n      dup4\n        /* \"#utility.yul\":1837:1904   */\n      tag_140\n      jump\t// in\n    tag_139:\n        /* \"#utility.yul\":1830:1904   */\n      swap2\n      pop\n        /* \"#utility.yul\":1913:2006   */\n      tag_141\n        /* \"#utility.yul\":2002:2005   */\n      dup3\n        /* \"#utility.yul\":1913:2006   */\n      tag_142\n      jump\t// in\n    tag_141:\n        /* \"#utility.yul\":2031:2033   */\n      0x20\n        /* \"#utility.yul\":2026:2029   */\n      dup3\n        /* \"#utility.yul\":2022:2034   */\n      add\n        /* \"#utility.yul\":2015:2034   */\n      swap1\n      pop\n        /* \"#utility.yul\":1674:2040   */\n      swap2\n      swap1\n      pop\n      jump\t// out\n        /* \"#utility.yul\":2046:2412   */\n    tag_143:\n        /* \"#utility.yul\":2188:2191   */\n      0x00\n        /* \"#utility.yul\":2209:2276   */\n      tag_145\n        /* \"#utility.yul\":2273:2275   */\n      0x15\n        /* \"#utility.yul\":2268:2271   */\n      dup4\n        /* \"#utility.yul\":2209:2276   */\n      tag_140\n      jump\t// in\n    tag_145:\n        /* \"#utility.yul\":2202:2276   */\n      swap2\n      pop\n        /* \"#utility.yul\":2285:2378   */\n      tag_146\n        /* \"#utility.yul\":2374:2377   */\n      dup3\n        /* \"#utility.yul\":2285:2378   */\n      tag_147\n      jump\t// in\n    tag_146:\n        /* \"#utility.yul\":2403:2405   */\n      0x20\n        /* \"#utility.yul\":2398:2401   */\n      dup3\n        /* \"#utility.yul\":2394:2406   */\n      add\n        /* \"#utility.yul\":2387:2406   */\n      swap1\n      pop\n        /* \"#utility.yul\":2046:2412   */\n      swap2\n      swap1\n      pop\n      jump\t// out\n        /* \"#utility.yul\":2418:2784   */\n    tag_148:\n        /* \"#utility.yul\":2560:2563   */\n      0x00\n        /* \"#utility.yul\":2581:2648   */\n      tag_150\n        /* \"#utility.yul\":2645:2647   */\n      0x21\n        /* \"#utility.yul\":2640:2643   */\n      dup4\n        /* \"#utility.yul\":2581:2648   */\n      tag_140\n      jump\t// in\n    tag_150:\n        /* \"#utility.yul\":2574:2648   */\n      swap2\n      pop\n        /* \"#utility.yul\":2657:2750   */\n      tag_151\n        /* \"#utility.yul\":2746:2749   */\n      dup3\n        /* \"#utility.yul\":2657:2750   */\n      tag_152\n      jump\t// in\n    tag_151:\n        /* \"#utility.yul\":2775:2777   */\n      0x40\n        /* \"#utility.yul\":2770:2773   */\n      dup3\n        /* \"#utility.yul\":2766:2778   */\n      add\n        /* \"#utility.yul\":2759:2778   */\n      swap1\n      pop\n        /* \"#utility.yul\":2418:2784   */\n      swap2\n      swap1\n      pop\n      jump\t// out\n        /* \"#utility.yul\":2790:3156   */\n    tag_153:\n        /* \"#utility.yul\":2932:2935   */\n      0x00\n        /* \"#utility.yul\":2953:3020   */\n      tag_155\n        /* \"#utility.yul\":3017:3019   */\n      0x12\n        /* \"#utility.yul\":3012:3015   */\n      dup4\n        /* \"#utility.yul\":2953:3020   */\n      tag_140\n      jump\t// in\n    tag_155:\n        /* \"#utility.yul\":2946:3020   */\n      swap2\n      pop\n        /* \"#utility.yul\":3029:3122   */\n      tag_156\n        /* \"#utility.yul\":3118:3121   */\n      dup3\n        /* \"#utility.yul\":3029:3122   */\n      tag_157\n      jump\t// in\n    tag_156:\n        /* \"#utility.yul\":3147:3149   */\n      0x20\n        /* \"#utility.yul\":3142:3145   */\n      dup3\n        /* \"#utility.yul\":3138:3150   */\n      add\n        /* \"#utility.yul\":3131:3150   */\n      swap1\n      pop\n        /* \"#utility.yul\":2790:3156   */\n      swap2\n      swap1\n      pop\n      jump\t// out\n        /* \"#utility.yul\":3162:3528   */\n    tag_158:\n        /* \"#utility.yul\":3304:3307   */\n      0x00\n        /* \"#utility.yul\":3325:3392   */\n      tag_160\n        /* \"#utility.yul\":3389:3391   */\n      0x0f\n        /* \"#utility.yul\":3384:3387   */\n      dup4\n        /* \"#utility.yul\":3325:3392   */\n      tag_140\n      jump\t// in\n    tag_160:\n        /* \"#utility.yul\":3318:3392   */\n      swap2\n      pop\n        /* \"#utility.yul\":3401:3494   */\n      tag_161\n        /* \"#utility.yul\":3490:3493   */\n      dup3\n        /* \"#utility.yul\":3401:3494   */\n      tag_162\n      jump\t// in\n    tag_161:\n        /* \"#utility.yul\":3519:3521   */\n      0x20\n        /* \"#utility.yul\":3514:3517   */\n      dup3\n        /* \"#utility.yul\":3510:3522   */\n      add\n        /* \"#utility.yul\":3503:3522   */\n      swap1\n      pop\n        /* \"#utility.yul\":3162:3528   */\n      swap2\n      swap1\n      pop\n      jump\t// out\n        /* \"#utility.yul\":3534:3900   */\n    tag_163:\n        /* \"#utility.yul\":3676:3679   */\n      0x00\n        /* \"#utility.yul\":3697:3764   */\n      tag_165\n        /* \"#utility.yul\":3761:3763   */\n      0x25\n        /* \"#utility.yul\":3756:3759   */\n      dup4\n        /* \"#utility.yul\":3697:3764   */\n      tag_140\n      jump\t// in\n    tag_165:\n        /* \"#utility.yul\":3690:3764   */\n      swap2\n      pop\n        /* \"#utility.yul\":3773:3866   */\n      tag_166\n        /* \"#utility.yul\":3862:3865   */\n      dup3\n        /* \"#utility.yul\":3773:3866   */\n      tag_167\n      jump\t// in\n    tag_166:\n        /* \"#utility.yul\":3891:3893   */\n      0x40\n        /* \"#utility.yul\":3886:3889   */\n      dup3\n        /* \"#utility.yul\":3882:3894   */\n      add\n        /* \"#utility.yul\":3875:3894   */\n      swap1\n      pop\n        /* \"#utility.yul\":3534:3900   */\n      swap2\n      swap1\n      pop\n      jump\t// out\n        /* \"#utility.yul\":3906:4024   */\n    tag_168:\n        /* \"#utility.yul\":3993:4017   */\n      tag_170\n        /* \"#utility.yul\":4011:4016   */\n      dup2\n        /* \"#utility.yul\":3993:4017   */\n      tag_171\n      jump\t// in\n    tag_170:\n        /* \"#utility.yul\":3988:3991   */\n      dup3\n        /* \"#utility.yul\":3981:4018   */\n      mstore\n        /* \"#utility.yul\":3906:4024   */\n      pop\n      pop\n      jump\t// out\n        /* \"#utility.yul\":4030:4252   */\n    tag_33:\n        /* \"#utility.yul\":4123:4127   */\n      0x00\n        /* \"#utility.yul\":4161:4163   */\n      0x20\n        /* \"#utility.yul\":4150:4159   */\n      dup3\n        /* \"#utility.yul\":4146:4164   */\n      add\n        /* \"#utility.yul\":4138:4164   */\n      swap1\n      pop\n        /* \"#utility.yul\":4174:4245   */\n      tag_173\n        /* \"#utility.yul\":4242:4243   */\n      0x00\n        /* \"#utility.yul\":4231:4240   */\n      dup4\n        /* \"#utility.yul\":4227:4244   */\n      add\n        /* \"#utility.yul\":4218:4224   */\n      dup5\n        /* \"#utility.yul\":4174:4245   */\n      tag_129\n      jump\t// in\n    tag_173:\n        /* \"#utility.yul\":4030:4252   */\n      swap3\n      swap2\n      pop\n      pop\n      jump\t// out\n        /* \"#utility.yul\":4258:4468   */\n    tag_37:\n        /* \"#utility.yul\":4345:4349   */\n      0x00\n        /* \"#utility.yul\":4383:4385   */\n      0x20\n        /* \"#utility.yul\":4372:4381   */\n      dup3\n        /* \"#utility.yul\":4368:4386   */\n      add\n        /* \"#utility.yul\":4360:4386   */\n      swap1\n      pop\n        /* \"#utility.yul\":4396:4461   */\n      tag_175\n        /* \"#utility.yul\":4458:4459   */\n      0x00\n        /* \"#utility.yul\":4447:4456   */\n      dup4\n        /* \"#utility.yul\":4443:4460   */\n      add\n        /* \"#utility.yul\":4434:4440   */\n      dup5\n        /* \"#utility.yul\":4396:4461   */\n      tag_133\n      jump\t// in\n    tag_175:\n        /* \"#utility.yul\":4258:4468   */\n      swap3\n      swap2\n      pop\n      pop\n      jump\t// out\n        /* \"#utility.yul\":4474:4893   */\n    tag_80:\n        /* \"#utility.yul\":4640:4644   */\n      0x00\n        /* \"#utility.yul\":4678:4680   */\n      0x20\n        /* \"#utility.yul\":4667:4676   */\n      dup3\n        /* \"#utility.yul\":4663:4681   */\n      add\n        /* \"#utility.yul\":4655:4681   */\n      swap1\n      pop\n        /* \"#utility.yul\":4727:4736   */\n      dup2\n        /* \"#utility.yul\":4721:4725   */\n      dup2\n        /* \"#utility.yul\":4717:4737   */\n      sub\n        /* \"#utility.yul\":4713:4714   */\n      0x00\n        /* \"#utility.yul\":4702:4711   */\n      dup4\n        /* \"#utility.yul\":4698:4715   */\n      add\n        /* \"#utility.yul\":4691:4738   */\n      mstore\n        /* \"#utility.yul\":4755:4886   */\n      tag_177\n        /* \"#utility.yul\":4881:4885   */\n      dup2\n        /* \"#utility.yul\":4755:4886   */\n      tag_137\n      jump\t// in\n    tag_177:\n        /* \"#utility.yul\":4747:4886   */\n      swap1\n      pop\n        /* \"#utility.yul\":4474:4893   */\n      swap2\n      swap1\n      pop\n      jump\t// out\n        /* \"#utility.yul\":4899:5318   */\n    tag_63:\n        /* \"#utility.yul\":5065:5069   */\n      0x00\n        /* \"#utility.yul\":5103:5105   */\n      0x20\n        /* \"#utility.yul\":5092:5101   */\n      dup3\n        /* \"#utility.yul\":5088:5106   */\n      add\n        /* \"#utility.yul\":5080:5106   */\n      swap1\n      pop\n        /* \"#utility.yul\":5152:5161   */\n      dup2\n        /* \"#utility.yul\":5146:5150   */\n      dup2\n        /* \"#utility.yul\":5142:5162   */\n      sub\n        /* \"#utility.yul\":5138:5139   */\n      0x00\n        /* \"#utility.yul\":5127:5136   */\n      dup4\n        /* \"#utility.yul\":5123:5140   */\n      add\n        /* \"#utility.yul\":5116:5163   */\n      mstore\n        /* \"#utility.yul\":5180:5311   */\n      tag_179\n        /* \"#utility.yul\":5306:5310   */\n      dup2\n        /* \"#utility.yul\":5180:5311   */\n      tag_143\n      jump\t// in\n    tag_179:\n        /* \"#utility.yul\":5172:5311   */\n      swap1\n      pop\n        /* \"#utility.yul\":4899:5318   */\n      swap2\n      swap1\n      pop\n      jump\t// out\n        /* \"#utility.yul\":5324:5743   */\n    tag_73:\n        /* \"#utility.yul\":5490:5494   */\n      0x00\n        /* \"#utility.yul\":5528:5530   */\n      0x20\n        /* \"#utility.yul\":5517:5526   */\n      dup3\n        /* \"#utility.yul\":5513:5531   */\n      add\n        /* \"#utility.yul\":5505:5531   */\n      swap1\n      pop\n        /* \"#utility.yul\":5577:5586   */\n      dup2\n        /* \"#utility.yul\":5571:5575   */\n      dup2\n        /* \"#utility.yul\":5567:5587   */\n      sub\n        /* \"#utility.yul\":5563:5564   */\n      0x00\n        /* \"#utility.yul\":5552:5561   */\n      dup4\n        /* \"#utility.yul\":5548:5565   */\n      add\n        /* \"#utility.yul\":5541:5588   */\n      mstore\n        /* \"#utility.yul\":5605:5736   */\n      tag_181\n        /* \"#utility.yul\":5731:5735   */\n      dup2\n        /* \"#utility.yul\":5605:5736   */\n      tag_148\n      jump\t// in\n    tag_181:\n        /* \"#utility.yul\":5597:5736   */\n      swap1\n      pop\n        /* \"#utility.yul\":5324:5743   */\n      swap2\n      swap1\n      pop\n      jump\t// out\n        /* \"#utility.yul\":5749:6168   */\n    tag_96:\n        /* \"#utility.yul\":5915:5919   */\n      0x00\n        /* \"#utility.yul\":5953:5955   */\n      0x20\n        /* \"#utility.yul\":5942:5951   */\n      dup3\n        /* \"#utility.yul\":5938:5956   */\n      add\n        /* \"#utility.yul\":5930:5956   */\n      swap1\n      pop\n        /* \"#utility.yul\":6002:6011   */\n      dup2\n        /* \"#utility.yul\":5996:6000   */\n      dup2\n        /* \"#utility.yul\":5992:6012   */\n      sub\n        /* \"#utility.yul\":5988:5989   */\n      0x00\n        /* \"#utility.yul\":5977:5986   */\n      dup4\n        /* \"#utility.yul\":5973:5990   */\n      add\n        /* \"#utility.yul\":5966:6013   */\n      mstore\n        /* \"#utility.yul\":6030:6161   */\n      tag_183\n        /* \"#utility.yul\":6156:6160   */\n      dup2\n        /* \"#utility.yul\":6030:6161   */\n      tag_153\n      jump\t// in\n    tag_183:\n        /* \"#utility.yul\":6022:6161   */\n      swap1\n      pop\n        /* \"#utility.yul\":5749:6168   */\n      swap2\n      swap1\n      pop\n      jump\t// out\n        /* \"#utility.yul\":6174:6593   */\n    tag_76:\n        /* \"#utility.yul\":6340:6344   */\n      0x00\n        /* \"#utility.yul\":6378:6380   */\n      0x20\n        /* \"#utility.yul\":6367:6376   */\n      dup3\n        /* \"#utility.yul\":6363:6381   */\n      add\n        /* \"#utility.yul\":6355:6381   */\n      swap1\n      pop\n        /* \"#utility.yul\":6427:6436   */\n      dup2\n        /* \"#utility.yul\":6421:6425   */\n      dup2\n        /* \"#utility.yul\":6417:6437   */\n      sub\n        /* \"#utility.yul\":6413:6414   */\n      0x00\n        /* \"#utility.yul\":6402:6411   */\n      dup4\n        /* \"#utility.yul\":6398:6415   */\n      add\n        /* \"#utility.yul\":6391:6438   */\n      mstore\n        /* \"#utility.yul\":6455:6586   */\n      tag_185\n        /* \"#utility.yul\":6581:6585   */\n      dup2\n        /* \"#utility.yul\":6455:6586   */\n      tag_158\n      jump\t// in\n    tag_185:\n        /* \"#utility.yul\":6447:6586   */\n      swap1\n      pop\n        /* \"#utility.yul\":6174:6593   */\n      swap2\n      swap1\n      pop\n      jump\t// out\n        /* \"#utility.yul\":6599:7018   */\n    tag_67:\n        /* \"#utility.yul\":6765:6769   */\n      0x00\n        /* \"#utility.yul\":6803:6805   */\n      0x20\n        /* \"#utility.yul\":6792:6801   */\n      dup3\n        /* \"#utility.yul\":6788:6806   */\n      add\n        /* \"#utility.yul\":6780:6806   */\n      swap1\n      pop\n        /* \"#utility.yul\":6852:6861   */\n      dup2\n        /* \"#utility.yul\":6846:6850   */\n      dup2\n        /* \"#utility.yul\":6842:6862   */\n      sub\n        /* \"#utility.yul\":6838:6839   */\n      0x00\n        /* \"#utility.yul\":6827:6836   */\n      dup4\n        /* \"#utility.yul\":6823:6840   */\n      add\n        /* \"#utility.yul\":6816:6863   */\n      mstore\n        /* \"#utility.yul\":6880:7011   */\n      tag_187\n        /* \"#utility.yul\":7006:7010   */\n      dup2\n        /* \"#utility.yul\":6880:7011   */\n      tag_163\n      jump\t// in\n    tag_187:\n        /* \"#utility.yul\":6872:7011   */\n      swap1\n      pop\n        /* \"#utility.yul\":6599:7018   */\n      swap2\n      swap1\n      pop\n      jump\t// out\n        /* \"#utility.yul\":7024:7246   */\n    tag_29:\n        /* \"#utility.yul\":7117:7121   */\n      0x00\n        /* \"#utility.yul\":7155:7157   */\n      0x20\n        /* \"#utility.yul\":7144:7153   */\n      dup3\n        /* \"#utility.yul\":7140:7158   */\n      add\n        /* \"#utility.yul\":7132:7158   */\n      swap1\n      pop\n        /* \"#utility.yul\":7168:7239   */\n      tag_189\n        /* \"#utility.yul\":7236:7237   */\n      0x00\n        /* \"#utility.yul\":7225:7234   */\n      dup4\n        /* \"#utility.yul\":7221:7238   */\n      add\n        /* \"#utility.yul\":7212:7218   */\n      dup5\n        /* \"#utility.yul\":7168:7239   */\n      tag_168\n      jump\t// in\n    tag_189:\n        /* \"#utility.yul\":7024:7246   */\n      swap3\n      swap2\n      pop\n      pop\n      jump\t// out\n        /* \"#utility.yul\":7333:7502   */\n    tag_140:\n        /* \"#utility.yul\":7417:7428   */\n      0x00\n        /* \"#utility.yul\":7451:7457   */\n      dup3\n        /* \"#utility.yul\":7446:7449   */\n      dup3\n        /* \"#utility.yul\":7439:7458   */\n      mstore\n        /* \"#utility.yul\":7491:7495   */\n      0x20\n        /* \"#utility.yul\":7486:7489   */\n      dup3\n        /* \"#utility.yul\":7482:7496   */\n      add\n        /* \"#utility.yul\":7467:7496   */\n      swap1\n      pop\n        /* \"#utility.yul\":7333:7502   */\n      swap3\n      swap2\n      pop\n      pop\n      jump\t// out\n        /* \"#utility.yul\":7508:7813   */\n    tag_98:\n        /* \"#utility.yul\":7548:7551   */\n      0x00\n        /* \"#utility.yul\":7567:7587   */\n      tag_194\n        /* \"#utility.yul\":7585:7586   */\n      dup3\n        /* \"#utility.yul\":7567:7587   */\n      tag_171\n      jump\t// in\n    tag_194:\n        /* \"#utility.yul\":7562:7587   */\n      swap2\n      pop\n        /* \"#utility.yul\":7601:7621   */\n      tag_195\n        /* \"#utility.yul\":7619:7620   */\n      dup4\n        /* \"#utility.yul\":7601:7621   */\n      tag_171\n      jump\t// in\n    tag_195:\n        /* \"#utility.yul\":7596:7621   */\n      swap3\n      pop\n        /* \"#utility.yul\":7755:7756   */\n      dup3\n        /* \"#utility.yul\":7687:7753   */\n      0xffffffffffffffffffffffffffffffffffffffffffffffffffffffffffffffff\n        /* \"#utility.yul\":7683:7757   */\n      sub\n        /* \"#utility.yul\":7680:7681   */\n      dup3\n        /* \"#utility.yul\":7677:7758   */\n      gt\n        /* \"#utility.yul\":7674:7781   */\n      iszero\n      tag_196\n      jumpi\n        /* \"#utility.yul\":7761:7779   */\n      tag_197\n      tag_198\n      jump\t// in\n    tag_197:\n        /* \"#utility.yul\":7674:7781   */\n    tag_196:\n        /* \"#utility.yul\":7805:7806   */\n      dup3\n        /* \"#utility.yul\":7802:7803   */\n      dup3\n        /* \"#utility.yul\":7798:7807   */\n      add\n        /* \"#utility.yul\":7791:7807   */\n      swap1\n      pop\n        /* \"#utility.yul\":7508:7813   */\n      swap3\n      swap2\n      pop\n      pop\n      jump\t// out\n        /* \"#utility.yul\":7819:8004   */\n    tag_89:\n        /* \"#utility.yul\":7859:7860   */\n      0x00\n        /* \"#utility.yul\":7876:7896   */\n      tag_200\n        /* \"#utility.yul\":7894:7895   */\n      dup3\n        /* \"#utility.yul\":7876:7896   */\n      tag_171\n      jump\t// in\n    tag_200:\n        /* \"#utility.yul\":7871:7896   */\n      swap2\n      pop\n        /* \"#utility.yul\":7910:7930   */\n      tag_201\n        /* \"#utility.yul\":7928:7929   */\n      dup4\n        /* \"#utility.yul\":7910:7930   */\n      tag_171\n      jump\t// in\n    tag_201:\n        /* \"#utility.yul\":7905:7930   */\n      swap3\n      pop\n        /* \"#utility.yul\":7949:7950   */\n      dup3\n        /* \"#utility.yul\":7939:7974   */\n      tag_202\n      jumpi\n        /* \"#utility.yul\":7954:7972   */\n      tag_203\n      tag_204\n      jump\t// in\n    tag_203:\n        /* \"#utility.yul\":7939:7974   */\n    tag_202:\n        /* \"#utility.yul\":7996:7997   */\n      dup3\n        /* \"#utility.yul\":7993:7994   */\n      dup3\n        /* \"#utility.yul\":7989:7998   */\n      div\n        /* \"#utility.yul\":7984:7998   */\n      swap1\n      pop\n        /* \"#utility.yul\":7819:8004   */\n      swap3\n      swap2\n      pop\n      pop\n      jump\t// out\n        /* \"#utility.yul\":8010:8106   */\n    tag_132:\n        /* \"#utility.yul\":8047:8054   */\n      0x00\n        /* \"#utility.yul\":8076:8100   */\n      tag_206\n        /* \"#utility.yul\":8094:8099   */\n      dup3\n        /* \"#utility.yul\":8076:8100   */\n      tag_207\n      jump\t// in\n    tag_206:\n        /* \"#utility.yul\":8065:8100   */\n      swap1\n      pop\n        /* \"#utility.yul\":8010:8106   */\n      swap2\n      swap1\n      pop\n      jump\t// out\n        /* \"#utility.yul\":8112:8202   */\n    tag_136:\n        /* \"#utility.yul\":8146:8153   */\n      0x00\n        /* \"#utility.yul\":8189:8194   */\n      dup2\n        /* \"#utility.yul\":8182:8195   */\n      iszero\n        /* \"#utility.yul\":8175:8196   */\n      iszero\n        /* \"#utility.yul\":8164:8196   */\n      swap1\n      pop\n        /* \"#utility.yul\":8112:8202   */\n      swap2\n      swap1\n      pop\n      jump\t// out\n        /* \"#utility.yul\":8208:8334   */\n    tag_207:\n        /* \"#utility.yul\":8245:8252   */\n      0x00\n        /* \"#utility.yul\":8285:8327   */\n      0xffffffffffffffffffffffffffffffffffffffff\n        /* \"#utility.yul\":8278:8283   */\n      dup3\n        /* \"#utility.yul\":8274:8328   */\n      and\n        /* \"#utility.yul\":8263:8328   */\n      swap1\n      pop\n        /* \"#utility.yul\":8208:8334   */\n      swap2\n      swap1\n      pop\n      jump\t// out\n        /* \"#utility.yul\":8340:8417   */\n    tag_171:\n        /* \"#utility.yul\":8377:8384   */\n      0x00\n        /* \"#utility.yul\":8406:8411   */\n      dup2\n        /* \"#utility.yul\":8395:8411   */\n      swap1\n      pop\n        /* \"#utility.yul\":8340:8417   */\n      swap2\n      swap1\n      pop\n      jump\t// out\n        /* \"#utility.yul\":8423:8656   */\n    tag_92:\n        /* \"#utility.yul\":8462:8465   */\n      0x00\n        /* \"#utility.yul\":8485:8509   */\n      tag_212\n        /* \"#utility.yul\":8503:8508   */\n      dup3\n        /* \"#utility.yul\":8485:8509   */\n      tag_171\n      jump\t// in\n    tag_212:\n        /* \"#utility.yul\":8476:8509   */\n      swap2\n      pop\n        /* \"#utility.yul\":8531:8597   */\n      0xffffffffffffffffffffffffffffffffffffffffffffffffffffffffffffffff\n        /* \"#utility.yul\":8524:8529   */\n      dup3\n        /* \"#utility.yul\":8521:8598   */\n      eq\n        /* \"#utility.yul\":8518:8621   */\n      iszero\n      tag_213\n      jumpi\n        /* \"#utility.yul\":8601:8619   */\n      tag_214\n      tag_198\n      jump\t// in\n    tag_214:\n        /* \"#utility.yul\":8518:8621   */\n    tag_213:\n        /* \"#utility.yul\":8648:8649   */\n      0x01\n        /* \"#utility.yul\":8641:8646   */\n      dup3\n        /* \"#utility.yul\":8637:8650   */\n      add\n        /* \"#utility.yul\":8630:8650   */\n      swap1\n      pop\n        /* \"#utility.yul\":8423:8656   */\n      swap2\n      swap1\n      pop\n      jump\t// out\n        /* \"#utility.yul\":8662:8842   */\n    tag_198:\n        /* \"#utility.yul\":8710:8787   */\n      0x4e487b7100000000000000000000000000000000000000000000000000000000\n        /* \"#utility.yul\":8707:8708   */\n      0x00\n        /* \"#utility.yul\":8700:8788   */\n      mstore\n        /* \"#utility.yul\":8807:8811   */\n      0x11\n        /* \"#utility.yul\":8804:8805   */\n      0x04\n        /* \"#utility.yul\":8797:8812   */\n      mstore\n        /* \"#utility.yul\":8831:8835   */\n      0x24\n        /* \"#utility.yul\":8828:8829   */\n      0x00\n        /* \"#utility.yul\":8821:8836   */\n      revert\n        /* \"#utility.yul\":8848:9028   */\n    tag_204:\n        /* \"#utility.yul\":8896:8973   */\n      0x4e487b7100000000000000000000000000000000000000000000000000000000\n        /* \"#utility.yul\":8893:8894   */\n      0x00\n        /* \"#utility.yul\":8886:8974   */\n      mstore\n        /* \"#utility.yul\":8993:8997   */\n      0x12\n        /* \"#utility.yul\":8990:8991   */\n      0x04\n        /* \"#utility.yul\":8983:8998   */\n      mstore\n        /* \"#utility.yul\":9017:9021   */\n      0x24\n        /* \"#utility.yul\":9014:9015   */\n      0x00\n        /* \"#utility.yul\":9007:9022   */\n      revert\n        /* \"#utility.yul\":9034:9214   */\n    tag_86:\n        /* \"#utility.yul\":9082:9159   */\n      0x4e487b7100000000000000000000000000000000000000000000000000000000\n        /* \"#utility.yul\":9079:9080   */\n      0x00\n        /* \"#utility.yul\":9072:9160   */\n      mstore\n        /* \"#utility.yul\":9179:9183   */\n      0x32\n        /* \"#utility.yul\":9176:9177   */\n      0x04\n        /* \"#utility.yul\":9169:9184   */\n      mstore\n        /* \"#utility.yul\":9203:9207   */\n      0x24\n        /* \"#utility.yul\":9200:9201   */\n      0x00\n        /* \"#utility.yul\":9193:9208   */\n      revert\n        /* \"#utility.yul\":9343:9460   */\n    tag_119:\n        /* \"#utility.yul\":9452:9453   */\n      0x00\n        /* \"#utility.yul\":9449:9450   */\n      dup1\n        /* \"#utility.yul\":9442:9454   */\n      revert\n        /* \"#utility.yul\":9466:9640   */\n    tag_142:\n        /* \"#utility.yul\":9606:9632   */\n      0x63616c6c6572206d75737420626520746865206f776e65720000000000000000\n        /* \"#utility.yul\":9602:9603   */\n      0x00\n        /* \"#utility.yul\":9594:9600   */\n      dup3\n        /* \"#utility.yul\":9590:9604   */\n      add\n        /* \"#utility.yul\":9583:9633   */\n      mstore\n        /* \"#utility.yul\":9466:9640   */\n      pop\n      jump\t// out\n        /* \"#utility.yul\":9646:9817   */\n    tag_147:\n        /* \"#utility.yul\":9786:9809   */\n      0x596f7520617265206e6f7420746865206f776e65720000000000000000000000\n        /* \"#utility.yul\":9782:9783   */\n      0x00\n        /* \"#utility.yul\":9774:9780   */\n      dup3\n        /* \"#utility.yul\":9770:9784   */\n      add\n        /* \"#utility.yul\":9763:9810   */\n      mstore\n        /* \"#utility.yul\":9646:9817   */\n      pop\n      jump\t// out\n        /* \"#utility.yul\":9823:10043   */\n    tag_152:\n        /* \"#utility.yul\":9963:9997   */\n      0x4f6e6c79206f776e65722063616e2070617573652074686520636f6e74726163\n        /* \"#utility.yul\":9959:9960   */\n      0x00\n        /* \"#utility.yul\":9951:9957   */\n      dup3\n        /* \"#utility.yul\":9947:9961   */\n      add\n        /* \"#utility.yul\":9940:9998   */\n      mstore\n        /* \"#utility.yul\":10032:10035   */\n      0x7400000000000000000000000000000000000000000000000000000000000000\n        /* \"#utility.yul\":10027:10029   */\n      0x20\n        /* \"#utility.yul\":10019:10025   */\n      dup3\n        /* \"#utility.yul\":10015:10030   */\n      add\n        /* \"#utility.yul\":10008:10036   */\n      mstore\n        /* \"#utility.yul\":9823:10043   */\n      pop\n      jump\t// out\n        /* \"#utility.yul\":10049:10217   */\n    tag_157:\n        /* \"#utility.yul\":10189:10209   */\n      0x616d6f756e742063616e6e6f7420626520300000000000000000000000000000\n        /* \"#utility.yul\":10185:10186   */\n      0x00\n        /* \"#utility.yul\":10177:10183   */\n      dup3\n        /* \"#utility.yul\":10173:10187   */\n      add\n        /* \"#utility.yul\":10166:10210   */\n      mstore\n        /* \"#utility.yul\":10049:10217   */\n      pop\n      jump\t// out\n        /* \"#utility.yul\":10223:10388   */\n    tag_162:\n        /* \"#utility.yul\":10363:10380   */\n      0x436f6e7472616374205061757365640000000000000000000000000000000000\n        /* \"#utility.yul\":10359:10360   */\n      0x00\n        /* \"#utility.yul\":10351:10357   */\n      dup3\n        /* \"#utility.yul\":10347:10361   */\n      add\n        /* \"#utility.yul\":10340:10381   */\n      mstore\n        /* \"#utility.yul\":10223:10388   */\n      pop\n      jump\t// out\n        /* \"#utility.yul\":10394:10618   */\n    tag_167:\n        /* \"#utility.yul\":10534:10568   */\n      0x7374616b696e672042616c616e63652063616e6e6f74206265206c6573732074\n        /* \"#utility.yul\":10530:10531   */\n      0x00\n        /* \"#utility.yul\":10522:10528   */\n      dup3\n        /* \"#utility.yul\":10518:10532   */\n      add\n        /* \"#utility.yul\":10511:10569   */\n      mstore\n        /* \"#utility.yul\":10603:10610   */\n      0x68616e2030000000000000000000000000000000000000000000000000000000\n        /* \"#utility.yul\":10598:10600   */\n      0x20\n        /* \"#utility.yul\":10590:10596   */\n      dup3\n        /* \"#utility.yul\":10586:10601   */\n      add\n        /* \"#utility.yul\":10579:10611   */\n      mstore\n        /* \"#utility.yul\":10394:10618   */\n      pop\n      jump\t// out\n        /* \"#utility.yul\":10624:10746   */\n    tag_107:\n        /* \"#utility.yul\":10697:10721   */\n      tag_228\n        /* \"#utility.yul\":10715:10720   */\n      dup2\n        /* \"#utility.yul\":10697:10721   */\n      tag_132\n      jump\t// in\n    tag_228:\n        /* \"#utility.yul\":10690:10695   */\n      dup2\n        /* \"#utility.yul\":10687:10722   */\n      eq\n        /* \"#utility.yul\":10677:10740   */\n      tag_229\n      jumpi\n        /* \"#utility.yul\":10736:10737   */\n      0x00\n        /* \"#utility.yul\":10733:10734   */\n      dup1\n        /* \"#utility.yul\":10726:10738   */\n      revert\n        /* \"#utility.yul\":10677:10740   */\n    tag_229:\n        /* \"#utility.yul\":10624:10746   */\n      pop\n      jump\t// out\n        /* \"#utility.yul\":10752:10868   */\n    tag_111:\n        /* \"#utility.yul\":10822:10843   */\n      tag_231\n        /* \"#utility.yul\":10837:10842   */\n      dup2\n        /* \"#utility.yul\":10822:10843   */\n      tag_136\n      jump\t// in\n    tag_231:\n        /* \"#utility.yul\":10815:10820   */\n      dup2\n        /* \"#utility.yul\":10812:10844   */\n      eq\n        /* \"#utility.yul\":10802:10862   */\n      tag_232\n      jumpi\n        /* \"#utility.yul\":10858:10859   */\n      0x00\n        /* \"#utility.yul\":10855:10856   */\n      dup1\n        /* \"#utility.yul\":10848:10860   */\n      revert\n        /* \"#utility.yul\":10802:10862   */\n    tag_232:\n        /* \"#utility.yul\":10752:10868   */\n      pop\n      jump\t// out\n        /* \"#utility.yul\":10874:10996   */\n    tag_115:\n        /* \"#utility.yul\":10947:10971   */\n      tag_234\n        /* \"#utility.yul\":10965:10970   */\n      dup2\n        /* \"#utility.yul\":10947:10971   */\n      tag_171\n      jump\t// in\n    tag_234:\n        /* \"#utility.yul\":10940:10945   */\n      dup2\n        /* \"#utility.yul\":10937:10972   */\n      eq\n        /* \"#utility.yul\":10927:10990   */\n      tag_235\n      jumpi\n        /* \"#utility.yul\":10986:10987   */\n      0x00\n        /* \"#utility.yul\":10983:10984   */\n      dup1\n        /* \"#utility.yul\":10976:10988   */\n      revert\n        /* \"#utility.yul\":10927:10990   */\n    tag_235:\n        /* \"#utility.yul\":10874:10996   */\n      pop\n      jump\t// out\n\n    auxdata: 0xa26469706673582212200b26b2e995c7e211ddc64d76ef7b8bcbf571d4f08e7777609fe8654a4a9de86664736f6c63430008070033\n}\n",
				"bytecode": {
					"linkReferences": {},
					"object": "608060405234801561001057600080fd5b50336000806101000a81548173ffffffffffffffffffffffffffffffffffffffff021916908373ffffffffffffffffffffffffffffffffffffffff16021790555061104f806100606000396000f3fe608060405234801561001057600080fd5b50600436106100b45760003560e01c80636f49712b116100715780636f49712b146101555780638da5cb5b14610185578063b0370e0c146101a3578063c93c8f34146101c1578063cda6b847146101f1578063fd5e6dd11461020d576100b4565b806316c38b3c146100b957806320eb640c146100d5578063439766ce146100df57806345bc78ab146100e95780634626402b146101195780635c975abb14610137575b600080fd5b6100d360048036038101906100ce9190610a6d565b61023d565b005b6100dd6102e8565b005b6100e76104c4565b005b61010360048036038101906100fe9190610a40565b6105aa565b6040516101109190610cbc565b60405180910390f35b6101216105c2565b60405161012e9190610bc6565b60405180910390f35b61013f6105e8565b60405161014c9190610be1565b60405180910390f35b61016f600480360381019061016a9190610a40565b6105fb565b60405161017c9190610be1565b60405180910390f35b61018d61061b565b60405161019a9190610bc6565b60405180910390f35b6101ab61063f565b6040516101b89190610cbc565b60405180910390f35b6101db60048036038101906101d69190610a40565b6107a1565b6040516101e89190610be1565b60405180910390f35b61020b60048036038101906102069190610a9a565b6107c1565b005b61022760048036038101906102229190610a9a565b6109c2565b6040516102349190610bc6565b60405180910390f35b60008054906101000a900473ffffffffffffffffffffffffffffffffffffffff1673ffffffffffffffffffffffffffffffffffffffff163373ffffffffffffffffffffffffffffffffffffffff16146102cb576040517f08c379a00000000000000000000000000000000000000000000000000000000081526004016102c290610c1c565b60405180910390fd5b80600060146101000a81548160ff02191690831515021790555050565b6000600360003373ffffffffffffffffffffffffffffffffffffffff1673ffffffffffffffffffffffffffffffffffffffff1681526020019081526020016000205490506000811161036f576040517f08c379a000000000000000000000000000000000000000000000000000000000815260040161036690610c9c565b60405180910390fd5b6000600360003373ffffffffffffffffffffffffffffffffffffffff1673ffffffffffffffffffffffffffffffffffffffff16815260200190815260200160002081905550600460003373ffffffffffffffffffffffffffffffffffffffff1673ffffffffffffffffffffffffffffffffffffffff16815260200190815260200160002060009054906101000a900460ff16610469576002339080600181540180825580915050600190039060005260206000200160009091909190916101000a81548173ffffffffffffffffffffffffffffffffffffffff021916908373ffffffffffffffffffffffffffffffffffffffff1602179055505b6000600560003373ffffffffffffffffffffffffffffffffffffffff1673ffffffffffffffffffffffffffffffffffffffff16815260200190815260200160002060006101000a81548160ff02191690831515021790555050565b60008054906101000a900473ffffffffffffffffffffffffffffffffffffffff1673ffffffffffffffffffffffffffffffffffffffff163373ffffffffffffffffffffffffffffffffffffffff1614610552576040517f08c379a000000000000000000000000000000000000000000000000000000000815260040161054990610c3c565b60405180910390fd5b60001515600060149054906101000a900460ff161515146105a8576040517f08c379a000000000000000000000000000000000000000000000000000000000815260040161059f90610c7c565b60405180910390fd5b565b60036020528060005260406000206000915090505481565b600160009054906101000a900473ffffffffffffffffffffffffffffffffffffffff1681565b600060149054906101000a900460ff1681565b60056020528060005260406000206000915054906101000a900460ff1681565b60008054906101000a900473ffffffffffffffffffffffffffffffffffffffff1681565b60008060009054906101000a900473ffffffffffffffffffffffffffffffffffffffff1673ffffffffffffffffffffffffffffffffffffffff163373ffffffffffffffffffffffffffffffffffffffff16146106d0576040517f08c379a00000000000000000000000000000000000000000000000000000000081526004016106c790610bfc565b60405180910390fd5b60005b60028054905081101561079c576000600282815481106106f6576106f5610e5e565b5b9060005260206000200160009054906101000a900473ffffffffffffffffffffffffffffffffffffffff16905060006064600360008473ffffffffffffffffffffffffffffffffffffffff1673ffffffffffffffffffffffffffffffffffffffff168152602001908152602001600020546107719190610d3e565b905060008111156107875780935050505061079e565b5050808061079490610db7565b9150506106d3565b505b90565b60046020528060005260406000206000915054906101000a900460ff1681565b60008111610804576040517f08c379a00000000000000000000000000000000000000000000000000000000081526004016107fb90610c5c565b60405180910390fd5b80600360003373ffffffffffffffffffffffffffffffffffffffff1673ffffffffffffffffffffffffffffffffffffffff16815260200190815260200160002060008282546108539190610ce8565b92505081905550600460003373ffffffffffffffffffffffffffffffffffffffff1673ffffffffffffffffffffffffffffffffffffffff16815260200190815260200160002060009054906101000a900460ff1661090f576002339080600181540180825580915050600190039060005260206000200160009091909190916101000a81548173ffffffffffffffffffffffffffffffffffffffff021916908373ffffffffffffffffffffffffffffffffffffffff1602179055505b6001600560003373ffffffffffffffffffffffffffffffffffffffff1673ffffffffffffffffffffffffffffffffffffffff16815260200190815260200160002060006101000a81548160ff0219169083151502179055506001600460003373ffffffffffffffffffffffffffffffffffffffff1673ffffffffffffffffffffffffffffffffffffffff16815260200190815260200160002060006101000a81548160ff02191690831515021790555050565b600281815481106109d257600080fd5b906000526020600020016000915054906101000a900473ffffffffffffffffffffffffffffffffffffffff1681565b600081359050610a1081610fd4565b92915050565b600081359050610a2581610feb565b92915050565b600081359050610a3a81611002565b92915050565b600060208284031215610a5657610a55610e8d565b5b6000610a6484828501610a01565b91505092915050565b600060208284031215610a8357610a82610e8d565b5b6000610a9184828501610a16565b91505092915050565b600060208284031215610ab057610aaf610e8d565b5b6000610abe84828501610a2b565b91505092915050565b610ad081610d6f565b82525050565b610adf81610d81565b82525050565b6000610af2601883610cd7565b9150610afd82610e92565b602082019050919050565b6000610b15601583610cd7565b9150610b2082610ebb565b602082019050919050565b6000610b38602183610cd7565b9150610b4382610ee4565b604082019050919050565b6000610b5b601283610cd7565b9150610b6682610f33565b602082019050919050565b6000610b7e600f83610cd7565b9150610b8982610f5c565b602082019050919050565b6000610ba1602583610cd7565b9150610bac82610f85565b604082019050919050565b610bc081610dad565b82525050565b6000602082019050610bdb6000830184610ac7565b92915050565b6000602082019050610bf66000830184610ad6565b92915050565b60006020820190508181036000830152610c1581610ae5565b9050919050565b60006020820190508181036000830152610c3581610b08565b9050919050565b60006020820190508181036000830152610c5581610b2b565b9050919050565b60006020820190508181036000830152610c7581610b4e565b9050919050565b60006020820190508181036000830152610c9581610b71565b9050919050565b60006020820190508181036000830152610cb581610b94565b9050919050565b6000602082019050610cd16000830184610bb7565b92915050565b600082825260208201905092915050565b6000610cf382610dad565b9150610cfe83610dad565b9250827fffffffffffffffffffffffffffffffffffffffffffffffffffffffffffffffff03821115610d3357610d32610e00565b5b828201905092915050565b6000610d4982610dad565b9150610d5483610dad565b925082610d6457610d63610e2f565b5b828204905092915050565b6000610d7a82610d8d565b9050919050565b60008115159050919050565b600073ffffffffffffffffffffffffffffffffffffffff82169050919050565b6000819050919050565b6000610dc282610dad565b91507fffffffffffffffffffffffffffffffffffffffffffffffffffffffffffffffff821415610df557610df4610e00565b5b600182019050919050565b7f4e487b7100000000000000000000000000000000000000000000000000000000600052601160045260246000fd5b7f4e487b7100000000000000000000000000000000000000000000000000000000600052601260045260246000fd5b7f4e487b7100000000000000000000000000000000000000000000000000000000600052603260045260246000fd5b600080fd5b7f63616c6c6572206d75737420626520746865206f776e65720000000000000000600082015250565b7f596f7520617265206e6f7420746865206f776e65720000000000000000000000600082015250565b7f4f6e6c79206f776e65722063616e2070617573652074686520636f6e7472616360008201527f7400000000000000000000000000000000000000000000000000000000000000602082015250565b7f616d6f756e742063616e6e6f7420626520300000000000000000000000000000600082015250565b7f436f6e7472616374205061757365640000000000000000000000000000000000600082015250565b7f7374616b696e672042616c616e63652063616e6e6f74206265206c657373207460008201527f68616e2030000000000000000000000000000000000000000000000000000000602082015250565b610fdd81610d6f565b8114610fe857600080fd5b50565b610ff481610d81565b8114610fff57600080fd5b50565b61100b81610dad565b811461101657600080fd5b5056fea26469706673582212200b26b2e995c7e211ddc64d76ef7b8bcbf571d4f08e7777609fe8654a4a9de86664736f6c63430008070033",
					"opcodes": "PUSH1 0x80 PUSH1 0x40 MSTORE CALLVALUE DUP1 ISZERO PUSH2 0x10 JUMPI PUSH1 0x0 DUP1 REVERT JUMPDEST POP CALLER PUSH1 0x0 DUP1 PUSH2 0x100 EXP DUP2 SLOAD DUP2 PUSH20 0xFFFFFFFFFFFFFFFFFFFFFFFFFFFFFFFFFFFFFFFF MUL NOT AND SWAP1 DUP4 PUSH20 0xFFFFFFFFFFFFFFFFFFFFFFFFFFFFFFFFFFFFFFFF AND MUL OR SWAP1 SSTORE POP PUSH2 0x104F DUP1 PUSH2 0x60 PUSH1 0x0 CODECOPY PUSH1 0x0 RETURN INVALID PUSH1 0x80 PUSH1 0x40 MSTORE CALLVALUE DUP1 ISZERO PUSH2 0x10 JUMPI PUSH1 0x0 DUP1 REVERT JUMPDEST POP PUSH1 0x4 CALLDATASIZE LT PUSH2 0xB4 JUMPI PUSH1 0x0 CALLDATALOAD PUSH1 0xE0 SHR DUP1 PUSH4 0x6F49712B GT PUSH2 0x71 JUMPI DUP1 PUSH4 0x6F49712B EQ PUSH2 0x155 JUMPI DUP1 PUSH4 0x8DA5CB5B EQ PUSH2 0x185 JUMPI DUP1 PUSH4 0xB0370E0C EQ PUSH2 0x1A3 JUMPI DUP1 PUSH4 0xC93C8F34 EQ PUSH2 0x1C1 JUMPI DUP1 PUSH4 0xCDA6B847 EQ PUSH2 0x1F1 JUMPI DUP1 PUSH4 0xFD5E6DD1 EQ PUSH2 0x20D JUMPI PUSH2 0xB4 JUMP JUMPDEST DUP1 PUSH4 0x16C38B3C EQ PUSH2 0xB9 JUMPI DUP1 PUSH4 0x20EB640C EQ PUSH2 0xD5 JUMPI DUP1 PUSH4 0x439766CE EQ PUSH2 0xDF JUMPI DUP1 PUSH4 0x45BC78AB EQ PUSH2 0xE9 JUMPI DUP1 PUSH4 0x4626402B EQ PUSH2 0x119 JUMPI DUP1 PUSH4 0x5C975ABB EQ PUSH2 0x137 JUMPI JUMPDEST PUSH1 0x0 DUP1 REVERT JUMPDEST PUSH2 0xD3 PUSH1 0x4 DUP1 CALLDATASIZE SUB DUP2 ADD SWAP1 PUSH2 0xCE SWAP2 SWAP1 PUSH2 0xA6D JUMP JUMPDEST PUSH2 0x23D JUMP JUMPDEST STOP JUMPDEST PUSH2 0xDD PUSH2 0x2E8 JUMP JUMPDEST STOP JUMPDEST PUSH2 0xE7 PUSH2 0x4C4 JUMP JUMPDEST STOP JUMPDEST PUSH2 0x103 PUSH1 0x4 DUP1 CALLDATASIZE SUB DUP2 ADD SWAP1 PUSH2 0xFE SWAP2 SWAP1 PUSH2 0xA40 JUMP JUMPDEST PUSH2 0x5AA JUMP JUMPDEST PUSH1 0x40 MLOAD PUSH2 0x110 SWAP2 SWAP1 PUSH2 0xCBC JUMP JUMPDEST PUSH1 0x40 MLOAD DUP1 SWAP2 SUB SWAP1 RETURN JUMPDEST PUSH2 0x121 PUSH2 0x5C2 JUMP JUMPDEST PUSH1 0x40 MLOAD PUSH2 0x12E SWAP2 SWAP1 PUSH2 0xBC6 JUMP JUMPDEST PUSH1 0x40 MLOAD DUP1 SWAP2 SUB SWAP1 RETURN JUMPDEST PUSH2 0x13F PUSH2 0x5E8 JUMP JUMPDEST PUSH1 0x40 MLOAD PUSH2 0x14C SWAP2 SWAP1 PUSH2 0xBE1 JUMP JUMPDEST PUSH1 0x40 MLOAD DUP1 SWAP2 SUB SWAP1 RETURN JUMPDEST PUSH2 0x16F PUSH1 0x4 DUP1 CALLDATASIZE SUB DUP2 ADD SWAP1 PUSH2 0x16A SWAP2 SWAP1 PUSH2 0xA40 JUMP JUMPDEST PUSH2 0x5FB JUMP JUMPDEST PUSH1 0x40 MLOAD PUSH2 0x17C SWAP2 SWAP1 PUSH2 0xBE1 JUMP JUMPDEST PUSH1 0x40 MLOAD DUP1 SWAP2 SUB SWAP1 RETURN JUMPDEST PUSH2 0x18D PUSH2 0x61B JUMP JUMPDEST PUSH1 0x40 MLOAD PUSH2 0x19A SWAP2 SWAP1 PUSH2 0xBC6 JUMP JUMPDEST PUSH1 0x40 MLOAD DUP1 SWAP2 SUB SWAP1 RETURN JUMPDEST PUSH2 0x1AB PUSH2 0x63F JUMP JUMPDEST PUSH1 0x40 MLOAD PUSH2 0x1B8 SWAP2 SWAP1 PUSH2 0xCBC JUMP JUMPDEST PUSH1 0x40 MLOAD DUP1 SWAP2 SUB SWAP1 RETURN JUMPDEST PUSH2 0x1DB PUSH1 0x4 DUP1 CALLDATASIZE SUB DUP2 ADD SWAP1 PUSH2 0x1D6 SWAP2 SWAP1 PUSH2 0xA40 JUMP JUMPDEST PUSH2 0x7A1 JUMP JUMPDEST PUSH1 0x40 MLOAD PUSH2 0x1E8 SWAP2 SWAP1 PUSH2 0xBE1 JUMP JUMPDEST PUSH1 0x40 MLOAD DUP1 SWAP2 SUB SWAP1 RETURN JUMPDEST PUSH2 0x20B PUSH1 0x4 DUP1 CALLDATASIZE SUB DUP2 ADD SWAP1 PUSH2 0x206 SWAP2 SWAP1 PUSH2 0xA9A JUMP JUMPDEST PUSH2 0x7C1 JUMP JUMPDEST STOP JUMPDEST PUSH2 0x227 PUSH1 0x4 DUP1 CALLDATASIZE SUB DUP2 ADD SWAP1 PUSH2 0x222 SWAP2 SWAP1 PUSH2 0xA9A JUMP JUMPDEST PUSH2 0x9C2 JUMP JUMPDEST PUSH1 0x40 MLOAD PUSH2 0x234 SWAP2 SWAP1 PUSH2 0xBC6 JUMP JUMPDEST PUSH1 0x40 MLOAD DUP1 SWAP2 SUB SWAP1 RETURN JUMPDEST PUSH1 0x0 DUP1 SLOAD SWAP1 PUSH2 0x100 EXP SWAP1 DIV PUSH20 0xFFFFFFFFFFFFFFFFFFFFFFFFFFFFFFFFFFFFFFFF AND PUSH20 0xFFFFFFFFFFFFFFFFFFFFFFFFFFFFFFFFFFFFFFFF AND CALLER PUSH20 0xFFFFFFFFFFFFFFFFFFFFFFFFFFFFFFFFFFFFFFFF AND EQ PUSH2 0x2CB JUMPI PUSH1 0x40 MLOAD PUSH32 0x8C379A000000000000000000000000000000000000000000000000000000000 DUP2 MSTORE PUSH1 0x4 ADD PUSH2 0x2C2 SWAP1 PUSH2 0xC1C JUMP JUMPDEST PUSH1 0x40 MLOAD DUP1 SWAP2 SUB SWAP1 REVERT JUMPDEST DUP1 PUSH1 0x0 PUSH1 0x14 PUSH2 0x100 EXP DUP2 SLOAD DUP2 PUSH1 0xFF MUL NOT AND SWAP1 DUP4 ISZERO ISZERO MUL OR SWAP1 SSTORE POP POP JUMP JUMPDEST PUSH1 0x0 PUSH1 0x3 PUSH1 0x0 CALLER PUSH20 0xFFFFFFFFFFFFFFFFFFFFFFFFFFFFFFFFFFFFFFFF AND PUSH20 0xFFFFFFFFFFFFFFFFFFFFFFFFFFFFFFFFFFFFFFFF AND DUP2 MSTORE PUSH1 0x20 ADD SWAP1 DUP2 MSTORE PUSH1 0x20 ADD PUSH1 0x0 KECCAK256 SLOAD SWAP1 POP PUSH1 0x0 DUP2 GT PUSH2 0x36F JUMPI PUSH1 0x40 MLOAD PUSH32 0x8C379A000000000000000000000000000000000000000000000000000000000 DUP2 MSTORE PUSH1 0x4 ADD PUSH2 0x366 SWAP1 PUSH2 0xC9C JUMP JUMPDEST PUSH1 0x40 MLOAD DUP1 SWAP2 SUB SWAP1 REVERT JUMPDEST PUSH1 0x0 PUSH1 0x3 PUSH1 0x0 CALLER PUSH20 0xFFFFFFFFFFFFFFFFFFFFFFFFFFFFFFFFFFFFFFFF AND PUSH20 0xFFFFFFFFFFFFFFFFFFFFFFFFFFFFFFFFFFFFFFFF AND DUP2 MSTORE PUSH1 0x20 ADD SWAP1 DUP2 MSTORE PUSH1 0x20 ADD PUSH1 0x0 KECCAK256 DUP2 SWAP1 SSTORE POP PUSH1 0x4 PUSH1 0x0 CALLER PUSH20 0xFFFFFFFFFFFFFFFFFFFFFFFFFFFFFFFFFFFFFFFF AND PUSH20 0xFFFFFFFFFFFFFFFFFFFFFFFFFFFFFFFFFFFFFFFF AND DUP2 MSTORE PUSH1 0x20 ADD SWAP1 DUP2 MSTORE PUSH1 0x20 ADD PUSH1 0x0 KECCAK256 PUSH1 0x0 SWAP1 SLOAD SWAP1 PUSH2 0x100 EXP SWAP1 DIV PUSH1 0xFF AND PUSH2 0x469 JUMPI PUSH1 0x2 CALLER SWAP1 DUP1 PUSH1 0x1 DUP2 SLOAD ADD DUP1 DUP3 SSTORE DUP1 SWAP2 POP POP PUSH1 0x1 SWAP1 SUB SWAP1 PUSH1 0x0 MSTORE PUSH1 0x20 PUSH1 0x0 KECCAK256 ADD PUSH1 0x0 SWAP1 SWAP2 SWAP1 SWAP2 SWAP1 SWAP2 PUSH2 0x100 EXP DUP2 SLOAD DUP2 PUSH20 0xFFFFFFFFFFFFFFFFFFFFFFFFFFFFFFFFFFFFFFFF MUL NOT AND SWAP1 DUP4 PUSH20 0xFFFFFFFFFFFFFFFFFFFFFFFFFFFFFFFFFFFFFFFF AND MUL OR SWAP1 SSTORE POP JUMPDEST PUSH1 0x0 PUSH1 0x5 PUSH1 0x0 CALLER PUSH20 0xFFFFFFFFFFFFFFFFFFFFFFFFFFFFFFFFFFFFFFFF AND PUSH20 0xFFFFFFFFFFFFFFFFFFFFFFFFFFFFFFFFFFFFFFFF AND DUP2 MSTORE PUSH1 0x20 ADD SWAP1 DUP2 MSTORE PUSH1 0x20 ADD PUSH1 0x0 KECCAK256 PUSH1 0x0 PUSH2 0x100 EXP DUP2 SLOAD DUP2 PUSH1 0xFF MUL NOT AND SWAP1 DUP4 ISZERO ISZERO MUL OR SWAP1 SSTORE POP POP JUMP JUMPDEST PUSH1 0x0 DUP1 SLOAD SWAP1 PUSH2 0x100 EXP SWAP1 DIV PUSH20 0xFFFFFFFFFFFFFFFFFFFFFFFFFFFFFFFFFFFFFFFF AND PUSH20 0xFFFFFFFFFFFFFFFFFFFFFFFFFFFFFFFFFFFFFFFF AND CALLER PUSH20 0xFFFFFFFFFFFFFFFFFFFFFFFFFFFFFFFFFFFFFFFF AND EQ PUSH2 0x552 JUMPI PUSH1 0x40 MLOAD PUSH32 0x8C379A000000000000000000000000000000000000000000000000000000000 DUP2 MSTORE PUSH1 0x4 ADD PUSH2 0x549 SWAP1 PUSH2 0xC3C JUMP JUMPDEST PUSH1 0x40 MLOAD DUP1 SWAP2 SUB SWAP1 REVERT JUMPDEST PUSH1 0x0 ISZERO ISZERO PUSH1 0x0 PUSH1 0x14 SWAP1 SLOAD SWAP1 PUSH2 0x100 EXP SWAP1 DIV PUSH1 0xFF AND ISZERO ISZERO EQ PUSH2 0x5A8 JUMPI PUSH1 0x40 MLOAD PUSH32 0x8C379A000000000000000000000000000000000000000000000000000000000 DUP2 MSTORE PUSH1 0x4 ADD PUSH2 0x59F SWAP1 PUSH2 0xC7C JUMP JUMPDEST PUSH1 0x40 MLOAD DUP1 SWAP2 SUB SWAP1 REVERT JUMPDEST JUMP JUMPDEST PUSH1 0x3 PUSH1 0x20 MSTORE DUP1 PUSH1 0x0 MSTORE PUSH1 0x40 PUSH1 0x0 KECCAK256 PUSH1 0x0 SWAP2 POP SWAP1 POP SLOAD DUP2 JUMP JUMPDEST PUSH1 0x1 PUSH1 0x0 SWAP1 SLOAD SWAP1 PUSH2 0x100 EXP SWAP1 DIV PUSH20 0xFFFFFFFFFFFFFFFFFFFFFFFFFFFFFFFFFFFFFFFF AND DUP2 JUMP JUMPDEST PUSH1 0x0 PUSH1 0x14 SWAP1 SLOAD SWAP1 PUSH2 0x100 EXP SWAP1 DIV PUSH1 0xFF AND DUP2 JUMP JUMPDEST PUSH1 0x5 PUSH1 0x20 MSTORE DUP1 PUSH1 0x0 MSTORE PUSH1 0x40 PUSH1 0x0 KECCAK256 PUSH1 0x0 SWAP2 POP SLOAD SWAP1 PUSH2 0x100 EXP SWAP1 DIV PUSH1 0xFF AND DUP2 JUMP JUMPDEST PUSH1 0x0 DUP1 SLOAD SWAP1 PUSH2 0x100 EXP SWAP1 DIV PUSH20 0xFFFFFFFFFFFFFFFFFFFFFFFFFFFFFFFFFFFFFFFF AND DUP2 JUMP JUMPDEST PUSH1 0x0 DUP1 PUSH1 0x0 SWAP1 SLOAD SWAP1 PUSH2 0x100 EXP SWAP1 DIV PUSH20 0xFFFFFFFFFFFFFFFFFFFFFFFFFFFFFFFFFFFFFFFF AND PUSH20 0xFFFFFFFFFFFFFFFFFFFFFFFFFFFFFFFFFFFFFFFF AND CALLER PUSH20 0xFFFFFFFFFFFFFFFFFFFFFFFFFFFFFFFFFFFFFFFF AND EQ PUSH2 0x6D0 JUMPI PUSH1 0x40 MLOAD PUSH32 0x8C379A000000000000000000000000000000000000000000000000000000000 DUP2 MSTORE PUSH1 0x4 ADD PUSH2 0x6C7 SWAP1 PUSH2 0xBFC JUMP JUMPDEST PUSH1 0x40 MLOAD DUP1 SWAP2 SUB SWAP1 REVERT JUMPDEST PUSH1 0x0 JUMPDEST PUSH1 0x2 DUP1 SLOAD SWAP1 POP DUP2 LT ISZERO PUSH2 0x79C JUMPI PUSH1 0x0 PUSH1 0x2 DUP3 DUP2 SLOAD DUP2 LT PUSH2 0x6F6 JUMPI PUSH2 0x6F5 PUSH2 0xE5E JUMP JUMPDEST JUMPDEST SWAP1 PUSH1 0x0 MSTORE PUSH1 0x20 PUSH1 0x0 KECCAK256 ADD PUSH1 0x0 SWAP1 SLOAD SWAP1 PUSH2 0x100 EXP SWAP1 DIV PUSH20 0xFFFFFFFFFFFFFFFFFFFFFFFFFFFFFFFFFFFFFFFF AND SWAP1 POP PUSH1 0x0 PUSH1 0x64 PUSH1 0x3 PUSH1 0x0 DUP5 PUSH20 0xFFFFFFFFFFFFFFFFFFFFFFFFFFFFFFFFFFFFFFFF AND PUSH20 0xFFFFFFFFFFFFFFFFFFFFFFFFFFFFFFFFFFFFFFFF AND DUP2 MSTORE PUSH1 0x20 ADD SWAP1 DUP2 MSTORE PUSH1 0x20 ADD PUSH1 0x0 KECCAK256 SLOAD PUSH2 0x771 SWAP2 SWAP1 PUSH2 0xD3E JUMP JUMPDEST SWAP1 POP PUSH1 0x0 DUP2 GT ISZERO PUSH2 0x787 JUMPI DUP1 SWAP4 POP POP POP POP PUSH2 0x79E JUMP JUMPDEST POP POP DUP1 DUP1 PUSH2 0x794 SWAP1 PUSH2 0xDB7 JUMP JUMPDEST SWAP2 POP POP PUSH2 0x6D3 JUMP JUMPDEST POP JUMPDEST SWAP1 JUMP JUMPDEST PUSH1 0x4 PUSH1 0x20 MSTORE DUP1 PUSH1 0x0 MSTORE PUSH1 0x40 PUSH1 0x0 KECCAK256 PUSH1 0x0 SWAP2 POP SLOAD SWAP1 PUSH2 0x100 EXP SWAP1 DIV PUSH1 0xFF AND DUP2 JUMP JUMPDEST PUSH1 0x0 DUP2 GT PUSH2 0x804 JUMPI PUSH1 0x40 MLOAD PUSH32 0x8C379A000000000000000000000000000000000000000000000000000000000 DUP2 MSTORE PUSH1 0x4 ADD PUSH2 0x7FB SWAP1 PUSH2 0xC5C JUMP JUMPDEST PUSH1 0x40 MLOAD DUP1 SWAP2 SUB SWAP1 REVERT JUMPDEST DUP1 PUSH1 0x3 PUSH1 0x0 CALLER PUSH20 0xFFFFFFFFFFFFFFFFFFFFFFFFFFFFFFFFFFFFFFFF AND PUSH20 0xFFFFFFFFFFFFFFFFFFFFFFFFFFFFFFFFFFFFFFFF AND DUP2 MSTORE PUSH1 0x20 ADD SWAP1 DUP2 MSTORE PUSH1 0x20 ADD PUSH1 0x0 KECCAK256 PUSH1 0x0 DUP3 DUP3 SLOAD PUSH2 0x853 SWAP2 SWAP1 PUSH2 0xCE8 JUMP JUMPDEST SWAP3 POP POP DUP2 SWAP1 SSTORE POP PUSH1 0x4 PUSH1 0x0 CALLER PUSH20 0xFFFFFFFFFFFFFFFFFFFFFFFFFFFFFFFFFFFFFFFF AND PUSH20 0xFFFFFFFFFFFFFFFFFFFFFFFFFFFFFFFFFFFFFFFF AND DUP2 MSTORE PUSH1 0x20 ADD SWAP1 DUP2 MSTORE PUSH1 0x20 ADD PUSH1 0x0 KECCAK256 PUSH1 0x0 SWAP1 SLOAD SWAP1 PUSH2 0x100 EXP SWAP1 DIV PUSH1 0xFF AND PUSH2 0x90F JUMPI PUSH1 0x2 CALLER SWAP1 DUP1 PUSH1 0x1 DUP2 SLOAD ADD DUP1 DUP3 SSTORE DUP1 SWAP2 POP POP PUSH1 0x1 SWAP1 SUB SWAP1 PUSH1 0x0 MSTORE PUSH1 0x20 PUSH1 0x0 KECCAK256 ADD PUSH1 0x0 SWAP1 SWAP2 SWAP1 SWAP2 SWAP1 SWAP2 PUSH2 0x100 EXP DUP2 SLOAD DUP2 PUSH20 0xFFFFFFFFFFFFFFFFFFFFFFFFFFFFFFFFFFFFFFFF MUL NOT AND SWAP1 DUP4 PUSH20 0xFFFFFFFFFFFFFFFFFFFFFFFFFFFFFFFFFFFFFFFF AND MUL OR SWAP1 SSTORE POP JUMPDEST PUSH1 0x1 PUSH1 0x5 PUSH1 0x0 CALLER PUSH20 0xFFFFFFFFFFFFFFFFFFFFFFFFFFFFFFFFFFFFFFFF AND PUSH20 0xFFFFFFFFFFFFFFFFFFFFFFFFFFFFFFFFFFFFFFFF AND DUP2 MSTORE PUSH1 0x20 ADD SWAP1 DUP2 MSTORE PUSH1 0x20 ADD PUSH1 0x0 KECCAK256 PUSH1 0x0 PUSH2 0x100 EXP DUP2 SLOAD DUP2 PUSH1 0xFF MUL NOT AND SWAP1 DUP4 ISZERO ISZERO MUL OR SWAP1 SSTORE POP PUSH1 0x1 PUSH1 0x4 PUSH1 0x0 CALLER PUSH20 0xFFFFFFFFFFFFFFFFFFFFFFFFFFFFFFFFFFFFFFFF AND PUSH20 0xFFFFFFFFFFFFFFFFFFFFFFFFFFFFFFFFFFFFFFFF AND DUP2 MSTORE PUSH1 0x20 ADD SWAP1 DUP2 MSTORE PUSH1 0x20 ADD PUSH1 0x0 KECCAK256 PUSH1 0x0 PUSH2 0x100 EXP DUP2 SLOAD DUP2 PUSH1 0xFF MUL NOT AND SWAP1 DUP4 ISZERO ISZERO MUL OR SWAP1 SSTORE POP POP JUMP JUMPDEST PUSH1 0x2 DUP2 DUP2 SLOAD DUP2 LT PUSH2 0x9D2 JUMPI PUSH1 0x0 DUP1 REVERT JUMPDEST SWAP1 PUSH1 0x0 MSTORE PUSH1 0x20 PUSH1 0x0 KECCAK256 ADD PUSH1 0x0 SWAP2 POP SLOAD SWAP1 PUSH2 0x100 EXP SWAP1 DIV PUSH20 0xFFFFFFFFFFFFFFFFFFFFFFFFFFFFFFFFFFFFFFFF AND DUP2 JUMP JUMPDEST PUSH1 0x0 DUP2 CALLDATALOAD SWAP1 POP PUSH2 0xA10 DUP2 PUSH2 0xFD4 JUMP JUMPDEST SWAP3 SWAP2 POP POP JUMP JUMPDEST PUSH1 0x0 DUP2 CALLDATALOAD SWAP1 POP PUSH2 0xA25 DUP2 PUSH2 0xFEB JUMP JUMPDEST SWAP3 SWAP2 POP POP JUMP JUMPDEST PUSH1 0x0 DUP2 CALLDATALOAD SWAP1 POP PUSH2 0xA3A DUP2 PUSH2 0x1002 JUMP JUMPDEST SWAP3 SWAP2 POP POP JUMP JUMPDEST PUSH1 0x0 PUSH1 0x20 DUP3 DUP5 SUB SLT ISZERO PUSH2 0xA56 JUMPI PUSH2 0xA55 PUSH2 0xE8D JUMP JUMPDEST JUMPDEST PUSH1 0x0 PUSH2 0xA64 DUP5 DUP3 DUP6 ADD PUSH2 0xA01 JUMP JUMPDEST SWAP2 POP POP SWAP3 SWAP2 POP POP JUMP JUMPDEST PUSH1 0x0 PUSH1 0x20 DUP3 DUP5 SUB SLT ISZERO PUSH2 0xA83 JUMPI PUSH2 0xA82 PUSH2 0xE8D JUMP JUMPDEST JUMPDEST PUSH1 0x0 PUSH2 0xA91 DUP5 DUP3 DUP6 ADD PUSH2 0xA16 JUMP JUMPDEST SWAP2 POP POP SWAP3 SWAP2 POP POP JUMP JUMPDEST PUSH1 0x0 PUSH1 0x20 DUP3 DUP5 SUB SLT ISZERO PUSH2 0xAB0 JUMPI PUSH2 0xAAF PUSH2 0xE8D JUMP JUMPDEST JUMPDEST PUSH1 0x0 PUSH2 0xABE DUP5 DUP3 DUP6 ADD PUSH2 0xA2B JUMP JUMPDEST SWAP2 POP POP SWAP3 SWAP2 POP POP JUMP JUMPDEST PUSH2 0xAD0 DUP2 PUSH2 0xD6F JUMP JUMPDEST DUP3 MSTORE POP POP JUMP JUMPDEST PUSH2 0xADF DUP2 PUSH2 0xD81 JUMP JUMPDEST DUP3 MSTORE POP POP JUMP JUMPDEST PUSH1 0x0 PUSH2 0xAF2 PUSH1 0x18 DUP4 PUSH2 0xCD7 JUMP JUMPDEST SWAP2 POP PUSH2 0xAFD DUP3 PUSH2 0xE92 JUMP JUMPDEST PUSH1 0x20 DUP3 ADD SWAP1 POP SWAP2 SWAP1 POP JUMP JUMPDEST PUSH1 0x0 PUSH2 0xB15 PUSH1 0x15 DUP4 PUSH2 0xCD7 JUMP JUMPDEST SWAP2 POP PUSH2 0xB20 DUP3 PUSH2 0xEBB JUMP JUMPDEST PUSH1 0x20 DUP3 ADD SWAP1 POP SWAP2 SWAP1 POP JUMP JUMPDEST PUSH1 0x0 PUSH2 0xB38 PUSH1 0x21 DUP4 PUSH2 0xCD7 JUMP JUMPDEST SWAP2 POP PUSH2 0xB43 DUP3 PUSH2 0xEE4 JUMP JUMPDEST PUSH1 0x40 DUP3 ADD SWAP1 POP SWAP2 SWAP1 POP JUMP JUMPDEST PUSH1 0x0 PUSH2 0xB5B PUSH1 0x12 DUP4 PUSH2 0xCD7 JUMP JUMPDEST SWAP2 POP PUSH2 0xB66 DUP3 PUSH2 0xF33 JUMP JUMPDEST PUSH1 0x20 DUP3 ADD SWAP1 POP SWAP2 SWAP1 POP JUMP JUMPDEST PUSH1 0x0 PUSH2 0xB7E PUSH1 0xF DUP4 PUSH2 0xCD7 JUMP JUMPDEST SWAP2 POP PUSH2 0xB89 DUP3 PUSH2 0xF5C JUMP JUMPDEST PUSH1 0x20 DUP3 ADD SWAP1 POP SWAP2 SWAP1 POP JUMP JUMPDEST PUSH1 0x0 PUSH2 0xBA1 PUSH1 0x25 DUP4 PUSH2 0xCD7 JUMP JUMPDEST SWAP2 POP PUSH2 0xBAC DUP3 PUSH2 0xF85 JUMP JUMPDEST PUSH1 0x40 DUP3 ADD SWAP1 POP SWAP2 SWAP1 POP JUMP JUMPDEST PUSH2 0xBC0 DUP2 PUSH2 0xDAD JUMP JUMPDEST DUP3 MSTORE POP POP JUMP JUMPDEST PUSH1 0x0 PUSH1 0x20 DUP3 ADD SWAP1 POP PUSH2 0xBDB PUSH1 0x0 DUP4 ADD DUP5 PUSH2 0xAC7 JUMP JUMPDEST SWAP3 SWAP2 POP POP JUMP JUMPDEST PUSH1 0x0 PUSH1 0x20 DUP3 ADD SWAP1 POP PUSH2 0xBF6 PUSH1 0x0 DUP4 ADD DUP5 PUSH2 0xAD6 JUMP JUMPDEST SWAP3 SWAP2 POP POP JUMP JUMPDEST PUSH1 0x0 PUSH1 0x20 DUP3 ADD SWAP1 POP DUP2 DUP2 SUB PUSH1 0x0 DUP4 ADD MSTORE PUSH2 0xC15 DUP2 PUSH2 0xAE5 JUMP JUMPDEST SWAP1 POP SWAP2 SWAP1 POP JUMP JUMPDEST PUSH1 0x0 PUSH1 0x20 DUP3 ADD SWAP1 POP DUP2 DUP2 SUB PUSH1 0x0 DUP4 ADD MSTORE PUSH2 0xC35 DUP2 PUSH2 0xB08 JUMP JUMPDEST SWAP1 POP SWAP2 SWAP1 POP JUMP JUMPDEST PUSH1 0x0 PUSH1 0x20 DUP3 ADD SWAP1 POP DUP2 DUP2 SUB PUSH1 0x0 DUP4 ADD MSTORE PUSH2 0xC55 DUP2 PUSH2 0xB2B JUMP JUMPDEST SWAP1 POP SWAP2 SWAP1 POP JUMP JUMPDEST PUSH1 0x0 PUSH1 0x20 DUP3 ADD SWAP1 POP DUP2 DUP2 SUB PUSH1 0x0 DUP4 ADD MSTORE PUSH2 0xC75 DUP2 PUSH2 0xB4E JUMP JUMPDEST SWAP1 POP SWAP2 SWAP1 POP JUMP JUMPDEST PUSH1 0x0 PUSH1 0x20 DUP3 ADD SWAP1 POP DUP2 DUP2 SUB PUSH1 0x0 DUP4 ADD MSTORE PUSH2 0xC95 DUP2 PUSH2 0xB71 JUMP JUMPDEST SWAP1 POP SWAP2 SWAP1 POP JUMP JUMPDEST PUSH1 0x0 PUSH1 0x20 DUP3 ADD SWAP1 POP DUP2 DUP2 SUB PUSH1 0x0 DUP4 ADD MSTORE PUSH2 0xCB5 DUP2 PUSH2 0xB94 JUMP JUMPDEST SWAP1 POP SWAP2 SWAP1 POP JUMP JUMPDEST PUSH1 0x0 PUSH1 0x20 DUP3 ADD SWAP1 POP PUSH2 0xCD1 PUSH1 0x0 DUP4 ADD DUP5 PUSH2 0xBB7 JUMP JUMPDEST SWAP3 SWAP2 POP POP JUMP JUMPDEST PUSH1 0x0 DUP3 DUP3 MSTORE PUSH1 0x20 DUP3 ADD SWAP1 POP SWAP3 SWAP2 POP POP JUMP JUMPDEST PUSH1 0x0 PUSH2 0xCF3 DUP3 PUSH2 0xDAD JUMP JUMPDEST SWAP2 POP PUSH2 0xCFE DUP4 PUSH2 0xDAD JUMP JUMPDEST SWAP3 POP DUP3 PUSH32 0xFFFFFFFFFFFFFFFFFFFFFFFFFFFFFFFFFFFFFFFFFFFFFFFFFFFFFFFFFFFFFFFF SUB DUP3 GT ISZERO PUSH2 0xD33 JUMPI PUSH2 0xD32 PUSH2 0xE00 JUMP JUMPDEST JUMPDEST DUP3 DUP3 ADD SWAP1 POP SWAP3 SWAP2 POP POP JUMP JUMPDEST PUSH1 0x0 PUSH2 0xD49 DUP3 PUSH2 0xDAD JUMP JUMPDEST SWAP2 POP PUSH2 0xD54 DUP4 PUSH2 0xDAD JUMP JUMPDEST SWAP3 POP DUP3 PUSH2 0xD64 JUMPI PUSH2 0xD63 PUSH2 0xE2F JUMP JUMPDEST JUMPDEST DUP3 DUP3 DIV SWAP1 POP SWAP3 SWAP2 POP POP JUMP JUMPDEST PUSH1 0x0 PUSH2 0xD7A DUP3 PUSH2 0xD8D JUMP JUMPDEST SWAP1 POP SWAP2 SWAP1 POP JUMP JUMPDEST PUSH1 0x0 DUP2 ISZERO ISZERO SWAP1 POP SWAP2 SWAP1 POP JUMP JUMPDEST PUSH1 0x0 PUSH20 0xFFFFFFFFFFFFFFFFFFFFFFFFFFFFFFFFFFFFFFFF DUP3 AND SWAP1 POP SWAP2 SWAP1 POP JUMP JUMPDEST PUSH1 0x0 DUP2 SWAP1 POP SWAP2 SWAP1 POP JUMP JUMPDEST PUSH1 0x0 PUSH2 0xDC2 DUP3 PUSH2 0xDAD JUMP JUMPDEST SWAP2 POP PUSH32 0xFFFFFFFFFFFFFFFFFFFFFFFFFFFFFFFFFFFFFFFFFFFFFFFFFFFFFFFFFFFFFFFF DUP3 EQ ISZERO PUSH2 0xDF5 JUMPI PUSH2 0xDF4 PUSH2 0xE00 JUMP JUMPDEST JUMPDEST PUSH1 0x1 DUP3 ADD SWAP1 POP SWAP2 SWAP1 POP JUMP JUMPDEST PUSH32 0x4E487B7100000000000000000000000000000000000000000000000000000000 PUSH1 0x0 MSTORE PUSH1 0x11 PUSH1 0x4 MSTORE PUSH1 0x24 PUSH1 0x0 REVERT JUMPDEST PUSH32 0x4E487B7100000000000000000000000000000000000000000000000000000000 PUSH1 0x0 MSTORE PUSH1 0x12 PUSH1 0x4 MSTORE PUSH1 0x24 PUSH1 0x0 REVERT JUMPDEST PUSH32 0x4E487B7100000000000000000000000000000000000000000000000000000000 PUSH1 0x0 MSTORE PUSH1 0x32 PUSH1 0x4 MSTORE PUSH1 0x24 PUSH1 0x0 REVERT JUMPDEST PUSH1 0x0 DUP1 REVERT JUMPDEST PUSH32 0x63616C6C6572206D75737420626520746865206F776E65720000000000000000 PUSH1 0x0 DUP3 ADD MSTORE POP JUMP JUMPDEST PUSH32 0x596F7520617265206E6F7420746865206F776E65720000000000000000000000 PUSH1 0x0 DUP3 ADD MSTORE POP JUMP JUMPDEST PUSH32 0x4F6E6C79206F776E65722063616E2070617573652074686520636F6E74726163 PUSH1 0x0 DUP3 ADD MSTORE PUSH32 0x7400000000000000000000000000000000000000000000000000000000000000 PUSH1 0x20 DUP3 ADD MSTORE POP JUMP JUMPDEST PUSH32 0x616D6F756E742063616E6E6F7420626520300000000000000000000000000000 PUSH1 0x0 DUP3 ADD MSTORE POP JUMP JUMPDEST PUSH32 0x436F6E7472616374205061757365640000000000000000000000000000000000 PUSH1 0x0 DUP3 ADD MSTORE POP JUMP JUMPDEST PUSH32 0x7374616B696E672042616C616E63652063616E6E6F74206265206C6573732074 PUSH1 0x0 DUP3 ADD MSTORE PUSH32 0x68616E2030000000000000000000000000000000000000000000000000000000 PUSH1 0x20 DUP3 ADD MSTORE POP JUMP JUMPDEST PUSH2 0xFDD DUP2 PUSH2 0xD6F JUMP JUMPDEST DUP2 EQ PUSH2 0xFE8 JUMPI PUSH1 0x0 DUP1 REVERT JUMPDEST POP JUMP JUMPDEST PUSH2 0xFF4 DUP2 PUSH2 0xD81 JUMP JUMPDEST DUP2 EQ PUSH2 0xFFF JUMPI PUSH1 0x0 DUP1 REVERT JUMPDEST POP JUMP JUMPDEST PUSH2 0x100B DUP2 PUSH2 0xDAD JUMP JUMPDEST DUP2 EQ PUSH2 0x1016 JUMPI PUSH1 0x0 DUP1 REVERT JUMPDEST POP JUMP INVALID LOG2 PUSH5 0x6970667358 0x22 SLT KECCAK256 SIGNEXTEND 0x26 0xB2 0xE9 SWAP6 0xC7 0xE2 GT 0xDD 0xC6 0x4D PUSH23 0xEF7B8BCBF571D4F08E7777609FE8654A4A9DE86664736F PUSH13 0x63430008070033000000000000 "
				},
				"gasEstimates": {
					"creation": {
						"codeDepositCost": "835000",
						"executionCost": "25136",
						"totalCost": "860136"
					},
					"external": {
						"hasStaked(address)": "2911",
						"isStaking(address)": "2845",
						"issueRewards()": "infinite",
						"owner()": "2533",
						"pauseContract()": "4866",
						"paused()": "2632",
						"setPaused(bool)": "26897",
						"stakeToken(uint256)": "infinite",
						"stakers(uint256)": "5066",
						"stakingBalance(address)": "2881",
						"treasuryWallet()": "2603",
						"unstakeToken()": "82671"
					}
				},
				"methodIdentifiers": {
					"hasStaked(address)": "c93c8f34",
					"isStaking(address)": "6f49712b",
					"issueRewards()": "b0370e0c",
					"owner()": "8da5cb5b",
					"pauseContract()": "439766ce",
					"paused()": "5c975abb",
					"setPaused(bool)": "16c38b3c",
					"stakeToken(uint256)": "cda6b847",
					"stakers(uint256)": "fd5e6dd1",
					"stakingBalance(address)": "45bc78ab",
					"treasuryWallet()": "4626402b",
					"unstakeToken()": "20eb640c"
				}
			},
			"storageLayout": {
				"storage": [
					{
						"astId": 3,
						"contract": "contracts/staking.sol:App",
						"label": "owner",
						"offset": 0,
						"slot": "0",
						"type": "t_address"
					},
					{
						"astId": 5,
						"contract": "contracts/staking.sol:App",
						"label": "paused",
						"offset": 20,
						"slot": "0",
						"type": "t_bool"
					},
					{
						"astId": 7,
						"contract": "contracts/staking.sol:App",
						"label": "treasuryWallet",
						"offset": 0,
						"slot": "1",
						"type": "t_address"
					},
					{
						"astId": 10,
						"contract": "contracts/staking.sol:App",
						"label": "stakers",
						"offset": 0,
						"slot": "2",
						"type": "t_array(t_address)dyn_storage"
					},
					{
						"astId": 14,
						"contract": "contracts/staking.sol:App",
						"label": "stakingBalance",
						"offset": 0,
						"slot": "3",
						"type": "t_mapping(t_address,t_uint256)"
					},
					{
						"astId": 18,
						"contract": "contracts/staking.sol:App",
						"label": "hasStaked",
						"offset": 0,
						"slot": "4",
						"type": "t_mapping(t_address,t_bool)"
					},
					{
						"astId": 22,
						"contract": "contracts/staking.sol:App",
						"label": "isStaking",
						"offset": 0,
						"slot": "5",
						"type": "t_mapping(t_address,t_bool)"
					}
				],
				"types": {
					"t_address": {
						"encoding": "inplace",
						"label": "address",
						"numberOfBytes": "20"
					},
					"t_array(t_address)dyn_storage": {
						"base": "t_address",
						"encoding": "dynamic_array",
						"label": "address[]",
						"numberOfBytes": "32"
					},
					"t_bool": {
						"encoding": "inplace",
						"label": "bool",
						"numberOfBytes": "1"
					},
					"t_mapping(t_address,t_bool)": {
						"encoding": "mapping",
						"key": "t_address",
						"label": "mapping(address => bool)",
						"numberOfBytes": "32",
						"value": "t_bool"
					},
					"t_mapping(t_address,t_uint256)": {
						"encoding": "mapping",
						"key": "t_address",
						"label": "mapping(address => uint256)",
						"numberOfBytes": "32",
						"value": "t_uint256"
					},
					"t_uint256": {
						"encoding": "inplace",
						"label": "uint256",
						"numberOfBytes": "32"
					}
				}
			},
			"userdoc": {
				"kind": "user",
				"methods": {},
				"version": 1
			}
		}
	}
}