{
	"contracts/staking.sol": {
		"App": {
			"abi": [
				{
					"inputs": [],
					"stateMutability": "nonpayable",
					"type": "constructor"
				},
				{
					"inputs": [],
					"name": "blockUser",
					"outputs": [
						{
							"internalType": "bool",
							"name": "",
							"type": "bool"
						}
					],
					"stateMutability": "view",
					"type": "function"
				},
				{
					"inputs": [],
					"name": "depositTax",
					"outputs": [],
					"stateMutability": "nonpayable",
					"type": "function"
				},
				{
					"inputs": [
						{
							"internalType": "address",
							"name": "",
							"type": "address"
						}
					],
					"name": "hasStaked",
					"outputs": [
						{
							"internalType": "bool",
							"name": "",
							"type": "bool"
						}
					],
					"stateMutability": "view",
					"type": "function"
				},
				{
					"inputs": [
						{
							"internalType": "address",
							"name": "",
							"type": "address"
						}
					],
					"name": "isStaking",
					"outputs": [
						{
							"internalType": "bool",
							"name": "",
							"type": "bool"
						}
					],
					"stateMutability": "view",
					"type": "function"
				},
				{
					"inputs": [],
					"name": "issueRewards",
					"outputs": [
						{
							"internalType": "uint256",
							"name": "",
							"type": "uint256"
						}
					],
					"stateMutability": "view",
					"type": "function"
				},
				{
					"inputs": [],
					"name": "owner",
					"outputs": [
						{
							"internalType": "address",
							"name": "",
							"type": "address"
						}
					],
					"stateMutability": "view",
					"type": "function"
				},
				{
					"inputs": [],
					"name": "pauseContract",
					"outputs": [],
					"stateMutability": "view",
					"type": "function"
				},
				{
					"inputs": [],
					"name": "paused",
					"outputs": [
						{
							"internalType": "bool",
							"name": "",
							"type": "bool"
						}
					],
					"stateMutability": "view",
					"type": "function"
				},
				{
					"inputs": [
						{
							"internalType": "bool",
							"name": "_blockUser",
							"type": "bool"
						}
					],
					"name": "setBlockUser",
					"outputs": [],
					"stateMutability": "nonpayable",
					"type": "function"
				},
				{
					"inputs": [
						{
							"internalType": "bool",
							"name": "_paused",
							"type": "bool"
						}
					],
					"name": "setPaused",
					"outputs": [],
					"stateMutability": "nonpayable",
					"type": "function"
				},
				{
					"inputs": [],
					"name": "stakeToken",
					"outputs": [],
					"stateMutability": "payable",
					"type": "function"
				},
				{
					"inputs": [
						{
							"internalType": "uint256",
							"name": "",
							"type": "uint256"
						}
					],
					"name": "stakers",
					"outputs": [
						{
							"internalType": "address",
							"name": "",
							"type": "address"
						}
					],
					"stateMutability": "view",
					"type": "function"
				},
				{
					"inputs": [
						{
							"internalType": "address",
							"name": "",
							"type": "address"
						}
					],
					"name": "stakingBalance",
					"outputs": [
						{
							"internalType": "uint256",
							"name": "",
							"type": "uint256"
						}
					],
					"stateMutability": "view",
					"type": "function"
				},
				{
					"inputs": [],
					"name": "treasuryWallet",
					"outputs": [
						{
							"internalType": "uint256",
							"name": "",
							"type": "uint256"
						}
					],
					"stateMutability": "view",
					"type": "function"
				},
				{
					"inputs": [],
					"name": "unstakeToken",
					"outputs": [],
					"stateMutability": "nonpayable",
					"type": "function"
				},
				{
					"inputs": [],
					"name": "withdrawTax",
					"outputs": [],
					"stateMutability": "nonpayable",
					"type": "function"
				}
			],
			"devdoc": {
				"kind": "dev",
				"methods": {},
				"version": 1
			},
			"evm": {
				"assembly": "    /* \"contracts/staking.sol\":68:2595  contract App{\r... */\n  mstore(0x40, 0x80)\n    /* \"contracts/staking.sol\":386:443  constructor() public{\r... */\n  callvalue\n  dup1\n  iszero\n  tag_1\n  jumpi\n  0x00\n  dup1\n  revert\ntag_1:\n  pop\n    /* \"contracts/staking.sol\":425:435  msg.sender */\n  caller\n    /* \"contracts/staking.sol\":417:422  owner */\n  0x00\n  dup1\n    /* \"contracts/staking.sol\":417:435  owner = msg.sender */\n  0x0100\n  exp\n  dup2\n  sload\n  dup2\n  0xffffffffffffffffffffffffffffffffffffffff\n  mul\n  not\n  and\n  swap1\n  dup4\n  0xffffffffffffffffffffffffffffffffffffffff\n  and\n  mul\n  or\n  swap1\n  sstore\n  pop\n    /* \"contracts/staking.sol\":68:2595  contract App{\r... */\n  dataSize(sub_0)\n  dup1\n  dataOffset(sub_0)\n  0x00\n  codecopy\n  0x00\n  return\nstop\n\nsub_0: assembly {\n        /* \"contracts/staking.sol\":68:2595  contract App{\r... */\n      mstore(0x40, 0x80)\n      jumpi(tag_1, lt(calldatasize, 0x04))\n      shr(0xe0, calldataload(0x00))\n      dup1\n      0x6f49712b\n      gt\n      tag_18\n      jumpi\n      dup1\n      0xc93c8f34\n      gt\n      tag_19\n      jumpi\n      dup1\n      0xc93c8f34\n      eq\n      tag_14\n      jumpi\n      dup1\n      0xdfa20f0a\n      eq\n      tag_15\n      jumpi\n      dup1\n      0xf765fd8f\n      eq\n      tag_16\n      jumpi\n      dup1\n      0xfd5e6dd1\n      eq\n      tag_17\n      jumpi\n      jump(tag_1)\n    tag_19:\n      dup1\n      0x6f49712b\n      eq\n      tag_10\n      jumpi\n      dup1\n      0x75c96c5d\n      eq\n      tag_11\n      jumpi\n      dup1\n      0x8da5cb5b\n      eq\n      tag_12\n      jumpi\n      dup1\n      0xb0370e0c\n      eq\n      tag_13\n      jumpi\n      jump(tag_1)\n    tag_18:\n      dup1\n      0x45bc78ab\n      gt\n      tag_20\n      jumpi\n      dup1\n      0x45bc78ab\n      eq\n      tag_6\n      jumpi\n      dup1\n      0x4626402b\n      eq\n      tag_7\n      jumpi\n      dup1\n      0x51ed6a30\n      eq\n      tag_8\n      jumpi\n      dup1\n      0x5c975abb\n      eq\n      tag_9\n      jumpi\n      jump(tag_1)\n    tag_20:\n      dup1\n      0x021a89ad\n      eq\n      tag_2\n      jumpi\n      dup1\n      0x16c38b3c\n      eq\n      tag_3\n      jumpi\n      dup1\n      0x20eb640c\n      eq\n      tag_4\n      jumpi\n      dup1\n      0x439766ce\n      eq\n      tag_5\n      jumpi\n    tag_1:\n      0x00\n      dup1\n      revert\n        /* \"contracts/staking.sol\":139:160  bool public blockUser */\n    tag_2:\n      callvalue\n      dup1\n      iszero\n      tag_21\n      jumpi\n      0x00\n      dup1\n      revert\n    tag_21:\n      pop\n      tag_22\n      tag_23\n      jump\t// in\n    tag_22:\n      mload(0x40)\n      tag_24\n      swap2\n      swap1\n      tag_25\n      jump\t// in\n    tag_24:\n      mload(0x40)\n      dup1\n      swap2\n      sub\n      swap1\n      return\n        /* \"contracts/staking.sol\":1702:1841  function setPaused(bool _paused) public {\r... */\n    tag_3:\n      callvalue\n      dup1\n      iszero\n      tag_26\n      jumpi\n      0x00\n      dup1\n      revert\n    tag_26:\n      pop\n      tag_27\n      0x04\n      dup1\n      calldatasize\n      sub\n      dup2\n      add\n      swap1\n      tag_28\n      swap2\n      swap1\n      tag_29\n      jump\t// in\n    tag_28:\n      tag_30\n      jump\t// in\n    tag_27:\n      stop\n        /* \"contracts/staking.sol\":895:1251  function unstakeToken() public{\r... */\n    tag_4:\n      callvalue\n      dup1\n      iszero\n      tag_31\n      jumpi\n      0x00\n      dup1\n      revert\n    tag_31:\n      pop\n      tag_32\n      tag_33\n      jump\t// in\n    tag_32:\n      stop\n        /* \"contracts/staking.sol\":1849:2033  function pauseContract() public view{\r... */\n    tag_5:\n      callvalue\n      dup1\n      iszero\n      tag_34\n      jumpi\n      0x00\n      dup1\n      revert\n    tag_34:\n      pop\n      tag_35\n      tag_36\n      jump\t// in\n    tag_35:\n      stop\n        /* \"contracts/staking.sol\":235:281  mapping(address => uint) public stakingBalance */\n    tag_6:\n      callvalue\n      dup1\n      iszero\n      tag_37\n      jumpi\n      0x00\n      dup1\n      revert\n    tag_37:\n      pop\n      tag_38\n      0x04\n      dup1\n      calldatasize\n      sub\n      dup2\n      add\n      swap1\n      tag_39\n      swap2\n      swap1\n      tag_40\n      jump\t// in\n    tag_39:\n      tag_41\n      jump\t// in\n    tag_38:\n      mload(0x40)\n      tag_42\n      swap2\n      swap1\n      tag_43\n      jump\t// in\n    tag_42:\n      mload(0x40)\n      dup1\n      swap2\n      sub\n      swap1\n      return\n        /* \"contracts/staking.sol\":167:193  uint public treasuryWallet */\n    tag_7:\n      callvalue\n      dup1\n      iszero\n      tag_44\n      jumpi\n      0x00\n      dup1\n      revert\n    tag_44:\n      pop\n      tag_45\n      tag_46\n      jump\t// in\n    tag_45:\n      mload(0x40)\n      tag_47\n      swap2\n      swap1\n      tag_43\n      jump\t// in\n    tag_47:\n      mload(0x40)\n      dup1\n      swap2\n      sub\n      swap1\n      return\n        /* \"contracts/staking.sol\":474:863  function stakeToken() payable public {\r... */\n    tag_8:\n      tag_48\n      tag_49\n      jump\t// in\n    tag_48:\n      stop\n        /* \"contracts/staking.sol\":114:132  bool public paused */\n    tag_9:\n      callvalue\n      dup1\n      iszero\n      tag_50\n      jumpi\n      0x00\n      dup1\n      revert\n    tag_50:\n      pop\n      tag_51\n      tag_52\n      jump\t// in\n    tag_51:\n      mload(0x40)\n      tag_53\n      swap2\n      swap1\n      tag_25\n      jump\t// in\n    tag_53:\n      mload(0x40)\n      dup1\n      swap2\n      sub\n      swap1\n      return\n        /* \"contracts/staking.sol\":336:377  mapping(address => bool) public isStaking */\n    tag_10:\n      callvalue\n      dup1\n      iszero\n      tag_54\n      jumpi\n      0x00\n      dup1\n      revert\n    tag_54:\n      pop\n      tag_55\n      0x04\n      dup1\n      calldatasize\n      sub\n      dup2\n      add\n      swap1\n      tag_56\n      swap2\n      swap1\n      tag_40\n      jump\t// in\n    tag_56:\n      tag_57\n      jump\t// in\n    tag_55:\n      mload(0x40)\n      tag_58\n      swap2\n      swap1\n      tag_25\n      jump\t// in\n    tag_58:\n      mload(0x40)\n      dup1\n      swap2\n      sub\n      swap1\n      return\n        /* \"contracts/staking.sol\":2430:2589  function setBlockUser(bool _blockUser) public {\r... */\n    tag_11:\n      callvalue\n      dup1\n      iszero\n      tag_59\n      jumpi\n      0x00\n      dup1\n      revert\n    tag_59:\n      pop\n      tag_60\n      0x04\n      dup1\n      calldatasize\n      sub\n      dup2\n      add\n      swap1\n      tag_61\n      swap2\n      swap1\n      tag_29\n      jump\t// in\n    tag_61:\n      tag_62\n      jump\t// in\n    tag_60:\n      stop\n        /* \"contracts/staking.sol\":87:107  address public owner */\n    tag_12:\n      callvalue\n      dup1\n      iszero\n      tag_63\n      jumpi\n      0x00\n      dup1\n      revert\n    tag_63:\n      pop\n      tag_64\n      tag_65\n      jump\t// in\n    tag_64:\n      mload(0x40)\n      tag_66\n      swap2\n      swap1\n      tag_67\n      jump\t// in\n    tag_66:\n      mload(0x40)\n      dup1\n      swap2\n      sub\n      swap1\n      return\n        /* \"contracts/staking.sol\":1285:1671  function issueRewards() public view returns(uint){\r... */\n    tag_13:\n      callvalue\n      dup1\n      iszero\n      tag_68\n      jumpi\n      0x00\n      dup1\n      revert\n    tag_68:\n      pop\n      tag_69\n      tag_70\n      jump\t// in\n    tag_69:\n      mload(0x40)\n      tag_71\n      swap2\n      swap1\n      tag_43\n      jump\t// in\n    tag_71:\n      mload(0x40)\n      dup1\n      swap2\n      sub\n      swap1\n      return\n        /* \"contracts/staking.sol\":288:329  mapping(address => bool) public hasStaked */\n    tag_14:\n      callvalue\n      dup1\n      iszero\n      tag_72\n      jumpi\n      0x00\n      dup1\n      revert\n    tag_72:\n      pop\n      tag_73\n      0x04\n      dup1\n      calldatasize\n      sub\n      dup2\n      add\n      swap1\n      tag_74\n      swap2\n      swap1\n      tag_40\n      jump\t// in\n    tag_74:\n      tag_75\n      jump\t// in\n    tag_73:\n      mload(0x40)\n      tag_76\n      swap2\n      swap1\n      tag_25\n      jump\t// in\n    tag_76:\n      mload(0x40)\n      dup1\n      swap2\n      sub\n      swap1\n      return\n        /* \"contracts/staking.sol\":2236:2391  function withdrawTax() public{\r... */\n    tag_15:\n      callvalue\n      dup1\n      iszero\n      tag_77\n      jumpi\n      0x00\n      dup1\n      revert\n    tag_77:\n      pop\n      tag_78\n      tag_79\n      jump\t// in\n    tag_78:\n      stop\n        /* \"contracts/staking.sol\":2074:2228  function depositTax() public{\r... */\n    tag_16:\n      callvalue\n      dup1\n      iszero\n      tag_80\n      jumpi\n      0x00\n      dup1\n      revert\n    tag_80:\n      pop\n      tag_81\n      tag_82\n      jump\t// in\n    tag_81:\n      stop\n        /* \"contracts/staking.sol\":202:226  address[] public stakers */\n    tag_17:\n      callvalue\n      dup1\n      iszero\n      tag_83\n      jumpi\n      0x00\n      dup1\n      revert\n    tag_83:\n      pop\n      tag_84\n      0x04\n      dup1\n      calldatasize\n      sub\n      dup2\n      add\n      swap1\n      tag_85\n      swap2\n      swap1\n      tag_86\n      jump\t// in\n    tag_85:\n      tag_87\n      jump\t// in\n    tag_84:\n      mload(0x40)\n      tag_88\n      swap2\n      swap1\n      tag_67\n      jump\t// in\n    tag_88:\n      mload(0x40)\n      dup1\n      swap2\n      sub\n      swap1\n      return\n        /* \"contracts/staking.sol\":139:160  bool public blockUser */\n    tag_23:\n      0x00\n      0x15\n      swap1\n      sload\n      swap1\n      0x0100\n      exp\n      swap1\n      div\n      0xff\n      and\n      dup2\n      jump\t// out\n        /* \"contracts/staking.sol\":1702:1841  function setPaused(bool _paused) public {\r... */\n    tag_30:\n        /* \"contracts/staking.sol\":1775:1780  owner */\n      0x00\n      dup1\n      sload\n      swap1\n      0x0100\n      exp\n      swap1\n      div\n      0xffffffffffffffffffffffffffffffffffffffff\n      and\n        /* \"contracts/staking.sol\":1761:1780  msg.sender == owner */\n      0xffffffffffffffffffffffffffffffffffffffff\n      and\n        /* \"contracts/staking.sol\":1761:1771  msg.sender */\n      caller\n        /* \"contracts/staking.sol\":1761:1780  msg.sender == owner */\n      0xffffffffffffffffffffffffffffffffffffffff\n      and\n      eq\n        /* \"contracts/staking.sol\":1753:1806  require(msg.sender == owner, \"You are not the owner\") */\n      tag_90\n      jumpi\n      mload(0x40)\n      0x08c379a000000000000000000000000000000000000000000000000000000000\n      dup2\n      mstore\n      0x04\n      add\n      tag_91\n      swap1\n      tag_92\n      jump\t// in\n    tag_91:\n      mload(0x40)\n      dup1\n      swap2\n      sub\n      swap1\n      revert\n    tag_90:\n        /* \"contracts/staking.sol\":1826:1833  _paused */\n      dup1\n        /* \"contracts/staking.sol\":1817:1823  paused */\n      0x00\n      0x14\n        /* \"contracts/staking.sol\":1817:1833  paused = _paused */\n      0x0100\n      exp\n      dup2\n      sload\n      dup2\n      0xff\n      mul\n      not\n      and\n      swap1\n      dup4\n      iszero\n      iszero\n      mul\n      or\n      swap1\n      sstore\n      pop\n        /* \"contracts/staking.sol\":1702:1841  function setPaused(bool _paused) public {\r... */\n      pop\n      jump\t// out\n        /* \"contracts/staking.sol\":895:1251  function unstakeToken() public{\r... */\n    tag_33:\n        /* \"contracts/staking.sol\":946:958  uint balance */\n      0x00\n        /* \"contracts/staking.sol\":961:975  stakingBalance */\n      0x03\n        /* \"contracts/staking.sol\":961:987  stakingBalance[msg.sender] */\n      0x00\n        /* \"contracts/staking.sol\":976:986  msg.sender */\n      caller\n        /* \"contracts/staking.sol\":961:987  stakingBalance[msg.sender] */\n      0xffffffffffffffffffffffffffffffffffffffff\n      and\n      0xffffffffffffffffffffffffffffffffffffffff\n      and\n      dup2\n      mstore\n      0x20\n      add\n      swap1\n      dup2\n      mstore\n      0x20\n      add\n      0x00\n      keccak256\n      sload\n        /* \"contracts/staking.sol\":946:987  uint balance = stakingBalance[msg.sender] */\n      swap1\n      pop\n        /* \"contracts/staking.sol\":1016:1017  0 */\n      0x00\n        /* \"contracts/staking.sol\":1006:1013  balance */\n      dup2\n        /* \"contracts/staking.sol\":1006:1017  balance > 0 */\n      gt\n        /* \"contracts/staking.sol\":998:1059  require(balance > 0, \"staking Balance cannot be less than 0\") */\n      tag_94\n      jumpi\n      mload(0x40)\n      0x08c379a000000000000000000000000000000000000000000000000000000000\n      dup2\n      mstore\n      0x04\n      add\n      tag_95\n      swap1\n      tag_96\n      jump\t// in\n    tag_95:\n      mload(0x40)\n      dup1\n      swap2\n      sub\n      swap1\n      revert\n    tag_94:\n        /* \"contracts/staking.sol\":1101:1102  0 */\n      0x00\n        /* \"contracts/staking.sol\":1072:1086  stakingBalance */\n      0x03\n        /* \"contracts/staking.sol\":1072:1098  stakingBalance[msg.sender] */\n      0x00\n        /* \"contracts/staking.sol\":1087:1097  msg.sender */\n      caller\n        /* \"contracts/staking.sol\":1072:1098  stakingBalance[msg.sender] */\n      0xffffffffffffffffffffffffffffffffffffffff\n      and\n      0xffffffffffffffffffffffffffffffffffffffff\n      and\n      dup2\n      mstore\n      0x20\n      add\n      swap1\n      dup2\n      mstore\n      0x20\n      add\n      0x00\n      keccak256\n        /* \"contracts/staking.sol\":1072:1102  stakingBalance[msg.sender] = 0 */\n      dup2\n      swap1\n      sstore\n      pop\n        /* \"contracts/staking.sol\":1127:1136  hasStaked */\n      0x04\n        /* \"contracts/staking.sol\":1127:1148  hasStaked[msg.sender] */\n      0x00\n        /* \"contracts/staking.sol\":1137:1147  msg.sender */\n      caller\n        /* \"contracts/staking.sol\":1127:1148  hasStaked[msg.sender] */\n      0xffffffffffffffffffffffffffffffffffffffff\n      and\n      0xffffffffffffffffffffffffffffffffffffffff\n      and\n      dup2\n      mstore\n      0x20\n      add\n      swap1\n      dup2\n      mstore\n      0x20\n      add\n      0x00\n      keccak256\n      0x00\n      swap1\n      sload\n      swap1\n      0x0100\n      exp\n      swap1\n      div\n      0xff\n      and\n        /* \"contracts/staking.sol\":1123:1200  if(!hasStaked[msg.sender]){\r... */\n      tag_97\n      jumpi\n        /* \"contracts/staking.sol\":1164:1171  stakers */\n      0x02\n        /* \"contracts/staking.sol\":1177:1187  msg.sender */\n      caller\n        /* \"contracts/staking.sol\":1164:1188  stakers.push(msg.sender) */\n      swap1\n      dup1\n      0x01\n      dup2\n      sload\n      add\n      dup1\n      dup3\n      sstore\n      dup1\n      swap2\n      pop\n      pop\n      0x01\n      swap1\n      sub\n      swap1\n      0x00\n      mstore\n      keccak256(0x00, 0x20)\n      add\n      0x00\n      swap1\n      swap2\n      swap1\n      swap2\n      swap1\n      swap2\n      0x0100\n      exp\n      dup2\n      sload\n      dup2\n      0xffffffffffffffffffffffffffffffffffffffff\n      mul\n      not\n      and\n      swap1\n      dup4\n      0xffffffffffffffffffffffffffffffffffffffff\n      and\n      mul\n      or\n      swap1\n      sstore\n      pop\n        /* \"contracts/staking.sol\":1123:1200  if(!hasStaked[msg.sender]){\r... */\n    tag_97:\n        /* \"contracts/staking.sol\":1236:1241  false */\n      0x00\n        /* \"contracts/staking.sol\":1212:1221  isStaking */\n      0x05\n        /* \"contracts/staking.sol\":1212:1233  isStaking[msg.sender] */\n      0x00\n        /* \"contracts/staking.sol\":1222:1232  msg.sender */\n      caller\n        /* \"contracts/staking.sol\":1212:1233  isStaking[msg.sender] */\n      0xffffffffffffffffffffffffffffffffffffffff\n      and\n      0xffffffffffffffffffffffffffffffffffffffff\n      and\n      dup2\n      mstore\n      0x20\n      add\n      swap1\n      dup2\n      mstore\n      0x20\n      add\n      0x00\n      keccak256\n      0x00\n        /* \"contracts/staking.sol\":1212:1241  isStaking[msg.sender] = false */\n      0x0100\n      exp\n      dup2\n      sload\n      dup2\n      0xff\n      mul\n      not\n      and\n      swap1\n      dup4\n      iszero\n      iszero\n      mul\n      or\n      swap1\n      sstore\n      pop\n        /* \"contracts/staking.sol\":925:1251  {\r... */\n      pop\n        /* \"contracts/staking.sol\":895:1251  function unstakeToken() public{\r... */\n      jump\t// out\n        /* \"contracts/staking.sol\":1849:2033  function pauseContract() public view{\r... */\n    tag_36:\n        /* \"contracts/staking.sol\":1918:1923  owner */\n      0x00\n      dup1\n      sload\n      swap1\n      0x0100\n      exp\n      swap1\n      div\n      0xffffffffffffffffffffffffffffffffffffffff\n      and\n        /* \"contracts/staking.sol\":1904:1923  msg.sender == owner */\n      0xffffffffffffffffffffffffffffffffffffffff\n      and\n        /* \"contracts/staking.sol\":1904:1914  msg.sender */\n      caller\n        /* \"contracts/staking.sol\":1904:1923  msg.sender == owner */\n      0xffffffffffffffffffffffffffffffffffffffff\n      and\n      eq\n        /* \"contracts/staking.sol\":1896:1961  require(msg.sender == owner, \"Only owner can pause the contract\") */\n      tag_100\n      jumpi\n      mload(0x40)\n      0x08c379a000000000000000000000000000000000000000000000000000000000\n      dup2\n      mstore\n      0x04\n      add\n      tag_101\n      swap1\n      tag_102\n      jump\t// in\n    tag_101:\n      mload(0x40)\n      dup1\n      swap2\n      sub\n      swap1\n      revert\n    tag_100:\n        /* \"contracts/staking.sol\":1990:1995  false */\n      0x00\n        /* \"contracts/staking.sol\":1980:1995  paused == false */\n      iszero\n      iszero\n        /* \"contracts/staking.sol\":1980:1986  paused */\n      0x00\n      0x14\n      swap1\n      sload\n      swap1\n      0x0100\n      exp\n      swap1\n      div\n      0xff\n      and\n        /* \"contracts/staking.sol\":1980:1995  paused == false */\n      iszero\n      iszero\n      eq\n        /* \"contracts/staking.sol\":1972:2015  require(paused == false, \"Contract Paused\") */\n      tag_103\n      jumpi\n      mload(0x40)\n      0x08c379a000000000000000000000000000000000000000000000000000000000\n      dup2\n      mstore\n      0x04\n      add\n      tag_104\n      swap1\n      tag_105\n      jump\t// in\n    tag_104:\n      mload(0x40)\n      dup1\n      swap2\n      sub\n      swap1\n      revert\n    tag_103:\n        /* \"contracts/staking.sol\":1849:2033  function pauseContract() public view{\r... */\n      jump\t// out\n        /* \"contracts/staking.sol\":235:281  mapping(address => uint) public stakingBalance */\n    tag_41:\n      mstore(0x20, 0x03)\n      dup1\n      0x00\n      mstore\n      keccak256(0x00, 0x40)\n      0x00\n      swap2\n      pop\n      swap1\n      pop\n      sload\n      dup2\n      jump\t// out\n        /* \"contracts/staking.sol\":167:193  uint public treasuryWallet */\n    tag_46:\n      sload(0x01)\n      dup2\n      jump\t// out\n        /* \"contracts/staking.sol\":474:863  function stakeToken() payable public {\r... */\n    tag_49:\n        /* \"contracts/staking.sol\":548:549  0 */\n      0x00\n        /* \"contracts/staking.sol\":536:545  msg.value */\n      callvalue\n        /* \"contracts/staking.sol\":536:549  msg.value > 0 */\n      gt\n        /* \"contracts/staking.sol\":528:571  require(msg.value > 0, \"Ether cannot be 0\") */\n      tag_107\n      jumpi\n      mload(0x40)\n      0x08c379a000000000000000000000000000000000000000000000000000000000\n      dup2\n      mstore\n      0x04\n      add\n      tag_108\n      swap1\n      tag_109\n      jump\t// in\n    tag_108:\n      mload(0x40)\n      dup1\n      swap2\n      sub\n      swap1\n      revert\n    tag_107:\n        /* \"contracts/staking.sol\":603:608  false */\n      0x00\n        /* \"contracts/staking.sol\":590:608  blockUser == false */\n      iszero\n      iszero\n        /* \"contracts/staking.sol\":590:599  blockUser */\n      0x00\n      0x15\n      swap1\n      sload\n      swap1\n      0x0100\n      exp\n      swap1\n      div\n      0xff\n      and\n        /* \"contracts/staking.sol\":590:608  blockUser == false */\n      iszero\n      iszero\n      eq\n        /* \"contracts/staking.sol\":582:626  require(blockUser == false, \"User Blocked!\") */\n      tag_110\n      jumpi\n      mload(0x40)\n      0x08c379a000000000000000000000000000000000000000000000000000000000\n      dup2\n      mstore\n      0x04\n      add\n      tag_111\n      swap1\n      tag_112\n      jump\t// in\n    tag_111:\n      mload(0x40)\n      dup1\n      swap2\n      sub\n      swap1\n      revert\n    tag_110:\n        /* \"contracts/staking.sol\":669:678  msg.value */\n      callvalue\n        /* \"contracts/staking.sol\":639:653  stakingBalance */\n      0x03\n        /* \"contracts/staking.sol\":639:665  stakingBalance[msg.sender] */\n      0x00\n        /* \"contracts/staking.sol\":654:664  msg.sender */\n      caller\n        /* \"contracts/staking.sol\":639:665  stakingBalance[msg.sender] */\n      0xffffffffffffffffffffffffffffffffffffffff\n      and\n      0xffffffffffffffffffffffffffffffffffffffff\n      and\n      dup2\n      mstore\n      0x20\n      add\n      swap1\n      dup2\n      mstore\n      0x20\n      add\n      0x00\n      keccak256\n      0x00\n        /* \"contracts/staking.sol\":639:678  stakingBalance[msg.sender] += msg.value */\n      dup3\n      dup3\n      sload\n      tag_113\n      swap2\n      swap1\n      tag_114\n      jump\t// in\n    tag_113:\n      swap3\n      pop\n      pop\n      dup2\n      swap1\n      sstore\n      pop\n        /* \"contracts/staking.sol\":703:712  hasStaked */\n      0x04\n        /* \"contracts/staking.sol\":703:724  hasStaked[msg.sender] */\n      0x00\n        /* \"contracts/staking.sol\":713:723  msg.sender */\n      caller\n        /* \"contracts/staking.sol\":703:724  hasStaked[msg.sender] */\n      0xffffffffffffffffffffffffffffffffffffffff\n      and\n      0xffffffffffffffffffffffffffffffffffffffff\n      and\n      dup2\n      mstore\n      0x20\n      add\n      swap1\n      dup2\n      mstore\n      0x20\n      add\n      0x00\n      keccak256\n      0x00\n      swap1\n      sload\n      swap1\n      0x0100\n      exp\n      swap1\n      div\n      0xff\n      and\n        /* \"contracts/staking.sol\":699:776  if(!hasStaked[msg.sender]){\r... */\n      tag_115\n      jumpi\n        /* \"contracts/staking.sol\":740:747  stakers */\n      0x02\n        /* \"contracts/staking.sol\":753:763  msg.sender */\n      caller\n        /* \"contracts/staking.sol\":740:764  stakers.push(msg.sender) */\n      swap1\n      dup1\n      0x01\n      dup2\n      sload\n      add\n      dup1\n      dup3\n      sstore\n      dup1\n      swap2\n      pop\n      pop\n      0x01\n      swap1\n      sub\n      swap1\n      0x00\n      mstore\n      keccak256(0x00, 0x20)\n      add\n      0x00\n      swap1\n      swap2\n      swap1\n      swap2\n      swap1\n      swap2\n      0x0100\n      exp\n      dup2\n      sload\n      dup2\n      0xffffffffffffffffffffffffffffffffffffffff\n      mul\n      not\n      and\n      swap1\n      dup4\n      0xffffffffffffffffffffffffffffffffffffffff\n      and\n      mul\n      or\n      swap1\n      sstore\n      pop\n        /* \"contracts/staking.sol\":699:776  if(!hasStaked[msg.sender]){\r... */\n    tag_115:\n        /* \"contracts/staking.sol\":812:816  true */\n      0x01\n        /* \"contracts/staking.sol\":788:797  isStaking */\n      0x05\n        /* \"contracts/staking.sol\":788:809  isStaking[msg.sender] */\n      0x00\n        /* \"contracts/staking.sol\":798:808  msg.sender */\n      caller\n        /* \"contracts/staking.sol\":788:809  isStaking[msg.sender] */\n      0xffffffffffffffffffffffffffffffffffffffff\n      and\n      0xffffffffffffffffffffffffffffffffffffffff\n      and\n      dup2\n      mstore\n      0x20\n      add\n      swap1\n      dup2\n      mstore\n      0x20\n      add\n      0x00\n      keccak256\n      0x00\n        /* \"contracts/staking.sol\":788:816  isStaking[msg.sender] = true */\n      0x0100\n      exp\n      dup2\n      sload\n      dup2\n      0xff\n      mul\n      not\n      and\n      swap1\n      dup4\n      iszero\n      iszero\n      mul\n      or\n      swap1\n      sstore\n      pop\n        /* \"contracts/staking.sol\":851:855  true */\n      0x01\n        /* \"contracts/staking.sol\":827:836  hasStaked */\n      0x04\n        /* \"contracts/staking.sol\":827:848  hasStaked[msg.sender] */\n      0x00\n        /* \"contracts/staking.sol\":837:847  msg.sender */\n      caller\n        /* \"contracts/staking.sol\":827:848  hasStaked[msg.sender] */\n      0xffffffffffffffffffffffffffffffffffffffff\n      and\n      0xffffffffffffffffffffffffffffffffffffffff\n      and\n      dup2\n      mstore\n      0x20\n      add\n      swap1\n      dup2\n      mstore\n      0x20\n      add\n      0x00\n      keccak256\n      0x00\n        /* \"contracts/staking.sol\":827:855  hasStaked[msg.sender] = true */\n      0x0100\n      exp\n      dup2\n      sload\n      dup2\n      0xff\n      mul\n      not\n      and\n      swap1\n      dup4\n      iszero\n      iszero\n      mul\n      or\n      swap1\n      sstore\n      pop\n        /* \"contracts/staking.sol\":474:863  function stakeToken() payable public {\r... */\n      jump\t// out\n        /* \"contracts/staking.sol\":114:132  bool public paused */\n    tag_52:\n      0x00\n      0x14\n      swap1\n      sload\n      swap1\n      0x0100\n      exp\n      swap1\n      div\n      0xff\n      and\n      dup2\n      jump\t// out\n        /* \"contracts/staking.sol\":336:377  mapping(address => bool) public isStaking */\n    tag_57:\n      mstore(0x20, 0x05)\n      dup1\n      0x00\n      mstore\n      keccak256(0x00, 0x40)\n      0x00\n      swap2\n      pop\n      sload\n      swap1\n      0x0100\n      exp\n      swap1\n      div\n      0xff\n      and\n      dup2\n      jump\t// out\n        /* \"contracts/staking.sol\":2430:2589  function setBlockUser(bool _blockUser) public {\r... */\n    tag_62:\n        /* \"contracts/staking.sol\":2509:2514  owner */\n      0x00\n      dup1\n      sload\n      swap1\n      0x0100\n      exp\n      swap1\n      div\n      0xffffffffffffffffffffffffffffffffffffffff\n      and\n        /* \"contracts/staking.sol\":2495:2514  msg.sender == owner */\n      0xffffffffffffffffffffffffffffffffffffffff\n      and\n        /* \"contracts/staking.sol\":2495:2505  msg.sender */\n      caller\n        /* \"contracts/staking.sol\":2495:2514  msg.sender == owner */\n      0xffffffffffffffffffffffffffffffffffffffff\n      and\n      eq\n        /* \"contracts/staking.sol\":2487:2548  require(msg.sender == owner, \"Only owner can block the user\") */\n      tag_118\n      jumpi\n      mload(0x40)\n      0x08c379a000000000000000000000000000000000000000000000000000000000\n      dup2\n      mstore\n      0x04\n      add\n      tag_119\n      swap1\n      tag_120\n      jump\t// in\n    tag_119:\n      mload(0x40)\n      dup1\n      swap2\n      sub\n      swap1\n      revert\n    tag_118:\n        /* \"contracts/staking.sol\":2571:2581  _blockUser */\n      dup1\n        /* \"contracts/staking.sol\":2559:2568  blockUser */\n      0x00\n      0x15\n        /* \"contracts/staking.sol\":2559:2581  blockUser = _blockUser */\n      0x0100\n      exp\n      dup2\n      sload\n      dup2\n      0xff\n      mul\n      not\n      and\n      swap1\n      dup4\n      iszero\n      iszero\n      mul\n      or\n      swap1\n      sstore\n      pop\n        /* \"contracts/staking.sol\":2430:2589  function setBlockUser(bool _blockUser) public {\r... */\n      pop\n      jump\t// out\n        /* \"contracts/staking.sol\":87:107  address public owner */\n    tag_65:\n      0x00\n      dup1\n      sload\n      swap1\n      0x0100\n      exp\n      swap1\n      div\n      0xffffffffffffffffffffffffffffffffffffffff\n      and\n      dup2\n      jump\t// out\n        /* \"contracts/staking.sol\":1285:1671  function issueRewards() public view returns(uint){\r... */\n    tag_70:\n        /* \"contracts/staking.sol\":1329:1333  uint */\n      0x00\n        /* \"contracts/staking.sol\":1367:1372  owner */\n      dup1\n      0x00\n      swap1\n      sload\n      swap1\n      0x0100\n      exp\n      swap1\n      div\n      0xffffffffffffffffffffffffffffffffffffffff\n      and\n        /* \"contracts/staking.sol\":1353:1372  msg.sender == owner */\n      0xffffffffffffffffffffffffffffffffffffffff\n      and\n        /* \"contracts/staking.sol\":1353:1363  msg.sender */\n      caller\n        /* \"contracts/staking.sol\":1353:1372  msg.sender == owner */\n      0xffffffffffffffffffffffffffffffffffffffff\n      and\n      eq\n        /* \"contracts/staking.sol\":1345:1401  require(msg.sender == owner, \"caller must be the owner\") */\n      tag_122\n      jumpi\n      mload(0x40)\n      0x08c379a000000000000000000000000000000000000000000000000000000000\n      dup2\n      mstore\n      0x04\n      add\n      tag_123\n      swap1\n      tag_124\n      jump\t// in\n    tag_123:\n      mload(0x40)\n      dup1\n      swap2\n      sub\n      swap1\n      revert\n    tag_122:\n        /* \"contracts/staking.sol\":1427:1433  uint i */\n      0x00\n        /* \"contracts/staking.sol\":1422:1654  for (uint i = 0; i < stakers.length; i++){\r... */\n    tag_125:\n        /* \"contracts/staking.sol\":1443:1450  stakers */\n      0x02\n        /* \"contracts/staking.sol\":1443:1457  stakers.length */\n      dup1\n      sload\n      swap1\n      pop\n        /* \"contracts/staking.sol\":1439:1440  i */\n      dup2\n        /* \"contracts/staking.sol\":1439:1457  i < stakers.length */\n      lt\n        /* \"contracts/staking.sol\":1422:1654  for (uint i = 0; i < stakers.length; i++){\r... */\n      iszero\n      tag_126\n      jumpi\n        /* \"contracts/staking.sol\":1478:1495  address recipient */\n      0x00\n        /* \"contracts/staking.sol\":1498:1505  stakers */\n      0x02\n        /* \"contracts/staking.sol\":1506:1507  i */\n      dup3\n        /* \"contracts/staking.sol\":1498:1508  stakers[i] */\n      dup2\n      sload\n      dup2\n      lt\n      tag_128\n      jumpi\n      tag_129\n      tag_130\n      jump\t// in\n    tag_129:\n    tag_128:\n      swap1\n      0x00\n      mstore\n      keccak256(0x00, 0x20)\n      add\n      0x00\n      swap1\n      sload\n      swap1\n      0x0100\n      exp\n      swap1\n      div\n      0xffffffffffffffffffffffffffffffffffffffff\n      and\n        /* \"contracts/staking.sol\":1478:1508  address recipient = stakers[i] */\n      swap1\n      pop\n        /* \"contracts/staking.sol\":1523:1534  uint reward */\n      0x00\n        /* \"contracts/staking.sol\":1563:1566  100 */\n      0x64\n        /* \"contracts/staking.sol\":1537:1551  stakingBalance */\n      0x03\n        /* \"contracts/staking.sol\":1537:1562  stakingBalance[recipient] */\n      0x00\n        /* \"contracts/staking.sol\":1552:1561  recipient */\n      dup5\n        /* \"contracts/staking.sol\":1537:1562  stakingBalance[recipient] */\n      0xffffffffffffffffffffffffffffffffffffffff\n      and\n      0xffffffffffffffffffffffffffffffffffffffff\n      and\n      dup2\n      mstore\n      0x20\n      add\n      swap1\n      dup2\n      mstore\n      0x20\n      add\n      0x00\n      keccak256\n      sload\n        /* \"contracts/staking.sol\":1537:1566  stakingBalance[recipient]/100 */\n      tag_132\n      swap2\n      swap1\n      tag_133\n      jump\t// in\n    tag_132:\n        /* \"contracts/staking.sol\":1523:1566  uint reward = stakingBalance[recipient]/100 */\n      swap1\n      pop\n        /* \"contracts/staking.sol\":1593:1594  0 */\n      0x00\n        /* \"contracts/staking.sol\":1584:1590  reward */\n      dup2\n        /* \"contracts/staking.sol\":1584:1594  reward > 0 */\n      gt\n        /* \"contracts/staking.sol\":1581:1643  if(reward > 0){\r... */\n      iszero\n      tag_134\n      jumpi\n        /* \"contracts/staking.sol\":1621:1627  reward */\n      dup1\n        /* \"contracts/staking.sol\":1614:1627  return reward */\n      swap4\n      pop\n      pop\n      pop\n      pop\n      jump(tag_121)\n        /* \"contracts/staking.sol\":1581:1643  if(reward > 0){\r... */\n    tag_134:\n        /* \"contracts/staking.sol\":1463:1654  {\r... */\n      pop\n      pop\n        /* \"contracts/staking.sol\":1459:1462  i++ */\n      dup1\n      dup1\n      tag_135\n      swap1\n      tag_136\n      jump\t// in\n    tag_135:\n      swap2\n      pop\n      pop\n        /* \"contracts/staking.sol\":1422:1654  for (uint i = 0; i < stakers.length; i++){\r... */\n      jump(tag_125)\n    tag_126:\n      pop\n        /* \"contracts/staking.sol\":1285:1671  function issueRewards() public view returns(uint){\r... */\n    tag_121:\n      swap1\n      jump\t// out\n        /* \"contracts/staking.sol\":288:329  mapping(address => bool) public hasStaked */\n    tag_75:\n      mstore(0x20, 0x04)\n      dup1\n      0x00\n      mstore\n      keccak256(0x00, 0x40)\n      0x00\n      swap2\n      pop\n      sload\n      swap1\n      0x0100\n      exp\n      swap1\n      div\n      0xff\n      and\n      dup2\n      jump\t// out\n        /* \"contracts/staking.sol\":2236:2391  function withdrawTax() public{\r... */\n    tag_79:\n        /* \"contracts/staking.sol\":2276:2284  uint tax */\n      0x00\n        /* \"contracts/staking.sol\":2320:2323  100 */\n      0x64\n        /* \"contracts/staking.sol\":2316:2317  5 */\n      0x05\n        /* \"contracts/staking.sol\":2287:2301  stakingBalance */\n      0x03\n        /* \"contracts/staking.sol\":2287:2313  stakingBalance[msg.sender] */\n      0x00\n        /* \"contracts/staking.sol\":2302:2312  msg.sender */\n      caller\n        /* \"contracts/staking.sol\":2287:2313  stakingBalance[msg.sender] */\n      0xffffffffffffffffffffffffffffffffffffffff\n      and\n      0xffffffffffffffffffffffffffffffffffffffff\n      and\n      dup2\n      mstore\n      0x20\n      add\n      swap1\n      dup2\n      mstore\n      0x20\n      add\n      0x00\n      keccak256\n      sload\n        /* \"contracts/staking.sol\":2287:2317  stakingBalance[msg.sender] * 5 */\n      tag_138\n      swap2\n      swap1\n      tag_139\n      jump\t// in\n    tag_138:\n        /* \"contracts/staking.sol\":2287:2323  stakingBalance[msg.sender] * 5 / 100 */\n      tag_140\n      swap2\n      swap1\n      tag_133\n      jump\t// in\n    tag_140:\n        /* \"contracts/staking.sol\":2276:2323  uint tax = stakingBalance[msg.sender] * 5 / 100 */\n      swap1\n      pop\n        /* \"contracts/staking.sol\":2380:2383  tax */\n      dup1\n        /* \"contracts/staking.sol\":2351:2365  stakingBalance */\n      0x03\n        /* \"contracts/staking.sol\":2351:2377  stakingBalance[msg.sender] */\n      0x00\n        /* \"contracts/staking.sol\":2366:2376  msg.sender */\n      caller\n        /* \"contracts/staking.sol\":2351:2377  stakingBalance[msg.sender] */\n      0xffffffffffffffffffffffffffffffffffffffff\n      and\n      0xffffffffffffffffffffffffffffffffffffffff\n      and\n      dup2\n      mstore\n      0x20\n      add\n      swap1\n      dup2\n      mstore\n      0x20\n      add\n      0x00\n      keccak256\n      sload\n        /* \"contracts/staking.sol\":2351:2383  stakingBalance[msg.sender] - tax */\n      tag_141\n      swap2\n      swap1\n      tag_142\n      jump\t// in\n    tag_141:\n        /* \"contracts/staking.sol\":2334:2348  treasuryWallet */\n      0x01\n        /* \"contracts/staking.sol\":2334:2383  treasuryWallet = stakingBalance[msg.sender] - tax */\n      dup2\n      swap1\n      sstore\n      pop\n        /* \"contracts/staking.sol\":2265:2391  {\r... */\n      pop\n        /* \"contracts/staking.sol\":2236:2391  function withdrawTax() public{\r... */\n      jump\t// out\n        /* \"contracts/staking.sol\":2074:2228  function depositTax() public{\r... */\n    tag_82:\n        /* \"contracts/staking.sol\":2113:2121  uint tax */\n      0x00\n        /* \"contracts/staking.sol\":2157:2160  100 */\n      0x64\n        /* \"contracts/staking.sol\":2153:2154  5 */\n      0x05\n        /* \"contracts/staking.sol\":2124:2138  stakingBalance */\n      0x03\n        /* \"contracts/staking.sol\":2124:2150  stakingBalance[msg.sender] */\n      0x00\n        /* \"contracts/staking.sol\":2139:2149  msg.sender */\n      caller\n        /* \"contracts/staking.sol\":2124:2150  stakingBalance[msg.sender] */\n      0xffffffffffffffffffffffffffffffffffffffff\n      and\n      0xffffffffffffffffffffffffffffffffffffffff\n      and\n      dup2\n      mstore\n      0x20\n      add\n      swap1\n      dup2\n      mstore\n      0x20\n      add\n      0x00\n      keccak256\n      sload\n        /* \"contracts/staking.sol\":2124:2154  stakingBalance[msg.sender] * 5 */\n      tag_144\n      swap2\n      swap1\n      tag_139\n      jump\t// in\n    tag_144:\n        /* \"contracts/staking.sol\":2124:2160  stakingBalance[msg.sender] * 5 / 100 */\n      tag_145\n      swap2\n      swap1\n      tag_133\n      jump\t// in\n    tag_145:\n        /* \"contracts/staking.sol\":2113:2160  uint tax = stakingBalance[msg.sender] * 5 / 100 */\n      swap1\n      pop\n        /* \"contracts/staking.sol\":2217:2220  tax */\n      dup1\n        /* \"contracts/staking.sol\":2188:2202  stakingBalance */\n      0x03\n        /* \"contracts/staking.sol\":2188:2214  stakingBalance[msg.sender] */\n      0x00\n        /* \"contracts/staking.sol\":2203:2213  msg.sender */\n      caller\n        /* \"contracts/staking.sol\":2188:2214  stakingBalance[msg.sender] */\n      0xffffffffffffffffffffffffffffffffffffffff\n      and\n      0xffffffffffffffffffffffffffffffffffffffff\n      and\n      dup2\n      mstore\n      0x20\n      add\n      swap1\n      dup2\n      mstore\n      0x20\n      add\n      0x00\n      keccak256\n      sload\n        /* \"contracts/staking.sol\":2188:2220  stakingBalance[msg.sender] + tax */\n      tag_146\n      swap2\n      swap1\n      tag_114\n      jump\t// in\n    tag_146:\n        /* \"contracts/staking.sol\":2171:2185  treasuryWallet */\n      0x01\n        /* \"contracts/staking.sol\":2171:2220  treasuryWallet = stakingBalance[msg.sender] + tax */\n      dup2\n      swap1\n      sstore\n      pop\n        /* \"contracts/staking.sol\":2102:2228  {\r... */\n      pop\n        /* \"contracts/staking.sol\":2074:2228  function depositTax() public{\r... */\n      jump\t// out\n        /* \"contracts/staking.sol\":202:226  address[] public stakers */\n    tag_87:\n      0x02\n      dup2\n      dup2\n      sload\n      dup2\n      lt\n      tag_147\n      jumpi\n      0x00\n      dup1\n      revert\n    tag_147:\n      swap1\n      0x00\n      mstore\n      keccak256(0x00, 0x20)\n      add\n      0x00\n      swap2\n      pop\n      sload\n      swap1\n      0x0100\n      exp\n      swap1\n      div\n      0xffffffffffffffffffffffffffffffffffffffff\n      and\n      dup2\n      jump\t// out\n        /* \"#utility.yul\":7:146   */\n    tag_150:\n        /* \"#utility.yul\":53:58   */\n      0x00\n        /* \"#utility.yul\":91:97   */\n      dup2\n        /* \"#utility.yul\":78:98   */\n      calldataload\n        /* \"#utility.yul\":69:98   */\n      swap1\n      pop\n        /* \"#utility.yul\":107:140   */\n      tag_152\n        /* \"#utility.yul\":134:139   */\n      dup2\n        /* \"#utility.yul\":107:140   */\n      tag_153\n      jump\t// in\n    tag_152:\n        /* \"#utility.yul\":7:146   */\n      swap3\n      swap2\n      pop\n      pop\n      jump\t// out\n        /* \"#utility.yul\":152:285   */\n    tag_154:\n        /* \"#utility.yul\":195:200   */\n      0x00\n        /* \"#utility.yul\":233:239   */\n      dup2\n        /* \"#utility.yul\":220:240   */\n      calldataload\n        /* \"#utility.yul\":211:240   */\n      swap1\n      pop\n        /* \"#utility.yul\":249:279   */\n      tag_156\n        /* \"#utility.yul\":273:278   */\n      dup2\n        /* \"#utility.yul\":249:279   */\n      tag_157\n      jump\t// in\n    tag_156:\n        /* \"#utility.yul\":152:285   */\n      swap3\n      swap2\n      pop\n      pop\n      jump\t// out\n        /* \"#utility.yul\":291:430   */\n    tag_158:\n        /* \"#utility.yul\":337:342   */\n      0x00\n        /* \"#utility.yul\":375:381   */\n      dup2\n        /* \"#utility.yul\":362:382   */\n      calldataload\n        /* \"#utility.yul\":353:382   */\n      swap1\n      pop\n        /* \"#utility.yul\":391:424   */\n      tag_160\n        /* \"#utility.yul\":418:423   */\n      dup2\n        /* \"#utility.yul\":391:424   */\n      tag_161\n      jump\t// in\n    tag_160:\n        /* \"#utility.yul\":291:430   */\n      swap3\n      swap2\n      pop\n      pop\n      jump\t// out\n        /* \"#utility.yul\":436:765   */\n    tag_40:\n        /* \"#utility.yul\":495:501   */\n      0x00\n        /* \"#utility.yul\":544:546   */\n      0x20\n        /* \"#utility.yul\":532:541   */\n      dup3\n        /* \"#utility.yul\":523:530   */\n      dup5\n        /* \"#utility.yul\":519:542   */\n      sub\n        /* \"#utility.yul\":515:547   */\n      slt\n        /* \"#utility.yul\":512:631   */\n      iszero\n      tag_163\n      jumpi\n        /* \"#utility.yul\":550:629   */\n      tag_164\n      tag_165\n      jump\t// in\n    tag_164:\n        /* \"#utility.yul\":512:631   */\n    tag_163:\n        /* \"#utility.yul\":670:671   */\n      0x00\n        /* \"#utility.yul\":695:748   */\n      tag_166\n        /* \"#utility.yul\":740:747   */\n      dup5\n        /* \"#utility.yul\":731:737   */\n      dup3\n        /* \"#utility.yul\":720:729   */\n      dup6\n        /* \"#utility.yul\":716:738   */\n      add\n        /* \"#utility.yul\":695:748   */\n      tag_150\n      jump\t// in\n    tag_166:\n        /* \"#utility.yul\":685:748   */\n      swap2\n      pop\n        /* \"#utility.yul\":641:758   */\n      pop\n        /* \"#utility.yul\":436:765   */\n      swap3\n      swap2\n      pop\n      pop\n      jump\t// out\n        /* \"#utility.yul\":771:1094   */\n    tag_29:\n        /* \"#utility.yul\":827:833   */\n      0x00\n        /* \"#utility.yul\":876:878   */\n      0x20\n        /* \"#utility.yul\":864:873   */\n      dup3\n        /* \"#utility.yul\":855:862   */\n      dup5\n        /* \"#utility.yul\":851:874   */\n      sub\n        /* \"#utility.yul\":847:879   */\n      slt\n        /* \"#utility.yul\":844:963   */\n      iszero\n      tag_168\n      jumpi\n        /* \"#utility.yul\":882:961   */\n      tag_169\n      tag_165\n      jump\t// in\n    tag_169:\n        /* \"#utility.yul\":844:963   */\n    tag_168:\n        /* \"#utility.yul\":1002:1003   */\n      0x00\n        /* \"#utility.yul\":1027:1077   */\n      tag_170\n        /* \"#utility.yul\":1069:1076   */\n      dup5\n        /* \"#utility.yul\":1060:1066   */\n      dup3\n        /* \"#utility.yul\":1049:1058   */\n      dup6\n        /* \"#utility.yul\":1045:1067   */\n      add\n        /* \"#utility.yul\":1027:1077   */\n      tag_154\n      jump\t// in\n    tag_170:\n        /* \"#utility.yul\":1017:1077   */\n      swap2\n      pop\n        /* \"#utility.yul\":973:1087   */\n      pop\n        /* \"#utility.yul\":771:1094   */\n      swap3\n      swap2\n      pop\n      pop\n      jump\t// out\n        /* \"#utility.yul\":1100:1429   */\n    tag_86:\n        /* \"#utility.yul\":1159:1165   */\n      0x00\n        /* \"#utility.yul\":1208:1210   */\n      0x20\n        /* \"#utility.yul\":1196:1205   */\n      dup3\n        /* \"#utility.yul\":1187:1194   */\n      dup5\n        /* \"#utility.yul\":1183:1206   */\n      sub\n        /* \"#utility.yul\":1179:1211   */\n      slt\n        /* \"#utility.yul\":1176:1295   */\n      iszero\n      tag_172\n      jumpi\n        /* \"#utility.yul\":1214:1293   */\n      tag_173\n      tag_165\n      jump\t// in\n    tag_173:\n        /* \"#utility.yul\":1176:1295   */\n    tag_172:\n        /* \"#utility.yul\":1334:1335   */\n      0x00\n        /* \"#utility.yul\":1359:1412   */\n      tag_174\n        /* \"#utility.yul\":1404:1411   */\n      dup5\n        /* \"#utility.yul\":1395:1401   */\n      dup3\n        /* \"#utility.yul\":1384:1393   */\n      dup6\n        /* \"#utility.yul\":1380:1402   */\n      add\n        /* \"#utility.yul\":1359:1412   */\n      tag_158\n      jump\t// in\n    tag_174:\n        /* \"#utility.yul\":1349:1412   */\n      swap2\n      pop\n        /* \"#utility.yul\":1305:1422   */\n      pop\n        /* \"#utility.yul\":1100:1429   */\n      swap3\n      swap2\n      pop\n      pop\n      jump\t// out\n        /* \"#utility.yul\":1435:1553   */\n    tag_175:\n        /* \"#utility.yul\":1522:1546   */\n      tag_177\n        /* \"#utility.yul\":1540:1545   */\n      dup2\n        /* \"#utility.yul\":1522:1546   */\n      tag_178\n      jump\t// in\n    tag_177:\n        /* \"#utility.yul\":1517:1520   */\n      dup3\n        /* \"#utility.yul\":1510:1547   */\n      mstore\n        /* \"#utility.yul\":1435:1553   */\n      pop\n      pop\n      jump\t// out\n        /* \"#utility.yul\":1559:1668   */\n    tag_179:\n        /* \"#utility.yul\":1640:1661   */\n      tag_181\n        /* \"#utility.yul\":1655:1660   */\n      dup2\n        /* \"#utility.yul\":1640:1661   */\n      tag_182\n      jump\t// in\n    tag_181:\n        /* \"#utility.yul\":1635:1638   */\n      dup3\n        /* \"#utility.yul\":1628:1662   */\n      mstore\n        /* \"#utility.yul\":1559:1668   */\n      pop\n      pop\n      jump\t// out\n        /* \"#utility.yul\":1674:2040   */\n    tag_183:\n        /* \"#utility.yul\":1816:1819   */\n      0x00\n        /* \"#utility.yul\":1837:1904   */\n      tag_185\n        /* \"#utility.yul\":1901:1903   */\n      0x11\n        /* \"#utility.yul\":1896:1899   */\n      dup4\n        /* \"#utility.yul\":1837:1904   */\n      tag_186\n      jump\t// in\n    tag_185:\n        /* \"#utility.yul\":1830:1904   */\n      swap2\n      pop\n        /* \"#utility.yul\":1913:2006   */\n      tag_187\n        /* \"#utility.yul\":2002:2005   */\n      dup3\n        /* \"#utility.yul\":1913:2006   */\n      tag_188\n      jump\t// in\n    tag_187:\n        /* \"#utility.yul\":2031:2033   */\n      0x20\n        /* \"#utility.yul\":2026:2029   */\n      dup3\n        /* \"#utility.yul\":2022:2034   */\n      add\n        /* \"#utility.yul\":2015:2034   */\n      swap1\n      pop\n        /* \"#utility.yul\":1674:2040   */\n      swap2\n      swap1\n      pop\n      jump\t// out\n        /* \"#utility.yul\":2046:2412   */\n    tag_189:\n        /* \"#utility.yul\":2188:2191   */\n      0x00\n        /* \"#utility.yul\":2209:2276   */\n      tag_191\n        /* \"#utility.yul\":2273:2275   */\n      0x18\n        /* \"#utility.yul\":2268:2271   */\n      dup4\n        /* \"#utility.yul\":2209:2276   */\n      tag_186\n      jump\t// in\n    tag_191:\n        /* \"#utility.yul\":2202:2276   */\n      swap2\n      pop\n        /* \"#utility.yul\":2285:2378   */\n      tag_192\n        /* \"#utility.yul\":2374:2377   */\n      dup3\n        /* \"#utility.yul\":2285:2378   */\n      tag_193\n      jump\t// in\n    tag_192:\n        /* \"#utility.yul\":2403:2405   */\n      0x20\n        /* \"#utility.yul\":2398:2401   */\n      dup3\n        /* \"#utility.yul\":2394:2406   */\n      add\n        /* \"#utility.yul\":2387:2406   */\n      swap1\n      pop\n        /* \"#utility.yul\":2046:2412   */\n      swap2\n      swap1\n      pop\n      jump\t// out\n        /* \"#utility.yul\":2418:2784   */\n    tag_194:\n        /* \"#utility.yul\":2560:2563   */\n      0x00\n        /* \"#utility.yul\":2581:2648   */\n      tag_196\n        /* \"#utility.yul\":2645:2647   */\n      0x15\n        /* \"#utility.yul\":2640:2643   */\n      dup4\n        /* \"#utility.yul\":2581:2648   */\n      tag_186\n      jump\t// in\n    tag_196:\n        /* \"#utility.yul\":2574:2648   */\n      swap2\n      pop\n        /* \"#utility.yul\":2657:2750   */\n      tag_197\n        /* \"#utility.yul\":2746:2749   */\n      dup3\n        /* \"#utility.yul\":2657:2750   */\n      tag_198\n      jump\t// in\n    tag_197:\n        /* \"#utility.yul\":2775:2777   */\n      0x20\n        /* \"#utility.yul\":2770:2773   */\n      dup3\n        /* \"#utility.yul\":2766:2778   */\n      add\n        /* \"#utility.yul\":2759:2778   */\n      swap1\n      pop\n        /* \"#utility.yul\":2418:2784   */\n      swap2\n      swap1\n      pop\n      jump\t// out\n        /* \"#utility.yul\":2790:3156   */\n    tag_199:\n        /* \"#utility.yul\":2932:2935   */\n      0x00\n        /* \"#utility.yul\":2953:3020   */\n      tag_201\n        /* \"#utility.yul\":3017:3019   */\n      0x21\n        /* \"#utility.yul\":3012:3015   */\n      dup4\n        /* \"#utility.yul\":2953:3020   */\n      tag_186\n      jump\t// in\n    tag_201:\n        /* \"#utility.yul\":2946:3020   */\n      swap2\n      pop\n        /* \"#utility.yul\":3029:3122   */\n      tag_202\n        /* \"#utility.yul\":3118:3121   */\n      dup3\n        /* \"#utility.yul\":3029:3122   */\n      tag_203\n      jump\t// in\n    tag_202:\n        /* \"#utility.yul\":3147:3149   */\n      0x40\n        /* \"#utility.yul\":3142:3145   */\n      dup3\n        /* \"#utility.yul\":3138:3150   */\n      add\n        /* \"#utility.yul\":3131:3150   */\n      swap1\n      pop\n        /* \"#utility.yul\":2790:3156   */\n      swap2\n      swap1\n      pop\n      jump\t// out\n        /* \"#utility.yul\":3162:3528   */\n    tag_204:\n        /* \"#utility.yul\":3304:3307   */\n      0x00\n        /* \"#utility.yul\":3325:3392   */\n      tag_206\n        /* \"#utility.yul\":3389:3391   */\n      0x0d\n        /* \"#utility.yul\":3384:3387   */\n      dup4\n        /* \"#utility.yul\":3325:3392   */\n      tag_186\n      jump\t// in\n    tag_206:\n        /* \"#utility.yul\":3318:3392   */\n      swap2\n      pop\n        /* \"#utility.yul\":3401:3494   */\n      tag_207\n        /* \"#utility.yul\":3490:3493   */\n      dup3\n        /* \"#utility.yul\":3401:3494   */\n      tag_208\n      jump\t// in\n    tag_207:\n        /* \"#utility.yul\":3519:3521   */\n      0x20\n        /* \"#utility.yul\":3514:3517   */\n      dup3\n        /* \"#utility.yul\":3510:3522   */\n      add\n        /* \"#utility.yul\":3503:3522   */\n      swap1\n      pop\n        /* \"#utility.yul\":3162:3528   */\n      swap2\n      swap1\n      pop\n      jump\t// out\n        /* \"#utility.yul\":3534:3900   */\n    tag_209:\n        /* \"#utility.yul\":3676:3679   */\n      0x00\n        /* \"#utility.yul\":3697:3764   */\n      tag_211\n        /* \"#utility.yul\":3761:3763   */\n      0x1d\n        /* \"#utility.yul\":3756:3759   */\n      dup4\n        /* \"#utility.yul\":3697:3764   */\n      tag_186\n      jump\t// in\n    tag_211:\n        /* \"#utility.yul\":3690:3764   */\n      swap2\n      pop\n        /* \"#utility.yul\":3773:3866   */\n      tag_212\n        /* \"#utility.yul\":3862:3865   */\n      dup3\n        /* \"#utility.yul\":3773:3866   */\n      tag_213\n      jump\t// in\n    tag_212:\n        /* \"#utility.yul\":3891:3893   */\n      0x20\n        /* \"#utility.yul\":3886:3889   */\n      dup3\n        /* \"#utility.yul\":3882:3894   */\n      add\n        /* \"#utility.yul\":3875:3894   */\n      swap1\n      pop\n        /* \"#utility.yul\":3534:3900   */\n      swap2\n      swap1\n      pop\n      jump\t// out\n        /* \"#utility.yul\":3906:4272   */\n    tag_214:\n        /* \"#utility.yul\":4048:4051   */\n      0x00\n        /* \"#utility.yul\":4069:4136   */\n      tag_216\n        /* \"#utility.yul\":4133:4135   */\n      0x0f\n        /* \"#utility.yul\":4128:4131   */\n      dup4\n        /* \"#utility.yul\":4069:4136   */\n      tag_186\n      jump\t// in\n    tag_216:\n        /* \"#utility.yul\":4062:4136   */\n      swap2\n      pop\n        /* \"#utility.yul\":4145:4238   */\n      tag_217\n        /* \"#utility.yul\":4234:4237   */\n      dup3\n        /* \"#utility.yul\":4145:4238   */\n      tag_218\n      jump\t// in\n    tag_217:\n        /* \"#utility.yul\":4263:4265   */\n      0x20\n        /* \"#utility.yul\":4258:4261   */\n      dup3\n        /* \"#utility.yul\":4254:4266   */\n      add\n        /* \"#utility.yul\":4247:4266   */\n      swap1\n      pop\n        /* \"#utility.yul\":3906:4272   */\n      swap2\n      swap1\n      pop\n      jump\t// out\n        /* \"#utility.yul\":4278:4644   */\n    tag_219:\n        /* \"#utility.yul\":4420:4423   */\n      0x00\n        /* \"#utility.yul\":4441:4508   */\n      tag_221\n        /* \"#utility.yul\":4505:4507   */\n      0x25\n        /* \"#utility.yul\":4500:4503   */\n      dup4\n        /* \"#utility.yul\":4441:4508   */\n      tag_186\n      jump\t// in\n    tag_221:\n        /* \"#utility.yul\":4434:4508   */\n      swap2\n      pop\n        /* \"#utility.yul\":4517:4610   */\n      tag_222\n        /* \"#utility.yul\":4606:4609   */\n      dup3\n        /* \"#utility.yul\":4517:4610   */\n      tag_223\n      jump\t// in\n    tag_222:\n        /* \"#utility.yul\":4635:4637   */\n      0x40\n        /* \"#utility.yul\":4630:4633   */\n      dup3\n        /* \"#utility.yul\":4626:4638   */\n      add\n        /* \"#utility.yul\":4619:4638   */\n      swap1\n      pop\n        /* \"#utility.yul\":4278:4644   */\n      swap2\n      swap1\n      pop\n      jump\t// out\n        /* \"#utility.yul\":4650:4768   */\n    tag_224:\n        /* \"#utility.yul\":4737:4761   */\n      tag_226\n        /* \"#utility.yul\":4755:4760   */\n      dup2\n        /* \"#utility.yul\":4737:4761   */\n      tag_227\n      jump\t// in\n    tag_226:\n        /* \"#utility.yul\":4732:4735   */\n      dup3\n        /* \"#utility.yul\":4725:4762   */\n      mstore\n        /* \"#utility.yul\":4650:4768   */\n      pop\n      pop\n      jump\t// out\n        /* \"#utility.yul\":4774:4996   */\n    tag_67:\n        /* \"#utility.yul\":4867:4871   */\n      0x00\n        /* \"#utility.yul\":4905:4907   */\n      0x20\n        /* \"#utility.yul\":4894:4903   */\n      dup3\n        /* \"#utility.yul\":4890:4908   */\n      add\n        /* \"#utility.yul\":4882:4908   */\n      swap1\n      pop\n        /* \"#utility.yul\":4918:4989   */\n      tag_229\n        /* \"#utility.yul\":4986:4987   */\n      0x00\n        /* \"#utility.yul\":4975:4984   */\n      dup4\n        /* \"#utility.yul\":4971:4988   */\n      add\n        /* \"#utility.yul\":4962:4968   */\n      dup5\n        /* \"#utility.yul\":4918:4989   */\n      tag_175\n      jump\t// in\n    tag_229:\n        /* \"#utility.yul\":4774:4996   */\n      swap3\n      swap2\n      pop\n      pop\n      jump\t// out\n        /* \"#utility.yul\":5002:5212   */\n    tag_25:\n        /* \"#utility.yul\":5089:5093   */\n      0x00\n        /* \"#utility.yul\":5127:5129   */\n      0x20\n        /* \"#utility.yul\":5116:5125   */\n      dup3\n        /* \"#utility.yul\":5112:5130   */\n      add\n        /* \"#utility.yul\":5104:5130   */\n      swap1\n      pop\n        /* \"#utility.yul\":5140:5205   */\n      tag_231\n        /* \"#utility.yul\":5202:5203   */\n      0x00\n        /* \"#utility.yul\":5191:5200   */\n      dup4\n        /* \"#utility.yul\":5187:5204   */\n      add\n        /* \"#utility.yul\":5178:5184   */\n      dup5\n        /* \"#utility.yul\":5140:5205   */\n      tag_179\n      jump\t// in\n    tag_231:\n        /* \"#utility.yul\":5002:5212   */\n      swap3\n      swap2\n      pop\n      pop\n      jump\t// out\n        /* \"#utility.yul\":5218:5637   */\n    tag_109:\n        /* \"#utility.yul\":5384:5388   */\n      0x00\n        /* \"#utility.yul\":5422:5424   */\n      0x20\n        /* \"#utility.yul\":5411:5420   */\n      dup3\n        /* \"#utility.yul\":5407:5425   */\n      add\n        /* \"#utility.yul\":5399:5425   */\n      swap1\n      pop\n        /* \"#utility.yul\":5471:5480   */\n      dup2\n        /* \"#utility.yul\":5465:5469   */\n      dup2\n        /* \"#utility.yul\":5461:5481   */\n      sub\n        /* \"#utility.yul\":5457:5458   */\n      0x00\n        /* \"#utility.yul\":5446:5455   */\n      dup4\n        /* \"#utility.yul\":5442:5459   */\n      add\n        /* \"#utility.yul\":5435:5482   */\n      mstore\n        /* \"#utility.yul\":5499:5630   */\n      tag_233\n        /* \"#utility.yul\":5625:5629   */\n      dup2\n        /* \"#utility.yul\":5499:5630   */\n      tag_183\n      jump\t// in\n    tag_233:\n        /* \"#utility.yul\":5491:5630   */\n      swap1\n      pop\n        /* \"#utility.yul\":5218:5637   */\n      swap2\n      swap1\n      pop\n      jump\t// out\n        /* \"#utility.yul\":5643:6062   */\n    tag_124:\n        /* \"#utility.yul\":5809:5813   */\n      0x00\n        /* \"#utility.yul\":5847:5849   */\n      0x20\n        /* \"#utility.yul\":5836:5845   */\n      dup3\n        /* \"#utility.yul\":5832:5850   */\n      add\n        /* \"#utility.yul\":5824:5850   */\n      swap1\n      pop\n        /* \"#utility.yul\":5896:5905   */\n      dup2\n        /* \"#utility.yul\":5890:5894   */\n      dup2\n        /* \"#utility.yul\":5886:5906   */\n      sub\n        /* \"#utility.yul\":5882:5883   */\n      0x00\n        /* \"#utility.yul\":5871:5880   */\n      dup4\n        /* \"#utility.yul\":5867:5884   */\n      add\n        /* \"#utility.yul\":5860:5907   */\n      mstore\n        /* \"#utility.yul\":5924:6055   */\n      tag_235\n        /* \"#utility.yul\":6050:6054   */\n      dup2\n        /* \"#utility.yul\":5924:6055   */\n      tag_189\n      jump\t// in\n    tag_235:\n        /* \"#utility.yul\":5916:6055   */\n      swap1\n      pop\n        /* \"#utility.yul\":5643:6062   */\n      swap2\n      swap1\n      pop\n      jump\t// out\n        /* \"#utility.yul\":6068:6487   */\n    tag_92:\n        /* \"#utility.yul\":6234:6238   */\n      0x00\n        /* \"#utility.yul\":6272:6274   */\n      0x20\n        /* \"#utility.yul\":6261:6270   */\n      dup3\n        /* \"#utility.yul\":6257:6275   */\n      add\n        /* \"#utility.yul\":6249:6275   */\n      swap1\n      pop\n        /* \"#utility.yul\":6321:6330   */\n      dup2\n        /* \"#utility.yul\":6315:6319   */\n      dup2\n        /* \"#utility.yul\":6311:6331   */\n      sub\n        /* \"#utility.yul\":6307:6308   */\n      0x00\n        /* \"#utility.yul\":6296:6305   */\n      dup4\n        /* \"#utility.yul\":6292:6309   */\n      add\n        /* \"#utility.yul\":6285:6332   */\n      mstore\n        /* \"#utility.yul\":6349:6480   */\n      tag_237\n        /* \"#utility.yul\":6475:6479   */\n      dup2\n        /* \"#utility.yul\":6349:6480   */\n      tag_194\n      jump\t// in\n    tag_237:\n        /* \"#utility.yul\":6341:6480   */\n      swap1\n      pop\n        /* \"#utility.yul\":6068:6487   */\n      swap2\n      swap1\n      pop\n      jump\t// out\n        /* \"#utility.yul\":6493:6912   */\n    tag_102:\n        /* \"#utility.yul\":6659:6663   */\n      0x00\n        /* \"#utility.yul\":6697:6699   */\n      0x20\n        /* \"#utility.yul\":6686:6695   */\n      dup3\n        /* \"#utility.yul\":6682:6700   */\n      add\n        /* \"#utility.yul\":6674:6700   */\n      swap1\n      pop\n        /* \"#utility.yul\":6746:6755   */\n      dup2\n        /* \"#utility.yul\":6740:6744   */\n      dup2\n        /* \"#utility.yul\":6736:6756   */\n      sub\n        /* \"#utility.yul\":6732:6733   */\n      0x00\n        /* \"#utility.yul\":6721:6730   */\n      dup4\n        /* \"#utility.yul\":6717:6734   */\n      add\n        /* \"#utility.yul\":6710:6757   */\n      mstore\n        /* \"#utility.yul\":6774:6905   */\n      tag_239\n        /* \"#utility.yul\":6900:6904   */\n      dup2\n        /* \"#utility.yul\":6774:6905   */\n      tag_199\n      jump\t// in\n    tag_239:\n        /* \"#utility.yul\":6766:6905   */\n      swap1\n      pop\n        /* \"#utility.yul\":6493:6912   */\n      swap2\n      swap1\n      pop\n      jump\t// out\n        /* \"#utility.yul\":6918:7337   */\n    tag_112:\n        /* \"#utility.yul\":7084:7088   */\n      0x00\n        /* \"#utility.yul\":7122:7124   */\n      0x20\n        /* \"#utility.yul\":7111:7120   */\n      dup3\n        /* \"#utility.yul\":7107:7125   */\n      add\n        /* \"#utility.yul\":7099:7125   */\n      swap1\n      pop\n        /* \"#utility.yul\":7171:7180   */\n      dup2\n        /* \"#utility.yul\":7165:7169   */\n      dup2\n        /* \"#utility.yul\":7161:7181   */\n      sub\n        /* \"#utility.yul\":7157:7158   */\n      0x00\n        /* \"#utility.yul\":7146:7155   */\n      dup4\n        /* \"#utility.yul\":7142:7159   */\n      add\n        /* \"#utility.yul\":7135:7182   */\n      mstore\n        /* \"#utility.yul\":7199:7330   */\n      tag_241\n        /* \"#utility.yul\":7325:7329   */\n      dup2\n        /* \"#utility.yul\":7199:7330   */\n      tag_204\n      jump\t// in\n    tag_241:\n        /* \"#utility.yul\":7191:7330   */\n      swap1\n      pop\n        /* \"#utility.yul\":6918:7337   */\n      swap2\n      swap1\n      pop\n      jump\t// out\n        /* \"#utility.yul\":7343:7762   */\n    tag_120:\n        /* \"#utility.yul\":7509:7513   */\n      0x00\n        /* \"#utility.yul\":7547:7549   */\n      0x20\n        /* \"#utility.yul\":7536:7545   */\n      dup3\n        /* \"#utility.yul\":7532:7550   */\n      add\n        /* \"#utility.yul\":7524:7550   */\n      swap1\n      pop\n        /* \"#utility.yul\":7596:7605   */\n      dup2\n        /* \"#utility.yul\":7590:7594   */\n      dup2\n        /* \"#utility.yul\":7586:7606   */\n      sub\n        /* \"#utility.yul\":7582:7583   */\n      0x00\n        /* \"#utility.yul\":7571:7580   */\n      dup4\n        /* \"#utility.yul\":7567:7584   */\n      add\n        /* \"#utility.yul\":7560:7607   */\n      mstore\n        /* \"#utility.yul\":7624:7755   */\n      tag_243\n        /* \"#utility.yul\":7750:7754   */\n      dup2\n        /* \"#utility.yul\":7624:7755   */\n      tag_209\n      jump\t// in\n    tag_243:\n        /* \"#utility.yul\":7616:7755   */\n      swap1\n      pop\n        /* \"#utility.yul\":7343:7762   */\n      swap2\n      swap1\n      pop\n      jump\t// out\n        /* \"#utility.yul\":7768:8187   */\n    tag_105:\n        /* \"#utility.yul\":7934:7938   */\n      0x00\n        /* \"#utility.yul\":7972:7974   */\n      0x20\n        /* \"#utility.yul\":7961:7970   */\n      dup3\n        /* \"#utility.yul\":7957:7975   */\n      add\n        /* \"#utility.yul\":7949:7975   */\n      swap1\n      pop\n        /* \"#utility.yul\":8021:8030   */\n      dup2\n        /* \"#utility.yul\":8015:8019   */\n      dup2\n        /* \"#utility.yul\":8011:8031   */\n      sub\n        /* \"#utility.yul\":8007:8008   */\n      0x00\n        /* \"#utility.yul\":7996:8005   */\n      dup4\n        /* \"#utility.yul\":7992:8009   */\n      add\n        /* \"#utility.yul\":7985:8032   */\n      mstore\n        /* \"#utility.yul\":8049:8180   */\n      tag_245\n        /* \"#utility.yul\":8175:8179   */\n      dup2\n        /* \"#utility.yul\":8049:8180   */\n      tag_214\n      jump\t// in\n    tag_245:\n        /* \"#utility.yul\":8041:8180   */\n      swap1\n      pop\n        /* \"#utility.yul\":7768:8187   */\n      swap2\n      swap1\n      pop\n      jump\t// out\n        /* \"#utility.yul\":8193:8612   */\n    tag_96:\n        /* \"#utility.yul\":8359:8363   */\n      0x00\n        /* \"#utility.yul\":8397:8399   */\n      0x20\n        /* \"#utility.yul\":8386:8395   */\n      dup3\n        /* \"#utility.yul\":8382:8400   */\n      add\n        /* \"#utility.yul\":8374:8400   */\n      swap1\n      pop\n        /* \"#utility.yul\":8446:8455   */\n      dup2\n        /* \"#utility.yul\":8440:8444   */\n      dup2\n        /* \"#utility.yul\":8436:8456   */\n      sub\n        /* \"#utility.yul\":8432:8433   */\n      0x00\n        /* \"#utility.yul\":8421:8430   */\n      dup4\n        /* \"#utility.yul\":8417:8434   */\n      add\n        /* \"#utility.yul\":8410:8457   */\n      mstore\n        /* \"#utility.yul\":8474:8605   */\n      tag_247\n        /* \"#utility.yul\":8600:8604   */\n      dup2\n        /* \"#utility.yul\":8474:8605   */\n      tag_219\n      jump\t// in\n    tag_247:\n        /* \"#utility.yul\":8466:8605   */\n      swap1\n      pop\n        /* \"#utility.yul\":8193:8612   */\n      swap2\n      swap1\n      pop\n      jump\t// out\n        /* \"#utility.yul\":8618:8840   */\n    tag_43:\n        /* \"#utility.yul\":8711:8715   */\n      0x00\n        /* \"#utility.yul\":8749:8751   */\n      0x20\n        /* \"#utility.yul\":8738:8747   */\n      dup3\n        /* \"#utility.yul\":8734:8752   */\n      add\n        /* \"#utility.yul\":8726:8752   */\n      swap1\n      pop\n        /* \"#utility.yul\":8762:8833   */\n      tag_249\n        /* \"#utility.yul\":8830:8831   */\n      0x00\n        /* \"#utility.yul\":8819:8828   */\n      dup4\n        /* \"#utility.yul\":8815:8832   */\n      add\n        /* \"#utility.yul\":8806:8812   */\n      dup5\n        /* \"#utility.yul\":8762:8833   */\n      tag_224\n      jump\t// in\n    tag_249:\n        /* \"#utility.yul\":8618:8840   */\n      swap3\n      swap2\n      pop\n      pop\n      jump\t// out\n        /* \"#utility.yul\":8927:9096   */\n    tag_186:\n        /* \"#utility.yul\":9011:9022   */\n      0x00\n        /* \"#utility.yul\":9045:9051   */\n      dup3\n        /* \"#utility.yul\":9040:9043   */\n      dup3\n        /* \"#utility.yul\":9033:9052   */\n      mstore\n        /* \"#utility.yul\":9085:9089   */\n      0x20\n        /* \"#utility.yul\":9080:9083   */\n      dup3\n        /* \"#utility.yul\":9076:9090   */\n      add\n        /* \"#utility.yul\":9061:9090   */\n      swap1\n      pop\n        /* \"#utility.yul\":8927:9096   */\n      swap3\n      swap2\n      pop\n      pop\n      jump\t// out\n        /* \"#utility.yul\":9102:9407   */\n    tag_114:\n        /* \"#utility.yul\":9142:9145   */\n      0x00\n        /* \"#utility.yul\":9161:9181   */\n      tag_254\n        /* \"#utility.yul\":9179:9180   */\n      dup3\n        /* \"#utility.yul\":9161:9181   */\n      tag_227\n      jump\t// in\n    tag_254:\n        /* \"#utility.yul\":9156:9181   */\n      swap2\n      pop\n        /* \"#utility.yul\":9195:9215   */\n      tag_255\n        /* \"#utility.yul\":9213:9214   */\n      dup4\n        /* \"#utility.yul\":9195:9215   */\n      tag_227\n      jump\t// in\n    tag_255:\n        /* \"#utility.yul\":9190:9215   */\n      swap3\n      pop\n        /* \"#utility.yul\":9349:9350   */\n      dup3\n        /* \"#utility.yul\":9281:9347   */\n      0xffffffffffffffffffffffffffffffffffffffffffffffffffffffffffffffff\n        /* \"#utility.yul\":9277:9351   */\n      sub\n        /* \"#utility.yul\":9274:9275   */\n      dup3\n        /* \"#utility.yul\":9271:9352   */\n      gt\n        /* \"#utility.yul\":9268:9375   */\n      iszero\n      tag_256\n      jumpi\n        /* \"#utility.yul\":9355:9373   */\n      tag_257\n      tag_258\n      jump\t// in\n    tag_257:\n        /* \"#utility.yul\":9268:9375   */\n    tag_256:\n        /* \"#utility.yul\":9399:9400   */\n      dup3\n        /* \"#utility.yul\":9396:9397   */\n      dup3\n        /* \"#utility.yul\":9392:9401   */\n      add\n        /* \"#utility.yul\":9385:9401   */\n      swap1\n      pop\n        /* \"#utility.yul\":9102:9407   */\n      swap3\n      swap2\n      pop\n      pop\n      jump\t// out\n        /* \"#utility.yul\":9413:9598   */\n    tag_133:\n        /* \"#utility.yul\":9453:9454   */\n      0x00\n        /* \"#utility.yul\":9470:9490   */\n      tag_260\n        /* \"#utility.yul\":9488:9489   */\n      dup3\n        /* \"#utility.yul\":9470:9490   */\n      tag_227\n      jump\t// in\n    tag_260:\n        /* \"#utility.yul\":9465:9490   */\n      swap2\n      pop\n        /* \"#utility.yul\":9504:9524   */\n      tag_261\n        /* \"#utility.yul\":9522:9523   */\n      dup4\n        /* \"#utility.yul\":9504:9524   */\n      tag_227\n      jump\t// in\n    tag_261:\n        /* \"#utility.yul\":9499:9524   */\n      swap3\n      pop\n        /* \"#utility.yul\":9543:9544   */\n      dup3\n        /* \"#utility.yul\":9533:9568   */\n      tag_262\n      jumpi\n        /* \"#utility.yul\":9548:9566   */\n      tag_263\n      tag_264\n      jump\t// in\n    tag_263:\n        /* \"#utility.yul\":9533:9568   */\n    tag_262:\n        /* \"#utility.yul\":9590:9591   */\n      dup3\n        /* \"#utility.yul\":9587:9588   */\n      dup3\n        /* \"#utility.yul\":9583:9592   */\n      div\n        /* \"#utility.yul\":9578:9592   */\n      swap1\n      pop\n        /* \"#utility.yul\":9413:9598   */\n      swap3\n      swap2\n      pop\n      pop\n      jump\t// out\n        /* \"#utility.yul\":9604:9952   */\n    tag_139:\n        /* \"#utility.yul\":9644:9651   */\n      0x00\n        /* \"#utility.yul\":9667:9687   */\n      tag_266\n        /* \"#utility.yul\":9685:9686   */\n      dup3\n        /* \"#utility.yul\":9667:9687   */\n      tag_227\n      jump\t// in\n    tag_266:\n        /* \"#utility.yul\":9662:9687   */\n      swap2\n      pop\n        /* \"#utility.yul\":9701:9721   */\n      tag_267\n        /* \"#utility.yul\":9719:9720   */\n      dup4\n        /* \"#utility.yul\":9701:9721   */\n      tag_227\n      jump\t// in\n    tag_267:\n        /* \"#utility.yul\":9696:9721   */\n      swap3\n      pop\n        /* \"#utility.yul\":9889:9890   */\n      dup2\n        /* \"#utility.yul\":9821:9887   */\n      0xffffffffffffffffffffffffffffffffffffffffffffffffffffffffffffffff\n        /* \"#utility.yul\":9817:9891   */\n      div\n        /* \"#utility.yul\":9814:9815   */\n      dup4\n        /* \"#utility.yul\":9811:9892   */\n      gt\n        /* \"#utility.yul\":9806:9807   */\n      dup3\n        /* \"#utility.yul\":9799:9808   */\n      iszero\n        /* \"#utility.yul\":9792:9809   */\n      iszero\n        /* \"#utility.yul\":9788:9893   */\n      and\n        /* \"#utility.yul\":9785:9916   */\n      iszero\n      tag_268\n      jumpi\n        /* \"#utility.yul\":9896:9914   */\n      tag_269\n      tag_258\n      jump\t// in\n    tag_269:\n        /* \"#utility.yul\":9785:9916   */\n    tag_268:\n        /* \"#utility.yul\":9944:9945   */\n      dup3\n        /* \"#utility.yul\":9941:9942   */\n      dup3\n        /* \"#utility.yul\":9937:9946   */\n      mul\n        /* \"#utility.yul\":9926:9946   */\n      swap1\n      pop\n        /* \"#utility.yul\":9604:9952   */\n      swap3\n      swap2\n      pop\n      pop\n      jump\t// out\n        /* \"#utility.yul\":9958:10149   */\n    tag_142:\n        /* \"#utility.yul\":9998:10002   */\n      0x00\n        /* \"#utility.yul\":10018:10038   */\n      tag_271\n        /* \"#utility.yul\":10036:10037   */\n      dup3\n        /* \"#utility.yul\":10018:10038   */\n      tag_227\n      jump\t// in\n    tag_271:\n        /* \"#utility.yul\":10013:10038   */\n      swap2\n      pop\n        /* \"#utility.yul\":10052:10072   */\n      tag_272\n        /* \"#utility.yul\":10070:10071   */\n      dup4\n        /* \"#utility.yul\":10052:10072   */\n      tag_227\n      jump\t// in\n    tag_272:\n        /* \"#utility.yul\":10047:10072   */\n      swap3\n      pop\n        /* \"#utility.yul\":10091:10092   */\n      dup3\n        /* \"#utility.yul\":10088:10089   */\n      dup3\n        /* \"#utility.yul\":10085:10093   */\n      lt\n        /* \"#utility.yul\":10082:10116   */\n      iszero\n      tag_273\n      jumpi\n        /* \"#utility.yul\":10096:10114   */\n      tag_274\n      tag_258\n      jump\t// in\n    tag_274:\n        /* \"#utility.yul\":10082:10116   */\n    tag_273:\n        /* \"#utility.yul\":10141:10142   */\n      dup3\n        /* \"#utility.yul\":10138:10139   */\n      dup3\n        /* \"#utility.yul\":10134:10143   */\n      sub\n        /* \"#utility.yul\":10126:10143   */\n      swap1\n      pop\n        /* \"#utility.yul\":9958:10149   */\n      swap3\n      swap2\n      pop\n      pop\n      jump\t// out\n        /* \"#utility.yul\":10155:10251   */\n    tag_178:\n        /* \"#utility.yul\":10192:10199   */\n      0x00\n        /* \"#utility.yul\":10221:10245   */\n      tag_276\n        /* \"#utility.yul\":10239:10244   */\n      dup3\n        /* \"#utility.yul\":10221:10245   */\n      tag_277\n      jump\t// in\n    tag_276:\n        /* \"#utility.yul\":10210:10245   */\n      swap1\n      pop\n        /* \"#utility.yul\":10155:10251   */\n      swap2\n      swap1\n      pop\n      jump\t// out\n        /* \"#utility.yul\":10257:10347   */\n    tag_182:\n        /* \"#utility.yul\":10291:10298   */\n      0x00\n        /* \"#utility.yul\":10334:10339   */\n      dup2\n        /* \"#utility.yul\":10327:10340   */\n      iszero\n        /* \"#utility.yul\":10320:10341   */\n      iszero\n        /* \"#utility.yul\":10309:10341   */\n      swap1\n      pop\n        /* \"#utility.yul\":10257:10347   */\n      swap2\n      swap1\n      pop\n      jump\t// out\n        /* \"#utility.yul\":10353:10479   */\n    tag_277:\n        /* \"#utility.yul\":10390:10397   */\n      0x00\n        /* \"#utility.yul\":10430:10472   */\n      0xffffffffffffffffffffffffffffffffffffffff\n        /* \"#utility.yul\":10423:10428   */\n      dup3\n        /* \"#utility.yul\":10419:10473   */\n      and\n        /* \"#utility.yul\":10408:10473   */\n      swap1\n      pop\n        /* \"#utility.yul\":10353:10479   */\n      swap2\n      swap1\n      pop\n      jump\t// out\n        /* \"#utility.yul\":10485:10562   */\n    tag_227:\n        /* \"#utility.yul\":10522:10529   */\n      0x00\n        /* \"#utility.yul\":10551:10556   */\n      dup2\n        /* \"#utility.yul\":10540:10556   */\n      swap1\n      pop\n        /* \"#utility.yul\":10485:10562   */\n      swap2\n      swap1\n      pop\n      jump\t// out\n        /* \"#utility.yul\":10568:10801   */\n    tag_136:\n        /* \"#utility.yul\":10607:10610   */\n      0x00\n        /* \"#utility.yul\":10630:10654   */\n      tag_282\n        /* \"#utility.yul\":10648:10653   */\n      dup3\n        /* \"#utility.yul\":10630:10654   */\n      tag_227\n      jump\t// in\n    tag_282:\n        /* \"#utility.yul\":10621:10654   */\n      swap2\n      pop\n        /* \"#utility.yul\":10676:10742   */\n      0xffffffffffffffffffffffffffffffffffffffffffffffffffffffffffffffff\n        /* \"#utility.yul\":10669:10674   */\n      dup3\n        /* \"#utility.yul\":10666:10743   */\n      eq\n        /* \"#utility.yul\":10663:10766   */\n      iszero\n      tag_283\n      jumpi\n        /* \"#utility.yul\":10746:10764   */\n      tag_284\n      tag_258\n      jump\t// in\n    tag_284:\n        /* \"#utility.yul\":10663:10766   */\n    tag_283:\n        /* \"#utility.yul\":10793:10794   */\n      0x01\n        /* \"#utility.yul\":10786:10791   */\n      dup3\n        /* \"#utility.yul\":10782:10795   */\n      add\n        /* \"#utility.yul\":10775:10795   */\n      swap1\n      pop\n        /* \"#utility.yul\":10568:10801   */\n      swap2\n      swap1\n      pop\n      jump\t// out\n        /* \"#utility.yul\":10807:10987   */\n    tag_258:\n        /* \"#utility.yul\":10855:10932   */\n      0x4e487b7100000000000000000000000000000000000000000000000000000000\n        /* \"#utility.yul\":10852:10853   */\n      0x00\n        /* \"#utility.yul\":10845:10933   */\n      mstore\n        /* \"#utility.yul\":10952:10956   */\n      0x11\n        /* \"#utility.yul\":10949:10950   */\n      0x04\n        /* \"#utility.yul\":10942:10957   */\n      mstore\n        /* \"#utility.yul\":10976:10980   */\n      0x24\n        /* \"#utility.yul\":10973:10974   */\n      0x00\n        /* \"#utility.yul\":10966:10981   */\n      revert\n        /* \"#utility.yul\":10993:11173   */\n    tag_264:\n        /* \"#utility.yul\":11041:11118   */\n      0x4e487b7100000000000000000000000000000000000000000000000000000000\n        /* \"#utility.yul\":11038:11039   */\n      0x00\n        /* \"#utility.yul\":11031:11119   */\n      mstore\n        /* \"#utility.yul\":11138:11142   */\n      0x12\n        /* \"#utility.yul\":11135:11136   */\n      0x04\n        /* \"#utility.yul\":11128:11143   */\n      mstore\n        /* \"#utility.yul\":11162:11166   */\n      0x24\n        /* \"#utility.yul\":11159:11160   */\n      0x00\n        /* \"#utility.yul\":11152:11167   */\n      revert\n        /* \"#utility.yul\":11179:11359   */\n    tag_130:\n        /* \"#utility.yul\":11227:11304   */\n      0x4e487b7100000000000000000000000000000000000000000000000000000000\n        /* \"#utility.yul\":11224:11225   */\n      0x00\n        /* \"#utility.yul\":11217:11305   */\n      mstore\n        /* \"#utility.yul\":11324:11328   */\n      0x32\n        /* \"#utility.yul\":11321:11322   */\n      0x04\n        /* \"#utility.yul\":11314:11329   */\n      mstore\n        /* \"#utility.yul\":11348:11352   */\n      0x24\n        /* \"#utility.yul\":11345:11346   */\n      0x00\n        /* \"#utility.yul\":11338:11353   */\n      revert\n        /* \"#utility.yul\":11488:11605   */\n    tag_165:\n        /* \"#utility.yul\":11597:11598   */\n      0x00\n        /* \"#utility.yul\":11594:11595   */\n      dup1\n        /* \"#utility.yul\":11587:11599   */\n      revert\n        /* \"#utility.yul\":11611:11778   */\n    tag_188:\n        /* \"#utility.yul\":11751:11770   */\n      0x45746865722063616e6e6f742062652030000000000000000000000000000000\n        /* \"#utility.yul\":11747:11748   */\n      0x00\n        /* \"#utility.yul\":11739:11745   */\n      dup3\n        /* \"#utility.yul\":11735:11749   */\n      add\n        /* \"#utility.yul\":11728:11771   */\n      mstore\n        /* \"#utility.yul\":11611:11778   */\n      pop\n      jump\t// out\n        /* \"#utility.yul\":11784:11958   */\n    tag_193:\n        /* \"#utility.yul\":11924:11950   */\n      0x63616c6c6572206d75737420626520746865206f776e65720000000000000000\n        /* \"#utility.yul\":11920:11921   */\n      0x00\n        /* \"#utility.yul\":11912:11918   */\n      dup3\n        /* \"#utility.yul\":11908:11922   */\n      add\n        /* \"#utility.yul\":11901:11951   */\n      mstore\n        /* \"#utility.yul\":11784:11958   */\n      pop\n      jump\t// out\n        /* \"#utility.yul\":11964:12135   */\n    tag_198:\n        /* \"#utility.yul\":12104:12127   */\n      0x596f7520617265206e6f7420746865206f776e65720000000000000000000000\n        /* \"#utility.yul\":12100:12101   */\n      0x00\n        /* \"#utility.yul\":12092:12098   */\n      dup3\n        /* \"#utility.yul\":12088:12102   */\n      add\n        /* \"#utility.yul\":12081:12128   */\n      mstore\n        /* \"#utility.yul\":11964:12135   */\n      pop\n      jump\t// out\n        /* \"#utility.yul\":12141:12361   */\n    tag_203:\n        /* \"#utility.yul\":12281:12315   */\n      0x4f6e6c79206f776e65722063616e2070617573652074686520636f6e74726163\n        /* \"#utility.yul\":12277:12278   */\n      0x00\n        /* \"#utility.yul\":12269:12275   */\n      dup3\n        /* \"#utility.yul\":12265:12279   */\n      add\n        /* \"#utility.yul\":12258:12316   */\n      mstore\n        /* \"#utility.yul\":12350:12353   */\n      0x7400000000000000000000000000000000000000000000000000000000000000\n        /* \"#utility.yul\":12345:12347   */\n      0x20\n        /* \"#utility.yul\":12337:12343   */\n      dup3\n        /* \"#utility.yul\":12333:12348   */\n      add\n        /* \"#utility.yul\":12326:12354   */\n      mstore\n        /* \"#utility.yul\":12141:12361   */\n      pop\n      jump\t// out\n        /* \"#utility.yul\":12367:12530   */\n    tag_208:\n        /* \"#utility.yul\":12507:12522   */\n      0x5573657220426c6f636b65642100000000000000000000000000000000000000\n        /* \"#utility.yul\":12503:12504   */\n      0x00\n        /* \"#utility.yul\":12495:12501   */\n      dup3\n        /* \"#utility.yul\":12491:12505   */\n      add\n        /* \"#utility.yul\":12484:12523   */\n      mstore\n        /* \"#utility.yul\":12367:12530   */\n      pop\n      jump\t// out\n        /* \"#utility.yul\":12536:12715   */\n    tag_213:\n        /* \"#utility.yul\":12676:12707   */\n      0x4f6e6c79206f776e65722063616e20626c6f636b207468652075736572000000\n        /* \"#utility.yul\":12672:12673   */\n      0x00\n        /* \"#utility.yul\":12664:12670   */\n      dup3\n        /* \"#utility.yul\":12660:12674   */\n      add\n        /* \"#utility.yul\":12653:12708   */\n      mstore\n        /* \"#utility.yul\":12536:12715   */\n      pop\n      jump\t// out\n        /* \"#utility.yul\":12721:12886   */\n    tag_218:\n        /* \"#utility.yul\":12861:12878   */\n      0x436f6e7472616374205061757365640000000000000000000000000000000000\n        /* \"#utility.yul\":12857:12858   */\n      0x00\n        /* \"#utility.yul\":12849:12855   */\n      dup3\n        /* \"#utility.yul\":12845:12859   */\n      add\n        /* \"#utility.yul\":12838:12879   */\n      mstore\n        /* \"#utility.yul\":12721:12886   */\n      pop\n      jump\t// out\n        /* \"#utility.yul\":12892:13116   */\n    tag_223:\n        /* \"#utility.yul\":13032:13066   */\n      0x7374616b696e672042616c616e63652063616e6e6f74206265206c6573732074\n        /* \"#utility.yul\":13028:13029   */\n      0x00\n        /* \"#utility.yul\":13020:13026   */\n      dup3\n        /* \"#utility.yul\":13016:13030   */\n      add\n        /* \"#utility.yul\":13009:13067   */\n      mstore\n        /* \"#utility.yul\":13101:13108   */\n      0x68616e2030000000000000000000000000000000000000000000000000000000\n        /* \"#utility.yul\":13096:13098   */\n      0x20\n        /* \"#utility.yul\":13088:13094   */\n      dup3\n        /* \"#utility.yul\":13084:13099   */\n      add\n        /* \"#utility.yul\":13077:13109   */\n      mstore\n        /* \"#utility.yul\":12892:13116   */\n      pop\n      jump\t// out\n        /* \"#utility.yul\":13122:13244   */\n    tag_153:\n        /* \"#utility.yul\":13195:13219   */\n      tag_300\n        /* \"#utility.yul\":13213:13218   */\n      dup2\n        /* \"#utility.yul\":13195:13219   */\n      tag_178\n      jump\t// in\n    tag_300:\n        /* \"#utility.yul\":13188:13193   */\n      dup2\n        /* \"#utility.yul\":13185:13220   */\n      eq\n        /* \"#utility.yul\":13175:13238   */\n      tag_301\n      jumpi\n        /* \"#utility.yul\":13234:13235   */\n      0x00\n        /* \"#utility.yul\":13231:13232   */\n      dup1\n        /* \"#utility.yul\":13224:13236   */\n      revert\n        /* \"#utility.yul\":13175:13238   */\n    tag_301:\n        /* \"#utility.yul\":13122:13244   */\n      pop\n      jump\t// out\n        /* \"#utility.yul\":13250:13366   */\n    tag_157:\n        /* \"#utility.yul\":13320:13341   */\n      tag_303\n        /* \"#utility.yul\":13335:13340   */\n      dup2\n        /* \"#utility.yul\":13320:13341   */\n      tag_182\n      jump\t// in\n    tag_303:\n        /* \"#utility.yul\":13313:13318   */\n      dup2\n        /* \"#utility.yul\":13310:13342   */\n      eq\n        /* \"#utility.yul\":13300:13360   */\n      tag_304\n      jumpi\n        /* \"#utility.yul\":13356:13357   */\n      0x00\n        /* \"#utility.yul\":13353:13354   */\n      dup1\n        /* \"#utility.yul\":13346:13358   */\n      revert\n        /* \"#utility.yul\":13300:13360   */\n    tag_304:\n        /* \"#utility.yul\":13250:13366   */\n      pop\n      jump\t// out\n        /* \"#utility.yul\":13372:13494   */\n    tag_161:\n        /* \"#utility.yul\":13445:13469   */\n      tag_306\n        /* \"#utility.yul\":13463:13468   */\n      dup2\n        /* \"#utility.yul\":13445:13469   */\n      tag_227\n      jump\t// in\n    tag_306:\n        /* \"#utility.yul\":13438:13443   */\n      dup2\n        /* \"#utility.yul\":13435:13470   */\n      eq\n        /* \"#utility.yul\":13425:13488   */\n      tag_307\n      jumpi\n        /* \"#utility.yul\":13484:13485   */\n      0x00\n        /* \"#utility.yul\":13481:13482   */\n      dup1\n        /* \"#utility.yul\":13474:13486   */\n      revert\n        /* \"#utility.yul\":13425:13488   */\n    tag_307:\n        /* \"#utility.yul\":13372:13494   */\n      pop\n      jump\t// out\n\n    auxdata: 0xa2646970667358221220058501f4eb2064283baf3d604fa3e63c1d08ef8637e50b93c93611b9fb4facd064736f6c63430008070033\n}\n",
				"bytecode": {
					"linkReferences": {},
					"object": "608060405234801561001057600080fd5b50336000806101000a81548173ffffffffffffffffffffffffffffffffffffffff021916908373ffffffffffffffffffffffffffffffffffffffff160217905550611546806100606000396000f3fe6080604052600436106100f35760003560e01c80636f49712b1161008a578063c93c8f3411610059578063c93c8f34146102d3578063dfa20f0a14610310578063f765fd8f14610327578063fd5e6dd11461033e576100f3565b80636f49712b1461021757806375c96c5d146102545780638da5cb5b1461027d578063b0370e0c146102a8576100f3565b806345bc78ab116100c657806345bc78ab1461017a5780634626402b146101b757806351ed6a30146101e25780635c975abb146101ec576100f3565b8063021a89ad146100f857806316c38b3c1461012357806320eb640c1461014c578063439766ce14610163575b600080fd5b34801561010457600080fd5b5061010d61037b565b60405161011a9190610fb8565b60405180910390f35b34801561012f57600080fd5b5061014a60048036038101906101459190610dfe565b61038e565b005b34801561015857600080fd5b50610161610439565b005b34801561016f57600080fd5b50610178610615565b005b34801561018657600080fd5b506101a1600480360381019061019c9190610dd1565b6106fb565b6040516101ae91906110d3565b60405180910390f35b3480156101c357600080fd5b506101cc610713565b6040516101d991906110d3565b60405180910390f35b6101ea610719565b005b3480156101f857600080fd5b5061020161096f565b60405161020e9190610fb8565b60405180910390f35b34801561022357600080fd5b5061023e60048036038101906102399190610dd1565b610982565b60405161024b9190610fb8565b60405180910390f35b34801561026057600080fd5b5061027b60048036038101906102769190610dfe565b6109a2565b005b34801561028957600080fd5b50610292610a4d565b60405161029f9190610f9d565b60405180910390f35b3480156102b457600080fd5b506102bd610a71565b6040516102ca91906110d3565b60405180910390f35b3480156102df57600080fd5b506102fa60048036038101906102f59190610dd1565b610bd3565b6040516103079190610fb8565b60405180910390f35b34801561031c57600080fd5b50610325610bf3565b005b34801561033357600080fd5b5061033c610ca3565b005b34801561034a57600080fd5b5061036560048036038101906103609190610e2b565b610d53565b6040516103729190610f9d565b60405180910390f35b600060159054906101000a900460ff1681565b60008054906101000a900473ffffffffffffffffffffffffffffffffffffffff1673ffffffffffffffffffffffffffffffffffffffff163373ffffffffffffffffffffffffffffffffffffffff161461041c576040517f08c379a000000000000000000000000000000000000000000000000000000000815260040161041390611013565b60405180910390fd5b80600060146101000a81548160ff02191690831515021790555050565b6000600360003373ffffffffffffffffffffffffffffffffffffffff1673ffffffffffffffffffffffffffffffffffffffff168152602001908152602001600020549050600081116104c0576040517f08c379a00000000000000000000000000000000000000000000000000000000081526004016104b7906110b3565b60405180910390fd5b6000600360003373ffffffffffffffffffffffffffffffffffffffff1673ffffffffffffffffffffffffffffffffffffffff16815260200190815260200160002081905550600460003373ffffffffffffffffffffffffffffffffffffffff1673ffffffffffffffffffffffffffffffffffffffff16815260200190815260200160002060009054906101000a900460ff166105ba576002339080600181540180825580915050600190039060005260206000200160009091909190916101000a81548173ffffffffffffffffffffffffffffffffffffffff021916908373ffffffffffffffffffffffffffffffffffffffff1602179055505b6000600560003373ffffffffffffffffffffffffffffffffffffffff1673ffffffffffffffffffffffffffffffffffffffff16815260200190815260200160002060006101000a81548160ff02191690831515021790555050565b60008054906101000a900473ffffffffffffffffffffffffffffffffffffffff1673ffffffffffffffffffffffffffffffffffffffff163373ffffffffffffffffffffffffffffffffffffffff16146106a3576040517f08c379a000000000000000000000000000000000000000000000000000000000815260040161069a90611033565b60405180910390fd5b60001515600060149054906101000a900460ff161515146106f9576040517f08c379a00000000000000000000000000000000000000000000000000000000081526004016106f090611093565b60405180910390fd5b565b60036020528060005260406000206000915090505481565b60015481565b6000341161075c576040517f08c379a000000000000000000000000000000000000000000000000000000000815260040161075390610fd3565b60405180910390fd5b60001515600060159054906101000a900460ff161515146107b2576040517f08c379a00000000000000000000000000000000000000000000000000000000081526004016107a990611053565b60405180910390fd5b34600360003373ffffffffffffffffffffffffffffffffffffffff1673ffffffffffffffffffffffffffffffffffffffff168152602001908152602001600020600082825461080191906110ff565b92505081905550600460003373ffffffffffffffffffffffffffffffffffffffff1673ffffffffffffffffffffffffffffffffffffffff16815260200190815260200160002060009054906101000a900460ff166108bd576002339080600181540180825580915050600190039060005260206000200160009091909190916101000a81548173ffffffffffffffffffffffffffffffffffffffff021916908373ffffffffffffffffffffffffffffffffffffffff1602179055505b6001600560003373ffffffffffffffffffffffffffffffffffffffff1673ffffffffffffffffffffffffffffffffffffffff16815260200190815260200160002060006101000a81548160ff0219169083151502179055506001600460003373ffffffffffffffffffffffffffffffffffffffff1673ffffffffffffffffffffffffffffffffffffffff16815260200190815260200160002060006101000a81548160ff021916908315150217905550565b600060149054906101000a900460ff1681565b60056020528060005260406000206000915054906101000a900460ff1681565b60008054906101000a900473ffffffffffffffffffffffffffffffffffffffff1673ffffffffffffffffffffffffffffffffffffffff163373ffffffffffffffffffffffffffffffffffffffff1614610a30576040517f08c379a0000000000000000000000000000000000000000000000000000000008152600401610a2790611073565b60405180910390fd5b80600060156101000a81548160ff02191690831515021790555050565b60008054906101000a900473ffffffffffffffffffffffffffffffffffffffff1681565b60008060009054906101000a900473ffffffffffffffffffffffffffffffffffffffff1673ffffffffffffffffffffffffffffffffffffffff163373ffffffffffffffffffffffffffffffffffffffff1614610b02576040517f08c379a0000000000000000000000000000000000000000000000000000000008152600401610af990610ff3565b60405180910390fd5b60005b600280549050811015610bce57600060028281548110610b2857610b27611303565b5b9060005260206000200160009054906101000a900473ffffffffffffffffffffffffffffffffffffffff16905060006064600360008473ffffffffffffffffffffffffffffffffffffffff1673ffffffffffffffffffffffffffffffffffffffff16815260200190815260200160002054610ba39190611155565b90506000811115610bb957809350505050610bd0565b50508080610bc69061125c565b915050610b05565b505b90565b60046020528060005260406000206000915054906101000a900460ff1681565b600060646005600360003373ffffffffffffffffffffffffffffffffffffffff1673ffffffffffffffffffffffffffffffffffffffff16815260200190815260200160002054610c439190611186565b610c4d9190611155565b905080600360003373ffffffffffffffffffffffffffffffffffffffff1673ffffffffffffffffffffffffffffffffffffffff16815260200190815260200160002054610c9a91906111e0565b60018190555050565b600060646005600360003373ffffffffffffffffffffffffffffffffffffffff1673ffffffffffffffffffffffffffffffffffffffff16815260200190815260200160002054610cf39190611186565b610cfd9190611155565b905080600360003373ffffffffffffffffffffffffffffffffffffffff1673ffffffffffffffffffffffffffffffffffffffff16815260200190815260200160002054610d4a91906110ff565b60018190555050565b60028181548110610d6357600080fd5b906000526020600020016000915054906101000a900473ffffffffffffffffffffffffffffffffffffffff1681565b600081359050610da1816114cb565b92915050565b600081359050610db6816114e2565b92915050565b600081359050610dcb816114f9565b92915050565b600060208284031215610de757610de6611332565b5b6000610df584828501610d92565b91505092915050565b600060208284031215610e1457610e13611332565b5b6000610e2284828501610da7565b91505092915050565b600060208284031215610e4157610e40611332565b5b6000610e4f84828501610dbc565b91505092915050565b610e6181611214565b82525050565b610e7081611226565b82525050565b6000610e836011836110ee565b9150610e8e82611337565b602082019050919050565b6000610ea66018836110ee565b9150610eb182611360565b602082019050919050565b6000610ec96015836110ee565b9150610ed482611389565b602082019050919050565b6000610eec6021836110ee565b9150610ef7826113b2565b604082019050919050565b6000610f0f600d836110ee565b9150610f1a82611401565b602082019050919050565b6000610f32601d836110ee565b9150610f3d8261142a565b602082019050919050565b6000610f55600f836110ee565b9150610f6082611453565b602082019050919050565b6000610f786025836110ee565b9150610f838261147c565b604082019050919050565b610f9781611252565b82525050565b6000602082019050610fb26000830184610e58565b92915050565b6000602082019050610fcd6000830184610e67565b92915050565b60006020820190508181036000830152610fec81610e76565b9050919050565b6000602082019050818103600083015261100c81610e99565b9050919050565b6000602082019050818103600083015261102c81610ebc565b9050919050565b6000602082019050818103600083015261104c81610edf565b9050919050565b6000602082019050818103600083015261106c81610f02565b9050919050565b6000602082019050818103600083015261108c81610f25565b9050919050565b600060208201905081810360008301526110ac81610f48565b9050919050565b600060208201905081810360008301526110cc81610f6b565b9050919050565b60006020820190506110e86000830184610f8e565b92915050565b600082825260208201905092915050565b600061110a82611252565b915061111583611252565b9250827fffffffffffffffffffffffffffffffffffffffffffffffffffffffffffffffff0382111561114a576111496112a5565b5b828201905092915050565b600061116082611252565b915061116b83611252565b92508261117b5761117a6112d4565b5b828204905092915050565b600061119182611252565b915061119c83611252565b9250817fffffffffffffffffffffffffffffffffffffffffffffffffffffffffffffffff04831182151516156111d5576111d46112a5565b5b828202905092915050565b60006111eb82611252565b91506111f683611252565b925082821015611209576112086112a5565b5b828203905092915050565b600061121f82611232565b9050919050565b60008115159050919050565b600073ffffffffffffffffffffffffffffffffffffffff82169050919050565b6000819050919050565b600061126782611252565b91507fffffffffffffffffffffffffffffffffffffffffffffffffffffffffffffffff82141561129a576112996112a5565b5b600182019050919050565b7f4e487b7100000000000000000000000000000000000000000000000000000000600052601160045260246000fd5b7f4e487b7100000000000000000000000000000000000000000000000000000000600052601260045260246000fd5b7f4e487b7100000000000000000000000000000000000000000000000000000000600052603260045260246000fd5b600080fd5b7f45746865722063616e6e6f742062652030000000000000000000000000000000600082015250565b7f63616c6c6572206d75737420626520746865206f776e65720000000000000000600082015250565b7f596f7520617265206e6f7420746865206f776e65720000000000000000000000600082015250565b7f4f6e6c79206f776e65722063616e2070617573652074686520636f6e7472616360008201527f7400000000000000000000000000000000000000000000000000000000000000602082015250565b7f5573657220426c6f636b65642100000000000000000000000000000000000000600082015250565b7f4f6e6c79206f776e65722063616e20626c6f636b207468652075736572000000600082015250565b7f436f6e7472616374205061757365640000000000000000000000000000000000600082015250565b7f7374616b696e672042616c616e63652063616e6e6f74206265206c657373207460008201527f68616e2030000000000000000000000000000000000000000000000000000000602082015250565b6114d481611214565b81146114df57600080fd5b50565b6114eb81611226565b81146114f657600080fd5b50565b61150281611252565b811461150d57600080fd5b5056fea2646970667358221220058501f4eb2064283baf3d604fa3e63c1d08ef8637e50b93c93611b9fb4facd064736f6c63430008070033",
					"opcodes": "PUSH1 0x80 PUSH1 0x40 MSTORE CALLVALUE DUP1 ISZERO PUSH2 0x10 JUMPI PUSH1 0x0 DUP1 REVERT JUMPDEST POP CALLER PUSH1 0x0 DUP1 PUSH2 0x100 EXP DUP2 SLOAD DUP2 PUSH20 0xFFFFFFFFFFFFFFFFFFFFFFFFFFFFFFFFFFFFFFFF MUL NOT AND SWAP1 DUP4 PUSH20 0xFFFFFFFFFFFFFFFFFFFFFFFFFFFFFFFFFFFFFFFF AND MUL OR SWAP1 SSTORE POP PUSH2 0x1546 DUP1 PUSH2 0x60 PUSH1 0x0 CODECOPY PUSH1 0x0 RETURN INVALID PUSH1 0x80 PUSH1 0x40 MSTORE PUSH1 0x4 CALLDATASIZE LT PUSH2 0xF3 JUMPI PUSH1 0x0 CALLDATALOAD PUSH1 0xE0 SHR DUP1 PUSH4 0x6F49712B GT PUSH2 0x8A JUMPI DUP1 PUSH4 0xC93C8F34 GT PUSH2 0x59 JUMPI DUP1 PUSH4 0xC93C8F34 EQ PUSH2 0x2D3 JUMPI DUP1 PUSH4 0xDFA20F0A EQ PUSH2 0x310 JUMPI DUP1 PUSH4 0xF765FD8F EQ PUSH2 0x327 JUMPI DUP1 PUSH4 0xFD5E6DD1 EQ PUSH2 0x33E JUMPI PUSH2 0xF3 JUMP JUMPDEST DUP1 PUSH4 0x6F49712B EQ PUSH2 0x217 JUMPI DUP1 PUSH4 0x75C96C5D EQ PUSH2 0x254 JUMPI DUP1 PUSH4 0x8DA5CB5B EQ PUSH2 0x27D JUMPI DUP1 PUSH4 0xB0370E0C EQ PUSH2 0x2A8 JUMPI PUSH2 0xF3 JUMP JUMPDEST DUP1 PUSH4 0x45BC78AB GT PUSH2 0xC6 JUMPI DUP1 PUSH4 0x45BC78AB EQ PUSH2 0x17A JUMPI DUP1 PUSH4 0x4626402B EQ PUSH2 0x1B7 JUMPI DUP1 PUSH4 0x51ED6A30 EQ PUSH2 0x1E2 JUMPI DUP1 PUSH4 0x5C975ABB EQ PUSH2 0x1EC JUMPI PUSH2 0xF3 JUMP JUMPDEST DUP1 PUSH4 0x21A89AD EQ PUSH2 0xF8 JUMPI DUP1 PUSH4 0x16C38B3C EQ PUSH2 0x123 JUMPI DUP1 PUSH4 0x20EB640C EQ PUSH2 0x14C JUMPI DUP1 PUSH4 0x439766CE EQ PUSH2 0x163 JUMPI JUMPDEST PUSH1 0x0 DUP1 REVERT JUMPDEST CALLVALUE DUP1 ISZERO PUSH2 0x104 JUMPI PUSH1 0x0 DUP1 REVERT JUMPDEST POP PUSH2 0x10D PUSH2 0x37B JUMP JUMPDEST PUSH1 0x40 MLOAD PUSH2 0x11A SWAP2 SWAP1 PUSH2 0xFB8 JUMP JUMPDEST PUSH1 0x40 MLOAD DUP1 SWAP2 SUB SWAP1 RETURN JUMPDEST CALLVALUE DUP1 ISZERO PUSH2 0x12F JUMPI PUSH1 0x0 DUP1 REVERT JUMPDEST POP PUSH2 0x14A PUSH1 0x4 DUP1 CALLDATASIZE SUB DUP2 ADD SWAP1 PUSH2 0x145 SWAP2 SWAP1 PUSH2 0xDFE JUMP JUMPDEST PUSH2 0x38E JUMP JUMPDEST STOP JUMPDEST CALLVALUE DUP1 ISZERO PUSH2 0x158 JUMPI PUSH1 0x0 DUP1 REVERT JUMPDEST POP PUSH2 0x161 PUSH2 0x439 JUMP JUMPDEST STOP JUMPDEST CALLVALUE DUP1 ISZERO PUSH2 0x16F JUMPI PUSH1 0x0 DUP1 REVERT JUMPDEST POP PUSH2 0x178 PUSH2 0x615 JUMP JUMPDEST STOP JUMPDEST CALLVALUE DUP1 ISZERO PUSH2 0x186 JUMPI PUSH1 0x0 DUP1 REVERT JUMPDEST POP PUSH2 0x1A1 PUSH1 0x4 DUP1 CALLDATASIZE SUB DUP2 ADD SWAP1 PUSH2 0x19C SWAP2 SWAP1 PUSH2 0xDD1 JUMP JUMPDEST PUSH2 0x6FB JUMP JUMPDEST PUSH1 0x40 MLOAD PUSH2 0x1AE SWAP2 SWAP1 PUSH2 0x10D3 JUMP JUMPDEST PUSH1 0x40 MLOAD DUP1 SWAP2 SUB SWAP1 RETURN JUMPDEST CALLVALUE DUP1 ISZERO PUSH2 0x1C3 JUMPI PUSH1 0x0 DUP1 REVERT JUMPDEST POP PUSH2 0x1CC PUSH2 0x713 JUMP JUMPDEST PUSH1 0x40 MLOAD PUSH2 0x1D9 SWAP2 SWAP1 PUSH2 0x10D3 JUMP JUMPDEST PUSH1 0x40 MLOAD DUP1 SWAP2 SUB SWAP1 RETURN JUMPDEST PUSH2 0x1EA PUSH2 0x719 JUMP JUMPDEST STOP JUMPDEST CALLVALUE DUP1 ISZERO PUSH2 0x1F8 JUMPI PUSH1 0x0 DUP1 REVERT JUMPDEST POP PUSH2 0x201 PUSH2 0x96F JUMP JUMPDEST PUSH1 0x40 MLOAD PUSH2 0x20E SWAP2 SWAP1 PUSH2 0xFB8 JUMP JUMPDEST PUSH1 0x40 MLOAD DUP1 SWAP2 SUB SWAP1 RETURN JUMPDEST CALLVALUE DUP1 ISZERO PUSH2 0x223 JUMPI PUSH1 0x0 DUP1 REVERT JUMPDEST POP PUSH2 0x23E PUSH1 0x4 DUP1 CALLDATASIZE SUB DUP2 ADD SWAP1 PUSH2 0x239 SWAP2 SWAP1 PUSH2 0xDD1 JUMP JUMPDEST PUSH2 0x982 JUMP JUMPDEST PUSH1 0x40 MLOAD PUSH2 0x24B SWAP2 SWAP1 PUSH2 0xFB8 JUMP JUMPDEST PUSH1 0x40 MLOAD DUP1 SWAP2 SUB SWAP1 RETURN JUMPDEST CALLVALUE DUP1 ISZERO PUSH2 0x260 JUMPI PUSH1 0x0 DUP1 REVERT JUMPDEST POP PUSH2 0x27B PUSH1 0x4 DUP1 CALLDATASIZE SUB DUP2 ADD SWAP1 PUSH2 0x276 SWAP2 SWAP1 PUSH2 0xDFE JUMP JUMPDEST PUSH2 0x9A2 JUMP JUMPDEST STOP JUMPDEST CALLVALUE DUP1 ISZERO PUSH2 0x289 JUMPI PUSH1 0x0 DUP1 REVERT JUMPDEST POP PUSH2 0x292 PUSH2 0xA4D JUMP JUMPDEST PUSH1 0x40 MLOAD PUSH2 0x29F SWAP2 SWAP1 PUSH2 0xF9D JUMP JUMPDEST PUSH1 0x40 MLOAD DUP1 SWAP2 SUB SWAP1 RETURN JUMPDEST CALLVALUE DUP1 ISZERO PUSH2 0x2B4 JUMPI PUSH1 0x0 DUP1 REVERT JUMPDEST POP PUSH2 0x2BD PUSH2 0xA71 JUMP JUMPDEST PUSH1 0x40 MLOAD PUSH2 0x2CA SWAP2 SWAP1 PUSH2 0x10D3 JUMP JUMPDEST PUSH1 0x40 MLOAD DUP1 SWAP2 SUB SWAP1 RETURN JUMPDEST CALLVALUE DUP1 ISZERO PUSH2 0x2DF JUMPI PUSH1 0x0 DUP1 REVERT JUMPDEST POP PUSH2 0x2FA PUSH1 0x4 DUP1 CALLDATASIZE SUB DUP2 ADD SWAP1 PUSH2 0x2F5 SWAP2 SWAP1 PUSH2 0xDD1 JUMP JUMPDEST PUSH2 0xBD3 JUMP JUMPDEST PUSH1 0x40 MLOAD PUSH2 0x307 SWAP2 SWAP1 PUSH2 0xFB8 JUMP JUMPDEST PUSH1 0x40 MLOAD DUP1 SWAP2 SUB SWAP1 RETURN JUMPDEST CALLVALUE DUP1 ISZERO PUSH2 0x31C JUMPI PUSH1 0x0 DUP1 REVERT JUMPDEST POP PUSH2 0x325 PUSH2 0xBF3 JUMP JUMPDEST STOP JUMPDEST CALLVALUE DUP1 ISZERO PUSH2 0x333 JUMPI PUSH1 0x0 DUP1 REVERT JUMPDEST POP PUSH2 0x33C PUSH2 0xCA3 JUMP JUMPDEST STOP JUMPDEST CALLVALUE DUP1 ISZERO PUSH2 0x34A JUMPI PUSH1 0x0 DUP1 REVERT JUMPDEST POP PUSH2 0x365 PUSH1 0x4 DUP1 CALLDATASIZE SUB DUP2 ADD SWAP1 PUSH2 0x360 SWAP2 SWAP1 PUSH2 0xE2B JUMP JUMPDEST PUSH2 0xD53 JUMP JUMPDEST PUSH1 0x40 MLOAD PUSH2 0x372 SWAP2 SWAP1 PUSH2 0xF9D JUMP JUMPDEST PUSH1 0x40 MLOAD DUP1 SWAP2 SUB SWAP1 RETURN JUMPDEST PUSH1 0x0 PUSH1 0x15 SWAP1 SLOAD SWAP1 PUSH2 0x100 EXP SWAP1 DIV PUSH1 0xFF AND DUP2 JUMP JUMPDEST PUSH1 0x0 DUP1 SLOAD SWAP1 PUSH2 0x100 EXP SWAP1 DIV PUSH20 0xFFFFFFFFFFFFFFFFFFFFFFFFFFFFFFFFFFFFFFFF AND PUSH20 0xFFFFFFFFFFFFFFFFFFFFFFFFFFFFFFFFFFFFFFFF AND CALLER PUSH20 0xFFFFFFFFFFFFFFFFFFFFFFFFFFFFFFFFFFFFFFFF AND EQ PUSH2 0x41C JUMPI PUSH1 0x40 MLOAD PUSH32 0x8C379A000000000000000000000000000000000000000000000000000000000 DUP2 MSTORE PUSH1 0x4 ADD PUSH2 0x413 SWAP1 PUSH2 0x1013 JUMP JUMPDEST PUSH1 0x40 MLOAD DUP1 SWAP2 SUB SWAP1 REVERT JUMPDEST DUP1 PUSH1 0x0 PUSH1 0x14 PUSH2 0x100 EXP DUP2 SLOAD DUP2 PUSH1 0xFF MUL NOT AND SWAP1 DUP4 ISZERO ISZERO MUL OR SWAP1 SSTORE POP POP JUMP JUMPDEST PUSH1 0x0 PUSH1 0x3 PUSH1 0x0 CALLER PUSH20 0xFFFFFFFFFFFFFFFFFFFFFFFFFFFFFFFFFFFFFFFF AND PUSH20 0xFFFFFFFFFFFFFFFFFFFFFFFFFFFFFFFFFFFFFFFF AND DUP2 MSTORE PUSH1 0x20 ADD SWAP1 DUP2 MSTORE PUSH1 0x20 ADD PUSH1 0x0 KECCAK256 SLOAD SWAP1 POP PUSH1 0x0 DUP2 GT PUSH2 0x4C0 JUMPI PUSH1 0x40 MLOAD PUSH32 0x8C379A000000000000000000000000000000000000000000000000000000000 DUP2 MSTORE PUSH1 0x4 ADD PUSH2 0x4B7 SWAP1 PUSH2 0x10B3 JUMP JUMPDEST PUSH1 0x40 MLOAD DUP1 SWAP2 SUB SWAP1 REVERT JUMPDEST PUSH1 0x0 PUSH1 0x3 PUSH1 0x0 CALLER PUSH20 0xFFFFFFFFFFFFFFFFFFFFFFFFFFFFFFFFFFFFFFFF AND PUSH20 0xFFFFFFFFFFFFFFFFFFFFFFFFFFFFFFFFFFFFFFFF AND DUP2 MSTORE PUSH1 0x20 ADD SWAP1 DUP2 MSTORE PUSH1 0x20 ADD PUSH1 0x0 KECCAK256 DUP2 SWAP1 SSTORE POP PUSH1 0x4 PUSH1 0x0 CALLER PUSH20 0xFFFFFFFFFFFFFFFFFFFFFFFFFFFFFFFFFFFFFFFF AND PUSH20 0xFFFFFFFFFFFFFFFFFFFFFFFFFFFFFFFFFFFFFFFF AND DUP2 MSTORE PUSH1 0x20 ADD SWAP1 DUP2 MSTORE PUSH1 0x20 ADD PUSH1 0x0 KECCAK256 PUSH1 0x0 SWAP1 SLOAD SWAP1 PUSH2 0x100 EXP SWAP1 DIV PUSH1 0xFF AND PUSH2 0x5BA JUMPI PUSH1 0x2 CALLER SWAP1 DUP1 PUSH1 0x1 DUP2 SLOAD ADD DUP1 DUP3 SSTORE DUP1 SWAP2 POP POP PUSH1 0x1 SWAP1 SUB SWAP1 PUSH1 0x0 MSTORE PUSH1 0x20 PUSH1 0x0 KECCAK256 ADD PUSH1 0x0 SWAP1 SWAP2 SWAP1 SWAP2 SWAP1 SWAP2 PUSH2 0x100 EXP DUP2 SLOAD DUP2 PUSH20 0xFFFFFFFFFFFFFFFFFFFFFFFFFFFFFFFFFFFFFFFF MUL NOT AND SWAP1 DUP4 PUSH20 0xFFFFFFFFFFFFFFFFFFFFFFFFFFFFFFFFFFFFFFFF AND MUL OR SWAP1 SSTORE POP JUMPDEST PUSH1 0x0 PUSH1 0x5 PUSH1 0x0 CALLER PUSH20 0xFFFFFFFFFFFFFFFFFFFFFFFFFFFFFFFFFFFFFFFF AND PUSH20 0xFFFFFFFFFFFFFFFFFFFFFFFFFFFFFFFFFFFFFFFF AND DUP2 MSTORE PUSH1 0x20 ADD SWAP1 DUP2 MSTORE PUSH1 0x20 ADD PUSH1 0x0 KECCAK256 PUSH1 0x0 PUSH2 0x100 EXP DUP2 SLOAD DUP2 PUSH1 0xFF MUL NOT AND SWAP1 DUP4 ISZERO ISZERO MUL OR SWAP1 SSTORE POP POP JUMP JUMPDEST PUSH1 0x0 DUP1 SLOAD SWAP1 PUSH2 0x100 EXP SWAP1 DIV PUSH20 0xFFFFFFFFFFFFFFFFFFFFFFFFFFFFFFFFFFFFFFFF AND PUSH20 0xFFFFFFFFFFFFFFFFFFFFFFFFFFFFFFFFFFFFFFFF AND CALLER PUSH20 0xFFFFFFFFFFFFFFFFFFFFFFFFFFFFFFFFFFFFFFFF AND EQ PUSH2 0x6A3 JUMPI PUSH1 0x40 MLOAD PUSH32 0x8C379A000000000000000000000000000000000000000000000000000000000 DUP2 MSTORE PUSH1 0x4 ADD PUSH2 0x69A SWAP1 PUSH2 0x1033 JUMP JUMPDEST PUSH1 0x40 MLOAD DUP1 SWAP2 SUB SWAP1 REVERT JUMPDEST PUSH1 0x0 ISZERO ISZERO PUSH1 0x0 PUSH1 0x14 SWAP1 SLOAD SWAP1 PUSH2 0x100 EXP SWAP1 DIV PUSH1 0xFF AND ISZERO ISZERO EQ PUSH2 0x6F9 JUMPI PUSH1 0x40 MLOAD PUSH32 0x8C379A000000000000000000000000000000000000000000000000000000000 DUP2 MSTORE PUSH1 0x4 ADD PUSH2 0x6F0 SWAP1 PUSH2 0x1093 JUMP JUMPDEST PUSH1 0x40 MLOAD DUP1 SWAP2 SUB SWAP1 REVERT JUMPDEST JUMP JUMPDEST PUSH1 0x3 PUSH1 0x20 MSTORE DUP1 PUSH1 0x0 MSTORE PUSH1 0x40 PUSH1 0x0 KECCAK256 PUSH1 0x0 SWAP2 POP SWAP1 POP SLOAD DUP2 JUMP JUMPDEST PUSH1 0x1 SLOAD DUP2 JUMP JUMPDEST PUSH1 0x0 CALLVALUE GT PUSH2 0x75C JUMPI PUSH1 0x40 MLOAD PUSH32 0x8C379A000000000000000000000000000000000000000000000000000000000 DUP2 MSTORE PUSH1 0x4 ADD PUSH2 0x753 SWAP1 PUSH2 0xFD3 JUMP JUMPDEST PUSH1 0x40 MLOAD DUP1 SWAP2 SUB SWAP1 REVERT JUMPDEST PUSH1 0x0 ISZERO ISZERO PUSH1 0x0 PUSH1 0x15 SWAP1 SLOAD SWAP1 PUSH2 0x100 EXP SWAP1 DIV PUSH1 0xFF AND ISZERO ISZERO EQ PUSH2 0x7B2 JUMPI PUSH1 0x40 MLOAD PUSH32 0x8C379A000000000000000000000000000000000000000000000000000000000 DUP2 MSTORE PUSH1 0x4 ADD PUSH2 0x7A9 SWAP1 PUSH2 0x1053 JUMP JUMPDEST PUSH1 0x40 MLOAD DUP1 SWAP2 SUB SWAP1 REVERT JUMPDEST CALLVALUE PUSH1 0x3 PUSH1 0x0 CALLER PUSH20 0xFFFFFFFFFFFFFFFFFFFFFFFFFFFFFFFFFFFFFFFF AND PUSH20 0xFFFFFFFFFFFFFFFFFFFFFFFFFFFFFFFFFFFFFFFF AND DUP2 MSTORE PUSH1 0x20 ADD SWAP1 DUP2 MSTORE PUSH1 0x20 ADD PUSH1 0x0 KECCAK256 PUSH1 0x0 DUP3 DUP3 SLOAD PUSH2 0x801 SWAP2 SWAP1 PUSH2 0x10FF JUMP JUMPDEST SWAP3 POP POP DUP2 SWAP1 SSTORE POP PUSH1 0x4 PUSH1 0x0 CALLER PUSH20 0xFFFFFFFFFFFFFFFFFFFFFFFFFFFFFFFFFFFFFFFF AND PUSH20 0xFFFFFFFFFFFFFFFFFFFFFFFFFFFFFFFFFFFFFFFF AND DUP2 MSTORE PUSH1 0x20 ADD SWAP1 DUP2 MSTORE PUSH1 0x20 ADD PUSH1 0x0 KECCAK256 PUSH1 0x0 SWAP1 SLOAD SWAP1 PUSH2 0x100 EXP SWAP1 DIV PUSH1 0xFF AND PUSH2 0x8BD JUMPI PUSH1 0x2 CALLER SWAP1 DUP1 PUSH1 0x1 DUP2 SLOAD ADD DUP1 DUP3 SSTORE DUP1 SWAP2 POP POP PUSH1 0x1 SWAP1 SUB SWAP1 PUSH1 0x0 MSTORE PUSH1 0x20 PUSH1 0x0 KECCAK256 ADD PUSH1 0x0 SWAP1 SWAP2 SWAP1 SWAP2 SWAP1 SWAP2 PUSH2 0x100 EXP DUP2 SLOAD DUP2 PUSH20 0xFFFFFFFFFFFFFFFFFFFFFFFFFFFFFFFFFFFFFFFF MUL NOT AND SWAP1 DUP4 PUSH20 0xFFFFFFFFFFFFFFFFFFFFFFFFFFFFFFFFFFFFFFFF AND MUL OR SWAP1 SSTORE POP JUMPDEST PUSH1 0x1 PUSH1 0x5 PUSH1 0x0 CALLER PUSH20 0xFFFFFFFFFFFFFFFFFFFFFFFFFFFFFFFFFFFFFFFF AND PUSH20 0xFFFFFFFFFFFFFFFFFFFFFFFFFFFFFFFFFFFFFFFF AND DUP2 MSTORE PUSH1 0x20 ADD SWAP1 DUP2 MSTORE PUSH1 0x20 ADD PUSH1 0x0 KECCAK256 PUSH1 0x0 PUSH2 0x100 EXP DUP2 SLOAD DUP2 PUSH1 0xFF MUL NOT AND SWAP1 DUP4 ISZERO ISZERO MUL OR SWAP1 SSTORE POP PUSH1 0x1 PUSH1 0x4 PUSH1 0x0 CALLER PUSH20 0xFFFFFFFFFFFFFFFFFFFFFFFFFFFFFFFFFFFFFFFF AND PUSH20 0xFFFFFFFFFFFFFFFFFFFFFFFFFFFFFFFFFFFFFFFF AND DUP2 MSTORE PUSH1 0x20 ADD SWAP1 DUP2 MSTORE PUSH1 0x20 ADD PUSH1 0x0 KECCAK256 PUSH1 0x0 PUSH2 0x100 EXP DUP2 SLOAD DUP2 PUSH1 0xFF MUL NOT AND SWAP1 DUP4 ISZERO ISZERO MUL OR SWAP1 SSTORE POP JUMP JUMPDEST PUSH1 0x0 PUSH1 0x14 SWAP1 SLOAD SWAP1 PUSH2 0x100 EXP SWAP1 DIV PUSH1 0xFF AND DUP2 JUMP JUMPDEST PUSH1 0x5 PUSH1 0x20 MSTORE DUP1 PUSH1 0x0 MSTORE PUSH1 0x40 PUSH1 0x0 KECCAK256 PUSH1 0x0 SWAP2 POP SLOAD SWAP1 PUSH2 0x100 EXP SWAP1 DIV PUSH1 0xFF AND DUP2 JUMP JUMPDEST PUSH1 0x0 DUP1 SLOAD SWAP1 PUSH2 0x100 EXP SWAP1 DIV PUSH20 0xFFFFFFFFFFFFFFFFFFFFFFFFFFFFFFFFFFFFFFFF AND PUSH20 0xFFFFFFFFFFFFFFFFFFFFFFFFFFFFFFFFFFFFFFFF AND CALLER PUSH20 0xFFFFFFFFFFFFFFFFFFFFFFFFFFFFFFFFFFFFFFFF AND EQ PUSH2 0xA30 JUMPI PUSH1 0x40 MLOAD PUSH32 0x8C379A000000000000000000000000000000000000000000000000000000000 DUP2 MSTORE PUSH1 0x4 ADD PUSH2 0xA27 SWAP1 PUSH2 0x1073 JUMP JUMPDEST PUSH1 0x40 MLOAD DUP1 SWAP2 SUB SWAP1 REVERT JUMPDEST DUP1 PUSH1 0x0 PUSH1 0x15 PUSH2 0x100 EXP DUP2 SLOAD DUP2 PUSH1 0xFF MUL NOT AND SWAP1 DUP4 ISZERO ISZERO MUL OR SWAP1 SSTORE POP POP JUMP JUMPDEST PUSH1 0x0 DUP1 SLOAD SWAP1 PUSH2 0x100 EXP SWAP1 DIV PUSH20 0xFFFFFFFFFFFFFFFFFFFFFFFFFFFFFFFFFFFFFFFF AND DUP2 JUMP JUMPDEST PUSH1 0x0 DUP1 PUSH1 0x0 SWAP1 SLOAD SWAP1 PUSH2 0x100 EXP SWAP1 DIV PUSH20 0xFFFFFFFFFFFFFFFFFFFFFFFFFFFFFFFFFFFFFFFF AND PUSH20 0xFFFFFFFFFFFFFFFFFFFFFFFFFFFFFFFFFFFFFFFF AND CALLER PUSH20 0xFFFFFFFFFFFFFFFFFFFFFFFFFFFFFFFFFFFFFFFF AND EQ PUSH2 0xB02 JUMPI PUSH1 0x40 MLOAD PUSH32 0x8C379A000000000000000000000000000000000000000000000000000000000 DUP2 MSTORE PUSH1 0x4 ADD PUSH2 0xAF9 SWAP1 PUSH2 0xFF3 JUMP JUMPDEST PUSH1 0x40 MLOAD DUP1 SWAP2 SUB SWAP1 REVERT JUMPDEST PUSH1 0x0 JUMPDEST PUSH1 0x2 DUP1 SLOAD SWAP1 POP DUP2 LT ISZERO PUSH2 0xBCE JUMPI PUSH1 0x0 PUSH1 0x2 DUP3 DUP2 SLOAD DUP2 LT PUSH2 0xB28 JUMPI PUSH2 0xB27 PUSH2 0x1303 JUMP JUMPDEST JUMPDEST SWAP1 PUSH1 0x0 MSTORE PUSH1 0x20 PUSH1 0x0 KECCAK256 ADD PUSH1 0x0 SWAP1 SLOAD SWAP1 PUSH2 0x100 EXP SWAP1 DIV PUSH20 0xFFFFFFFFFFFFFFFFFFFFFFFFFFFFFFFFFFFFFFFF AND SWAP1 POP PUSH1 0x0 PUSH1 0x64 PUSH1 0x3 PUSH1 0x0 DUP5 PUSH20 0xFFFFFFFFFFFFFFFFFFFFFFFFFFFFFFFFFFFFFFFF AND PUSH20 0xFFFFFFFFFFFFFFFFFFFFFFFFFFFFFFFFFFFFFFFF AND DUP2 MSTORE PUSH1 0x20 ADD SWAP1 DUP2 MSTORE PUSH1 0x20 ADD PUSH1 0x0 KECCAK256 SLOAD PUSH2 0xBA3 SWAP2 SWAP1 PUSH2 0x1155 JUMP JUMPDEST SWAP1 POP PUSH1 0x0 DUP2 GT ISZERO PUSH2 0xBB9 JUMPI DUP1 SWAP4 POP POP POP POP PUSH2 0xBD0 JUMP JUMPDEST POP POP DUP1 DUP1 PUSH2 0xBC6 SWAP1 PUSH2 0x125C JUMP JUMPDEST SWAP2 POP POP PUSH2 0xB05 JUMP JUMPDEST POP JUMPDEST SWAP1 JUMP JUMPDEST PUSH1 0x4 PUSH1 0x20 MSTORE DUP1 PUSH1 0x0 MSTORE PUSH1 0x40 PUSH1 0x0 KECCAK256 PUSH1 0x0 SWAP2 POP SLOAD SWAP1 PUSH2 0x100 EXP SWAP1 DIV PUSH1 0xFF AND DUP2 JUMP JUMPDEST PUSH1 0x0 PUSH1 0x64 PUSH1 0x5 PUSH1 0x3 PUSH1 0x0 CALLER PUSH20 0xFFFFFFFFFFFFFFFFFFFFFFFFFFFFFFFFFFFFFFFF AND PUSH20 0xFFFFFFFFFFFFFFFFFFFFFFFFFFFFFFFFFFFFFFFF AND DUP2 MSTORE PUSH1 0x20 ADD SWAP1 DUP2 MSTORE PUSH1 0x20 ADD PUSH1 0x0 KECCAK256 SLOAD PUSH2 0xC43 SWAP2 SWAP1 PUSH2 0x1186 JUMP JUMPDEST PUSH2 0xC4D SWAP2 SWAP1 PUSH2 0x1155 JUMP JUMPDEST SWAP1 POP DUP1 PUSH1 0x3 PUSH1 0x0 CALLER PUSH20 0xFFFFFFFFFFFFFFFFFFFFFFFFFFFFFFFFFFFFFFFF AND PUSH20 0xFFFFFFFFFFFFFFFFFFFFFFFFFFFFFFFFFFFFFFFF AND DUP2 MSTORE PUSH1 0x20 ADD SWAP1 DUP2 MSTORE PUSH1 0x20 ADD PUSH1 0x0 KECCAK256 SLOAD PUSH2 0xC9A SWAP2 SWAP1 PUSH2 0x11E0 JUMP JUMPDEST PUSH1 0x1 DUP2 SWAP1 SSTORE POP POP JUMP JUMPDEST PUSH1 0x0 PUSH1 0x64 PUSH1 0x5 PUSH1 0x3 PUSH1 0x0 CALLER PUSH20 0xFFFFFFFFFFFFFFFFFFFFFFFFFFFFFFFFFFFFFFFF AND PUSH20 0xFFFFFFFFFFFFFFFFFFFFFFFFFFFFFFFFFFFFFFFF AND DUP2 MSTORE PUSH1 0x20 ADD SWAP1 DUP2 MSTORE PUSH1 0x20 ADD PUSH1 0x0 KECCAK256 SLOAD PUSH2 0xCF3 SWAP2 SWAP1 PUSH2 0x1186 JUMP JUMPDEST PUSH2 0xCFD SWAP2 SWAP1 PUSH2 0x1155 JUMP JUMPDEST SWAP1 POP DUP1 PUSH1 0x3 PUSH1 0x0 CALLER PUSH20 0xFFFFFFFFFFFFFFFFFFFFFFFFFFFFFFFFFFFFFFFF AND PUSH20 0xFFFFFFFFFFFFFFFFFFFFFFFFFFFFFFFFFFFFFFFF AND DUP2 MSTORE PUSH1 0x20 ADD SWAP1 DUP2 MSTORE PUSH1 0x20 ADD PUSH1 0x0 KECCAK256 SLOAD PUSH2 0xD4A SWAP2 SWAP1 PUSH2 0x10FF JUMP JUMPDEST PUSH1 0x1 DUP2 SWAP1 SSTORE POP POP JUMP JUMPDEST PUSH1 0x2 DUP2 DUP2 SLOAD DUP2 LT PUSH2 0xD63 JUMPI PUSH1 0x0 DUP1 REVERT JUMPDEST SWAP1 PUSH1 0x0 MSTORE PUSH1 0x20 PUSH1 0x0 KECCAK256 ADD PUSH1 0x0 SWAP2 POP SLOAD SWAP1 PUSH2 0x100 EXP SWAP1 DIV PUSH20 0xFFFFFFFFFFFFFFFFFFFFFFFFFFFFFFFFFFFFFFFF AND DUP2 JUMP JUMPDEST PUSH1 0x0 DUP2 CALLDATALOAD SWAP1 POP PUSH2 0xDA1 DUP2 PUSH2 0x14CB JUMP JUMPDEST SWAP3 SWAP2 POP POP JUMP JUMPDEST PUSH1 0x0 DUP2 CALLDATALOAD SWAP1 POP PUSH2 0xDB6 DUP2 PUSH2 0x14E2 JUMP JUMPDEST SWAP3 SWAP2 POP POP JUMP JUMPDEST PUSH1 0x0 DUP2 CALLDATALOAD SWAP1 POP PUSH2 0xDCB DUP2 PUSH2 0x14F9 JUMP JUMPDEST SWAP3 SWAP2 POP POP JUMP JUMPDEST PUSH1 0x0 PUSH1 0x20 DUP3 DUP5 SUB SLT ISZERO PUSH2 0xDE7 JUMPI PUSH2 0xDE6 PUSH2 0x1332 JUMP JUMPDEST JUMPDEST PUSH1 0x0 PUSH2 0xDF5 DUP5 DUP3 DUP6 ADD PUSH2 0xD92 JUMP JUMPDEST SWAP2 POP POP SWAP3 SWAP2 POP POP JUMP JUMPDEST PUSH1 0x0 PUSH1 0x20 DUP3 DUP5 SUB SLT ISZERO PUSH2 0xE14 JUMPI PUSH2 0xE13 PUSH2 0x1332 JUMP JUMPDEST JUMPDEST PUSH1 0x0 PUSH2 0xE22 DUP5 DUP3 DUP6 ADD PUSH2 0xDA7 JUMP JUMPDEST SWAP2 POP POP SWAP3 SWAP2 POP POP JUMP JUMPDEST PUSH1 0x0 PUSH1 0x20 DUP3 DUP5 SUB SLT ISZERO PUSH2 0xE41 JUMPI PUSH2 0xE40 PUSH2 0x1332 JUMP JUMPDEST JUMPDEST PUSH1 0x0 PUSH2 0xE4F DUP5 DUP3 DUP6 ADD PUSH2 0xDBC JUMP JUMPDEST SWAP2 POP POP SWAP3 SWAP2 POP POP JUMP JUMPDEST PUSH2 0xE61 DUP2 PUSH2 0x1214 JUMP JUMPDEST DUP3 MSTORE POP POP JUMP JUMPDEST PUSH2 0xE70 DUP2 PUSH2 0x1226 JUMP JUMPDEST DUP3 MSTORE POP POP JUMP JUMPDEST PUSH1 0x0 PUSH2 0xE83 PUSH1 0x11 DUP4 PUSH2 0x10EE JUMP JUMPDEST SWAP2 POP PUSH2 0xE8E DUP3 PUSH2 0x1337 JUMP JUMPDEST PUSH1 0x20 DUP3 ADD SWAP1 POP SWAP2 SWAP1 POP JUMP JUMPDEST PUSH1 0x0 PUSH2 0xEA6 PUSH1 0x18 DUP4 PUSH2 0x10EE JUMP JUMPDEST SWAP2 POP PUSH2 0xEB1 DUP3 PUSH2 0x1360 JUMP JUMPDEST PUSH1 0x20 DUP3 ADD SWAP1 POP SWAP2 SWAP1 POP JUMP JUMPDEST PUSH1 0x0 PUSH2 0xEC9 PUSH1 0x15 DUP4 PUSH2 0x10EE JUMP JUMPDEST SWAP2 POP PUSH2 0xED4 DUP3 PUSH2 0x1389 JUMP JUMPDEST PUSH1 0x20 DUP3 ADD SWAP1 POP SWAP2 SWAP1 POP JUMP JUMPDEST PUSH1 0x0 PUSH2 0xEEC PUSH1 0x21 DUP4 PUSH2 0x10EE JUMP JUMPDEST SWAP2 POP PUSH2 0xEF7 DUP3 PUSH2 0x13B2 JUMP JUMPDEST PUSH1 0x40 DUP3 ADD SWAP1 POP SWAP2 SWAP1 POP JUMP JUMPDEST PUSH1 0x0 PUSH2 0xF0F PUSH1 0xD DUP4 PUSH2 0x10EE JUMP JUMPDEST SWAP2 POP PUSH2 0xF1A DUP3 PUSH2 0x1401 JUMP JUMPDEST PUSH1 0x20 DUP3 ADD SWAP1 POP SWAP2 SWAP1 POP JUMP JUMPDEST PUSH1 0x0 PUSH2 0xF32 PUSH1 0x1D DUP4 PUSH2 0x10EE JUMP JUMPDEST SWAP2 POP PUSH2 0xF3D DUP3 PUSH2 0x142A JUMP JUMPDEST PUSH1 0x20 DUP3 ADD SWAP1 POP SWAP2 SWAP1 POP JUMP JUMPDEST PUSH1 0x0 PUSH2 0xF55 PUSH1 0xF DUP4 PUSH2 0x10EE JUMP JUMPDEST SWAP2 POP PUSH2 0xF60 DUP3 PUSH2 0x1453 JUMP JUMPDEST PUSH1 0x20 DUP3 ADD SWAP1 POP SWAP2 SWAP1 POP JUMP JUMPDEST PUSH1 0x0 PUSH2 0xF78 PUSH1 0x25 DUP4 PUSH2 0x10EE JUMP JUMPDEST SWAP2 POP PUSH2 0xF83 DUP3 PUSH2 0x147C JUMP JUMPDEST PUSH1 0x40 DUP3 ADD SWAP1 POP SWAP2 SWAP1 POP JUMP JUMPDEST PUSH2 0xF97 DUP2 PUSH2 0x1252 JUMP JUMPDEST DUP3 MSTORE POP POP JUMP JUMPDEST PUSH1 0x0 PUSH1 0x20 DUP3 ADD SWAP1 POP PUSH2 0xFB2 PUSH1 0x0 DUP4 ADD DUP5 PUSH2 0xE58 JUMP JUMPDEST SWAP3 SWAP2 POP POP JUMP JUMPDEST PUSH1 0x0 PUSH1 0x20 DUP3 ADD SWAP1 POP PUSH2 0xFCD PUSH1 0x0 DUP4 ADD DUP5 PUSH2 0xE67 JUMP JUMPDEST SWAP3 SWAP2 POP POP JUMP JUMPDEST PUSH1 0x0 PUSH1 0x20 DUP3 ADD SWAP1 POP DUP2 DUP2 SUB PUSH1 0x0 DUP4 ADD MSTORE PUSH2 0xFEC DUP2 PUSH2 0xE76 JUMP JUMPDEST SWAP1 POP SWAP2 SWAP1 POP JUMP JUMPDEST PUSH1 0x0 PUSH1 0x20 DUP3 ADD SWAP1 POP DUP2 DUP2 SUB PUSH1 0x0 DUP4 ADD MSTORE PUSH2 0x100C DUP2 PUSH2 0xE99 JUMP JUMPDEST SWAP1 POP SWAP2 SWAP1 POP JUMP JUMPDEST PUSH1 0x0 PUSH1 0x20 DUP3 ADD SWAP1 POP DUP2 DUP2 SUB PUSH1 0x0 DUP4 ADD MSTORE PUSH2 0x102C DUP2 PUSH2 0xEBC JUMP JUMPDEST SWAP1 POP SWAP2 SWAP1 POP JUMP JUMPDEST PUSH1 0x0 PUSH1 0x20 DUP3 ADD SWAP1 POP DUP2 DUP2 SUB PUSH1 0x0 DUP4 ADD MSTORE PUSH2 0x104C DUP2 PUSH2 0xEDF JUMP JUMPDEST SWAP1 POP SWAP2 SWAP1 POP JUMP JUMPDEST PUSH1 0x0 PUSH1 0x20 DUP3 ADD SWAP1 POP DUP2 DUP2 SUB PUSH1 0x0 DUP4 ADD MSTORE PUSH2 0x106C DUP2 PUSH2 0xF02 JUMP JUMPDEST SWAP1 POP SWAP2 SWAP1 POP JUMP JUMPDEST PUSH1 0x0 PUSH1 0x20 DUP3 ADD SWAP1 POP DUP2 DUP2 SUB PUSH1 0x0 DUP4 ADD MSTORE PUSH2 0x108C DUP2 PUSH2 0xF25 JUMP JUMPDEST SWAP1 POP SWAP2 SWAP1 POP JUMP JUMPDEST PUSH1 0x0 PUSH1 0x20 DUP3 ADD SWAP1 POP DUP2 DUP2 SUB PUSH1 0x0 DUP4 ADD MSTORE PUSH2 0x10AC DUP2 PUSH2 0xF48 JUMP JUMPDEST SWAP1 POP SWAP2 SWAP1 POP JUMP JUMPDEST PUSH1 0x0 PUSH1 0x20 DUP3 ADD SWAP1 POP DUP2 DUP2 SUB PUSH1 0x0 DUP4 ADD MSTORE PUSH2 0x10CC DUP2 PUSH2 0xF6B JUMP JUMPDEST SWAP1 POP SWAP2 SWAP1 POP JUMP JUMPDEST PUSH1 0x0 PUSH1 0x20 DUP3 ADD SWAP1 POP PUSH2 0x10E8 PUSH1 0x0 DUP4 ADD DUP5 PUSH2 0xF8E JUMP JUMPDEST SWAP3 SWAP2 POP POP JUMP JUMPDEST PUSH1 0x0 DUP3 DUP3 MSTORE PUSH1 0x20 DUP3 ADD SWAP1 POP SWAP3 SWAP2 POP POP JUMP JUMPDEST PUSH1 0x0 PUSH2 0x110A DUP3 PUSH2 0x1252 JUMP JUMPDEST SWAP2 POP PUSH2 0x1115 DUP4 PUSH2 0x1252 JUMP JUMPDEST SWAP3 POP DUP3 PUSH32 0xFFFFFFFFFFFFFFFFFFFFFFFFFFFFFFFFFFFFFFFFFFFFFFFFFFFFFFFFFFFFFFFF SUB DUP3 GT ISZERO PUSH2 0x114A JUMPI PUSH2 0x1149 PUSH2 0x12A5 JUMP JUMPDEST JUMPDEST DUP3 DUP3 ADD SWAP1 POP SWAP3 SWAP2 POP POP JUMP JUMPDEST PUSH1 0x0 PUSH2 0x1160 DUP3 PUSH2 0x1252 JUMP JUMPDEST SWAP2 POP PUSH2 0x116B DUP4 PUSH2 0x1252 JUMP JUMPDEST SWAP3 POP DUP3 PUSH2 0x117B JUMPI PUSH2 0x117A PUSH2 0x12D4 JUMP JUMPDEST JUMPDEST DUP3 DUP3 DIV SWAP1 POP SWAP3 SWAP2 POP POP JUMP JUMPDEST PUSH1 0x0 PUSH2 0x1191 DUP3 PUSH2 0x1252 JUMP JUMPDEST SWAP2 POP PUSH2 0x119C DUP4 PUSH2 0x1252 JUMP JUMPDEST SWAP3 POP DUP2 PUSH32 0xFFFFFFFFFFFFFFFFFFFFFFFFFFFFFFFFFFFFFFFFFFFFFFFFFFFFFFFFFFFFFFFF DIV DUP4 GT DUP3 ISZERO ISZERO AND ISZERO PUSH2 0x11D5 JUMPI PUSH2 0x11D4 PUSH2 0x12A5 JUMP JUMPDEST JUMPDEST DUP3 DUP3 MUL SWAP1 POP SWAP3 SWAP2 POP POP JUMP JUMPDEST PUSH1 0x0 PUSH2 0x11EB DUP3 PUSH2 0x1252 JUMP JUMPDEST SWAP2 POP PUSH2 0x11F6 DUP4 PUSH2 0x1252 JUMP JUMPDEST SWAP3 POP DUP3 DUP3 LT ISZERO PUSH2 0x1209 JUMPI PUSH2 0x1208 PUSH2 0x12A5 JUMP JUMPDEST JUMPDEST DUP3 DUP3 SUB SWAP1 POP SWAP3 SWAP2 POP POP JUMP JUMPDEST PUSH1 0x0 PUSH2 0x121F DUP3 PUSH2 0x1232 JUMP JUMPDEST SWAP1 POP SWAP2 SWAP1 POP JUMP JUMPDEST PUSH1 0x0 DUP2 ISZERO ISZERO SWAP1 POP SWAP2 SWAP1 POP JUMP JUMPDEST PUSH1 0x0 PUSH20 0xFFFFFFFFFFFFFFFFFFFFFFFFFFFFFFFFFFFFFFFF DUP3 AND SWAP1 POP SWAP2 SWAP1 POP JUMP JUMPDEST PUSH1 0x0 DUP2 SWAP1 POP SWAP2 SWAP1 POP JUMP JUMPDEST PUSH1 0x0 PUSH2 0x1267 DUP3 PUSH2 0x1252 JUMP JUMPDEST SWAP2 POP PUSH32 0xFFFFFFFFFFFFFFFFFFFFFFFFFFFFFFFFFFFFFFFFFFFFFFFFFFFFFFFFFFFFFFFF DUP3 EQ ISZERO PUSH2 0x129A JUMPI PUSH2 0x1299 PUSH2 0x12A5 JUMP JUMPDEST JUMPDEST PUSH1 0x1 DUP3 ADD SWAP1 POP SWAP2 SWAP1 POP JUMP JUMPDEST PUSH32 0x4E487B7100000000000000000000000000000000000000000000000000000000 PUSH1 0x0 MSTORE PUSH1 0x11 PUSH1 0x4 MSTORE PUSH1 0x24 PUSH1 0x0 REVERT JUMPDEST PUSH32 0x4E487B7100000000000000000000000000000000000000000000000000000000 PUSH1 0x0 MSTORE PUSH1 0x12 PUSH1 0x4 MSTORE PUSH1 0x24 PUSH1 0x0 REVERT JUMPDEST PUSH32 0x4E487B7100000000000000000000000000000000000000000000000000000000 PUSH1 0x0 MSTORE PUSH1 0x32 PUSH1 0x4 MSTORE PUSH1 0x24 PUSH1 0x0 REVERT JUMPDEST PUSH1 0x0 DUP1 REVERT JUMPDEST PUSH32 0x45746865722063616E6E6F742062652030000000000000000000000000000000 PUSH1 0x0 DUP3 ADD MSTORE POP JUMP JUMPDEST PUSH32 0x63616C6C6572206D75737420626520746865206F776E65720000000000000000 PUSH1 0x0 DUP3 ADD MSTORE POP JUMP JUMPDEST PUSH32 0x596F7520617265206E6F7420746865206F776E65720000000000000000000000 PUSH1 0x0 DUP3 ADD MSTORE POP JUMP JUMPDEST PUSH32 0x4F6E6C79206F776E65722063616E2070617573652074686520636F6E74726163 PUSH1 0x0 DUP3 ADD MSTORE PUSH32 0x7400000000000000000000000000000000000000000000000000000000000000 PUSH1 0x20 DUP3 ADD MSTORE POP JUMP JUMPDEST PUSH32 0x5573657220426C6F636B65642100000000000000000000000000000000000000 PUSH1 0x0 DUP3 ADD MSTORE POP JUMP JUMPDEST PUSH32 0x4F6E6C79206F776E65722063616E20626C6F636B207468652075736572000000 PUSH1 0x0 DUP3 ADD MSTORE POP JUMP JUMPDEST PUSH32 0x436F6E7472616374205061757365640000000000000000000000000000000000 PUSH1 0x0 DUP3 ADD MSTORE POP JUMP JUMPDEST PUSH32 0x7374616B696E672042616C616E63652063616E6E6F74206265206C6573732074 PUSH1 0x0 DUP3 ADD MSTORE PUSH32 0x68616E2030000000000000000000000000000000000000000000000000000000 PUSH1 0x20 DUP3 ADD MSTORE POP JUMP JUMPDEST PUSH2 0x14D4 DUP2 PUSH2 0x1214 JUMP JUMPDEST DUP2 EQ PUSH2 0x14DF JUMPI PUSH1 0x0 DUP1 REVERT JUMPDEST POP JUMP JUMPDEST PUSH2 0x14EB DUP2 PUSH2 0x1226 JUMP JUMPDEST DUP2 EQ PUSH2 0x14F6 JUMPI PUSH1 0x0 DUP1 REVERT JUMPDEST POP JUMP JUMPDEST PUSH2 0x1502 DUP2 PUSH2 0x1252 JUMP JUMPDEST DUP2 EQ PUSH2 0x150D JUMPI PUSH1 0x0 DUP1 REVERT JUMPDEST POP JUMP INVALID LOG2 PUSH5 0x6970667358 0x22 SLT KECCAK256 SDIV DUP6 ADD DELEGATECALL 0xEB KECCAK256 PUSH5 0x283BAF3D60 0x4F LOG3 0xE6 EXTCODECOPY SAR ADDMOD 0xEF DUP7 CALLDATACOPY 0xE5 SIGNEXTEND SWAP4 0xC9 CALLDATASIZE GT 0xB9 0xFB 0x4F 0xAC 0xD0 PUSH5 0x736F6C6343 STOP ADDMOD SMOD STOP CALLER "
				},
				"gasEstimates": {
					"creation": {
						"codeDepositCost": "1089200",
						"executionCost": "25400",
						"totalCost": "1114600"
					},
					"external": {
						"blockUser()": "2545",
						"depositTax()": "infinite",
						"hasStaked(address)": "2867",
						"isStaking(address)": "2868",
						"issueRewards()": "infinite",
						"owner()": "2578",
						"pauseContract()": "4911",
						"paused()": "2610",
						"setBlockUser(bool)": "26941",
						"setPaused(bool)": "26942",
						"stakeToken()": "infinite",
						"stakers(uint256)": "5044",
						"stakingBalance(address)": "2837",
						"treasuryWallet()": "2474",
						"unstakeToken()": "82716",
						"withdrawTax()": "infinite"
					}
				},
				"methodIdentifiers": {
					"blockUser()": "021a89ad",
					"depositTax()": "f765fd8f",
					"hasStaked(address)": "c93c8f34",
					"isStaking(address)": "6f49712b",
					"issueRewards()": "b0370e0c",
					"owner()": "8da5cb5b",
					"pauseContract()": "439766ce",
					"paused()": "5c975abb",
					"setBlockUser(bool)": "75c96c5d",
					"setPaused(bool)": "16c38b3c",
					"stakeToken()": "51ed6a30",
					"stakers(uint256)": "fd5e6dd1",
					"stakingBalance(address)": "45bc78ab",
					"treasuryWallet()": "4626402b",
					"unstakeToken()": "20eb640c",
					"withdrawTax()": "dfa20f0a"
				}
			},
			"storageLayout": {
				"storage": [
					{
						"astId": 3,
						"contract": "contracts/staking.sol:App",
						"label": "owner",
						"offset": 0,
						"slot": "0",
						"type": "t_address"
					},
					{
						"astId": 5,
						"contract": "contracts/staking.sol:App",
						"label": "paused",
						"offset": 20,
						"slot": "0",
						"type": "t_bool"
					},
					{
						"astId": 7,
						"contract": "contracts/staking.sol:App",
						"label": "blockUser",
						"offset": 21,
						"slot": "0",
						"type": "t_bool"
					},
					{
						"astId": 9,
						"contract": "contracts/staking.sol:App",
						"label": "treasuryWallet",
						"offset": 0,
						"slot": "1",
						"type": "t_uint256"
					},
					{
						"astId": 12,
						"contract": "contracts/staking.sol:App",
						"label": "stakers",
						"offset": 0,
						"slot": "2",
						"type": "t_array(t_address)dyn_storage"
					},
					{
						"astId": 16,
						"contract": "contracts/staking.sol:App",
						"label": "stakingBalance",
						"offset": 0,
						"slot": "3",
						"type": "t_mapping(t_address,t_uint256)"
					},
					{
						"astId": 20,
						"contract": "contracts/staking.sol:App",
						"label": "hasStaked",
						"offset": 0,
						"slot": "4",
						"type": "t_mapping(t_address,t_bool)"
					},
					{
						"astId": 24,
						"contract": "contracts/staking.sol:App",
						"label": "isStaking",
						"offset": 0,
						"slot": "5",
						"type": "t_mapping(t_address,t_bool)"
					}
				],
				"types": {
					"t_address": {
						"encoding": "inplace",
						"label": "address",
						"numberOfBytes": "20"
					},
					"t_array(t_address)dyn_storage": {
						"base": "t_address",
						"encoding": "dynamic_array",
						"label": "address[]",
						"numberOfBytes": "32"
					},
					"t_bool": {
						"encoding": "inplace",
						"label": "bool",
						"numberOfBytes": "1"
					},
					"t_mapping(t_address,t_bool)": {
						"encoding": "mapping",
						"key": "t_address",
						"label": "mapping(address => bool)",
						"numberOfBytes": "32",
						"value": "t_bool"
					},
					"t_mapping(t_address,t_uint256)": {
						"encoding": "mapping",
						"key": "t_address",
						"label": "mapping(address => uint256)",
						"numberOfBytes": "32",
						"value": "t_uint256"
					},
					"t_uint256": {
						"encoding": "inplace",
						"label": "uint256",
						"numberOfBytes": "32"
					}
				}
			},
			"userdoc": {
				"kind": "user",
				"methods": {},
				"version": 1
			}
		}
	}
}