{
	"contracts/staking.sol": {
		"App": {
			"abi": [
				{
					"inputs": [],
					"stateMutability": "nonpayable",
					"type": "constructor"
				},
				{
					"inputs": [],
					"name": "blockUser",
					"outputs": [
						{
							"internalType": "bool",
							"name": "",
							"type": "bool"
						}
					],
					"stateMutability": "view",
					"type": "function"
				},
				{
					"inputs": [],
					"name": "creationTime",
					"outputs": [
						{
							"internalType": "uint256",
							"name": "",
							"type": "uint256"
						}
					],
					"stateMutability": "view",
					"type": "function"
				},
				{
					"inputs": [],
					"name": "depositTax",
					"outputs": [],
					"stateMutability": "nonpayable",
					"type": "function"
				},
				{
					"inputs": [
						{
							"internalType": "address",
							"name": "",
							"type": "address"
						}
					],
					"name": "hasStaked",
					"outputs": [
						{
							"internalType": "bool",
							"name": "",
							"type": "bool"
						}
					],
					"stateMutability": "view",
					"type": "function"
				},
				{
					"inputs": [
						{
							"internalType": "address",
							"name": "",
							"type": "address"
						}
					],
					"name": "isStaking",
					"outputs": [
						{
							"internalType": "bool",
							"name": "",
							"type": "bool"
						}
					],
					"stateMutability": "view",
					"type": "function"
				},
				{
					"inputs": [],
					"name": "issueRewards",
					"outputs": [
						{
							"internalType": "uint256",
							"name": "",
							"type": "uint256"
						}
					],
					"stateMutability": "view",
					"type": "function"
				},
				{
					"inputs": [],
					"name": "owner",
					"outputs": [
						{
							"internalType": "address",
							"name": "",
							"type": "address"
						}
					],
					"stateMutability": "view",
					"type": "function"
				},
				{
					"inputs": [],
					"name": "pauseContract",
					"outputs": [],
					"stateMutability": "view",
					"type": "function"
				},
				{
					"inputs": [],
					"name": "paused",
					"outputs": [
						{
							"internalType": "bool",
							"name": "",
							"type": "bool"
						}
					],
					"stateMutability": "view",
					"type": "function"
				},
				{
					"inputs": [
						{
							"internalType": "bool",
							"name": "_blockUser",
							"type": "bool"
						}
					],
					"name": "setBlockUser",
					"outputs": [],
					"stateMutability": "nonpayable",
					"type": "function"
				},
				{
					"inputs": [
						{
							"internalType": "bool",
							"name": "_paused",
							"type": "bool"
						}
					],
					"name": "setPaused",
					"outputs": [],
					"stateMutability": "nonpayable",
					"type": "function"
				},
				{
					"inputs": [],
					"name": "stakeToken",
					"outputs": [],
					"stateMutability": "payable",
					"type": "function"
				},
				{
					"inputs": [
						{
							"internalType": "uint256",
							"name": "",
							"type": "uint256"
						}
					],
					"name": "stakers",
					"outputs": [
						{
							"internalType": "address",
							"name": "",
							"type": "address"
						}
					],
					"stateMutability": "view",
					"type": "function"
				},
				{
					"inputs": [
						{
							"internalType": "address",
							"name": "",
							"type": "address"
						}
					],
					"name": "stakingBalance",
					"outputs": [
						{
							"internalType": "uint256",
							"name": "",
							"type": "uint256"
						}
					],
					"stateMutability": "view",
					"type": "function"
				},
				{
					"inputs": [],
					"name": "treasuryWallet",
					"outputs": [
						{
							"internalType": "uint256",
							"name": "",
							"type": "uint256"
						}
					],
					"stateMutability": "view",
					"type": "function"
				},
				{
					"inputs": [],
					"name": "unstakeToken",
					"outputs": [],
					"stateMutability": "nonpayable",
					"type": "function"
				},
				{
					"inputs": [],
					"name": "withdrawTax",
					"outputs": [],
					"stateMutability": "nonpayable",
					"type": "function"
				}
			],
			"devdoc": {
				"kind": "dev",
				"methods": {},
				"version": 1
			},
			"evm": {
				"assembly": "    /* \"contracts/staking.sol\":68:2822  contract App{\r... */\n  mstore(0x40, 0x80)\n    /* \"contracts/staking.sol\":227:242  block.timestamp */\n  timestamp\n    /* \"contracts/staking.sol\":200:242  uint public creationTime = block.timestamp */\n  0x02\n  sstore\n    /* \"contracts/staking.sol\":435:492  constructor() public{\r... */\n  callvalue\n  dup1\n  iszero\n  tag_1\n  jumpi\n  0x00\n  dup1\n  revert\ntag_1:\n  pop\n    /* \"contracts/staking.sol\":474:484  msg.sender */\n  caller\n    /* \"contracts/staking.sol\":466:471  owner */\n  0x00\n  dup1\n    /* \"contracts/staking.sol\":466:484  owner = msg.sender */\n  0x0100\n  exp\n  dup2\n  sload\n  dup2\n  0xffffffffffffffffffffffffffffffffffffffff\n  mul\n  not\n  and\n  swap1\n  dup4\n  0xffffffffffffffffffffffffffffffffffffffff\n  and\n  mul\n  or\n  swap1\n  sstore\n  pop\n    /* \"contracts/staking.sol\":68:2822  contract App{\r... */\n  dataSize(sub_0)\n  dup1\n  dataOffset(sub_0)\n  0x00\n  codecopy\n  0x00\n  return\nstop\n\nsub_0: assembly {\n        /* \"contracts/staking.sol\":68:2822  contract App{\r... */\n      mstore(0x40, 0x80)\n      jumpi(tag_1, lt(calldatasize, 0x04))\n      shr(0xe0, calldataload(0x00))\n      dup1\n      0x6f49712b\n      gt\n      tag_19\n      jumpi\n      dup1\n      0xc93c8f34\n      gt\n      tag_20\n      jumpi\n      dup1\n      0xc93c8f34\n      eq\n      tag_14\n      jumpi\n      dup1\n      0xd8270dce\n      eq\n      tag_15\n      jumpi\n      dup1\n      0xdfa20f0a\n      eq\n      tag_16\n      jumpi\n      dup1\n      0xf765fd8f\n      eq\n      tag_17\n      jumpi\n      dup1\n      0xfd5e6dd1\n      eq\n      tag_18\n      jumpi\n      jump(tag_1)\n    tag_20:\n      dup1\n      0x6f49712b\n      eq\n      tag_10\n      jumpi\n      dup1\n      0x75c96c5d\n      eq\n      tag_11\n      jumpi\n      dup1\n      0x8da5cb5b\n      eq\n      tag_12\n      jumpi\n      dup1\n      0xb0370e0c\n      eq\n      tag_13\n      jumpi\n      jump(tag_1)\n    tag_19:\n      dup1\n      0x45bc78ab\n      gt\n      tag_21\n      jumpi\n      dup1\n      0x45bc78ab\n      eq\n      tag_6\n      jumpi\n      dup1\n      0x4626402b\n      eq\n      tag_7\n      jumpi\n      dup1\n      0x51ed6a30\n      eq\n      tag_8\n      jumpi\n      dup1\n      0x5c975abb\n      eq\n      tag_9\n      jumpi\n      jump(tag_1)\n    tag_21:\n      dup1\n      0x021a89ad\n      eq\n      tag_2\n      jumpi\n      dup1\n      0x16c38b3c\n      eq\n      tag_3\n      jumpi\n      dup1\n      0x20eb640c\n      eq\n      tag_4\n      jumpi\n      dup1\n      0x439766ce\n      eq\n      tag_5\n      jumpi\n    tag_1:\n      0x00\n      dup1\n      revert\n        /* \"contracts/staking.sol\":139:160  bool public blockUser */\n    tag_2:\n      callvalue\n      dup1\n      iszero\n      tag_22\n      jumpi\n      0x00\n      dup1\n      revert\n    tag_22:\n      pop\n      tag_23\n      tag_24\n      jump\t// in\n    tag_23:\n      mload(0x40)\n      tag_25\n      swap2\n      swap1\n      tag_26\n      jump\t// in\n    tag_25:\n      mload(0x40)\n      dup1\n      swap2\n      sub\n      swap1\n      return\n        /* \"contracts/staking.sol\":1929:2068  function setPaused(bool _paused) public {\r... */\n    tag_3:\n      callvalue\n      dup1\n      iszero\n      tag_27\n      jumpi\n      0x00\n      dup1\n      revert\n    tag_27:\n      pop\n      tag_28\n      0x04\n      dup1\n      calldatasize\n      sub\n      dup2\n      add\n      swap1\n      tag_29\n      swap2\n      swap1\n      tag_30\n      jump\t// in\n    tag_29:\n      tag_31\n      jump\t// in\n    tag_28:\n      stop\n        /* \"contracts/staking.sol\":1087:1443  function unstakeToken() public{\r... */\n    tag_4:\n      callvalue\n      dup1\n      iszero\n      tag_32\n      jumpi\n      0x00\n      dup1\n      revert\n    tag_32:\n      pop\n      tag_33\n      tag_34\n      jump\t// in\n    tag_33:\n      stop\n        /* \"contracts/staking.sol\":2076:2260  function pauseContract() public view{\r... */\n    tag_5:\n      callvalue\n      dup1\n      iszero\n      tag_35\n      jumpi\n      0x00\n      dup1\n      revert\n    tag_35:\n      pop\n      tag_36\n      tag_37\n      jump\t// in\n    tag_36:\n      stop\n        /* \"contracts/staking.sol\":284:330  mapping(address => uint) public stakingBalance */\n    tag_6:\n      callvalue\n      dup1\n      iszero\n      tag_38\n      jumpi\n      0x00\n      dup1\n      revert\n    tag_38:\n      pop\n      tag_39\n      0x04\n      dup1\n      calldatasize\n      sub\n      dup2\n      add\n      swap1\n      tag_40\n      swap2\n      swap1\n      tag_41\n      jump\t// in\n    tag_40:\n      tag_42\n      jump\t// in\n    tag_39:\n      mload(0x40)\n      tag_43\n      swap2\n      swap1\n      tag_44\n      jump\t// in\n    tag_43:\n      mload(0x40)\n      dup1\n      swap2\n      sub\n      swap1\n      return\n        /* \"contracts/staking.sol\":167:193  uint public treasuryWallet */\n    tag_7:\n      callvalue\n      dup1\n      iszero\n      tag_45\n      jumpi\n      0x00\n      dup1\n      revert\n    tag_45:\n      pop\n      tag_46\n      tag_47\n      jump\t// in\n    tag_46:\n      mload(0x40)\n      tag_48\n      swap2\n      swap1\n      tag_44\n      jump\t// in\n    tag_48:\n      mload(0x40)\n      dup1\n      swap2\n      sub\n      swap1\n      return\n        /* \"contracts/staking.sol\":666:1055  function stakeToken() payable public {\r... */\n    tag_8:\n      tag_49\n      tag_50\n      jump\t// in\n    tag_49:\n      stop\n        /* \"contracts/staking.sol\":114:132  bool public paused */\n    tag_9:\n      callvalue\n      dup1\n      iszero\n      tag_51\n      jumpi\n      0x00\n      dup1\n      revert\n    tag_51:\n      pop\n      tag_52\n      tag_53\n      jump\t// in\n    tag_52:\n      mload(0x40)\n      tag_54\n      swap2\n      swap1\n      tag_26\n      jump\t// in\n    tag_54:\n      mload(0x40)\n      dup1\n      swap2\n      sub\n      swap1\n      return\n        /* \"contracts/staking.sol\":385:426  mapping(address => bool) public isStaking */\n    tag_10:\n      callvalue\n      dup1\n      iszero\n      tag_55\n      jumpi\n      0x00\n      dup1\n      revert\n    tag_55:\n      pop\n      tag_56\n      0x04\n      dup1\n      calldatasize\n      sub\n      dup2\n      add\n      swap1\n      tag_57\n      swap2\n      swap1\n      tag_41\n      jump\t// in\n    tag_57:\n      tag_58\n      jump\t// in\n    tag_56:\n      mload(0x40)\n      tag_59\n      swap2\n      swap1\n      tag_26\n      jump\t// in\n    tag_59:\n      mload(0x40)\n      dup1\n      swap2\n      sub\n      swap1\n      return\n        /* \"contracts/staking.sol\":2657:2816  function setBlockUser(bool _blockUser) public {\r... */\n    tag_11:\n      callvalue\n      dup1\n      iszero\n      tag_60\n      jumpi\n      0x00\n      dup1\n      revert\n    tag_60:\n      pop\n      tag_61\n      0x04\n      dup1\n      calldatasize\n      sub\n      dup2\n      add\n      swap1\n      tag_62\n      swap2\n      swap1\n      tag_30\n      jump\t// in\n    tag_62:\n      tag_63\n      jump\t// in\n    tag_61:\n      stop\n        /* \"contracts/staking.sol\":87:107  address public owner */\n    tag_12:\n      callvalue\n      dup1\n      iszero\n      tag_64\n      jumpi\n      0x00\n      dup1\n      revert\n    tag_64:\n      pop\n      tag_65\n      tag_66\n      jump\t// in\n    tag_65:\n      mload(0x40)\n      tag_67\n      swap2\n      swap1\n      tag_68\n      jump\t// in\n    tag_67:\n      mload(0x40)\n      dup1\n      swap2\n      sub\n      swap1\n      return\n        /* \"contracts/staking.sol\":1477:1898  function issueRewards() onlyAfter(creationTime + 24 hours) public view returns(uint){\r... */\n    tag_13:\n      callvalue\n      dup1\n      iszero\n      tag_69\n      jumpi\n      0x00\n      dup1\n      revert\n    tag_69:\n      pop\n      tag_70\n      tag_71\n      jump\t// in\n    tag_70:\n      mload(0x40)\n      tag_72\n      swap2\n      swap1\n      tag_44\n      jump\t// in\n    tag_72:\n      mload(0x40)\n      dup1\n      swap2\n      sub\n      swap1\n      return\n        /* \"contracts/staking.sol\":337:378  mapping(address => bool) public hasStaked */\n    tag_14:\n      callvalue\n      dup1\n      iszero\n      tag_73\n      jumpi\n      0x00\n      dup1\n      revert\n    tag_73:\n      pop\n      tag_74\n      0x04\n      dup1\n      calldatasize\n      sub\n      dup2\n      add\n      swap1\n      tag_75\n      swap2\n      swap1\n      tag_41\n      jump\t// in\n    tag_75:\n      tag_76\n      jump\t// in\n    tag_74:\n      mload(0x40)\n      tag_77\n      swap2\n      swap1\n      tag_26\n      jump\t// in\n    tag_77:\n      mload(0x40)\n      dup1\n      swap2\n      sub\n      swap1\n      return\n        /* \"contracts/staking.sol\":200:242  uint public creationTime = block.timestamp */\n    tag_15:\n      callvalue\n      dup1\n      iszero\n      tag_78\n      jumpi\n      0x00\n      dup1\n      revert\n    tag_78:\n      pop\n      tag_79\n      tag_80\n      jump\t// in\n    tag_79:\n      mload(0x40)\n      tag_81\n      swap2\n      swap1\n      tag_44\n      jump\t// in\n    tag_81:\n      mload(0x40)\n      dup1\n      swap2\n      sub\n      swap1\n      return\n        /* \"contracts/staking.sol\":2463:2618  function withdrawTax() public{\r... */\n    tag_16:\n      callvalue\n      dup1\n      iszero\n      tag_82\n      jumpi\n      0x00\n      dup1\n      revert\n    tag_82:\n      pop\n      tag_83\n      tag_84\n      jump\t// in\n    tag_83:\n      stop\n        /* \"contracts/staking.sol\":2301:2455  function depositTax() public{\r... */\n    tag_17:\n      callvalue\n      dup1\n      iszero\n      tag_85\n      jumpi\n      0x00\n      dup1\n      revert\n    tag_85:\n      pop\n      tag_86\n      tag_87\n      jump\t// in\n    tag_86:\n      stop\n        /* \"contracts/staking.sol\":251:275  address[] public stakers */\n    tag_18:\n      callvalue\n      dup1\n      iszero\n      tag_88\n      jumpi\n      0x00\n      dup1\n      revert\n    tag_88:\n      pop\n      tag_89\n      0x04\n      dup1\n      calldatasize\n      sub\n      dup2\n      add\n      swap1\n      tag_90\n      swap2\n      swap1\n      tag_91\n      jump\t// in\n    tag_90:\n      tag_92\n      jump\t// in\n    tag_89:\n      mload(0x40)\n      tag_93\n      swap2\n      swap1\n      tag_68\n      jump\t// in\n    tag_93:\n      mload(0x40)\n      dup1\n      swap2\n      sub\n      swap1\n      return\n        /* \"contracts/staking.sol\":139:160  bool public blockUser */\n    tag_24:\n      0x00\n      0x15\n      swap1\n      sload\n      swap1\n      0x0100\n      exp\n      swap1\n      div\n      0xff\n      and\n      dup2\n      jump\t// out\n        /* \"contracts/staking.sol\":1929:2068  function setPaused(bool _paused) public {\r... */\n    tag_31:\n        /* \"contracts/staking.sol\":2002:2007  owner */\n      0x00\n      dup1\n      sload\n      swap1\n      0x0100\n      exp\n      swap1\n      div\n      0xffffffffffffffffffffffffffffffffffffffff\n      and\n        /* \"contracts/staking.sol\":1988:2007  msg.sender == owner */\n      0xffffffffffffffffffffffffffffffffffffffff\n      and\n        /* \"contracts/staking.sol\":1988:1998  msg.sender */\n      caller\n        /* \"contracts/staking.sol\":1988:2007  msg.sender == owner */\n      0xffffffffffffffffffffffffffffffffffffffff\n      and\n      eq\n        /* \"contracts/staking.sol\":1980:2033  require(msg.sender == owner, \"You are not the owner\") */\n      tag_95\n      jumpi\n      mload(0x40)\n      0x08c379a000000000000000000000000000000000000000000000000000000000\n      dup2\n      mstore\n      0x04\n      add\n      tag_96\n      swap1\n      tag_97\n      jump\t// in\n    tag_96:\n      mload(0x40)\n      dup1\n      swap2\n      sub\n      swap1\n      revert\n    tag_95:\n        /* \"contracts/staking.sol\":2053:2060  _paused */\n      dup1\n        /* \"contracts/staking.sol\":2044:2050  paused */\n      0x00\n      0x14\n        /* \"contracts/staking.sol\":2044:2060  paused = _paused */\n      0x0100\n      exp\n      dup2\n      sload\n      dup2\n      0xff\n      mul\n      not\n      and\n      swap1\n      dup4\n      iszero\n      iszero\n      mul\n      or\n      swap1\n      sstore\n      pop\n        /* \"contracts/staking.sol\":1929:2068  function setPaused(bool _paused) public {\r... */\n      pop\n      jump\t// out\n        /* \"contracts/staking.sol\":1087:1443  function unstakeToken() public{\r... */\n    tag_34:\n        /* \"contracts/staking.sol\":1138:1150  uint balance */\n      0x00\n        /* \"contracts/staking.sol\":1153:1167  stakingBalance */\n      0x04\n        /* \"contracts/staking.sol\":1153:1179  stakingBalance[msg.sender] */\n      0x00\n        /* \"contracts/staking.sol\":1168:1178  msg.sender */\n      caller\n        /* \"contracts/staking.sol\":1153:1179  stakingBalance[msg.sender] */\n      0xffffffffffffffffffffffffffffffffffffffff\n      and\n      0xffffffffffffffffffffffffffffffffffffffff\n      and\n      dup2\n      mstore\n      0x20\n      add\n      swap1\n      dup2\n      mstore\n      0x20\n      add\n      0x00\n      keccak256\n      sload\n        /* \"contracts/staking.sol\":1138:1179  uint balance = stakingBalance[msg.sender] */\n      swap1\n      pop\n        /* \"contracts/staking.sol\":1208:1209  0 */\n      0x00\n        /* \"contracts/staking.sol\":1198:1205  balance */\n      dup2\n        /* \"contracts/staking.sol\":1198:1209  balance > 0 */\n      gt\n        /* \"contracts/staking.sol\":1190:1251  require(balance > 0, \"staking Balance cannot be less than 0\") */\n      tag_99\n      jumpi\n      mload(0x40)\n      0x08c379a000000000000000000000000000000000000000000000000000000000\n      dup2\n      mstore\n      0x04\n      add\n      tag_100\n      swap1\n      tag_101\n      jump\t// in\n    tag_100:\n      mload(0x40)\n      dup1\n      swap2\n      sub\n      swap1\n      revert\n    tag_99:\n        /* \"contracts/staking.sol\":1293:1294  0 */\n      0x00\n        /* \"contracts/staking.sol\":1264:1278  stakingBalance */\n      0x04\n        /* \"contracts/staking.sol\":1264:1290  stakingBalance[msg.sender] */\n      0x00\n        /* \"contracts/staking.sol\":1279:1289  msg.sender */\n      caller\n        /* \"contracts/staking.sol\":1264:1290  stakingBalance[msg.sender] */\n      0xffffffffffffffffffffffffffffffffffffffff\n      and\n      0xffffffffffffffffffffffffffffffffffffffff\n      and\n      dup2\n      mstore\n      0x20\n      add\n      swap1\n      dup2\n      mstore\n      0x20\n      add\n      0x00\n      keccak256\n        /* \"contracts/staking.sol\":1264:1294  stakingBalance[msg.sender] = 0 */\n      dup2\n      swap1\n      sstore\n      pop\n        /* \"contracts/staking.sol\":1319:1328  hasStaked */\n      0x05\n        /* \"contracts/staking.sol\":1319:1340  hasStaked[msg.sender] */\n      0x00\n        /* \"contracts/staking.sol\":1329:1339  msg.sender */\n      caller\n        /* \"contracts/staking.sol\":1319:1340  hasStaked[msg.sender] */\n      0xffffffffffffffffffffffffffffffffffffffff\n      and\n      0xffffffffffffffffffffffffffffffffffffffff\n      and\n      dup2\n      mstore\n      0x20\n      add\n      swap1\n      dup2\n      mstore\n      0x20\n      add\n      0x00\n      keccak256\n      0x00\n      swap1\n      sload\n      swap1\n      0x0100\n      exp\n      swap1\n      div\n      0xff\n      and\n        /* \"contracts/staking.sol\":1315:1392  if(!hasStaked[msg.sender]){\r... */\n      tag_102\n      jumpi\n        /* \"contracts/staking.sol\":1356:1363  stakers */\n      0x03\n        /* \"contracts/staking.sol\":1369:1379  msg.sender */\n      caller\n        /* \"contracts/staking.sol\":1356:1380  stakers.push(msg.sender) */\n      swap1\n      dup1\n      0x01\n      dup2\n      sload\n      add\n      dup1\n      dup3\n      sstore\n      dup1\n      swap2\n      pop\n      pop\n      0x01\n      swap1\n      sub\n      swap1\n      0x00\n      mstore\n      keccak256(0x00, 0x20)\n      add\n      0x00\n      swap1\n      swap2\n      swap1\n      swap2\n      swap1\n      swap2\n      0x0100\n      exp\n      dup2\n      sload\n      dup2\n      0xffffffffffffffffffffffffffffffffffffffff\n      mul\n      not\n      and\n      swap1\n      dup4\n      0xffffffffffffffffffffffffffffffffffffffff\n      and\n      mul\n      or\n      swap1\n      sstore\n      pop\n        /* \"contracts/staking.sol\":1315:1392  if(!hasStaked[msg.sender]){\r... */\n    tag_102:\n        /* \"contracts/staking.sol\":1428:1433  false */\n      0x00\n        /* \"contracts/staking.sol\":1404:1413  isStaking */\n      0x06\n        /* \"contracts/staking.sol\":1404:1425  isStaking[msg.sender] */\n      0x00\n        /* \"contracts/staking.sol\":1414:1424  msg.sender */\n      caller\n        /* \"contracts/staking.sol\":1404:1425  isStaking[msg.sender] */\n      0xffffffffffffffffffffffffffffffffffffffff\n      and\n      0xffffffffffffffffffffffffffffffffffffffff\n      and\n      dup2\n      mstore\n      0x20\n      add\n      swap1\n      dup2\n      mstore\n      0x20\n      add\n      0x00\n      keccak256\n      0x00\n        /* \"contracts/staking.sol\":1404:1433  isStaking[msg.sender] = false */\n      0x0100\n      exp\n      dup2\n      sload\n      dup2\n      0xff\n      mul\n      not\n      and\n      swap1\n      dup4\n      iszero\n      iszero\n      mul\n      or\n      swap1\n      sstore\n      pop\n        /* \"contracts/staking.sol\":1117:1443  {\r... */\n      pop\n        /* \"contracts/staking.sol\":1087:1443  function unstakeToken() public{\r... */\n      jump\t// out\n        /* \"contracts/staking.sol\":2076:2260  function pauseContract() public view{\r... */\n    tag_37:\n        /* \"contracts/staking.sol\":2145:2150  owner */\n      0x00\n      dup1\n      sload\n      swap1\n      0x0100\n      exp\n      swap1\n      div\n      0xffffffffffffffffffffffffffffffffffffffff\n      and\n        /* \"contracts/staking.sol\":2131:2150  msg.sender == owner */\n      0xffffffffffffffffffffffffffffffffffffffff\n      and\n        /* \"contracts/staking.sol\":2131:2141  msg.sender */\n      caller\n        /* \"contracts/staking.sol\":2131:2150  msg.sender == owner */\n      0xffffffffffffffffffffffffffffffffffffffff\n      and\n      eq\n        /* \"contracts/staking.sol\":2123:2188  require(msg.sender == owner, \"Only owner can pause the contract\") */\n      tag_105\n      jumpi\n      mload(0x40)\n      0x08c379a000000000000000000000000000000000000000000000000000000000\n      dup2\n      mstore\n      0x04\n      add\n      tag_106\n      swap1\n      tag_107\n      jump\t// in\n    tag_106:\n      mload(0x40)\n      dup1\n      swap2\n      sub\n      swap1\n      revert\n    tag_105:\n        /* \"contracts/staking.sol\":2217:2222  false */\n      0x00\n        /* \"contracts/staking.sol\":2207:2222  paused == false */\n      iszero\n      iszero\n        /* \"contracts/staking.sol\":2207:2213  paused */\n      0x00\n      0x14\n      swap1\n      sload\n      swap1\n      0x0100\n      exp\n      swap1\n      div\n      0xff\n      and\n        /* \"contracts/staking.sol\":2207:2222  paused == false */\n      iszero\n      iszero\n      eq\n        /* \"contracts/staking.sol\":2199:2242  require(paused == false, \"Contract Paused\") */\n      tag_108\n      jumpi\n      mload(0x40)\n      0x08c379a000000000000000000000000000000000000000000000000000000000\n      dup2\n      mstore\n      0x04\n      add\n      tag_109\n      swap1\n      tag_110\n      jump\t// in\n    tag_109:\n      mload(0x40)\n      dup1\n      swap2\n      sub\n      swap1\n      revert\n    tag_108:\n        /* \"contracts/staking.sol\":2076:2260  function pauseContract() public view{\r... */\n      jump\t// out\n        /* \"contracts/staking.sol\":284:330  mapping(address => uint) public stakingBalance */\n    tag_42:\n      mstore(0x20, 0x04)\n      dup1\n      0x00\n      mstore\n      keccak256(0x00, 0x40)\n      0x00\n      swap2\n      pop\n      swap1\n      pop\n      sload\n      dup2\n      jump\t// out\n        /* \"contracts/staking.sol\":167:193  uint public treasuryWallet */\n    tag_47:\n      sload(0x01)\n      dup2\n      jump\t// out\n        /* \"contracts/staking.sol\":666:1055  function stakeToken() payable public {\r... */\n    tag_50:\n        /* \"contracts/staking.sol\":740:741  0 */\n      0x00\n        /* \"contracts/staking.sol\":728:737  msg.value */\n      callvalue\n        /* \"contracts/staking.sol\":728:741  msg.value > 0 */\n      gt\n        /* \"contracts/staking.sol\":720:763  require(msg.value > 0, \"Ether cannot be 0\") */\n      tag_112\n      jumpi\n      mload(0x40)\n      0x08c379a000000000000000000000000000000000000000000000000000000000\n      dup2\n      mstore\n      0x04\n      add\n      tag_113\n      swap1\n      tag_114\n      jump\t// in\n    tag_113:\n      mload(0x40)\n      dup1\n      swap2\n      sub\n      swap1\n      revert\n    tag_112:\n        /* \"contracts/staking.sol\":795:800  false */\n      0x00\n        /* \"contracts/staking.sol\":782:800  blockUser == false */\n      iszero\n      iszero\n        /* \"contracts/staking.sol\":782:791  blockUser */\n      0x00\n      0x15\n      swap1\n      sload\n      swap1\n      0x0100\n      exp\n      swap1\n      div\n      0xff\n      and\n        /* \"contracts/staking.sol\":782:800  blockUser == false */\n      iszero\n      iszero\n      eq\n        /* \"contracts/staking.sol\":774:818  require(blockUser == false, \"User Blocked!\") */\n      tag_115\n      jumpi\n      mload(0x40)\n      0x08c379a000000000000000000000000000000000000000000000000000000000\n      dup2\n      mstore\n      0x04\n      add\n      tag_116\n      swap1\n      tag_117\n      jump\t// in\n    tag_116:\n      mload(0x40)\n      dup1\n      swap2\n      sub\n      swap1\n      revert\n    tag_115:\n        /* \"contracts/staking.sol\":861:870  msg.value */\n      callvalue\n        /* \"contracts/staking.sol\":831:845  stakingBalance */\n      0x04\n        /* \"contracts/staking.sol\":831:857  stakingBalance[msg.sender] */\n      0x00\n        /* \"contracts/staking.sol\":846:856  msg.sender */\n      caller\n        /* \"contracts/staking.sol\":831:857  stakingBalance[msg.sender] */\n      0xffffffffffffffffffffffffffffffffffffffff\n      and\n      0xffffffffffffffffffffffffffffffffffffffff\n      and\n      dup2\n      mstore\n      0x20\n      add\n      swap1\n      dup2\n      mstore\n      0x20\n      add\n      0x00\n      keccak256\n      0x00\n        /* \"contracts/staking.sol\":831:870  stakingBalance[msg.sender] += msg.value */\n      dup3\n      dup3\n      sload\n      tag_118\n      swap2\n      swap1\n      tag_119\n      jump\t// in\n    tag_118:\n      swap3\n      pop\n      pop\n      dup2\n      swap1\n      sstore\n      pop\n        /* \"contracts/staking.sol\":895:904  hasStaked */\n      0x05\n        /* \"contracts/staking.sol\":895:916  hasStaked[msg.sender] */\n      0x00\n        /* \"contracts/staking.sol\":905:915  msg.sender */\n      caller\n        /* \"contracts/staking.sol\":895:916  hasStaked[msg.sender] */\n      0xffffffffffffffffffffffffffffffffffffffff\n      and\n      0xffffffffffffffffffffffffffffffffffffffff\n      and\n      dup2\n      mstore\n      0x20\n      add\n      swap1\n      dup2\n      mstore\n      0x20\n      add\n      0x00\n      keccak256\n      0x00\n      swap1\n      sload\n      swap1\n      0x0100\n      exp\n      swap1\n      div\n      0xff\n      and\n        /* \"contracts/staking.sol\":891:968  if(!hasStaked[msg.sender]){\r... */\n      tag_120\n      jumpi\n        /* \"contracts/staking.sol\":932:939  stakers */\n      0x03\n        /* \"contracts/staking.sol\":945:955  msg.sender */\n      caller\n        /* \"contracts/staking.sol\":932:956  stakers.push(msg.sender) */\n      swap1\n      dup1\n      0x01\n      dup2\n      sload\n      add\n      dup1\n      dup3\n      sstore\n      dup1\n      swap2\n      pop\n      pop\n      0x01\n      swap1\n      sub\n      swap1\n      0x00\n      mstore\n      keccak256(0x00, 0x20)\n      add\n      0x00\n      swap1\n      swap2\n      swap1\n      swap2\n      swap1\n      swap2\n      0x0100\n      exp\n      dup2\n      sload\n      dup2\n      0xffffffffffffffffffffffffffffffffffffffff\n      mul\n      not\n      and\n      swap1\n      dup4\n      0xffffffffffffffffffffffffffffffffffffffff\n      and\n      mul\n      or\n      swap1\n      sstore\n      pop\n        /* \"contracts/staking.sol\":891:968  if(!hasStaked[msg.sender]){\r... */\n    tag_120:\n        /* \"contracts/staking.sol\":1004:1008  true */\n      0x01\n        /* \"contracts/staking.sol\":980:989  isStaking */\n      0x06\n        /* \"contracts/staking.sol\":980:1001  isStaking[msg.sender] */\n      0x00\n        /* \"contracts/staking.sol\":990:1000  msg.sender */\n      caller\n        /* \"contracts/staking.sol\":980:1001  isStaking[msg.sender] */\n      0xffffffffffffffffffffffffffffffffffffffff\n      and\n      0xffffffffffffffffffffffffffffffffffffffff\n      and\n      dup2\n      mstore\n      0x20\n      add\n      swap1\n      dup2\n      mstore\n      0x20\n      add\n      0x00\n      keccak256\n      0x00\n        /* \"contracts/staking.sol\":980:1008  isStaking[msg.sender] = true */\n      0x0100\n      exp\n      dup2\n      sload\n      dup2\n      0xff\n      mul\n      not\n      and\n      swap1\n      dup4\n      iszero\n      iszero\n      mul\n      or\n      swap1\n      sstore\n      pop\n        /* \"contracts/staking.sol\":1043:1047  true */\n      0x01\n        /* \"contracts/staking.sol\":1019:1028  hasStaked */\n      0x05\n        /* \"contracts/staking.sol\":1019:1040  hasStaked[msg.sender] */\n      0x00\n        /* \"contracts/staking.sol\":1029:1039  msg.sender */\n      caller\n        /* \"contracts/staking.sol\":1019:1040  hasStaked[msg.sender] */\n      0xffffffffffffffffffffffffffffffffffffffff\n      and\n      0xffffffffffffffffffffffffffffffffffffffff\n      and\n      dup2\n      mstore\n      0x20\n      add\n      swap1\n      dup2\n      mstore\n      0x20\n      add\n      0x00\n      keccak256\n      0x00\n        /* \"contracts/staking.sol\":1019:1047  hasStaked[msg.sender] = true */\n      0x0100\n      exp\n      dup2\n      sload\n      dup2\n      0xff\n      mul\n      not\n      and\n      swap1\n      dup4\n      iszero\n      iszero\n      mul\n      or\n      swap1\n      sstore\n      pop\n        /* \"contracts/staking.sol\":666:1055  function stakeToken() payable public {\r... */\n      jump\t// out\n        /* \"contracts/staking.sol\":114:132  bool public paused */\n    tag_53:\n      0x00\n      0x14\n      swap1\n      sload\n      swap1\n      0x0100\n      exp\n      swap1\n      div\n      0xff\n      and\n      dup2\n      jump\t// out\n        /* \"contracts/staking.sol\":385:426  mapping(address => bool) public isStaking */\n    tag_58:\n      mstore(0x20, 0x06)\n      dup1\n      0x00\n      mstore\n      keccak256(0x00, 0x40)\n      0x00\n      swap2\n      pop\n      sload\n      swap1\n      0x0100\n      exp\n      swap1\n      div\n      0xff\n      and\n      dup2\n      jump\t// out\n        /* \"contracts/staking.sol\":2657:2816  function setBlockUser(bool _blockUser) public {\r... */\n    tag_63:\n        /* \"contracts/staking.sol\":2736:2741  owner */\n      0x00\n      dup1\n      sload\n      swap1\n      0x0100\n      exp\n      swap1\n      div\n      0xffffffffffffffffffffffffffffffffffffffff\n      and\n        /* \"contracts/staking.sol\":2722:2741  msg.sender == owner */\n      0xffffffffffffffffffffffffffffffffffffffff\n      and\n        /* \"contracts/staking.sol\":2722:2732  msg.sender */\n      caller\n        /* \"contracts/staking.sol\":2722:2741  msg.sender == owner */\n      0xffffffffffffffffffffffffffffffffffffffff\n      and\n      eq\n        /* \"contracts/staking.sol\":2714:2775  require(msg.sender == owner, \"Only owner can block the user\") */\n      tag_123\n      jumpi\n      mload(0x40)\n      0x08c379a000000000000000000000000000000000000000000000000000000000\n      dup2\n      mstore\n      0x04\n      add\n      tag_124\n      swap1\n      tag_125\n      jump\t// in\n    tag_124:\n      mload(0x40)\n      dup1\n      swap2\n      sub\n      swap1\n      revert\n    tag_123:\n        /* \"contracts/staking.sol\":2798:2808  _blockUser */\n      dup1\n        /* \"contracts/staking.sol\":2786:2795  blockUser */\n      0x00\n      0x15\n        /* \"contracts/staking.sol\":2786:2808  blockUser = _blockUser */\n      0x0100\n      exp\n      dup2\n      sload\n      dup2\n      0xff\n      mul\n      not\n      and\n      swap1\n      dup4\n      iszero\n      iszero\n      mul\n      or\n      swap1\n      sstore\n      pop\n        /* \"contracts/staking.sol\":2657:2816  function setBlockUser(bool _blockUser) public {\r... */\n      pop\n      jump\t// out\n        /* \"contracts/staking.sol\":87:107  address public owner */\n    tag_66:\n      0x00\n      dup1\n      sload\n      swap1\n      0x0100\n      exp\n      swap1\n      div\n      0xffffffffffffffffffffffffffffffffffffffff\n      and\n      dup2\n      jump\t// out\n        /* \"contracts/staking.sol\":1477:1898  function issueRewards() onlyAfter(creationTime + 24 hours) public view returns(uint){\r... */\n    tag_71:\n        /* \"contracts/staking.sol\":1556:1560  uint */\n      0x00\n        /* \"contracts/staking.sol\":1526:1534  24 hours */\n      0x015180\n        /* \"contracts/staking.sol\":1511:1523  creationTime */\n      sload(0x02)\n        /* \"contracts/staking.sol\":1511:1534  creationTime + 24 hours */\n      tag_126\n      swap2\n      swap1\n      tag_119\n      jump\t// in\n    tag_126:\n        /* \"contracts/staking.sol\":567:572  _time */\n      dup1\n        /* \"contracts/staking.sol\":549:564  block.timestamp */\n      timestamp\n        /* \"contracts/staking.sol\":549:572  block.timestamp > _time */\n      gt\n        /* \"contracts/staking.sol\":541:615  require(block.timestamp > _time, \"1% reward can be issued after 24 hours\") */\n      tag_128\n      jumpi\n      mload(0x40)\n      0x08c379a000000000000000000000000000000000000000000000000000000000\n      dup2\n      mstore\n      0x04\n      add\n      tag_129\n      swap1\n      tag_130\n      jump\t// in\n    tag_129:\n      mload(0x40)\n      dup1\n      swap2\n      sub\n      swap1\n      revert\n    tag_128:\n        /* \"contracts/staking.sol\":1594:1599  owner */\n      0x00\n      dup1\n      sload\n      swap1\n      0x0100\n      exp\n      swap1\n      div\n      0xffffffffffffffffffffffffffffffffffffffff\n      and\n        /* \"contracts/staking.sol\":1580:1599  msg.sender == owner */\n      0xffffffffffffffffffffffffffffffffffffffff\n      and\n        /* \"contracts/staking.sol\":1580:1590  msg.sender */\n      caller\n        /* \"contracts/staking.sol\":1580:1599  msg.sender == owner */\n      0xffffffffffffffffffffffffffffffffffffffff\n      and\n      eq\n        /* \"contracts/staking.sol\":1572:1628  require(msg.sender == owner, \"caller must be the owner\") */\n      tag_132\n      jumpi\n      mload(0x40)\n      0x08c379a000000000000000000000000000000000000000000000000000000000\n      dup2\n      mstore\n      0x04\n      add\n      tag_133\n      swap1\n      tag_134\n      jump\t// in\n    tag_133:\n      mload(0x40)\n      dup1\n      swap2\n      sub\n      swap1\n      revert\n    tag_132:\n        /* \"contracts/staking.sol\":1654:1660  uint i */\n      0x00\n        /* \"contracts/staking.sol\":1649:1881  for (uint i = 0; i < stakers.length; i++){\r... */\n    tag_135:\n        /* \"contracts/staking.sol\":1670:1677  stakers */\n      0x03\n        /* \"contracts/staking.sol\":1670:1684  stakers.length */\n      dup1\n      sload\n      swap1\n      pop\n        /* \"contracts/staking.sol\":1666:1667  i */\n      dup2\n        /* \"contracts/staking.sol\":1666:1684  i < stakers.length */\n      lt\n        /* \"contracts/staking.sol\":1649:1881  for (uint i = 0; i < stakers.length; i++){\r... */\n      iszero\n      tag_136\n      jumpi\n        /* \"contracts/staking.sol\":1705:1722  address recipient */\n      0x00\n        /* \"contracts/staking.sol\":1725:1732  stakers */\n      0x03\n        /* \"contracts/staking.sol\":1733:1734  i */\n      dup3\n        /* \"contracts/staking.sol\":1725:1735  stakers[i] */\n      dup2\n      sload\n      dup2\n      lt\n      tag_138\n      jumpi\n      tag_139\n      tag_140\n      jump\t// in\n    tag_139:\n    tag_138:\n      swap1\n      0x00\n      mstore\n      keccak256(0x00, 0x20)\n      add\n      0x00\n      swap1\n      sload\n      swap1\n      0x0100\n      exp\n      swap1\n      div\n      0xffffffffffffffffffffffffffffffffffffffff\n      and\n        /* \"contracts/staking.sol\":1705:1735  address recipient = stakers[i] */\n      swap1\n      pop\n        /* \"contracts/staking.sol\":1750:1761  uint reward */\n      0x00\n        /* \"contracts/staking.sol\":1790:1793  100 */\n      0x64\n        /* \"contracts/staking.sol\":1764:1778  stakingBalance */\n      0x04\n        /* \"contracts/staking.sol\":1764:1789  stakingBalance[recipient] */\n      0x00\n        /* \"contracts/staking.sol\":1779:1788  recipient */\n      dup5\n        /* \"contracts/staking.sol\":1764:1789  stakingBalance[recipient] */\n      0xffffffffffffffffffffffffffffffffffffffff\n      and\n      0xffffffffffffffffffffffffffffffffffffffff\n      and\n      dup2\n      mstore\n      0x20\n      add\n      swap1\n      dup2\n      mstore\n      0x20\n      add\n      0x00\n      keccak256\n      sload\n        /* \"contracts/staking.sol\":1764:1793  stakingBalance[recipient]/100 */\n      tag_142\n      swap2\n      swap1\n      tag_143\n      jump\t// in\n    tag_142:\n        /* \"contracts/staking.sol\":1750:1793  uint reward = stakingBalance[recipient]/100 */\n      swap1\n      pop\n        /* \"contracts/staking.sol\":1820:1821  0 */\n      0x00\n        /* \"contracts/staking.sol\":1811:1817  reward */\n      dup2\n        /* \"contracts/staking.sol\":1811:1821  reward > 0 */\n      gt\n        /* \"contracts/staking.sol\":1808:1870  if(reward > 0){\r... */\n      iszero\n      tag_144\n      jumpi\n        /* \"contracts/staking.sol\":1848:1854  reward */\n      dup1\n        /* \"contracts/staking.sol\":1841:1854  return reward */\n      swap5\n      pop\n      pop\n      pop\n      pop\n      jump(tag_131)\n        /* \"contracts/staking.sol\":1808:1870  if(reward > 0){\r... */\n    tag_144:\n        /* \"contracts/staking.sol\":1690:1881  {\r... */\n      pop\n      pop\n        /* \"contracts/staking.sol\":1686:1689  i++ */\n      dup1\n      dup1\n      tag_145\n      swap1\n      tag_146\n      jump\t// in\n    tag_145:\n      swap2\n      pop\n      pop\n        /* \"contracts/staking.sol\":1649:1881  for (uint i = 0; i < stakers.length; i++){\r... */\n      jump(tag_135)\n    tag_136:\n      pop\n        /* \"contracts/staking.sol\":626:627  _ */\n    tag_131:\n        /* \"contracts/staking.sol\":1477:1898  function issueRewards() onlyAfter(creationTime + 24 hours) public view returns(uint){\r... */\n      pop\n      swap1\n      jump\t// out\n        /* \"contracts/staking.sol\":337:378  mapping(address => bool) public hasStaked */\n    tag_76:\n      mstore(0x20, 0x05)\n      dup1\n      0x00\n      mstore\n      keccak256(0x00, 0x40)\n      0x00\n      swap2\n      pop\n      sload\n      swap1\n      0x0100\n      exp\n      swap1\n      div\n      0xff\n      and\n      dup2\n      jump\t// out\n        /* \"contracts/staking.sol\":200:242  uint public creationTime = block.timestamp */\n    tag_80:\n      sload(0x02)\n      dup2\n      jump\t// out\n        /* \"contracts/staking.sol\":2463:2618  function withdrawTax() public{\r... */\n    tag_84:\n        /* \"contracts/staking.sol\":2503:2511  uint tax */\n      0x00\n        /* \"contracts/staking.sol\":2547:2550  100 */\n      0x64\n        /* \"contracts/staking.sol\":2543:2544  5 */\n      0x05\n        /* \"contracts/staking.sol\":2514:2528  stakingBalance */\n      0x04\n        /* \"contracts/staking.sol\":2514:2540  stakingBalance[msg.sender] */\n      0x00\n        /* \"contracts/staking.sol\":2529:2539  msg.sender */\n      caller\n        /* \"contracts/staking.sol\":2514:2540  stakingBalance[msg.sender] */\n      0xffffffffffffffffffffffffffffffffffffffff\n      and\n      0xffffffffffffffffffffffffffffffffffffffff\n      and\n      dup2\n      mstore\n      0x20\n      add\n      swap1\n      dup2\n      mstore\n      0x20\n      add\n      0x00\n      keccak256\n      sload\n        /* \"contracts/staking.sol\":2514:2544  stakingBalance[msg.sender] * 5 */\n      tag_148\n      swap2\n      swap1\n      tag_149\n      jump\t// in\n    tag_148:\n        /* \"contracts/staking.sol\":2514:2550  stakingBalance[msg.sender] * 5 / 100 */\n      tag_150\n      swap2\n      swap1\n      tag_143\n      jump\t// in\n    tag_150:\n        /* \"contracts/staking.sol\":2503:2550  uint tax = stakingBalance[msg.sender] * 5 / 100 */\n      swap1\n      pop\n        /* \"contracts/staking.sol\":2607:2610  tax */\n      dup1\n        /* \"contracts/staking.sol\":2578:2592  stakingBalance */\n      0x04\n        /* \"contracts/staking.sol\":2578:2604  stakingBalance[msg.sender] */\n      0x00\n        /* \"contracts/staking.sol\":2593:2603  msg.sender */\n      caller\n        /* \"contracts/staking.sol\":2578:2604  stakingBalance[msg.sender] */\n      0xffffffffffffffffffffffffffffffffffffffff\n      and\n      0xffffffffffffffffffffffffffffffffffffffff\n      and\n      dup2\n      mstore\n      0x20\n      add\n      swap1\n      dup2\n      mstore\n      0x20\n      add\n      0x00\n      keccak256\n      sload\n        /* \"contracts/staking.sol\":2578:2610  stakingBalance[msg.sender] - tax */\n      tag_151\n      swap2\n      swap1\n      tag_152\n      jump\t// in\n    tag_151:\n        /* \"contracts/staking.sol\":2561:2575  treasuryWallet */\n      0x01\n        /* \"contracts/staking.sol\":2561:2610  treasuryWallet = stakingBalance[msg.sender] - tax */\n      dup2\n      swap1\n      sstore\n      pop\n        /* \"contracts/staking.sol\":2492:2618  {\r... */\n      pop\n        /* \"contracts/staking.sol\":2463:2618  function withdrawTax() public{\r... */\n      jump\t// out\n        /* \"contracts/staking.sol\":2301:2455  function depositTax() public{\r... */\n    tag_87:\n        /* \"contracts/staking.sol\":2340:2348  uint tax */\n      0x00\n        /* \"contracts/staking.sol\":2384:2387  100 */\n      0x64\n        /* \"contracts/staking.sol\":2380:2381  5 */\n      0x05\n        /* \"contracts/staking.sol\":2351:2365  stakingBalance */\n      0x04\n        /* \"contracts/staking.sol\":2351:2377  stakingBalance[msg.sender] */\n      0x00\n        /* \"contracts/staking.sol\":2366:2376  msg.sender */\n      caller\n        /* \"contracts/staking.sol\":2351:2377  stakingBalance[msg.sender] */\n      0xffffffffffffffffffffffffffffffffffffffff\n      and\n      0xffffffffffffffffffffffffffffffffffffffff\n      and\n      dup2\n      mstore\n      0x20\n      add\n      swap1\n      dup2\n      mstore\n      0x20\n      add\n      0x00\n      keccak256\n      sload\n        /* \"contracts/staking.sol\":2351:2381  stakingBalance[msg.sender] * 5 */\n      tag_154\n      swap2\n      swap1\n      tag_149\n      jump\t// in\n    tag_154:\n        /* \"contracts/staking.sol\":2351:2387  stakingBalance[msg.sender] * 5 / 100 */\n      tag_155\n      swap2\n      swap1\n      tag_143\n      jump\t// in\n    tag_155:\n        /* \"contracts/staking.sol\":2340:2387  uint tax = stakingBalance[msg.sender] * 5 / 100 */\n      swap1\n      pop\n        /* \"contracts/staking.sol\":2444:2447  tax */\n      dup1\n        /* \"contracts/staking.sol\":2415:2429  stakingBalance */\n      0x04\n        /* \"contracts/staking.sol\":2415:2441  stakingBalance[msg.sender] */\n      0x00\n        /* \"contracts/staking.sol\":2430:2440  msg.sender */\n      caller\n        /* \"contracts/staking.sol\":2415:2441  stakingBalance[msg.sender] */\n      0xffffffffffffffffffffffffffffffffffffffff\n      and\n      0xffffffffffffffffffffffffffffffffffffffff\n      and\n      dup2\n      mstore\n      0x20\n      add\n      swap1\n      dup2\n      mstore\n      0x20\n      add\n      0x00\n      keccak256\n      sload\n        /* \"contracts/staking.sol\":2415:2447  stakingBalance[msg.sender] + tax */\n      tag_156\n      swap2\n      swap1\n      tag_119\n      jump\t// in\n    tag_156:\n        /* \"contracts/staking.sol\":2398:2412  treasuryWallet */\n      0x01\n        /* \"contracts/staking.sol\":2398:2447  treasuryWallet = stakingBalance[msg.sender] + tax */\n      dup2\n      swap1\n      sstore\n      pop\n        /* \"contracts/staking.sol\":2329:2455  {\r... */\n      pop\n        /* \"contracts/staking.sol\":2301:2455  function depositTax() public{\r... */\n      jump\t// out\n        /* \"contracts/staking.sol\":251:275  address[] public stakers */\n    tag_92:\n      0x03\n      dup2\n      dup2\n      sload\n      dup2\n      lt\n      tag_157\n      jumpi\n      0x00\n      dup1\n      revert\n    tag_157:\n      swap1\n      0x00\n      mstore\n      keccak256(0x00, 0x20)\n      add\n      0x00\n      swap2\n      pop\n      sload\n      swap1\n      0x0100\n      exp\n      swap1\n      div\n      0xffffffffffffffffffffffffffffffffffffffff\n      and\n      dup2\n      jump\t// out\n        /* \"#utility.yul\":7:146   */\n    tag_160:\n        /* \"#utility.yul\":53:58   */\n      0x00\n        /* \"#utility.yul\":91:97   */\n      dup2\n        /* \"#utility.yul\":78:98   */\n      calldataload\n        /* \"#utility.yul\":69:98   */\n      swap1\n      pop\n        /* \"#utility.yul\":107:140   */\n      tag_162\n        /* \"#utility.yul\":134:139   */\n      dup2\n        /* \"#utility.yul\":107:140   */\n      tag_163\n      jump\t// in\n    tag_162:\n        /* \"#utility.yul\":7:146   */\n      swap3\n      swap2\n      pop\n      pop\n      jump\t// out\n        /* \"#utility.yul\":152:285   */\n    tag_164:\n        /* \"#utility.yul\":195:200   */\n      0x00\n        /* \"#utility.yul\":233:239   */\n      dup2\n        /* \"#utility.yul\":220:240   */\n      calldataload\n        /* \"#utility.yul\":211:240   */\n      swap1\n      pop\n        /* \"#utility.yul\":249:279   */\n      tag_166\n        /* \"#utility.yul\":273:278   */\n      dup2\n        /* \"#utility.yul\":249:279   */\n      tag_167\n      jump\t// in\n    tag_166:\n        /* \"#utility.yul\":152:285   */\n      swap3\n      swap2\n      pop\n      pop\n      jump\t// out\n        /* \"#utility.yul\":291:430   */\n    tag_168:\n        /* \"#utility.yul\":337:342   */\n      0x00\n        /* \"#utility.yul\":375:381   */\n      dup2\n        /* \"#utility.yul\":362:382   */\n      calldataload\n        /* \"#utility.yul\":353:382   */\n      swap1\n      pop\n        /* \"#utility.yul\":391:424   */\n      tag_170\n        /* \"#utility.yul\":418:423   */\n      dup2\n        /* \"#utility.yul\":391:424   */\n      tag_171\n      jump\t// in\n    tag_170:\n        /* \"#utility.yul\":291:430   */\n      swap3\n      swap2\n      pop\n      pop\n      jump\t// out\n        /* \"#utility.yul\":436:765   */\n    tag_41:\n        /* \"#utility.yul\":495:501   */\n      0x00\n        /* \"#utility.yul\":544:546   */\n      0x20\n        /* \"#utility.yul\":532:541   */\n      dup3\n        /* \"#utility.yul\":523:530   */\n      dup5\n        /* \"#utility.yul\":519:542   */\n      sub\n        /* \"#utility.yul\":515:547   */\n      slt\n        /* \"#utility.yul\":512:631   */\n      iszero\n      tag_173\n      jumpi\n        /* \"#utility.yul\":550:629   */\n      tag_174\n      tag_175\n      jump\t// in\n    tag_174:\n        /* \"#utility.yul\":512:631   */\n    tag_173:\n        /* \"#utility.yul\":670:671   */\n      0x00\n        /* \"#utility.yul\":695:748   */\n      tag_176\n        /* \"#utility.yul\":740:747   */\n      dup5\n        /* \"#utility.yul\":731:737   */\n      dup3\n        /* \"#utility.yul\":720:729   */\n      dup6\n        /* \"#utility.yul\":716:738   */\n      add\n        /* \"#utility.yul\":695:748   */\n      tag_160\n      jump\t// in\n    tag_176:\n        /* \"#utility.yul\":685:748   */\n      swap2\n      pop\n        /* \"#utility.yul\":641:758   */\n      pop\n        /* \"#utility.yul\":436:765   */\n      swap3\n      swap2\n      pop\n      pop\n      jump\t// out\n        /* \"#utility.yul\":771:1094   */\n    tag_30:\n        /* \"#utility.yul\":827:833   */\n      0x00\n        /* \"#utility.yul\":876:878   */\n      0x20\n        /* \"#utility.yul\":864:873   */\n      dup3\n        /* \"#utility.yul\":855:862   */\n      dup5\n        /* \"#utility.yul\":851:874   */\n      sub\n        /* \"#utility.yul\":847:879   */\n      slt\n        /* \"#utility.yul\":844:963   */\n      iszero\n      tag_178\n      jumpi\n        /* \"#utility.yul\":882:961   */\n      tag_179\n      tag_175\n      jump\t// in\n    tag_179:\n        /* \"#utility.yul\":844:963   */\n    tag_178:\n        /* \"#utility.yul\":1002:1003   */\n      0x00\n        /* \"#utility.yul\":1027:1077   */\n      tag_180\n        /* \"#utility.yul\":1069:1076   */\n      dup5\n        /* \"#utility.yul\":1060:1066   */\n      dup3\n        /* \"#utility.yul\":1049:1058   */\n      dup6\n        /* \"#utility.yul\":1045:1067   */\n      add\n        /* \"#utility.yul\":1027:1077   */\n      tag_164\n      jump\t// in\n    tag_180:\n        /* \"#utility.yul\":1017:1077   */\n      swap2\n      pop\n        /* \"#utility.yul\":973:1087   */\n      pop\n        /* \"#utility.yul\":771:1094   */\n      swap3\n      swap2\n      pop\n      pop\n      jump\t// out\n        /* \"#utility.yul\":1100:1429   */\n    tag_91:\n        /* \"#utility.yul\":1159:1165   */\n      0x00\n        /* \"#utility.yul\":1208:1210   */\n      0x20\n        /* \"#utility.yul\":1196:1205   */\n      dup3\n        /* \"#utility.yul\":1187:1194   */\n      dup5\n        /* \"#utility.yul\":1183:1206   */\n      sub\n        /* \"#utility.yul\":1179:1211   */\n      slt\n        /* \"#utility.yul\":1176:1295   */\n      iszero\n      tag_182\n      jumpi\n        /* \"#utility.yul\":1214:1293   */\n      tag_183\n      tag_175\n      jump\t// in\n    tag_183:\n        /* \"#utility.yul\":1176:1295   */\n    tag_182:\n        /* \"#utility.yul\":1334:1335   */\n      0x00\n        /* \"#utility.yul\":1359:1412   */\n      tag_184\n        /* \"#utility.yul\":1404:1411   */\n      dup5\n        /* \"#utility.yul\":1395:1401   */\n      dup3\n        /* \"#utility.yul\":1384:1393   */\n      dup6\n        /* \"#utility.yul\":1380:1402   */\n      add\n        /* \"#utility.yul\":1359:1412   */\n      tag_168\n      jump\t// in\n    tag_184:\n        /* \"#utility.yul\":1349:1412   */\n      swap2\n      pop\n        /* \"#utility.yul\":1305:1422   */\n      pop\n        /* \"#utility.yul\":1100:1429   */\n      swap3\n      swap2\n      pop\n      pop\n      jump\t// out\n        /* \"#utility.yul\":1435:1553   */\n    tag_185:\n        /* \"#utility.yul\":1522:1546   */\n      tag_187\n        /* \"#utility.yul\":1540:1545   */\n      dup2\n        /* \"#utility.yul\":1522:1546   */\n      tag_188\n      jump\t// in\n    tag_187:\n        /* \"#utility.yul\":1517:1520   */\n      dup3\n        /* \"#utility.yul\":1510:1547   */\n      mstore\n        /* \"#utility.yul\":1435:1553   */\n      pop\n      pop\n      jump\t// out\n        /* \"#utility.yul\":1559:1668   */\n    tag_189:\n        /* \"#utility.yul\":1640:1661   */\n      tag_191\n        /* \"#utility.yul\":1655:1660   */\n      dup2\n        /* \"#utility.yul\":1640:1661   */\n      tag_192\n      jump\t// in\n    tag_191:\n        /* \"#utility.yul\":1635:1638   */\n      dup3\n        /* \"#utility.yul\":1628:1662   */\n      mstore\n        /* \"#utility.yul\":1559:1668   */\n      pop\n      pop\n      jump\t// out\n        /* \"#utility.yul\":1674:2040   */\n    tag_193:\n        /* \"#utility.yul\":1816:1819   */\n      0x00\n        /* \"#utility.yul\":1837:1904   */\n      tag_195\n        /* \"#utility.yul\":1901:1903   */\n      0x11\n        /* \"#utility.yul\":1896:1899   */\n      dup4\n        /* \"#utility.yul\":1837:1904   */\n      tag_196\n      jump\t// in\n    tag_195:\n        /* \"#utility.yul\":1830:1904   */\n      swap2\n      pop\n        /* \"#utility.yul\":1913:2006   */\n      tag_197\n        /* \"#utility.yul\":2002:2005   */\n      dup3\n        /* \"#utility.yul\":1913:2006   */\n      tag_198\n      jump\t// in\n    tag_197:\n        /* \"#utility.yul\":2031:2033   */\n      0x20\n        /* \"#utility.yul\":2026:2029   */\n      dup3\n        /* \"#utility.yul\":2022:2034   */\n      add\n        /* \"#utility.yul\":2015:2034   */\n      swap1\n      pop\n        /* \"#utility.yul\":1674:2040   */\n      swap2\n      swap1\n      pop\n      jump\t// out\n        /* \"#utility.yul\":2046:2412   */\n    tag_199:\n        /* \"#utility.yul\":2188:2191   */\n      0x00\n        /* \"#utility.yul\":2209:2276   */\n      tag_201\n        /* \"#utility.yul\":2273:2275   */\n      0x18\n        /* \"#utility.yul\":2268:2271   */\n      dup4\n        /* \"#utility.yul\":2209:2276   */\n      tag_196\n      jump\t// in\n    tag_201:\n        /* \"#utility.yul\":2202:2276   */\n      swap2\n      pop\n        /* \"#utility.yul\":2285:2378   */\n      tag_202\n        /* \"#utility.yul\":2374:2377   */\n      dup3\n        /* \"#utility.yul\":2285:2378   */\n      tag_203\n      jump\t// in\n    tag_202:\n        /* \"#utility.yul\":2403:2405   */\n      0x20\n        /* \"#utility.yul\":2398:2401   */\n      dup3\n        /* \"#utility.yul\":2394:2406   */\n      add\n        /* \"#utility.yul\":2387:2406   */\n      swap1\n      pop\n        /* \"#utility.yul\":2046:2412   */\n      swap2\n      swap1\n      pop\n      jump\t// out\n        /* \"#utility.yul\":2418:2784   */\n    tag_204:\n        /* \"#utility.yul\":2560:2563   */\n      0x00\n        /* \"#utility.yul\":2581:2648   */\n      tag_206\n        /* \"#utility.yul\":2645:2647   */\n      0x15\n        /* \"#utility.yul\":2640:2643   */\n      dup4\n        /* \"#utility.yul\":2581:2648   */\n      tag_196\n      jump\t// in\n    tag_206:\n        /* \"#utility.yul\":2574:2648   */\n      swap2\n      pop\n        /* \"#utility.yul\":2657:2750   */\n      tag_207\n        /* \"#utility.yul\":2746:2749   */\n      dup3\n        /* \"#utility.yul\":2657:2750   */\n      tag_208\n      jump\t// in\n    tag_207:\n        /* \"#utility.yul\":2775:2777   */\n      0x20\n        /* \"#utility.yul\":2770:2773   */\n      dup3\n        /* \"#utility.yul\":2766:2778   */\n      add\n        /* \"#utility.yul\":2759:2778   */\n      swap1\n      pop\n        /* \"#utility.yul\":2418:2784   */\n      swap2\n      swap1\n      pop\n      jump\t// out\n        /* \"#utility.yul\":2790:3156   */\n    tag_209:\n        /* \"#utility.yul\":2932:2935   */\n      0x00\n        /* \"#utility.yul\":2953:3020   */\n      tag_211\n        /* \"#utility.yul\":3017:3019   */\n      0x26\n        /* \"#utility.yul\":3012:3015   */\n      dup4\n        /* \"#utility.yul\":2953:3020   */\n      tag_196\n      jump\t// in\n    tag_211:\n        /* \"#utility.yul\":2946:3020   */\n      swap2\n      pop\n        /* \"#utility.yul\":3029:3122   */\n      tag_212\n        /* \"#utility.yul\":3118:3121   */\n      dup3\n        /* \"#utility.yul\":3029:3122   */\n      tag_213\n      jump\t// in\n    tag_212:\n        /* \"#utility.yul\":3147:3149   */\n      0x40\n        /* \"#utility.yul\":3142:3145   */\n      dup3\n        /* \"#utility.yul\":3138:3150   */\n      add\n        /* \"#utility.yul\":3131:3150   */\n      swap1\n      pop\n        /* \"#utility.yul\":2790:3156   */\n      swap2\n      swap1\n      pop\n      jump\t// out\n        /* \"#utility.yul\":3162:3528   */\n    tag_214:\n        /* \"#utility.yul\":3304:3307   */\n      0x00\n        /* \"#utility.yul\":3325:3392   */\n      tag_216\n        /* \"#utility.yul\":3389:3391   */\n      0x21\n        /* \"#utility.yul\":3384:3387   */\n      dup4\n        /* \"#utility.yul\":3325:3392   */\n      tag_196\n      jump\t// in\n    tag_216:\n        /* \"#utility.yul\":3318:3392   */\n      swap2\n      pop\n        /* \"#utility.yul\":3401:3494   */\n      tag_217\n        /* \"#utility.yul\":3490:3493   */\n      dup3\n        /* \"#utility.yul\":3401:3494   */\n      tag_218\n      jump\t// in\n    tag_217:\n        /* \"#utility.yul\":3519:3521   */\n      0x40\n        /* \"#utility.yul\":3514:3517   */\n      dup3\n        /* \"#utility.yul\":3510:3522   */\n      add\n        /* \"#utility.yul\":3503:3522   */\n      swap1\n      pop\n        /* \"#utility.yul\":3162:3528   */\n      swap2\n      swap1\n      pop\n      jump\t// out\n        /* \"#utility.yul\":3534:3900   */\n    tag_219:\n        /* \"#utility.yul\":3676:3679   */\n      0x00\n        /* \"#utility.yul\":3697:3764   */\n      tag_221\n        /* \"#utility.yul\":3761:3763   */\n      0x0d\n        /* \"#utility.yul\":3756:3759   */\n      dup4\n        /* \"#utility.yul\":3697:3764   */\n      tag_196\n      jump\t// in\n    tag_221:\n        /* \"#utility.yul\":3690:3764   */\n      swap2\n      pop\n        /* \"#utility.yul\":3773:3866   */\n      tag_222\n        /* \"#utility.yul\":3862:3865   */\n      dup3\n        /* \"#utility.yul\":3773:3866   */\n      tag_223\n      jump\t// in\n    tag_222:\n        /* \"#utility.yul\":3891:3893   */\n      0x20\n        /* \"#utility.yul\":3886:3889   */\n      dup3\n        /* \"#utility.yul\":3882:3894   */\n      add\n        /* \"#utility.yul\":3875:3894   */\n      swap1\n      pop\n        /* \"#utility.yul\":3534:3900   */\n      swap2\n      swap1\n      pop\n      jump\t// out\n        /* \"#utility.yul\":3906:4272   */\n    tag_224:\n        /* \"#utility.yul\":4048:4051   */\n      0x00\n        /* \"#utility.yul\":4069:4136   */\n      tag_226\n        /* \"#utility.yul\":4133:4135   */\n      0x1d\n        /* \"#utility.yul\":4128:4131   */\n      dup4\n        /* \"#utility.yul\":4069:4136   */\n      tag_196\n      jump\t// in\n    tag_226:\n        /* \"#utility.yul\":4062:4136   */\n      swap2\n      pop\n        /* \"#utility.yul\":4145:4238   */\n      tag_227\n        /* \"#utility.yul\":4234:4237   */\n      dup3\n        /* \"#utility.yul\":4145:4238   */\n      tag_228\n      jump\t// in\n    tag_227:\n        /* \"#utility.yul\":4263:4265   */\n      0x20\n        /* \"#utility.yul\":4258:4261   */\n      dup3\n        /* \"#utility.yul\":4254:4266   */\n      add\n        /* \"#utility.yul\":4247:4266   */\n      swap1\n      pop\n        /* \"#utility.yul\":3906:4272   */\n      swap2\n      swap1\n      pop\n      jump\t// out\n        /* \"#utility.yul\":4278:4644   */\n    tag_229:\n        /* \"#utility.yul\":4420:4423   */\n      0x00\n        /* \"#utility.yul\":4441:4508   */\n      tag_231\n        /* \"#utility.yul\":4505:4507   */\n      0x0f\n        /* \"#utility.yul\":4500:4503   */\n      dup4\n        /* \"#utility.yul\":4441:4508   */\n      tag_196\n      jump\t// in\n    tag_231:\n        /* \"#utility.yul\":4434:4508   */\n      swap2\n      pop\n        /* \"#utility.yul\":4517:4610   */\n      tag_232\n        /* \"#utility.yul\":4606:4609   */\n      dup3\n        /* \"#utility.yul\":4517:4610   */\n      tag_233\n      jump\t// in\n    tag_232:\n        /* \"#utility.yul\":4635:4637   */\n      0x20\n        /* \"#utility.yul\":4630:4633   */\n      dup3\n        /* \"#utility.yul\":4626:4638   */\n      add\n        /* \"#utility.yul\":4619:4638   */\n      swap1\n      pop\n        /* \"#utility.yul\":4278:4644   */\n      swap2\n      swap1\n      pop\n      jump\t// out\n        /* \"#utility.yul\":4650:5016   */\n    tag_234:\n        /* \"#utility.yul\":4792:4795   */\n      0x00\n        /* \"#utility.yul\":4813:4880   */\n      tag_236\n        /* \"#utility.yul\":4877:4879   */\n      0x25\n        /* \"#utility.yul\":4872:4875   */\n      dup4\n        /* \"#utility.yul\":4813:4880   */\n      tag_196\n      jump\t// in\n    tag_236:\n        /* \"#utility.yul\":4806:4880   */\n      swap2\n      pop\n        /* \"#utility.yul\":4889:4982   */\n      tag_237\n        /* \"#utility.yul\":4978:4981   */\n      dup3\n        /* \"#utility.yul\":4889:4982   */\n      tag_238\n      jump\t// in\n    tag_237:\n        /* \"#utility.yul\":5007:5009   */\n      0x40\n        /* \"#utility.yul\":5002:5005   */\n      dup3\n        /* \"#utility.yul\":4998:5010   */\n      add\n        /* \"#utility.yul\":4991:5010   */\n      swap1\n      pop\n        /* \"#utility.yul\":4650:5016   */\n      swap2\n      swap1\n      pop\n      jump\t// out\n        /* \"#utility.yul\":5022:5140   */\n    tag_239:\n        /* \"#utility.yul\":5109:5133   */\n      tag_241\n        /* \"#utility.yul\":5127:5132   */\n      dup2\n        /* \"#utility.yul\":5109:5133   */\n      tag_242\n      jump\t// in\n    tag_241:\n        /* \"#utility.yul\":5104:5107   */\n      dup3\n        /* \"#utility.yul\":5097:5134   */\n      mstore\n        /* \"#utility.yul\":5022:5140   */\n      pop\n      pop\n      jump\t// out\n        /* \"#utility.yul\":5146:5368   */\n    tag_68:\n        /* \"#utility.yul\":5239:5243   */\n      0x00\n        /* \"#utility.yul\":5277:5279   */\n      0x20\n        /* \"#utility.yul\":5266:5275   */\n      dup3\n        /* \"#utility.yul\":5262:5280   */\n      add\n        /* \"#utility.yul\":5254:5280   */\n      swap1\n      pop\n        /* \"#utility.yul\":5290:5361   */\n      tag_244\n        /* \"#utility.yul\":5358:5359   */\n      0x00\n        /* \"#utility.yul\":5347:5356   */\n      dup4\n        /* \"#utility.yul\":5343:5360   */\n      add\n        /* \"#utility.yul\":5334:5340   */\n      dup5\n        /* \"#utility.yul\":5290:5361   */\n      tag_185\n      jump\t// in\n    tag_244:\n        /* \"#utility.yul\":5146:5368   */\n      swap3\n      swap2\n      pop\n      pop\n      jump\t// out\n        /* \"#utility.yul\":5374:5584   */\n    tag_26:\n        /* \"#utility.yul\":5461:5465   */\n      0x00\n        /* \"#utility.yul\":5499:5501   */\n      0x20\n        /* \"#utility.yul\":5488:5497   */\n      dup3\n        /* \"#utility.yul\":5484:5502   */\n      add\n        /* \"#utility.yul\":5476:5502   */\n      swap1\n      pop\n        /* \"#utility.yul\":5512:5577   */\n      tag_246\n        /* \"#utility.yul\":5574:5575   */\n      0x00\n        /* \"#utility.yul\":5563:5572   */\n      dup4\n        /* \"#utility.yul\":5559:5576   */\n      add\n        /* \"#utility.yul\":5550:5556   */\n      dup5\n        /* \"#utility.yul\":5512:5577   */\n      tag_189\n      jump\t// in\n    tag_246:\n        /* \"#utility.yul\":5374:5584   */\n      swap3\n      swap2\n      pop\n      pop\n      jump\t// out\n        /* \"#utility.yul\":5590:6009   */\n    tag_114:\n        /* \"#utility.yul\":5756:5760   */\n      0x00\n        /* \"#utility.yul\":5794:5796   */\n      0x20\n        /* \"#utility.yul\":5783:5792   */\n      dup3\n        /* \"#utility.yul\":5779:5797   */\n      add\n        /* \"#utility.yul\":5771:5797   */\n      swap1\n      pop\n        /* \"#utility.yul\":5843:5852   */\n      dup2\n        /* \"#utility.yul\":5837:5841   */\n      dup2\n        /* \"#utility.yul\":5833:5853   */\n      sub\n        /* \"#utility.yul\":5829:5830   */\n      0x00\n        /* \"#utility.yul\":5818:5827   */\n      dup4\n        /* \"#utility.yul\":5814:5831   */\n      add\n        /* \"#utility.yul\":5807:5854   */\n      mstore\n        /* \"#utility.yul\":5871:6002   */\n      tag_248\n        /* \"#utility.yul\":5997:6001   */\n      dup2\n        /* \"#utility.yul\":5871:6002   */\n      tag_193\n      jump\t// in\n    tag_248:\n        /* \"#utility.yul\":5863:6002   */\n      swap1\n      pop\n        /* \"#utility.yul\":5590:6009   */\n      swap2\n      swap1\n      pop\n      jump\t// out\n        /* \"#utility.yul\":6015:6434   */\n    tag_134:\n        /* \"#utility.yul\":6181:6185   */\n      0x00\n        /* \"#utility.yul\":6219:6221   */\n      0x20\n        /* \"#utility.yul\":6208:6217   */\n      dup3\n        /* \"#utility.yul\":6204:6222   */\n      add\n        /* \"#utility.yul\":6196:6222   */\n      swap1\n      pop\n        /* \"#utility.yul\":6268:6277   */\n      dup2\n        /* \"#utility.yul\":6262:6266   */\n      dup2\n        /* \"#utility.yul\":6258:6278   */\n      sub\n        /* \"#utility.yul\":6254:6255   */\n      0x00\n        /* \"#utility.yul\":6243:6252   */\n      dup4\n        /* \"#utility.yul\":6239:6256   */\n      add\n        /* \"#utility.yul\":6232:6279   */\n      mstore\n        /* \"#utility.yul\":6296:6427   */\n      tag_250\n        /* \"#utility.yul\":6422:6426   */\n      dup2\n        /* \"#utility.yul\":6296:6427   */\n      tag_199\n      jump\t// in\n    tag_250:\n        /* \"#utility.yul\":6288:6427   */\n      swap1\n      pop\n        /* \"#utility.yul\":6015:6434   */\n      swap2\n      swap1\n      pop\n      jump\t// out\n        /* \"#utility.yul\":6440:6859   */\n    tag_97:\n        /* \"#utility.yul\":6606:6610   */\n      0x00\n        /* \"#utility.yul\":6644:6646   */\n      0x20\n        /* \"#utility.yul\":6633:6642   */\n      dup3\n        /* \"#utility.yul\":6629:6647   */\n      add\n        /* \"#utility.yul\":6621:6647   */\n      swap1\n      pop\n        /* \"#utility.yul\":6693:6702   */\n      dup2\n        /* \"#utility.yul\":6687:6691   */\n      dup2\n        /* \"#utility.yul\":6683:6703   */\n      sub\n        /* \"#utility.yul\":6679:6680   */\n      0x00\n        /* \"#utility.yul\":6668:6677   */\n      dup4\n        /* \"#utility.yul\":6664:6681   */\n      add\n        /* \"#utility.yul\":6657:6704   */\n      mstore\n        /* \"#utility.yul\":6721:6852   */\n      tag_252\n        /* \"#utility.yul\":6847:6851   */\n      dup2\n        /* \"#utility.yul\":6721:6852   */\n      tag_204\n      jump\t// in\n    tag_252:\n        /* \"#utility.yul\":6713:6852   */\n      swap1\n      pop\n        /* \"#utility.yul\":6440:6859   */\n      swap2\n      swap1\n      pop\n      jump\t// out\n        /* \"#utility.yul\":6865:7284   */\n    tag_130:\n        /* \"#utility.yul\":7031:7035   */\n      0x00\n        /* \"#utility.yul\":7069:7071   */\n      0x20\n        /* \"#utility.yul\":7058:7067   */\n      dup3\n        /* \"#utility.yul\":7054:7072   */\n      add\n        /* \"#utility.yul\":7046:7072   */\n      swap1\n      pop\n        /* \"#utility.yul\":7118:7127   */\n      dup2\n        /* \"#utility.yul\":7112:7116   */\n      dup2\n        /* \"#utility.yul\":7108:7128   */\n      sub\n        /* \"#utility.yul\":7104:7105   */\n      0x00\n        /* \"#utility.yul\":7093:7102   */\n      dup4\n        /* \"#utility.yul\":7089:7106   */\n      add\n        /* \"#utility.yul\":7082:7129   */\n      mstore\n        /* \"#utility.yul\":7146:7277   */\n      tag_254\n        /* \"#utility.yul\":7272:7276   */\n      dup2\n        /* \"#utility.yul\":7146:7277   */\n      tag_209\n      jump\t// in\n    tag_254:\n        /* \"#utility.yul\":7138:7277   */\n      swap1\n      pop\n        /* \"#utility.yul\":6865:7284   */\n      swap2\n      swap1\n      pop\n      jump\t// out\n        /* \"#utility.yul\":7290:7709   */\n    tag_107:\n        /* \"#utility.yul\":7456:7460   */\n      0x00\n        /* \"#utility.yul\":7494:7496   */\n      0x20\n        /* \"#utility.yul\":7483:7492   */\n      dup3\n        /* \"#utility.yul\":7479:7497   */\n      add\n        /* \"#utility.yul\":7471:7497   */\n      swap1\n      pop\n        /* \"#utility.yul\":7543:7552   */\n      dup2\n        /* \"#utility.yul\":7537:7541   */\n      dup2\n        /* \"#utility.yul\":7533:7553   */\n      sub\n        /* \"#utility.yul\":7529:7530   */\n      0x00\n        /* \"#utility.yul\":7518:7527   */\n      dup4\n        /* \"#utility.yul\":7514:7531   */\n      add\n        /* \"#utility.yul\":7507:7554   */\n      mstore\n        /* \"#utility.yul\":7571:7702   */\n      tag_256\n        /* \"#utility.yul\":7697:7701   */\n      dup2\n        /* \"#utility.yul\":7571:7702   */\n      tag_214\n      jump\t// in\n    tag_256:\n        /* \"#utility.yul\":7563:7702   */\n      swap1\n      pop\n        /* \"#utility.yul\":7290:7709   */\n      swap2\n      swap1\n      pop\n      jump\t// out\n        /* \"#utility.yul\":7715:8134   */\n    tag_117:\n        /* \"#utility.yul\":7881:7885   */\n      0x00\n        /* \"#utility.yul\":7919:7921   */\n      0x20\n        /* \"#utility.yul\":7908:7917   */\n      dup3\n        /* \"#utility.yul\":7904:7922   */\n      add\n        /* \"#utility.yul\":7896:7922   */\n      swap1\n      pop\n        /* \"#utility.yul\":7968:7977   */\n      dup2\n        /* \"#utility.yul\":7962:7966   */\n      dup2\n        /* \"#utility.yul\":7958:7978   */\n      sub\n        /* \"#utility.yul\":7954:7955   */\n      0x00\n        /* \"#utility.yul\":7943:7952   */\n      dup4\n        /* \"#utility.yul\":7939:7956   */\n      add\n        /* \"#utility.yul\":7932:7979   */\n      mstore\n        /* \"#utility.yul\":7996:8127   */\n      tag_258\n        /* \"#utility.yul\":8122:8126   */\n      dup2\n        /* \"#utility.yul\":7996:8127   */\n      tag_219\n      jump\t// in\n    tag_258:\n        /* \"#utility.yul\":7988:8127   */\n      swap1\n      pop\n        /* \"#utility.yul\":7715:8134   */\n      swap2\n      swap1\n      pop\n      jump\t// out\n        /* \"#utility.yul\":8140:8559   */\n    tag_125:\n        /* \"#utility.yul\":8306:8310   */\n      0x00\n        /* \"#utility.yul\":8344:8346   */\n      0x20\n        /* \"#utility.yul\":8333:8342   */\n      dup3\n        /* \"#utility.yul\":8329:8347   */\n      add\n        /* \"#utility.yul\":8321:8347   */\n      swap1\n      pop\n        /* \"#utility.yul\":8393:8402   */\n      dup2\n        /* \"#utility.yul\":8387:8391   */\n      dup2\n        /* \"#utility.yul\":8383:8403   */\n      sub\n        /* \"#utility.yul\":8379:8380   */\n      0x00\n        /* \"#utility.yul\":8368:8377   */\n      dup4\n        /* \"#utility.yul\":8364:8381   */\n      add\n        /* \"#utility.yul\":8357:8404   */\n      mstore\n        /* \"#utility.yul\":8421:8552   */\n      tag_260\n        /* \"#utility.yul\":8547:8551   */\n      dup2\n        /* \"#utility.yul\":8421:8552   */\n      tag_224\n      jump\t// in\n    tag_260:\n        /* \"#utility.yul\":8413:8552   */\n      swap1\n      pop\n        /* \"#utility.yul\":8140:8559   */\n      swap2\n      swap1\n      pop\n      jump\t// out\n        /* \"#utility.yul\":8565:8984   */\n    tag_110:\n        /* \"#utility.yul\":8731:8735   */\n      0x00\n        /* \"#utility.yul\":8769:8771   */\n      0x20\n        /* \"#utility.yul\":8758:8767   */\n      dup3\n        /* \"#utility.yul\":8754:8772   */\n      add\n        /* \"#utility.yul\":8746:8772   */\n      swap1\n      pop\n        /* \"#utility.yul\":8818:8827   */\n      dup2\n        /* \"#utility.yul\":8812:8816   */\n      dup2\n        /* \"#utility.yul\":8808:8828   */\n      sub\n        /* \"#utility.yul\":8804:8805   */\n      0x00\n        /* \"#utility.yul\":8793:8802   */\n      dup4\n        /* \"#utility.yul\":8789:8806   */\n      add\n        /* \"#utility.yul\":8782:8829   */\n      mstore\n        /* \"#utility.yul\":8846:8977   */\n      tag_262\n        /* \"#utility.yul\":8972:8976   */\n      dup2\n        /* \"#utility.yul\":8846:8977   */\n      tag_229\n      jump\t// in\n    tag_262:\n        /* \"#utility.yul\":8838:8977   */\n      swap1\n      pop\n        /* \"#utility.yul\":8565:8984   */\n      swap2\n      swap1\n      pop\n      jump\t// out\n        /* \"#utility.yul\":8990:9409   */\n    tag_101:\n        /* \"#utility.yul\":9156:9160   */\n      0x00\n        /* \"#utility.yul\":9194:9196   */\n      0x20\n        /* \"#utility.yul\":9183:9192   */\n      dup3\n        /* \"#utility.yul\":9179:9197   */\n      add\n        /* \"#utility.yul\":9171:9197   */\n      swap1\n      pop\n        /* \"#utility.yul\":9243:9252   */\n      dup2\n        /* \"#utility.yul\":9237:9241   */\n      dup2\n        /* \"#utility.yul\":9233:9253   */\n      sub\n        /* \"#utility.yul\":9229:9230   */\n      0x00\n        /* \"#utility.yul\":9218:9227   */\n      dup4\n        /* \"#utility.yul\":9214:9231   */\n      add\n        /* \"#utility.yul\":9207:9254   */\n      mstore\n        /* \"#utility.yul\":9271:9402   */\n      tag_264\n        /* \"#utility.yul\":9397:9401   */\n      dup2\n        /* \"#utility.yul\":9271:9402   */\n      tag_234\n      jump\t// in\n    tag_264:\n        /* \"#utility.yul\":9263:9402   */\n      swap1\n      pop\n        /* \"#utility.yul\":8990:9409   */\n      swap2\n      swap1\n      pop\n      jump\t// out\n        /* \"#utility.yul\":9415:9637   */\n    tag_44:\n        /* \"#utility.yul\":9508:9512   */\n      0x00\n        /* \"#utility.yul\":9546:9548   */\n      0x20\n        /* \"#utility.yul\":9535:9544   */\n      dup3\n        /* \"#utility.yul\":9531:9549   */\n      add\n        /* \"#utility.yul\":9523:9549   */\n      swap1\n      pop\n        /* \"#utility.yul\":9559:9630   */\n      tag_266\n        /* \"#utility.yul\":9627:9628   */\n      0x00\n        /* \"#utility.yul\":9616:9625   */\n      dup4\n        /* \"#utility.yul\":9612:9629   */\n      add\n        /* \"#utility.yul\":9603:9609   */\n      dup5\n        /* \"#utility.yul\":9559:9630   */\n      tag_239\n      jump\t// in\n    tag_266:\n        /* \"#utility.yul\":9415:9637   */\n      swap3\n      swap2\n      pop\n      pop\n      jump\t// out\n        /* \"#utility.yul\":9724:9893   */\n    tag_196:\n        /* \"#utility.yul\":9808:9819   */\n      0x00\n        /* \"#utility.yul\":9842:9848   */\n      dup3\n        /* \"#utility.yul\":9837:9840   */\n      dup3\n        /* \"#utility.yul\":9830:9849   */\n      mstore\n        /* \"#utility.yul\":9882:9886   */\n      0x20\n        /* \"#utility.yul\":9877:9880   */\n      dup3\n        /* \"#utility.yul\":9873:9887   */\n      add\n        /* \"#utility.yul\":9858:9887   */\n      swap1\n      pop\n        /* \"#utility.yul\":9724:9893   */\n      swap3\n      swap2\n      pop\n      pop\n      jump\t// out\n        /* \"#utility.yul\":9899:10204   */\n    tag_119:\n        /* \"#utility.yul\":9939:9942   */\n      0x00\n        /* \"#utility.yul\":9958:9978   */\n      tag_271\n        /* \"#utility.yul\":9976:9977   */\n      dup3\n        /* \"#utility.yul\":9958:9978   */\n      tag_242\n      jump\t// in\n    tag_271:\n        /* \"#utility.yul\":9953:9978   */\n      swap2\n      pop\n        /* \"#utility.yul\":9992:10012   */\n      tag_272\n        /* \"#utility.yul\":10010:10011   */\n      dup4\n        /* \"#utility.yul\":9992:10012   */\n      tag_242\n      jump\t// in\n    tag_272:\n        /* \"#utility.yul\":9987:10012   */\n      swap3\n      pop\n        /* \"#utility.yul\":10146:10147   */\n      dup3\n        /* \"#utility.yul\":10078:10144   */\n      0xffffffffffffffffffffffffffffffffffffffffffffffffffffffffffffffff\n        /* \"#utility.yul\":10074:10148   */\n      sub\n        /* \"#utility.yul\":10071:10072   */\n      dup3\n        /* \"#utility.yul\":10068:10149   */\n      gt\n        /* \"#utility.yul\":10065:10172   */\n      iszero\n      tag_273\n      jumpi\n        /* \"#utility.yul\":10152:10170   */\n      tag_274\n      tag_275\n      jump\t// in\n    tag_274:\n        /* \"#utility.yul\":10065:10172   */\n    tag_273:\n        /* \"#utility.yul\":10196:10197   */\n      dup3\n        /* \"#utility.yul\":10193:10194   */\n      dup3\n        /* \"#utility.yul\":10189:10198   */\n      add\n        /* \"#utility.yul\":10182:10198   */\n      swap1\n      pop\n        /* \"#utility.yul\":9899:10204   */\n      swap3\n      swap2\n      pop\n      pop\n      jump\t// out\n        /* \"#utility.yul\":10210:10395   */\n    tag_143:\n        /* \"#utility.yul\":10250:10251   */\n      0x00\n        /* \"#utility.yul\":10267:10287   */\n      tag_277\n        /* \"#utility.yul\":10285:10286   */\n      dup3\n        /* \"#utility.yul\":10267:10287   */\n      tag_242\n      jump\t// in\n    tag_277:\n        /* \"#utility.yul\":10262:10287   */\n      swap2\n      pop\n        /* \"#utility.yul\":10301:10321   */\n      tag_278\n        /* \"#utility.yul\":10319:10320   */\n      dup4\n        /* \"#utility.yul\":10301:10321   */\n      tag_242\n      jump\t// in\n    tag_278:\n        /* \"#utility.yul\":10296:10321   */\n      swap3\n      pop\n        /* \"#utility.yul\":10340:10341   */\n      dup3\n        /* \"#utility.yul\":10330:10365   */\n      tag_279\n      jumpi\n        /* \"#utility.yul\":10345:10363   */\n      tag_280\n      tag_281\n      jump\t// in\n    tag_280:\n        /* \"#utility.yul\":10330:10365   */\n    tag_279:\n        /* \"#utility.yul\":10387:10388   */\n      dup3\n        /* \"#utility.yul\":10384:10385   */\n      dup3\n        /* \"#utility.yul\":10380:10389   */\n      div\n        /* \"#utility.yul\":10375:10389   */\n      swap1\n      pop\n        /* \"#utility.yul\":10210:10395   */\n      swap3\n      swap2\n      pop\n      pop\n      jump\t// out\n        /* \"#utility.yul\":10401:10749   */\n    tag_149:\n        /* \"#utility.yul\":10441:10448   */\n      0x00\n        /* \"#utility.yul\":10464:10484   */\n      tag_283\n        /* \"#utility.yul\":10482:10483   */\n      dup3\n        /* \"#utility.yul\":10464:10484   */\n      tag_242\n      jump\t// in\n    tag_283:\n        /* \"#utility.yul\":10459:10484   */\n      swap2\n      pop\n        /* \"#utility.yul\":10498:10518   */\n      tag_284\n        /* \"#utility.yul\":10516:10517   */\n      dup4\n        /* \"#utility.yul\":10498:10518   */\n      tag_242\n      jump\t// in\n    tag_284:\n        /* \"#utility.yul\":10493:10518   */\n      swap3\n      pop\n        /* \"#utility.yul\":10686:10687   */\n      dup2\n        /* \"#utility.yul\":10618:10684   */\n      0xffffffffffffffffffffffffffffffffffffffffffffffffffffffffffffffff\n        /* \"#utility.yul\":10614:10688   */\n      div\n        /* \"#utility.yul\":10611:10612   */\n      dup4\n        /* \"#utility.yul\":10608:10689   */\n      gt\n        /* \"#utility.yul\":10603:10604   */\n      dup3\n        /* \"#utility.yul\":10596:10605   */\n      iszero\n        /* \"#utility.yul\":10589:10606   */\n      iszero\n        /* \"#utility.yul\":10585:10690   */\n      and\n        /* \"#utility.yul\":10582:10713   */\n      iszero\n      tag_285\n      jumpi\n        /* \"#utility.yul\":10693:10711   */\n      tag_286\n      tag_275\n      jump\t// in\n    tag_286:\n        /* \"#utility.yul\":10582:10713   */\n    tag_285:\n        /* \"#utility.yul\":10741:10742   */\n      dup3\n        /* \"#utility.yul\":10738:10739   */\n      dup3\n        /* \"#utility.yul\":10734:10743   */\n      mul\n        /* \"#utility.yul\":10723:10743   */\n      swap1\n      pop\n        /* \"#utility.yul\":10401:10749   */\n      swap3\n      swap2\n      pop\n      pop\n      jump\t// out\n        /* \"#utility.yul\":10755:10946   */\n    tag_152:\n        /* \"#utility.yul\":10795:10799   */\n      0x00\n        /* \"#utility.yul\":10815:10835   */\n      tag_288\n        /* \"#utility.yul\":10833:10834   */\n      dup3\n        /* \"#utility.yul\":10815:10835   */\n      tag_242\n      jump\t// in\n    tag_288:\n        /* \"#utility.yul\":10810:10835   */\n      swap2\n      pop\n        /* \"#utility.yul\":10849:10869   */\n      tag_289\n        /* \"#utility.yul\":10867:10868   */\n      dup4\n        /* \"#utility.yul\":10849:10869   */\n      tag_242\n      jump\t// in\n    tag_289:\n        /* \"#utility.yul\":10844:10869   */\n      swap3\n      pop\n        /* \"#utility.yul\":10888:10889   */\n      dup3\n        /* \"#utility.yul\":10885:10886   */\n      dup3\n        /* \"#utility.yul\":10882:10890   */\n      lt\n        /* \"#utility.yul\":10879:10913   */\n      iszero\n      tag_290\n      jumpi\n        /* \"#utility.yul\":10893:10911   */\n      tag_291\n      tag_275\n      jump\t// in\n    tag_291:\n        /* \"#utility.yul\":10879:10913   */\n    tag_290:\n        /* \"#utility.yul\":10938:10939   */\n      dup3\n        /* \"#utility.yul\":10935:10936   */\n      dup3\n        /* \"#utility.yul\":10931:10940   */\n      sub\n        /* \"#utility.yul\":10923:10940   */\n      swap1\n      pop\n        /* \"#utility.yul\":10755:10946   */\n      swap3\n      swap2\n      pop\n      pop\n      jump\t// out\n        /* \"#utility.yul\":10952:11048   */\n    tag_188:\n        /* \"#utility.yul\":10989:10996   */\n      0x00\n        /* \"#utility.yul\":11018:11042   */\n      tag_293\n        /* \"#utility.yul\":11036:11041   */\n      dup3\n        /* \"#utility.yul\":11018:11042   */\n      tag_294\n      jump\t// in\n    tag_293:\n        /* \"#utility.yul\":11007:11042   */\n      swap1\n      pop\n        /* \"#utility.yul\":10952:11048   */\n      swap2\n      swap1\n      pop\n      jump\t// out\n        /* \"#utility.yul\":11054:11144   */\n    tag_192:\n        /* \"#utility.yul\":11088:11095   */\n      0x00\n        /* \"#utility.yul\":11131:11136   */\n      dup2\n        /* \"#utility.yul\":11124:11137   */\n      iszero\n        /* \"#utility.yul\":11117:11138   */\n      iszero\n        /* \"#utility.yul\":11106:11138   */\n      swap1\n      pop\n        /* \"#utility.yul\":11054:11144   */\n      swap2\n      swap1\n      pop\n      jump\t// out\n        /* \"#utility.yul\":11150:11276   */\n    tag_294:\n        /* \"#utility.yul\":11187:11194   */\n      0x00\n        /* \"#utility.yul\":11227:11269   */\n      0xffffffffffffffffffffffffffffffffffffffff\n        /* \"#utility.yul\":11220:11225   */\n      dup3\n        /* \"#utility.yul\":11216:11270   */\n      and\n        /* \"#utility.yul\":11205:11270   */\n      swap1\n      pop\n        /* \"#utility.yul\":11150:11276   */\n      swap2\n      swap1\n      pop\n      jump\t// out\n        /* \"#utility.yul\":11282:11359   */\n    tag_242:\n        /* \"#utility.yul\":11319:11326   */\n      0x00\n        /* \"#utility.yul\":11348:11353   */\n      dup2\n        /* \"#utility.yul\":11337:11353   */\n      swap1\n      pop\n        /* \"#utility.yul\":11282:11359   */\n      swap2\n      swap1\n      pop\n      jump\t// out\n        /* \"#utility.yul\":11365:11598   */\n    tag_146:\n        /* \"#utility.yul\":11404:11407   */\n      0x00\n        /* \"#utility.yul\":11427:11451   */\n      tag_299\n        /* \"#utility.yul\":11445:11450   */\n      dup3\n        /* \"#utility.yul\":11427:11451   */\n      tag_242\n      jump\t// in\n    tag_299:\n        /* \"#utility.yul\":11418:11451   */\n      swap2\n      pop\n        /* \"#utility.yul\":11473:11539   */\n      0xffffffffffffffffffffffffffffffffffffffffffffffffffffffffffffffff\n        /* \"#utility.yul\":11466:11471   */\n      dup3\n        /* \"#utility.yul\":11463:11540   */\n      eq\n        /* \"#utility.yul\":11460:11563   */\n      iszero\n      tag_300\n      jumpi\n        /* \"#utility.yul\":11543:11561   */\n      tag_301\n      tag_275\n      jump\t// in\n    tag_301:\n        /* \"#utility.yul\":11460:11563   */\n    tag_300:\n        /* \"#utility.yul\":11590:11591   */\n      0x01\n        /* \"#utility.yul\":11583:11588   */\n      dup3\n        /* \"#utility.yul\":11579:11592   */\n      add\n        /* \"#utility.yul\":11572:11592   */\n      swap1\n      pop\n        /* \"#utility.yul\":11365:11598   */\n      swap2\n      swap1\n      pop\n      jump\t// out\n        /* \"#utility.yul\":11604:11784   */\n    tag_275:\n        /* \"#utility.yul\":11652:11729   */\n      0x4e487b7100000000000000000000000000000000000000000000000000000000\n        /* \"#utility.yul\":11649:11650   */\n      0x00\n        /* \"#utility.yul\":11642:11730   */\n      mstore\n        /* \"#utility.yul\":11749:11753   */\n      0x11\n        /* \"#utility.yul\":11746:11747   */\n      0x04\n        /* \"#utility.yul\":11739:11754   */\n      mstore\n        /* \"#utility.yul\":11773:11777   */\n      0x24\n        /* \"#utility.yul\":11770:11771   */\n      0x00\n        /* \"#utility.yul\":11763:11778   */\n      revert\n        /* \"#utility.yul\":11790:11970   */\n    tag_281:\n        /* \"#utility.yul\":11838:11915   */\n      0x4e487b7100000000000000000000000000000000000000000000000000000000\n        /* \"#utility.yul\":11835:11836   */\n      0x00\n        /* \"#utility.yul\":11828:11916   */\n      mstore\n        /* \"#utility.yul\":11935:11939   */\n      0x12\n        /* \"#utility.yul\":11932:11933   */\n      0x04\n        /* \"#utility.yul\":11925:11940   */\n      mstore\n        /* \"#utility.yul\":11959:11963   */\n      0x24\n        /* \"#utility.yul\":11956:11957   */\n      0x00\n        /* \"#utility.yul\":11949:11964   */\n      revert\n        /* \"#utility.yul\":11976:12156   */\n    tag_140:\n        /* \"#utility.yul\":12024:12101   */\n      0x4e487b7100000000000000000000000000000000000000000000000000000000\n        /* \"#utility.yul\":12021:12022   */\n      0x00\n        /* \"#utility.yul\":12014:12102   */\n      mstore\n        /* \"#utility.yul\":12121:12125   */\n      0x32\n        /* \"#utility.yul\":12118:12119   */\n      0x04\n        /* \"#utility.yul\":12111:12126   */\n      mstore\n        /* \"#utility.yul\":12145:12149   */\n      0x24\n        /* \"#utility.yul\":12142:12143   */\n      0x00\n        /* \"#utility.yul\":12135:12150   */\n      revert\n        /* \"#utility.yul\":12285:12402   */\n    tag_175:\n        /* \"#utility.yul\":12394:12395   */\n      0x00\n        /* \"#utility.yul\":12391:12392   */\n      dup1\n        /* \"#utility.yul\":12384:12396   */\n      revert\n        /* \"#utility.yul\":12408:12575   */\n    tag_198:\n        /* \"#utility.yul\":12548:12567   */\n      0x45746865722063616e6e6f742062652030000000000000000000000000000000\n        /* \"#utility.yul\":12544:12545   */\n      0x00\n        /* \"#utility.yul\":12536:12542   */\n      dup3\n        /* \"#utility.yul\":12532:12546   */\n      add\n        /* \"#utility.yul\":12525:12568   */\n      mstore\n        /* \"#utility.yul\":12408:12575   */\n      pop\n      jump\t// out\n        /* \"#utility.yul\":12581:12755   */\n    tag_203:\n        /* \"#utility.yul\":12721:12747   */\n      0x63616c6c6572206d75737420626520746865206f776e65720000000000000000\n        /* \"#utility.yul\":12717:12718   */\n      0x00\n        /* \"#utility.yul\":12709:12715   */\n      dup3\n        /* \"#utility.yul\":12705:12719   */\n      add\n        /* \"#utility.yul\":12698:12748   */\n      mstore\n        /* \"#utility.yul\":12581:12755   */\n      pop\n      jump\t// out\n        /* \"#utility.yul\":12761:12932   */\n    tag_208:\n        /* \"#utility.yul\":12901:12924   */\n      0x596f7520617265206e6f7420746865206f776e65720000000000000000000000\n        /* \"#utility.yul\":12897:12898   */\n      0x00\n        /* \"#utility.yul\":12889:12895   */\n      dup3\n        /* \"#utility.yul\":12885:12899   */\n      add\n        /* \"#utility.yul\":12878:12925   */\n      mstore\n        /* \"#utility.yul\":12761:12932   */\n      pop\n      jump\t// out\n        /* \"#utility.yul\":12938:13163   */\n    tag_213:\n        /* \"#utility.yul\":13078:13112   */\n      0x3125207265776172642063616e20626520697373756564206166746572203234\n        /* \"#utility.yul\":13074:13075   */\n      0x00\n        /* \"#utility.yul\":13066:13072   */\n      dup3\n        /* \"#utility.yul\":13062:13076   */\n      add\n        /* \"#utility.yul\":13055:13113   */\n      mstore\n        /* \"#utility.yul\":13147:13155   */\n      0x20686f7572730000000000000000000000000000000000000000000000000000\n        /* \"#utility.yul\":13142:13144   */\n      0x20\n        /* \"#utility.yul\":13134:13140   */\n      dup3\n        /* \"#utility.yul\":13130:13145   */\n      add\n        /* \"#utility.yul\":13123:13156   */\n      mstore\n        /* \"#utility.yul\":12938:13163   */\n      pop\n      jump\t// out\n        /* \"#utility.yul\":13169:13389   */\n    tag_218:\n        /* \"#utility.yul\":13309:13343   */\n      0x4f6e6c79206f776e65722063616e2070617573652074686520636f6e74726163\n        /* \"#utility.yul\":13305:13306   */\n      0x00\n        /* \"#utility.yul\":13297:13303   */\n      dup3\n        /* \"#utility.yul\":13293:13307   */\n      add\n        /* \"#utility.yul\":13286:13344   */\n      mstore\n        /* \"#utility.yul\":13378:13381   */\n      0x7400000000000000000000000000000000000000000000000000000000000000\n        /* \"#utility.yul\":13373:13375   */\n      0x20\n        /* \"#utility.yul\":13365:13371   */\n      dup3\n        /* \"#utility.yul\":13361:13376   */\n      add\n        /* \"#utility.yul\":13354:13382   */\n      mstore\n        /* \"#utility.yul\":13169:13389   */\n      pop\n      jump\t// out\n        /* \"#utility.yul\":13395:13558   */\n    tag_223:\n        /* \"#utility.yul\":13535:13550   */\n      0x5573657220426c6f636b65642100000000000000000000000000000000000000\n        /* \"#utility.yul\":13531:13532   */\n      0x00\n        /* \"#utility.yul\":13523:13529   */\n      dup3\n        /* \"#utility.yul\":13519:13533   */\n      add\n        /* \"#utility.yul\":13512:13551   */\n      mstore\n        /* \"#utility.yul\":13395:13558   */\n      pop\n      jump\t// out\n        /* \"#utility.yul\":13564:13743   */\n    tag_228:\n        /* \"#utility.yul\":13704:13735   */\n      0x4f6e6c79206f776e65722063616e20626c6f636b207468652075736572000000\n        /* \"#utility.yul\":13700:13701   */\n      0x00\n        /* \"#utility.yul\":13692:13698   */\n      dup3\n        /* \"#utility.yul\":13688:13702   */\n      add\n        /* \"#utility.yul\":13681:13736   */\n      mstore\n        /* \"#utility.yul\":13564:13743   */\n      pop\n      jump\t// out\n        /* \"#utility.yul\":13749:13914   */\n    tag_233:\n        /* \"#utility.yul\":13889:13906   */\n      0x436f6e7472616374205061757365640000000000000000000000000000000000\n        /* \"#utility.yul\":13885:13886   */\n      0x00\n        /* \"#utility.yul\":13877:13883   */\n      dup3\n        /* \"#utility.yul\":13873:13887   */\n      add\n        /* \"#utility.yul\":13866:13907   */\n      mstore\n        /* \"#utility.yul\":13749:13914   */\n      pop\n      jump\t// out\n        /* \"#utility.yul\":13920:14144   */\n    tag_238:\n        /* \"#utility.yul\":14060:14094   */\n      0x7374616b696e672042616c616e63652063616e6e6f74206265206c6573732074\n        /* \"#utility.yul\":14056:14057   */\n      0x00\n        /* \"#utility.yul\":14048:14054   */\n      dup3\n        /* \"#utility.yul\":14044:14058   */\n      add\n        /* \"#utility.yul\":14037:14095   */\n      mstore\n        /* \"#utility.yul\":14129:14136   */\n      0x68616e2030000000000000000000000000000000000000000000000000000000\n        /* \"#utility.yul\":14124:14126   */\n      0x20\n        /* \"#utility.yul\":14116:14122   */\n      dup3\n        /* \"#utility.yul\":14112:14127   */\n      add\n        /* \"#utility.yul\":14105:14137   */\n      mstore\n        /* \"#utility.yul\":13920:14144   */\n      pop\n      jump\t// out\n        /* \"#utility.yul\":14150:14272   */\n    tag_163:\n        /* \"#utility.yul\":14223:14247   */\n      tag_318\n        /* \"#utility.yul\":14241:14246   */\n      dup2\n        /* \"#utility.yul\":14223:14247   */\n      tag_188\n      jump\t// in\n    tag_318:\n        /* \"#utility.yul\":14216:14221   */\n      dup2\n        /* \"#utility.yul\":14213:14248   */\n      eq\n        /* \"#utility.yul\":14203:14266   */\n      tag_319\n      jumpi\n        /* \"#utility.yul\":14262:14263   */\n      0x00\n        /* \"#utility.yul\":14259:14260   */\n      dup1\n        /* \"#utility.yul\":14252:14264   */\n      revert\n        /* \"#utility.yul\":14203:14266   */\n    tag_319:\n        /* \"#utility.yul\":14150:14272   */\n      pop\n      jump\t// out\n        /* \"#utility.yul\":14278:14394   */\n    tag_167:\n        /* \"#utility.yul\":14348:14369   */\n      tag_321\n        /* \"#utility.yul\":14363:14368   */\n      dup2\n        /* \"#utility.yul\":14348:14369   */\n      tag_192\n      jump\t// in\n    tag_321:\n        /* \"#utility.yul\":14341:14346   */\n      dup2\n        /* \"#utility.yul\":14338:14370   */\n      eq\n        /* \"#utility.yul\":14328:14388   */\n      tag_322\n      jumpi\n        /* \"#utility.yul\":14384:14385   */\n      0x00\n        /* \"#utility.yul\":14381:14382   */\n      dup1\n        /* \"#utility.yul\":14374:14386   */\n      revert\n        /* \"#utility.yul\":14328:14388   */\n    tag_322:\n        /* \"#utility.yul\":14278:14394   */\n      pop\n      jump\t// out\n        /* \"#utility.yul\":14400:14522   */\n    tag_171:\n        /* \"#utility.yul\":14473:14497   */\n      tag_324\n        /* \"#utility.yul\":14491:14496   */\n      dup2\n        /* \"#utility.yul\":14473:14497   */\n      tag_242\n      jump\t// in\n    tag_324:\n        /* \"#utility.yul\":14466:14471   */\n      dup2\n        /* \"#utility.yul\":14463:14498   */\n      eq\n        /* \"#utility.yul\":14453:14516   */\n      tag_325\n      jumpi\n        /* \"#utility.yul\":14512:14513   */\n      0x00\n        /* \"#utility.yul\":14509:14510   */\n      dup1\n        /* \"#utility.yul\":14502:14514   */\n      revert\n        /* \"#utility.yul\":14453:14516   */\n    tag_325:\n        /* \"#utility.yul\":14400:14522   */\n      pop\n      jump\t// out\n\n    auxdata: 0xa264697066735822122032f4c2415b9d9b9c2976112c87706d74c02977ab85b25da6cb7fe4cf4aba34c764736f6c63430008070033\n}\n",
				"bytecode": {
					"linkReferences": {},
					"object": "60806040524260025534801561001457600080fd5b50336000806101000a81548173ffffffffffffffffffffffffffffffffffffffff021916908373ffffffffffffffffffffffffffffffffffffffff160217905550611667806100646000396000f3fe6080604052600436106100fe5760003560e01c80636f49712b11610095578063c93c8f3411610064578063c93c8f34146102de578063d8270dce1461031b578063dfa20f0a14610346578063f765fd8f1461035d578063fd5e6dd114610374576100fe565b80636f49712b1461022257806375c96c5d1461025f5780638da5cb5b14610288578063b0370e0c146102b3576100fe565b806345bc78ab116100d157806345bc78ab146101855780634626402b146101c257806351ed6a30146101ed5780635c975abb146101f7576100fe565b8063021a89ad1461010357806316c38b3c1461012e57806320eb640c14610157578063439766ce1461016e575b600080fd5b34801561010f57600080fd5b506101186103b1565b604051610125919061106a565b60405180910390f35b34801561013a57600080fd5b5061015560048036038101906101509190610e8d565b6103c4565b005b34801561016357600080fd5b5061016c61046f565b005b34801561017a57600080fd5b5061018361064b565b005b34801561019157600080fd5b506101ac60048036038101906101a79190610e60565b610731565b6040516101b991906111a5565b60405180910390f35b3480156101ce57600080fd5b506101d7610749565b6040516101e491906111a5565b60405180910390f35b6101f561074f565b005b34801561020357600080fd5b5061020c6109a5565b604051610219919061106a565b60405180910390f35b34801561022e57600080fd5b5061024960048036038101906102449190610e60565b6109b8565b604051610256919061106a565b60405180910390f35b34801561026b57600080fd5b5061028660048036038101906102819190610e8d565b6109d8565b005b34801561029457600080fd5b5061029d610a83565b6040516102aa919061104f565b60405180910390f35b3480156102bf57600080fd5b506102c8610aa7565b6040516102d591906111a5565b60405180910390f35b3480156102ea57600080fd5b5061030560048036038101906103009190610e60565b610c5c565b604051610312919061106a565b60405180910390f35b34801561032757600080fd5b50610330610c7c565b60405161033d91906111a5565b60405180910390f35b34801561035257600080fd5b5061035b610c82565b005b34801561036957600080fd5b50610372610d32565b005b34801561038057600080fd5b5061039b60048036038101906103969190610eba565b610de2565b6040516103a8919061104f565b60405180910390f35b600060159054906101000a900460ff1681565b60008054906101000a900473ffffffffffffffffffffffffffffffffffffffff1673ffffffffffffffffffffffffffffffffffffffff163373ffffffffffffffffffffffffffffffffffffffff1614610452576040517f08c379a0000000000000000000000000000000000000000000000000000000008152600401610449906110c5565b60405180910390fd5b80600060146101000a81548160ff02191690831515021790555050565b6000600460003373ffffffffffffffffffffffffffffffffffffffff1673ffffffffffffffffffffffffffffffffffffffff168152602001908152602001600020549050600081116104f6576040517f08c379a00000000000000000000000000000000000000000000000000000000081526004016104ed90611185565b60405180910390fd5b6000600460003373ffffffffffffffffffffffffffffffffffffffff1673ffffffffffffffffffffffffffffffffffffffff16815260200190815260200160002081905550600560003373ffffffffffffffffffffffffffffffffffffffff1673ffffffffffffffffffffffffffffffffffffffff16815260200190815260200160002060009054906101000a900460ff166105f0576003339080600181540180825580915050600190039060005260206000200160009091909190916101000a81548173ffffffffffffffffffffffffffffffffffffffff021916908373ffffffffffffffffffffffffffffffffffffffff1602179055505b6000600660003373ffffffffffffffffffffffffffffffffffffffff1673ffffffffffffffffffffffffffffffffffffffff16815260200190815260200160002060006101000a81548160ff02191690831515021790555050565b60008054906101000a900473ffffffffffffffffffffffffffffffffffffffff1673ffffffffffffffffffffffffffffffffffffffff163373ffffffffffffffffffffffffffffffffffffffff16146106d9576040517f08c379a00000000000000000000000000000000000000000000000000000000081526004016106d090611105565b60405180910390fd5b60001515600060149054906101000a900460ff1615151461072f576040517f08c379a000000000000000000000000000000000000000000000000000000000815260040161072690611165565b60405180910390fd5b565b60046020528060005260406000206000915090505481565b60015481565b60003411610792576040517f08c379a000000000000000000000000000000000000000000000000000000000815260040161078990611085565b60405180910390fd5b60001515600060159054906101000a900460ff161515146107e8576040517f08c379a00000000000000000000000000000000000000000000000000000000081526004016107df90611125565b60405180910390fd5b34600460003373ffffffffffffffffffffffffffffffffffffffff1673ffffffffffffffffffffffffffffffffffffffff168152602001908152602001600020600082825461083791906111d1565b92505081905550600560003373ffffffffffffffffffffffffffffffffffffffff1673ffffffffffffffffffffffffffffffffffffffff16815260200190815260200160002060009054906101000a900460ff166108f3576003339080600181540180825580915050600190039060005260206000200160009091909190916101000a81548173ffffffffffffffffffffffffffffffffffffffff021916908373ffffffffffffffffffffffffffffffffffffffff1602179055505b6001600660003373ffffffffffffffffffffffffffffffffffffffff1673ffffffffffffffffffffffffffffffffffffffff16815260200190815260200160002060006101000a81548160ff0219169083151502179055506001600560003373ffffffffffffffffffffffffffffffffffffffff1673ffffffffffffffffffffffffffffffffffffffff16815260200190815260200160002060006101000a81548160ff021916908315150217905550565b600060149054906101000a900460ff1681565b60066020528060005260406000206000915054906101000a900460ff1681565b60008054906101000a900473ffffffffffffffffffffffffffffffffffffffff1673ffffffffffffffffffffffffffffffffffffffff163373ffffffffffffffffffffffffffffffffffffffff1614610a66576040517f08c379a0000000000000000000000000000000000000000000000000000000008152600401610a5d90611145565b60405180910390fd5b80600060156101000a81548160ff02191690831515021790555050565b60008054906101000a900473ffffffffffffffffffffffffffffffffffffffff1681565b600062015180600254610aba91906111d1565b804211610afc576040517f08c379a0000000000000000000000000000000000000000000000000000000008152600401610af3906110e5565b60405180910390fd5b60008054906101000a900473ffffffffffffffffffffffffffffffffffffffff1673ffffffffffffffffffffffffffffffffffffffff163373ffffffffffffffffffffffffffffffffffffffff1614610b8a576040517f08c379a0000000000000000000000000000000000000000000000000000000008152600401610b81906110a5565b60405180910390fd5b60005b600380549050811015610c5657600060038281548110610bb057610baf6113d5565b5b9060005260206000200160009054906101000a900473ffffffffffffffffffffffffffffffffffffffff16905060006064600460008473ffffffffffffffffffffffffffffffffffffffff1673ffffffffffffffffffffffffffffffffffffffff16815260200190815260200160002054610c2b9190611227565b90506000811115610c4157809450505050610c58565b50508080610c4e9061132e565b915050610b8d565b505b5090565b60056020528060005260406000206000915054906101000a900460ff1681565b60025481565b600060646005600460003373ffffffffffffffffffffffffffffffffffffffff1673ffffffffffffffffffffffffffffffffffffffff16815260200190815260200160002054610cd29190611258565b610cdc9190611227565b905080600460003373ffffffffffffffffffffffffffffffffffffffff1673ffffffffffffffffffffffffffffffffffffffff16815260200190815260200160002054610d2991906112b2565b60018190555050565b600060646005600460003373ffffffffffffffffffffffffffffffffffffffff1673ffffffffffffffffffffffffffffffffffffffff16815260200190815260200160002054610d829190611258565b610d8c9190611227565b905080600460003373ffffffffffffffffffffffffffffffffffffffff1673ffffffffffffffffffffffffffffffffffffffff16815260200190815260200160002054610dd991906111d1565b60018190555050565b60038181548110610df257600080fd5b906000526020600020016000915054906101000a900473ffffffffffffffffffffffffffffffffffffffff1681565b600081359050610e30816115ec565b92915050565b600081359050610e4581611603565b92915050565b600081359050610e5a8161161a565b92915050565b600060208284031215610e7657610e75611404565b5b6000610e8484828501610e21565b91505092915050565b600060208284031215610ea357610ea2611404565b5b6000610eb184828501610e36565b91505092915050565b600060208284031215610ed057610ecf611404565b5b6000610ede84828501610e4b565b91505092915050565b610ef0816112e6565b82525050565b610eff816112f8565b82525050565b6000610f126011836111c0565b9150610f1d82611409565b602082019050919050565b6000610f356018836111c0565b9150610f4082611432565b602082019050919050565b6000610f586015836111c0565b9150610f638261145b565b602082019050919050565b6000610f7b6026836111c0565b9150610f8682611484565b604082019050919050565b6000610f9e6021836111c0565b9150610fa9826114d3565b604082019050919050565b6000610fc1600d836111c0565b9150610fcc82611522565b602082019050919050565b6000610fe4601d836111c0565b9150610fef8261154b565b602082019050919050565b6000611007600f836111c0565b915061101282611574565b602082019050919050565b600061102a6025836111c0565b91506110358261159d565b604082019050919050565b61104981611324565b82525050565b60006020820190506110646000830184610ee7565b92915050565b600060208201905061107f6000830184610ef6565b92915050565b6000602082019050818103600083015261109e81610f05565b9050919050565b600060208201905081810360008301526110be81610f28565b9050919050565b600060208201905081810360008301526110de81610f4b565b9050919050565b600060208201905081810360008301526110fe81610f6e565b9050919050565b6000602082019050818103600083015261111e81610f91565b9050919050565b6000602082019050818103600083015261113e81610fb4565b9050919050565b6000602082019050818103600083015261115e81610fd7565b9050919050565b6000602082019050818103600083015261117e81610ffa565b9050919050565b6000602082019050818103600083015261119e8161101d565b9050919050565b60006020820190506111ba6000830184611040565b92915050565b600082825260208201905092915050565b60006111dc82611324565b91506111e783611324565b9250827fffffffffffffffffffffffffffffffffffffffffffffffffffffffffffffffff0382111561121c5761121b611377565b5b828201905092915050565b600061123282611324565b915061123d83611324565b92508261124d5761124c6113a6565b5b828204905092915050565b600061126382611324565b915061126e83611324565b9250817fffffffffffffffffffffffffffffffffffffffffffffffffffffffffffffffff04831182151516156112a7576112a6611377565b5b828202905092915050565b60006112bd82611324565b91506112c883611324565b9250828210156112db576112da611377565b5b828203905092915050565b60006112f182611304565b9050919050565b60008115159050919050565b600073ffffffffffffffffffffffffffffffffffffffff82169050919050565b6000819050919050565b600061133982611324565b91507fffffffffffffffffffffffffffffffffffffffffffffffffffffffffffffffff82141561136c5761136b611377565b5b600182019050919050565b7f4e487b7100000000000000000000000000000000000000000000000000000000600052601160045260246000fd5b7f4e487b7100000000000000000000000000000000000000000000000000000000600052601260045260246000fd5b7f4e487b7100000000000000000000000000000000000000000000000000000000600052603260045260246000fd5b600080fd5b7f45746865722063616e6e6f742062652030000000000000000000000000000000600082015250565b7f63616c6c6572206d75737420626520746865206f776e65720000000000000000600082015250565b7f596f7520617265206e6f7420746865206f776e65720000000000000000000000600082015250565b7f3125207265776172642063616e2062652069737375656420616674657220323460008201527f20686f7572730000000000000000000000000000000000000000000000000000602082015250565b7f4f6e6c79206f776e65722063616e2070617573652074686520636f6e7472616360008201527f7400000000000000000000000000000000000000000000000000000000000000602082015250565b7f5573657220426c6f636b65642100000000000000000000000000000000000000600082015250565b7f4f6e6c79206f776e65722063616e20626c6f636b207468652075736572000000600082015250565b7f436f6e7472616374205061757365640000000000000000000000000000000000600082015250565b7f7374616b696e672042616c616e63652063616e6e6f74206265206c657373207460008201527f68616e2030000000000000000000000000000000000000000000000000000000602082015250565b6115f5816112e6565b811461160057600080fd5b50565b61160c816112f8565b811461161757600080fd5b50565b61162381611324565b811461162e57600080fd5b5056fea264697066735822122032f4c2415b9d9b9c2976112c87706d74c02977ab85b25da6cb7fe4cf4aba34c764736f6c63430008070033",
					"opcodes": "PUSH1 0x80 PUSH1 0x40 MSTORE TIMESTAMP PUSH1 0x2 SSTORE CALLVALUE DUP1 ISZERO PUSH2 0x14 JUMPI PUSH1 0x0 DUP1 REVERT JUMPDEST POP CALLER PUSH1 0x0 DUP1 PUSH2 0x100 EXP DUP2 SLOAD DUP2 PUSH20 0xFFFFFFFFFFFFFFFFFFFFFFFFFFFFFFFFFFFFFFFF MUL NOT AND SWAP1 DUP4 PUSH20 0xFFFFFFFFFFFFFFFFFFFFFFFFFFFFFFFFFFFFFFFF AND MUL OR SWAP1 SSTORE POP PUSH2 0x1667 DUP1 PUSH2 0x64 PUSH1 0x0 CODECOPY PUSH1 0x0 RETURN INVALID PUSH1 0x80 PUSH1 0x40 MSTORE PUSH1 0x4 CALLDATASIZE LT PUSH2 0xFE JUMPI PUSH1 0x0 CALLDATALOAD PUSH1 0xE0 SHR DUP1 PUSH4 0x6F49712B GT PUSH2 0x95 JUMPI DUP1 PUSH4 0xC93C8F34 GT PUSH2 0x64 JUMPI DUP1 PUSH4 0xC93C8F34 EQ PUSH2 0x2DE JUMPI DUP1 PUSH4 0xD8270DCE EQ PUSH2 0x31B JUMPI DUP1 PUSH4 0xDFA20F0A EQ PUSH2 0x346 JUMPI DUP1 PUSH4 0xF765FD8F EQ PUSH2 0x35D JUMPI DUP1 PUSH4 0xFD5E6DD1 EQ PUSH2 0x374 JUMPI PUSH2 0xFE JUMP JUMPDEST DUP1 PUSH4 0x6F49712B EQ PUSH2 0x222 JUMPI DUP1 PUSH4 0x75C96C5D EQ PUSH2 0x25F JUMPI DUP1 PUSH4 0x8DA5CB5B EQ PUSH2 0x288 JUMPI DUP1 PUSH4 0xB0370E0C EQ PUSH2 0x2B3 JUMPI PUSH2 0xFE JUMP JUMPDEST DUP1 PUSH4 0x45BC78AB GT PUSH2 0xD1 JUMPI DUP1 PUSH4 0x45BC78AB EQ PUSH2 0x185 JUMPI DUP1 PUSH4 0x4626402B EQ PUSH2 0x1C2 JUMPI DUP1 PUSH4 0x51ED6A30 EQ PUSH2 0x1ED JUMPI DUP1 PUSH4 0x5C975ABB EQ PUSH2 0x1F7 JUMPI PUSH2 0xFE JUMP JUMPDEST DUP1 PUSH4 0x21A89AD EQ PUSH2 0x103 JUMPI DUP1 PUSH4 0x16C38B3C EQ PUSH2 0x12E JUMPI DUP1 PUSH4 0x20EB640C EQ PUSH2 0x157 JUMPI DUP1 PUSH4 0x439766CE EQ PUSH2 0x16E JUMPI JUMPDEST PUSH1 0x0 DUP1 REVERT JUMPDEST CALLVALUE DUP1 ISZERO PUSH2 0x10F JUMPI PUSH1 0x0 DUP1 REVERT JUMPDEST POP PUSH2 0x118 PUSH2 0x3B1 JUMP JUMPDEST PUSH1 0x40 MLOAD PUSH2 0x125 SWAP2 SWAP1 PUSH2 0x106A JUMP JUMPDEST PUSH1 0x40 MLOAD DUP1 SWAP2 SUB SWAP1 RETURN JUMPDEST CALLVALUE DUP1 ISZERO PUSH2 0x13A JUMPI PUSH1 0x0 DUP1 REVERT JUMPDEST POP PUSH2 0x155 PUSH1 0x4 DUP1 CALLDATASIZE SUB DUP2 ADD SWAP1 PUSH2 0x150 SWAP2 SWAP1 PUSH2 0xE8D JUMP JUMPDEST PUSH2 0x3C4 JUMP JUMPDEST STOP JUMPDEST CALLVALUE DUP1 ISZERO PUSH2 0x163 JUMPI PUSH1 0x0 DUP1 REVERT JUMPDEST POP PUSH2 0x16C PUSH2 0x46F JUMP JUMPDEST STOP JUMPDEST CALLVALUE DUP1 ISZERO PUSH2 0x17A JUMPI PUSH1 0x0 DUP1 REVERT JUMPDEST POP PUSH2 0x183 PUSH2 0x64B JUMP JUMPDEST STOP JUMPDEST CALLVALUE DUP1 ISZERO PUSH2 0x191 JUMPI PUSH1 0x0 DUP1 REVERT JUMPDEST POP PUSH2 0x1AC PUSH1 0x4 DUP1 CALLDATASIZE SUB DUP2 ADD SWAP1 PUSH2 0x1A7 SWAP2 SWAP1 PUSH2 0xE60 JUMP JUMPDEST PUSH2 0x731 JUMP JUMPDEST PUSH1 0x40 MLOAD PUSH2 0x1B9 SWAP2 SWAP1 PUSH2 0x11A5 JUMP JUMPDEST PUSH1 0x40 MLOAD DUP1 SWAP2 SUB SWAP1 RETURN JUMPDEST CALLVALUE DUP1 ISZERO PUSH2 0x1CE JUMPI PUSH1 0x0 DUP1 REVERT JUMPDEST POP PUSH2 0x1D7 PUSH2 0x749 JUMP JUMPDEST PUSH1 0x40 MLOAD PUSH2 0x1E4 SWAP2 SWAP1 PUSH2 0x11A5 JUMP JUMPDEST PUSH1 0x40 MLOAD DUP1 SWAP2 SUB SWAP1 RETURN JUMPDEST PUSH2 0x1F5 PUSH2 0x74F JUMP JUMPDEST STOP JUMPDEST CALLVALUE DUP1 ISZERO PUSH2 0x203 JUMPI PUSH1 0x0 DUP1 REVERT JUMPDEST POP PUSH2 0x20C PUSH2 0x9A5 JUMP JUMPDEST PUSH1 0x40 MLOAD PUSH2 0x219 SWAP2 SWAP1 PUSH2 0x106A JUMP JUMPDEST PUSH1 0x40 MLOAD DUP1 SWAP2 SUB SWAP1 RETURN JUMPDEST CALLVALUE DUP1 ISZERO PUSH2 0x22E JUMPI PUSH1 0x0 DUP1 REVERT JUMPDEST POP PUSH2 0x249 PUSH1 0x4 DUP1 CALLDATASIZE SUB DUP2 ADD SWAP1 PUSH2 0x244 SWAP2 SWAP1 PUSH2 0xE60 JUMP JUMPDEST PUSH2 0x9B8 JUMP JUMPDEST PUSH1 0x40 MLOAD PUSH2 0x256 SWAP2 SWAP1 PUSH2 0x106A JUMP JUMPDEST PUSH1 0x40 MLOAD DUP1 SWAP2 SUB SWAP1 RETURN JUMPDEST CALLVALUE DUP1 ISZERO PUSH2 0x26B JUMPI PUSH1 0x0 DUP1 REVERT JUMPDEST POP PUSH2 0x286 PUSH1 0x4 DUP1 CALLDATASIZE SUB DUP2 ADD SWAP1 PUSH2 0x281 SWAP2 SWAP1 PUSH2 0xE8D JUMP JUMPDEST PUSH2 0x9D8 JUMP JUMPDEST STOP JUMPDEST CALLVALUE DUP1 ISZERO PUSH2 0x294 JUMPI PUSH1 0x0 DUP1 REVERT JUMPDEST POP PUSH2 0x29D PUSH2 0xA83 JUMP JUMPDEST PUSH1 0x40 MLOAD PUSH2 0x2AA SWAP2 SWAP1 PUSH2 0x104F JUMP JUMPDEST PUSH1 0x40 MLOAD DUP1 SWAP2 SUB SWAP1 RETURN JUMPDEST CALLVALUE DUP1 ISZERO PUSH2 0x2BF JUMPI PUSH1 0x0 DUP1 REVERT JUMPDEST POP PUSH2 0x2C8 PUSH2 0xAA7 JUMP JUMPDEST PUSH1 0x40 MLOAD PUSH2 0x2D5 SWAP2 SWAP1 PUSH2 0x11A5 JUMP JUMPDEST PUSH1 0x40 MLOAD DUP1 SWAP2 SUB SWAP1 RETURN JUMPDEST CALLVALUE DUP1 ISZERO PUSH2 0x2EA JUMPI PUSH1 0x0 DUP1 REVERT JUMPDEST POP PUSH2 0x305 PUSH1 0x4 DUP1 CALLDATASIZE SUB DUP2 ADD SWAP1 PUSH2 0x300 SWAP2 SWAP1 PUSH2 0xE60 JUMP JUMPDEST PUSH2 0xC5C JUMP JUMPDEST PUSH1 0x40 MLOAD PUSH2 0x312 SWAP2 SWAP1 PUSH2 0x106A JUMP JUMPDEST PUSH1 0x40 MLOAD DUP1 SWAP2 SUB SWAP1 RETURN JUMPDEST CALLVALUE DUP1 ISZERO PUSH2 0x327 JUMPI PUSH1 0x0 DUP1 REVERT JUMPDEST POP PUSH2 0x330 PUSH2 0xC7C JUMP JUMPDEST PUSH1 0x40 MLOAD PUSH2 0x33D SWAP2 SWAP1 PUSH2 0x11A5 JUMP JUMPDEST PUSH1 0x40 MLOAD DUP1 SWAP2 SUB SWAP1 RETURN JUMPDEST CALLVALUE DUP1 ISZERO PUSH2 0x352 JUMPI PUSH1 0x0 DUP1 REVERT JUMPDEST POP PUSH2 0x35B PUSH2 0xC82 JUMP JUMPDEST STOP JUMPDEST CALLVALUE DUP1 ISZERO PUSH2 0x369 JUMPI PUSH1 0x0 DUP1 REVERT JUMPDEST POP PUSH2 0x372 PUSH2 0xD32 JUMP JUMPDEST STOP JUMPDEST CALLVALUE DUP1 ISZERO PUSH2 0x380 JUMPI PUSH1 0x0 DUP1 REVERT JUMPDEST POP PUSH2 0x39B PUSH1 0x4 DUP1 CALLDATASIZE SUB DUP2 ADD SWAP1 PUSH2 0x396 SWAP2 SWAP1 PUSH2 0xEBA JUMP JUMPDEST PUSH2 0xDE2 JUMP JUMPDEST PUSH1 0x40 MLOAD PUSH2 0x3A8 SWAP2 SWAP1 PUSH2 0x104F JUMP JUMPDEST PUSH1 0x40 MLOAD DUP1 SWAP2 SUB SWAP1 RETURN JUMPDEST PUSH1 0x0 PUSH1 0x15 SWAP1 SLOAD SWAP1 PUSH2 0x100 EXP SWAP1 DIV PUSH1 0xFF AND DUP2 JUMP JUMPDEST PUSH1 0x0 DUP1 SLOAD SWAP1 PUSH2 0x100 EXP SWAP1 DIV PUSH20 0xFFFFFFFFFFFFFFFFFFFFFFFFFFFFFFFFFFFFFFFF AND PUSH20 0xFFFFFFFFFFFFFFFFFFFFFFFFFFFFFFFFFFFFFFFF AND CALLER PUSH20 0xFFFFFFFFFFFFFFFFFFFFFFFFFFFFFFFFFFFFFFFF AND EQ PUSH2 0x452 JUMPI PUSH1 0x40 MLOAD PUSH32 0x8C379A000000000000000000000000000000000000000000000000000000000 DUP2 MSTORE PUSH1 0x4 ADD PUSH2 0x449 SWAP1 PUSH2 0x10C5 JUMP JUMPDEST PUSH1 0x40 MLOAD DUP1 SWAP2 SUB SWAP1 REVERT JUMPDEST DUP1 PUSH1 0x0 PUSH1 0x14 PUSH2 0x100 EXP DUP2 SLOAD DUP2 PUSH1 0xFF MUL NOT AND SWAP1 DUP4 ISZERO ISZERO MUL OR SWAP1 SSTORE POP POP JUMP JUMPDEST PUSH1 0x0 PUSH1 0x4 PUSH1 0x0 CALLER PUSH20 0xFFFFFFFFFFFFFFFFFFFFFFFFFFFFFFFFFFFFFFFF AND PUSH20 0xFFFFFFFFFFFFFFFFFFFFFFFFFFFFFFFFFFFFFFFF AND DUP2 MSTORE PUSH1 0x20 ADD SWAP1 DUP2 MSTORE PUSH1 0x20 ADD PUSH1 0x0 KECCAK256 SLOAD SWAP1 POP PUSH1 0x0 DUP2 GT PUSH2 0x4F6 JUMPI PUSH1 0x40 MLOAD PUSH32 0x8C379A000000000000000000000000000000000000000000000000000000000 DUP2 MSTORE PUSH1 0x4 ADD PUSH2 0x4ED SWAP1 PUSH2 0x1185 JUMP JUMPDEST PUSH1 0x40 MLOAD DUP1 SWAP2 SUB SWAP1 REVERT JUMPDEST PUSH1 0x0 PUSH1 0x4 PUSH1 0x0 CALLER PUSH20 0xFFFFFFFFFFFFFFFFFFFFFFFFFFFFFFFFFFFFFFFF AND PUSH20 0xFFFFFFFFFFFFFFFFFFFFFFFFFFFFFFFFFFFFFFFF AND DUP2 MSTORE PUSH1 0x20 ADD SWAP1 DUP2 MSTORE PUSH1 0x20 ADD PUSH1 0x0 KECCAK256 DUP2 SWAP1 SSTORE POP PUSH1 0x5 PUSH1 0x0 CALLER PUSH20 0xFFFFFFFFFFFFFFFFFFFFFFFFFFFFFFFFFFFFFFFF AND PUSH20 0xFFFFFFFFFFFFFFFFFFFFFFFFFFFFFFFFFFFFFFFF AND DUP2 MSTORE PUSH1 0x20 ADD SWAP1 DUP2 MSTORE PUSH1 0x20 ADD PUSH1 0x0 KECCAK256 PUSH1 0x0 SWAP1 SLOAD SWAP1 PUSH2 0x100 EXP SWAP1 DIV PUSH1 0xFF AND PUSH2 0x5F0 JUMPI PUSH1 0x3 CALLER SWAP1 DUP1 PUSH1 0x1 DUP2 SLOAD ADD DUP1 DUP3 SSTORE DUP1 SWAP2 POP POP PUSH1 0x1 SWAP1 SUB SWAP1 PUSH1 0x0 MSTORE PUSH1 0x20 PUSH1 0x0 KECCAK256 ADD PUSH1 0x0 SWAP1 SWAP2 SWAP1 SWAP2 SWAP1 SWAP2 PUSH2 0x100 EXP DUP2 SLOAD DUP2 PUSH20 0xFFFFFFFFFFFFFFFFFFFFFFFFFFFFFFFFFFFFFFFF MUL NOT AND SWAP1 DUP4 PUSH20 0xFFFFFFFFFFFFFFFFFFFFFFFFFFFFFFFFFFFFFFFF AND MUL OR SWAP1 SSTORE POP JUMPDEST PUSH1 0x0 PUSH1 0x6 PUSH1 0x0 CALLER PUSH20 0xFFFFFFFFFFFFFFFFFFFFFFFFFFFFFFFFFFFFFFFF AND PUSH20 0xFFFFFFFFFFFFFFFFFFFFFFFFFFFFFFFFFFFFFFFF AND DUP2 MSTORE PUSH1 0x20 ADD SWAP1 DUP2 MSTORE PUSH1 0x20 ADD PUSH1 0x0 KECCAK256 PUSH1 0x0 PUSH2 0x100 EXP DUP2 SLOAD DUP2 PUSH1 0xFF MUL NOT AND SWAP1 DUP4 ISZERO ISZERO MUL OR SWAP1 SSTORE POP POP JUMP JUMPDEST PUSH1 0x0 DUP1 SLOAD SWAP1 PUSH2 0x100 EXP SWAP1 DIV PUSH20 0xFFFFFFFFFFFFFFFFFFFFFFFFFFFFFFFFFFFFFFFF AND PUSH20 0xFFFFFFFFFFFFFFFFFFFFFFFFFFFFFFFFFFFFFFFF AND CALLER PUSH20 0xFFFFFFFFFFFFFFFFFFFFFFFFFFFFFFFFFFFFFFFF AND EQ PUSH2 0x6D9 JUMPI PUSH1 0x40 MLOAD PUSH32 0x8C379A000000000000000000000000000000000000000000000000000000000 DUP2 MSTORE PUSH1 0x4 ADD PUSH2 0x6D0 SWAP1 PUSH2 0x1105 JUMP JUMPDEST PUSH1 0x40 MLOAD DUP1 SWAP2 SUB SWAP1 REVERT JUMPDEST PUSH1 0x0 ISZERO ISZERO PUSH1 0x0 PUSH1 0x14 SWAP1 SLOAD SWAP1 PUSH2 0x100 EXP SWAP1 DIV PUSH1 0xFF AND ISZERO ISZERO EQ PUSH2 0x72F JUMPI PUSH1 0x40 MLOAD PUSH32 0x8C379A000000000000000000000000000000000000000000000000000000000 DUP2 MSTORE PUSH1 0x4 ADD PUSH2 0x726 SWAP1 PUSH2 0x1165 JUMP JUMPDEST PUSH1 0x40 MLOAD DUP1 SWAP2 SUB SWAP1 REVERT JUMPDEST JUMP JUMPDEST PUSH1 0x4 PUSH1 0x20 MSTORE DUP1 PUSH1 0x0 MSTORE PUSH1 0x40 PUSH1 0x0 KECCAK256 PUSH1 0x0 SWAP2 POP SWAP1 POP SLOAD DUP2 JUMP JUMPDEST PUSH1 0x1 SLOAD DUP2 JUMP JUMPDEST PUSH1 0x0 CALLVALUE GT PUSH2 0x792 JUMPI PUSH1 0x40 MLOAD PUSH32 0x8C379A000000000000000000000000000000000000000000000000000000000 DUP2 MSTORE PUSH1 0x4 ADD PUSH2 0x789 SWAP1 PUSH2 0x1085 JUMP JUMPDEST PUSH1 0x40 MLOAD DUP1 SWAP2 SUB SWAP1 REVERT JUMPDEST PUSH1 0x0 ISZERO ISZERO PUSH1 0x0 PUSH1 0x15 SWAP1 SLOAD SWAP1 PUSH2 0x100 EXP SWAP1 DIV PUSH1 0xFF AND ISZERO ISZERO EQ PUSH2 0x7E8 JUMPI PUSH1 0x40 MLOAD PUSH32 0x8C379A000000000000000000000000000000000000000000000000000000000 DUP2 MSTORE PUSH1 0x4 ADD PUSH2 0x7DF SWAP1 PUSH2 0x1125 JUMP JUMPDEST PUSH1 0x40 MLOAD DUP1 SWAP2 SUB SWAP1 REVERT JUMPDEST CALLVALUE PUSH1 0x4 PUSH1 0x0 CALLER PUSH20 0xFFFFFFFFFFFFFFFFFFFFFFFFFFFFFFFFFFFFFFFF AND PUSH20 0xFFFFFFFFFFFFFFFFFFFFFFFFFFFFFFFFFFFFFFFF AND DUP2 MSTORE PUSH1 0x20 ADD SWAP1 DUP2 MSTORE PUSH1 0x20 ADD PUSH1 0x0 KECCAK256 PUSH1 0x0 DUP3 DUP3 SLOAD PUSH2 0x837 SWAP2 SWAP1 PUSH2 0x11D1 JUMP JUMPDEST SWAP3 POP POP DUP2 SWAP1 SSTORE POP PUSH1 0x5 PUSH1 0x0 CALLER PUSH20 0xFFFFFFFFFFFFFFFFFFFFFFFFFFFFFFFFFFFFFFFF AND PUSH20 0xFFFFFFFFFFFFFFFFFFFFFFFFFFFFFFFFFFFFFFFF AND DUP2 MSTORE PUSH1 0x20 ADD SWAP1 DUP2 MSTORE PUSH1 0x20 ADD PUSH1 0x0 KECCAK256 PUSH1 0x0 SWAP1 SLOAD SWAP1 PUSH2 0x100 EXP SWAP1 DIV PUSH1 0xFF AND PUSH2 0x8F3 JUMPI PUSH1 0x3 CALLER SWAP1 DUP1 PUSH1 0x1 DUP2 SLOAD ADD DUP1 DUP3 SSTORE DUP1 SWAP2 POP POP PUSH1 0x1 SWAP1 SUB SWAP1 PUSH1 0x0 MSTORE PUSH1 0x20 PUSH1 0x0 KECCAK256 ADD PUSH1 0x0 SWAP1 SWAP2 SWAP1 SWAP2 SWAP1 SWAP2 PUSH2 0x100 EXP DUP2 SLOAD DUP2 PUSH20 0xFFFFFFFFFFFFFFFFFFFFFFFFFFFFFFFFFFFFFFFF MUL NOT AND SWAP1 DUP4 PUSH20 0xFFFFFFFFFFFFFFFFFFFFFFFFFFFFFFFFFFFFFFFF AND MUL OR SWAP1 SSTORE POP JUMPDEST PUSH1 0x1 PUSH1 0x6 PUSH1 0x0 CALLER PUSH20 0xFFFFFFFFFFFFFFFFFFFFFFFFFFFFFFFFFFFFFFFF AND PUSH20 0xFFFFFFFFFFFFFFFFFFFFFFFFFFFFFFFFFFFFFFFF AND DUP2 MSTORE PUSH1 0x20 ADD SWAP1 DUP2 MSTORE PUSH1 0x20 ADD PUSH1 0x0 KECCAK256 PUSH1 0x0 PUSH2 0x100 EXP DUP2 SLOAD DUP2 PUSH1 0xFF MUL NOT AND SWAP1 DUP4 ISZERO ISZERO MUL OR SWAP1 SSTORE POP PUSH1 0x1 PUSH1 0x5 PUSH1 0x0 CALLER PUSH20 0xFFFFFFFFFFFFFFFFFFFFFFFFFFFFFFFFFFFFFFFF AND PUSH20 0xFFFFFFFFFFFFFFFFFFFFFFFFFFFFFFFFFFFFFFFF AND DUP2 MSTORE PUSH1 0x20 ADD SWAP1 DUP2 MSTORE PUSH1 0x20 ADD PUSH1 0x0 KECCAK256 PUSH1 0x0 PUSH2 0x100 EXP DUP2 SLOAD DUP2 PUSH1 0xFF MUL NOT AND SWAP1 DUP4 ISZERO ISZERO MUL OR SWAP1 SSTORE POP JUMP JUMPDEST PUSH1 0x0 PUSH1 0x14 SWAP1 SLOAD SWAP1 PUSH2 0x100 EXP SWAP1 DIV PUSH1 0xFF AND DUP2 JUMP JUMPDEST PUSH1 0x6 PUSH1 0x20 MSTORE DUP1 PUSH1 0x0 MSTORE PUSH1 0x40 PUSH1 0x0 KECCAK256 PUSH1 0x0 SWAP2 POP SLOAD SWAP1 PUSH2 0x100 EXP SWAP1 DIV PUSH1 0xFF AND DUP2 JUMP JUMPDEST PUSH1 0x0 DUP1 SLOAD SWAP1 PUSH2 0x100 EXP SWAP1 DIV PUSH20 0xFFFFFFFFFFFFFFFFFFFFFFFFFFFFFFFFFFFFFFFF AND PUSH20 0xFFFFFFFFFFFFFFFFFFFFFFFFFFFFFFFFFFFFFFFF AND CALLER PUSH20 0xFFFFFFFFFFFFFFFFFFFFFFFFFFFFFFFFFFFFFFFF AND EQ PUSH2 0xA66 JUMPI PUSH1 0x40 MLOAD PUSH32 0x8C379A000000000000000000000000000000000000000000000000000000000 DUP2 MSTORE PUSH1 0x4 ADD PUSH2 0xA5D SWAP1 PUSH2 0x1145 JUMP JUMPDEST PUSH1 0x40 MLOAD DUP1 SWAP2 SUB SWAP1 REVERT JUMPDEST DUP1 PUSH1 0x0 PUSH1 0x15 PUSH2 0x100 EXP DUP2 SLOAD DUP2 PUSH1 0xFF MUL NOT AND SWAP1 DUP4 ISZERO ISZERO MUL OR SWAP1 SSTORE POP POP JUMP JUMPDEST PUSH1 0x0 DUP1 SLOAD SWAP1 PUSH2 0x100 EXP SWAP1 DIV PUSH20 0xFFFFFFFFFFFFFFFFFFFFFFFFFFFFFFFFFFFFFFFF AND DUP2 JUMP JUMPDEST PUSH1 0x0 PUSH3 0x15180 PUSH1 0x2 SLOAD PUSH2 0xABA SWAP2 SWAP1 PUSH2 0x11D1 JUMP JUMPDEST DUP1 TIMESTAMP GT PUSH2 0xAFC JUMPI PUSH1 0x40 MLOAD PUSH32 0x8C379A000000000000000000000000000000000000000000000000000000000 DUP2 MSTORE PUSH1 0x4 ADD PUSH2 0xAF3 SWAP1 PUSH2 0x10E5 JUMP JUMPDEST PUSH1 0x40 MLOAD DUP1 SWAP2 SUB SWAP1 REVERT JUMPDEST PUSH1 0x0 DUP1 SLOAD SWAP1 PUSH2 0x100 EXP SWAP1 DIV PUSH20 0xFFFFFFFFFFFFFFFFFFFFFFFFFFFFFFFFFFFFFFFF AND PUSH20 0xFFFFFFFFFFFFFFFFFFFFFFFFFFFFFFFFFFFFFFFF AND CALLER PUSH20 0xFFFFFFFFFFFFFFFFFFFFFFFFFFFFFFFFFFFFFFFF AND EQ PUSH2 0xB8A JUMPI PUSH1 0x40 MLOAD PUSH32 0x8C379A000000000000000000000000000000000000000000000000000000000 DUP2 MSTORE PUSH1 0x4 ADD PUSH2 0xB81 SWAP1 PUSH2 0x10A5 JUMP JUMPDEST PUSH1 0x40 MLOAD DUP1 SWAP2 SUB SWAP1 REVERT JUMPDEST PUSH1 0x0 JUMPDEST PUSH1 0x3 DUP1 SLOAD SWAP1 POP DUP2 LT ISZERO PUSH2 0xC56 JUMPI PUSH1 0x0 PUSH1 0x3 DUP3 DUP2 SLOAD DUP2 LT PUSH2 0xBB0 JUMPI PUSH2 0xBAF PUSH2 0x13D5 JUMP JUMPDEST JUMPDEST SWAP1 PUSH1 0x0 MSTORE PUSH1 0x20 PUSH1 0x0 KECCAK256 ADD PUSH1 0x0 SWAP1 SLOAD SWAP1 PUSH2 0x100 EXP SWAP1 DIV PUSH20 0xFFFFFFFFFFFFFFFFFFFFFFFFFFFFFFFFFFFFFFFF AND SWAP1 POP PUSH1 0x0 PUSH1 0x64 PUSH1 0x4 PUSH1 0x0 DUP5 PUSH20 0xFFFFFFFFFFFFFFFFFFFFFFFFFFFFFFFFFFFFFFFF AND PUSH20 0xFFFFFFFFFFFFFFFFFFFFFFFFFFFFFFFFFFFFFFFF AND DUP2 MSTORE PUSH1 0x20 ADD SWAP1 DUP2 MSTORE PUSH1 0x20 ADD PUSH1 0x0 KECCAK256 SLOAD PUSH2 0xC2B SWAP2 SWAP1 PUSH2 0x1227 JUMP JUMPDEST SWAP1 POP PUSH1 0x0 DUP2 GT ISZERO PUSH2 0xC41 JUMPI DUP1 SWAP5 POP POP POP POP PUSH2 0xC58 JUMP JUMPDEST POP POP DUP1 DUP1 PUSH2 0xC4E SWAP1 PUSH2 0x132E JUMP JUMPDEST SWAP2 POP POP PUSH2 0xB8D JUMP JUMPDEST POP JUMPDEST POP SWAP1 JUMP JUMPDEST PUSH1 0x5 PUSH1 0x20 MSTORE DUP1 PUSH1 0x0 MSTORE PUSH1 0x40 PUSH1 0x0 KECCAK256 PUSH1 0x0 SWAP2 POP SLOAD SWAP1 PUSH2 0x100 EXP SWAP1 DIV PUSH1 0xFF AND DUP2 JUMP JUMPDEST PUSH1 0x2 SLOAD DUP2 JUMP JUMPDEST PUSH1 0x0 PUSH1 0x64 PUSH1 0x5 PUSH1 0x4 PUSH1 0x0 CALLER PUSH20 0xFFFFFFFFFFFFFFFFFFFFFFFFFFFFFFFFFFFFFFFF AND PUSH20 0xFFFFFFFFFFFFFFFFFFFFFFFFFFFFFFFFFFFFFFFF AND DUP2 MSTORE PUSH1 0x20 ADD SWAP1 DUP2 MSTORE PUSH1 0x20 ADD PUSH1 0x0 KECCAK256 SLOAD PUSH2 0xCD2 SWAP2 SWAP1 PUSH2 0x1258 JUMP JUMPDEST PUSH2 0xCDC SWAP2 SWAP1 PUSH2 0x1227 JUMP JUMPDEST SWAP1 POP DUP1 PUSH1 0x4 PUSH1 0x0 CALLER PUSH20 0xFFFFFFFFFFFFFFFFFFFFFFFFFFFFFFFFFFFFFFFF AND PUSH20 0xFFFFFFFFFFFFFFFFFFFFFFFFFFFFFFFFFFFFFFFF AND DUP2 MSTORE PUSH1 0x20 ADD SWAP1 DUP2 MSTORE PUSH1 0x20 ADD PUSH1 0x0 KECCAK256 SLOAD PUSH2 0xD29 SWAP2 SWAP1 PUSH2 0x12B2 JUMP JUMPDEST PUSH1 0x1 DUP2 SWAP1 SSTORE POP POP JUMP JUMPDEST PUSH1 0x0 PUSH1 0x64 PUSH1 0x5 PUSH1 0x4 PUSH1 0x0 CALLER PUSH20 0xFFFFFFFFFFFFFFFFFFFFFFFFFFFFFFFFFFFFFFFF AND PUSH20 0xFFFFFFFFFFFFFFFFFFFFFFFFFFFFFFFFFFFFFFFF AND DUP2 MSTORE PUSH1 0x20 ADD SWAP1 DUP2 MSTORE PUSH1 0x20 ADD PUSH1 0x0 KECCAK256 SLOAD PUSH2 0xD82 SWAP2 SWAP1 PUSH2 0x1258 JUMP JUMPDEST PUSH2 0xD8C SWAP2 SWAP1 PUSH2 0x1227 JUMP JUMPDEST SWAP1 POP DUP1 PUSH1 0x4 PUSH1 0x0 CALLER PUSH20 0xFFFFFFFFFFFFFFFFFFFFFFFFFFFFFFFFFFFFFFFF AND PUSH20 0xFFFFFFFFFFFFFFFFFFFFFFFFFFFFFFFFFFFFFFFF AND DUP2 MSTORE PUSH1 0x20 ADD SWAP1 DUP2 MSTORE PUSH1 0x20 ADD PUSH1 0x0 KECCAK256 SLOAD PUSH2 0xDD9 SWAP2 SWAP1 PUSH2 0x11D1 JUMP JUMPDEST PUSH1 0x1 DUP2 SWAP1 SSTORE POP POP JUMP JUMPDEST PUSH1 0x3 DUP2 DUP2 SLOAD DUP2 LT PUSH2 0xDF2 JUMPI PUSH1 0x0 DUP1 REVERT JUMPDEST SWAP1 PUSH1 0x0 MSTORE PUSH1 0x20 PUSH1 0x0 KECCAK256 ADD PUSH1 0x0 SWAP2 POP SLOAD SWAP1 PUSH2 0x100 EXP SWAP1 DIV PUSH20 0xFFFFFFFFFFFFFFFFFFFFFFFFFFFFFFFFFFFFFFFF AND DUP2 JUMP JUMPDEST PUSH1 0x0 DUP2 CALLDATALOAD SWAP1 POP PUSH2 0xE30 DUP2 PUSH2 0x15EC JUMP JUMPDEST SWAP3 SWAP2 POP POP JUMP JUMPDEST PUSH1 0x0 DUP2 CALLDATALOAD SWAP1 POP PUSH2 0xE45 DUP2 PUSH2 0x1603 JUMP JUMPDEST SWAP3 SWAP2 POP POP JUMP JUMPDEST PUSH1 0x0 DUP2 CALLDATALOAD SWAP1 POP PUSH2 0xE5A DUP2 PUSH2 0x161A JUMP JUMPDEST SWAP3 SWAP2 POP POP JUMP JUMPDEST PUSH1 0x0 PUSH1 0x20 DUP3 DUP5 SUB SLT ISZERO PUSH2 0xE76 JUMPI PUSH2 0xE75 PUSH2 0x1404 JUMP JUMPDEST JUMPDEST PUSH1 0x0 PUSH2 0xE84 DUP5 DUP3 DUP6 ADD PUSH2 0xE21 JUMP JUMPDEST SWAP2 POP POP SWAP3 SWAP2 POP POP JUMP JUMPDEST PUSH1 0x0 PUSH1 0x20 DUP3 DUP5 SUB SLT ISZERO PUSH2 0xEA3 JUMPI PUSH2 0xEA2 PUSH2 0x1404 JUMP JUMPDEST JUMPDEST PUSH1 0x0 PUSH2 0xEB1 DUP5 DUP3 DUP6 ADD PUSH2 0xE36 JUMP JUMPDEST SWAP2 POP POP SWAP3 SWAP2 POP POP JUMP JUMPDEST PUSH1 0x0 PUSH1 0x20 DUP3 DUP5 SUB SLT ISZERO PUSH2 0xED0 JUMPI PUSH2 0xECF PUSH2 0x1404 JUMP JUMPDEST JUMPDEST PUSH1 0x0 PUSH2 0xEDE DUP5 DUP3 DUP6 ADD PUSH2 0xE4B JUMP JUMPDEST SWAP2 POP POP SWAP3 SWAP2 POP POP JUMP JUMPDEST PUSH2 0xEF0 DUP2 PUSH2 0x12E6 JUMP JUMPDEST DUP3 MSTORE POP POP JUMP JUMPDEST PUSH2 0xEFF DUP2 PUSH2 0x12F8 JUMP JUMPDEST DUP3 MSTORE POP POP JUMP JUMPDEST PUSH1 0x0 PUSH2 0xF12 PUSH1 0x11 DUP4 PUSH2 0x11C0 JUMP JUMPDEST SWAP2 POP PUSH2 0xF1D DUP3 PUSH2 0x1409 JUMP JUMPDEST PUSH1 0x20 DUP3 ADD SWAP1 POP SWAP2 SWAP1 POP JUMP JUMPDEST PUSH1 0x0 PUSH2 0xF35 PUSH1 0x18 DUP4 PUSH2 0x11C0 JUMP JUMPDEST SWAP2 POP PUSH2 0xF40 DUP3 PUSH2 0x1432 JUMP JUMPDEST PUSH1 0x20 DUP3 ADD SWAP1 POP SWAP2 SWAP1 POP JUMP JUMPDEST PUSH1 0x0 PUSH2 0xF58 PUSH1 0x15 DUP4 PUSH2 0x11C0 JUMP JUMPDEST SWAP2 POP PUSH2 0xF63 DUP3 PUSH2 0x145B JUMP JUMPDEST PUSH1 0x20 DUP3 ADD SWAP1 POP SWAP2 SWAP1 POP JUMP JUMPDEST PUSH1 0x0 PUSH2 0xF7B PUSH1 0x26 DUP4 PUSH2 0x11C0 JUMP JUMPDEST SWAP2 POP PUSH2 0xF86 DUP3 PUSH2 0x1484 JUMP JUMPDEST PUSH1 0x40 DUP3 ADD SWAP1 POP SWAP2 SWAP1 POP JUMP JUMPDEST PUSH1 0x0 PUSH2 0xF9E PUSH1 0x21 DUP4 PUSH2 0x11C0 JUMP JUMPDEST SWAP2 POP PUSH2 0xFA9 DUP3 PUSH2 0x14D3 JUMP JUMPDEST PUSH1 0x40 DUP3 ADD SWAP1 POP SWAP2 SWAP1 POP JUMP JUMPDEST PUSH1 0x0 PUSH2 0xFC1 PUSH1 0xD DUP4 PUSH2 0x11C0 JUMP JUMPDEST SWAP2 POP PUSH2 0xFCC DUP3 PUSH2 0x1522 JUMP JUMPDEST PUSH1 0x20 DUP3 ADD SWAP1 POP SWAP2 SWAP1 POP JUMP JUMPDEST PUSH1 0x0 PUSH2 0xFE4 PUSH1 0x1D DUP4 PUSH2 0x11C0 JUMP JUMPDEST SWAP2 POP PUSH2 0xFEF DUP3 PUSH2 0x154B JUMP JUMPDEST PUSH1 0x20 DUP3 ADD SWAP1 POP SWAP2 SWAP1 POP JUMP JUMPDEST PUSH1 0x0 PUSH2 0x1007 PUSH1 0xF DUP4 PUSH2 0x11C0 JUMP JUMPDEST SWAP2 POP PUSH2 0x1012 DUP3 PUSH2 0x1574 JUMP JUMPDEST PUSH1 0x20 DUP3 ADD SWAP1 POP SWAP2 SWAP1 POP JUMP JUMPDEST PUSH1 0x0 PUSH2 0x102A PUSH1 0x25 DUP4 PUSH2 0x11C0 JUMP JUMPDEST SWAP2 POP PUSH2 0x1035 DUP3 PUSH2 0x159D JUMP JUMPDEST PUSH1 0x40 DUP3 ADD SWAP1 POP SWAP2 SWAP1 POP JUMP JUMPDEST PUSH2 0x1049 DUP2 PUSH2 0x1324 JUMP JUMPDEST DUP3 MSTORE POP POP JUMP JUMPDEST PUSH1 0x0 PUSH1 0x20 DUP3 ADD SWAP1 POP PUSH2 0x1064 PUSH1 0x0 DUP4 ADD DUP5 PUSH2 0xEE7 JUMP JUMPDEST SWAP3 SWAP2 POP POP JUMP JUMPDEST PUSH1 0x0 PUSH1 0x20 DUP3 ADD SWAP1 POP PUSH2 0x107F PUSH1 0x0 DUP4 ADD DUP5 PUSH2 0xEF6 JUMP JUMPDEST SWAP3 SWAP2 POP POP JUMP JUMPDEST PUSH1 0x0 PUSH1 0x20 DUP3 ADD SWAP1 POP DUP2 DUP2 SUB PUSH1 0x0 DUP4 ADD MSTORE PUSH2 0x109E DUP2 PUSH2 0xF05 JUMP JUMPDEST SWAP1 POP SWAP2 SWAP1 POP JUMP JUMPDEST PUSH1 0x0 PUSH1 0x20 DUP3 ADD SWAP1 POP DUP2 DUP2 SUB PUSH1 0x0 DUP4 ADD MSTORE PUSH2 0x10BE DUP2 PUSH2 0xF28 JUMP JUMPDEST SWAP1 POP SWAP2 SWAP1 POP JUMP JUMPDEST PUSH1 0x0 PUSH1 0x20 DUP3 ADD SWAP1 POP DUP2 DUP2 SUB PUSH1 0x0 DUP4 ADD MSTORE PUSH2 0x10DE DUP2 PUSH2 0xF4B JUMP JUMPDEST SWAP1 POP SWAP2 SWAP1 POP JUMP JUMPDEST PUSH1 0x0 PUSH1 0x20 DUP3 ADD SWAP1 POP DUP2 DUP2 SUB PUSH1 0x0 DUP4 ADD MSTORE PUSH2 0x10FE DUP2 PUSH2 0xF6E JUMP JUMPDEST SWAP1 POP SWAP2 SWAP1 POP JUMP JUMPDEST PUSH1 0x0 PUSH1 0x20 DUP3 ADD SWAP1 POP DUP2 DUP2 SUB PUSH1 0x0 DUP4 ADD MSTORE PUSH2 0x111E DUP2 PUSH2 0xF91 JUMP JUMPDEST SWAP1 POP SWAP2 SWAP1 POP JUMP JUMPDEST PUSH1 0x0 PUSH1 0x20 DUP3 ADD SWAP1 POP DUP2 DUP2 SUB PUSH1 0x0 DUP4 ADD MSTORE PUSH2 0x113E DUP2 PUSH2 0xFB4 JUMP JUMPDEST SWAP1 POP SWAP2 SWAP1 POP JUMP JUMPDEST PUSH1 0x0 PUSH1 0x20 DUP3 ADD SWAP1 POP DUP2 DUP2 SUB PUSH1 0x0 DUP4 ADD MSTORE PUSH2 0x115E DUP2 PUSH2 0xFD7 JUMP JUMPDEST SWAP1 POP SWAP2 SWAP1 POP JUMP JUMPDEST PUSH1 0x0 PUSH1 0x20 DUP3 ADD SWAP1 POP DUP2 DUP2 SUB PUSH1 0x0 DUP4 ADD MSTORE PUSH2 0x117E DUP2 PUSH2 0xFFA JUMP JUMPDEST SWAP1 POP SWAP2 SWAP1 POP JUMP JUMPDEST PUSH1 0x0 PUSH1 0x20 DUP3 ADD SWAP1 POP DUP2 DUP2 SUB PUSH1 0x0 DUP4 ADD MSTORE PUSH2 0x119E DUP2 PUSH2 0x101D JUMP JUMPDEST SWAP1 POP SWAP2 SWAP1 POP JUMP JUMPDEST PUSH1 0x0 PUSH1 0x20 DUP3 ADD SWAP1 POP PUSH2 0x11BA PUSH1 0x0 DUP4 ADD DUP5 PUSH2 0x1040 JUMP JUMPDEST SWAP3 SWAP2 POP POP JUMP JUMPDEST PUSH1 0x0 DUP3 DUP3 MSTORE PUSH1 0x20 DUP3 ADD SWAP1 POP SWAP3 SWAP2 POP POP JUMP JUMPDEST PUSH1 0x0 PUSH2 0x11DC DUP3 PUSH2 0x1324 JUMP JUMPDEST SWAP2 POP PUSH2 0x11E7 DUP4 PUSH2 0x1324 JUMP JUMPDEST SWAP3 POP DUP3 PUSH32 0xFFFFFFFFFFFFFFFFFFFFFFFFFFFFFFFFFFFFFFFFFFFFFFFFFFFFFFFFFFFFFFFF SUB DUP3 GT ISZERO PUSH2 0x121C JUMPI PUSH2 0x121B PUSH2 0x1377 JUMP JUMPDEST JUMPDEST DUP3 DUP3 ADD SWAP1 POP SWAP3 SWAP2 POP POP JUMP JUMPDEST PUSH1 0x0 PUSH2 0x1232 DUP3 PUSH2 0x1324 JUMP JUMPDEST SWAP2 POP PUSH2 0x123D DUP4 PUSH2 0x1324 JUMP JUMPDEST SWAP3 POP DUP3 PUSH2 0x124D JUMPI PUSH2 0x124C PUSH2 0x13A6 JUMP JUMPDEST JUMPDEST DUP3 DUP3 DIV SWAP1 POP SWAP3 SWAP2 POP POP JUMP JUMPDEST PUSH1 0x0 PUSH2 0x1263 DUP3 PUSH2 0x1324 JUMP JUMPDEST SWAP2 POP PUSH2 0x126E DUP4 PUSH2 0x1324 JUMP JUMPDEST SWAP3 POP DUP2 PUSH32 0xFFFFFFFFFFFFFFFFFFFFFFFFFFFFFFFFFFFFFFFFFFFFFFFFFFFFFFFFFFFFFFFF DIV DUP4 GT DUP3 ISZERO ISZERO AND ISZERO PUSH2 0x12A7 JUMPI PUSH2 0x12A6 PUSH2 0x1377 JUMP JUMPDEST JUMPDEST DUP3 DUP3 MUL SWAP1 POP SWAP3 SWAP2 POP POP JUMP JUMPDEST PUSH1 0x0 PUSH2 0x12BD DUP3 PUSH2 0x1324 JUMP JUMPDEST SWAP2 POP PUSH2 0x12C8 DUP4 PUSH2 0x1324 JUMP JUMPDEST SWAP3 POP DUP3 DUP3 LT ISZERO PUSH2 0x12DB JUMPI PUSH2 0x12DA PUSH2 0x1377 JUMP JUMPDEST JUMPDEST DUP3 DUP3 SUB SWAP1 POP SWAP3 SWAP2 POP POP JUMP JUMPDEST PUSH1 0x0 PUSH2 0x12F1 DUP3 PUSH2 0x1304 JUMP JUMPDEST SWAP1 POP SWAP2 SWAP1 POP JUMP JUMPDEST PUSH1 0x0 DUP2 ISZERO ISZERO SWAP1 POP SWAP2 SWAP1 POP JUMP JUMPDEST PUSH1 0x0 PUSH20 0xFFFFFFFFFFFFFFFFFFFFFFFFFFFFFFFFFFFFFFFF DUP3 AND SWAP1 POP SWAP2 SWAP1 POP JUMP JUMPDEST PUSH1 0x0 DUP2 SWAP1 POP SWAP2 SWAP1 POP JUMP JUMPDEST PUSH1 0x0 PUSH2 0x1339 DUP3 PUSH2 0x1324 JUMP JUMPDEST SWAP2 POP PUSH32 0xFFFFFFFFFFFFFFFFFFFFFFFFFFFFFFFFFFFFFFFFFFFFFFFFFFFFFFFFFFFFFFFF DUP3 EQ ISZERO PUSH2 0x136C JUMPI PUSH2 0x136B PUSH2 0x1377 JUMP JUMPDEST JUMPDEST PUSH1 0x1 DUP3 ADD SWAP1 POP SWAP2 SWAP1 POP JUMP JUMPDEST PUSH32 0x4E487B7100000000000000000000000000000000000000000000000000000000 PUSH1 0x0 MSTORE PUSH1 0x11 PUSH1 0x4 MSTORE PUSH1 0x24 PUSH1 0x0 REVERT JUMPDEST PUSH32 0x4E487B7100000000000000000000000000000000000000000000000000000000 PUSH1 0x0 MSTORE PUSH1 0x12 PUSH1 0x4 MSTORE PUSH1 0x24 PUSH1 0x0 REVERT JUMPDEST PUSH32 0x4E487B7100000000000000000000000000000000000000000000000000000000 PUSH1 0x0 MSTORE PUSH1 0x32 PUSH1 0x4 MSTORE PUSH1 0x24 PUSH1 0x0 REVERT JUMPDEST PUSH1 0x0 DUP1 REVERT JUMPDEST PUSH32 0x45746865722063616E6E6F742062652030000000000000000000000000000000 PUSH1 0x0 DUP3 ADD MSTORE POP JUMP JUMPDEST PUSH32 0x63616C6C6572206D75737420626520746865206F776E65720000000000000000 PUSH1 0x0 DUP3 ADD MSTORE POP JUMP JUMPDEST PUSH32 0x596F7520617265206E6F7420746865206F776E65720000000000000000000000 PUSH1 0x0 DUP3 ADD MSTORE POP JUMP JUMPDEST PUSH32 0x3125207265776172642063616E20626520697373756564206166746572203234 PUSH1 0x0 DUP3 ADD MSTORE PUSH32 0x20686F7572730000000000000000000000000000000000000000000000000000 PUSH1 0x20 DUP3 ADD MSTORE POP JUMP JUMPDEST PUSH32 0x4F6E6C79206F776E65722063616E2070617573652074686520636F6E74726163 PUSH1 0x0 DUP3 ADD MSTORE PUSH32 0x7400000000000000000000000000000000000000000000000000000000000000 PUSH1 0x20 DUP3 ADD MSTORE POP JUMP JUMPDEST PUSH32 0x5573657220426C6F636B65642100000000000000000000000000000000000000 PUSH1 0x0 DUP3 ADD MSTORE POP JUMP JUMPDEST PUSH32 0x4F6E6C79206F776E65722063616E20626C6F636B207468652075736572000000 PUSH1 0x0 DUP3 ADD MSTORE POP JUMP JUMPDEST PUSH32 0x436F6E7472616374205061757365640000000000000000000000000000000000 PUSH1 0x0 DUP3 ADD MSTORE POP JUMP JUMPDEST PUSH32 0x7374616B696E672042616C616E63652063616E6E6F74206265206C6573732074 PUSH1 0x0 DUP3 ADD MSTORE PUSH32 0x68616E2030000000000000000000000000000000000000000000000000000000 PUSH1 0x20 DUP3 ADD MSTORE POP JUMP JUMPDEST PUSH2 0x15F5 DUP2 PUSH2 0x12E6 JUMP JUMPDEST DUP2 EQ PUSH2 0x1600 JUMPI PUSH1 0x0 DUP1 REVERT JUMPDEST POP JUMP JUMPDEST PUSH2 0x160C DUP2 PUSH2 0x12F8 JUMP JUMPDEST DUP2 EQ PUSH2 0x1617 JUMPI PUSH1 0x0 DUP1 REVERT JUMPDEST POP JUMP JUMPDEST PUSH2 0x1623 DUP2 PUSH2 0x1324 JUMP JUMPDEST DUP2 EQ PUSH2 0x162E JUMPI PUSH1 0x0 DUP1 REVERT JUMPDEST POP JUMP INVALID LOG2 PUSH5 0x6970667358 0x22 SLT KECCAK256 ORIGIN DELEGATECALL 0xC2 COINBASE JUMPDEST SWAP14 SWAP12 SWAP13 0x29 PUSH23 0x112C87706D74C02977AB85B25DA6CB7FE4CF4ABA34C764 PUSH20 0x6F6C634300080700330000000000000000000000 "
				},
				"gasEstimates": {
					"creation": {
						"codeDepositCost": "1147000",
						"executionCost": "47565",
						"totalCost": "1194565"
					},
					"external": {
						"blockUser()": "2545",
						"creationTime()": "2473",
						"depositTax()": "infinite",
						"hasStaked(address)": "2867",
						"isStaking(address)": "2868",
						"issueRewards()": "infinite",
						"owner()": "2578",
						"pauseContract()": "4911",
						"paused()": "2610",
						"setBlockUser(bool)": "26941",
						"setPaused(bool)": "26942",
						"stakeToken()": "infinite",
						"stakers(uint256)": "5066",
						"stakingBalance(address)": "2837",
						"treasuryWallet()": "2474",
						"unstakeToken()": "82716",
						"withdrawTax()": "infinite"
					}
				},
				"methodIdentifiers": {
					"blockUser()": "021a89ad",
					"creationTime()": "d8270dce",
					"depositTax()": "f765fd8f",
					"hasStaked(address)": "c93c8f34",
					"isStaking(address)": "6f49712b",
					"issueRewards()": "b0370e0c",
					"owner()": "8da5cb5b",
					"pauseContract()": "439766ce",
					"paused()": "5c975abb",
					"setBlockUser(bool)": "75c96c5d",
					"setPaused(bool)": "16c38b3c",
					"stakeToken()": "51ed6a30",
					"stakers(uint256)": "fd5e6dd1",
					"stakingBalance(address)": "45bc78ab",
					"treasuryWallet()": "4626402b",
					"unstakeToken()": "20eb640c",
					"withdrawTax()": "dfa20f0a"
				}
			},
			"storageLayout": {
				"storage": [
					{
						"astId": 3,
						"contract": "contracts/staking.sol:App",
						"label": "owner",
						"offset": 0,
						"slot": "0",
						"type": "t_address"
					},
					{
						"astId": 5,
						"contract": "contracts/staking.sol:App",
						"label": "paused",
						"offset": 20,
						"slot": "0",
						"type": "t_bool"
					},
					{
						"astId": 7,
						"contract": "contracts/staking.sol:App",
						"label": "blockUser",
						"offset": 21,
						"slot": "0",
						"type": "t_bool"
					},
					{
						"astId": 9,
						"contract": "contracts/staking.sol:App",
						"label": "treasuryWallet",
						"offset": 0,
						"slot": "1",
						"type": "t_uint256"
					},
					{
						"astId": 13,
						"contract": "contracts/staking.sol:App",
						"label": "creationTime",
						"offset": 0,
						"slot": "2",
						"type": "t_uint256"
					},
					{
						"astId": 16,
						"contract": "contracts/staking.sol:App",
						"label": "stakers",
						"offset": 0,
						"slot": "3",
						"type": "t_array(t_address)dyn_storage"
					},
					{
						"astId": 20,
						"contract": "contracts/staking.sol:App",
						"label": "stakingBalance",
						"offset": 0,
						"slot": "4",
						"type": "t_mapping(t_address,t_uint256)"
					},
					{
						"astId": 24,
						"contract": "contracts/staking.sol:App",
						"label": "hasStaked",
						"offset": 0,
						"slot": "5",
						"type": "t_mapping(t_address,t_bool)"
					},
					{
						"astId": 28,
						"contract": "contracts/staking.sol:App",
						"label": "isStaking",
						"offset": 0,
						"slot": "6",
						"type": "t_mapping(t_address,t_bool)"
					}
				],
				"types": {
					"t_address": {
						"encoding": "inplace",
						"label": "address",
						"numberOfBytes": "20"
					},
					"t_array(t_address)dyn_storage": {
						"base": "t_address",
						"encoding": "dynamic_array",
						"label": "address[]",
						"numberOfBytes": "32"
					},
					"t_bool": {
						"encoding": "inplace",
						"label": "bool",
						"numberOfBytes": "1"
					},
					"t_mapping(t_address,t_bool)": {
						"encoding": "mapping",
						"key": "t_address",
						"label": "mapping(address => bool)",
						"numberOfBytes": "32",
						"value": "t_bool"
					},
					"t_mapping(t_address,t_uint256)": {
						"encoding": "mapping",
						"key": "t_address",
						"label": "mapping(address => uint256)",
						"numberOfBytes": "32",
						"value": "t_uint256"
					},
					"t_uint256": {
						"encoding": "inplace",
						"label": "uint256",
						"numberOfBytes": "32"
					}
				}
			},
			"userdoc": {
				"kind": "user",
				"methods": {},
				"version": 1
			}
		}
	}
}