{
	"contracts/staking.sol": {
		"App": {
			"abi": [
				{
					"inputs": [],
					"stateMutability": "nonpayable",
					"type": "constructor"
				},
				{
					"inputs": [],
					"name": "blockUser",
					"outputs": [
						{
							"internalType": "bool",
							"name": "",
							"type": "bool"
						}
					],
					"stateMutability": "view",
					"type": "function"
				},
				{
					"inputs": [
						{
							"internalType": "address",
							"name": "",
							"type": "address"
						},
						{
							"internalType": "uint256",
							"name": "",
							"type": "uint256"
						}
					],
					"name": "funds",
					"outputs": [
						{
							"internalType": "uint256",
							"name": "amount",
							"type": "uint256"
						},
						{
							"internalType": "uint256",
							"name": "since",
							"type": "uint256"
						}
					],
					"stateMutability": "view",
					"type": "function"
				},
				{
					"inputs": [
						{
							"internalType": "address",
							"name": "",
							"type": "address"
						}
					],
					"name": "hasStaked",
					"outputs": [
						{
							"internalType": "bool",
							"name": "",
							"type": "bool"
						}
					],
					"stateMutability": "view",
					"type": "function"
				},
				{
					"inputs": [
						{
							"internalType": "address",
							"name": "",
							"type": "address"
						}
					],
					"name": "isStaking",
					"outputs": [
						{
							"internalType": "bool",
							"name": "",
							"type": "bool"
						}
					],
					"stateMutability": "view",
					"type": "function"
				},
				{
					"inputs": [],
					"name": "issueRewards",
					"outputs": [],
					"stateMutability": "payable",
					"type": "function"
				},
				{
					"inputs": [],
					"name": "owner",
					"outputs": [
						{
							"internalType": "address",
							"name": "",
							"type": "address"
						}
					],
					"stateMutability": "view",
					"type": "function"
				},
				{
					"inputs": [],
					"name": "pauseContract",
					"outputs": [],
					"stateMutability": "view",
					"type": "function"
				},
				{
					"inputs": [],
					"name": "paused",
					"outputs": [
						{
							"internalType": "bool",
							"name": "",
							"type": "bool"
						}
					],
					"stateMutability": "view",
					"type": "function"
				},
				{
					"inputs": [],
					"name": "reward",
					"outputs": [
						{
							"internalType": "uint256",
							"name": "",
							"type": "uint256"
						}
					],
					"stateMutability": "view",
					"type": "function"
				},
				{
					"inputs": [
						{
							"internalType": "bool",
							"name": "_blockUser",
							"type": "bool"
						}
					],
					"name": "setBlockUser",
					"outputs": [],
					"stateMutability": "nonpayable",
					"type": "function"
				},
				{
					"inputs": [
						{
							"internalType": "bool",
							"name": "_paused",
							"type": "bool"
						}
					],
					"name": "setPaused",
					"outputs": [],
					"stateMutability": "nonpayable",
					"type": "function"
				},
				{
					"inputs": [],
					"name": "stakeToken",
					"outputs": [],
					"stateMutability": "payable",
					"type": "function"
				},
				{
					"inputs": [],
					"name": "totalAmount",
					"outputs": [
						{
							"internalType": "uint256",
							"name": "",
							"type": "uint256"
						}
					],
					"stateMutability": "view",
					"type": "function"
				},
				{
					"inputs": [],
					"name": "treasuryWallet",
					"outputs": [
						{
							"internalType": "uint256",
							"name": "",
							"type": "uint256"
						}
					],
					"stateMutability": "view",
					"type": "function"
				},
				{
					"inputs": [],
					"name": "unstakeToken",
					"outputs": [],
					"stateMutability": "payable",
					"type": "function"
				}
			],
			"devdoc": {
				"kind": "dev",
				"methods": {},
				"version": 1
			},
			"evm": {
				"assembly": "    /* \"contracts/staking.sol\":68:3106  contract App{\r... */\n  mstore(0x40, 0x80)\n    /* \"contracts/staking.sol\":447:506  constructor() public{\r... */\n  callvalue\n  dup1\n  iszero\n  tag_1\n  jumpi\n  0x00\n  dup1\n  revert\ntag_1:\n  pop\n    /* \"contracts/staking.sol\":486:496  msg.sender */\n  caller\n    /* \"contracts/staking.sol\":478:483  owner */\n  0x00\n  dup1\n    /* \"contracts/staking.sol\":478:496  owner = msg.sender */\n  0x0100\n  exp\n  dup2\n  sload\n  dup2\n  0xffffffffffffffffffffffffffffffffffffffff\n  mul\n  not\n  and\n  swap1\n  dup4\n  0xffffffffffffffffffffffffffffffffffffffff\n  and\n  mul\n  or\n  swap1\n  sstore\n  pop\n    /* \"contracts/staking.sol\":68:3106  contract App{\r... */\n  dataSize(sub_0)\n  dup1\n  dataOffset(sub_0)\n  0x00\n  codecopy\n  0x00\n  return\nstop\n\nsub_0: assembly {\n        /* \"contracts/staking.sol\":68:3106  contract App{\r... */\n      mstore(0x40, 0x80)\n      jumpi(tag_1, lt(calldatasize, 0x04))\n      shr(0xe0, calldataload(0x00))\n      dup1\n      0x51ed6a30\n      gt\n      tag_17\n      jumpi\n      dup1\n      0x88b22c24\n      gt\n      tag_18\n      jumpi\n      dup1\n      0x88b22c24\n      eq\n      tag_13\n      jumpi\n      dup1\n      0x8da5cb5b\n      eq\n      tag_14\n      jumpi\n      dup1\n      0xb0370e0c\n      eq\n      tag_15\n      jumpi\n      dup1\n      0xc93c8f34\n      eq\n      tag_16\n      jumpi\n      jump(tag_1)\n    tag_18:\n      dup1\n      0x51ed6a30\n      eq\n      tag_9\n      jumpi\n      dup1\n      0x5c975abb\n      eq\n      tag_10\n      jumpi\n      dup1\n      0x6f49712b\n      eq\n      tag_11\n      jumpi\n      dup1\n      0x75c96c5d\n      eq\n      tag_12\n      jumpi\n      jump(tag_1)\n    tag_17:\n      dup1\n      0x20eb640c\n      gt\n      tag_19\n      jumpi\n      dup1\n      0x20eb640c\n      eq\n      tag_5\n      jumpi\n      dup1\n      0x228cb733\n      eq\n      tag_6\n      jumpi\n      dup1\n      0x439766ce\n      eq\n      tag_7\n      jumpi\n      dup1\n      0x4626402b\n      eq\n      tag_8\n      jumpi\n      jump(tag_1)\n    tag_19:\n      dup1\n      0x021a89ad\n      eq\n      tag_2\n      jumpi\n      dup1\n      0x16c38b3c\n      eq\n      tag_3\n      jumpi\n      dup1\n      0x1a39d8ef\n      eq\n      tag_4\n      jumpi\n    tag_1:\n      0x00\n      dup1\n      revert\n        /* \"contracts/staking.sol\":139:160  bool public blockUser */\n    tag_2:\n      callvalue\n      dup1\n      iszero\n      tag_20\n      jumpi\n      0x00\n      dup1\n      revert\n    tag_20:\n      pop\n      tag_21\n      tag_22\n      jump\t// in\n    tag_21:\n      mload(0x40)\n      tag_23\n      swap2\n      swap1\n      tag_24\n      jump\t// in\n    tag_23:\n      mload(0x40)\n      dup1\n      swap2\n      sub\n      swap1\n      return\n        /* \"contracts/staking.sol\":2341:2480  function setPaused(bool _paused) public {\r... */\n    tag_3:\n      callvalue\n      dup1\n      iszero\n      tag_25\n      jumpi\n      0x00\n      dup1\n      revert\n    tag_25:\n      pop\n      tag_26\n      0x04\n      dup1\n      calldatasize\n      sub\n      dup2\n      add\n      swap1\n      tag_27\n      swap2\n      swap1\n      tag_28\n      jump\t// in\n    tag_27:\n      tag_29\n      jump\t// in\n    tag_26:\n      stop\n        /* \"contracts/staking.sol\":1660:1683  uint public totalAmount */\n    tag_4:\n      callvalue\n      dup1\n      iszero\n      tag_30\n      jumpi\n      0x00\n      dup1\n      revert\n    tag_30:\n      pop\n      tag_31\n      tag_32\n      jump\t// in\n    tag_31:\n      mload(0x40)\n      tag_33\n      swap2\n      swap1\n      tag_34\n      jump\t// in\n    tag_33:\n      mload(0x40)\n      dup1\n      swap2\n      sub\n      swap1\n      return\n        /* \"contracts/staking.sol\":1064:1601  function unstakeToken() payable public{\r... */\n    tag_5:\n      tag_35\n      tag_36\n      jump\t// in\n    tag_35:\n      stop\n        /* \"contracts/staking.sol\":1635:1653  uint public reward */\n    tag_6:\n      callvalue\n      dup1\n      iszero\n      tag_37\n      jumpi\n      0x00\n      dup1\n      revert\n    tag_37:\n      pop\n      tag_38\n      tag_39\n      jump\t// in\n    tag_38:\n      mload(0x40)\n      tag_40\n      swap2\n      swap1\n      tag_34\n      jump\t// in\n    tag_40:\n      mload(0x40)\n      dup1\n      swap2\n      sub\n      swap1\n      return\n        /* \"contracts/staking.sol\":2488:2672  function pauseContract() public view{\r... */\n    tag_7:\n      callvalue\n      dup1\n      iszero\n      tag_41\n      jumpi\n      0x00\n      dup1\n      revert\n    tag_41:\n      pop\n      tag_42\n      tag_43\n      jump\t// in\n    tag_42:\n      stop\n        /* \"contracts/staking.sol\":167:193  uint public treasuryWallet */\n    tag_8:\n      callvalue\n      dup1\n      iszero\n      tag_44\n      jumpi\n      0x00\n      dup1\n      revert\n    tag_44:\n      pop\n      tag_45\n      tag_46\n      jump\t// in\n    tag_45:\n      mload(0x40)\n      tag_47\n      swap2\n      swap1\n      tag_34\n      jump\t// in\n    tag_47:\n      mload(0x40)\n      dup1\n      swap2\n      sub\n      swap1\n      return\n        /* \"contracts/staking.sol\":539:1032  function stakeToken() payable public {\r... */\n    tag_9:\n      tag_48\n      tag_49\n      jump\t// in\n    tag_48:\n      stop\n        /* \"contracts/staking.sol\":114:132  bool public paused */\n    tag_10:\n      callvalue\n      dup1\n      iszero\n      tag_50\n      jumpi\n      0x00\n      dup1\n      revert\n    tag_50:\n      pop\n      tag_51\n      tag_52\n      jump\t// in\n    tag_51:\n      mload(0x40)\n      tag_53\n      swap2\n      swap1\n      tag_24\n      jump\t// in\n    tag_53:\n      mload(0x40)\n      dup1\n      swap2\n      sub\n      swap1\n      return\n        /* \"contracts/staking.sol\":397:438  mapping(address => bool) public isStaking */\n    tag_11:\n      callvalue\n      dup1\n      iszero\n      tag_54\n      jumpi\n      0x00\n      dup1\n      revert\n    tag_54:\n      pop\n      tag_55\n      0x04\n      dup1\n      calldatasize\n      sub\n      dup2\n      add\n      swap1\n      tag_56\n      swap2\n      swap1\n      tag_57\n      jump\t// in\n    tag_56:\n      tag_58\n      jump\t// in\n    tag_55:\n      mload(0x40)\n      tag_59\n      swap2\n      swap1\n      tag_24\n      jump\t// in\n    tag_59:\n      mload(0x40)\n      dup1\n      swap2\n      sub\n      swap1\n      return\n        /* \"contracts/staking.sol\":2941:3100  function setBlockUser(bool _blockUser) public {\r... */\n    tag_12:\n      callvalue\n      dup1\n      iszero\n      tag_60\n      jumpi\n      0x00\n      dup1\n      revert\n    tag_60:\n      pop\n      tag_61\n      0x04\n      dup1\n      calldatasize\n      sub\n      dup2\n      add\n      swap1\n      tag_62\n      swap2\n      swap1\n      tag_28\n      jump\t// in\n    tag_62:\n      tag_63\n      jump\t// in\n    tag_61:\n      stop\n        /* \"contracts/staking.sol\":300:342  mapping(address => Stakers[]) public funds */\n    tag_13:\n      callvalue\n      dup1\n      iszero\n      tag_64\n      jumpi\n      0x00\n      dup1\n      revert\n    tag_64:\n      pop\n      tag_65\n      0x04\n      dup1\n      calldatasize\n      sub\n      dup2\n      add\n      swap1\n      tag_66\n      swap2\n      swap1\n      tag_67\n      jump\t// in\n    tag_66:\n      tag_68\n      jump\t// in\n    tag_65:\n      mload(0x40)\n      tag_69\n      swap3\n      swap2\n      swap1\n      tag_70\n      jump\t// in\n    tag_69:\n      mload(0x40)\n      dup1\n      swap2\n      sub\n      swap1\n      return\n        /* \"contracts/staking.sol\":87:107  address public owner */\n    tag_14:\n      callvalue\n      dup1\n      iszero\n      tag_71\n      jumpi\n      0x00\n      dup1\n      revert\n    tag_71:\n      pop\n      tag_72\n      tag_73\n      jump\t// in\n    tag_72:\n      mload(0x40)\n      tag_74\n      swap2\n      swap1\n      tag_75\n      jump\t// in\n    tag_74:\n      mload(0x40)\n      dup1\n      swap2\n      sub\n      swap1\n      return\n        /* \"contracts/staking.sol\":1692:2304  function issueRewards() payable public{\r... */\n    tag_15:\n      tag_76\n      tag_77\n      jump\t// in\n    tag_76:\n      stop\n        /* \"contracts/staking.sol\":349:390  mapping(address => bool) public hasStaked */\n    tag_16:\n      callvalue\n      dup1\n      iszero\n      tag_78\n      jumpi\n      0x00\n      dup1\n      revert\n    tag_78:\n      pop\n      tag_79\n      0x04\n      dup1\n      calldatasize\n      sub\n      dup2\n      add\n      swap1\n      tag_80\n      swap2\n      swap1\n      tag_57\n      jump\t// in\n    tag_80:\n      tag_81\n      jump\t// in\n    tag_79:\n      mload(0x40)\n      tag_82\n      swap2\n      swap1\n      tag_24\n      jump\t// in\n    tag_82:\n      mload(0x40)\n      dup1\n      swap2\n      sub\n      swap1\n      return\n        /* \"contracts/staking.sol\":139:160  bool public blockUser */\n    tag_22:\n      0x00\n      0x15\n      swap1\n      sload\n      swap1\n      0x0100\n      exp\n      swap1\n      div\n      0xff\n      and\n      dup2\n      jump\t// out\n        /* \"contracts/staking.sol\":2341:2480  function setPaused(bool _paused) public {\r... */\n    tag_29:\n        /* \"contracts/staking.sol\":2414:2419  owner */\n      0x00\n      dup1\n      sload\n      swap1\n      0x0100\n      exp\n      swap1\n      div\n      0xffffffffffffffffffffffffffffffffffffffff\n      and\n        /* \"contracts/staking.sol\":2400:2419  msg.sender == owner */\n      0xffffffffffffffffffffffffffffffffffffffff\n      and\n        /* \"contracts/staking.sol\":2400:2410  msg.sender */\n      caller\n        /* \"contracts/staking.sol\":2400:2419  msg.sender == owner */\n      0xffffffffffffffffffffffffffffffffffffffff\n      and\n      eq\n        /* \"contracts/staking.sol\":2392:2445  require(msg.sender == owner, \"You are not the owner\") */\n      tag_84\n      jumpi\n      mload(0x40)\n      0x08c379a000000000000000000000000000000000000000000000000000000000\n      dup2\n      mstore\n      0x04\n      add\n      tag_85\n      swap1\n      tag_86\n      jump\t// in\n    tag_85:\n      mload(0x40)\n      dup1\n      swap2\n      sub\n      swap1\n      revert\n    tag_84:\n        /* \"contracts/staking.sol\":2465:2472  _paused */\n      dup1\n        /* \"contracts/staking.sol\":2456:2462  paused */\n      0x00\n      0x14\n        /* \"contracts/staking.sol\":2456:2472  paused = _paused */\n      0x0100\n      exp\n      dup2\n      sload\n      dup2\n      0xff\n      mul\n      not\n      and\n      swap1\n      dup4\n      iszero\n      iszero\n      mul\n      or\n      swap1\n      sstore\n      pop\n        /* \"contracts/staking.sol\":2341:2480  function setPaused(bool _paused) public {\r... */\n      pop\n      jump\t// out\n        /* \"contracts/staking.sol\":1660:1683  uint public totalAmount */\n    tag_32:\n      sload(0x08)\n      dup2\n      jump\t// out\n        /* \"contracts/staking.sol\":1064:1601  function unstakeToken() payable public{\r... */\n    tag_36:\n        /* \"contracts/staking.sol\":1150:1151  0 */\n      0x00\n        /* \"contracts/staking.sol\":1131:1140  userFunds */\n      0x02\n        /* \"contracts/staking.sol\":1131:1147  userFunds.amount */\n      0x00\n      add\n      sload\n        /* \"contracts/staking.sol\":1131:1151  userFunds.amount > 0 */\n      gt\n        /* \"contracts/staking.sol\":1123:1183  require(userFunds.amount > 0, \"funds cannot be less than 0\") */\n      tag_88\n      jumpi\n      mload(0x40)\n      0x08c379a000000000000000000000000000000000000000000000000000000000\n      dup2\n      mstore\n      0x04\n      add\n      tag_89\n      swap1\n      tag_90\n      jump\t// in\n    tag_89:\n      mload(0x40)\n      dup1\n      swap2\n      sub\n      swap1\n      revert\n    tag_88:\n        /* \"contracts/staking.sol\":1194:1214  uint amountToUnstake */\n      0x00\n        /* \"contracts/staking.sol\":1234:1240  uint i */\n      dup1\n        /* \"contracts/staking.sol\":1229:1446  for (uint i = 0; i < funds[msg.sender].length; i++){\r... */\n    tag_91:\n        /* \"contracts/staking.sol\":1250:1255  funds */\n      0x04\n        /* \"contracts/staking.sol\":1250:1267  funds[msg.sender] */\n      0x00\n        /* \"contracts/staking.sol\":1256:1266  msg.sender */\n      caller\n        /* \"contracts/staking.sol\":1250:1267  funds[msg.sender] */\n      0xffffffffffffffffffffffffffffffffffffffff\n      and\n      0xffffffffffffffffffffffffffffffffffffffff\n      and\n      dup2\n      mstore\n      0x20\n      add\n      swap1\n      dup2\n      mstore\n      0x20\n      add\n      0x00\n      keccak256\n        /* \"contracts/staking.sol\":1250:1274  funds[msg.sender].length */\n      dup1\n      sload\n      swap1\n      pop\n        /* \"contracts/staking.sol\":1246:1247  i */\n      dup2\n        /* \"contracts/staking.sol\":1246:1274  i < funds[msg.sender].length */\n      lt\n        /* \"contracts/staking.sol\":1229:1446  for (uint i = 0; i < funds[msg.sender].length; i++){\r... */\n      iszero\n      tag_92\n      jumpi\n        /* \"contracts/staking.sol\":1346:1353  8640000 */\n      0x83d600\n        /* \"contracts/staking.sol\":1317:1322  funds */\n      0x04\n        /* \"contracts/staking.sol\":1317:1334  funds[msg.sender] */\n      0x00\n        /* \"contracts/staking.sol\":1323:1333  msg.sender */\n      caller\n        /* \"contracts/staking.sol\":1317:1334  funds[msg.sender] */\n      0xffffffffffffffffffffffffffffffffffffffff\n      and\n      0xffffffffffffffffffffffffffffffffffffffff\n      and\n      dup2\n      mstore\n      0x20\n      add\n      swap1\n      dup2\n      mstore\n      0x20\n      add\n      0x00\n      keccak256\n        /* \"contracts/staking.sol\":1335:1336  i */\n      dup3\n        /* \"contracts/staking.sol\":1317:1337  funds[msg.sender][i] */\n      dup2\n      sload\n      dup2\n      lt\n      tag_94\n      jumpi\n      tag_95\n      tag_96\n      jump\t// in\n    tag_95:\n    tag_94:\n      swap1\n      0x00\n      mstore\n      keccak256(0x00, 0x20)\n      swap1\n      0x02\n      mul\n      add\n        /* \"contracts/staking.sol\":1317:1343  funds[msg.sender][i].since */\n      0x01\n      add\n      sload\n        /* \"contracts/staking.sol\":1299:1314  block.timestamp */\n      timestamp\n        /* \"contracts/staking.sol\":1299:1343  block.timestamp - funds[msg.sender][i].since */\n      tag_98\n      swap2\n      swap1\n      tag_99\n      jump\t// in\n    tag_98:\n        /* \"contracts/staking.sol\":1299:1353  block.timestamp - funds[msg.sender][i].since < 8640000 */\n      lt\n        /* \"contracts/staking.sol\":1296:1435  if(block.timestamp - funds[msg.sender][i].since < 8640000){\r... */\n      iszero\n      tag_100\n      jumpi\n        /* \"contracts/staking.sol\":1392:1397  funds */\n      0x04\n        /* \"contracts/staking.sol\":1392:1409  funds[msg.sender] */\n      0x00\n        /* \"contracts/staking.sol\":1398:1408  msg.sender */\n      caller\n        /* \"contracts/staking.sol\":1392:1409  funds[msg.sender] */\n      0xffffffffffffffffffffffffffffffffffffffff\n      and\n      0xffffffffffffffffffffffffffffffffffffffff\n      and\n      dup2\n      mstore\n      0x20\n      add\n      swap1\n      dup2\n      mstore\n      0x20\n      add\n      0x00\n      keccak256\n        /* \"contracts/staking.sol\":1410:1411  i */\n      dup2\n        /* \"contracts/staking.sol\":1392:1412  funds[msg.sender][i] */\n      dup2\n      sload\n      dup2\n      lt\n      tag_101\n      jumpi\n      tag_102\n      tag_96\n      jump\t// in\n    tag_102:\n    tag_101:\n      swap1\n      0x00\n      mstore\n      keccak256(0x00, 0x20)\n      swap1\n      0x02\n      mul\n      add\n        /* \"contracts/staking.sol\":1392:1419  funds[msg.sender][i].amount */\n      0x00\n      add\n      sload\n        /* \"contracts/staking.sol\":1373:1419  amountToUnstake += funds[msg.sender][i].amount */\n      dup3\n      tag_104\n      swap2\n      swap1\n      tag_105\n      jump\t// in\n    tag_104:\n      swap2\n      pop\n        /* \"contracts/staking.sol\":1296:1435  if(block.timestamp - funds[msg.sender][i].since < 8640000){\r... */\n    tag_100:\n        /* \"contracts/staking.sol\":1276:1279  i++ */\n      dup1\n      dup1\n      tag_106\n      swap1\n      tag_107\n      jump\t// in\n    tag_106:\n      swap2\n      pop\n      pop\n        /* \"contracts/staking.sol\":1229:1446  for (uint i = 0; i < funds[msg.sender].length; i++){\r... */\n      jump(tag_91)\n    tag_92:\n      pop\n        /* \"contracts/staking.sol\":1464:1474  msg.sender */\n      caller\n        /* \"contracts/staking.sol\":1456:1484  payable(msg.sender).transfer */\n      0xffffffffffffffffffffffffffffffffffffffff\n      and\n        /* \"contracts/staking.sol\":1456:1497  payable(msg.sender).transfer(totalAmount) */\n      0x08fc\n        /* \"contracts/staking.sol\":1485:1496  totalAmount */\n      sload(0x08)\n        /* \"contracts/staking.sol\":1456:1497  payable(msg.sender).transfer(totalAmount) */\n      swap1\n      dup2\n      iszero\n      mul\n      swap1\n      mload(0x40)\n      0x00\n      mload(0x40)\n      dup1\n      dup4\n      sub\n      dup2\n      dup6\n      dup9\n      dup9\n      call\n      swap4\n      pop\n      pop\n      pop\n      pop\n      iszero\n      dup1\n      iszero\n      tag_109\n      jumpi\n      returndatasize\n      0x00\n      dup1\n      returndatacopy\n      revert(0x00, returndatasize)\n    tag_109:\n      pop\n        /* \"contracts/staking.sol\":1548:1549  0 */\n      0x00\n        /* \"contracts/staking.sol\":1518:1523  funds */\n      0x04\n        /* \"contracts/staking.sol\":1518:1535  funds[msg.sender] */\n      0x00\n        /* \"contracts/staking.sol\":1524:1534  msg.sender */\n      caller\n        /* \"contracts/staking.sol\":1518:1535  funds[msg.sender] */\n      0xffffffffffffffffffffffffffffffffffffffff\n      and\n      0xffffffffffffffffffffffffffffffffffffffff\n      and\n      dup2\n      mstore\n      0x20\n      add\n      swap1\n      dup2\n      mstore\n      0x20\n      add\n      0x00\n      keccak256\n        /* \"contracts/staking.sol\":1536:1537  0 */\n      0x00\n        /* \"contracts/staking.sol\":1518:1538  funds[msg.sender][0] */\n      dup2\n      sload\n      dup2\n      lt\n      tag_110\n      jumpi\n      tag_111\n      tag_96\n      jump\t// in\n    tag_111:\n    tag_110:\n      swap1\n      0x00\n      mstore\n      keccak256(0x00, 0x20)\n      swap1\n      0x02\n      mul\n      add\n        /* \"contracts/staking.sol\":1518:1545  funds[msg.sender][0].amount */\n      0x00\n      add\n        /* \"contracts/staking.sol\":1518:1549  funds[msg.sender][0].amount = 0 */\n      dup2\n      swap1\n      sstore\n      pop\n        /* \"contracts/staking.sol\":1586:1591  false */\n      0x00\n        /* \"contracts/staking.sol\":1562:1571  isStaking */\n      0x06\n        /* \"contracts/staking.sol\":1562:1583  isStaking[msg.sender] */\n      0x00\n        /* \"contracts/staking.sol\":1572:1582  msg.sender */\n      caller\n        /* \"contracts/staking.sol\":1562:1583  isStaking[msg.sender] */\n      0xffffffffffffffffffffffffffffffffffffffff\n      and\n      0xffffffffffffffffffffffffffffffffffffffff\n      and\n      dup2\n      mstore\n      0x20\n      add\n      swap1\n      dup2\n      mstore\n      0x20\n      add\n      0x00\n      keccak256\n      0x00\n        /* \"contracts/staking.sol\":1562:1591  isStaking[msg.sender] = false */\n      0x0100\n      exp\n      dup2\n      sload\n      dup2\n      0xff\n      mul\n      not\n      and\n      swap1\n      dup4\n      iszero\n      iszero\n      mul\n      or\n      swap1\n      sstore\n      pop\n        /* \"contracts/staking.sol\":1102:1601  {\r... */\n      pop\n        /* \"contracts/staking.sol\":1064:1601  function unstakeToken() payable public{\r... */\n      jump\t// out\n        /* \"contracts/staking.sol\":1635:1653  uint public reward */\n    tag_39:\n      sload(0x07)\n      dup2\n      jump\t// out\n        /* \"contracts/staking.sol\":2488:2672  function pauseContract() public view{\r... */\n    tag_43:\n        /* \"contracts/staking.sol\":2557:2562  owner */\n      0x00\n      dup1\n      sload\n      swap1\n      0x0100\n      exp\n      swap1\n      div\n      0xffffffffffffffffffffffffffffffffffffffff\n      and\n        /* \"contracts/staking.sol\":2543:2562  msg.sender == owner */\n      0xffffffffffffffffffffffffffffffffffffffff\n      and\n        /* \"contracts/staking.sol\":2543:2553  msg.sender */\n      caller\n        /* \"contracts/staking.sol\":2543:2562  msg.sender == owner */\n      0xffffffffffffffffffffffffffffffffffffffff\n      and\n      eq\n        /* \"contracts/staking.sol\":2535:2600  require(msg.sender == owner, \"Only owner can pause the contract\") */\n      tag_114\n      jumpi\n      mload(0x40)\n      0x08c379a000000000000000000000000000000000000000000000000000000000\n      dup2\n      mstore\n      0x04\n      add\n      tag_115\n      swap1\n      tag_116\n      jump\t// in\n    tag_115:\n      mload(0x40)\n      dup1\n      swap2\n      sub\n      swap1\n      revert\n    tag_114:\n        /* \"contracts/staking.sol\":2629:2634  false */\n      0x00\n        /* \"contracts/staking.sol\":2619:2634  paused == false */\n      iszero\n      iszero\n        /* \"contracts/staking.sol\":2619:2625  paused */\n      0x00\n      0x14\n      swap1\n      sload\n      swap1\n      0x0100\n      exp\n      swap1\n      div\n      0xff\n      and\n        /* \"contracts/staking.sol\":2619:2634  paused == false */\n      iszero\n      iszero\n      eq\n        /* \"contracts/staking.sol\":2611:2654  require(paused == false, \"Contract Paused\") */\n      tag_117\n      jumpi\n      mload(0x40)\n      0x08c379a000000000000000000000000000000000000000000000000000000000\n      dup2\n      mstore\n      0x04\n      add\n      tag_118\n      swap1\n      tag_119\n      jump\t// in\n    tag_118:\n      mload(0x40)\n      dup1\n      swap2\n      sub\n      swap1\n      revert\n    tag_117:\n        /* \"contracts/staking.sol\":2488:2672  function pauseContract() public view{\r... */\n      jump\t// out\n        /* \"contracts/staking.sol\":167:193  uint public treasuryWallet */\n    tag_46:\n      sload(0x01)\n      dup2\n      jump\t// out\n        /* \"contracts/staking.sol\":539:1032  function stakeToken() payable public {\r... */\n    tag_49:\n        /* \"contracts/staking.sol\":613:614  0 */\n      0x00\n        /* \"contracts/staking.sol\":601:610  msg.value */\n      callvalue\n        /* \"contracts/staking.sol\":601:614  msg.value > 0 */\n      gt\n        /* \"contracts/staking.sol\":593:637  require(msg.value > 0, \"amount cannot be 0\") */\n      tag_121\n      jumpi\n      mload(0x40)\n      0x08c379a000000000000000000000000000000000000000000000000000000000\n      dup2\n      mstore\n      0x04\n      add\n      tag_122\n      swap1\n      tag_123\n      jump\t// in\n    tag_122:\n      mload(0x40)\n      dup1\n      swap2\n      sub\n      swap1\n      revert\n    tag_121:\n        /* \"contracts/staking.sol\":669:674  false */\n      0x00\n        /* \"contracts/staking.sol\":656:674  blockUser == false */\n      iszero\n      iszero\n        /* \"contracts/staking.sol\":656:665  blockUser */\n      0x00\n      0x15\n      swap1\n      sload\n      swap1\n      0x0100\n      exp\n      swap1\n      div\n      0xff\n      and\n        /* \"contracts/staking.sol\":656:674  blockUser == false */\n      iszero\n      iszero\n      eq\n        /* \"contracts/staking.sol\":648:692  require(blockUser == false, \"User Blocked!\") */\n      tag_124\n      jumpi\n      mload(0x40)\n      0x08c379a000000000000000000000000000000000000000000000000000000000\n      dup2\n      mstore\n      0x04\n      add\n      tag_125\n      swap1\n      tag_126\n      jump\t// in\n    tag_125:\n      mload(0x40)\n      dup1\n      swap2\n      sub\n      swap1\n      revert\n    tag_124:\n        /* \"contracts/staking.sol\":722:731  msg.value */\n      callvalue\n        /* \"contracts/staking.sol\":703:712  userFunds */\n      0x02\n        /* \"contracts/staking.sol\":703:719  userFunds.amount */\n      0x00\n      add\n        /* \"contracts/staking.sol\":703:731  userFunds.amount = msg.value */\n      dup2\n      swap1\n      sstore\n      pop\n        /* \"contracts/staking.sol\":760:775  block.timestamp */\n      timestamp\n        /* \"contracts/staking.sol\":742:751  userFunds */\n      0x02\n        /* \"contracts/staking.sol\":742:757  userFunds.since */\n      0x01\n      add\n        /* \"contracts/staking.sol\":742:775  userFunds.since = block.timestamp */\n      dup2\n      swap1\n      sstore\n      pop\n        /* \"contracts/staking.sol\":788:793  funds */\n      0x04\n        /* \"contracts/staking.sol\":788:805  funds[msg.sender] */\n      0x00\n        /* \"contracts/staking.sol\":794:804  msg.sender */\n      caller\n        /* \"contracts/staking.sol\":788:805  funds[msg.sender] */\n      0xffffffffffffffffffffffffffffffffffffffff\n      and\n      0xffffffffffffffffffffffffffffffffffffffff\n      and\n      dup2\n      mstore\n      0x20\n      add\n      swap1\n      dup2\n      mstore\n      0x20\n      add\n      0x00\n      keccak256\n        /* \"contracts/staking.sol\":811:820  userFunds */\n      0x02\n        /* \"contracts/staking.sol\":788:821  funds[msg.sender].push(userFunds) */\n      swap1\n      dup1\n      0x01\n      dup2\n      sload\n      add\n      dup1\n      dup3\n      sstore\n      dup1\n      swap2\n      pop\n      pop\n      0x01\n      swap1\n      sub\n      swap1\n      0x00\n      mstore\n      keccak256(0x00, 0x20)\n      swap1\n      0x02\n      mul\n      add\n      0x00\n      swap1\n      swap2\n      swap1\n      swap2\n      swap1\n      swap2\n      pop\n      0x00\n      dup3\n      add\n      sload\n      dup2\n      0x00\n      add\n      sstore\n      0x01\n      dup3\n      add\n      sload\n      dup2\n      0x01\n      add\n      sstore\n      pop\n      pop\n        /* \"contracts/staking.sol\":857:865  uint tax */\n      0x00\n        /* \"contracts/staking.sol\":891:894  100 */\n      0x64\n        /* \"contracts/staking.sol\":887:888  5 */\n      0x05\n        /* \"contracts/staking.sol\":868:877  userFunds */\n      0x02\n        /* \"contracts/staking.sol\":868:884  userFunds.amount */\n      0x00\n      add\n      sload\n        /* \"contracts/staking.sol\":868:888  userFunds.amount * 5 */\n      tag_128\n      swap2\n      swap1\n      tag_129\n      jump\t// in\n    tag_128:\n        /* \"contracts/staking.sol\":868:894  userFunds.amount * 5 / 100 */\n      tag_130\n      swap2\n      swap1\n      tag_131\n      jump\t// in\n    tag_130:\n        /* \"contracts/staking.sol\":857:894  uint tax = userFunds.amount * 5 / 100 */\n      swap1\n      pop\n        /* \"contracts/staking.sol\":941:944  tax */\n      dup1\n        /* \"contracts/staking.sol\":922:931  userFunds */\n      0x02\n        /* \"contracts/staking.sol\":922:938  userFunds.amount */\n      0x00\n      add\n      sload\n        /* \"contracts/staking.sol\":922:944  userFunds.amount + tax */\n      tag_132\n      swap2\n      swap1\n      tag_105\n      jump\t// in\n    tag_132:\n        /* \"contracts/staking.sol\":905:919  treasuryWallet */\n      0x01\n        /* \"contracts/staking.sol\":905:944  treasuryWallet = userFunds.amount + tax */\n      dup2\n      swap1\n      sstore\n      pop\n        /* \"contracts/staking.sol\":981:985  true */\n      0x01\n        /* \"contracts/staking.sol\":957:966  isStaking */\n      0x06\n        /* \"contracts/staking.sol\":957:978  isStaking[msg.sender] */\n      0x00\n        /* \"contracts/staking.sol\":967:977  msg.sender */\n      caller\n        /* \"contracts/staking.sol\":957:978  isStaking[msg.sender] */\n      0xffffffffffffffffffffffffffffffffffffffff\n      and\n      0xffffffffffffffffffffffffffffffffffffffff\n      and\n      dup2\n      mstore\n      0x20\n      add\n      swap1\n      dup2\n      mstore\n      0x20\n      add\n      0x00\n      keccak256\n      0x00\n        /* \"contracts/staking.sol\":957:985  isStaking[msg.sender] = true */\n      0x0100\n      exp\n      dup2\n      sload\n      dup2\n      0xff\n      mul\n      not\n      and\n      swap1\n      dup4\n      iszero\n      iszero\n      mul\n      or\n      swap1\n      sstore\n      pop\n        /* \"contracts/staking.sol\":1020:1024  true */\n      0x01\n        /* \"contracts/staking.sol\":996:1005  hasStaked */\n      0x05\n        /* \"contracts/staking.sol\":996:1017  hasStaked[msg.sender] */\n      0x00\n        /* \"contracts/staking.sol\":1006:1016  msg.sender */\n      caller\n        /* \"contracts/staking.sol\":996:1017  hasStaked[msg.sender] */\n      0xffffffffffffffffffffffffffffffffffffffff\n      and\n      0xffffffffffffffffffffffffffffffffffffffff\n      and\n      dup2\n      mstore\n      0x20\n      add\n      swap1\n      dup2\n      mstore\n      0x20\n      add\n      0x00\n      keccak256\n      0x00\n        /* \"contracts/staking.sol\":996:1024  hasStaked[msg.sender] = true */\n      0x0100\n      exp\n      dup2\n      sload\n      dup2\n      0xff\n      mul\n      not\n      and\n      swap1\n      dup4\n      iszero\n      iszero\n      mul\n      or\n      swap1\n      sstore\n      pop\n        /* \"contracts/staking.sol\":576:1032  {\r... */\n      pop\n        /* \"contracts/staking.sol\":539:1032  function stakeToken() payable public {\r... */\n      jump\t// out\n        /* \"contracts/staking.sol\":114:132  bool public paused */\n    tag_52:\n      0x00\n      0x14\n      swap1\n      sload\n      swap1\n      0x0100\n      exp\n      swap1\n      div\n      0xff\n      and\n      dup2\n      jump\t// out\n        /* \"contracts/staking.sol\":397:438  mapping(address => bool) public isStaking */\n    tag_58:\n      mstore(0x20, 0x06)\n      dup1\n      0x00\n      mstore\n      keccak256(0x00, 0x40)\n      0x00\n      swap2\n      pop\n      sload\n      swap1\n      0x0100\n      exp\n      swap1\n      div\n      0xff\n      and\n      dup2\n      jump\t// out\n        /* \"contracts/staking.sol\":2941:3100  function setBlockUser(bool _blockUser) public {\r... */\n    tag_63:\n        /* \"contracts/staking.sol\":3020:3025  owner */\n      0x00\n      dup1\n      sload\n      swap1\n      0x0100\n      exp\n      swap1\n      div\n      0xffffffffffffffffffffffffffffffffffffffff\n      and\n        /* \"contracts/staking.sol\":3006:3025  msg.sender == owner */\n      0xffffffffffffffffffffffffffffffffffffffff\n      and\n        /* \"contracts/staking.sol\":3006:3016  msg.sender */\n      caller\n        /* \"contracts/staking.sol\":3006:3025  msg.sender == owner */\n      0xffffffffffffffffffffffffffffffffffffffff\n      and\n      eq\n        /* \"contracts/staking.sol\":2998:3059  require(msg.sender == owner, \"Only owner can block the user\") */\n      tag_134\n      jumpi\n      mload(0x40)\n      0x08c379a000000000000000000000000000000000000000000000000000000000\n      dup2\n      mstore\n      0x04\n      add\n      tag_135\n      swap1\n      tag_136\n      jump\t// in\n    tag_135:\n      mload(0x40)\n      dup1\n      swap2\n      sub\n      swap1\n      revert\n    tag_134:\n        /* \"contracts/staking.sol\":3082:3092  _blockUser */\n      dup1\n        /* \"contracts/staking.sol\":3070:3079  blockUser */\n      0x00\n      0x15\n        /* \"contracts/staking.sol\":3070:3092  blockUser = _blockUser */\n      0x0100\n      exp\n      dup2\n      sload\n      dup2\n      0xff\n      mul\n      not\n      and\n      swap1\n      dup4\n      iszero\n      iszero\n      mul\n      or\n      swap1\n      sstore\n      pop\n        /* \"contracts/staking.sol\":2941:3100  function setBlockUser(bool _blockUser) public {\r... */\n      pop\n      jump\t// out\n        /* \"contracts/staking.sol\":300:342  mapping(address => Stakers[]) public funds */\n    tag_68:\n      mstore(0x20, 0x04)\n      dup2\n      0x00\n      mstore\n      keccak256(0x00, 0x40)\n      dup2\n      dup2\n      sload\n      dup2\n      lt\n      tag_137\n      jumpi\n      0x00\n      dup1\n      revert\n    tag_137:\n      swap1\n      0x00\n      mstore\n      keccak256(0x00, 0x20)\n      swap1\n      0x02\n      mul\n      add\n      0x00\n      swap2\n      pop\n      swap2\n      pop\n      pop\n      dup1\n      0x00\n      add\n      sload\n      swap1\n      dup1\n      0x01\n      add\n      sload\n      swap1\n      pop\n      dup3\n      jump\t// out\n        /* \"contracts/staking.sol\":87:107  address public owner */\n    tag_73:\n      0x00\n      dup1\n      sload\n      swap1\n      0x0100\n      exp\n      swap1\n      div\n      0xffffffffffffffffffffffffffffffffffffffff\n      and\n      dup2\n      jump\t// out\n        /* \"contracts/staking.sol\":1692:2304  function issueRewards() payable public{\r... */\n    tag_77:\n        /* \"contracts/staking.sol\":1763:1768  owner */\n      0x00\n      dup1\n      sload\n      swap1\n      0x0100\n      exp\n      swap1\n      div\n      0xffffffffffffffffffffffffffffffffffffffff\n      and\n        /* \"contracts/staking.sol\":1749:1768  msg.sender == owner */\n      0xffffffffffffffffffffffffffffffffffffffff\n      and\n        /* \"contracts/staking.sol\":1749:1759  msg.sender */\n      caller\n        /* \"contracts/staking.sol\":1749:1768  msg.sender == owner */\n      0xffffffffffffffffffffffffffffffffffffffff\n      and\n      eq\n        /* \"contracts/staking.sol\":1741:1797  require(msg.sender == owner, \"caller must be the owner\") */\n      tag_140\n      jumpi\n      mload(0x40)\n      0x08c379a000000000000000000000000000000000000000000000000000000000\n      dup2\n      mstore\n      0x04\n      add\n      tag_141\n      swap1\n      tag_142\n      jump\t// in\n    tag_141:\n      mload(0x40)\n      dup1\n      swap2\n      sub\n      swap1\n      revert\n    tag_140:\n        /* \"contracts/staking.sol\":1824:1830  uint i */\n      0x00\n        /* \"contracts/staking.sol\":1819:2228  for (uint i = 0; i < funds[msg.sender].length; i++){\r... */\n    tag_143:\n        /* \"contracts/staking.sol\":1840:1845  funds */\n      0x04\n        /* \"contracts/staking.sol\":1840:1857  funds[msg.sender] */\n      0x00\n        /* \"contracts/staking.sol\":1846:1856  msg.sender */\n      caller\n        /* \"contracts/staking.sol\":1840:1857  funds[msg.sender] */\n      0xffffffffffffffffffffffffffffffffffffffff\n      and\n      0xffffffffffffffffffffffffffffffffffffffff\n      and\n      dup2\n      mstore\n      0x20\n      add\n      swap1\n      dup2\n      mstore\n      0x20\n      add\n      0x00\n      keccak256\n        /* \"contracts/staking.sol\":1840:1864  funds[msg.sender].length */\n      dup1\n      sload\n      swap1\n      pop\n        /* \"contracts/staking.sol\":1836:1837  i */\n      dup2\n        /* \"contracts/staking.sol\":1836:1864  i < funds[msg.sender].length */\n      lt\n        /* \"contracts/staking.sol\":1819:2228  for (uint i = 0; i < funds[msg.sender].length; i++){\r... */\n      iszero\n      tag_144\n      jumpi\n        /* \"contracts/staking.sol\":1885:1905  uint currentUserFund */\n      0x00\n        /* \"contracts/staking.sol\":1908:1913  funds */\n      0x04\n        /* \"contracts/staking.sol\":1908:1925  funds[msg.sender] */\n      0x00\n        /* \"contracts/staking.sol\":1914:1924  msg.sender */\n      caller\n        /* \"contracts/staking.sol\":1908:1925  funds[msg.sender] */\n      0xffffffffffffffffffffffffffffffffffffffff\n      and\n      0xffffffffffffffffffffffffffffffffffffffff\n      and\n      dup2\n      mstore\n      0x20\n      add\n      swap1\n      dup2\n      mstore\n      0x20\n      add\n      0x00\n      keccak256\n        /* \"contracts/staking.sol\":1926:1927  i */\n      dup3\n        /* \"contracts/staking.sol\":1908:1928  funds[msg.sender][i] */\n      dup2\n      sload\n      dup2\n      lt\n      tag_146\n      jumpi\n      tag_147\n      tag_96\n      jump\t// in\n    tag_147:\n    tag_146:\n      swap1\n      0x00\n      mstore\n      keccak256(0x00, 0x20)\n      swap1\n      0x02\n      mul\n      add\n        /* \"contracts/staking.sol\":1908:1935  funds[msg.sender][i].amount */\n      0x00\n      add\n      sload\n        /* \"contracts/staking.sol\":1885:1935  uint currentUserFund = funds[msg.sender][i].amount */\n      swap1\n      pop\n        /* \"contracts/staking.sol\":2000:2007  8640000 */\n      0x83d600\n        /* \"contracts/staking.sol\":1971:1976  funds */\n      0x04\n        /* \"contracts/staking.sol\":1971:1988  funds[msg.sender] */\n      0x00\n        /* \"contracts/staking.sol\":1977:1987  msg.sender */\n      caller\n        /* \"contracts/staking.sol\":1971:1988  funds[msg.sender] */\n      0xffffffffffffffffffffffffffffffffffffffff\n      and\n      0xffffffffffffffffffffffffffffffffffffffff\n      and\n      dup2\n      mstore\n      0x20\n      add\n      swap1\n      dup2\n      mstore\n      0x20\n      add\n      0x00\n      keccak256\n        /* \"contracts/staking.sol\":1989:1990  i */\n      dup4\n        /* \"contracts/staking.sol\":1971:1991  funds[msg.sender][i] */\n      dup2\n      sload\n      dup2\n      lt\n      tag_149\n      jumpi\n      tag_150\n      tag_96\n      jump\t// in\n    tag_150:\n    tag_149:\n      swap1\n      0x00\n      mstore\n      keccak256(0x00, 0x20)\n      swap1\n      0x02\n      mul\n      add\n        /* \"contracts/staking.sol\":1971:1997  funds[msg.sender][i].since */\n      0x01\n      add\n      sload\n        /* \"contracts/staking.sol\":1953:1968  block.timestamp */\n      timestamp\n        /* \"contracts/staking.sol\":1953:1997  block.timestamp - funds[msg.sender][i].since */\n      tag_152\n      swap2\n      swap1\n      tag_99\n      jump\t// in\n    tag_152:\n        /* \"contracts/staking.sol\":1953:2007  block.timestamp - funds[msg.sender][i].since < 8640000 */\n      lt\n        /* \"contracts/staking.sol\":1950:2203  if(block.timestamp - funds[msg.sender][i].since < 8640000){\r... */\n      iszero\n      tag_153\n      jumpi\n        /* \"contracts/staking.sol\":2110:2113  100 */\n      0x64\n        /* \"contracts/staking.sol\":2094:2109  currentUserFund */\n      dup2\n        /* \"contracts/staking.sol\":2088:2090  10 */\n      0x0a\n        /* \"contracts/staking.sol\":2058:2063  funds */\n      0x04\n        /* \"contracts/staking.sol\":2058:2075  funds[msg.sender] */\n      0x00\n        /* \"contracts/staking.sol\":2064:2074  msg.sender */\n      caller\n        /* \"contracts/staking.sol\":2058:2075  funds[msg.sender] */\n      0xffffffffffffffffffffffffffffffffffffffff\n      and\n      0xffffffffffffffffffffffffffffffffffffffff\n      and\n      dup2\n      mstore\n      0x20\n      add\n      swap1\n      dup2\n      mstore\n      0x20\n      add\n      0x00\n      keccak256\n        /* \"contracts/staking.sol\":2076:2077  i */\n      dup6\n        /* \"contracts/staking.sol\":2058:2078  funds[msg.sender][i] */\n      dup2\n      sload\n      dup2\n      lt\n      tag_154\n      jumpi\n      tag_155\n      tag_96\n      jump\t// in\n    tag_155:\n    tag_154:\n      swap1\n      0x00\n      mstore\n      keccak256(0x00, 0x20)\n      swap1\n      0x02\n      mul\n      add\n        /* \"contracts/staking.sol\":2058:2084  funds[msg.sender][i].since */\n      0x01\n      add\n      sload\n        /* \"contracts/staking.sol\":2040:2055  block.timestamp */\n      timestamp\n        /* \"contracts/staking.sol\":2040:2084  block.timestamp - funds[msg.sender][i].since */\n      tag_157\n      swap2\n      swap1\n      tag_99\n      jump\t// in\n    tag_157:\n        /* \"contracts/staking.sol\":2039:2090  (block.timestamp - funds[msg.sender][i].since) / 10 */\n      tag_158\n      swap2\n      swap1\n      tag_131\n      jump\t// in\n    tag_158:\n        /* \"contracts/staking.sol\":2038:2109  ((block.timestamp - funds[msg.sender][i].since) / 10) * currentUserFund */\n      tag_159\n      swap2\n      swap1\n      tag_129\n      jump\t// in\n    tag_159:\n        /* \"contracts/staking.sol\":2038:2113  ((block.timestamp - funds[msg.sender][i].since) / 10) * currentUserFund/100 */\n      tag_160\n      swap2\n      swap1\n      tag_131\n      jump\t// in\n    tag_160:\n        /* \"contracts/staking.sol\":2027:2033  reward */\n      0x07\n      0x00\n        /* \"contracts/staking.sol\":2027:2114  reward += (((block.timestamp - funds[msg.sender][i].since) / 10) * currentUserFund/100) */\n      dup3\n      dup3\n      sload\n      tag_161\n      swap2\n      swap1\n      tag_105\n      jump\t// in\n    tag_161:\n      swap3\n      pop\n      pop\n      dup2\n      swap1\n      sstore\n      pop\n        /* \"contracts/staking.sol\":2181:2187  reward */\n      sload(0x07)\n        /* \"contracts/staking.sol\":2151:2156  funds */\n      0x04\n        /* \"contracts/staking.sol\":2151:2168  funds[msg.sender] */\n      0x00\n        /* \"contracts/staking.sol\":2157:2167  msg.sender */\n      caller\n        /* \"contracts/staking.sol\":2151:2168  funds[msg.sender] */\n      0xffffffffffffffffffffffffffffffffffffffff\n      and\n      0xffffffffffffffffffffffffffffffffffffffff\n      and\n      dup2\n      mstore\n      0x20\n      add\n      swap1\n      dup2\n      mstore\n      0x20\n      add\n      0x00\n      keccak256\n        /* \"contracts/staking.sol\":2169:2170  i */\n      dup4\n        /* \"contracts/staking.sol\":2151:2171  funds[msg.sender][i] */\n      dup2\n      sload\n      dup2\n      lt\n      tag_162\n      jumpi\n      tag_163\n      tag_96\n      jump\t// in\n    tag_163:\n    tag_162:\n      swap1\n      0x00\n      mstore\n      keccak256(0x00, 0x20)\n      swap1\n      0x02\n      mul\n      add\n        /* \"contracts/staking.sol\":2151:2178  funds[msg.sender][i].amount */\n      0x00\n      add\n      sload\n        /* \"contracts/staking.sol\":2151:2187  funds[msg.sender][i].amount + reward */\n      tag_165\n      swap2\n      swap1\n      tag_105\n      jump\t// in\n    tag_165:\n        /* \"contracts/staking.sol\":2137:2148  totalAmount */\n      0x08\n        /* \"contracts/staking.sol\":2137:2187  totalAmount = funds[msg.sender][i].amount + reward */\n      dup2\n      swap1\n      sstore\n      pop\n        /* \"contracts/staking.sol\":1950:2203  if(block.timestamp - funds[msg.sender][i].since < 8640000){\r... */\n    tag_153:\n        /* \"contracts/staking.sol\":1870:2228  {\r... */\n      pop\n        /* \"contracts/staking.sol\":1866:1869  i++ */\n      dup1\n      dup1\n      tag_166\n      swap1\n      tag_107\n      jump\t// in\n    tag_166:\n      swap2\n      pop\n      pop\n        /* \"contracts/staking.sol\":1819:2228  for (uint i = 0; i < funds[msg.sender].length; i++){\r... */\n      jump(tag_143)\n    tag_144:\n      pop\n        /* \"contracts/staking.sol\":2256:2266  msg.sender */\n      caller\n        /* \"contracts/staking.sol\":2248:2276  payable(msg.sender).transfer */\n      0xffffffffffffffffffffffffffffffffffffffff\n      and\n        /* \"contracts/staking.sol\":2248:2284  payable(msg.sender).transfer(reward) */\n      0x08fc\n        /* \"contracts/staking.sol\":2277:2283  reward */\n      sload(0x07)\n        /* \"contracts/staking.sol\":2248:2284  payable(msg.sender).transfer(reward) */\n      swap1\n      dup2\n      iszero\n      mul\n      swap1\n      mload(0x40)\n      0x00\n      mload(0x40)\n      dup1\n      dup4\n      sub\n      dup2\n      dup6\n      dup9\n      dup9\n      call\n      swap4\n      pop\n      pop\n      pop\n      pop\n      iszero\n      dup1\n      iszero\n      tag_168\n      jumpi\n      returndatasize\n      0x00\n      dup1\n      returndatacopy\n      revert(0x00, returndatasize)\n    tag_168:\n      pop\n        /* \"contracts/staking.sol\":1692:2304  function issueRewards() payable public{\r... */\n      jump\t// out\n        /* \"contracts/staking.sol\":349:390  mapping(address => bool) public hasStaked */\n    tag_81:\n      mstore(0x20, 0x05)\n      dup1\n      0x00\n      mstore\n      keccak256(0x00, 0x40)\n      0x00\n      swap2\n      pop\n      sload\n      swap1\n      0x0100\n      exp\n      swap1\n      div\n      0xff\n      and\n      dup2\n      jump\t// out\n        /* \"#utility.yul\":7:146   */\n    tag_170:\n        /* \"#utility.yul\":53:58   */\n      0x00\n        /* \"#utility.yul\":91:97   */\n      dup2\n        /* \"#utility.yul\":78:98   */\n      calldataload\n        /* \"#utility.yul\":69:98   */\n      swap1\n      pop\n        /* \"#utility.yul\":107:140   */\n      tag_172\n        /* \"#utility.yul\":134:139   */\n      dup2\n        /* \"#utility.yul\":107:140   */\n      tag_173\n      jump\t// in\n    tag_172:\n        /* \"#utility.yul\":7:146   */\n      swap3\n      swap2\n      pop\n      pop\n      jump\t// out\n        /* \"#utility.yul\":152:285   */\n    tag_174:\n        /* \"#utility.yul\":195:200   */\n      0x00\n        /* \"#utility.yul\":233:239   */\n      dup2\n        /* \"#utility.yul\":220:240   */\n      calldataload\n        /* \"#utility.yul\":211:240   */\n      swap1\n      pop\n        /* \"#utility.yul\":249:279   */\n      tag_176\n        /* \"#utility.yul\":273:278   */\n      dup2\n        /* \"#utility.yul\":249:279   */\n      tag_177\n      jump\t// in\n    tag_176:\n        /* \"#utility.yul\":152:285   */\n      swap3\n      swap2\n      pop\n      pop\n      jump\t// out\n        /* \"#utility.yul\":291:430   */\n    tag_178:\n        /* \"#utility.yul\":337:342   */\n      0x00\n        /* \"#utility.yul\":375:381   */\n      dup2\n        /* \"#utility.yul\":362:382   */\n      calldataload\n        /* \"#utility.yul\":353:382   */\n      swap1\n      pop\n        /* \"#utility.yul\":391:424   */\n      tag_180\n        /* \"#utility.yul\":418:423   */\n      dup2\n        /* \"#utility.yul\":391:424   */\n      tag_181\n      jump\t// in\n    tag_180:\n        /* \"#utility.yul\":291:430   */\n      swap3\n      swap2\n      pop\n      pop\n      jump\t// out\n        /* \"#utility.yul\":436:765   */\n    tag_57:\n        /* \"#utility.yul\":495:501   */\n      0x00\n        /* \"#utility.yul\":544:546   */\n      0x20\n        /* \"#utility.yul\":532:541   */\n      dup3\n        /* \"#utility.yul\":523:530   */\n      dup5\n        /* \"#utility.yul\":519:542   */\n      sub\n        /* \"#utility.yul\":515:547   */\n      slt\n        /* \"#utility.yul\":512:631   */\n      iszero\n      tag_183\n      jumpi\n        /* \"#utility.yul\":550:629   */\n      tag_184\n      tag_185\n      jump\t// in\n    tag_184:\n        /* \"#utility.yul\":512:631   */\n    tag_183:\n        /* \"#utility.yul\":670:671   */\n      0x00\n        /* \"#utility.yul\":695:748   */\n      tag_186\n        /* \"#utility.yul\":740:747   */\n      dup5\n        /* \"#utility.yul\":731:737   */\n      dup3\n        /* \"#utility.yul\":720:729   */\n      dup6\n        /* \"#utility.yul\":716:738   */\n      add\n        /* \"#utility.yul\":695:748   */\n      tag_170\n      jump\t// in\n    tag_186:\n        /* \"#utility.yul\":685:748   */\n      swap2\n      pop\n        /* \"#utility.yul\":641:758   */\n      pop\n        /* \"#utility.yul\":436:765   */\n      swap3\n      swap2\n      pop\n      pop\n      jump\t// out\n        /* \"#utility.yul\":771:1245   */\n    tag_67:\n        /* \"#utility.yul\":839:845   */\n      0x00\n        /* \"#utility.yul\":847:853   */\n      dup1\n        /* \"#utility.yul\":896:898   */\n      0x40\n        /* \"#utility.yul\":884:893   */\n      dup4\n        /* \"#utility.yul\":875:882   */\n      dup6\n        /* \"#utility.yul\":871:894   */\n      sub\n        /* \"#utility.yul\":867:899   */\n      slt\n        /* \"#utility.yul\":864:983   */\n      iszero\n      tag_188\n      jumpi\n        /* \"#utility.yul\":902:981   */\n      tag_189\n      tag_185\n      jump\t// in\n    tag_189:\n        /* \"#utility.yul\":864:983   */\n    tag_188:\n        /* \"#utility.yul\":1022:1023   */\n      0x00\n        /* \"#utility.yul\":1047:1100   */\n      tag_190\n        /* \"#utility.yul\":1092:1099   */\n      dup6\n        /* \"#utility.yul\":1083:1089   */\n      dup3\n        /* \"#utility.yul\":1072:1081   */\n      dup7\n        /* \"#utility.yul\":1068:1090   */\n      add\n        /* \"#utility.yul\":1047:1100   */\n      tag_170\n      jump\t// in\n    tag_190:\n        /* \"#utility.yul\":1037:1100   */\n      swap3\n      pop\n        /* \"#utility.yul\":993:1110   */\n      pop\n        /* \"#utility.yul\":1149:1151   */\n      0x20\n        /* \"#utility.yul\":1175:1228   */\n      tag_191\n        /* \"#utility.yul\":1220:1227   */\n      dup6\n        /* \"#utility.yul\":1211:1217   */\n      dup3\n        /* \"#utility.yul\":1200:1209   */\n      dup7\n        /* \"#utility.yul\":1196:1218   */\n      add\n        /* \"#utility.yul\":1175:1228   */\n      tag_178\n      jump\t// in\n    tag_191:\n        /* \"#utility.yul\":1165:1228   */\n      swap2\n      pop\n        /* \"#utility.yul\":1120:1238   */\n      pop\n        /* \"#utility.yul\":771:1245   */\n      swap3\n      pop\n      swap3\n      swap1\n      pop\n      jump\t// out\n        /* \"#utility.yul\":1251:1574   */\n    tag_28:\n        /* \"#utility.yul\":1307:1313   */\n      0x00\n        /* \"#utility.yul\":1356:1358   */\n      0x20\n        /* \"#utility.yul\":1344:1353   */\n      dup3\n        /* \"#utility.yul\":1335:1342   */\n      dup5\n        /* \"#utility.yul\":1331:1354   */\n      sub\n        /* \"#utility.yul\":1327:1359   */\n      slt\n        /* \"#utility.yul\":1324:1443   */\n      iszero\n      tag_193\n      jumpi\n        /* \"#utility.yul\":1362:1441   */\n      tag_194\n      tag_185\n      jump\t// in\n    tag_194:\n        /* \"#utility.yul\":1324:1443   */\n    tag_193:\n        /* \"#utility.yul\":1482:1483   */\n      0x00\n        /* \"#utility.yul\":1507:1557   */\n      tag_195\n        /* \"#utility.yul\":1549:1556   */\n      dup5\n        /* \"#utility.yul\":1540:1546   */\n      dup3\n        /* \"#utility.yul\":1529:1538   */\n      dup6\n        /* \"#utility.yul\":1525:1547   */\n      add\n        /* \"#utility.yul\":1507:1557   */\n      tag_174\n      jump\t// in\n    tag_195:\n        /* \"#utility.yul\":1497:1557   */\n      swap2\n      pop\n        /* \"#utility.yul\":1453:1567   */\n      pop\n        /* \"#utility.yul\":1251:1574   */\n      swap3\n      swap2\n      pop\n      pop\n      jump\t// out\n        /* \"#utility.yul\":1580:1698   */\n    tag_196:\n        /* \"#utility.yul\":1667:1691   */\n      tag_198\n        /* \"#utility.yul\":1685:1690   */\n      dup2\n        /* \"#utility.yul\":1667:1691   */\n      tag_199\n      jump\t// in\n    tag_198:\n        /* \"#utility.yul\":1662:1665   */\n      dup3\n        /* \"#utility.yul\":1655:1692   */\n      mstore\n        /* \"#utility.yul\":1580:1698   */\n      pop\n      pop\n      jump\t// out\n        /* \"#utility.yul\":1704:1813   */\n    tag_200:\n        /* \"#utility.yul\":1785:1806   */\n      tag_202\n        /* \"#utility.yul\":1800:1805   */\n      dup2\n        /* \"#utility.yul\":1785:1806   */\n      tag_203\n      jump\t// in\n    tag_202:\n        /* \"#utility.yul\":1780:1783   */\n      dup3\n        /* \"#utility.yul\":1773:1807   */\n      mstore\n        /* \"#utility.yul\":1704:1813   */\n      pop\n      pop\n      jump\t// out\n        /* \"#utility.yul\":1819:2185   */\n    tag_204:\n        /* \"#utility.yul\":1961:1964   */\n      0x00\n        /* \"#utility.yul\":1982:2049   */\n      tag_206\n        /* \"#utility.yul\":2046:2048   */\n      0x18\n        /* \"#utility.yul\":2041:2044   */\n      dup4\n        /* \"#utility.yul\":1982:2049   */\n      tag_207\n      jump\t// in\n    tag_206:\n        /* \"#utility.yul\":1975:2049   */\n      swap2\n      pop\n        /* \"#utility.yul\":2058:2151   */\n      tag_208\n        /* \"#utility.yul\":2147:2150   */\n      dup3\n        /* \"#utility.yul\":2058:2151   */\n      tag_209\n      jump\t// in\n    tag_208:\n        /* \"#utility.yul\":2176:2178   */\n      0x20\n        /* \"#utility.yul\":2171:2174   */\n      dup3\n        /* \"#utility.yul\":2167:2179   */\n      add\n        /* \"#utility.yul\":2160:2179   */\n      swap1\n      pop\n        /* \"#utility.yul\":1819:2185   */\n      swap2\n      swap1\n      pop\n      jump\t// out\n        /* \"#utility.yul\":2191:2557   */\n    tag_210:\n        /* \"#utility.yul\":2333:2336   */\n      0x00\n        /* \"#utility.yul\":2354:2421   */\n      tag_212\n        /* \"#utility.yul\":2418:2420   */\n      0x15\n        /* \"#utility.yul\":2413:2416   */\n      dup4\n        /* \"#utility.yul\":2354:2421   */\n      tag_207\n      jump\t// in\n    tag_212:\n        /* \"#utility.yul\":2347:2421   */\n      swap2\n      pop\n        /* \"#utility.yul\":2430:2523   */\n      tag_213\n        /* \"#utility.yul\":2519:2522   */\n      dup3\n        /* \"#utility.yul\":2430:2523   */\n      tag_214\n      jump\t// in\n    tag_213:\n        /* \"#utility.yul\":2548:2550   */\n      0x20\n        /* \"#utility.yul\":2543:2546   */\n      dup3\n        /* \"#utility.yul\":2539:2551   */\n      add\n        /* \"#utility.yul\":2532:2551   */\n      swap1\n      pop\n        /* \"#utility.yul\":2191:2557   */\n      swap2\n      swap1\n      pop\n      jump\t// out\n        /* \"#utility.yul\":2563:2929   */\n    tag_215:\n        /* \"#utility.yul\":2705:2708   */\n      0x00\n        /* \"#utility.yul\":2726:2793   */\n      tag_217\n        /* \"#utility.yul\":2790:2792   */\n      0x21\n        /* \"#utility.yul\":2785:2788   */\n      dup4\n        /* \"#utility.yul\":2726:2793   */\n      tag_207\n      jump\t// in\n    tag_217:\n        /* \"#utility.yul\":2719:2793   */\n      swap2\n      pop\n        /* \"#utility.yul\":2802:2895   */\n      tag_218\n        /* \"#utility.yul\":2891:2894   */\n      dup3\n        /* \"#utility.yul\":2802:2895   */\n      tag_219\n      jump\t// in\n    tag_218:\n        /* \"#utility.yul\":2920:2922   */\n      0x40\n        /* \"#utility.yul\":2915:2918   */\n      dup3\n        /* \"#utility.yul\":2911:2923   */\n      add\n        /* \"#utility.yul\":2904:2923   */\n      swap1\n      pop\n        /* \"#utility.yul\":2563:2929   */\n      swap2\n      swap1\n      pop\n      jump\t// out\n        /* \"#utility.yul\":2935:3301   */\n    tag_220:\n        /* \"#utility.yul\":3077:3080   */\n      0x00\n        /* \"#utility.yul\":3098:3165   */\n      tag_222\n        /* \"#utility.yul\":3162:3164   */\n      0x1b\n        /* \"#utility.yul\":3157:3160   */\n      dup4\n        /* \"#utility.yul\":3098:3165   */\n      tag_207\n      jump\t// in\n    tag_222:\n        /* \"#utility.yul\":3091:3165   */\n      swap2\n      pop\n        /* \"#utility.yul\":3174:3267   */\n      tag_223\n        /* \"#utility.yul\":3263:3266   */\n      dup3\n        /* \"#utility.yul\":3174:3267   */\n      tag_224\n      jump\t// in\n    tag_223:\n        /* \"#utility.yul\":3292:3294   */\n      0x20\n        /* \"#utility.yul\":3287:3290   */\n      dup3\n        /* \"#utility.yul\":3283:3295   */\n      add\n        /* \"#utility.yul\":3276:3295   */\n      swap1\n      pop\n        /* \"#utility.yul\":2935:3301   */\n      swap2\n      swap1\n      pop\n      jump\t// out\n        /* \"#utility.yul\":3307:3673   */\n    tag_225:\n        /* \"#utility.yul\":3449:3452   */\n      0x00\n        /* \"#utility.yul\":3470:3537   */\n      tag_227\n        /* \"#utility.yul\":3534:3536   */\n      0x12\n        /* \"#utility.yul\":3529:3532   */\n      dup4\n        /* \"#utility.yul\":3470:3537   */\n      tag_207\n      jump\t// in\n    tag_227:\n        /* \"#utility.yul\":3463:3537   */\n      swap2\n      pop\n        /* \"#utility.yul\":3546:3639   */\n      tag_228\n        /* \"#utility.yul\":3635:3638   */\n      dup3\n        /* \"#utility.yul\":3546:3639   */\n      tag_229\n      jump\t// in\n    tag_228:\n        /* \"#utility.yul\":3664:3666   */\n      0x20\n        /* \"#utility.yul\":3659:3662   */\n      dup3\n        /* \"#utility.yul\":3655:3667   */\n      add\n        /* \"#utility.yul\":3648:3667   */\n      swap1\n      pop\n        /* \"#utility.yul\":3307:3673   */\n      swap2\n      swap1\n      pop\n      jump\t// out\n        /* \"#utility.yul\":3679:4045   */\n    tag_230:\n        /* \"#utility.yul\":3821:3824   */\n      0x00\n        /* \"#utility.yul\":3842:3909   */\n      tag_232\n        /* \"#utility.yul\":3906:3908   */\n      0x0d\n        /* \"#utility.yul\":3901:3904   */\n      dup4\n        /* \"#utility.yul\":3842:3909   */\n      tag_207\n      jump\t// in\n    tag_232:\n        /* \"#utility.yul\":3835:3909   */\n      swap2\n      pop\n        /* \"#utility.yul\":3918:4011   */\n      tag_233\n        /* \"#utility.yul\":4007:4010   */\n      dup3\n        /* \"#utility.yul\":3918:4011   */\n      tag_234\n      jump\t// in\n    tag_233:\n        /* \"#utility.yul\":4036:4038   */\n      0x20\n        /* \"#utility.yul\":4031:4034   */\n      dup3\n        /* \"#utility.yul\":4027:4039   */\n      add\n        /* \"#utility.yul\":4020:4039   */\n      swap1\n      pop\n        /* \"#utility.yul\":3679:4045   */\n      swap2\n      swap1\n      pop\n      jump\t// out\n        /* \"#utility.yul\":4051:4417   */\n    tag_235:\n        /* \"#utility.yul\":4193:4196   */\n      0x00\n        /* \"#utility.yul\":4214:4281   */\n      tag_237\n        /* \"#utility.yul\":4278:4280   */\n      0x1d\n        /* \"#utility.yul\":4273:4276   */\n      dup4\n        /* \"#utility.yul\":4214:4281   */\n      tag_207\n      jump\t// in\n    tag_237:\n        /* \"#utility.yul\":4207:4281   */\n      swap2\n      pop\n        /* \"#utility.yul\":4290:4383   */\n      tag_238\n        /* \"#utility.yul\":4379:4382   */\n      dup3\n        /* \"#utility.yul\":4290:4383   */\n      tag_239\n      jump\t// in\n    tag_238:\n        /* \"#utility.yul\":4408:4410   */\n      0x20\n        /* \"#utility.yul\":4403:4406   */\n      dup3\n        /* \"#utility.yul\":4399:4411   */\n      add\n        /* \"#utility.yul\":4392:4411   */\n      swap1\n      pop\n        /* \"#utility.yul\":4051:4417   */\n      swap2\n      swap1\n      pop\n      jump\t// out\n        /* \"#utility.yul\":4423:4789   */\n    tag_240:\n        /* \"#utility.yul\":4565:4568   */\n      0x00\n        /* \"#utility.yul\":4586:4653   */\n      tag_242\n        /* \"#utility.yul\":4650:4652   */\n      0x0f\n        /* \"#utility.yul\":4645:4648   */\n      dup4\n        /* \"#utility.yul\":4586:4653   */\n      tag_207\n      jump\t// in\n    tag_242:\n        /* \"#utility.yul\":4579:4653   */\n      swap2\n      pop\n        /* \"#utility.yul\":4662:4755   */\n      tag_243\n        /* \"#utility.yul\":4751:4754   */\n      dup3\n        /* \"#utility.yul\":4662:4755   */\n      tag_244\n      jump\t// in\n    tag_243:\n        /* \"#utility.yul\":4780:4782   */\n      0x20\n        /* \"#utility.yul\":4775:4778   */\n      dup3\n        /* \"#utility.yul\":4771:4783   */\n      add\n        /* \"#utility.yul\":4764:4783   */\n      swap1\n      pop\n        /* \"#utility.yul\":4423:4789   */\n      swap2\n      swap1\n      pop\n      jump\t// out\n        /* \"#utility.yul\":4795:4913   */\n    tag_245:\n        /* \"#utility.yul\":4882:4906   */\n      tag_247\n        /* \"#utility.yul\":4900:4905   */\n      dup2\n        /* \"#utility.yul\":4882:4906   */\n      tag_248\n      jump\t// in\n    tag_247:\n        /* \"#utility.yul\":4877:4880   */\n      dup3\n        /* \"#utility.yul\":4870:4907   */\n      mstore\n        /* \"#utility.yul\":4795:4913   */\n      pop\n      pop\n      jump\t// out\n        /* \"#utility.yul\":4919:5141   */\n    tag_75:\n        /* \"#utility.yul\":5012:5016   */\n      0x00\n        /* \"#utility.yul\":5050:5052   */\n      0x20\n        /* \"#utility.yul\":5039:5048   */\n      dup3\n        /* \"#utility.yul\":5035:5053   */\n      add\n        /* \"#utility.yul\":5027:5053   */\n      swap1\n      pop\n        /* \"#utility.yul\":5063:5134   */\n      tag_250\n        /* \"#utility.yul\":5131:5132   */\n      0x00\n        /* \"#utility.yul\":5120:5129   */\n      dup4\n        /* \"#utility.yul\":5116:5133   */\n      add\n        /* \"#utility.yul\":5107:5113   */\n      dup5\n        /* \"#utility.yul\":5063:5134   */\n      tag_196\n      jump\t// in\n    tag_250:\n        /* \"#utility.yul\":4919:5141   */\n      swap3\n      swap2\n      pop\n      pop\n      jump\t// out\n        /* \"#utility.yul\":5147:5357   */\n    tag_24:\n        /* \"#utility.yul\":5234:5238   */\n      0x00\n        /* \"#utility.yul\":5272:5274   */\n      0x20\n        /* \"#utility.yul\":5261:5270   */\n      dup3\n        /* \"#utility.yul\":5257:5275   */\n      add\n        /* \"#utility.yul\":5249:5275   */\n      swap1\n      pop\n        /* \"#utility.yul\":5285:5350   */\n      tag_252\n        /* \"#utility.yul\":5347:5348   */\n      0x00\n        /* \"#utility.yul\":5336:5345   */\n      dup4\n        /* \"#utility.yul\":5332:5349   */\n      add\n        /* \"#utility.yul\":5323:5329   */\n      dup5\n        /* \"#utility.yul\":5285:5350   */\n      tag_200\n      jump\t// in\n    tag_252:\n        /* \"#utility.yul\":5147:5357   */\n      swap3\n      swap2\n      pop\n      pop\n      jump\t// out\n        /* \"#utility.yul\":5363:5782   */\n    tag_142:\n        /* \"#utility.yul\":5529:5533   */\n      0x00\n        /* \"#utility.yul\":5567:5569   */\n      0x20\n        /* \"#utility.yul\":5556:5565   */\n      dup3\n        /* \"#utility.yul\":5552:5570   */\n      add\n        /* \"#utility.yul\":5544:5570   */\n      swap1\n      pop\n        /* \"#utility.yul\":5616:5625   */\n      dup2\n        /* \"#utility.yul\":5610:5614   */\n      dup2\n        /* \"#utility.yul\":5606:5626   */\n      sub\n        /* \"#utility.yul\":5602:5603   */\n      0x00\n        /* \"#utility.yul\":5591:5600   */\n      dup4\n        /* \"#utility.yul\":5587:5604   */\n      add\n        /* \"#utility.yul\":5580:5627   */\n      mstore\n        /* \"#utility.yul\":5644:5775   */\n      tag_254\n        /* \"#utility.yul\":5770:5774   */\n      dup2\n        /* \"#utility.yul\":5644:5775   */\n      tag_204\n      jump\t// in\n    tag_254:\n        /* \"#utility.yul\":5636:5775   */\n      swap1\n      pop\n        /* \"#utility.yul\":5363:5782   */\n      swap2\n      swap1\n      pop\n      jump\t// out\n        /* \"#utility.yul\":5788:6207   */\n    tag_86:\n        /* \"#utility.yul\":5954:5958   */\n      0x00\n        /* \"#utility.yul\":5992:5994   */\n      0x20\n        /* \"#utility.yul\":5981:5990   */\n      dup3\n        /* \"#utility.yul\":5977:5995   */\n      add\n        /* \"#utility.yul\":5969:5995   */\n      swap1\n      pop\n        /* \"#utility.yul\":6041:6050   */\n      dup2\n        /* \"#utility.yul\":6035:6039   */\n      dup2\n        /* \"#utility.yul\":6031:6051   */\n      sub\n        /* \"#utility.yul\":6027:6028   */\n      0x00\n        /* \"#utility.yul\":6016:6025   */\n      dup4\n        /* \"#utility.yul\":6012:6029   */\n      add\n        /* \"#utility.yul\":6005:6052   */\n      mstore\n        /* \"#utility.yul\":6069:6200   */\n      tag_256\n        /* \"#utility.yul\":6195:6199   */\n      dup2\n        /* \"#utility.yul\":6069:6200   */\n      tag_210\n      jump\t// in\n    tag_256:\n        /* \"#utility.yul\":6061:6200   */\n      swap1\n      pop\n        /* \"#utility.yul\":5788:6207   */\n      swap2\n      swap1\n      pop\n      jump\t// out\n        /* \"#utility.yul\":6213:6632   */\n    tag_116:\n        /* \"#utility.yul\":6379:6383   */\n      0x00\n        /* \"#utility.yul\":6417:6419   */\n      0x20\n        /* \"#utility.yul\":6406:6415   */\n      dup3\n        /* \"#utility.yul\":6402:6420   */\n      add\n        /* \"#utility.yul\":6394:6420   */\n      swap1\n      pop\n        /* \"#utility.yul\":6466:6475   */\n      dup2\n        /* \"#utility.yul\":6460:6464   */\n      dup2\n        /* \"#utility.yul\":6456:6476   */\n      sub\n        /* \"#utility.yul\":6452:6453   */\n      0x00\n        /* \"#utility.yul\":6441:6450   */\n      dup4\n        /* \"#utility.yul\":6437:6454   */\n      add\n        /* \"#utility.yul\":6430:6477   */\n      mstore\n        /* \"#utility.yul\":6494:6625   */\n      tag_258\n        /* \"#utility.yul\":6620:6624   */\n      dup2\n        /* \"#utility.yul\":6494:6625   */\n      tag_215\n      jump\t// in\n    tag_258:\n        /* \"#utility.yul\":6486:6625   */\n      swap1\n      pop\n        /* \"#utility.yul\":6213:6632   */\n      swap2\n      swap1\n      pop\n      jump\t// out\n        /* \"#utility.yul\":6638:7057   */\n    tag_90:\n        /* \"#utility.yul\":6804:6808   */\n      0x00\n        /* \"#utility.yul\":6842:6844   */\n      0x20\n        /* \"#utility.yul\":6831:6840   */\n      dup3\n        /* \"#utility.yul\":6827:6845   */\n      add\n        /* \"#utility.yul\":6819:6845   */\n      swap1\n      pop\n        /* \"#utility.yul\":6891:6900   */\n      dup2\n        /* \"#utility.yul\":6885:6889   */\n      dup2\n        /* \"#utility.yul\":6881:6901   */\n      sub\n        /* \"#utility.yul\":6877:6878   */\n      0x00\n        /* \"#utility.yul\":6866:6875   */\n      dup4\n        /* \"#utility.yul\":6862:6879   */\n      add\n        /* \"#utility.yul\":6855:6902   */\n      mstore\n        /* \"#utility.yul\":6919:7050   */\n      tag_260\n        /* \"#utility.yul\":7045:7049   */\n      dup2\n        /* \"#utility.yul\":6919:7050   */\n      tag_220\n      jump\t// in\n    tag_260:\n        /* \"#utility.yul\":6911:7050   */\n      swap1\n      pop\n        /* \"#utility.yul\":6638:7057   */\n      swap2\n      swap1\n      pop\n      jump\t// out\n        /* \"#utility.yul\":7063:7482   */\n    tag_123:\n        /* \"#utility.yul\":7229:7233   */\n      0x00\n        /* \"#utility.yul\":7267:7269   */\n      0x20\n        /* \"#utility.yul\":7256:7265   */\n      dup3\n        /* \"#utility.yul\":7252:7270   */\n      add\n        /* \"#utility.yul\":7244:7270   */\n      swap1\n      pop\n        /* \"#utility.yul\":7316:7325   */\n      dup2\n        /* \"#utility.yul\":7310:7314   */\n      dup2\n        /* \"#utility.yul\":7306:7326   */\n      sub\n        /* \"#utility.yul\":7302:7303   */\n      0x00\n        /* \"#utility.yul\":7291:7300   */\n      dup4\n        /* \"#utility.yul\":7287:7304   */\n      add\n        /* \"#utility.yul\":7280:7327   */\n      mstore\n        /* \"#utility.yul\":7344:7475   */\n      tag_262\n        /* \"#utility.yul\":7470:7474   */\n      dup2\n        /* \"#utility.yul\":7344:7475   */\n      tag_225\n      jump\t// in\n    tag_262:\n        /* \"#utility.yul\":7336:7475   */\n      swap1\n      pop\n        /* \"#utility.yul\":7063:7482   */\n      swap2\n      swap1\n      pop\n      jump\t// out\n        /* \"#utility.yul\":7488:7907   */\n    tag_126:\n        /* \"#utility.yul\":7654:7658   */\n      0x00\n        /* \"#utility.yul\":7692:7694   */\n      0x20\n        /* \"#utility.yul\":7681:7690   */\n      dup3\n        /* \"#utility.yul\":7677:7695   */\n      add\n        /* \"#utility.yul\":7669:7695   */\n      swap1\n      pop\n        /* \"#utility.yul\":7741:7750   */\n      dup2\n        /* \"#utility.yul\":7735:7739   */\n      dup2\n        /* \"#utility.yul\":7731:7751   */\n      sub\n        /* \"#utility.yul\":7727:7728   */\n      0x00\n        /* \"#utility.yul\":7716:7725   */\n      dup4\n        /* \"#utility.yul\":7712:7729   */\n      add\n        /* \"#utility.yul\":7705:7752   */\n      mstore\n        /* \"#utility.yul\":7769:7900   */\n      tag_264\n        /* \"#utility.yul\":7895:7899   */\n      dup2\n        /* \"#utility.yul\":7769:7900   */\n      tag_230\n      jump\t// in\n    tag_264:\n        /* \"#utility.yul\":7761:7900   */\n      swap1\n      pop\n        /* \"#utility.yul\":7488:7907   */\n      swap2\n      swap1\n      pop\n      jump\t// out\n        /* \"#utility.yul\":7913:8332   */\n    tag_136:\n        /* \"#utility.yul\":8079:8083   */\n      0x00\n        /* \"#utility.yul\":8117:8119   */\n      0x20\n        /* \"#utility.yul\":8106:8115   */\n      dup3\n        /* \"#utility.yul\":8102:8120   */\n      add\n        /* \"#utility.yul\":8094:8120   */\n      swap1\n      pop\n        /* \"#utility.yul\":8166:8175   */\n      dup2\n        /* \"#utility.yul\":8160:8164   */\n      dup2\n        /* \"#utility.yul\":8156:8176   */\n      sub\n        /* \"#utility.yul\":8152:8153   */\n      0x00\n        /* \"#utility.yul\":8141:8150   */\n      dup4\n        /* \"#utility.yul\":8137:8154   */\n      add\n        /* \"#utility.yul\":8130:8177   */\n      mstore\n        /* \"#utility.yul\":8194:8325   */\n      tag_266\n        /* \"#utility.yul\":8320:8324   */\n      dup2\n        /* \"#utility.yul\":8194:8325   */\n      tag_235\n      jump\t// in\n    tag_266:\n        /* \"#utility.yul\":8186:8325   */\n      swap1\n      pop\n        /* \"#utility.yul\":7913:8332   */\n      swap2\n      swap1\n      pop\n      jump\t// out\n        /* \"#utility.yul\":8338:8757   */\n    tag_119:\n        /* \"#utility.yul\":8504:8508   */\n      0x00\n        /* \"#utility.yul\":8542:8544   */\n      0x20\n        /* \"#utility.yul\":8531:8540   */\n      dup3\n        /* \"#utility.yul\":8527:8545   */\n      add\n        /* \"#utility.yul\":8519:8545   */\n      swap1\n      pop\n        /* \"#utility.yul\":8591:8600   */\n      dup2\n        /* \"#utility.yul\":8585:8589   */\n      dup2\n        /* \"#utility.yul\":8581:8601   */\n      sub\n        /* \"#utility.yul\":8577:8578   */\n      0x00\n        /* \"#utility.yul\":8566:8575   */\n      dup4\n        /* \"#utility.yul\":8562:8579   */\n      add\n        /* \"#utility.yul\":8555:8602   */\n      mstore\n        /* \"#utility.yul\":8619:8750   */\n      tag_268\n        /* \"#utility.yul\":8745:8749   */\n      dup2\n        /* \"#utility.yul\":8619:8750   */\n      tag_240\n      jump\t// in\n    tag_268:\n        /* \"#utility.yul\":8611:8750   */\n      swap1\n      pop\n        /* \"#utility.yul\":8338:8757   */\n      swap2\n      swap1\n      pop\n      jump\t// out\n        /* \"#utility.yul\":8763:8985   */\n    tag_34:\n        /* \"#utility.yul\":8856:8860   */\n      0x00\n        /* \"#utility.yul\":8894:8896   */\n      0x20\n        /* \"#utility.yul\":8883:8892   */\n      dup3\n        /* \"#utility.yul\":8879:8897   */\n      add\n        /* \"#utility.yul\":8871:8897   */\n      swap1\n      pop\n        /* \"#utility.yul\":8907:8978   */\n      tag_270\n        /* \"#utility.yul\":8975:8976   */\n      0x00\n        /* \"#utility.yul\":8964:8973   */\n      dup4\n        /* \"#utility.yul\":8960:8977   */\n      add\n        /* \"#utility.yul\":8951:8957   */\n      dup5\n        /* \"#utility.yul\":8907:8978   */\n      tag_245\n      jump\t// in\n    tag_270:\n        /* \"#utility.yul\":8763:8985   */\n      swap3\n      swap2\n      pop\n      pop\n      jump\t// out\n        /* \"#utility.yul\":8991:9323   */\n    tag_70:\n        /* \"#utility.yul\":9112:9116   */\n      0x00\n        /* \"#utility.yul\":9150:9152   */\n      0x40\n        /* \"#utility.yul\":9139:9148   */\n      dup3\n        /* \"#utility.yul\":9135:9153   */\n      add\n        /* \"#utility.yul\":9127:9153   */\n      swap1\n      pop\n        /* \"#utility.yul\":9163:9234   */\n      tag_272\n        /* \"#utility.yul\":9231:9232   */\n      0x00\n        /* \"#utility.yul\":9220:9229   */\n      dup4\n        /* \"#utility.yul\":9216:9233   */\n      add\n        /* \"#utility.yul\":9207:9213   */\n      dup6\n        /* \"#utility.yul\":9163:9234   */\n      tag_245\n      jump\t// in\n    tag_272:\n        /* \"#utility.yul\":9244:9316   */\n      tag_273\n        /* \"#utility.yul\":9312:9314   */\n      0x20\n        /* \"#utility.yul\":9301:9310   */\n      dup4\n        /* \"#utility.yul\":9297:9315   */\n      add\n        /* \"#utility.yul\":9288:9294   */\n      dup5\n        /* \"#utility.yul\":9244:9316   */\n      tag_245\n      jump\t// in\n    tag_273:\n        /* \"#utility.yul\":8991:9323   */\n      swap4\n      swap3\n      pop\n      pop\n      pop\n      jump\t// out\n        /* \"#utility.yul\":9410:9579   */\n    tag_207:\n        /* \"#utility.yul\":9494:9505   */\n      0x00\n        /* \"#utility.yul\":9528:9534   */\n      dup3\n        /* \"#utility.yul\":9523:9526   */\n      dup3\n        /* \"#utility.yul\":9516:9535   */\n      mstore\n        /* \"#utility.yul\":9568:9572   */\n      0x20\n        /* \"#utility.yul\":9563:9566   */\n      dup3\n        /* \"#utility.yul\":9559:9573   */\n      add\n        /* \"#utility.yul\":9544:9573   */\n      swap1\n      pop\n        /* \"#utility.yul\":9410:9579   */\n      swap3\n      swap2\n      pop\n      pop\n      jump\t// out\n        /* \"#utility.yul\":9585:9890   */\n    tag_105:\n        /* \"#utility.yul\":9625:9628   */\n      0x00\n        /* \"#utility.yul\":9644:9664   */\n      tag_278\n        /* \"#utility.yul\":9662:9663   */\n      dup3\n        /* \"#utility.yul\":9644:9664   */\n      tag_248\n      jump\t// in\n    tag_278:\n        /* \"#utility.yul\":9639:9664   */\n      swap2\n      pop\n        /* \"#utility.yul\":9678:9698   */\n      tag_279\n        /* \"#utility.yul\":9696:9697   */\n      dup4\n        /* \"#utility.yul\":9678:9698   */\n      tag_248\n      jump\t// in\n    tag_279:\n        /* \"#utility.yul\":9673:9698   */\n      swap3\n      pop\n        /* \"#utility.yul\":9832:9833   */\n      dup3\n        /* \"#utility.yul\":9764:9830   */\n      0xffffffffffffffffffffffffffffffffffffffffffffffffffffffffffffffff\n        /* \"#utility.yul\":9760:9834   */\n      sub\n        /* \"#utility.yul\":9757:9758   */\n      dup3\n        /* \"#utility.yul\":9754:9835   */\n      gt\n        /* \"#utility.yul\":9751:9858   */\n      iszero\n      tag_280\n      jumpi\n        /* \"#utility.yul\":9838:9856   */\n      tag_281\n      tag_282\n      jump\t// in\n    tag_281:\n        /* \"#utility.yul\":9751:9858   */\n    tag_280:\n        /* \"#utility.yul\":9882:9883   */\n      dup3\n        /* \"#utility.yul\":9879:9880   */\n      dup3\n        /* \"#utility.yul\":9875:9884   */\n      add\n        /* \"#utility.yul\":9868:9884   */\n      swap1\n      pop\n        /* \"#utility.yul\":9585:9890   */\n      swap3\n      swap2\n      pop\n      pop\n      jump\t// out\n        /* \"#utility.yul\":9896:10081   */\n    tag_131:\n        /* \"#utility.yul\":9936:9937   */\n      0x00\n        /* \"#utility.yul\":9953:9973   */\n      tag_284\n        /* \"#utility.yul\":9971:9972   */\n      dup3\n        /* \"#utility.yul\":9953:9973   */\n      tag_248\n      jump\t// in\n    tag_284:\n        /* \"#utility.yul\":9948:9973   */\n      swap2\n      pop\n        /* \"#utility.yul\":9987:10007   */\n      tag_285\n        /* \"#utility.yul\":10005:10006   */\n      dup4\n        /* \"#utility.yul\":9987:10007   */\n      tag_248\n      jump\t// in\n    tag_285:\n        /* \"#utility.yul\":9982:10007   */\n      swap3\n      pop\n        /* \"#utility.yul\":10026:10027   */\n      dup3\n        /* \"#utility.yul\":10016:10051   */\n      tag_286\n      jumpi\n        /* \"#utility.yul\":10031:10049   */\n      tag_287\n      tag_288\n      jump\t// in\n    tag_287:\n        /* \"#utility.yul\":10016:10051   */\n    tag_286:\n        /* \"#utility.yul\":10073:10074   */\n      dup3\n        /* \"#utility.yul\":10070:10071   */\n      dup3\n        /* \"#utility.yul\":10066:10075   */\n      div\n        /* \"#utility.yul\":10061:10075   */\n      swap1\n      pop\n        /* \"#utility.yul\":9896:10081   */\n      swap3\n      swap2\n      pop\n      pop\n      jump\t// out\n        /* \"#utility.yul\":10087:10435   */\n    tag_129:\n        /* \"#utility.yul\":10127:10134   */\n      0x00\n        /* \"#utility.yul\":10150:10170   */\n      tag_290\n        /* \"#utility.yul\":10168:10169   */\n      dup3\n        /* \"#utility.yul\":10150:10170   */\n      tag_248\n      jump\t// in\n    tag_290:\n        /* \"#utility.yul\":10145:10170   */\n      swap2\n      pop\n        /* \"#utility.yul\":10184:10204   */\n      tag_291\n        /* \"#utility.yul\":10202:10203   */\n      dup4\n        /* \"#utility.yul\":10184:10204   */\n      tag_248\n      jump\t// in\n    tag_291:\n        /* \"#utility.yul\":10179:10204   */\n      swap3\n      pop\n        /* \"#utility.yul\":10372:10373   */\n      dup2\n        /* \"#utility.yul\":10304:10370   */\n      0xffffffffffffffffffffffffffffffffffffffffffffffffffffffffffffffff\n        /* \"#utility.yul\":10300:10374   */\n      div\n        /* \"#utility.yul\":10297:10298   */\n      dup4\n        /* \"#utility.yul\":10294:10375   */\n      gt\n        /* \"#utility.yul\":10289:10290   */\n      dup3\n        /* \"#utility.yul\":10282:10291   */\n      iszero\n        /* \"#utility.yul\":10275:10292   */\n      iszero\n        /* \"#utility.yul\":10271:10376   */\n      and\n        /* \"#utility.yul\":10268:10399   */\n      iszero\n      tag_292\n      jumpi\n        /* \"#utility.yul\":10379:10397   */\n      tag_293\n      tag_282\n      jump\t// in\n    tag_293:\n        /* \"#utility.yul\":10268:10399   */\n    tag_292:\n        /* \"#utility.yul\":10427:10428   */\n      dup3\n        /* \"#utility.yul\":10424:10425   */\n      dup3\n        /* \"#utility.yul\":10420:10429   */\n      mul\n        /* \"#utility.yul\":10409:10429   */\n      swap1\n      pop\n        /* \"#utility.yul\":10087:10435   */\n      swap3\n      swap2\n      pop\n      pop\n      jump\t// out\n        /* \"#utility.yul\":10441:10632   */\n    tag_99:\n        /* \"#utility.yul\":10481:10485   */\n      0x00\n        /* \"#utility.yul\":10501:10521   */\n      tag_295\n        /* \"#utility.yul\":10519:10520   */\n      dup3\n        /* \"#utility.yul\":10501:10521   */\n      tag_248\n      jump\t// in\n    tag_295:\n        /* \"#utility.yul\":10496:10521   */\n      swap2\n      pop\n        /* \"#utility.yul\":10535:10555   */\n      tag_296\n        /* \"#utility.yul\":10553:10554   */\n      dup4\n        /* \"#utility.yul\":10535:10555   */\n      tag_248\n      jump\t// in\n    tag_296:\n        /* \"#utility.yul\":10530:10555   */\n      swap3\n      pop\n        /* \"#utility.yul\":10574:10575   */\n      dup3\n        /* \"#utility.yul\":10571:10572   */\n      dup3\n        /* \"#utility.yul\":10568:10576   */\n      lt\n        /* \"#utility.yul\":10565:10599   */\n      iszero\n      tag_297\n      jumpi\n        /* \"#utility.yul\":10579:10597   */\n      tag_298\n      tag_282\n      jump\t// in\n    tag_298:\n        /* \"#utility.yul\":10565:10599   */\n    tag_297:\n        /* \"#utility.yul\":10624:10625   */\n      dup3\n        /* \"#utility.yul\":10621:10622   */\n      dup3\n        /* \"#utility.yul\":10617:10626   */\n      sub\n        /* \"#utility.yul\":10609:10626   */\n      swap1\n      pop\n        /* \"#utility.yul\":10441:10632   */\n      swap3\n      swap2\n      pop\n      pop\n      jump\t// out\n        /* \"#utility.yul\":10638:10734   */\n    tag_199:\n        /* \"#utility.yul\":10675:10682   */\n      0x00\n        /* \"#utility.yul\":10704:10728   */\n      tag_300\n        /* \"#utility.yul\":10722:10727   */\n      dup3\n        /* \"#utility.yul\":10704:10728   */\n      tag_301\n      jump\t// in\n    tag_300:\n        /* \"#utility.yul\":10693:10728   */\n      swap1\n      pop\n        /* \"#utility.yul\":10638:10734   */\n      swap2\n      swap1\n      pop\n      jump\t// out\n        /* \"#utility.yul\":10740:10830   */\n    tag_203:\n        /* \"#utility.yul\":10774:10781   */\n      0x00\n        /* \"#utility.yul\":10817:10822   */\n      dup2\n        /* \"#utility.yul\":10810:10823   */\n      iszero\n        /* \"#utility.yul\":10803:10824   */\n      iszero\n        /* \"#utility.yul\":10792:10824   */\n      swap1\n      pop\n        /* \"#utility.yul\":10740:10830   */\n      swap2\n      swap1\n      pop\n      jump\t// out\n        /* \"#utility.yul\":10836:10962   */\n    tag_301:\n        /* \"#utility.yul\":10873:10880   */\n      0x00\n        /* \"#utility.yul\":10913:10955   */\n      0xffffffffffffffffffffffffffffffffffffffff\n        /* \"#utility.yul\":10906:10911   */\n      dup3\n        /* \"#utility.yul\":10902:10956   */\n      and\n        /* \"#utility.yul\":10891:10956   */\n      swap1\n      pop\n        /* \"#utility.yul\":10836:10962   */\n      swap2\n      swap1\n      pop\n      jump\t// out\n        /* \"#utility.yul\":10968:11045   */\n    tag_248:\n        /* \"#utility.yul\":11005:11012   */\n      0x00\n        /* \"#utility.yul\":11034:11039   */\n      dup2\n        /* \"#utility.yul\":11023:11039   */\n      swap1\n      pop\n        /* \"#utility.yul\":10968:11045   */\n      swap2\n      swap1\n      pop\n      jump\t// out\n        /* \"#utility.yul\":11051:11284   */\n    tag_107:\n        /* \"#utility.yul\":11090:11093   */\n      0x00\n        /* \"#utility.yul\":11113:11137   */\n      tag_306\n        /* \"#utility.yul\":11131:11136   */\n      dup3\n        /* \"#utility.yul\":11113:11137   */\n      tag_248\n      jump\t// in\n    tag_306:\n        /* \"#utility.yul\":11104:11137   */\n      swap2\n      pop\n        /* \"#utility.yul\":11159:11225   */\n      0xffffffffffffffffffffffffffffffffffffffffffffffffffffffffffffffff\n        /* \"#utility.yul\":11152:11157   */\n      dup3\n        /* \"#utility.yul\":11149:11226   */\n      eq\n        /* \"#utility.yul\":11146:11249   */\n      iszero\n      tag_307\n      jumpi\n        /* \"#utility.yul\":11229:11247   */\n      tag_308\n      tag_282\n      jump\t// in\n    tag_308:\n        /* \"#utility.yul\":11146:11249   */\n    tag_307:\n        /* \"#utility.yul\":11276:11277   */\n      0x01\n        /* \"#utility.yul\":11269:11274   */\n      dup3\n        /* \"#utility.yul\":11265:11278   */\n      add\n        /* \"#utility.yul\":11258:11278   */\n      swap1\n      pop\n        /* \"#utility.yul\":11051:11284   */\n      swap2\n      swap1\n      pop\n      jump\t// out\n        /* \"#utility.yul\":11290:11470   */\n    tag_282:\n        /* \"#utility.yul\":11338:11415   */\n      0x4e487b7100000000000000000000000000000000000000000000000000000000\n        /* \"#utility.yul\":11335:11336   */\n      0x00\n        /* \"#utility.yul\":11328:11416   */\n      mstore\n        /* \"#utility.yul\":11435:11439   */\n      0x11\n        /* \"#utility.yul\":11432:11433   */\n      0x04\n        /* \"#utility.yul\":11425:11440   */\n      mstore\n        /* \"#utility.yul\":11459:11463   */\n      0x24\n        /* \"#utility.yul\":11456:11457   */\n      0x00\n        /* \"#utility.yul\":11449:11464   */\n      revert\n        /* \"#utility.yul\":11476:11656   */\n    tag_288:\n        /* \"#utility.yul\":11524:11601   */\n      0x4e487b7100000000000000000000000000000000000000000000000000000000\n        /* \"#utility.yul\":11521:11522   */\n      0x00\n        /* \"#utility.yul\":11514:11602   */\n      mstore\n        /* \"#utility.yul\":11621:11625   */\n      0x12\n        /* \"#utility.yul\":11618:11619   */\n      0x04\n        /* \"#utility.yul\":11611:11626   */\n      mstore\n        /* \"#utility.yul\":11645:11649   */\n      0x24\n        /* \"#utility.yul\":11642:11643   */\n      0x00\n        /* \"#utility.yul\":11635:11650   */\n      revert\n        /* \"#utility.yul\":11662:11842   */\n    tag_96:\n        /* \"#utility.yul\":11710:11787   */\n      0x4e487b7100000000000000000000000000000000000000000000000000000000\n        /* \"#utility.yul\":11707:11708   */\n      0x00\n        /* \"#utility.yul\":11700:11788   */\n      mstore\n        /* \"#utility.yul\":11807:11811   */\n      0x32\n        /* \"#utility.yul\":11804:11805   */\n      0x04\n        /* \"#utility.yul\":11797:11812   */\n      mstore\n        /* \"#utility.yul\":11831:11835   */\n      0x24\n        /* \"#utility.yul\":11828:11829   */\n      0x00\n        /* \"#utility.yul\":11821:11836   */\n      revert\n        /* \"#utility.yul\":11971:12088   */\n    tag_185:\n        /* \"#utility.yul\":12080:12081   */\n      0x00\n        /* \"#utility.yul\":12077:12078   */\n      dup1\n        /* \"#utility.yul\":12070:12082   */\n      revert\n        /* \"#utility.yul\":12094:12268   */\n    tag_209:\n        /* \"#utility.yul\":12234:12260   */\n      0x63616c6c6572206d75737420626520746865206f776e65720000000000000000\n        /* \"#utility.yul\":12230:12231   */\n      0x00\n        /* \"#utility.yul\":12222:12228   */\n      dup3\n        /* \"#utility.yul\":12218:12232   */\n      add\n        /* \"#utility.yul\":12211:12261   */\n      mstore\n        /* \"#utility.yul\":12094:12268   */\n      pop\n      jump\t// out\n        /* \"#utility.yul\":12274:12445   */\n    tag_214:\n        /* \"#utility.yul\":12414:12437   */\n      0x596f7520617265206e6f7420746865206f776e65720000000000000000000000\n        /* \"#utility.yul\":12410:12411   */\n      0x00\n        /* \"#utility.yul\":12402:12408   */\n      dup3\n        /* \"#utility.yul\":12398:12412   */\n      add\n        /* \"#utility.yul\":12391:12438   */\n      mstore\n        /* \"#utility.yul\":12274:12445   */\n      pop\n      jump\t// out\n        /* \"#utility.yul\":12451:12671   */\n    tag_219:\n        /* \"#utility.yul\":12591:12625   */\n      0x4f6e6c79206f776e65722063616e2070617573652074686520636f6e74726163\n        /* \"#utility.yul\":12587:12588   */\n      0x00\n        /* \"#utility.yul\":12579:12585   */\n      dup3\n        /* \"#utility.yul\":12575:12589   */\n      add\n        /* \"#utility.yul\":12568:12626   */\n      mstore\n        /* \"#utility.yul\":12660:12663   */\n      0x7400000000000000000000000000000000000000000000000000000000000000\n        /* \"#utility.yul\":12655:12657   */\n      0x20\n        /* \"#utility.yul\":12647:12653   */\n      dup3\n        /* \"#utility.yul\":12643:12658   */\n      add\n        /* \"#utility.yul\":12636:12664   */\n      mstore\n        /* \"#utility.yul\":12451:12671   */\n      pop\n      jump\t// out\n        /* \"#utility.yul\":12677:12854   */\n    tag_224:\n        /* \"#utility.yul\":12817:12846   */\n      0x66756e64732063616e6e6f74206265206c657373207468616e20300000000000\n        /* \"#utility.yul\":12813:12814   */\n      0x00\n        /* \"#utility.yul\":12805:12811   */\n      dup3\n        /* \"#utility.yul\":12801:12815   */\n      add\n        /* \"#utility.yul\":12794:12847   */\n      mstore\n        /* \"#utility.yul\":12677:12854   */\n      pop\n      jump\t// out\n        /* \"#utility.yul\":12860:13028   */\n    tag_229:\n        /* \"#utility.yul\":13000:13020   */\n      0x616d6f756e742063616e6e6f7420626520300000000000000000000000000000\n        /* \"#utility.yul\":12996:12997   */\n      0x00\n        /* \"#utility.yul\":12988:12994   */\n      dup3\n        /* \"#utility.yul\":12984:12998   */\n      add\n        /* \"#utility.yul\":12977:13021   */\n      mstore\n        /* \"#utility.yul\":12860:13028   */\n      pop\n      jump\t// out\n        /* \"#utility.yul\":13034:13197   */\n    tag_234:\n        /* \"#utility.yul\":13174:13189   */\n      0x5573657220426c6f636b65642100000000000000000000000000000000000000\n        /* \"#utility.yul\":13170:13171   */\n      0x00\n        /* \"#utility.yul\":13162:13168   */\n      dup3\n        /* \"#utility.yul\":13158:13172   */\n      add\n        /* \"#utility.yul\":13151:13190   */\n      mstore\n        /* \"#utility.yul\":13034:13197   */\n      pop\n      jump\t// out\n        /* \"#utility.yul\":13203:13382   */\n    tag_239:\n        /* \"#utility.yul\":13343:13374   */\n      0x4f6e6c79206f776e65722063616e20626c6f636b207468652075736572000000\n        /* \"#utility.yul\":13339:13340   */\n      0x00\n        /* \"#utility.yul\":13331:13337   */\n      dup3\n        /* \"#utility.yul\":13327:13341   */\n      add\n        /* \"#utility.yul\":13320:13375   */\n      mstore\n        /* \"#utility.yul\":13203:13382   */\n      pop\n      jump\t// out\n        /* \"#utility.yul\":13388:13553   */\n    tag_244:\n        /* \"#utility.yul\":13528:13545   */\n      0x436f6e7472616374205061757365640000000000000000000000000000000000\n        /* \"#utility.yul\":13524:13525   */\n      0x00\n        /* \"#utility.yul\":13516:13522   */\n      dup3\n        /* \"#utility.yul\":13512:13526   */\n      add\n        /* \"#utility.yul\":13505:13546   */\n      mstore\n        /* \"#utility.yul\":13388:13553   */\n      pop\n      jump\t// out\n        /* \"#utility.yul\":13559:13681   */\n    tag_173:\n        /* \"#utility.yul\":13632:13656   */\n      tag_324\n        /* \"#utility.yul\":13650:13655   */\n      dup2\n        /* \"#utility.yul\":13632:13656   */\n      tag_199\n      jump\t// in\n    tag_324:\n        /* \"#utility.yul\":13625:13630   */\n      dup2\n        /* \"#utility.yul\":13622:13657   */\n      eq\n        /* \"#utility.yul\":13612:13675   */\n      tag_325\n      jumpi\n        /* \"#utility.yul\":13671:13672   */\n      0x00\n        /* \"#utility.yul\":13668:13669   */\n      dup1\n        /* \"#utility.yul\":13661:13673   */\n      revert\n        /* \"#utility.yul\":13612:13675   */\n    tag_325:\n        /* \"#utility.yul\":13559:13681   */\n      pop\n      jump\t// out\n        /* \"#utility.yul\":13687:13803   */\n    tag_177:\n        /* \"#utility.yul\":13757:13778   */\n      tag_327\n        /* \"#utility.yul\":13772:13777   */\n      dup2\n        /* \"#utility.yul\":13757:13778   */\n      tag_203\n      jump\t// in\n    tag_327:\n        /* \"#utility.yul\":13750:13755   */\n      dup2\n        /* \"#utility.yul\":13747:13779   */\n      eq\n        /* \"#utility.yul\":13737:13797   */\n      tag_328\n      jumpi\n        /* \"#utility.yul\":13793:13794   */\n      0x00\n        /* \"#utility.yul\":13790:13791   */\n      dup1\n        /* \"#utility.yul\":13783:13795   */\n      revert\n        /* \"#utility.yul\":13737:13797   */\n    tag_328:\n        /* \"#utility.yul\":13687:13803   */\n      pop\n      jump\t// out\n        /* \"#utility.yul\":13809:13931   */\n    tag_181:\n        /* \"#utility.yul\":13882:13906   */\n      tag_330\n        /* \"#utility.yul\":13900:13905   */\n      dup2\n        /* \"#utility.yul\":13882:13906   */\n      tag_248\n      jump\t// in\n    tag_330:\n        /* \"#utility.yul\":13875:13880   */\n      dup2\n        /* \"#utility.yul\":13872:13907   */\n      eq\n        /* \"#utility.yul\":13862:13925   */\n      tag_331\n      jumpi\n        /* \"#utility.yul\":13921:13922   */\n      0x00\n        /* \"#utility.yul\":13918:13919   */\n      dup1\n        /* \"#utility.yul\":13911:13923   */\n      revert\n        /* \"#utility.yul\":13862:13925   */\n    tag_331:\n        /* \"#utility.yul\":13809:13931   */\n      pop\n      jump\t// out\n\n    auxdata: 0xa264697066735822122042c3e920baf979acda46ae03db13593e1f4309e342a5f04d282dd2e2379d7aba64736f6c63430008070033\n}\n",
				"bytecode": {
					"linkReferences": {},
					"object": "608060405234801561001057600080fd5b50336000806101000a81548173ffffffffffffffffffffffffffffffffffffffff021916908373ffffffffffffffffffffffffffffffffffffffff160217905550611604806100606000396000f3fe6080604052600436106100e85760003560e01c806351ed6a301161008a57806388b22c241161005957806388b22c241461027e5780638da5cb5b146102bc578063b0370e0c146102e7578063c93c8f34146102f1576100e8565b806351ed6a30146101e35780635c975abb146101ed5780636f49712b1461021857806375c96c5d14610255576100e8565b806320eb640c116100c657806320eb640c1461016c578063228cb73314610176578063439766ce146101a15780634626402b146101b8576100e8565b8063021a89ad146100ed57806316c38b3c146101185780631a39d8ef14610141575b600080fd5b3480156100f957600080fd5b5061010261032e565b60405161010f9190611073565b60405180910390f35b34801561012457600080fd5b5061013f600480360381019061013a9190610ee6565b610341565b005b34801561014d57600080fd5b506101566103ec565b604051610163919061118e565b60405180910390f35b6101746103f2565b005b34801561018257600080fd5b5061018b610692565b604051610198919061118e565b60405180910390f35b3480156101ad57600080fd5b506101b6610698565b005b3480156101c457600080fd5b506101cd61077e565b6040516101da919061118e565b60405180910390f35b6101eb610784565b005b3480156101f957600080fd5b5061020261099d565b60405161020f9190611073565b60405180910390f35b34801561022457600080fd5b5061023f600480360381019061023a9190610e79565b6109b0565b60405161024c9190611073565b60405180910390f35b34801561026157600080fd5b5061027c60048036038101906102779190610ee6565b6109d0565b005b34801561028a57600080fd5b506102a560048036038101906102a09190610ea6565b610a7b565b6040516102b39291906111a9565b60405180910390f35b3480156102c857600080fd5b506102d1610abc565b6040516102de9190611058565b60405180910390f35b6102ef610ae0565b005b3480156102fd57600080fd5b5061031860048036038101906103139190610e79565b610e1a565b6040516103259190611073565b60405180910390f35b600060159054906101000a900460ff1681565b60008054906101000a900473ffffffffffffffffffffffffffffffffffffffff1673ffffffffffffffffffffffffffffffffffffffff163373ffffffffffffffffffffffffffffffffffffffff16146103cf576040517f08c379a00000000000000000000000000000000000000000000000000000000081526004016103c6906110ae565b60405180910390fd5b80600060146101000a81548160ff02191690831515021790555050565b60085481565b60006002600001541161043a576040517f08c379a0000000000000000000000000000000000000000000000000000000008152600401610431906110ee565b60405180910390fd5b6000805b600460003373ffffffffffffffffffffffffffffffffffffffff1673ffffffffffffffffffffffffffffffffffffffff16815260200190815260200160002080549050811015610584576283d600600460003373ffffffffffffffffffffffffffffffffffffffff1673ffffffffffffffffffffffffffffffffffffffff16815260200190815260200160002082815481106104dd576104dc6113e7565b5b906000526020600020906002020160010154426104fa91906112c4565b101561057157600460003373ffffffffffffffffffffffffffffffffffffffff1673ffffffffffffffffffffffffffffffffffffffff1681526020019081526020016000208181548110610551576105506113e7565b5b9060005260206000209060020201600001548261056e91906111e3565b91505b808061057c90611340565b91505061043e565b503373ffffffffffffffffffffffffffffffffffffffff166108fc6008549081150290604051600060405180830381858888f193505050501580156105cd573d6000803e3d6000fd5b506000600460003373ffffffffffffffffffffffffffffffffffffffff1673ffffffffffffffffffffffffffffffffffffffff168152602001908152602001600020600081548110610622576106216113e7565b5b9060005260206000209060020201600001819055506000600660003373ffffffffffffffffffffffffffffffffffffffff1673ffffffffffffffffffffffffffffffffffffffff16815260200190815260200160002060006101000a81548160ff02191690831515021790555050565b60075481565b60008054906101000a900473ffffffffffffffffffffffffffffffffffffffff1673ffffffffffffffffffffffffffffffffffffffff163373ffffffffffffffffffffffffffffffffffffffff1614610726576040517f08c379a000000000000000000000000000000000000000000000000000000000815260040161071d906110ce565b60405180910390fd5b60001515600060149054906101000a900460ff1615151461077c576040517f08c379a00000000000000000000000000000000000000000000000000000000081526004016107739061116e565b60405180910390fd5b565b60015481565b600034116107c7576040517f08c379a00000000000000000000000000000000000000000000000000000000081526004016107be9061110e565b60405180910390fd5b60001515600060159054906101000a900460ff1615151461081d576040517f08c379a00000000000000000000000000000000000000000000000000000000081526004016108149061112e565b60405180910390fd5b3460026000018190555042600260010181905550600460003373ffffffffffffffffffffffffffffffffffffffff1673ffffffffffffffffffffffffffffffffffffffff16815260200190815260200160002060029080600181540180825580915050600190039060005260206000209060020201600090919091909150600082015481600001556001820154816001015550506000606460056002600001546108c7919061126a565b6108d19190611239565b9050806002600001546108e491906111e3565b6001819055506001600660003373ffffffffffffffffffffffffffffffffffffffff1673ffffffffffffffffffffffffffffffffffffffff16815260200190815260200160002060006101000a81548160ff0219169083151502179055506001600560003373ffffffffffffffffffffffffffffffffffffffff1673ffffffffffffffffffffffffffffffffffffffff16815260200190815260200160002060006101000a81548160ff02191690831515021790555050565b600060149054906101000a900460ff1681565b60066020528060005260406000206000915054906101000a900460ff1681565b60008054906101000a900473ffffffffffffffffffffffffffffffffffffffff1673ffffffffffffffffffffffffffffffffffffffff163373ffffffffffffffffffffffffffffffffffffffff1614610a5e576040517f08c379a0000000000000000000000000000000000000000000000000000000008152600401610a559061114e565b60405180910390fd5b80600060156101000a81548160ff02191690831515021790555050565b60046020528160005260406000208181548110610a9757600080fd5b9060005260206000209060020201600091509150508060000154908060010154905082565b60008054906101000a900473ffffffffffffffffffffffffffffffffffffffff1681565b60008054906101000a900473ffffffffffffffffffffffffffffffffffffffff1673ffffffffffffffffffffffffffffffffffffffff163373ffffffffffffffffffffffffffffffffffffffff1614610b6e576040517f08c379a0000000000000000000000000000000000000000000000000000000008152600401610b659061108e565b60405180910390fd5b60005b600460003373ffffffffffffffffffffffffffffffffffffffff1673ffffffffffffffffffffffffffffffffffffffff16815260200190815260200160002080549050811015610dce576000600460003373ffffffffffffffffffffffffffffffffffffffff1673ffffffffffffffffffffffffffffffffffffffff1681526020019081526020016000208281548110610c0e57610c0d6113e7565b5b90600052602060002090600202016000015490506283d600600460003373ffffffffffffffffffffffffffffffffffffffff1673ffffffffffffffffffffffffffffffffffffffff1681526020019081526020016000208381548110610c7757610c766113e7565b5b90600052602060002090600202016001015442610c9491906112c4565b1015610dba57606481600a600460003373ffffffffffffffffffffffffffffffffffffffff1673ffffffffffffffffffffffffffffffffffffffff1681526020019081526020016000208581548110610cf057610cef6113e7565b5b90600052602060002090600202016001015442610d0d91906112c4565b610d179190611239565b610d21919061126a565b610d2b9190611239565b60076000828254610d3c91906111e3565b92505081905550600754600460003373ffffffffffffffffffffffffffffffffffffffff1673ffffffffffffffffffffffffffffffffffffffff1681526020019081526020016000208381548110610d9757610d966113e7565b5b906000526020600020906002020160000154610db391906111e3565b6008819055505b508080610dc690611340565b915050610b71565b503373ffffffffffffffffffffffffffffffffffffffff166108fc6007549081150290604051600060405180830381858888f19350505050158015610e17573d6000803e3d6000fd5b50565b60056020528060005260406000206000915054906101000a900460ff1681565b600081359050610e4981611589565b92915050565b600081359050610e5e816115a0565b92915050565b600081359050610e73816115b7565b92915050565b600060208284031215610e8f57610e8e611416565b5b6000610e9d84828501610e3a565b91505092915050565b60008060408385031215610ebd57610ebc611416565b5b6000610ecb85828601610e3a565b9250506020610edc85828601610e64565b9150509250929050565b600060208284031215610efc57610efb611416565b5b6000610f0a84828501610e4f565b91505092915050565b610f1c816112f8565b82525050565b610f2b8161130a565b82525050565b6000610f3e6018836111d2565b9150610f498261141b565b602082019050919050565b6000610f616015836111d2565b9150610f6c82611444565b602082019050919050565b6000610f846021836111d2565b9150610f8f8261146d565b604082019050919050565b6000610fa7601b836111d2565b9150610fb2826114bc565b602082019050919050565b6000610fca6012836111d2565b9150610fd5826114e5565b602082019050919050565b6000610fed600d836111d2565b9150610ff88261150e565b602082019050919050565b6000611010601d836111d2565b915061101b82611537565b602082019050919050565b6000611033600f836111d2565b915061103e82611560565b602082019050919050565b61105281611336565b82525050565b600060208201905061106d6000830184610f13565b92915050565b60006020820190506110886000830184610f22565b92915050565b600060208201905081810360008301526110a781610f31565b9050919050565b600060208201905081810360008301526110c781610f54565b9050919050565b600060208201905081810360008301526110e781610f77565b9050919050565b6000602082019050818103600083015261110781610f9a565b9050919050565b6000602082019050818103600083015261112781610fbd565b9050919050565b6000602082019050818103600083015261114781610fe0565b9050919050565b6000602082019050818103600083015261116781611003565b9050919050565b6000602082019050818103600083015261118781611026565b9050919050565b60006020820190506111a36000830184611049565b92915050565b60006040820190506111be6000830185611049565b6111cb6020830184611049565b9392505050565b600082825260208201905092915050565b60006111ee82611336565b91506111f983611336565b9250827fffffffffffffffffffffffffffffffffffffffffffffffffffffffffffffffff0382111561122e5761122d611389565b5b828201905092915050565b600061124482611336565b915061124f83611336565b92508261125f5761125e6113b8565b5b828204905092915050565b600061127582611336565b915061128083611336565b9250817fffffffffffffffffffffffffffffffffffffffffffffffffffffffffffffffff04831182151516156112b9576112b8611389565b5b828202905092915050565b60006112cf82611336565b91506112da83611336565b9250828210156112ed576112ec611389565b5b828203905092915050565b600061130382611316565b9050919050565b60008115159050919050565b600073ffffffffffffffffffffffffffffffffffffffff82169050919050565b6000819050919050565b600061134b82611336565b91507fffffffffffffffffffffffffffffffffffffffffffffffffffffffffffffffff82141561137e5761137d611389565b5b600182019050919050565b7f4e487b7100000000000000000000000000000000000000000000000000000000600052601160045260246000fd5b7f4e487b7100000000000000000000000000000000000000000000000000000000600052601260045260246000fd5b7f4e487b7100000000000000000000000000000000000000000000000000000000600052603260045260246000fd5b600080fd5b7f63616c6c6572206d75737420626520746865206f776e65720000000000000000600082015250565b7f596f7520617265206e6f7420746865206f776e65720000000000000000000000600082015250565b7f4f6e6c79206f776e65722063616e2070617573652074686520636f6e7472616360008201527f7400000000000000000000000000000000000000000000000000000000000000602082015250565b7f66756e64732063616e6e6f74206265206c657373207468616e20300000000000600082015250565b7f616d6f756e742063616e6e6f7420626520300000000000000000000000000000600082015250565b7f5573657220426c6f636b65642100000000000000000000000000000000000000600082015250565b7f4f6e6c79206f776e65722063616e20626c6f636b207468652075736572000000600082015250565b7f436f6e7472616374205061757365640000000000000000000000000000000000600082015250565b611592816112f8565b811461159d57600080fd5b50565b6115a98161130a565b81146115b457600080fd5b50565b6115c081611336565b81146115cb57600080fd5b5056fea264697066735822122042c3e920baf979acda46ae03db13593e1f4309e342a5f04d282dd2e2379d7aba64736f6c63430008070033",
					"opcodes": "PUSH1 0x80 PUSH1 0x40 MSTORE CALLVALUE DUP1 ISZERO PUSH2 0x10 JUMPI PUSH1 0x0 DUP1 REVERT JUMPDEST POP CALLER PUSH1 0x0 DUP1 PUSH2 0x100 EXP DUP2 SLOAD DUP2 PUSH20 0xFFFFFFFFFFFFFFFFFFFFFFFFFFFFFFFFFFFFFFFF MUL NOT AND SWAP1 DUP4 PUSH20 0xFFFFFFFFFFFFFFFFFFFFFFFFFFFFFFFFFFFFFFFF AND MUL OR SWAP1 SSTORE POP PUSH2 0x1604 DUP1 PUSH2 0x60 PUSH1 0x0 CODECOPY PUSH1 0x0 RETURN INVALID PUSH1 0x80 PUSH1 0x40 MSTORE PUSH1 0x4 CALLDATASIZE LT PUSH2 0xE8 JUMPI PUSH1 0x0 CALLDATALOAD PUSH1 0xE0 SHR DUP1 PUSH4 0x51ED6A30 GT PUSH2 0x8A JUMPI DUP1 PUSH4 0x88B22C24 GT PUSH2 0x59 JUMPI DUP1 PUSH4 0x88B22C24 EQ PUSH2 0x27E JUMPI DUP1 PUSH4 0x8DA5CB5B EQ PUSH2 0x2BC JUMPI DUP1 PUSH4 0xB0370E0C EQ PUSH2 0x2E7 JUMPI DUP1 PUSH4 0xC93C8F34 EQ PUSH2 0x2F1 JUMPI PUSH2 0xE8 JUMP JUMPDEST DUP1 PUSH4 0x51ED6A30 EQ PUSH2 0x1E3 JUMPI DUP1 PUSH4 0x5C975ABB EQ PUSH2 0x1ED JUMPI DUP1 PUSH4 0x6F49712B EQ PUSH2 0x218 JUMPI DUP1 PUSH4 0x75C96C5D EQ PUSH2 0x255 JUMPI PUSH2 0xE8 JUMP JUMPDEST DUP1 PUSH4 0x20EB640C GT PUSH2 0xC6 JUMPI DUP1 PUSH4 0x20EB640C EQ PUSH2 0x16C JUMPI DUP1 PUSH4 0x228CB733 EQ PUSH2 0x176 JUMPI DUP1 PUSH4 0x439766CE EQ PUSH2 0x1A1 JUMPI DUP1 PUSH4 0x4626402B EQ PUSH2 0x1B8 JUMPI PUSH2 0xE8 JUMP JUMPDEST DUP1 PUSH4 0x21A89AD EQ PUSH2 0xED JUMPI DUP1 PUSH4 0x16C38B3C EQ PUSH2 0x118 JUMPI DUP1 PUSH4 0x1A39D8EF EQ PUSH2 0x141 JUMPI JUMPDEST PUSH1 0x0 DUP1 REVERT JUMPDEST CALLVALUE DUP1 ISZERO PUSH2 0xF9 JUMPI PUSH1 0x0 DUP1 REVERT JUMPDEST POP PUSH2 0x102 PUSH2 0x32E JUMP JUMPDEST PUSH1 0x40 MLOAD PUSH2 0x10F SWAP2 SWAP1 PUSH2 0x1073 JUMP JUMPDEST PUSH1 0x40 MLOAD DUP1 SWAP2 SUB SWAP1 RETURN JUMPDEST CALLVALUE DUP1 ISZERO PUSH2 0x124 JUMPI PUSH1 0x0 DUP1 REVERT JUMPDEST POP PUSH2 0x13F PUSH1 0x4 DUP1 CALLDATASIZE SUB DUP2 ADD SWAP1 PUSH2 0x13A SWAP2 SWAP1 PUSH2 0xEE6 JUMP JUMPDEST PUSH2 0x341 JUMP JUMPDEST STOP JUMPDEST CALLVALUE DUP1 ISZERO PUSH2 0x14D JUMPI PUSH1 0x0 DUP1 REVERT JUMPDEST POP PUSH2 0x156 PUSH2 0x3EC JUMP JUMPDEST PUSH1 0x40 MLOAD PUSH2 0x163 SWAP2 SWAP1 PUSH2 0x118E JUMP JUMPDEST PUSH1 0x40 MLOAD DUP1 SWAP2 SUB SWAP1 RETURN JUMPDEST PUSH2 0x174 PUSH2 0x3F2 JUMP JUMPDEST STOP JUMPDEST CALLVALUE DUP1 ISZERO PUSH2 0x182 JUMPI PUSH1 0x0 DUP1 REVERT JUMPDEST POP PUSH2 0x18B PUSH2 0x692 JUMP JUMPDEST PUSH1 0x40 MLOAD PUSH2 0x198 SWAP2 SWAP1 PUSH2 0x118E JUMP JUMPDEST PUSH1 0x40 MLOAD DUP1 SWAP2 SUB SWAP1 RETURN JUMPDEST CALLVALUE DUP1 ISZERO PUSH2 0x1AD JUMPI PUSH1 0x0 DUP1 REVERT JUMPDEST POP PUSH2 0x1B6 PUSH2 0x698 JUMP JUMPDEST STOP JUMPDEST CALLVALUE DUP1 ISZERO PUSH2 0x1C4 JUMPI PUSH1 0x0 DUP1 REVERT JUMPDEST POP PUSH2 0x1CD PUSH2 0x77E JUMP JUMPDEST PUSH1 0x40 MLOAD PUSH2 0x1DA SWAP2 SWAP1 PUSH2 0x118E JUMP JUMPDEST PUSH1 0x40 MLOAD DUP1 SWAP2 SUB SWAP1 RETURN JUMPDEST PUSH2 0x1EB PUSH2 0x784 JUMP JUMPDEST STOP JUMPDEST CALLVALUE DUP1 ISZERO PUSH2 0x1F9 JUMPI PUSH1 0x0 DUP1 REVERT JUMPDEST POP PUSH2 0x202 PUSH2 0x99D JUMP JUMPDEST PUSH1 0x40 MLOAD PUSH2 0x20F SWAP2 SWAP1 PUSH2 0x1073 JUMP JUMPDEST PUSH1 0x40 MLOAD DUP1 SWAP2 SUB SWAP1 RETURN JUMPDEST CALLVALUE DUP1 ISZERO PUSH2 0x224 JUMPI PUSH1 0x0 DUP1 REVERT JUMPDEST POP PUSH2 0x23F PUSH1 0x4 DUP1 CALLDATASIZE SUB DUP2 ADD SWAP1 PUSH2 0x23A SWAP2 SWAP1 PUSH2 0xE79 JUMP JUMPDEST PUSH2 0x9B0 JUMP JUMPDEST PUSH1 0x40 MLOAD PUSH2 0x24C SWAP2 SWAP1 PUSH2 0x1073 JUMP JUMPDEST PUSH1 0x40 MLOAD DUP1 SWAP2 SUB SWAP1 RETURN JUMPDEST CALLVALUE DUP1 ISZERO PUSH2 0x261 JUMPI PUSH1 0x0 DUP1 REVERT JUMPDEST POP PUSH2 0x27C PUSH1 0x4 DUP1 CALLDATASIZE SUB DUP2 ADD SWAP1 PUSH2 0x277 SWAP2 SWAP1 PUSH2 0xEE6 JUMP JUMPDEST PUSH2 0x9D0 JUMP JUMPDEST STOP JUMPDEST CALLVALUE DUP1 ISZERO PUSH2 0x28A JUMPI PUSH1 0x0 DUP1 REVERT JUMPDEST POP PUSH2 0x2A5 PUSH1 0x4 DUP1 CALLDATASIZE SUB DUP2 ADD SWAP1 PUSH2 0x2A0 SWAP2 SWAP1 PUSH2 0xEA6 JUMP JUMPDEST PUSH2 0xA7B JUMP JUMPDEST PUSH1 0x40 MLOAD PUSH2 0x2B3 SWAP3 SWAP2 SWAP1 PUSH2 0x11A9 JUMP JUMPDEST PUSH1 0x40 MLOAD DUP1 SWAP2 SUB SWAP1 RETURN JUMPDEST CALLVALUE DUP1 ISZERO PUSH2 0x2C8 JUMPI PUSH1 0x0 DUP1 REVERT JUMPDEST POP PUSH2 0x2D1 PUSH2 0xABC JUMP JUMPDEST PUSH1 0x40 MLOAD PUSH2 0x2DE SWAP2 SWAP1 PUSH2 0x1058 JUMP JUMPDEST PUSH1 0x40 MLOAD DUP1 SWAP2 SUB SWAP1 RETURN JUMPDEST PUSH2 0x2EF PUSH2 0xAE0 JUMP JUMPDEST STOP JUMPDEST CALLVALUE DUP1 ISZERO PUSH2 0x2FD JUMPI PUSH1 0x0 DUP1 REVERT JUMPDEST POP PUSH2 0x318 PUSH1 0x4 DUP1 CALLDATASIZE SUB DUP2 ADD SWAP1 PUSH2 0x313 SWAP2 SWAP1 PUSH2 0xE79 JUMP JUMPDEST PUSH2 0xE1A JUMP JUMPDEST PUSH1 0x40 MLOAD PUSH2 0x325 SWAP2 SWAP1 PUSH2 0x1073 JUMP JUMPDEST PUSH1 0x40 MLOAD DUP1 SWAP2 SUB SWAP1 RETURN JUMPDEST PUSH1 0x0 PUSH1 0x15 SWAP1 SLOAD SWAP1 PUSH2 0x100 EXP SWAP1 DIV PUSH1 0xFF AND DUP2 JUMP JUMPDEST PUSH1 0x0 DUP1 SLOAD SWAP1 PUSH2 0x100 EXP SWAP1 DIV PUSH20 0xFFFFFFFFFFFFFFFFFFFFFFFFFFFFFFFFFFFFFFFF AND PUSH20 0xFFFFFFFFFFFFFFFFFFFFFFFFFFFFFFFFFFFFFFFF AND CALLER PUSH20 0xFFFFFFFFFFFFFFFFFFFFFFFFFFFFFFFFFFFFFFFF AND EQ PUSH2 0x3CF JUMPI PUSH1 0x40 MLOAD PUSH32 0x8C379A000000000000000000000000000000000000000000000000000000000 DUP2 MSTORE PUSH1 0x4 ADD PUSH2 0x3C6 SWAP1 PUSH2 0x10AE JUMP JUMPDEST PUSH1 0x40 MLOAD DUP1 SWAP2 SUB SWAP1 REVERT JUMPDEST DUP1 PUSH1 0x0 PUSH1 0x14 PUSH2 0x100 EXP DUP2 SLOAD DUP2 PUSH1 0xFF MUL NOT AND SWAP1 DUP4 ISZERO ISZERO MUL OR SWAP1 SSTORE POP POP JUMP JUMPDEST PUSH1 0x8 SLOAD DUP2 JUMP JUMPDEST PUSH1 0x0 PUSH1 0x2 PUSH1 0x0 ADD SLOAD GT PUSH2 0x43A JUMPI PUSH1 0x40 MLOAD PUSH32 0x8C379A000000000000000000000000000000000000000000000000000000000 DUP2 MSTORE PUSH1 0x4 ADD PUSH2 0x431 SWAP1 PUSH2 0x10EE JUMP JUMPDEST PUSH1 0x40 MLOAD DUP1 SWAP2 SUB SWAP1 REVERT JUMPDEST PUSH1 0x0 DUP1 JUMPDEST PUSH1 0x4 PUSH1 0x0 CALLER PUSH20 0xFFFFFFFFFFFFFFFFFFFFFFFFFFFFFFFFFFFFFFFF AND PUSH20 0xFFFFFFFFFFFFFFFFFFFFFFFFFFFFFFFFFFFFFFFF AND DUP2 MSTORE PUSH1 0x20 ADD SWAP1 DUP2 MSTORE PUSH1 0x20 ADD PUSH1 0x0 KECCAK256 DUP1 SLOAD SWAP1 POP DUP2 LT ISZERO PUSH2 0x584 JUMPI PUSH3 0x83D600 PUSH1 0x4 PUSH1 0x0 CALLER PUSH20 0xFFFFFFFFFFFFFFFFFFFFFFFFFFFFFFFFFFFFFFFF AND PUSH20 0xFFFFFFFFFFFFFFFFFFFFFFFFFFFFFFFFFFFFFFFF AND DUP2 MSTORE PUSH1 0x20 ADD SWAP1 DUP2 MSTORE PUSH1 0x20 ADD PUSH1 0x0 KECCAK256 DUP3 DUP2 SLOAD DUP2 LT PUSH2 0x4DD JUMPI PUSH2 0x4DC PUSH2 0x13E7 JUMP JUMPDEST JUMPDEST SWAP1 PUSH1 0x0 MSTORE PUSH1 0x20 PUSH1 0x0 KECCAK256 SWAP1 PUSH1 0x2 MUL ADD PUSH1 0x1 ADD SLOAD TIMESTAMP PUSH2 0x4FA SWAP2 SWAP1 PUSH2 0x12C4 JUMP JUMPDEST LT ISZERO PUSH2 0x571 JUMPI PUSH1 0x4 PUSH1 0x0 CALLER PUSH20 0xFFFFFFFFFFFFFFFFFFFFFFFFFFFFFFFFFFFFFFFF AND PUSH20 0xFFFFFFFFFFFFFFFFFFFFFFFFFFFFFFFFFFFFFFFF AND DUP2 MSTORE PUSH1 0x20 ADD SWAP1 DUP2 MSTORE PUSH1 0x20 ADD PUSH1 0x0 KECCAK256 DUP2 DUP2 SLOAD DUP2 LT PUSH2 0x551 JUMPI PUSH2 0x550 PUSH2 0x13E7 JUMP JUMPDEST JUMPDEST SWAP1 PUSH1 0x0 MSTORE PUSH1 0x20 PUSH1 0x0 KECCAK256 SWAP1 PUSH1 0x2 MUL ADD PUSH1 0x0 ADD SLOAD DUP3 PUSH2 0x56E SWAP2 SWAP1 PUSH2 0x11E3 JUMP JUMPDEST SWAP2 POP JUMPDEST DUP1 DUP1 PUSH2 0x57C SWAP1 PUSH2 0x1340 JUMP JUMPDEST SWAP2 POP POP PUSH2 0x43E JUMP JUMPDEST POP CALLER PUSH20 0xFFFFFFFFFFFFFFFFFFFFFFFFFFFFFFFFFFFFFFFF AND PUSH2 0x8FC PUSH1 0x8 SLOAD SWAP1 DUP2 ISZERO MUL SWAP1 PUSH1 0x40 MLOAD PUSH1 0x0 PUSH1 0x40 MLOAD DUP1 DUP4 SUB DUP2 DUP6 DUP9 DUP9 CALL SWAP4 POP POP POP POP ISZERO DUP1 ISZERO PUSH2 0x5CD JUMPI RETURNDATASIZE PUSH1 0x0 DUP1 RETURNDATACOPY RETURNDATASIZE PUSH1 0x0 REVERT JUMPDEST POP PUSH1 0x0 PUSH1 0x4 PUSH1 0x0 CALLER PUSH20 0xFFFFFFFFFFFFFFFFFFFFFFFFFFFFFFFFFFFFFFFF AND PUSH20 0xFFFFFFFFFFFFFFFFFFFFFFFFFFFFFFFFFFFFFFFF AND DUP2 MSTORE PUSH1 0x20 ADD SWAP1 DUP2 MSTORE PUSH1 0x20 ADD PUSH1 0x0 KECCAK256 PUSH1 0x0 DUP2 SLOAD DUP2 LT PUSH2 0x622 JUMPI PUSH2 0x621 PUSH2 0x13E7 JUMP JUMPDEST JUMPDEST SWAP1 PUSH1 0x0 MSTORE PUSH1 0x20 PUSH1 0x0 KECCAK256 SWAP1 PUSH1 0x2 MUL ADD PUSH1 0x0 ADD DUP2 SWAP1 SSTORE POP PUSH1 0x0 PUSH1 0x6 PUSH1 0x0 CALLER PUSH20 0xFFFFFFFFFFFFFFFFFFFFFFFFFFFFFFFFFFFFFFFF AND PUSH20 0xFFFFFFFFFFFFFFFFFFFFFFFFFFFFFFFFFFFFFFFF AND DUP2 MSTORE PUSH1 0x20 ADD SWAP1 DUP2 MSTORE PUSH1 0x20 ADD PUSH1 0x0 KECCAK256 PUSH1 0x0 PUSH2 0x100 EXP DUP2 SLOAD DUP2 PUSH1 0xFF MUL NOT AND SWAP1 DUP4 ISZERO ISZERO MUL OR SWAP1 SSTORE POP POP JUMP JUMPDEST PUSH1 0x7 SLOAD DUP2 JUMP JUMPDEST PUSH1 0x0 DUP1 SLOAD SWAP1 PUSH2 0x100 EXP SWAP1 DIV PUSH20 0xFFFFFFFFFFFFFFFFFFFFFFFFFFFFFFFFFFFFFFFF AND PUSH20 0xFFFFFFFFFFFFFFFFFFFFFFFFFFFFFFFFFFFFFFFF AND CALLER PUSH20 0xFFFFFFFFFFFFFFFFFFFFFFFFFFFFFFFFFFFFFFFF AND EQ PUSH2 0x726 JUMPI PUSH1 0x40 MLOAD PUSH32 0x8C379A000000000000000000000000000000000000000000000000000000000 DUP2 MSTORE PUSH1 0x4 ADD PUSH2 0x71D SWAP1 PUSH2 0x10CE JUMP JUMPDEST PUSH1 0x40 MLOAD DUP1 SWAP2 SUB SWAP1 REVERT JUMPDEST PUSH1 0x0 ISZERO ISZERO PUSH1 0x0 PUSH1 0x14 SWAP1 SLOAD SWAP1 PUSH2 0x100 EXP SWAP1 DIV PUSH1 0xFF AND ISZERO ISZERO EQ PUSH2 0x77C JUMPI PUSH1 0x40 MLOAD PUSH32 0x8C379A000000000000000000000000000000000000000000000000000000000 DUP2 MSTORE PUSH1 0x4 ADD PUSH2 0x773 SWAP1 PUSH2 0x116E JUMP JUMPDEST PUSH1 0x40 MLOAD DUP1 SWAP2 SUB SWAP1 REVERT JUMPDEST JUMP JUMPDEST PUSH1 0x1 SLOAD DUP2 JUMP JUMPDEST PUSH1 0x0 CALLVALUE GT PUSH2 0x7C7 JUMPI PUSH1 0x40 MLOAD PUSH32 0x8C379A000000000000000000000000000000000000000000000000000000000 DUP2 MSTORE PUSH1 0x4 ADD PUSH2 0x7BE SWAP1 PUSH2 0x110E JUMP JUMPDEST PUSH1 0x40 MLOAD DUP1 SWAP2 SUB SWAP1 REVERT JUMPDEST PUSH1 0x0 ISZERO ISZERO PUSH1 0x0 PUSH1 0x15 SWAP1 SLOAD SWAP1 PUSH2 0x100 EXP SWAP1 DIV PUSH1 0xFF AND ISZERO ISZERO EQ PUSH2 0x81D JUMPI PUSH1 0x40 MLOAD PUSH32 0x8C379A000000000000000000000000000000000000000000000000000000000 DUP2 MSTORE PUSH1 0x4 ADD PUSH2 0x814 SWAP1 PUSH2 0x112E JUMP JUMPDEST PUSH1 0x40 MLOAD DUP1 SWAP2 SUB SWAP1 REVERT JUMPDEST CALLVALUE PUSH1 0x2 PUSH1 0x0 ADD DUP2 SWAP1 SSTORE POP TIMESTAMP PUSH1 0x2 PUSH1 0x1 ADD DUP2 SWAP1 SSTORE POP PUSH1 0x4 PUSH1 0x0 CALLER PUSH20 0xFFFFFFFFFFFFFFFFFFFFFFFFFFFFFFFFFFFFFFFF AND PUSH20 0xFFFFFFFFFFFFFFFFFFFFFFFFFFFFFFFFFFFFFFFF AND DUP2 MSTORE PUSH1 0x20 ADD SWAP1 DUP2 MSTORE PUSH1 0x20 ADD PUSH1 0x0 KECCAK256 PUSH1 0x2 SWAP1 DUP1 PUSH1 0x1 DUP2 SLOAD ADD DUP1 DUP3 SSTORE DUP1 SWAP2 POP POP PUSH1 0x1 SWAP1 SUB SWAP1 PUSH1 0x0 MSTORE PUSH1 0x20 PUSH1 0x0 KECCAK256 SWAP1 PUSH1 0x2 MUL ADD PUSH1 0x0 SWAP1 SWAP2 SWAP1 SWAP2 SWAP1 SWAP2 POP PUSH1 0x0 DUP3 ADD SLOAD DUP2 PUSH1 0x0 ADD SSTORE PUSH1 0x1 DUP3 ADD SLOAD DUP2 PUSH1 0x1 ADD SSTORE POP POP PUSH1 0x0 PUSH1 0x64 PUSH1 0x5 PUSH1 0x2 PUSH1 0x0 ADD SLOAD PUSH2 0x8C7 SWAP2 SWAP1 PUSH2 0x126A JUMP JUMPDEST PUSH2 0x8D1 SWAP2 SWAP1 PUSH2 0x1239 JUMP JUMPDEST SWAP1 POP DUP1 PUSH1 0x2 PUSH1 0x0 ADD SLOAD PUSH2 0x8E4 SWAP2 SWAP1 PUSH2 0x11E3 JUMP JUMPDEST PUSH1 0x1 DUP2 SWAP1 SSTORE POP PUSH1 0x1 PUSH1 0x6 PUSH1 0x0 CALLER PUSH20 0xFFFFFFFFFFFFFFFFFFFFFFFFFFFFFFFFFFFFFFFF AND PUSH20 0xFFFFFFFFFFFFFFFFFFFFFFFFFFFFFFFFFFFFFFFF AND DUP2 MSTORE PUSH1 0x20 ADD SWAP1 DUP2 MSTORE PUSH1 0x20 ADD PUSH1 0x0 KECCAK256 PUSH1 0x0 PUSH2 0x100 EXP DUP2 SLOAD DUP2 PUSH1 0xFF MUL NOT AND SWAP1 DUP4 ISZERO ISZERO MUL OR SWAP1 SSTORE POP PUSH1 0x1 PUSH1 0x5 PUSH1 0x0 CALLER PUSH20 0xFFFFFFFFFFFFFFFFFFFFFFFFFFFFFFFFFFFFFFFF AND PUSH20 0xFFFFFFFFFFFFFFFFFFFFFFFFFFFFFFFFFFFFFFFF AND DUP2 MSTORE PUSH1 0x20 ADD SWAP1 DUP2 MSTORE PUSH1 0x20 ADD PUSH1 0x0 KECCAK256 PUSH1 0x0 PUSH2 0x100 EXP DUP2 SLOAD DUP2 PUSH1 0xFF MUL NOT AND SWAP1 DUP4 ISZERO ISZERO MUL OR SWAP1 SSTORE POP POP JUMP JUMPDEST PUSH1 0x0 PUSH1 0x14 SWAP1 SLOAD SWAP1 PUSH2 0x100 EXP SWAP1 DIV PUSH1 0xFF AND DUP2 JUMP JUMPDEST PUSH1 0x6 PUSH1 0x20 MSTORE DUP1 PUSH1 0x0 MSTORE PUSH1 0x40 PUSH1 0x0 KECCAK256 PUSH1 0x0 SWAP2 POP SLOAD SWAP1 PUSH2 0x100 EXP SWAP1 DIV PUSH1 0xFF AND DUP2 JUMP JUMPDEST PUSH1 0x0 DUP1 SLOAD SWAP1 PUSH2 0x100 EXP SWAP1 DIV PUSH20 0xFFFFFFFFFFFFFFFFFFFFFFFFFFFFFFFFFFFFFFFF AND PUSH20 0xFFFFFFFFFFFFFFFFFFFFFFFFFFFFFFFFFFFFFFFF AND CALLER PUSH20 0xFFFFFFFFFFFFFFFFFFFFFFFFFFFFFFFFFFFFFFFF AND EQ PUSH2 0xA5E JUMPI PUSH1 0x40 MLOAD PUSH32 0x8C379A000000000000000000000000000000000000000000000000000000000 DUP2 MSTORE PUSH1 0x4 ADD PUSH2 0xA55 SWAP1 PUSH2 0x114E JUMP JUMPDEST PUSH1 0x40 MLOAD DUP1 SWAP2 SUB SWAP1 REVERT JUMPDEST DUP1 PUSH1 0x0 PUSH1 0x15 PUSH2 0x100 EXP DUP2 SLOAD DUP2 PUSH1 0xFF MUL NOT AND SWAP1 DUP4 ISZERO ISZERO MUL OR SWAP1 SSTORE POP POP JUMP JUMPDEST PUSH1 0x4 PUSH1 0x20 MSTORE DUP2 PUSH1 0x0 MSTORE PUSH1 0x40 PUSH1 0x0 KECCAK256 DUP2 DUP2 SLOAD DUP2 LT PUSH2 0xA97 JUMPI PUSH1 0x0 DUP1 REVERT JUMPDEST SWAP1 PUSH1 0x0 MSTORE PUSH1 0x20 PUSH1 0x0 KECCAK256 SWAP1 PUSH1 0x2 MUL ADD PUSH1 0x0 SWAP2 POP SWAP2 POP POP DUP1 PUSH1 0x0 ADD SLOAD SWAP1 DUP1 PUSH1 0x1 ADD SLOAD SWAP1 POP DUP3 JUMP JUMPDEST PUSH1 0x0 DUP1 SLOAD SWAP1 PUSH2 0x100 EXP SWAP1 DIV PUSH20 0xFFFFFFFFFFFFFFFFFFFFFFFFFFFFFFFFFFFFFFFF AND DUP2 JUMP JUMPDEST PUSH1 0x0 DUP1 SLOAD SWAP1 PUSH2 0x100 EXP SWAP1 DIV PUSH20 0xFFFFFFFFFFFFFFFFFFFFFFFFFFFFFFFFFFFFFFFF AND PUSH20 0xFFFFFFFFFFFFFFFFFFFFFFFFFFFFFFFFFFFFFFFF AND CALLER PUSH20 0xFFFFFFFFFFFFFFFFFFFFFFFFFFFFFFFFFFFFFFFF AND EQ PUSH2 0xB6E JUMPI PUSH1 0x40 MLOAD PUSH32 0x8C379A000000000000000000000000000000000000000000000000000000000 DUP2 MSTORE PUSH1 0x4 ADD PUSH2 0xB65 SWAP1 PUSH2 0x108E JUMP JUMPDEST PUSH1 0x40 MLOAD DUP1 SWAP2 SUB SWAP1 REVERT JUMPDEST PUSH1 0x0 JUMPDEST PUSH1 0x4 PUSH1 0x0 CALLER PUSH20 0xFFFFFFFFFFFFFFFFFFFFFFFFFFFFFFFFFFFFFFFF AND PUSH20 0xFFFFFFFFFFFFFFFFFFFFFFFFFFFFFFFFFFFFFFFF AND DUP2 MSTORE PUSH1 0x20 ADD SWAP1 DUP2 MSTORE PUSH1 0x20 ADD PUSH1 0x0 KECCAK256 DUP1 SLOAD SWAP1 POP DUP2 LT ISZERO PUSH2 0xDCE JUMPI PUSH1 0x0 PUSH1 0x4 PUSH1 0x0 CALLER PUSH20 0xFFFFFFFFFFFFFFFFFFFFFFFFFFFFFFFFFFFFFFFF AND PUSH20 0xFFFFFFFFFFFFFFFFFFFFFFFFFFFFFFFFFFFFFFFF AND DUP2 MSTORE PUSH1 0x20 ADD SWAP1 DUP2 MSTORE PUSH1 0x20 ADD PUSH1 0x0 KECCAK256 DUP3 DUP2 SLOAD DUP2 LT PUSH2 0xC0E JUMPI PUSH2 0xC0D PUSH2 0x13E7 JUMP JUMPDEST JUMPDEST SWAP1 PUSH1 0x0 MSTORE PUSH1 0x20 PUSH1 0x0 KECCAK256 SWAP1 PUSH1 0x2 MUL ADD PUSH1 0x0 ADD SLOAD SWAP1 POP PUSH3 0x83D600 PUSH1 0x4 PUSH1 0x0 CALLER PUSH20 0xFFFFFFFFFFFFFFFFFFFFFFFFFFFFFFFFFFFFFFFF AND PUSH20 0xFFFFFFFFFFFFFFFFFFFFFFFFFFFFFFFFFFFFFFFF AND DUP2 MSTORE PUSH1 0x20 ADD SWAP1 DUP2 MSTORE PUSH1 0x20 ADD PUSH1 0x0 KECCAK256 DUP4 DUP2 SLOAD DUP2 LT PUSH2 0xC77 JUMPI PUSH2 0xC76 PUSH2 0x13E7 JUMP JUMPDEST JUMPDEST SWAP1 PUSH1 0x0 MSTORE PUSH1 0x20 PUSH1 0x0 KECCAK256 SWAP1 PUSH1 0x2 MUL ADD PUSH1 0x1 ADD SLOAD TIMESTAMP PUSH2 0xC94 SWAP2 SWAP1 PUSH2 0x12C4 JUMP JUMPDEST LT ISZERO PUSH2 0xDBA JUMPI PUSH1 0x64 DUP2 PUSH1 0xA PUSH1 0x4 PUSH1 0x0 CALLER PUSH20 0xFFFFFFFFFFFFFFFFFFFFFFFFFFFFFFFFFFFFFFFF AND PUSH20 0xFFFFFFFFFFFFFFFFFFFFFFFFFFFFFFFFFFFFFFFF AND DUP2 MSTORE PUSH1 0x20 ADD SWAP1 DUP2 MSTORE PUSH1 0x20 ADD PUSH1 0x0 KECCAK256 DUP6 DUP2 SLOAD DUP2 LT PUSH2 0xCF0 JUMPI PUSH2 0xCEF PUSH2 0x13E7 JUMP JUMPDEST JUMPDEST SWAP1 PUSH1 0x0 MSTORE PUSH1 0x20 PUSH1 0x0 KECCAK256 SWAP1 PUSH1 0x2 MUL ADD PUSH1 0x1 ADD SLOAD TIMESTAMP PUSH2 0xD0D SWAP2 SWAP1 PUSH2 0x12C4 JUMP JUMPDEST PUSH2 0xD17 SWAP2 SWAP1 PUSH2 0x1239 JUMP JUMPDEST PUSH2 0xD21 SWAP2 SWAP1 PUSH2 0x126A JUMP JUMPDEST PUSH2 0xD2B SWAP2 SWAP1 PUSH2 0x1239 JUMP JUMPDEST PUSH1 0x7 PUSH1 0x0 DUP3 DUP3 SLOAD PUSH2 0xD3C SWAP2 SWAP1 PUSH2 0x11E3 JUMP JUMPDEST SWAP3 POP POP DUP2 SWAP1 SSTORE POP PUSH1 0x7 SLOAD PUSH1 0x4 PUSH1 0x0 CALLER PUSH20 0xFFFFFFFFFFFFFFFFFFFFFFFFFFFFFFFFFFFFFFFF AND PUSH20 0xFFFFFFFFFFFFFFFFFFFFFFFFFFFFFFFFFFFFFFFF AND DUP2 MSTORE PUSH1 0x20 ADD SWAP1 DUP2 MSTORE PUSH1 0x20 ADD PUSH1 0x0 KECCAK256 DUP4 DUP2 SLOAD DUP2 LT PUSH2 0xD97 JUMPI PUSH2 0xD96 PUSH2 0x13E7 JUMP JUMPDEST JUMPDEST SWAP1 PUSH1 0x0 MSTORE PUSH1 0x20 PUSH1 0x0 KECCAK256 SWAP1 PUSH1 0x2 MUL ADD PUSH1 0x0 ADD SLOAD PUSH2 0xDB3 SWAP2 SWAP1 PUSH2 0x11E3 JUMP JUMPDEST PUSH1 0x8 DUP2 SWAP1 SSTORE POP JUMPDEST POP DUP1 DUP1 PUSH2 0xDC6 SWAP1 PUSH2 0x1340 JUMP JUMPDEST SWAP2 POP POP PUSH2 0xB71 JUMP JUMPDEST POP CALLER PUSH20 0xFFFFFFFFFFFFFFFFFFFFFFFFFFFFFFFFFFFFFFFF AND PUSH2 0x8FC PUSH1 0x7 SLOAD SWAP1 DUP2 ISZERO MUL SWAP1 PUSH1 0x40 MLOAD PUSH1 0x0 PUSH1 0x40 MLOAD DUP1 DUP4 SUB DUP2 DUP6 DUP9 DUP9 CALL SWAP4 POP POP POP POP ISZERO DUP1 ISZERO PUSH2 0xE17 JUMPI RETURNDATASIZE PUSH1 0x0 DUP1 RETURNDATACOPY RETURNDATASIZE PUSH1 0x0 REVERT JUMPDEST POP JUMP JUMPDEST PUSH1 0x5 PUSH1 0x20 MSTORE DUP1 PUSH1 0x0 MSTORE PUSH1 0x40 PUSH1 0x0 KECCAK256 PUSH1 0x0 SWAP2 POP SLOAD SWAP1 PUSH2 0x100 EXP SWAP1 DIV PUSH1 0xFF AND DUP2 JUMP JUMPDEST PUSH1 0x0 DUP2 CALLDATALOAD SWAP1 POP PUSH2 0xE49 DUP2 PUSH2 0x1589 JUMP JUMPDEST SWAP3 SWAP2 POP POP JUMP JUMPDEST PUSH1 0x0 DUP2 CALLDATALOAD SWAP1 POP PUSH2 0xE5E DUP2 PUSH2 0x15A0 JUMP JUMPDEST SWAP3 SWAP2 POP POP JUMP JUMPDEST PUSH1 0x0 DUP2 CALLDATALOAD SWAP1 POP PUSH2 0xE73 DUP2 PUSH2 0x15B7 JUMP JUMPDEST SWAP3 SWAP2 POP POP JUMP JUMPDEST PUSH1 0x0 PUSH1 0x20 DUP3 DUP5 SUB SLT ISZERO PUSH2 0xE8F JUMPI PUSH2 0xE8E PUSH2 0x1416 JUMP JUMPDEST JUMPDEST PUSH1 0x0 PUSH2 0xE9D DUP5 DUP3 DUP6 ADD PUSH2 0xE3A JUMP JUMPDEST SWAP2 POP POP SWAP3 SWAP2 POP POP JUMP JUMPDEST PUSH1 0x0 DUP1 PUSH1 0x40 DUP4 DUP6 SUB SLT ISZERO PUSH2 0xEBD JUMPI PUSH2 0xEBC PUSH2 0x1416 JUMP JUMPDEST JUMPDEST PUSH1 0x0 PUSH2 0xECB DUP6 DUP3 DUP7 ADD PUSH2 0xE3A JUMP JUMPDEST SWAP3 POP POP PUSH1 0x20 PUSH2 0xEDC DUP6 DUP3 DUP7 ADD PUSH2 0xE64 JUMP JUMPDEST SWAP2 POP POP SWAP3 POP SWAP3 SWAP1 POP JUMP JUMPDEST PUSH1 0x0 PUSH1 0x20 DUP3 DUP5 SUB SLT ISZERO PUSH2 0xEFC JUMPI PUSH2 0xEFB PUSH2 0x1416 JUMP JUMPDEST JUMPDEST PUSH1 0x0 PUSH2 0xF0A DUP5 DUP3 DUP6 ADD PUSH2 0xE4F JUMP JUMPDEST SWAP2 POP POP SWAP3 SWAP2 POP POP JUMP JUMPDEST PUSH2 0xF1C DUP2 PUSH2 0x12F8 JUMP JUMPDEST DUP3 MSTORE POP POP JUMP JUMPDEST PUSH2 0xF2B DUP2 PUSH2 0x130A JUMP JUMPDEST DUP3 MSTORE POP POP JUMP JUMPDEST PUSH1 0x0 PUSH2 0xF3E PUSH1 0x18 DUP4 PUSH2 0x11D2 JUMP JUMPDEST SWAP2 POP PUSH2 0xF49 DUP3 PUSH2 0x141B JUMP JUMPDEST PUSH1 0x20 DUP3 ADD SWAP1 POP SWAP2 SWAP1 POP JUMP JUMPDEST PUSH1 0x0 PUSH2 0xF61 PUSH1 0x15 DUP4 PUSH2 0x11D2 JUMP JUMPDEST SWAP2 POP PUSH2 0xF6C DUP3 PUSH2 0x1444 JUMP JUMPDEST PUSH1 0x20 DUP3 ADD SWAP1 POP SWAP2 SWAP1 POP JUMP JUMPDEST PUSH1 0x0 PUSH2 0xF84 PUSH1 0x21 DUP4 PUSH2 0x11D2 JUMP JUMPDEST SWAP2 POP PUSH2 0xF8F DUP3 PUSH2 0x146D JUMP JUMPDEST PUSH1 0x40 DUP3 ADD SWAP1 POP SWAP2 SWAP1 POP JUMP JUMPDEST PUSH1 0x0 PUSH2 0xFA7 PUSH1 0x1B DUP4 PUSH2 0x11D2 JUMP JUMPDEST SWAP2 POP PUSH2 0xFB2 DUP3 PUSH2 0x14BC JUMP JUMPDEST PUSH1 0x20 DUP3 ADD SWAP1 POP SWAP2 SWAP1 POP JUMP JUMPDEST PUSH1 0x0 PUSH2 0xFCA PUSH1 0x12 DUP4 PUSH2 0x11D2 JUMP JUMPDEST SWAP2 POP PUSH2 0xFD5 DUP3 PUSH2 0x14E5 JUMP JUMPDEST PUSH1 0x20 DUP3 ADD SWAP1 POP SWAP2 SWAP1 POP JUMP JUMPDEST PUSH1 0x0 PUSH2 0xFED PUSH1 0xD DUP4 PUSH2 0x11D2 JUMP JUMPDEST SWAP2 POP PUSH2 0xFF8 DUP3 PUSH2 0x150E JUMP JUMPDEST PUSH1 0x20 DUP3 ADD SWAP1 POP SWAP2 SWAP1 POP JUMP JUMPDEST PUSH1 0x0 PUSH2 0x1010 PUSH1 0x1D DUP4 PUSH2 0x11D2 JUMP JUMPDEST SWAP2 POP PUSH2 0x101B DUP3 PUSH2 0x1537 JUMP JUMPDEST PUSH1 0x20 DUP3 ADD SWAP1 POP SWAP2 SWAP1 POP JUMP JUMPDEST PUSH1 0x0 PUSH2 0x1033 PUSH1 0xF DUP4 PUSH2 0x11D2 JUMP JUMPDEST SWAP2 POP PUSH2 0x103E DUP3 PUSH2 0x1560 JUMP JUMPDEST PUSH1 0x20 DUP3 ADD SWAP1 POP SWAP2 SWAP1 POP JUMP JUMPDEST PUSH2 0x1052 DUP2 PUSH2 0x1336 JUMP JUMPDEST DUP3 MSTORE POP POP JUMP JUMPDEST PUSH1 0x0 PUSH1 0x20 DUP3 ADD SWAP1 POP PUSH2 0x106D PUSH1 0x0 DUP4 ADD DUP5 PUSH2 0xF13 JUMP JUMPDEST SWAP3 SWAP2 POP POP JUMP JUMPDEST PUSH1 0x0 PUSH1 0x20 DUP3 ADD SWAP1 POP PUSH2 0x1088 PUSH1 0x0 DUP4 ADD DUP5 PUSH2 0xF22 JUMP JUMPDEST SWAP3 SWAP2 POP POP JUMP JUMPDEST PUSH1 0x0 PUSH1 0x20 DUP3 ADD SWAP1 POP DUP2 DUP2 SUB PUSH1 0x0 DUP4 ADD MSTORE PUSH2 0x10A7 DUP2 PUSH2 0xF31 JUMP JUMPDEST SWAP1 POP SWAP2 SWAP1 POP JUMP JUMPDEST PUSH1 0x0 PUSH1 0x20 DUP3 ADD SWAP1 POP DUP2 DUP2 SUB PUSH1 0x0 DUP4 ADD MSTORE PUSH2 0x10C7 DUP2 PUSH2 0xF54 JUMP JUMPDEST SWAP1 POP SWAP2 SWAP1 POP JUMP JUMPDEST PUSH1 0x0 PUSH1 0x20 DUP3 ADD SWAP1 POP DUP2 DUP2 SUB PUSH1 0x0 DUP4 ADD MSTORE PUSH2 0x10E7 DUP2 PUSH2 0xF77 JUMP JUMPDEST SWAP1 POP SWAP2 SWAP1 POP JUMP JUMPDEST PUSH1 0x0 PUSH1 0x20 DUP3 ADD SWAP1 POP DUP2 DUP2 SUB PUSH1 0x0 DUP4 ADD MSTORE PUSH2 0x1107 DUP2 PUSH2 0xF9A JUMP JUMPDEST SWAP1 POP SWAP2 SWAP1 POP JUMP JUMPDEST PUSH1 0x0 PUSH1 0x20 DUP3 ADD SWAP1 POP DUP2 DUP2 SUB PUSH1 0x0 DUP4 ADD MSTORE PUSH2 0x1127 DUP2 PUSH2 0xFBD JUMP JUMPDEST SWAP1 POP SWAP2 SWAP1 POP JUMP JUMPDEST PUSH1 0x0 PUSH1 0x20 DUP3 ADD SWAP1 POP DUP2 DUP2 SUB PUSH1 0x0 DUP4 ADD MSTORE PUSH2 0x1147 DUP2 PUSH2 0xFE0 JUMP JUMPDEST SWAP1 POP SWAP2 SWAP1 POP JUMP JUMPDEST PUSH1 0x0 PUSH1 0x20 DUP3 ADD SWAP1 POP DUP2 DUP2 SUB PUSH1 0x0 DUP4 ADD MSTORE PUSH2 0x1167 DUP2 PUSH2 0x1003 JUMP JUMPDEST SWAP1 POP SWAP2 SWAP1 POP JUMP JUMPDEST PUSH1 0x0 PUSH1 0x20 DUP3 ADD SWAP1 POP DUP2 DUP2 SUB PUSH1 0x0 DUP4 ADD MSTORE PUSH2 0x1187 DUP2 PUSH2 0x1026 JUMP JUMPDEST SWAP1 POP SWAP2 SWAP1 POP JUMP JUMPDEST PUSH1 0x0 PUSH1 0x20 DUP3 ADD SWAP1 POP PUSH2 0x11A3 PUSH1 0x0 DUP4 ADD DUP5 PUSH2 0x1049 JUMP JUMPDEST SWAP3 SWAP2 POP POP JUMP JUMPDEST PUSH1 0x0 PUSH1 0x40 DUP3 ADD SWAP1 POP PUSH2 0x11BE PUSH1 0x0 DUP4 ADD DUP6 PUSH2 0x1049 JUMP JUMPDEST PUSH2 0x11CB PUSH1 0x20 DUP4 ADD DUP5 PUSH2 0x1049 JUMP JUMPDEST SWAP4 SWAP3 POP POP POP JUMP JUMPDEST PUSH1 0x0 DUP3 DUP3 MSTORE PUSH1 0x20 DUP3 ADD SWAP1 POP SWAP3 SWAP2 POP POP JUMP JUMPDEST PUSH1 0x0 PUSH2 0x11EE DUP3 PUSH2 0x1336 JUMP JUMPDEST SWAP2 POP PUSH2 0x11F9 DUP4 PUSH2 0x1336 JUMP JUMPDEST SWAP3 POP DUP3 PUSH32 0xFFFFFFFFFFFFFFFFFFFFFFFFFFFFFFFFFFFFFFFFFFFFFFFFFFFFFFFFFFFFFFFF SUB DUP3 GT ISZERO PUSH2 0x122E JUMPI PUSH2 0x122D PUSH2 0x1389 JUMP JUMPDEST JUMPDEST DUP3 DUP3 ADD SWAP1 POP SWAP3 SWAP2 POP POP JUMP JUMPDEST PUSH1 0x0 PUSH2 0x1244 DUP3 PUSH2 0x1336 JUMP JUMPDEST SWAP2 POP PUSH2 0x124F DUP4 PUSH2 0x1336 JUMP JUMPDEST SWAP3 POP DUP3 PUSH2 0x125F JUMPI PUSH2 0x125E PUSH2 0x13B8 JUMP JUMPDEST JUMPDEST DUP3 DUP3 DIV SWAP1 POP SWAP3 SWAP2 POP POP JUMP JUMPDEST PUSH1 0x0 PUSH2 0x1275 DUP3 PUSH2 0x1336 JUMP JUMPDEST SWAP2 POP PUSH2 0x1280 DUP4 PUSH2 0x1336 JUMP JUMPDEST SWAP3 POP DUP2 PUSH32 0xFFFFFFFFFFFFFFFFFFFFFFFFFFFFFFFFFFFFFFFFFFFFFFFFFFFFFFFFFFFFFFFF DIV DUP4 GT DUP3 ISZERO ISZERO AND ISZERO PUSH2 0x12B9 JUMPI PUSH2 0x12B8 PUSH2 0x1389 JUMP JUMPDEST JUMPDEST DUP3 DUP3 MUL SWAP1 POP SWAP3 SWAP2 POP POP JUMP JUMPDEST PUSH1 0x0 PUSH2 0x12CF DUP3 PUSH2 0x1336 JUMP JUMPDEST SWAP2 POP PUSH2 0x12DA DUP4 PUSH2 0x1336 JUMP JUMPDEST SWAP3 POP DUP3 DUP3 LT ISZERO PUSH2 0x12ED JUMPI PUSH2 0x12EC PUSH2 0x1389 JUMP JUMPDEST JUMPDEST DUP3 DUP3 SUB SWAP1 POP SWAP3 SWAP2 POP POP JUMP JUMPDEST PUSH1 0x0 PUSH2 0x1303 DUP3 PUSH2 0x1316 JUMP JUMPDEST SWAP1 POP SWAP2 SWAP1 POP JUMP JUMPDEST PUSH1 0x0 DUP2 ISZERO ISZERO SWAP1 POP SWAP2 SWAP1 POP JUMP JUMPDEST PUSH1 0x0 PUSH20 0xFFFFFFFFFFFFFFFFFFFFFFFFFFFFFFFFFFFFFFFF DUP3 AND SWAP1 POP SWAP2 SWAP1 POP JUMP JUMPDEST PUSH1 0x0 DUP2 SWAP1 POP SWAP2 SWAP1 POP JUMP JUMPDEST PUSH1 0x0 PUSH2 0x134B DUP3 PUSH2 0x1336 JUMP JUMPDEST SWAP2 POP PUSH32 0xFFFFFFFFFFFFFFFFFFFFFFFFFFFFFFFFFFFFFFFFFFFFFFFFFFFFFFFFFFFFFFFF DUP3 EQ ISZERO PUSH2 0x137E JUMPI PUSH2 0x137D PUSH2 0x1389 JUMP JUMPDEST JUMPDEST PUSH1 0x1 DUP3 ADD SWAP1 POP SWAP2 SWAP1 POP JUMP JUMPDEST PUSH32 0x4E487B7100000000000000000000000000000000000000000000000000000000 PUSH1 0x0 MSTORE PUSH1 0x11 PUSH1 0x4 MSTORE PUSH1 0x24 PUSH1 0x0 REVERT JUMPDEST PUSH32 0x4E487B7100000000000000000000000000000000000000000000000000000000 PUSH1 0x0 MSTORE PUSH1 0x12 PUSH1 0x4 MSTORE PUSH1 0x24 PUSH1 0x0 REVERT JUMPDEST PUSH32 0x4E487B7100000000000000000000000000000000000000000000000000000000 PUSH1 0x0 MSTORE PUSH1 0x32 PUSH1 0x4 MSTORE PUSH1 0x24 PUSH1 0x0 REVERT JUMPDEST PUSH1 0x0 DUP1 REVERT JUMPDEST PUSH32 0x63616C6C6572206D75737420626520746865206F776E65720000000000000000 PUSH1 0x0 DUP3 ADD MSTORE POP JUMP JUMPDEST PUSH32 0x596F7520617265206E6F7420746865206F776E65720000000000000000000000 PUSH1 0x0 DUP3 ADD MSTORE POP JUMP JUMPDEST PUSH32 0x4F6E6C79206F776E65722063616E2070617573652074686520636F6E74726163 PUSH1 0x0 DUP3 ADD MSTORE PUSH32 0x7400000000000000000000000000000000000000000000000000000000000000 PUSH1 0x20 DUP3 ADD MSTORE POP JUMP JUMPDEST PUSH32 0x66756E64732063616E6E6F74206265206C657373207468616E20300000000000 PUSH1 0x0 DUP3 ADD MSTORE POP JUMP JUMPDEST PUSH32 0x616D6F756E742063616E6E6F7420626520300000000000000000000000000000 PUSH1 0x0 DUP3 ADD MSTORE POP JUMP JUMPDEST PUSH32 0x5573657220426C6F636B65642100000000000000000000000000000000000000 PUSH1 0x0 DUP3 ADD MSTORE POP JUMP JUMPDEST PUSH32 0x4F6E6C79206F776E65722063616E20626C6F636B207468652075736572000000 PUSH1 0x0 DUP3 ADD MSTORE POP JUMP JUMPDEST PUSH32 0x436F6E7472616374205061757365640000000000000000000000000000000000 PUSH1 0x0 DUP3 ADD MSTORE POP JUMP JUMPDEST PUSH2 0x1592 DUP2 PUSH2 0x12F8 JUMP JUMPDEST DUP2 EQ PUSH2 0x159D JUMPI PUSH1 0x0 DUP1 REVERT JUMPDEST POP JUMP JUMPDEST PUSH2 0x15A9 DUP2 PUSH2 0x130A JUMP JUMPDEST DUP2 EQ PUSH2 0x15B4 JUMPI PUSH1 0x0 DUP1 REVERT JUMPDEST POP JUMP JUMPDEST PUSH2 0x15C0 DUP2 PUSH2 0x1336 JUMP JUMPDEST DUP2 EQ PUSH2 0x15CB JUMPI PUSH1 0x0 DUP1 REVERT JUMPDEST POP JUMP INVALID LOG2 PUSH5 0x6970667358 0x22 SLT KECCAK256 TIMESTAMP 0xC3 0xE9 KECCAK256 0xBA 0xF9 PUSH26 0xACDA46AE03DB13593E1F4309E342A5F04D282DD2E2379D7ABA64 PUSH20 0x6F6C634300080700330000000000000000000000 "
				},
				"gasEstimates": {
					"creation": {
						"codeDepositCost": "1127200",
						"executionCost": "25440",
						"totalCost": "1152640"
					},
					"external": {
						"blockUser()": "2545",
						"funds(address,uint256)": "infinite",
						"hasStaked(address)": "2933",
						"isStaking(address)": "2912",
						"issueRewards()": "infinite",
						"owner()": "2555",
						"pauseContract()": "4888",
						"paused()": "2566",
						"reward()": "2474",
						"setBlockUser(bool)": "26985",
						"setPaused(bool)": "26942",
						"stakeToken()": "infinite",
						"totalAmount()": "2497",
						"treasuryWallet()": "2518",
						"unstakeToken()": "infinite"
					}
				},
				"methodIdentifiers": {
					"blockUser()": "021a89ad",
					"funds(address,uint256)": "88b22c24",
					"hasStaked(address)": "c93c8f34",
					"isStaking(address)": "6f49712b",
					"issueRewards()": "b0370e0c",
					"owner()": "8da5cb5b",
					"pauseContract()": "439766ce",
					"paused()": "5c975abb",
					"reward()": "228cb733",
					"setBlockUser(bool)": "75c96c5d",
					"setPaused(bool)": "16c38b3c",
					"stakeToken()": "51ed6a30",
					"totalAmount()": "1a39d8ef",
					"treasuryWallet()": "4626402b",
					"unstakeToken()": "20eb640c"
				}
			},
			"storageLayout": {
				"storage": [
					{
						"astId": 3,
						"contract": "contracts/staking.sol:App",
						"label": "owner",
						"offset": 0,
						"slot": "0",
						"type": "t_address"
					},
					{
						"astId": 5,
						"contract": "contracts/staking.sol:App",
						"label": "paused",
						"offset": 20,
						"slot": "0",
						"type": "t_bool"
					},
					{
						"astId": 7,
						"contract": "contracts/staking.sol:App",
						"label": "blockUser",
						"offset": 21,
						"slot": "0",
						"type": "t_bool"
					},
					{
						"astId": 9,
						"contract": "contracts/staking.sol:App",
						"label": "treasuryWallet",
						"offset": 0,
						"slot": "1",
						"type": "t_uint256"
					},
					{
						"astId": 17,
						"contract": "contracts/staking.sol:App",
						"label": "userFunds",
						"offset": 0,
						"slot": "2",
						"type": "t_struct(Stakers)14_storage"
					},
					{
						"astId": 23,
						"contract": "contracts/staking.sol:App",
						"label": "funds",
						"offset": 0,
						"slot": "4",
						"type": "t_mapping(t_address,t_array(t_struct(Stakers)14_storage)dyn_storage)"
					},
					{
						"astId": 27,
						"contract": "contracts/staking.sol:App",
						"label": "hasStaked",
						"offset": 0,
						"slot": "5",
						"type": "t_mapping(t_address,t_bool)"
					},
					{
						"astId": 31,
						"contract": "contracts/staking.sol:App",
						"label": "isStaking",
						"offset": 0,
						"slot": "6",
						"type": "t_mapping(t_address,t_bool)"
					},
					{
						"astId": 195,
						"contract": "contracts/staking.sol:App",
						"label": "reward",
						"offset": 0,
						"slot": "7",
						"type": "t_uint256"
					},
					{
						"astId": 197,
						"contract": "contracts/staking.sol:App",
						"label": "totalAmount",
						"offset": 0,
						"slot": "8",
						"type": "t_uint256"
					}
				],
				"types": {
					"t_address": {
						"encoding": "inplace",
						"label": "address",
						"numberOfBytes": "20"
					},
					"t_array(t_struct(Stakers)14_storage)dyn_storage": {
						"base": "t_struct(Stakers)14_storage",
						"encoding": "dynamic_array",
						"label": "struct App.Stakers[]",
						"numberOfBytes": "32"
					},
					"t_bool": {
						"encoding": "inplace",
						"label": "bool",
						"numberOfBytes": "1"
					},
					"t_mapping(t_address,t_array(t_struct(Stakers)14_storage)dyn_storage)": {
						"encoding": "mapping",
						"key": "t_address",
						"label": "mapping(address => struct App.Stakers[])",
						"numberOfBytes": "32",
						"value": "t_array(t_struct(Stakers)14_storage)dyn_storage"
					},
					"t_mapping(t_address,t_bool)": {
						"encoding": "mapping",
						"key": "t_address",
						"label": "mapping(address => bool)",
						"numberOfBytes": "32",
						"value": "t_bool"
					},
					"t_struct(Stakers)14_storage": {
						"encoding": "inplace",
						"label": "struct App.Stakers",
						"members": [
							{
								"astId": 11,
								"contract": "contracts/staking.sol:App",
								"label": "amount",
								"offset": 0,
								"slot": "0",
								"type": "t_uint256"
							},
							{
								"astId": 13,
								"contract": "contracts/staking.sol:App",
								"label": "since",
								"offset": 0,
								"slot": "1",
								"type": "t_uint256"
							}
						],
						"numberOfBytes": "64"
					},
					"t_uint256": {
						"encoding": "inplace",
						"label": "uint256",
						"numberOfBytes": "32"
					}
				}
			},
			"userdoc": {
				"kind": "user",
				"methods": {},
				"version": 1
			}
		}
	}
}