{
	"contracts/staking.sol": {
		"App": {
			"abi": [
				{
					"inputs": [],
					"stateMutability": "nonpayable",
					"type": "constructor"
				},
				{
					"inputs": [],
					"name": "blockUser",
					"outputs": [
						{
							"internalType": "bool",
							"name": "",
							"type": "bool"
						}
					],
					"stateMutability": "view",
					"type": "function"
				},
				{
					"inputs": [
						{
							"internalType": "address",
							"name": "",
							"type": "address"
						},
						{
							"internalType": "uint256",
							"name": "",
							"type": "uint256"
						}
					],
					"name": "funds",
					"outputs": [
						{
							"internalType": "uint256",
							"name": "amount",
							"type": "uint256"
						},
						{
							"internalType": "uint256",
							"name": "since",
							"type": "uint256"
						},
						{
							"internalType": "uint256",
							"name": "lastWithdraw",
							"type": "uint256"
						}
					],
					"stateMutability": "view",
					"type": "function"
				},
				{
					"inputs": [
						{
							"internalType": "address",
							"name": "",
							"type": "address"
						}
					],
					"name": "hasStaked",
					"outputs": [
						{
							"internalType": "bool",
							"name": "",
							"type": "bool"
						}
					],
					"stateMutability": "view",
					"type": "function"
				},
				{
					"inputs": [
						{
							"internalType": "address",
							"name": "",
							"type": "address"
						}
					],
					"name": "isStaking",
					"outputs": [
						{
							"internalType": "bool",
							"name": "",
							"type": "bool"
						}
					],
					"stateMutability": "view",
					"type": "function"
				},
				{
					"inputs": [],
					"name": "issueRewards",
					"outputs": [],
					"stateMutability": "payable",
					"type": "function"
				},
				{
					"inputs": [],
					"name": "owner",
					"outputs": [
						{
							"internalType": "address",
							"name": "",
							"type": "address"
						}
					],
					"stateMutability": "view",
					"type": "function"
				},
				{
					"inputs": [],
					"name": "pauseContract",
					"outputs": [],
					"stateMutability": "view",
					"type": "function"
				},
				{
					"inputs": [],
					"name": "paused",
					"outputs": [
						{
							"internalType": "bool",
							"name": "",
							"type": "bool"
						}
					],
					"stateMutability": "view",
					"type": "function"
				},
				{
					"inputs": [],
					"name": "reward",
					"outputs": [
						{
							"internalType": "uint256",
							"name": "",
							"type": "uint256"
						}
					],
					"stateMutability": "view",
					"type": "function"
				},
				{
					"inputs": [
						{
							"internalType": "bool",
							"name": "_blockUser",
							"type": "bool"
						}
					],
					"name": "setBlockUser",
					"outputs": [],
					"stateMutability": "nonpayable",
					"type": "function"
				},
				{
					"inputs": [
						{
							"internalType": "bool",
							"name": "_paused",
							"type": "bool"
						}
					],
					"name": "setPaused",
					"outputs": [],
					"stateMutability": "nonpayable",
					"type": "function"
				},
				{
					"inputs": [],
					"name": "stakeToken",
					"outputs": [],
					"stateMutability": "payable",
					"type": "function"
				},
				{
					"inputs": [],
					"name": "totalAmount",
					"outputs": [
						{
							"internalType": "uint256",
							"name": "",
							"type": "uint256"
						}
					],
					"stateMutability": "view",
					"type": "function"
				},
				{
					"inputs": [],
					"name": "treasuryWallet",
					"outputs": [
						{
							"internalType": "uint256",
							"name": "",
							"type": "uint256"
						}
					],
					"stateMutability": "view",
					"type": "function"
				},
				{
					"inputs": [],
					"name": "unstakeToken",
					"outputs": [],
					"stateMutability": "payable",
					"type": "function"
				},
				{
					"inputs": [],
					"name": "withdrawTax",
					"outputs": [],
					"stateMutability": "nonpayable",
					"type": "function"
				}
			],
			"devdoc": {
				"kind": "dev",
				"methods": {},
				"version": 1
			},
			"evm": {
				"assembly": "    /* \"contracts/staking.sol\":68:3298  contract App{\r... */\n  mstore(0x40, 0x80)\n    /* \"contracts/staking.sol\":475:534  constructor() public{\r... */\n  callvalue\n  dup1\n  iszero\n  tag_1\n  jumpi\n  0x00\n  dup1\n  revert\ntag_1:\n  pop\n    /* \"contracts/staking.sol\":514:524  msg.sender */\n  caller\n    /* \"contracts/staking.sol\":506:511  owner */\n  0x00\n  dup1\n    /* \"contracts/staking.sol\":506:524  owner = msg.sender */\n  0x0100\n  exp\n  dup2\n  sload\n  dup2\n  0xffffffffffffffffffffffffffffffffffffffff\n  mul\n  not\n  and\n  swap1\n  dup4\n  0xffffffffffffffffffffffffffffffffffffffff\n  and\n  mul\n  or\n  swap1\n  sstore\n  pop\n    /* \"contracts/staking.sol\":68:3298  contract App{\r... */\n  dataSize(sub_0)\n  dup1\n  dataOffset(sub_0)\n  0x00\n  codecopy\n  0x00\n  return\nstop\n\nsub_0: assembly {\n        /* \"contracts/staking.sol\":68:3298  contract App{\r... */\n      mstore(0x40, 0x80)\n      jumpi(tag_1, lt(calldatasize, 0x04))\n      shr(0xe0, calldataload(0x00))\n      dup1\n      0x5c975abb\n      gt\n      tag_18\n      jumpi\n      dup1\n      0x8da5cb5b\n      gt\n      tag_19\n      jumpi\n      dup1\n      0x8da5cb5b\n      eq\n      tag_14\n      jumpi\n      dup1\n      0xb0370e0c\n      eq\n      tag_15\n      jumpi\n      dup1\n      0xc93c8f34\n      eq\n      tag_16\n      jumpi\n      dup1\n      0xdfa20f0a\n      eq\n      tag_17\n      jumpi\n      jump(tag_1)\n    tag_19:\n      dup1\n      0x5c975abb\n      eq\n      tag_10\n      jumpi\n      dup1\n      0x6f49712b\n      eq\n      tag_11\n      jumpi\n      dup1\n      0x75c96c5d\n      eq\n      tag_12\n      jumpi\n      dup1\n      0x88b22c24\n      eq\n      tag_13\n      jumpi\n      jump(tag_1)\n    tag_18:\n      dup1\n      0x228cb733\n      gt\n      tag_20\n      jumpi\n      dup1\n      0x228cb733\n      eq\n      tag_6\n      jumpi\n      dup1\n      0x439766ce\n      eq\n      tag_7\n      jumpi\n      dup1\n      0x4626402b\n      eq\n      tag_8\n      jumpi\n      dup1\n      0x51ed6a30\n      eq\n      tag_9\n      jumpi\n      jump(tag_1)\n    tag_20:\n      dup1\n      0x021a89ad\n      eq\n      tag_2\n      jumpi\n      dup1\n      0x16c38b3c\n      eq\n      tag_3\n      jumpi\n      dup1\n      0x1a39d8ef\n      eq\n      tag_4\n      jumpi\n      dup1\n      0x20eb640c\n      eq\n      tag_5\n      jumpi\n    tag_1:\n      0x00\n      dup1\n      revert\n        /* \"contracts/staking.sol\":139:160  bool public blockUser */\n    tag_2:\n      callvalue\n      dup1\n      iszero\n      tag_21\n      jumpi\n      0x00\n      dup1\n      revert\n    tag_21:\n      pop\n      tag_22\n      tag_23\n      jump\t// in\n    tag_22:\n      mload(0x40)\n      tag_24\n      swap2\n      swap1\n      tag_25\n      jump\t// in\n    tag_24:\n      mload(0x40)\n      dup1\n      swap2\n      sub\n      swap1\n      return\n        /* \"contracts/staking.sol\":2548:2687  function setPaused(bool _paused) public {\r... */\n    tag_3:\n      callvalue\n      dup1\n      iszero\n      tag_26\n      jumpi\n      0x00\n      dup1\n      revert\n    tag_26:\n      pop\n      tag_27\n      0x04\n      dup1\n      calldatasize\n      sub\n      dup2\n      add\n      swap1\n      tag_28\n      swap2\n      swap1\n      tag_29\n      jump\t// in\n    tag_28:\n      tag_30\n      jump\t// in\n    tag_27:\n      stop\n        /* \"contracts/staking.sol\":1706:1729  uint public totalAmount */\n    tag_4:\n      callvalue\n      dup1\n      iszero\n      tag_31\n      jumpi\n      0x00\n      dup1\n      revert\n    tag_31:\n      pop\n      tag_32\n      tag_33\n      jump\t// in\n    tag_32:\n      mload(0x40)\n      tag_34\n      swap2\n      swap1\n      tag_35\n      jump\t// in\n    tag_34:\n      mload(0x40)\n      dup1\n      swap2\n      sub\n      swap1\n      return\n        /* \"contracts/staking.sol\":1092:1647  function unstakeToken() payable public{\r... */\n    tag_5:\n      tag_36\n      tag_37\n      jump\t// in\n    tag_36:\n      stop\n        /* \"contracts/staking.sol\":1681:1699  uint public reward */\n    tag_6:\n      callvalue\n      dup1\n      iszero\n      tag_38\n      jumpi\n      0x00\n      dup1\n      revert\n    tag_38:\n      pop\n      tag_39\n      tag_40\n      jump\t// in\n    tag_39:\n      mload(0x40)\n      tag_41\n      swap2\n      swap1\n      tag_35\n      jump\t// in\n    tag_41:\n      mload(0x40)\n      dup1\n      swap2\n      sub\n      swap1\n      return\n        /* \"contracts/staking.sol\":2695:2879  function pauseContract() public view{\r... */\n    tag_7:\n      callvalue\n      dup1\n      iszero\n      tag_42\n      jumpi\n      0x00\n      dup1\n      revert\n    tag_42:\n      pop\n      tag_43\n      tag_44\n      jump\t// in\n    tag_43:\n      stop\n        /* \"contracts/staking.sol\":167:193  uint public treasuryWallet */\n    tag_8:\n      callvalue\n      dup1\n      iszero\n      tag_45\n      jumpi\n      0x00\n      dup1\n      revert\n    tag_45:\n      pop\n      tag_46\n      tag_47\n      jump\t// in\n    tag_46:\n      mload(0x40)\n      tag_48\n      swap2\n      swap1\n      tag_35\n      jump\t// in\n    tag_48:\n      mload(0x40)\n      dup1\n      swap2\n      sub\n      swap1\n      return\n        /* \"contracts/staking.sol\":567:1060  function stakeToken() payable public {\r... */\n    tag_9:\n      tag_49\n      tag_50\n      jump\t// in\n    tag_49:\n      stop\n        /* \"contracts/staking.sol\":114:132  bool public paused */\n    tag_10:\n      callvalue\n      dup1\n      iszero\n      tag_51\n      jumpi\n      0x00\n      dup1\n      revert\n    tag_51:\n      pop\n      tag_52\n      tag_53\n      jump\t// in\n    tag_52:\n      mload(0x40)\n      tag_54\n      swap2\n      swap1\n      tag_25\n      jump\t// in\n    tag_54:\n      mload(0x40)\n      dup1\n      swap2\n      sub\n      swap1\n      return\n        /* \"contracts/staking.sol\":425:466  mapping(address => bool) public isStaking */\n    tag_11:\n      callvalue\n      dup1\n      iszero\n      tag_55\n      jumpi\n      0x00\n      dup1\n      revert\n    tag_55:\n      pop\n      tag_56\n      0x04\n      dup1\n      calldatasize\n      sub\n      dup2\n      add\n      swap1\n      tag_57\n      swap2\n      swap1\n      tag_58\n      jump\t// in\n    tag_57:\n      tag_59\n      jump\t// in\n    tag_56:\n      mload(0x40)\n      tag_60\n      swap2\n      swap1\n      tag_25\n      jump\t// in\n    tag_60:\n      mload(0x40)\n      dup1\n      swap2\n      sub\n      swap1\n      return\n        /* \"contracts/staking.sol\":3133:3292  function setBlockUser(bool _blockUser) public {\r... */\n    tag_12:\n      callvalue\n      dup1\n      iszero\n      tag_61\n      jumpi\n      0x00\n      dup1\n      revert\n    tag_61:\n      pop\n      tag_62\n      0x04\n      dup1\n      calldatasize\n      sub\n      dup2\n      add\n      swap1\n      tag_63\n      swap2\n      swap1\n      tag_29\n      jump\t// in\n    tag_63:\n      tag_64\n      jump\t// in\n    tag_62:\n      stop\n        /* \"contracts/staking.sol\":328:370  mapping(address => Stakers[]) public funds */\n    tag_13:\n      callvalue\n      dup1\n      iszero\n      tag_65\n      jumpi\n      0x00\n      dup1\n      revert\n    tag_65:\n      pop\n      tag_66\n      0x04\n      dup1\n      calldatasize\n      sub\n      dup2\n      add\n      swap1\n      tag_67\n      swap2\n      swap1\n      tag_68\n      jump\t// in\n    tag_67:\n      tag_69\n      jump\t// in\n    tag_66:\n      mload(0x40)\n      tag_70\n      swap4\n      swap3\n      swap2\n      swap1\n      tag_71\n      jump\t// in\n    tag_70:\n      mload(0x40)\n      dup1\n      swap2\n      sub\n      swap1\n      return\n        /* \"contracts/staking.sol\":87:107  address public owner */\n    tag_14:\n      callvalue\n      dup1\n      iszero\n      tag_72\n      jumpi\n      0x00\n      dup1\n      revert\n    tag_72:\n      pop\n      tag_73\n      tag_74\n      jump\t// in\n    tag_73:\n      mload(0x40)\n      tag_75\n      swap2\n      swap1\n      tag_76\n      jump\t// in\n    tag_75:\n      mload(0x40)\n      dup1\n      swap2\n      sub\n      swap1\n      return\n        /* \"contracts/staking.sol\":1738:2511  function issueRewards() payable public{\r... */\n    tag_15:\n      tag_77\n      tag_78\n      jump\t// in\n    tag_77:\n      stop\n        /* \"contracts/staking.sol\":377:418  mapping(address => bool) public hasStaked */\n    tag_16:\n      callvalue\n      dup1\n      iszero\n      tag_79\n      jumpi\n      0x00\n      dup1\n      revert\n    tag_79:\n      pop\n      tag_80\n      0x04\n      dup1\n      calldatasize\n      sub\n      dup2\n      add\n      swap1\n      tag_81\n      swap2\n      swap1\n      tag_58\n      jump\t// in\n    tag_81:\n      tag_82\n      jump\t// in\n    tag_80:\n      mload(0x40)\n      tag_83\n      swap2\n      swap1\n      tag_25\n      jump\t// in\n    tag_83:\n      mload(0x40)\n      dup1\n      swap2\n      sub\n      swap1\n      return\n        /* \"contracts/staking.sol\":2887:3096  function withdrawTax() public{\r... */\n    tag_17:\n      callvalue\n      dup1\n      iszero\n      tag_84\n      jumpi\n      0x00\n      dup1\n      revert\n    tag_84:\n      pop\n      tag_85\n      tag_86\n      jump\t// in\n    tag_85:\n      stop\n        /* \"contracts/staking.sol\":139:160  bool public blockUser */\n    tag_23:\n      0x00\n      0x15\n      swap1\n      sload\n      swap1\n      0x0100\n      exp\n      swap1\n      div\n      0xff\n      and\n      dup2\n      jump\t// out\n        /* \"contracts/staking.sol\":2548:2687  function setPaused(bool _paused) public {\r... */\n    tag_30:\n        /* \"contracts/staking.sol\":2621:2626  owner */\n      0x00\n      dup1\n      sload\n      swap1\n      0x0100\n      exp\n      swap1\n      div\n      0xffffffffffffffffffffffffffffffffffffffff\n      and\n        /* \"contracts/staking.sol\":2607:2626  msg.sender == owner */\n      0xffffffffffffffffffffffffffffffffffffffff\n      and\n        /* \"contracts/staking.sol\":2607:2617  msg.sender */\n      caller\n        /* \"contracts/staking.sol\":2607:2626  msg.sender == owner */\n      0xffffffffffffffffffffffffffffffffffffffff\n      and\n      eq\n        /* \"contracts/staking.sol\":2599:2652  require(msg.sender == owner, \"You are not the owner\") */\n      tag_88\n      jumpi\n      mload(0x40)\n      0x08c379a000000000000000000000000000000000000000000000000000000000\n      dup2\n      mstore\n      0x04\n      add\n      tag_89\n      swap1\n      tag_90\n      jump\t// in\n    tag_89:\n      mload(0x40)\n      dup1\n      swap2\n      sub\n      swap1\n      revert\n    tag_88:\n        /* \"contracts/staking.sol\":2672:2679  _paused */\n      dup1\n        /* \"contracts/staking.sol\":2663:2669  paused */\n      0x00\n      0x14\n        /* \"contracts/staking.sol\":2663:2679  paused = _paused */\n      0x0100\n      exp\n      dup2\n      sload\n      dup2\n      0xff\n      mul\n      not\n      and\n      swap1\n      dup4\n      iszero\n      iszero\n      mul\n      or\n      swap1\n      sstore\n      pop\n        /* \"contracts/staking.sol\":2548:2687  function setPaused(bool _paused) public {\r... */\n      pop\n      jump\t// out\n        /* \"contracts/staking.sol\":1706:1729  uint public totalAmount */\n    tag_33:\n      sload(0x09)\n      dup2\n      jump\t// out\n        /* \"contracts/staking.sol\":1092:1647  function unstakeToken() payable public{\r... */\n    tag_37:\n        /* \"contracts/staking.sol\":1178:1179  0 */\n      0x00\n        /* \"contracts/staking.sol\":1159:1168  userFunds */\n      0x02\n        /* \"contracts/staking.sol\":1159:1175  userFunds.amount */\n      0x00\n      add\n      sload\n        /* \"contracts/staking.sol\":1159:1179  userFunds.amount > 0 */\n      gt\n        /* \"contracts/staking.sol\":1151:1211  require(userFunds.amount > 0, \"funds cannot be less than 0\") */\n      tag_92\n      jumpi\n      mload(0x40)\n      0x08c379a000000000000000000000000000000000000000000000000000000000\n      dup2\n      mstore\n      0x04\n      add\n      tag_93\n      swap1\n      tag_94\n      jump\t// in\n    tag_93:\n      mload(0x40)\n      dup1\n      swap2\n      sub\n      swap1\n      revert\n    tag_92:\n        /* \"contracts/staking.sol\":1510:1520  msg.sender */\n      caller\n        /* \"contracts/staking.sol\":1502:1530  payable(msg.sender).transfer */\n      0xffffffffffffffffffffffffffffffffffffffff\n      and\n        /* \"contracts/staking.sol\":1502:1543  payable(msg.sender).transfer(totalAmount) */\n      0x08fc\n        /* \"contracts/staking.sol\":1531:1542  totalAmount */\n      sload(0x09)\n        /* \"contracts/staking.sol\":1502:1543  payable(msg.sender).transfer(totalAmount) */\n      swap1\n      dup2\n      iszero\n      mul\n      swap1\n      mload(0x40)\n      0x00\n      mload(0x40)\n      dup1\n      dup4\n      sub\n      dup2\n      dup6\n      dup9\n      dup9\n      call\n      swap4\n      pop\n      pop\n      pop\n      pop\n      iszero\n      dup1\n      iszero\n      tag_96\n      jumpi\n      returndatasize\n      0x00\n      dup1\n      returndatacopy\n      revert(0x00, returndatasize)\n    tag_96:\n      pop\n        /* \"contracts/staking.sol\":1594:1595  0 */\n      0x00\n        /* \"contracts/staking.sol\":1564:1569  funds */\n      0x05\n        /* \"contracts/staking.sol\":1564:1581  funds[msg.sender] */\n      0x00\n        /* \"contracts/staking.sol\":1570:1580  msg.sender */\n      caller\n        /* \"contracts/staking.sol\":1564:1581  funds[msg.sender] */\n      0xffffffffffffffffffffffffffffffffffffffff\n      and\n      0xffffffffffffffffffffffffffffffffffffffff\n      and\n      dup2\n      mstore\n      0x20\n      add\n      swap1\n      dup2\n      mstore\n      0x20\n      add\n      0x00\n      keccak256\n        /* \"contracts/staking.sol\":1582:1583  0 */\n      0x00\n        /* \"contracts/staking.sol\":1564:1584  funds[msg.sender][0] */\n      dup2\n      sload\n      dup2\n      lt\n      tag_97\n      jumpi\n      tag_98\n      tag_99\n      jump\t// in\n    tag_98:\n    tag_97:\n      swap1\n      0x00\n      mstore\n      keccak256(0x00, 0x20)\n      swap1\n      0x03\n      mul\n      add\n        /* \"contracts/staking.sol\":1564:1591  funds[msg.sender][0].amount */\n      0x00\n      add\n        /* \"contracts/staking.sol\":1564:1595  funds[msg.sender][0].amount = 0 */\n      dup2\n      swap1\n      sstore\n      pop\n        /* \"contracts/staking.sol\":1632:1637  false */\n      0x00\n        /* \"contracts/staking.sol\":1608:1617  isStaking */\n      0x07\n        /* \"contracts/staking.sol\":1608:1629  isStaking[msg.sender] */\n      0x00\n        /* \"contracts/staking.sol\":1618:1628  msg.sender */\n      caller\n        /* \"contracts/staking.sol\":1608:1629  isStaking[msg.sender] */\n      0xffffffffffffffffffffffffffffffffffffffff\n      and\n      0xffffffffffffffffffffffffffffffffffffffff\n      and\n      dup2\n      mstore\n      0x20\n      add\n      swap1\n      dup2\n      mstore\n      0x20\n      add\n      0x00\n      keccak256\n      0x00\n        /* \"contracts/staking.sol\":1608:1637  isStaking[msg.sender] = false */\n      0x0100\n      exp\n      dup2\n      sload\n      dup2\n      0xff\n      mul\n      not\n      and\n      swap1\n      dup4\n      iszero\n      iszero\n      mul\n      or\n      swap1\n      sstore\n      pop\n        /* \"contracts/staking.sol\":1092:1647  function unstakeToken() payable public{\r... */\n      jump\t// out\n        /* \"contracts/staking.sol\":1681:1699  uint public reward */\n    tag_40:\n      sload(0x08)\n      dup2\n      jump\t// out\n        /* \"contracts/staking.sol\":2695:2879  function pauseContract() public view{\r... */\n    tag_44:\n        /* \"contracts/staking.sol\":2764:2769  owner */\n      0x00\n      dup1\n      sload\n      swap1\n      0x0100\n      exp\n      swap1\n      div\n      0xffffffffffffffffffffffffffffffffffffffff\n      and\n        /* \"contracts/staking.sol\":2750:2769  msg.sender == owner */\n      0xffffffffffffffffffffffffffffffffffffffff\n      and\n        /* \"contracts/staking.sol\":2750:2760  msg.sender */\n      caller\n        /* \"contracts/staking.sol\":2750:2769  msg.sender == owner */\n      0xffffffffffffffffffffffffffffffffffffffff\n      and\n      eq\n        /* \"contracts/staking.sol\":2742:2807  require(msg.sender == owner, \"Only owner can pause the contract\") */\n      tag_102\n      jumpi\n      mload(0x40)\n      0x08c379a000000000000000000000000000000000000000000000000000000000\n      dup2\n      mstore\n      0x04\n      add\n      tag_103\n      swap1\n      tag_104\n      jump\t// in\n    tag_103:\n      mload(0x40)\n      dup1\n      swap2\n      sub\n      swap1\n      revert\n    tag_102:\n        /* \"contracts/staking.sol\":2836:2841  false */\n      0x00\n        /* \"contracts/staking.sol\":2826:2841  paused == false */\n      iszero\n      iszero\n        /* \"contracts/staking.sol\":2826:2832  paused */\n      0x00\n      0x14\n      swap1\n      sload\n      swap1\n      0x0100\n      exp\n      swap1\n      div\n      0xff\n      and\n        /* \"contracts/staking.sol\":2826:2841  paused == false */\n      iszero\n      iszero\n      eq\n        /* \"contracts/staking.sol\":2818:2861  require(paused == false, \"Contract Paused\") */\n      tag_105\n      jumpi\n      mload(0x40)\n      0x08c379a000000000000000000000000000000000000000000000000000000000\n      dup2\n      mstore\n      0x04\n      add\n      tag_106\n      swap1\n      tag_107\n      jump\t// in\n    tag_106:\n      mload(0x40)\n      dup1\n      swap2\n      sub\n      swap1\n      revert\n    tag_105:\n        /* \"contracts/staking.sol\":2695:2879  function pauseContract() public view{\r... */\n      jump\t// out\n        /* \"contracts/staking.sol\":167:193  uint public treasuryWallet */\n    tag_47:\n      sload(0x01)\n      dup2\n      jump\t// out\n        /* \"contracts/staking.sol\":567:1060  function stakeToken() payable public {\r... */\n    tag_50:\n        /* \"contracts/staking.sol\":641:642  0 */\n      0x00\n        /* \"contracts/staking.sol\":629:638  msg.value */\n      callvalue\n        /* \"contracts/staking.sol\":629:642  msg.value > 0 */\n      gt\n        /* \"contracts/staking.sol\":621:665  require(msg.value > 0, \"amount cannot be 0\") */\n      tag_109\n      jumpi\n      mload(0x40)\n      0x08c379a000000000000000000000000000000000000000000000000000000000\n      dup2\n      mstore\n      0x04\n      add\n      tag_110\n      swap1\n      tag_111\n      jump\t// in\n    tag_110:\n      mload(0x40)\n      dup1\n      swap2\n      sub\n      swap1\n      revert\n    tag_109:\n        /* \"contracts/staking.sol\":697:702  false */\n      0x00\n        /* \"contracts/staking.sol\":684:702  blockUser == false */\n      iszero\n      iszero\n        /* \"contracts/staking.sol\":684:693  blockUser */\n      0x00\n      0x15\n      swap1\n      sload\n      swap1\n      0x0100\n      exp\n      swap1\n      div\n      0xff\n      and\n        /* \"contracts/staking.sol\":684:702  blockUser == false */\n      iszero\n      iszero\n      eq\n        /* \"contracts/staking.sol\":676:720  require(blockUser == false, \"User Blocked!\") */\n      tag_112\n      jumpi\n      mload(0x40)\n      0x08c379a000000000000000000000000000000000000000000000000000000000\n      dup2\n      mstore\n      0x04\n      add\n      tag_113\n      swap1\n      tag_114\n      jump\t// in\n    tag_113:\n      mload(0x40)\n      dup1\n      swap2\n      sub\n      swap1\n      revert\n    tag_112:\n        /* \"contracts/staking.sol\":750:759  msg.value */\n      callvalue\n        /* \"contracts/staking.sol\":731:740  userFunds */\n      0x02\n        /* \"contracts/staking.sol\":731:747  userFunds.amount */\n      0x00\n      add\n        /* \"contracts/staking.sol\":731:759  userFunds.amount = msg.value */\n      dup2\n      swap1\n      sstore\n      pop\n        /* \"contracts/staking.sol\":788:803  block.timestamp */\n      timestamp\n        /* \"contracts/staking.sol\":770:779  userFunds */\n      0x02\n        /* \"contracts/staking.sol\":770:785  userFunds.since */\n      0x01\n      add\n        /* \"contracts/staking.sol\":770:803  userFunds.since = block.timestamp */\n      dup2\n      swap1\n      sstore\n      pop\n        /* \"contracts/staking.sol\":816:821  funds */\n      0x05\n        /* \"contracts/staking.sol\":816:833  funds[msg.sender] */\n      0x00\n        /* \"contracts/staking.sol\":822:832  msg.sender */\n      caller\n        /* \"contracts/staking.sol\":816:833  funds[msg.sender] */\n      0xffffffffffffffffffffffffffffffffffffffff\n      and\n      0xffffffffffffffffffffffffffffffffffffffff\n      and\n      dup2\n      mstore\n      0x20\n      add\n      swap1\n      dup2\n      mstore\n      0x20\n      add\n      0x00\n      keccak256\n        /* \"contracts/staking.sol\":839:848  userFunds */\n      0x02\n        /* \"contracts/staking.sol\":816:849  funds[msg.sender].push(userFunds) */\n      swap1\n      dup1\n      0x01\n      dup2\n      sload\n      add\n      dup1\n      dup3\n      sstore\n      dup1\n      swap2\n      pop\n      pop\n      0x01\n      swap1\n      sub\n      swap1\n      0x00\n      mstore\n      keccak256(0x00, 0x20)\n      swap1\n      0x03\n      mul\n      add\n      0x00\n      swap1\n      swap2\n      swap1\n      swap2\n      swap1\n      swap2\n      pop\n      0x00\n      dup3\n      add\n      sload\n      dup2\n      0x00\n      add\n      sstore\n      0x01\n      dup3\n      add\n      sload\n      dup2\n      0x01\n      add\n      sstore\n      0x02\n      dup3\n      add\n      sload\n      dup2\n      0x02\n      add\n      sstore\n      pop\n      pop\n        /* \"contracts/staking.sol\":885:893  uint tax */\n      0x00\n        /* \"contracts/staking.sol\":919:922  100 */\n      0x64\n        /* \"contracts/staking.sol\":915:916  5 */\n      0x05\n        /* \"contracts/staking.sol\":896:905  userFunds */\n      0x02\n        /* \"contracts/staking.sol\":896:912  userFunds.amount */\n      0x00\n      add\n      sload\n        /* \"contracts/staking.sol\":896:916  userFunds.amount * 5 */\n      tag_116\n      swap2\n      swap1\n      tag_117\n      jump\t// in\n    tag_116:\n        /* \"contracts/staking.sol\":896:922  userFunds.amount * 5 / 100 */\n      tag_118\n      swap2\n      swap1\n      tag_119\n      jump\t// in\n    tag_118:\n        /* \"contracts/staking.sol\":885:922  uint tax = userFunds.amount * 5 / 100 */\n      swap1\n      pop\n        /* \"contracts/staking.sol\":969:972  tax */\n      dup1\n        /* \"contracts/staking.sol\":950:959  userFunds */\n      0x02\n        /* \"contracts/staking.sol\":950:966  userFunds.amount */\n      0x00\n      add\n      sload\n        /* \"contracts/staking.sol\":950:972  userFunds.amount + tax */\n      tag_120\n      swap2\n      swap1\n      tag_121\n      jump\t// in\n    tag_120:\n        /* \"contracts/staking.sol\":933:947  treasuryWallet */\n      0x01\n        /* \"contracts/staking.sol\":933:972  treasuryWallet = userFunds.amount + tax */\n      dup2\n      swap1\n      sstore\n      pop\n        /* \"contracts/staking.sol\":1009:1013  true */\n      0x01\n        /* \"contracts/staking.sol\":985:994  isStaking */\n      0x07\n        /* \"contracts/staking.sol\":985:1006  isStaking[msg.sender] */\n      0x00\n        /* \"contracts/staking.sol\":995:1005  msg.sender */\n      caller\n        /* \"contracts/staking.sol\":985:1006  isStaking[msg.sender] */\n      0xffffffffffffffffffffffffffffffffffffffff\n      and\n      0xffffffffffffffffffffffffffffffffffffffff\n      and\n      dup2\n      mstore\n      0x20\n      add\n      swap1\n      dup2\n      mstore\n      0x20\n      add\n      0x00\n      keccak256\n      0x00\n        /* \"contracts/staking.sol\":985:1013  isStaking[msg.sender] = true */\n      0x0100\n      exp\n      dup2\n      sload\n      dup2\n      0xff\n      mul\n      not\n      and\n      swap1\n      dup4\n      iszero\n      iszero\n      mul\n      or\n      swap1\n      sstore\n      pop\n        /* \"contracts/staking.sol\":1048:1052  true */\n      0x01\n        /* \"contracts/staking.sol\":1024:1033  hasStaked */\n      0x06\n        /* \"contracts/staking.sol\":1024:1045  hasStaked[msg.sender] */\n      0x00\n        /* \"contracts/staking.sol\":1034:1044  msg.sender */\n      caller\n        /* \"contracts/staking.sol\":1024:1045  hasStaked[msg.sender] */\n      0xffffffffffffffffffffffffffffffffffffffff\n      and\n      0xffffffffffffffffffffffffffffffffffffffff\n      and\n      dup2\n      mstore\n      0x20\n      add\n      swap1\n      dup2\n      mstore\n      0x20\n      add\n      0x00\n      keccak256\n      0x00\n        /* \"contracts/staking.sol\":1024:1052  hasStaked[msg.sender] = true */\n      0x0100\n      exp\n      dup2\n      sload\n      dup2\n      0xff\n      mul\n      not\n      and\n      swap1\n      dup4\n      iszero\n      iszero\n      mul\n      or\n      swap1\n      sstore\n      pop\n        /* \"contracts/staking.sol\":604:1060  {\r... */\n      pop\n        /* \"contracts/staking.sol\":567:1060  function stakeToken() payable public {\r... */\n      jump\t// out\n        /* \"contracts/staking.sol\":114:132  bool public paused */\n    tag_53:\n      0x00\n      0x14\n      swap1\n      sload\n      swap1\n      0x0100\n      exp\n      swap1\n      div\n      0xff\n      and\n      dup2\n      jump\t// out\n        /* \"contracts/staking.sol\":425:466  mapping(address => bool) public isStaking */\n    tag_59:\n      mstore(0x20, 0x07)\n      dup1\n      0x00\n      mstore\n      keccak256(0x00, 0x40)\n      0x00\n      swap2\n      pop\n      sload\n      swap1\n      0x0100\n      exp\n      swap1\n      div\n      0xff\n      and\n      dup2\n      jump\t// out\n        /* \"contracts/staking.sol\":3133:3292  function setBlockUser(bool _blockUser) public {\r... */\n    tag_64:\n        /* \"contracts/staking.sol\":3212:3217  owner */\n      0x00\n      dup1\n      sload\n      swap1\n      0x0100\n      exp\n      swap1\n      div\n      0xffffffffffffffffffffffffffffffffffffffff\n      and\n        /* \"contracts/staking.sol\":3198:3217  msg.sender == owner */\n      0xffffffffffffffffffffffffffffffffffffffff\n      and\n        /* \"contracts/staking.sol\":3198:3208  msg.sender */\n      caller\n        /* \"contracts/staking.sol\":3198:3217  msg.sender == owner */\n      0xffffffffffffffffffffffffffffffffffffffff\n      and\n      eq\n        /* \"contracts/staking.sol\":3190:3251  require(msg.sender == owner, \"Only owner can block the user\") */\n      tag_123\n      jumpi\n      mload(0x40)\n      0x08c379a000000000000000000000000000000000000000000000000000000000\n      dup2\n      mstore\n      0x04\n      add\n      tag_124\n      swap1\n      tag_125\n      jump\t// in\n    tag_124:\n      mload(0x40)\n      dup1\n      swap2\n      sub\n      swap1\n      revert\n    tag_123:\n        /* \"contracts/staking.sol\":3274:3284  _blockUser */\n      dup1\n        /* \"contracts/staking.sol\":3262:3271  blockUser */\n      0x00\n      0x15\n        /* \"contracts/staking.sol\":3262:3284  blockUser = _blockUser */\n      0x0100\n      exp\n      dup2\n      sload\n      dup2\n      0xff\n      mul\n      not\n      and\n      swap1\n      dup4\n      iszero\n      iszero\n      mul\n      or\n      swap1\n      sstore\n      pop\n        /* \"contracts/staking.sol\":3133:3292  function setBlockUser(bool _blockUser) public {\r... */\n      pop\n      jump\t// out\n        /* \"contracts/staking.sol\":328:370  mapping(address => Stakers[]) public funds */\n    tag_69:\n      mstore(0x20, 0x05)\n      dup2\n      0x00\n      mstore\n      keccak256(0x00, 0x40)\n      dup2\n      dup2\n      sload\n      dup2\n      lt\n      tag_126\n      jumpi\n      0x00\n      dup1\n      revert\n    tag_126:\n      swap1\n      0x00\n      mstore\n      keccak256(0x00, 0x20)\n      swap1\n      0x03\n      mul\n      add\n      0x00\n      swap2\n      pop\n      swap2\n      pop\n      pop\n      dup1\n      0x00\n      add\n      sload\n      swap1\n      dup1\n      0x01\n      add\n      sload\n      swap1\n      dup1\n      0x02\n      add\n      sload\n      swap1\n      pop\n      dup4\n      jump\t// out\n        /* \"contracts/staking.sol\":87:107  address public owner */\n    tag_74:\n      0x00\n      dup1\n      sload\n      swap1\n      0x0100\n      exp\n      swap1\n      div\n      0xffffffffffffffffffffffffffffffffffffffff\n      and\n      dup2\n      jump\t// out\n        /* \"contracts/staking.sol\":1738:2511  function issueRewards() payable public{\r... */\n    tag_78:\n        /* \"contracts/staking.sol\":1809:1814  owner */\n      0x00\n      dup1\n      sload\n      swap1\n      0x0100\n      exp\n      swap1\n      div\n      0xffffffffffffffffffffffffffffffffffffffff\n      and\n        /* \"contracts/staking.sol\":1795:1814  msg.sender == owner */\n      0xffffffffffffffffffffffffffffffffffffffff\n      and\n        /* \"contracts/staking.sol\":1795:1805  msg.sender */\n      caller\n        /* \"contracts/staking.sol\":1795:1814  msg.sender == owner */\n      0xffffffffffffffffffffffffffffffffffffffff\n      and\n      eq\n        /* \"contracts/staking.sol\":1787:1843  require(msg.sender == owner, \"caller must be the owner\") */\n      tag_129\n      jumpi\n      mload(0x40)\n      0x08c379a000000000000000000000000000000000000000000000000000000000\n      dup2\n      mstore\n      0x04\n      add\n      tag_130\n      swap1\n      tag_131\n      jump\t// in\n    tag_130:\n      mload(0x40)\n      dup1\n      swap2\n      sub\n      swap1\n      revert\n    tag_129:\n        /* \"contracts/staking.sol\":1870:1876  uint i */\n      0x00\n        /* \"contracts/staking.sol\":1865:2264  for (uint i = 0; i < funds[msg.sender].length; i++){\r... */\n    tag_132:\n        /* \"contracts/staking.sol\":1886:1891  funds */\n      0x05\n        /* \"contracts/staking.sol\":1886:1903  funds[msg.sender] */\n      0x00\n        /* \"contracts/staking.sol\":1892:1902  msg.sender */\n      caller\n        /* \"contracts/staking.sol\":1886:1903  funds[msg.sender] */\n      0xffffffffffffffffffffffffffffffffffffffff\n      and\n      0xffffffffffffffffffffffffffffffffffffffff\n      and\n      dup2\n      mstore\n      0x20\n      add\n      swap1\n      dup2\n      mstore\n      0x20\n      add\n      0x00\n      keccak256\n        /* \"contracts/staking.sol\":1886:1910  funds[msg.sender].length */\n      dup1\n      sload\n      swap1\n      pop\n        /* \"contracts/staking.sol\":1882:1883  i */\n      dup2\n        /* \"contracts/staking.sol\":1882:1910  i < funds[msg.sender].length */\n      lt\n        /* \"contracts/staking.sol\":1865:2264  for (uint i = 0; i < funds[msg.sender].length; i++){\r... */\n      iszero\n      tag_133\n      jumpi\n        /* \"contracts/staking.sol\":1931:1951  uint currentUserFund */\n      0x00\n        /* \"contracts/staking.sol\":1954:1959  funds */\n      0x05\n        /* \"contracts/staking.sol\":1954:1971  funds[msg.sender] */\n      0x00\n        /* \"contracts/staking.sol\":1960:1970  msg.sender */\n      caller\n        /* \"contracts/staking.sol\":1954:1971  funds[msg.sender] */\n      0xffffffffffffffffffffffffffffffffffffffff\n      and\n      0xffffffffffffffffffffffffffffffffffffffff\n      and\n      dup2\n      mstore\n      0x20\n      add\n      swap1\n      dup2\n      mstore\n      0x20\n      add\n      0x00\n      keccak256\n        /* \"contracts/staking.sol\":1972:1973  i */\n      dup3\n        /* \"contracts/staking.sol\":1954:1974  funds[msg.sender][i] */\n      dup2\n      sload\n      dup2\n      lt\n      tag_135\n      jumpi\n      tag_136\n      tag_99\n      jump\t// in\n    tag_136:\n    tag_135:\n      swap1\n      0x00\n      mstore\n      keccak256(0x00, 0x20)\n      swap1\n      0x03\n      mul\n      add\n        /* \"contracts/staking.sol\":1954:1981  funds[msg.sender][i].amount */\n      0x00\n      add\n      sload\n        /* \"contracts/staking.sol\":1931:1981  uint currentUserFund = funds[msg.sender][i].amount */\n      swap1\n      pop\n        /* \"contracts/staking.sol\":2046:2053  8640000 */\n      0x83d600\n        /* \"contracts/staking.sol\":2017:2022  funds */\n      0x05\n        /* \"contracts/staking.sol\":2017:2034  funds[msg.sender] */\n      0x00\n        /* \"contracts/staking.sol\":2023:2033  msg.sender */\n      caller\n        /* \"contracts/staking.sol\":2017:2034  funds[msg.sender] */\n      0xffffffffffffffffffffffffffffffffffffffff\n      and\n      0xffffffffffffffffffffffffffffffffffffffff\n      and\n      dup2\n      mstore\n      0x20\n      add\n      swap1\n      dup2\n      mstore\n      0x20\n      add\n      0x00\n      keccak256\n        /* \"contracts/staking.sol\":2035:2036  i */\n      dup4\n        /* \"contracts/staking.sol\":2017:2037  funds[msg.sender][i] */\n      dup2\n      sload\n      dup2\n      lt\n      tag_138\n      jumpi\n      tag_139\n      tag_99\n      jump\t// in\n    tag_139:\n    tag_138:\n      swap1\n      0x00\n      mstore\n      keccak256(0x00, 0x20)\n      swap1\n      0x03\n      mul\n      add\n        /* \"contracts/staking.sol\":2017:2043  funds[msg.sender][i].since */\n      0x01\n      add\n      sload\n        /* \"contracts/staking.sol\":1999:2014  block.timestamp */\n      timestamp\n        /* \"contracts/staking.sol\":1999:2043  block.timestamp - funds[msg.sender][i].since */\n      tag_141\n      swap2\n      swap1\n      tag_142\n      jump\t// in\n    tag_141:\n        /* \"contracts/staking.sol\":1999:2053  block.timestamp - funds[msg.sender][i].since < 8640000 */\n      lt\n        /* \"contracts/staking.sol\":1996:2249  if(block.timestamp - funds[msg.sender][i].since < 8640000){\r... */\n      iszero\n      tag_143\n      jumpi\n        /* \"contracts/staking.sol\":2156:2159  100 */\n      0x64\n        /* \"contracts/staking.sol\":2140:2155  currentUserFund */\n      dup2\n        /* \"contracts/staking.sol\":2134:2136  10 */\n      0x0a\n        /* \"contracts/staking.sol\":2104:2109  funds */\n      0x05\n        /* \"contracts/staking.sol\":2104:2121  funds[msg.sender] */\n      0x00\n        /* \"contracts/staking.sol\":2110:2120  msg.sender */\n      caller\n        /* \"contracts/staking.sol\":2104:2121  funds[msg.sender] */\n      0xffffffffffffffffffffffffffffffffffffffff\n      and\n      0xffffffffffffffffffffffffffffffffffffffff\n      and\n      dup2\n      mstore\n      0x20\n      add\n      swap1\n      dup2\n      mstore\n      0x20\n      add\n      0x00\n      keccak256\n        /* \"contracts/staking.sol\":2122:2123  i */\n      dup6\n        /* \"contracts/staking.sol\":2104:2124  funds[msg.sender][i] */\n      dup2\n      sload\n      dup2\n      lt\n      tag_144\n      jumpi\n      tag_145\n      tag_99\n      jump\t// in\n    tag_145:\n    tag_144:\n      swap1\n      0x00\n      mstore\n      keccak256(0x00, 0x20)\n      swap1\n      0x03\n      mul\n      add\n        /* \"contracts/staking.sol\":2104:2130  funds[msg.sender][i].since */\n      0x01\n      add\n      sload\n        /* \"contracts/staking.sol\":2086:2101  block.timestamp */\n      timestamp\n        /* \"contracts/staking.sol\":2086:2130  block.timestamp - funds[msg.sender][i].since */\n      tag_147\n      swap2\n      swap1\n      tag_142\n      jump\t// in\n    tag_147:\n        /* \"contracts/staking.sol\":2085:2136  (block.timestamp - funds[msg.sender][i].since) / 10 */\n      tag_148\n      swap2\n      swap1\n      tag_119\n      jump\t// in\n    tag_148:\n        /* \"contracts/staking.sol\":2084:2155  ((block.timestamp - funds[msg.sender][i].since) / 10) * currentUserFund */\n      tag_149\n      swap2\n      swap1\n      tag_117\n      jump\t// in\n    tag_149:\n        /* \"contracts/staking.sol\":2084:2159  ((block.timestamp - funds[msg.sender][i].since) / 10) * currentUserFund/100 */\n      tag_150\n      swap2\n      swap1\n      tag_119\n      jump\t// in\n    tag_150:\n        /* \"contracts/staking.sol\":2073:2079  reward */\n      0x08\n      0x00\n        /* \"contracts/staking.sol\":2073:2160  reward += (((block.timestamp - funds[msg.sender][i].since) / 10) * currentUserFund/100) */\n      dup3\n      dup3\n      sload\n      tag_151\n      swap2\n      swap1\n      tag_121\n      jump\t// in\n    tag_151:\n      swap3\n      pop\n      pop\n      dup2\n      swap1\n      sstore\n      pop\n        /* \"contracts/staking.sol\":2227:2233  reward */\n      sload(0x08)\n        /* \"contracts/staking.sol\":2197:2202  funds */\n      0x05\n        /* \"contracts/staking.sol\":2197:2214  funds[msg.sender] */\n      0x00\n        /* \"contracts/staking.sol\":2203:2213  msg.sender */\n      caller\n        /* \"contracts/staking.sol\":2197:2214  funds[msg.sender] */\n      0xffffffffffffffffffffffffffffffffffffffff\n      and\n      0xffffffffffffffffffffffffffffffffffffffff\n      and\n      dup2\n      mstore\n      0x20\n      add\n      swap1\n      dup2\n      mstore\n      0x20\n      add\n      0x00\n      keccak256\n        /* \"contracts/staking.sol\":2215:2216  i */\n      dup4\n        /* \"contracts/staking.sol\":2197:2217  funds[msg.sender][i] */\n      dup2\n      sload\n      dup2\n      lt\n      tag_152\n      jumpi\n      tag_153\n      tag_99\n      jump\t// in\n    tag_153:\n    tag_152:\n      swap1\n      0x00\n      mstore\n      keccak256(0x00, 0x20)\n      swap1\n      0x03\n      mul\n      add\n        /* \"contracts/staking.sol\":2197:2224  funds[msg.sender][i].amount */\n      0x00\n      add\n      sload\n        /* \"contracts/staking.sol\":2197:2233  funds[msg.sender][i].amount + reward */\n      tag_155\n      swap2\n      swap1\n      tag_121\n      jump\t// in\n    tag_155:\n        /* \"contracts/staking.sol\":2183:2194  totalAmount */\n      0x09\n        /* \"contracts/staking.sol\":2183:2233  totalAmount = funds[msg.sender][i].amount + reward */\n      dup2\n      swap1\n      sstore\n      pop\n        /* \"contracts/staking.sol\":1996:2249  if(block.timestamp - funds[msg.sender][i].since < 8640000){\r... */\n    tag_143:\n        /* \"contracts/staking.sol\":1916:2264  {\r... */\n      pop\n        /* \"contracts/staking.sol\":1912:1915  i++ */\n      dup1\n      dup1\n      tag_156\n      swap1\n      tag_157\n      jump\t// in\n    tag_156:\n      swap2\n      pop\n      pop\n        /* \"contracts/staking.sol\":1865:2264  for (uint i = 0; i < funds[msg.sender].length; i++){\r... */\n      jump(tag_132)\n    tag_133:\n      pop\n        /* \"contracts/staking.sol\":2289:2295  uint i */\n      0x00\n        /* \"contracts/staking.sol\":2284:2501  for (uint i = 0; i < funds[msg.sender].length; i++){\r... */\n    tag_158:\n        /* \"contracts/staking.sol\":2305:2310  funds */\n      0x05\n        /* \"contracts/staking.sol\":2305:2322  funds[msg.sender] */\n      0x00\n        /* \"contracts/staking.sol\":2311:2321  msg.sender */\n      caller\n        /* \"contracts/staking.sol\":2305:2322  funds[msg.sender] */\n      0xffffffffffffffffffffffffffffffffffffffff\n      and\n      0xffffffffffffffffffffffffffffffffffffffff\n      and\n      dup2\n      mstore\n      0x20\n      add\n      swap1\n      dup2\n      mstore\n      0x20\n      add\n      0x00\n      keccak256\n        /* \"contracts/staking.sol\":2305:2329  funds[msg.sender].length */\n      dup1\n      sload\n      swap1\n      pop\n        /* \"contracts/staking.sol\":2301:2302  i */\n      dup2\n        /* \"contracts/staking.sol\":2301:2329  i < funds[msg.sender].length */\n      lt\n        /* \"contracts/staking.sol\":2284:2501  for (uint i = 0; i < funds[msg.sender].length; i++){\r... */\n      iszero\n      tag_159\n      jumpi\n        /* \"contracts/staking.sol\":2407:2414  8640000 */\n      0x83d600\n        /* \"contracts/staking.sol\":2371:2376  funds */\n      0x05\n        /* \"contracts/staking.sol\":2371:2388  funds[msg.sender] */\n      0x00\n        /* \"contracts/staking.sol\":2377:2387  msg.sender */\n      caller\n        /* \"contracts/staking.sol\":2371:2388  funds[msg.sender] */\n      0xffffffffffffffffffffffffffffffffffffffff\n      and\n      0xffffffffffffffffffffffffffffffffffffffff\n      and\n      dup2\n      mstore\n      0x20\n      add\n      swap1\n      dup2\n      mstore\n      0x20\n      add\n      0x00\n      keccak256\n        /* \"contracts/staking.sol\":2389:2390  i */\n      dup3\n        /* \"contracts/staking.sol\":2371:2391  funds[msg.sender][i] */\n      dup2\n      sload\n      dup2\n      lt\n      tag_161\n      jumpi\n      tag_162\n      tag_99\n      jump\t// in\n    tag_162:\n    tag_161:\n      swap1\n      0x00\n      mstore\n      keccak256(0x00, 0x20)\n      swap1\n      0x03\n      mul\n      add\n        /* \"contracts/staking.sol\":2371:2404  funds[msg.sender][i].lastWithdraw */\n      0x02\n      add\n      sload\n        /* \"contracts/staking.sol\":2353:2368  block.timestamp */\n      timestamp\n        /* \"contracts/staking.sol\":2353:2404  block.timestamp - funds[msg.sender][i].lastWithdraw */\n      tag_164\n      swap2\n      swap1\n      tag_142\n      jump\t// in\n    tag_164:\n        /* \"contracts/staking.sol\":2353:2414  block.timestamp - funds[msg.sender][i].lastWithdraw < 8640000 */\n      lt\n        /* \"contracts/staking.sol\":2350:2486  if(block.timestamp - funds[msg.sender][i].lastWithdraw < 8640000){\r... */\n      iszero\n      tag_165\n      jumpi\n        /* \"contracts/staking.sol\":2442:2452  msg.sender */\n      caller\n        /* \"contracts/staking.sol\":2434:2462  payable(msg.sender).transfer */\n      0xffffffffffffffffffffffffffffffffffffffff\n      and\n        /* \"contracts/staking.sol\":2434:2470  payable(msg.sender).transfer(reward) */\n      0x08fc\n        /* \"contracts/staking.sol\":2463:2469  reward */\n      sload(0x08)\n        /* \"contracts/staking.sol\":2434:2470  payable(msg.sender).transfer(reward) */\n      swap1\n      dup2\n      iszero\n      mul\n      swap1\n      mload(0x40)\n      0x00\n      mload(0x40)\n      dup1\n      dup4\n      sub\n      dup2\n      dup6\n      dup9\n      dup9\n      call\n      swap4\n      pop\n      pop\n      pop\n      pop\n      iszero\n      dup1\n      iszero\n      tag_167\n      jumpi\n      returndatasize\n      0x00\n      dup1\n      returndatacopy\n      revert(0x00, returndatasize)\n    tag_167:\n      pop\n        /* \"contracts/staking.sol\":2350:2486  if(block.timestamp - funds[msg.sender][i].lastWithdraw < 8640000){\r... */\n    tag_165:\n        /* \"contracts/staking.sol\":2331:2334  i++ */\n      dup1\n      dup1\n      tag_168\n      swap1\n      tag_157\n      jump\t// in\n    tag_168:\n      swap2\n      pop\n      pop\n        /* \"contracts/staking.sol\":2284:2501  for (uint i = 0; i < funds[msg.sender].length; i++){\r... */\n      jump(tag_158)\n    tag_159:\n      pop\n        /* \"contracts/staking.sol\":1738:2511  function issueRewards() payable public{\r... */\n      jump\t// out\n        /* \"contracts/staking.sol\":377:418  mapping(address => bool) public hasStaked */\n    tag_82:\n      mstore(0x20, 0x06)\n      dup1\n      0x00\n      mstore\n      keccak256(0x00, 0x40)\n      0x00\n      swap2\n      pop\n      sload\n      swap1\n      0x0100\n      exp\n      swap1\n      div\n      0xff\n      and\n      dup2\n      jump\t// out\n        /* \"contracts/staking.sol\":2887:3096  function withdrawTax() public{\r... */\n    tag_86:\n        /* \"contracts/staking.sol\":2949:2954  owner */\n      0x00\n      dup1\n      sload\n      swap1\n      0x0100\n      exp\n      swap1\n      div\n      0xffffffffffffffffffffffffffffffffffffffff\n      and\n        /* \"contracts/staking.sol\":2935:2954  msg.sender == owner */\n      0xffffffffffffffffffffffffffffffffffffffff\n      and\n        /* \"contracts/staking.sol\":2935:2945  msg.sender */\n      caller\n        /* \"contracts/staking.sol\":2935:2954  msg.sender == owner */\n      0xffffffffffffffffffffffffffffffffffffffff\n      and\n      eq\n        /* \"contracts/staking.sol\":2927:2990  require(msg.sender == owner, \"Only owner can withdraw the tax\") */\n      tag_170\n      jumpi\n      mload(0x40)\n      0x08c379a000000000000000000000000000000000000000000000000000000000\n      dup2\n      mstore\n      0x04\n      add\n      tag_171\n      swap1\n      tag_172\n      jump\t// in\n    tag_171:\n      mload(0x40)\n      dup1\n      swap2\n      sub\n      swap1\n      revert\n    tag_170:\n        /* \"contracts/staking.sol\":3001:3009  uint tax */\n      0x00\n        /* \"contracts/staking.sol\":3035:3038  100 */\n      0x64\n        /* \"contracts/staking.sol\":3031:3032  5 */\n      0x05\n        /* \"contracts/staking.sol\":3012:3021  userFunds */\n      0x02\n        /* \"contracts/staking.sol\":3012:3028  userFunds.amount */\n      0x00\n      add\n      sload\n        /* \"contracts/staking.sol\":3012:3032  userFunds.amount * 5 */\n      tag_173\n      swap2\n      swap1\n      tag_117\n      jump\t// in\n    tag_173:\n        /* \"contracts/staking.sol\":3012:3038  userFunds.amount * 5 / 100 */\n      tag_174\n      swap2\n      swap1\n      tag_119\n      jump\t// in\n    tag_174:\n        /* \"contracts/staking.sol\":3001:3038  uint tax = userFunds.amount * 5 / 100 */\n      swap1\n      pop\n        /* \"contracts/staking.sol\":3085:3088  tax */\n      dup1\n        /* \"contracts/staking.sol\":3066:3075  userFunds */\n      0x02\n        /* \"contracts/staking.sol\":3066:3082  userFunds.amount */\n      0x00\n      add\n      sload\n        /* \"contracts/staking.sol\":3066:3088  userFunds.amount - tax */\n      tag_175\n      swap2\n      swap1\n      tag_142\n      jump\t// in\n    tag_175:\n        /* \"contracts/staking.sol\":3049:3063  treasuryWallet */\n      0x01\n        /* \"contracts/staking.sol\":3049:3088  treasuryWallet = userFunds.amount - tax */\n      dup2\n      swap1\n      sstore\n      pop\n        /* \"contracts/staking.sol\":2916:3096  {\r... */\n      pop\n        /* \"contracts/staking.sol\":2887:3096  function withdrawTax() public{\r... */\n      jump\t// out\n        /* \"#utility.yul\":7:146   */\n    tag_177:\n        /* \"#utility.yul\":53:58   */\n      0x00\n        /* \"#utility.yul\":91:97   */\n      dup2\n        /* \"#utility.yul\":78:98   */\n      calldataload\n        /* \"#utility.yul\":69:98   */\n      swap1\n      pop\n        /* \"#utility.yul\":107:140   */\n      tag_179\n        /* \"#utility.yul\":134:139   */\n      dup2\n        /* \"#utility.yul\":107:140   */\n      tag_180\n      jump\t// in\n    tag_179:\n        /* \"#utility.yul\":7:146   */\n      swap3\n      swap2\n      pop\n      pop\n      jump\t// out\n        /* \"#utility.yul\":152:285   */\n    tag_181:\n        /* \"#utility.yul\":195:200   */\n      0x00\n        /* \"#utility.yul\":233:239   */\n      dup2\n        /* \"#utility.yul\":220:240   */\n      calldataload\n        /* \"#utility.yul\":211:240   */\n      swap1\n      pop\n        /* \"#utility.yul\":249:279   */\n      tag_183\n        /* \"#utility.yul\":273:278   */\n      dup2\n        /* \"#utility.yul\":249:279   */\n      tag_184\n      jump\t// in\n    tag_183:\n        /* \"#utility.yul\":152:285   */\n      swap3\n      swap2\n      pop\n      pop\n      jump\t// out\n        /* \"#utility.yul\":291:430   */\n    tag_185:\n        /* \"#utility.yul\":337:342   */\n      0x00\n        /* \"#utility.yul\":375:381   */\n      dup2\n        /* \"#utility.yul\":362:382   */\n      calldataload\n        /* \"#utility.yul\":353:382   */\n      swap1\n      pop\n        /* \"#utility.yul\":391:424   */\n      tag_187\n        /* \"#utility.yul\":418:423   */\n      dup2\n        /* \"#utility.yul\":391:424   */\n      tag_188\n      jump\t// in\n    tag_187:\n        /* \"#utility.yul\":291:430   */\n      swap3\n      swap2\n      pop\n      pop\n      jump\t// out\n        /* \"#utility.yul\":436:765   */\n    tag_58:\n        /* \"#utility.yul\":495:501   */\n      0x00\n        /* \"#utility.yul\":544:546   */\n      0x20\n        /* \"#utility.yul\":532:541   */\n      dup3\n        /* \"#utility.yul\":523:530   */\n      dup5\n        /* \"#utility.yul\":519:542   */\n      sub\n        /* \"#utility.yul\":515:547   */\n      slt\n        /* \"#utility.yul\":512:631   */\n      iszero\n      tag_190\n      jumpi\n        /* \"#utility.yul\":550:629   */\n      tag_191\n      tag_192\n      jump\t// in\n    tag_191:\n        /* \"#utility.yul\":512:631   */\n    tag_190:\n        /* \"#utility.yul\":670:671   */\n      0x00\n        /* \"#utility.yul\":695:748   */\n      tag_193\n        /* \"#utility.yul\":740:747   */\n      dup5\n        /* \"#utility.yul\":731:737   */\n      dup3\n        /* \"#utility.yul\":720:729   */\n      dup6\n        /* \"#utility.yul\":716:738   */\n      add\n        /* \"#utility.yul\":695:748   */\n      tag_177\n      jump\t// in\n    tag_193:\n        /* \"#utility.yul\":685:748   */\n      swap2\n      pop\n        /* \"#utility.yul\":641:758   */\n      pop\n        /* \"#utility.yul\":436:765   */\n      swap3\n      swap2\n      pop\n      pop\n      jump\t// out\n        /* \"#utility.yul\":771:1245   */\n    tag_68:\n        /* \"#utility.yul\":839:845   */\n      0x00\n        /* \"#utility.yul\":847:853   */\n      dup1\n        /* \"#utility.yul\":896:898   */\n      0x40\n        /* \"#utility.yul\":884:893   */\n      dup4\n        /* \"#utility.yul\":875:882   */\n      dup6\n        /* \"#utility.yul\":871:894   */\n      sub\n        /* \"#utility.yul\":867:899   */\n      slt\n        /* \"#utility.yul\":864:983   */\n      iszero\n      tag_195\n      jumpi\n        /* \"#utility.yul\":902:981   */\n      tag_196\n      tag_192\n      jump\t// in\n    tag_196:\n        /* \"#utility.yul\":864:983   */\n    tag_195:\n        /* \"#utility.yul\":1022:1023   */\n      0x00\n        /* \"#utility.yul\":1047:1100   */\n      tag_197\n        /* \"#utility.yul\":1092:1099   */\n      dup6\n        /* \"#utility.yul\":1083:1089   */\n      dup3\n        /* \"#utility.yul\":1072:1081   */\n      dup7\n        /* \"#utility.yul\":1068:1090   */\n      add\n        /* \"#utility.yul\":1047:1100   */\n      tag_177\n      jump\t// in\n    tag_197:\n        /* \"#utility.yul\":1037:1100   */\n      swap3\n      pop\n        /* \"#utility.yul\":993:1110   */\n      pop\n        /* \"#utility.yul\":1149:1151   */\n      0x20\n        /* \"#utility.yul\":1175:1228   */\n      tag_198\n        /* \"#utility.yul\":1220:1227   */\n      dup6\n        /* \"#utility.yul\":1211:1217   */\n      dup3\n        /* \"#utility.yul\":1200:1209   */\n      dup7\n        /* \"#utility.yul\":1196:1218   */\n      add\n        /* \"#utility.yul\":1175:1228   */\n      tag_185\n      jump\t// in\n    tag_198:\n        /* \"#utility.yul\":1165:1228   */\n      swap2\n      pop\n        /* \"#utility.yul\":1120:1238   */\n      pop\n        /* \"#utility.yul\":771:1245   */\n      swap3\n      pop\n      swap3\n      swap1\n      pop\n      jump\t// out\n        /* \"#utility.yul\":1251:1574   */\n    tag_29:\n        /* \"#utility.yul\":1307:1313   */\n      0x00\n        /* \"#utility.yul\":1356:1358   */\n      0x20\n        /* \"#utility.yul\":1344:1353   */\n      dup3\n        /* \"#utility.yul\":1335:1342   */\n      dup5\n        /* \"#utility.yul\":1331:1354   */\n      sub\n        /* \"#utility.yul\":1327:1359   */\n      slt\n        /* \"#utility.yul\":1324:1443   */\n      iszero\n      tag_200\n      jumpi\n        /* \"#utility.yul\":1362:1441   */\n      tag_201\n      tag_192\n      jump\t// in\n    tag_201:\n        /* \"#utility.yul\":1324:1443   */\n    tag_200:\n        /* \"#utility.yul\":1482:1483   */\n      0x00\n        /* \"#utility.yul\":1507:1557   */\n      tag_202\n        /* \"#utility.yul\":1549:1556   */\n      dup5\n        /* \"#utility.yul\":1540:1546   */\n      dup3\n        /* \"#utility.yul\":1529:1538   */\n      dup6\n        /* \"#utility.yul\":1525:1547   */\n      add\n        /* \"#utility.yul\":1507:1557   */\n      tag_181\n      jump\t// in\n    tag_202:\n        /* \"#utility.yul\":1497:1557   */\n      swap2\n      pop\n        /* \"#utility.yul\":1453:1567   */\n      pop\n        /* \"#utility.yul\":1251:1574   */\n      swap3\n      swap2\n      pop\n      pop\n      jump\t// out\n        /* \"#utility.yul\":1580:1698   */\n    tag_203:\n        /* \"#utility.yul\":1667:1691   */\n      tag_205\n        /* \"#utility.yul\":1685:1690   */\n      dup2\n        /* \"#utility.yul\":1667:1691   */\n      tag_206\n      jump\t// in\n    tag_205:\n        /* \"#utility.yul\":1662:1665   */\n      dup3\n        /* \"#utility.yul\":1655:1692   */\n      mstore\n        /* \"#utility.yul\":1580:1698   */\n      pop\n      pop\n      jump\t// out\n        /* \"#utility.yul\":1704:1813   */\n    tag_207:\n        /* \"#utility.yul\":1785:1806   */\n      tag_209\n        /* \"#utility.yul\":1800:1805   */\n      dup2\n        /* \"#utility.yul\":1785:1806   */\n      tag_210\n      jump\t// in\n    tag_209:\n        /* \"#utility.yul\":1780:1783   */\n      dup3\n        /* \"#utility.yul\":1773:1807   */\n      mstore\n        /* \"#utility.yul\":1704:1813   */\n      pop\n      pop\n      jump\t// out\n        /* \"#utility.yul\":1819:2185   */\n    tag_211:\n        /* \"#utility.yul\":1961:1964   */\n      0x00\n        /* \"#utility.yul\":1982:2049   */\n      tag_213\n        /* \"#utility.yul\":2046:2048   */\n      0x18\n        /* \"#utility.yul\":2041:2044   */\n      dup4\n        /* \"#utility.yul\":1982:2049   */\n      tag_214\n      jump\t// in\n    tag_213:\n        /* \"#utility.yul\":1975:2049   */\n      swap2\n      pop\n        /* \"#utility.yul\":2058:2151   */\n      tag_215\n        /* \"#utility.yul\":2147:2150   */\n      dup3\n        /* \"#utility.yul\":2058:2151   */\n      tag_216\n      jump\t// in\n    tag_215:\n        /* \"#utility.yul\":2176:2178   */\n      0x20\n        /* \"#utility.yul\":2171:2174   */\n      dup3\n        /* \"#utility.yul\":2167:2179   */\n      add\n        /* \"#utility.yul\":2160:2179   */\n      swap1\n      pop\n        /* \"#utility.yul\":1819:2185   */\n      swap2\n      swap1\n      pop\n      jump\t// out\n        /* \"#utility.yul\":2191:2557   */\n    tag_217:\n        /* \"#utility.yul\":2333:2336   */\n      0x00\n        /* \"#utility.yul\":2354:2421   */\n      tag_219\n        /* \"#utility.yul\":2418:2420   */\n      0x15\n        /* \"#utility.yul\":2413:2416   */\n      dup4\n        /* \"#utility.yul\":2354:2421   */\n      tag_214\n      jump\t// in\n    tag_219:\n        /* \"#utility.yul\":2347:2421   */\n      swap2\n      pop\n        /* \"#utility.yul\":2430:2523   */\n      tag_220\n        /* \"#utility.yul\":2519:2522   */\n      dup3\n        /* \"#utility.yul\":2430:2523   */\n      tag_221\n      jump\t// in\n    tag_220:\n        /* \"#utility.yul\":2548:2550   */\n      0x20\n        /* \"#utility.yul\":2543:2546   */\n      dup3\n        /* \"#utility.yul\":2539:2551   */\n      add\n        /* \"#utility.yul\":2532:2551   */\n      swap1\n      pop\n        /* \"#utility.yul\":2191:2557   */\n      swap2\n      swap1\n      pop\n      jump\t// out\n        /* \"#utility.yul\":2563:2929   */\n    tag_222:\n        /* \"#utility.yul\":2705:2708   */\n      0x00\n        /* \"#utility.yul\":2726:2793   */\n      tag_224\n        /* \"#utility.yul\":2790:2792   */\n      0x21\n        /* \"#utility.yul\":2785:2788   */\n      dup4\n        /* \"#utility.yul\":2726:2793   */\n      tag_214\n      jump\t// in\n    tag_224:\n        /* \"#utility.yul\":2719:2793   */\n      swap2\n      pop\n        /* \"#utility.yul\":2802:2895   */\n      tag_225\n        /* \"#utility.yul\":2891:2894   */\n      dup3\n        /* \"#utility.yul\":2802:2895   */\n      tag_226\n      jump\t// in\n    tag_225:\n        /* \"#utility.yul\":2920:2922   */\n      0x40\n        /* \"#utility.yul\":2915:2918   */\n      dup3\n        /* \"#utility.yul\":2911:2923   */\n      add\n        /* \"#utility.yul\":2904:2923   */\n      swap1\n      pop\n        /* \"#utility.yul\":2563:2929   */\n      swap2\n      swap1\n      pop\n      jump\t// out\n        /* \"#utility.yul\":2935:3301   */\n    tag_227:\n        /* \"#utility.yul\":3077:3080   */\n      0x00\n        /* \"#utility.yul\":3098:3165   */\n      tag_229\n        /* \"#utility.yul\":3162:3164   */\n      0x1f\n        /* \"#utility.yul\":3157:3160   */\n      dup4\n        /* \"#utility.yul\":3098:3165   */\n      tag_214\n      jump\t// in\n    tag_229:\n        /* \"#utility.yul\":3091:3165   */\n      swap2\n      pop\n        /* \"#utility.yul\":3174:3267   */\n      tag_230\n        /* \"#utility.yul\":3263:3266   */\n      dup3\n        /* \"#utility.yul\":3174:3267   */\n      tag_231\n      jump\t// in\n    tag_230:\n        /* \"#utility.yul\":3292:3294   */\n      0x20\n        /* \"#utility.yul\":3287:3290   */\n      dup3\n        /* \"#utility.yul\":3283:3295   */\n      add\n        /* \"#utility.yul\":3276:3295   */\n      swap1\n      pop\n        /* \"#utility.yul\":2935:3301   */\n      swap2\n      swap1\n      pop\n      jump\t// out\n        /* \"#utility.yul\":3307:3673   */\n    tag_232:\n        /* \"#utility.yul\":3449:3452   */\n      0x00\n        /* \"#utility.yul\":3470:3537   */\n      tag_234\n        /* \"#utility.yul\":3534:3536   */\n      0x1b\n        /* \"#utility.yul\":3529:3532   */\n      dup4\n        /* \"#utility.yul\":3470:3537   */\n      tag_214\n      jump\t// in\n    tag_234:\n        /* \"#utility.yul\":3463:3537   */\n      swap2\n      pop\n        /* \"#utility.yul\":3546:3639   */\n      tag_235\n        /* \"#utility.yul\":3635:3638   */\n      dup3\n        /* \"#utility.yul\":3546:3639   */\n      tag_236\n      jump\t// in\n    tag_235:\n        /* \"#utility.yul\":3664:3666   */\n      0x20\n        /* \"#utility.yul\":3659:3662   */\n      dup3\n        /* \"#utility.yul\":3655:3667   */\n      add\n        /* \"#utility.yul\":3648:3667   */\n      swap1\n      pop\n        /* \"#utility.yul\":3307:3673   */\n      swap2\n      swap1\n      pop\n      jump\t// out\n        /* \"#utility.yul\":3679:4045   */\n    tag_237:\n        /* \"#utility.yul\":3821:3824   */\n      0x00\n        /* \"#utility.yul\":3842:3909   */\n      tag_239\n        /* \"#utility.yul\":3906:3908   */\n      0x12\n        /* \"#utility.yul\":3901:3904   */\n      dup4\n        /* \"#utility.yul\":3842:3909   */\n      tag_214\n      jump\t// in\n    tag_239:\n        /* \"#utility.yul\":3835:3909   */\n      swap2\n      pop\n        /* \"#utility.yul\":3918:4011   */\n      tag_240\n        /* \"#utility.yul\":4007:4010   */\n      dup3\n        /* \"#utility.yul\":3918:4011   */\n      tag_241\n      jump\t// in\n    tag_240:\n        /* \"#utility.yul\":4036:4038   */\n      0x20\n        /* \"#utility.yul\":4031:4034   */\n      dup3\n        /* \"#utility.yul\":4027:4039   */\n      add\n        /* \"#utility.yul\":4020:4039   */\n      swap1\n      pop\n        /* \"#utility.yul\":3679:4045   */\n      swap2\n      swap1\n      pop\n      jump\t// out\n        /* \"#utility.yul\":4051:4417   */\n    tag_242:\n        /* \"#utility.yul\":4193:4196   */\n      0x00\n        /* \"#utility.yul\":4214:4281   */\n      tag_244\n        /* \"#utility.yul\":4278:4280   */\n      0x0d\n        /* \"#utility.yul\":4273:4276   */\n      dup4\n        /* \"#utility.yul\":4214:4281   */\n      tag_214\n      jump\t// in\n    tag_244:\n        /* \"#utility.yul\":4207:4281   */\n      swap2\n      pop\n        /* \"#utility.yul\":4290:4383   */\n      tag_245\n        /* \"#utility.yul\":4379:4382   */\n      dup3\n        /* \"#utility.yul\":4290:4383   */\n      tag_246\n      jump\t// in\n    tag_245:\n        /* \"#utility.yul\":4408:4410   */\n      0x20\n        /* \"#utility.yul\":4403:4406   */\n      dup3\n        /* \"#utility.yul\":4399:4411   */\n      add\n        /* \"#utility.yul\":4392:4411   */\n      swap1\n      pop\n        /* \"#utility.yul\":4051:4417   */\n      swap2\n      swap1\n      pop\n      jump\t// out\n        /* \"#utility.yul\":4423:4789   */\n    tag_247:\n        /* \"#utility.yul\":4565:4568   */\n      0x00\n        /* \"#utility.yul\":4586:4653   */\n      tag_249\n        /* \"#utility.yul\":4650:4652   */\n      0x1d\n        /* \"#utility.yul\":4645:4648   */\n      dup4\n        /* \"#utility.yul\":4586:4653   */\n      tag_214\n      jump\t// in\n    tag_249:\n        /* \"#utility.yul\":4579:4653   */\n      swap2\n      pop\n        /* \"#utility.yul\":4662:4755   */\n      tag_250\n        /* \"#utility.yul\":4751:4754   */\n      dup3\n        /* \"#utility.yul\":4662:4755   */\n      tag_251\n      jump\t// in\n    tag_250:\n        /* \"#utility.yul\":4780:4782   */\n      0x20\n        /* \"#utility.yul\":4775:4778   */\n      dup3\n        /* \"#utility.yul\":4771:4783   */\n      add\n        /* \"#utility.yul\":4764:4783   */\n      swap1\n      pop\n        /* \"#utility.yul\":4423:4789   */\n      swap2\n      swap1\n      pop\n      jump\t// out\n        /* \"#utility.yul\":4795:5161   */\n    tag_252:\n        /* \"#utility.yul\":4937:4940   */\n      0x00\n        /* \"#utility.yul\":4958:5025   */\n      tag_254\n        /* \"#utility.yul\":5022:5024   */\n      0x0f\n        /* \"#utility.yul\":5017:5020   */\n      dup4\n        /* \"#utility.yul\":4958:5025   */\n      tag_214\n      jump\t// in\n    tag_254:\n        /* \"#utility.yul\":4951:5025   */\n      swap2\n      pop\n        /* \"#utility.yul\":5034:5127   */\n      tag_255\n        /* \"#utility.yul\":5123:5126   */\n      dup3\n        /* \"#utility.yul\":5034:5127   */\n      tag_256\n      jump\t// in\n    tag_255:\n        /* \"#utility.yul\":5152:5154   */\n      0x20\n        /* \"#utility.yul\":5147:5150   */\n      dup3\n        /* \"#utility.yul\":5143:5155   */\n      add\n        /* \"#utility.yul\":5136:5155   */\n      swap1\n      pop\n        /* \"#utility.yul\":4795:5161   */\n      swap2\n      swap1\n      pop\n      jump\t// out\n        /* \"#utility.yul\":5167:5285   */\n    tag_257:\n        /* \"#utility.yul\":5254:5278   */\n      tag_259\n        /* \"#utility.yul\":5272:5277   */\n      dup2\n        /* \"#utility.yul\":5254:5278   */\n      tag_260\n      jump\t// in\n    tag_259:\n        /* \"#utility.yul\":5249:5252   */\n      dup3\n        /* \"#utility.yul\":5242:5279   */\n      mstore\n        /* \"#utility.yul\":5167:5285   */\n      pop\n      pop\n      jump\t// out\n        /* \"#utility.yul\":5291:5513   */\n    tag_76:\n        /* \"#utility.yul\":5384:5388   */\n      0x00\n        /* \"#utility.yul\":5422:5424   */\n      0x20\n        /* \"#utility.yul\":5411:5420   */\n      dup3\n        /* \"#utility.yul\":5407:5425   */\n      add\n        /* \"#utility.yul\":5399:5425   */\n      swap1\n      pop\n        /* \"#utility.yul\":5435:5506   */\n      tag_262\n        /* \"#utility.yul\":5503:5504   */\n      0x00\n        /* \"#utility.yul\":5492:5501   */\n      dup4\n        /* \"#utility.yul\":5488:5505   */\n      add\n        /* \"#utility.yul\":5479:5485   */\n      dup5\n        /* \"#utility.yul\":5435:5506   */\n      tag_203\n      jump\t// in\n    tag_262:\n        /* \"#utility.yul\":5291:5513   */\n      swap3\n      swap2\n      pop\n      pop\n      jump\t// out\n        /* \"#utility.yul\":5519:5729   */\n    tag_25:\n        /* \"#utility.yul\":5606:5610   */\n      0x00\n        /* \"#utility.yul\":5644:5646   */\n      0x20\n        /* \"#utility.yul\":5633:5642   */\n      dup3\n        /* \"#utility.yul\":5629:5647   */\n      add\n        /* \"#utility.yul\":5621:5647   */\n      swap1\n      pop\n        /* \"#utility.yul\":5657:5722   */\n      tag_264\n        /* \"#utility.yul\":5719:5720   */\n      0x00\n        /* \"#utility.yul\":5708:5717   */\n      dup4\n        /* \"#utility.yul\":5704:5721   */\n      add\n        /* \"#utility.yul\":5695:5701   */\n      dup5\n        /* \"#utility.yul\":5657:5722   */\n      tag_207\n      jump\t// in\n    tag_264:\n        /* \"#utility.yul\":5519:5729   */\n      swap3\n      swap2\n      pop\n      pop\n      jump\t// out\n        /* \"#utility.yul\":5735:6154   */\n    tag_131:\n        /* \"#utility.yul\":5901:5905   */\n      0x00\n        /* \"#utility.yul\":5939:5941   */\n      0x20\n        /* \"#utility.yul\":5928:5937   */\n      dup3\n        /* \"#utility.yul\":5924:5942   */\n      add\n        /* \"#utility.yul\":5916:5942   */\n      swap1\n      pop\n        /* \"#utility.yul\":5988:5997   */\n      dup2\n        /* \"#utility.yul\":5982:5986   */\n      dup2\n        /* \"#utility.yul\":5978:5998   */\n      sub\n        /* \"#utility.yul\":5974:5975   */\n      0x00\n        /* \"#utility.yul\":5963:5972   */\n      dup4\n        /* \"#utility.yul\":5959:5976   */\n      add\n        /* \"#utility.yul\":5952:5999   */\n      mstore\n        /* \"#utility.yul\":6016:6147   */\n      tag_266\n        /* \"#utility.yul\":6142:6146   */\n      dup2\n        /* \"#utility.yul\":6016:6147   */\n      tag_211\n      jump\t// in\n    tag_266:\n        /* \"#utility.yul\":6008:6147   */\n      swap1\n      pop\n        /* \"#utility.yul\":5735:6154   */\n      swap2\n      swap1\n      pop\n      jump\t// out\n        /* \"#utility.yul\":6160:6579   */\n    tag_90:\n        /* \"#utility.yul\":6326:6330   */\n      0x00\n        /* \"#utility.yul\":6364:6366   */\n      0x20\n        /* \"#utility.yul\":6353:6362   */\n      dup3\n        /* \"#utility.yul\":6349:6367   */\n      add\n        /* \"#utility.yul\":6341:6367   */\n      swap1\n      pop\n        /* \"#utility.yul\":6413:6422   */\n      dup2\n        /* \"#utility.yul\":6407:6411   */\n      dup2\n        /* \"#utility.yul\":6403:6423   */\n      sub\n        /* \"#utility.yul\":6399:6400   */\n      0x00\n        /* \"#utility.yul\":6388:6397   */\n      dup4\n        /* \"#utility.yul\":6384:6401   */\n      add\n        /* \"#utility.yul\":6377:6424   */\n      mstore\n        /* \"#utility.yul\":6441:6572   */\n      tag_268\n        /* \"#utility.yul\":6567:6571   */\n      dup2\n        /* \"#utility.yul\":6441:6572   */\n      tag_217\n      jump\t// in\n    tag_268:\n        /* \"#utility.yul\":6433:6572   */\n      swap1\n      pop\n        /* \"#utility.yul\":6160:6579   */\n      swap2\n      swap1\n      pop\n      jump\t// out\n        /* \"#utility.yul\":6585:7004   */\n    tag_104:\n        /* \"#utility.yul\":6751:6755   */\n      0x00\n        /* \"#utility.yul\":6789:6791   */\n      0x20\n        /* \"#utility.yul\":6778:6787   */\n      dup3\n        /* \"#utility.yul\":6774:6792   */\n      add\n        /* \"#utility.yul\":6766:6792   */\n      swap1\n      pop\n        /* \"#utility.yul\":6838:6847   */\n      dup2\n        /* \"#utility.yul\":6832:6836   */\n      dup2\n        /* \"#utility.yul\":6828:6848   */\n      sub\n        /* \"#utility.yul\":6824:6825   */\n      0x00\n        /* \"#utility.yul\":6813:6822   */\n      dup4\n        /* \"#utility.yul\":6809:6826   */\n      add\n        /* \"#utility.yul\":6802:6849   */\n      mstore\n        /* \"#utility.yul\":6866:6997   */\n      tag_270\n        /* \"#utility.yul\":6992:6996   */\n      dup2\n        /* \"#utility.yul\":6866:6997   */\n      tag_222\n      jump\t// in\n    tag_270:\n        /* \"#utility.yul\":6858:6997   */\n      swap1\n      pop\n        /* \"#utility.yul\":6585:7004   */\n      swap2\n      swap1\n      pop\n      jump\t// out\n        /* \"#utility.yul\":7010:7429   */\n    tag_172:\n        /* \"#utility.yul\":7176:7180   */\n      0x00\n        /* \"#utility.yul\":7214:7216   */\n      0x20\n        /* \"#utility.yul\":7203:7212   */\n      dup3\n        /* \"#utility.yul\":7199:7217   */\n      add\n        /* \"#utility.yul\":7191:7217   */\n      swap1\n      pop\n        /* \"#utility.yul\":7263:7272   */\n      dup2\n        /* \"#utility.yul\":7257:7261   */\n      dup2\n        /* \"#utility.yul\":7253:7273   */\n      sub\n        /* \"#utility.yul\":7249:7250   */\n      0x00\n        /* \"#utility.yul\":7238:7247   */\n      dup4\n        /* \"#utility.yul\":7234:7251   */\n      add\n        /* \"#utility.yul\":7227:7274   */\n      mstore\n        /* \"#utility.yul\":7291:7422   */\n      tag_272\n        /* \"#utility.yul\":7417:7421   */\n      dup2\n        /* \"#utility.yul\":7291:7422   */\n      tag_227\n      jump\t// in\n    tag_272:\n        /* \"#utility.yul\":7283:7422   */\n      swap1\n      pop\n        /* \"#utility.yul\":7010:7429   */\n      swap2\n      swap1\n      pop\n      jump\t// out\n        /* \"#utility.yul\":7435:7854   */\n    tag_94:\n        /* \"#utility.yul\":7601:7605   */\n      0x00\n        /* \"#utility.yul\":7639:7641   */\n      0x20\n        /* \"#utility.yul\":7628:7637   */\n      dup3\n        /* \"#utility.yul\":7624:7642   */\n      add\n        /* \"#utility.yul\":7616:7642   */\n      swap1\n      pop\n        /* \"#utility.yul\":7688:7697   */\n      dup2\n        /* \"#utility.yul\":7682:7686   */\n      dup2\n        /* \"#utility.yul\":7678:7698   */\n      sub\n        /* \"#utility.yul\":7674:7675   */\n      0x00\n        /* \"#utility.yul\":7663:7672   */\n      dup4\n        /* \"#utility.yul\":7659:7676   */\n      add\n        /* \"#utility.yul\":7652:7699   */\n      mstore\n        /* \"#utility.yul\":7716:7847   */\n      tag_274\n        /* \"#utility.yul\":7842:7846   */\n      dup2\n        /* \"#utility.yul\":7716:7847   */\n      tag_232\n      jump\t// in\n    tag_274:\n        /* \"#utility.yul\":7708:7847   */\n      swap1\n      pop\n        /* \"#utility.yul\":7435:7854   */\n      swap2\n      swap1\n      pop\n      jump\t// out\n        /* \"#utility.yul\":7860:8279   */\n    tag_111:\n        /* \"#utility.yul\":8026:8030   */\n      0x00\n        /* \"#utility.yul\":8064:8066   */\n      0x20\n        /* \"#utility.yul\":8053:8062   */\n      dup3\n        /* \"#utility.yul\":8049:8067   */\n      add\n        /* \"#utility.yul\":8041:8067   */\n      swap1\n      pop\n        /* \"#utility.yul\":8113:8122   */\n      dup2\n        /* \"#utility.yul\":8107:8111   */\n      dup2\n        /* \"#utility.yul\":8103:8123   */\n      sub\n        /* \"#utility.yul\":8099:8100   */\n      0x00\n        /* \"#utility.yul\":8088:8097   */\n      dup4\n        /* \"#utility.yul\":8084:8101   */\n      add\n        /* \"#utility.yul\":8077:8124   */\n      mstore\n        /* \"#utility.yul\":8141:8272   */\n      tag_276\n        /* \"#utility.yul\":8267:8271   */\n      dup2\n        /* \"#utility.yul\":8141:8272   */\n      tag_237\n      jump\t// in\n    tag_276:\n        /* \"#utility.yul\":8133:8272   */\n      swap1\n      pop\n        /* \"#utility.yul\":7860:8279   */\n      swap2\n      swap1\n      pop\n      jump\t// out\n        /* \"#utility.yul\":8285:8704   */\n    tag_114:\n        /* \"#utility.yul\":8451:8455   */\n      0x00\n        /* \"#utility.yul\":8489:8491   */\n      0x20\n        /* \"#utility.yul\":8478:8487   */\n      dup3\n        /* \"#utility.yul\":8474:8492   */\n      add\n        /* \"#utility.yul\":8466:8492   */\n      swap1\n      pop\n        /* \"#utility.yul\":8538:8547   */\n      dup2\n        /* \"#utility.yul\":8532:8536   */\n      dup2\n        /* \"#utility.yul\":8528:8548   */\n      sub\n        /* \"#utility.yul\":8524:8525   */\n      0x00\n        /* \"#utility.yul\":8513:8522   */\n      dup4\n        /* \"#utility.yul\":8509:8526   */\n      add\n        /* \"#utility.yul\":8502:8549   */\n      mstore\n        /* \"#utility.yul\":8566:8697   */\n      tag_278\n        /* \"#utility.yul\":8692:8696   */\n      dup2\n        /* \"#utility.yul\":8566:8697   */\n      tag_242\n      jump\t// in\n    tag_278:\n        /* \"#utility.yul\":8558:8697   */\n      swap1\n      pop\n        /* \"#utility.yul\":8285:8704   */\n      swap2\n      swap1\n      pop\n      jump\t// out\n        /* \"#utility.yul\":8710:9129   */\n    tag_125:\n        /* \"#utility.yul\":8876:8880   */\n      0x00\n        /* \"#utility.yul\":8914:8916   */\n      0x20\n        /* \"#utility.yul\":8903:8912   */\n      dup3\n        /* \"#utility.yul\":8899:8917   */\n      add\n        /* \"#utility.yul\":8891:8917   */\n      swap1\n      pop\n        /* \"#utility.yul\":8963:8972   */\n      dup2\n        /* \"#utility.yul\":8957:8961   */\n      dup2\n        /* \"#utility.yul\":8953:8973   */\n      sub\n        /* \"#utility.yul\":8949:8950   */\n      0x00\n        /* \"#utility.yul\":8938:8947   */\n      dup4\n        /* \"#utility.yul\":8934:8951   */\n      add\n        /* \"#utility.yul\":8927:8974   */\n      mstore\n        /* \"#utility.yul\":8991:9122   */\n      tag_280\n        /* \"#utility.yul\":9117:9121   */\n      dup2\n        /* \"#utility.yul\":8991:9122   */\n      tag_247\n      jump\t// in\n    tag_280:\n        /* \"#utility.yul\":8983:9122   */\n      swap1\n      pop\n        /* \"#utility.yul\":8710:9129   */\n      swap2\n      swap1\n      pop\n      jump\t// out\n        /* \"#utility.yul\":9135:9554   */\n    tag_107:\n        /* \"#utility.yul\":9301:9305   */\n      0x00\n        /* \"#utility.yul\":9339:9341   */\n      0x20\n        /* \"#utility.yul\":9328:9337   */\n      dup3\n        /* \"#utility.yul\":9324:9342   */\n      add\n        /* \"#utility.yul\":9316:9342   */\n      swap1\n      pop\n        /* \"#utility.yul\":9388:9397   */\n      dup2\n        /* \"#utility.yul\":9382:9386   */\n      dup2\n        /* \"#utility.yul\":9378:9398   */\n      sub\n        /* \"#utility.yul\":9374:9375   */\n      0x00\n        /* \"#utility.yul\":9363:9372   */\n      dup4\n        /* \"#utility.yul\":9359:9376   */\n      add\n        /* \"#utility.yul\":9352:9399   */\n      mstore\n        /* \"#utility.yul\":9416:9547   */\n      tag_282\n        /* \"#utility.yul\":9542:9546   */\n      dup2\n        /* \"#utility.yul\":9416:9547   */\n      tag_252\n      jump\t// in\n    tag_282:\n        /* \"#utility.yul\":9408:9547   */\n      swap1\n      pop\n        /* \"#utility.yul\":9135:9554   */\n      swap2\n      swap1\n      pop\n      jump\t// out\n        /* \"#utility.yul\":9560:9782   */\n    tag_35:\n        /* \"#utility.yul\":9653:9657   */\n      0x00\n        /* \"#utility.yul\":9691:9693   */\n      0x20\n        /* \"#utility.yul\":9680:9689   */\n      dup3\n        /* \"#utility.yul\":9676:9694   */\n      add\n        /* \"#utility.yul\":9668:9694   */\n      swap1\n      pop\n        /* \"#utility.yul\":9704:9775   */\n      tag_284\n        /* \"#utility.yul\":9772:9773   */\n      0x00\n        /* \"#utility.yul\":9761:9770   */\n      dup4\n        /* \"#utility.yul\":9757:9774   */\n      add\n        /* \"#utility.yul\":9748:9754   */\n      dup5\n        /* \"#utility.yul\":9704:9775   */\n      tag_257\n      jump\t// in\n    tag_284:\n        /* \"#utility.yul\":9560:9782   */\n      swap3\n      swap2\n      pop\n      pop\n      jump\t// out\n        /* \"#utility.yul\":9788:10230   */\n    tag_71:\n        /* \"#utility.yul\":9937:9941   */\n      0x00\n        /* \"#utility.yul\":9975:9977   */\n      0x60\n        /* \"#utility.yul\":9964:9973   */\n      dup3\n        /* \"#utility.yul\":9960:9978   */\n      add\n        /* \"#utility.yul\":9952:9978   */\n      swap1\n      pop\n        /* \"#utility.yul\":9988:10059   */\n      tag_286\n        /* \"#utility.yul\":10056:10057   */\n      0x00\n        /* \"#utility.yul\":10045:10054   */\n      dup4\n        /* \"#utility.yul\":10041:10058   */\n      add\n        /* \"#utility.yul\":10032:10038   */\n      dup7\n        /* \"#utility.yul\":9988:10059   */\n      tag_257\n      jump\t// in\n    tag_286:\n        /* \"#utility.yul\":10069:10141   */\n      tag_287\n        /* \"#utility.yul\":10137:10139   */\n      0x20\n        /* \"#utility.yul\":10126:10135   */\n      dup4\n        /* \"#utility.yul\":10122:10140   */\n      add\n        /* \"#utility.yul\":10113:10119   */\n      dup6\n        /* \"#utility.yul\":10069:10141   */\n      tag_257\n      jump\t// in\n    tag_287:\n        /* \"#utility.yul\":10151:10223   */\n      tag_288\n        /* \"#utility.yul\":10219:10221   */\n      0x40\n        /* \"#utility.yul\":10208:10217   */\n      dup4\n        /* \"#utility.yul\":10204:10222   */\n      add\n        /* \"#utility.yul\":10195:10201   */\n      dup5\n        /* \"#utility.yul\":10151:10223   */\n      tag_257\n      jump\t// in\n    tag_288:\n        /* \"#utility.yul\":9788:10230   */\n      swap5\n      swap4\n      pop\n      pop\n      pop\n      pop\n      jump\t// out\n        /* \"#utility.yul\":10317:10486   */\n    tag_214:\n        /* \"#utility.yul\":10401:10412   */\n      0x00\n        /* \"#utility.yul\":10435:10441   */\n      dup3\n        /* \"#utility.yul\":10430:10433   */\n      dup3\n        /* \"#utility.yul\":10423:10442   */\n      mstore\n        /* \"#utility.yul\":10475:10479   */\n      0x20\n        /* \"#utility.yul\":10470:10473   */\n      dup3\n        /* \"#utility.yul\":10466:10480   */\n      add\n        /* \"#utility.yul\":10451:10480   */\n      swap1\n      pop\n        /* \"#utility.yul\":10317:10486   */\n      swap3\n      swap2\n      pop\n      pop\n      jump\t// out\n        /* \"#utility.yul\":10492:10797   */\n    tag_121:\n        /* \"#utility.yul\":10532:10535   */\n      0x00\n        /* \"#utility.yul\":10551:10571   */\n      tag_293\n        /* \"#utility.yul\":10569:10570   */\n      dup3\n        /* \"#utility.yul\":10551:10571   */\n      tag_260\n      jump\t// in\n    tag_293:\n        /* \"#utility.yul\":10546:10571   */\n      swap2\n      pop\n        /* \"#utility.yul\":10585:10605   */\n      tag_294\n        /* \"#utility.yul\":10603:10604   */\n      dup4\n        /* \"#utility.yul\":10585:10605   */\n      tag_260\n      jump\t// in\n    tag_294:\n        /* \"#utility.yul\":10580:10605   */\n      swap3\n      pop\n        /* \"#utility.yul\":10739:10740   */\n      dup3\n        /* \"#utility.yul\":10671:10737   */\n      0xffffffffffffffffffffffffffffffffffffffffffffffffffffffffffffffff\n        /* \"#utility.yul\":10667:10741   */\n      sub\n        /* \"#utility.yul\":10664:10665   */\n      dup3\n        /* \"#utility.yul\":10661:10742   */\n      gt\n        /* \"#utility.yul\":10658:10765   */\n      iszero\n      tag_295\n      jumpi\n        /* \"#utility.yul\":10745:10763   */\n      tag_296\n      tag_297\n      jump\t// in\n    tag_296:\n        /* \"#utility.yul\":10658:10765   */\n    tag_295:\n        /* \"#utility.yul\":10789:10790   */\n      dup3\n        /* \"#utility.yul\":10786:10787   */\n      dup3\n        /* \"#utility.yul\":10782:10791   */\n      add\n        /* \"#utility.yul\":10775:10791   */\n      swap1\n      pop\n        /* \"#utility.yul\":10492:10797   */\n      swap3\n      swap2\n      pop\n      pop\n      jump\t// out\n        /* \"#utility.yul\":10803:10988   */\n    tag_119:\n        /* \"#utility.yul\":10843:10844   */\n      0x00\n        /* \"#utility.yul\":10860:10880   */\n      tag_299\n        /* \"#utility.yul\":10878:10879   */\n      dup3\n        /* \"#utility.yul\":10860:10880   */\n      tag_260\n      jump\t// in\n    tag_299:\n        /* \"#utility.yul\":10855:10880   */\n      swap2\n      pop\n        /* \"#utility.yul\":10894:10914   */\n      tag_300\n        /* \"#utility.yul\":10912:10913   */\n      dup4\n        /* \"#utility.yul\":10894:10914   */\n      tag_260\n      jump\t// in\n    tag_300:\n        /* \"#utility.yul\":10889:10914   */\n      swap3\n      pop\n        /* \"#utility.yul\":10933:10934   */\n      dup3\n        /* \"#utility.yul\":10923:10958   */\n      tag_301\n      jumpi\n        /* \"#utility.yul\":10938:10956   */\n      tag_302\n      tag_303\n      jump\t// in\n    tag_302:\n        /* \"#utility.yul\":10923:10958   */\n    tag_301:\n        /* \"#utility.yul\":10980:10981   */\n      dup3\n        /* \"#utility.yul\":10977:10978   */\n      dup3\n        /* \"#utility.yul\":10973:10982   */\n      div\n        /* \"#utility.yul\":10968:10982   */\n      swap1\n      pop\n        /* \"#utility.yul\":10803:10988   */\n      swap3\n      swap2\n      pop\n      pop\n      jump\t// out\n        /* \"#utility.yul\":10994:11342   */\n    tag_117:\n        /* \"#utility.yul\":11034:11041   */\n      0x00\n        /* \"#utility.yul\":11057:11077   */\n      tag_305\n        /* \"#utility.yul\":11075:11076   */\n      dup3\n        /* \"#utility.yul\":11057:11077   */\n      tag_260\n      jump\t// in\n    tag_305:\n        /* \"#utility.yul\":11052:11077   */\n      swap2\n      pop\n        /* \"#utility.yul\":11091:11111   */\n      tag_306\n        /* \"#utility.yul\":11109:11110   */\n      dup4\n        /* \"#utility.yul\":11091:11111   */\n      tag_260\n      jump\t// in\n    tag_306:\n        /* \"#utility.yul\":11086:11111   */\n      swap3\n      pop\n        /* \"#utility.yul\":11279:11280   */\n      dup2\n        /* \"#utility.yul\":11211:11277   */\n      0xffffffffffffffffffffffffffffffffffffffffffffffffffffffffffffffff\n        /* \"#utility.yul\":11207:11281   */\n      div\n        /* \"#utility.yul\":11204:11205   */\n      dup4\n        /* \"#utility.yul\":11201:11282   */\n      gt\n        /* \"#utility.yul\":11196:11197   */\n      dup3\n        /* \"#utility.yul\":11189:11198   */\n      iszero\n        /* \"#utility.yul\":11182:11199   */\n      iszero\n        /* \"#utility.yul\":11178:11283   */\n      and\n        /* \"#utility.yul\":11175:11306   */\n      iszero\n      tag_307\n      jumpi\n        /* \"#utility.yul\":11286:11304   */\n      tag_308\n      tag_297\n      jump\t// in\n    tag_308:\n        /* \"#utility.yul\":11175:11306   */\n    tag_307:\n        /* \"#utility.yul\":11334:11335   */\n      dup3\n        /* \"#utility.yul\":11331:11332   */\n      dup3\n        /* \"#utility.yul\":11327:11336   */\n      mul\n        /* \"#utility.yul\":11316:11336   */\n      swap1\n      pop\n        /* \"#utility.yul\":10994:11342   */\n      swap3\n      swap2\n      pop\n      pop\n      jump\t// out\n        /* \"#utility.yul\":11348:11539   */\n    tag_142:\n        /* \"#utility.yul\":11388:11392   */\n      0x00\n        /* \"#utility.yul\":11408:11428   */\n      tag_310\n        /* \"#utility.yul\":11426:11427   */\n      dup3\n        /* \"#utility.yul\":11408:11428   */\n      tag_260\n      jump\t// in\n    tag_310:\n        /* \"#utility.yul\":11403:11428   */\n      swap2\n      pop\n        /* \"#utility.yul\":11442:11462   */\n      tag_311\n        /* \"#utility.yul\":11460:11461   */\n      dup4\n        /* \"#utility.yul\":11442:11462   */\n      tag_260\n      jump\t// in\n    tag_311:\n        /* \"#utility.yul\":11437:11462   */\n      swap3\n      pop\n        /* \"#utility.yul\":11481:11482   */\n      dup3\n        /* \"#utility.yul\":11478:11479   */\n      dup3\n        /* \"#utility.yul\":11475:11483   */\n      lt\n        /* \"#utility.yul\":11472:11506   */\n      iszero\n      tag_312\n      jumpi\n        /* \"#utility.yul\":11486:11504   */\n      tag_313\n      tag_297\n      jump\t// in\n    tag_313:\n        /* \"#utility.yul\":11472:11506   */\n    tag_312:\n        /* \"#utility.yul\":11531:11532   */\n      dup3\n        /* \"#utility.yul\":11528:11529   */\n      dup3\n        /* \"#utility.yul\":11524:11533   */\n      sub\n        /* \"#utility.yul\":11516:11533   */\n      swap1\n      pop\n        /* \"#utility.yul\":11348:11539   */\n      swap3\n      swap2\n      pop\n      pop\n      jump\t// out\n        /* \"#utility.yul\":11545:11641   */\n    tag_206:\n        /* \"#utility.yul\":11582:11589   */\n      0x00\n        /* \"#utility.yul\":11611:11635   */\n      tag_315\n        /* \"#utility.yul\":11629:11634   */\n      dup3\n        /* \"#utility.yul\":11611:11635   */\n      tag_316\n      jump\t// in\n    tag_315:\n        /* \"#utility.yul\":11600:11635   */\n      swap1\n      pop\n        /* \"#utility.yul\":11545:11641   */\n      swap2\n      swap1\n      pop\n      jump\t// out\n        /* \"#utility.yul\":11647:11737   */\n    tag_210:\n        /* \"#utility.yul\":11681:11688   */\n      0x00\n        /* \"#utility.yul\":11724:11729   */\n      dup2\n        /* \"#utility.yul\":11717:11730   */\n      iszero\n        /* \"#utility.yul\":11710:11731   */\n      iszero\n        /* \"#utility.yul\":11699:11731   */\n      swap1\n      pop\n        /* \"#utility.yul\":11647:11737   */\n      swap2\n      swap1\n      pop\n      jump\t// out\n        /* \"#utility.yul\":11743:11869   */\n    tag_316:\n        /* \"#utility.yul\":11780:11787   */\n      0x00\n        /* \"#utility.yul\":11820:11862   */\n      0xffffffffffffffffffffffffffffffffffffffff\n        /* \"#utility.yul\":11813:11818   */\n      dup3\n        /* \"#utility.yul\":11809:11863   */\n      and\n        /* \"#utility.yul\":11798:11863   */\n      swap1\n      pop\n        /* \"#utility.yul\":11743:11869   */\n      swap2\n      swap1\n      pop\n      jump\t// out\n        /* \"#utility.yul\":11875:11952   */\n    tag_260:\n        /* \"#utility.yul\":11912:11919   */\n      0x00\n        /* \"#utility.yul\":11941:11946   */\n      dup2\n        /* \"#utility.yul\":11930:11946   */\n      swap1\n      pop\n        /* \"#utility.yul\":11875:11952   */\n      swap2\n      swap1\n      pop\n      jump\t// out\n        /* \"#utility.yul\":11958:12191   */\n    tag_157:\n        /* \"#utility.yul\":11997:12000   */\n      0x00\n        /* \"#utility.yul\":12020:12044   */\n      tag_321\n        /* \"#utility.yul\":12038:12043   */\n      dup3\n        /* \"#utility.yul\":12020:12044   */\n      tag_260\n      jump\t// in\n    tag_321:\n        /* \"#utility.yul\":12011:12044   */\n      swap2\n      pop\n        /* \"#utility.yul\":12066:12132   */\n      0xffffffffffffffffffffffffffffffffffffffffffffffffffffffffffffffff\n        /* \"#utility.yul\":12059:12064   */\n      dup3\n        /* \"#utility.yul\":12056:12133   */\n      eq\n        /* \"#utility.yul\":12053:12156   */\n      iszero\n      tag_322\n      jumpi\n        /* \"#utility.yul\":12136:12154   */\n      tag_323\n      tag_297\n      jump\t// in\n    tag_323:\n        /* \"#utility.yul\":12053:12156   */\n    tag_322:\n        /* \"#utility.yul\":12183:12184   */\n      0x01\n        /* \"#utility.yul\":12176:12181   */\n      dup3\n        /* \"#utility.yul\":12172:12185   */\n      add\n        /* \"#utility.yul\":12165:12185   */\n      swap1\n      pop\n        /* \"#utility.yul\":11958:12191   */\n      swap2\n      swap1\n      pop\n      jump\t// out\n        /* \"#utility.yul\":12197:12377   */\n    tag_297:\n        /* \"#utility.yul\":12245:12322   */\n      0x4e487b7100000000000000000000000000000000000000000000000000000000\n        /* \"#utility.yul\":12242:12243   */\n      0x00\n        /* \"#utility.yul\":12235:12323   */\n      mstore\n        /* \"#utility.yul\":12342:12346   */\n      0x11\n        /* \"#utility.yul\":12339:12340   */\n      0x04\n        /* \"#utility.yul\":12332:12347   */\n      mstore\n        /* \"#utility.yul\":12366:12370   */\n      0x24\n        /* \"#utility.yul\":12363:12364   */\n      0x00\n        /* \"#utility.yul\":12356:12371   */\n      revert\n        /* \"#utility.yul\":12383:12563   */\n    tag_303:\n        /* \"#utility.yul\":12431:12508   */\n      0x4e487b7100000000000000000000000000000000000000000000000000000000\n        /* \"#utility.yul\":12428:12429   */\n      0x00\n        /* \"#utility.yul\":12421:12509   */\n      mstore\n        /* \"#utility.yul\":12528:12532   */\n      0x12\n        /* \"#utility.yul\":12525:12526   */\n      0x04\n        /* \"#utility.yul\":12518:12533   */\n      mstore\n        /* \"#utility.yul\":12552:12556   */\n      0x24\n        /* \"#utility.yul\":12549:12550   */\n      0x00\n        /* \"#utility.yul\":12542:12557   */\n      revert\n        /* \"#utility.yul\":12569:12749   */\n    tag_99:\n        /* \"#utility.yul\":12617:12694   */\n      0x4e487b7100000000000000000000000000000000000000000000000000000000\n        /* \"#utility.yul\":12614:12615   */\n      0x00\n        /* \"#utility.yul\":12607:12695   */\n      mstore\n        /* \"#utility.yul\":12714:12718   */\n      0x32\n        /* \"#utility.yul\":12711:12712   */\n      0x04\n        /* \"#utility.yul\":12704:12719   */\n      mstore\n        /* \"#utility.yul\":12738:12742   */\n      0x24\n        /* \"#utility.yul\":12735:12736   */\n      0x00\n        /* \"#utility.yul\":12728:12743   */\n      revert\n        /* \"#utility.yul\":12878:12995   */\n    tag_192:\n        /* \"#utility.yul\":12987:12988   */\n      0x00\n        /* \"#utility.yul\":12984:12985   */\n      dup1\n        /* \"#utility.yul\":12977:12989   */\n      revert\n        /* \"#utility.yul\":13001:13175   */\n    tag_216:\n        /* \"#utility.yul\":13141:13167   */\n      0x63616c6c6572206d75737420626520746865206f776e65720000000000000000\n        /* \"#utility.yul\":13137:13138   */\n      0x00\n        /* \"#utility.yul\":13129:13135   */\n      dup3\n        /* \"#utility.yul\":13125:13139   */\n      add\n        /* \"#utility.yul\":13118:13168   */\n      mstore\n        /* \"#utility.yul\":13001:13175   */\n      pop\n      jump\t// out\n        /* \"#utility.yul\":13181:13352   */\n    tag_221:\n        /* \"#utility.yul\":13321:13344   */\n      0x596f7520617265206e6f7420746865206f776e65720000000000000000000000\n        /* \"#utility.yul\":13317:13318   */\n      0x00\n        /* \"#utility.yul\":13309:13315   */\n      dup3\n        /* \"#utility.yul\":13305:13319   */\n      add\n        /* \"#utility.yul\":13298:13345   */\n      mstore\n        /* \"#utility.yul\":13181:13352   */\n      pop\n      jump\t// out\n        /* \"#utility.yul\":13358:13578   */\n    tag_226:\n        /* \"#utility.yul\":13498:13532   */\n      0x4f6e6c79206f776e65722063616e2070617573652074686520636f6e74726163\n        /* \"#utility.yul\":13494:13495   */\n      0x00\n        /* \"#utility.yul\":13486:13492   */\n      dup3\n        /* \"#utility.yul\":13482:13496   */\n      add\n        /* \"#utility.yul\":13475:13533   */\n      mstore\n        /* \"#utility.yul\":13567:13570   */\n      0x7400000000000000000000000000000000000000000000000000000000000000\n        /* \"#utility.yul\":13562:13564   */\n      0x20\n        /* \"#utility.yul\":13554:13560   */\n      dup3\n        /* \"#utility.yul\":13550:13565   */\n      add\n        /* \"#utility.yul\":13543:13571   */\n      mstore\n        /* \"#utility.yul\":13358:13578   */\n      pop\n      jump\t// out\n        /* \"#utility.yul\":13584:13765   */\n    tag_231:\n        /* \"#utility.yul\":13724:13757   */\n      0x4f6e6c79206f776e65722063616e207769746864726177207468652074617800\n        /* \"#utility.yul\":13720:13721   */\n      0x00\n        /* \"#utility.yul\":13712:13718   */\n      dup3\n        /* \"#utility.yul\":13708:13722   */\n      add\n        /* \"#utility.yul\":13701:13758   */\n      mstore\n        /* \"#utility.yul\":13584:13765   */\n      pop\n      jump\t// out\n        /* \"#utility.yul\":13771:13948   */\n    tag_236:\n        /* \"#utility.yul\":13911:13940   */\n      0x66756e64732063616e6e6f74206265206c657373207468616e20300000000000\n        /* \"#utility.yul\":13907:13908   */\n      0x00\n        /* \"#utility.yul\":13899:13905   */\n      dup3\n        /* \"#utility.yul\":13895:13909   */\n      add\n        /* \"#utility.yul\":13888:13941   */\n      mstore\n        /* \"#utility.yul\":13771:13948   */\n      pop\n      jump\t// out\n        /* \"#utility.yul\":13954:14122   */\n    tag_241:\n        /* \"#utility.yul\":14094:14114   */\n      0x616d6f756e742063616e6e6f7420626520300000000000000000000000000000\n        /* \"#utility.yul\":14090:14091   */\n      0x00\n        /* \"#utility.yul\":14082:14088   */\n      dup3\n        /* \"#utility.yul\":14078:14092   */\n      add\n        /* \"#utility.yul\":14071:14115   */\n      mstore\n        /* \"#utility.yul\":13954:14122   */\n      pop\n      jump\t// out\n        /* \"#utility.yul\":14128:14291   */\n    tag_246:\n        /* \"#utility.yul\":14268:14283   */\n      0x5573657220426c6f636b65642100000000000000000000000000000000000000\n        /* \"#utility.yul\":14264:14265   */\n      0x00\n        /* \"#utility.yul\":14256:14262   */\n      dup3\n        /* \"#utility.yul\":14252:14266   */\n      add\n        /* \"#utility.yul\":14245:14284   */\n      mstore\n        /* \"#utility.yul\":14128:14291   */\n      pop\n      jump\t// out\n        /* \"#utility.yul\":14297:14476   */\n    tag_251:\n        /* \"#utility.yul\":14437:14468   */\n      0x4f6e6c79206f776e65722063616e20626c6f636b207468652075736572000000\n        /* \"#utility.yul\":14433:14434   */\n      0x00\n        /* \"#utility.yul\":14425:14431   */\n      dup3\n        /* \"#utility.yul\":14421:14435   */\n      add\n        /* \"#utility.yul\":14414:14469   */\n      mstore\n        /* \"#utility.yul\":14297:14476   */\n      pop\n      jump\t// out\n        /* \"#utility.yul\":14482:14647   */\n    tag_256:\n        /* \"#utility.yul\":14622:14639   */\n      0x436f6e7472616374205061757365640000000000000000000000000000000000\n        /* \"#utility.yul\":14618:14619   */\n      0x00\n        /* \"#utility.yul\":14610:14616   */\n      dup3\n        /* \"#utility.yul\":14606:14620   */\n      add\n        /* \"#utility.yul\":14599:14640   */\n      mstore\n        /* \"#utility.yul\":14482:14647   */\n      pop\n      jump\t// out\n        /* \"#utility.yul\":14653:14775   */\n    tag_180:\n        /* \"#utility.yul\":14726:14750   */\n      tag_340\n        /* \"#utility.yul\":14744:14749   */\n      dup2\n        /* \"#utility.yul\":14726:14750   */\n      tag_206\n      jump\t// in\n    tag_340:\n        /* \"#utility.yul\":14719:14724   */\n      dup2\n        /* \"#utility.yul\":14716:14751   */\n      eq\n        /* \"#utility.yul\":14706:14769   */\n      tag_341\n      jumpi\n        /* \"#utility.yul\":14765:14766   */\n      0x00\n        /* \"#utility.yul\":14762:14763   */\n      dup1\n        /* \"#utility.yul\":14755:14767   */\n      revert\n        /* \"#utility.yul\":14706:14769   */\n    tag_341:\n        /* \"#utility.yul\":14653:14775   */\n      pop\n      jump\t// out\n        /* \"#utility.yul\":14781:14897   */\n    tag_184:\n        /* \"#utility.yul\":14851:14872   */\n      tag_343\n        /* \"#utility.yul\":14866:14871   */\n      dup2\n        /* \"#utility.yul\":14851:14872   */\n      tag_210\n      jump\t// in\n    tag_343:\n        /* \"#utility.yul\":14844:14849   */\n      dup2\n        /* \"#utility.yul\":14841:14873   */\n      eq\n        /* \"#utility.yul\":14831:14891   */\n      tag_344\n      jumpi\n        /* \"#utility.yul\":14887:14888   */\n      0x00\n        /* \"#utility.yul\":14884:14885   */\n      dup1\n        /* \"#utility.yul\":14877:14889   */\n      revert\n        /* \"#utility.yul\":14831:14891   */\n    tag_344:\n        /* \"#utility.yul\":14781:14897   */\n      pop\n      jump\t// out\n        /* \"#utility.yul\":14903:15025   */\n    tag_188:\n        /* \"#utility.yul\":14976:15000   */\n      tag_346\n        /* \"#utility.yul\":14994:14999   */\n      dup2\n        /* \"#utility.yul\":14976:15000   */\n      tag_260\n      jump\t// in\n    tag_346:\n        /* \"#utility.yul\":14969:14974   */\n      dup2\n        /* \"#utility.yul\":14966:15001   */\n      eq\n        /* \"#utility.yul\":14956:15019   */\n      tag_347\n      jumpi\n        /* \"#utility.yul\":15015:15016   */\n      0x00\n        /* \"#utility.yul\":15012:15013   */\n      dup1\n        /* \"#utility.yul\":15005:15017   */\n      revert\n        /* \"#utility.yul\":14956:15019   */\n    tag_347:\n        /* \"#utility.yul\":14903:15025   */\n      pop\n      jump\t// out\n\n    auxdata: 0xa26469706673582212200d18c08ec962e059f51e480212de7d2b5d5d71c865cb3f48660ed3092362f9c464736f6c63430008070033\n}\n",
				"bytecode": {
					"linkReferences": {},
					"object": "608060405234801561001057600080fd5b50336000806101000a81548173ffffffffffffffffffffffffffffffffffffffff021916908373ffffffffffffffffffffffffffffffffffffffff160217905550611709806100606000396000f3fe6080604052600436106100f35760003560e01c80635c975abb1161008a5780638da5cb5b116100595780638da5cb5b146102c8578063b0370e0c146102f3578063c93c8f34146102fd578063dfa20f0a1461033a576100f3565b80635c975abb146101f85780636f49712b1461022357806375c96c5d1461026057806388b22c2414610289576100f3565b8063228cb733116100c6578063228cb73314610181578063439766ce146101ac5780634626402b146101c357806351ed6a30146101ee576100f3565b8063021a89ad146100f857806316c38b3c146101235780631a39d8ef1461014c57806320eb640c14610177575b600080fd5b34801561010457600080fd5b5061010d610351565b60405161011a9190611121565b60405180910390f35b34801561012f57600080fd5b5061014a60048036038101906101459190610f71565b610364565b005b34801561015857600080fd5b5061016161040f565b60405161016e919061125c565b60405180910390f35b61017f610415565b005b34801561018d57600080fd5b50610196610569565b6040516101a3919061125c565b60405180910390f35b3480156101b857600080fd5b506101c161056f565b005b3480156101cf57600080fd5b506101d8610655565b6040516101e5919061125c565b60405180910390f35b6101f661065b565b005b34801561020457600080fd5b5061020d61087e565b60405161021a9190611121565b60405180910390f35b34801561022f57600080fd5b5061024a60048036038101906102459190610f04565b610891565b6040516102579190611121565b60405180910390f35b34801561026c57600080fd5b5061028760048036038101906102829190610f71565b6108b1565b005b34801561029557600080fd5b506102b060048036038101906102ab9190610f31565b61095c565b6040516102bf93929190611277565b60405180910390f35b3480156102d457600080fd5b506102dd6109a3565b6040516102ea9190611106565b60405180910390f35b6102fb6109c7565b005b34801561030957600080fd5b50610324600480360381019061031f9190610f04565b610ddb565b6040516103319190611121565b60405180910390f35b34801561034657600080fd5b5061034f610dfb565b005b600060159054906101000a900460ff1681565b60008054906101000a900473ffffffffffffffffffffffffffffffffffffffff1673ffffffffffffffffffffffffffffffffffffffff163373ffffffffffffffffffffffffffffffffffffffff16146103f2576040517f08c379a00000000000000000000000000000000000000000000000000000000081526004016103e99061115c565b60405180910390fd5b80600060146101000a81548160ff02191690831515021790555050565b60095481565b60006002600001541161045d576040517f08c379a0000000000000000000000000000000000000000000000000000000008152600401610454906111bc565b60405180910390fd5b3373ffffffffffffffffffffffffffffffffffffffff166108fc6009549081150290604051600060405180830381858888f193505050501580156104a5573d6000803e3d6000fd5b506000600560003373ffffffffffffffffffffffffffffffffffffffff1673ffffffffffffffffffffffffffffffffffffffff1681526020019081526020016000206000815481106104fa576104f96114c3565b5b9060005260206000209060030201600001819055506000600760003373ffffffffffffffffffffffffffffffffffffffff1673ffffffffffffffffffffffffffffffffffffffff16815260200190815260200160002060006101000a81548160ff021916908315150217905550565b60085481565b60008054906101000a900473ffffffffffffffffffffffffffffffffffffffff1673ffffffffffffffffffffffffffffffffffffffff163373ffffffffffffffffffffffffffffffffffffffff16146105fd576040517f08c379a00000000000000000000000000000000000000000000000000000000081526004016105f49061117c565b60405180910390fd5b60001515600060149054906101000a900460ff16151514610653576040517f08c379a000000000000000000000000000000000000000000000000000000000815260040161064a9061123c565b60405180910390fd5b565b60015481565b6000341161069e576040517f08c379a0000000000000000000000000000000000000000000000000000000008152600401610695906111dc565b60405180910390fd5b60001515600060159054906101000a900460ff161515146106f4576040517f08c379a00000000000000000000000000000000000000000000000000000000081526004016106eb906111fc565b60405180910390fd5b3460026000018190555042600260010181905550600560003373ffffffffffffffffffffffffffffffffffffffff1673ffffffffffffffffffffffffffffffffffffffff1681526020019081526020016000206002908060018154018082558091505060019003906000526020600020906003020160009091909190915060008201548160000155600182015481600101556002820154816002015550506000606460056002600001546107a89190611346565b6107b29190611315565b9050806002600001546107c591906112bf565b6001819055506001600760003373ffffffffffffffffffffffffffffffffffffffff1673ffffffffffffffffffffffffffffffffffffffff16815260200190815260200160002060006101000a81548160ff0219169083151502179055506001600660003373ffffffffffffffffffffffffffffffffffffffff1673ffffffffffffffffffffffffffffffffffffffff16815260200190815260200160002060006101000a81548160ff02191690831515021790555050565b600060149054906101000a900460ff1681565b60076020528060005260406000206000915054906101000a900460ff1681565b60008054906101000a900473ffffffffffffffffffffffffffffffffffffffff1673ffffffffffffffffffffffffffffffffffffffff163373ffffffffffffffffffffffffffffffffffffffff161461093f576040517f08c379a00000000000000000000000000000000000000000000000000000000081526004016109369061121c565b60405180910390fd5b80600060156101000a81548160ff02191690831515021790555050565b6005602052816000526040600020818154811061097857600080fd5b9060005260206000209060030201600091509150508060000154908060010154908060020154905083565b60008054906101000a900473ffffffffffffffffffffffffffffffffffffffff1681565b60008054906101000a900473ffffffffffffffffffffffffffffffffffffffff1673ffffffffffffffffffffffffffffffffffffffff163373ffffffffffffffffffffffffffffffffffffffff1614610a55576040517f08c379a0000000000000000000000000000000000000000000000000000000008152600401610a4c9061113c565b60405180910390fd5b60005b600560003373ffffffffffffffffffffffffffffffffffffffff1673ffffffffffffffffffffffffffffffffffffffff16815260200190815260200160002080549050811015610cb5576000600560003373ffffffffffffffffffffffffffffffffffffffff1673ffffffffffffffffffffffffffffffffffffffff1681526020019081526020016000208281548110610af557610af46114c3565b5b90600052602060002090600302016000015490506283d600600560003373ffffffffffffffffffffffffffffffffffffffff1673ffffffffffffffffffffffffffffffffffffffff1681526020019081526020016000208381548110610b5e57610b5d6114c3565b5b90600052602060002090600302016001015442610b7b91906113a0565b1015610ca157606481600a600560003373ffffffffffffffffffffffffffffffffffffffff1673ffffffffffffffffffffffffffffffffffffffff1681526020019081526020016000208581548110610bd757610bd66114c3565b5b90600052602060002090600302016001015442610bf491906113a0565b610bfe9190611315565b610c089190611346565b610c129190611315565b60086000828254610c2391906112bf565b92505081905550600854600560003373ffffffffffffffffffffffffffffffffffffffff1673ffffffffffffffffffffffffffffffffffffffff1681526020019081526020016000208381548110610c7e57610c7d6114c3565b5b906000526020600020906003020160000154610c9a91906112bf565b6009819055505b508080610cad9061141c565b915050610a58565b5060005b600560003373ffffffffffffffffffffffffffffffffffffffff1673ffffffffffffffffffffffffffffffffffffffff16815260200190815260200160002080549050811015610dd8576283d600600560003373ffffffffffffffffffffffffffffffffffffffff1673ffffffffffffffffffffffffffffffffffffffff1681526020019081526020016000208281548110610d5857610d576114c3565b5b90600052602060002090600302016002015442610d7591906113a0565b1015610dc5573373ffffffffffffffffffffffffffffffffffffffff166108fc6008549081150290604051600060405180830381858888f19350505050158015610dc3573d6000803e3d6000fd5b505b8080610dd09061141c565b915050610cb9565b50565b60066020528060005260406000206000915054906101000a900460ff1681565b60008054906101000a900473ffffffffffffffffffffffffffffffffffffffff1673ffffffffffffffffffffffffffffffffffffffff163373ffffffffffffffffffffffffffffffffffffffff1614610e89576040517f08c379a0000000000000000000000000000000000000000000000000000000008152600401610e809061119c565b60405180910390fd5b600060646005600260000154610e9f9190611346565b610ea99190611315565b905080600260000154610ebc91906113a0565b60018190555050565b600081359050610ed48161168e565b92915050565b600081359050610ee9816116a5565b92915050565b600081359050610efe816116bc565b92915050565b600060208284031215610f1a57610f196114f2565b5b6000610f2884828501610ec5565b91505092915050565b60008060408385031215610f4857610f476114f2565b5b6000610f5685828601610ec5565b9250506020610f6785828601610eef565b9150509250929050565b600060208284031215610f8757610f866114f2565b5b6000610f9584828501610eda565b91505092915050565b610fa7816113d4565b82525050565b610fb6816113e6565b82525050565b6000610fc96018836112ae565b9150610fd4826114f7565b602082019050919050565b6000610fec6015836112ae565b9150610ff782611520565b602082019050919050565b600061100f6021836112ae565b915061101a82611549565b604082019050919050565b6000611032601f836112ae565b915061103d82611598565b602082019050919050565b6000611055601b836112ae565b9150611060826115c1565b602082019050919050565b60006110786012836112ae565b9150611083826115ea565b602082019050919050565b600061109b600d836112ae565b91506110a682611613565b602082019050919050565b60006110be601d836112ae565b91506110c98261163c565b602082019050919050565b60006110e1600f836112ae565b91506110ec82611665565b602082019050919050565b61110081611412565b82525050565b600060208201905061111b6000830184610f9e565b92915050565b60006020820190506111366000830184610fad565b92915050565b6000602082019050818103600083015261115581610fbc565b9050919050565b6000602082019050818103600083015261117581610fdf565b9050919050565b6000602082019050818103600083015261119581611002565b9050919050565b600060208201905081810360008301526111b581611025565b9050919050565b600060208201905081810360008301526111d581611048565b9050919050565b600060208201905081810360008301526111f58161106b565b9050919050565b600060208201905081810360008301526112158161108e565b9050919050565b60006020820190508181036000830152611235816110b1565b9050919050565b60006020820190508181036000830152611255816110d4565b9050919050565b600060208201905061127160008301846110f7565b92915050565b600060608201905061128c60008301866110f7565b61129960208301856110f7565b6112a660408301846110f7565b949350505050565b600082825260208201905092915050565b60006112ca82611412565b91506112d583611412565b9250827fffffffffffffffffffffffffffffffffffffffffffffffffffffffffffffffff0382111561130a57611309611465565b5b828201905092915050565b600061132082611412565b915061132b83611412565b92508261133b5761133a611494565b5b828204905092915050565b600061135182611412565b915061135c83611412565b9250817fffffffffffffffffffffffffffffffffffffffffffffffffffffffffffffffff048311821515161561139557611394611465565b5b828202905092915050565b60006113ab82611412565b91506113b683611412565b9250828210156113c9576113c8611465565b5b828203905092915050565b60006113df826113f2565b9050919050565b60008115159050919050565b600073ffffffffffffffffffffffffffffffffffffffff82169050919050565b6000819050919050565b600061142782611412565b91507fffffffffffffffffffffffffffffffffffffffffffffffffffffffffffffffff82141561145a57611459611465565b5b600182019050919050565b7f4e487b7100000000000000000000000000000000000000000000000000000000600052601160045260246000fd5b7f4e487b7100000000000000000000000000000000000000000000000000000000600052601260045260246000fd5b7f4e487b7100000000000000000000000000000000000000000000000000000000600052603260045260246000fd5b600080fd5b7f63616c6c6572206d75737420626520746865206f776e65720000000000000000600082015250565b7f596f7520617265206e6f7420746865206f776e65720000000000000000000000600082015250565b7f4f6e6c79206f776e65722063616e2070617573652074686520636f6e7472616360008201527f7400000000000000000000000000000000000000000000000000000000000000602082015250565b7f4f6e6c79206f776e65722063616e207769746864726177207468652074617800600082015250565b7f66756e64732063616e6e6f74206265206c657373207468616e20300000000000600082015250565b7f616d6f756e742063616e6e6f7420626520300000000000000000000000000000600082015250565b7f5573657220426c6f636b65642100000000000000000000000000000000000000600082015250565b7f4f6e6c79206f776e65722063616e20626c6f636b207468652075736572000000600082015250565b7f436f6e7472616374205061757365640000000000000000000000000000000000600082015250565b611697816113d4565b81146116a257600080fd5b50565b6116ae816113e6565b81146116b957600080fd5b50565b6116c581611412565b81146116d057600080fd5b5056fea26469706673582212200d18c08ec962e059f51e480212de7d2b5d5d71c865cb3f48660ed3092362f9c464736f6c63430008070033",
					"opcodes": "PUSH1 0x80 PUSH1 0x40 MSTORE CALLVALUE DUP1 ISZERO PUSH2 0x10 JUMPI PUSH1 0x0 DUP1 REVERT JUMPDEST POP CALLER PUSH1 0x0 DUP1 PUSH2 0x100 EXP DUP2 SLOAD DUP2 PUSH20 0xFFFFFFFFFFFFFFFFFFFFFFFFFFFFFFFFFFFFFFFF MUL NOT AND SWAP1 DUP4 PUSH20 0xFFFFFFFFFFFFFFFFFFFFFFFFFFFFFFFFFFFFFFFF AND MUL OR SWAP1 SSTORE POP PUSH2 0x1709 DUP1 PUSH2 0x60 PUSH1 0x0 CODECOPY PUSH1 0x0 RETURN INVALID PUSH1 0x80 PUSH1 0x40 MSTORE PUSH1 0x4 CALLDATASIZE LT PUSH2 0xF3 JUMPI PUSH1 0x0 CALLDATALOAD PUSH1 0xE0 SHR DUP1 PUSH4 0x5C975ABB GT PUSH2 0x8A JUMPI DUP1 PUSH4 0x8DA5CB5B GT PUSH2 0x59 JUMPI DUP1 PUSH4 0x8DA5CB5B EQ PUSH2 0x2C8 JUMPI DUP1 PUSH4 0xB0370E0C EQ PUSH2 0x2F3 JUMPI DUP1 PUSH4 0xC93C8F34 EQ PUSH2 0x2FD JUMPI DUP1 PUSH4 0xDFA20F0A EQ PUSH2 0x33A JUMPI PUSH2 0xF3 JUMP JUMPDEST DUP1 PUSH4 0x5C975ABB EQ PUSH2 0x1F8 JUMPI DUP1 PUSH4 0x6F49712B EQ PUSH2 0x223 JUMPI DUP1 PUSH4 0x75C96C5D EQ PUSH2 0x260 JUMPI DUP1 PUSH4 0x88B22C24 EQ PUSH2 0x289 JUMPI PUSH2 0xF3 JUMP JUMPDEST DUP1 PUSH4 0x228CB733 GT PUSH2 0xC6 JUMPI DUP1 PUSH4 0x228CB733 EQ PUSH2 0x181 JUMPI DUP1 PUSH4 0x439766CE EQ PUSH2 0x1AC JUMPI DUP1 PUSH4 0x4626402B EQ PUSH2 0x1C3 JUMPI DUP1 PUSH4 0x51ED6A30 EQ PUSH2 0x1EE JUMPI PUSH2 0xF3 JUMP JUMPDEST DUP1 PUSH4 0x21A89AD EQ PUSH2 0xF8 JUMPI DUP1 PUSH4 0x16C38B3C EQ PUSH2 0x123 JUMPI DUP1 PUSH4 0x1A39D8EF EQ PUSH2 0x14C JUMPI DUP1 PUSH4 0x20EB640C EQ PUSH2 0x177 JUMPI JUMPDEST PUSH1 0x0 DUP1 REVERT JUMPDEST CALLVALUE DUP1 ISZERO PUSH2 0x104 JUMPI PUSH1 0x0 DUP1 REVERT JUMPDEST POP PUSH2 0x10D PUSH2 0x351 JUMP JUMPDEST PUSH1 0x40 MLOAD PUSH2 0x11A SWAP2 SWAP1 PUSH2 0x1121 JUMP JUMPDEST PUSH1 0x40 MLOAD DUP1 SWAP2 SUB SWAP1 RETURN JUMPDEST CALLVALUE DUP1 ISZERO PUSH2 0x12F JUMPI PUSH1 0x0 DUP1 REVERT JUMPDEST POP PUSH2 0x14A PUSH1 0x4 DUP1 CALLDATASIZE SUB DUP2 ADD SWAP1 PUSH2 0x145 SWAP2 SWAP1 PUSH2 0xF71 JUMP JUMPDEST PUSH2 0x364 JUMP JUMPDEST STOP JUMPDEST CALLVALUE DUP1 ISZERO PUSH2 0x158 JUMPI PUSH1 0x0 DUP1 REVERT JUMPDEST POP PUSH2 0x161 PUSH2 0x40F JUMP JUMPDEST PUSH1 0x40 MLOAD PUSH2 0x16E SWAP2 SWAP1 PUSH2 0x125C JUMP JUMPDEST PUSH1 0x40 MLOAD DUP1 SWAP2 SUB SWAP1 RETURN JUMPDEST PUSH2 0x17F PUSH2 0x415 JUMP JUMPDEST STOP JUMPDEST CALLVALUE DUP1 ISZERO PUSH2 0x18D JUMPI PUSH1 0x0 DUP1 REVERT JUMPDEST POP PUSH2 0x196 PUSH2 0x569 JUMP JUMPDEST PUSH1 0x40 MLOAD PUSH2 0x1A3 SWAP2 SWAP1 PUSH2 0x125C JUMP JUMPDEST PUSH1 0x40 MLOAD DUP1 SWAP2 SUB SWAP1 RETURN JUMPDEST CALLVALUE DUP1 ISZERO PUSH2 0x1B8 JUMPI PUSH1 0x0 DUP1 REVERT JUMPDEST POP PUSH2 0x1C1 PUSH2 0x56F JUMP JUMPDEST STOP JUMPDEST CALLVALUE DUP1 ISZERO PUSH2 0x1CF JUMPI PUSH1 0x0 DUP1 REVERT JUMPDEST POP PUSH2 0x1D8 PUSH2 0x655 JUMP JUMPDEST PUSH1 0x40 MLOAD PUSH2 0x1E5 SWAP2 SWAP1 PUSH2 0x125C JUMP JUMPDEST PUSH1 0x40 MLOAD DUP1 SWAP2 SUB SWAP1 RETURN JUMPDEST PUSH2 0x1F6 PUSH2 0x65B JUMP JUMPDEST STOP JUMPDEST CALLVALUE DUP1 ISZERO PUSH2 0x204 JUMPI PUSH1 0x0 DUP1 REVERT JUMPDEST POP PUSH2 0x20D PUSH2 0x87E JUMP JUMPDEST PUSH1 0x40 MLOAD PUSH2 0x21A SWAP2 SWAP1 PUSH2 0x1121 JUMP JUMPDEST PUSH1 0x40 MLOAD DUP1 SWAP2 SUB SWAP1 RETURN JUMPDEST CALLVALUE DUP1 ISZERO PUSH2 0x22F JUMPI PUSH1 0x0 DUP1 REVERT JUMPDEST POP PUSH2 0x24A PUSH1 0x4 DUP1 CALLDATASIZE SUB DUP2 ADD SWAP1 PUSH2 0x245 SWAP2 SWAP1 PUSH2 0xF04 JUMP JUMPDEST PUSH2 0x891 JUMP JUMPDEST PUSH1 0x40 MLOAD PUSH2 0x257 SWAP2 SWAP1 PUSH2 0x1121 JUMP JUMPDEST PUSH1 0x40 MLOAD DUP1 SWAP2 SUB SWAP1 RETURN JUMPDEST CALLVALUE DUP1 ISZERO PUSH2 0x26C JUMPI PUSH1 0x0 DUP1 REVERT JUMPDEST POP PUSH2 0x287 PUSH1 0x4 DUP1 CALLDATASIZE SUB DUP2 ADD SWAP1 PUSH2 0x282 SWAP2 SWAP1 PUSH2 0xF71 JUMP JUMPDEST PUSH2 0x8B1 JUMP JUMPDEST STOP JUMPDEST CALLVALUE DUP1 ISZERO PUSH2 0x295 JUMPI PUSH1 0x0 DUP1 REVERT JUMPDEST POP PUSH2 0x2B0 PUSH1 0x4 DUP1 CALLDATASIZE SUB DUP2 ADD SWAP1 PUSH2 0x2AB SWAP2 SWAP1 PUSH2 0xF31 JUMP JUMPDEST PUSH2 0x95C JUMP JUMPDEST PUSH1 0x40 MLOAD PUSH2 0x2BF SWAP4 SWAP3 SWAP2 SWAP1 PUSH2 0x1277 JUMP JUMPDEST PUSH1 0x40 MLOAD DUP1 SWAP2 SUB SWAP1 RETURN JUMPDEST CALLVALUE DUP1 ISZERO PUSH2 0x2D4 JUMPI PUSH1 0x0 DUP1 REVERT JUMPDEST POP PUSH2 0x2DD PUSH2 0x9A3 JUMP JUMPDEST PUSH1 0x40 MLOAD PUSH2 0x2EA SWAP2 SWAP1 PUSH2 0x1106 JUMP JUMPDEST PUSH1 0x40 MLOAD DUP1 SWAP2 SUB SWAP1 RETURN JUMPDEST PUSH2 0x2FB PUSH2 0x9C7 JUMP JUMPDEST STOP JUMPDEST CALLVALUE DUP1 ISZERO PUSH2 0x309 JUMPI PUSH1 0x0 DUP1 REVERT JUMPDEST POP PUSH2 0x324 PUSH1 0x4 DUP1 CALLDATASIZE SUB DUP2 ADD SWAP1 PUSH2 0x31F SWAP2 SWAP1 PUSH2 0xF04 JUMP JUMPDEST PUSH2 0xDDB JUMP JUMPDEST PUSH1 0x40 MLOAD PUSH2 0x331 SWAP2 SWAP1 PUSH2 0x1121 JUMP JUMPDEST PUSH1 0x40 MLOAD DUP1 SWAP2 SUB SWAP1 RETURN JUMPDEST CALLVALUE DUP1 ISZERO PUSH2 0x346 JUMPI PUSH1 0x0 DUP1 REVERT JUMPDEST POP PUSH2 0x34F PUSH2 0xDFB JUMP JUMPDEST STOP JUMPDEST PUSH1 0x0 PUSH1 0x15 SWAP1 SLOAD SWAP1 PUSH2 0x100 EXP SWAP1 DIV PUSH1 0xFF AND DUP2 JUMP JUMPDEST PUSH1 0x0 DUP1 SLOAD SWAP1 PUSH2 0x100 EXP SWAP1 DIV PUSH20 0xFFFFFFFFFFFFFFFFFFFFFFFFFFFFFFFFFFFFFFFF AND PUSH20 0xFFFFFFFFFFFFFFFFFFFFFFFFFFFFFFFFFFFFFFFF AND CALLER PUSH20 0xFFFFFFFFFFFFFFFFFFFFFFFFFFFFFFFFFFFFFFFF AND EQ PUSH2 0x3F2 JUMPI PUSH1 0x40 MLOAD PUSH32 0x8C379A000000000000000000000000000000000000000000000000000000000 DUP2 MSTORE PUSH1 0x4 ADD PUSH2 0x3E9 SWAP1 PUSH2 0x115C JUMP JUMPDEST PUSH1 0x40 MLOAD DUP1 SWAP2 SUB SWAP1 REVERT JUMPDEST DUP1 PUSH1 0x0 PUSH1 0x14 PUSH2 0x100 EXP DUP2 SLOAD DUP2 PUSH1 0xFF MUL NOT AND SWAP1 DUP4 ISZERO ISZERO MUL OR SWAP1 SSTORE POP POP JUMP JUMPDEST PUSH1 0x9 SLOAD DUP2 JUMP JUMPDEST PUSH1 0x0 PUSH1 0x2 PUSH1 0x0 ADD SLOAD GT PUSH2 0x45D JUMPI PUSH1 0x40 MLOAD PUSH32 0x8C379A000000000000000000000000000000000000000000000000000000000 DUP2 MSTORE PUSH1 0x4 ADD PUSH2 0x454 SWAP1 PUSH2 0x11BC JUMP JUMPDEST PUSH1 0x40 MLOAD DUP1 SWAP2 SUB SWAP1 REVERT JUMPDEST CALLER PUSH20 0xFFFFFFFFFFFFFFFFFFFFFFFFFFFFFFFFFFFFFFFF AND PUSH2 0x8FC PUSH1 0x9 SLOAD SWAP1 DUP2 ISZERO MUL SWAP1 PUSH1 0x40 MLOAD PUSH1 0x0 PUSH1 0x40 MLOAD DUP1 DUP4 SUB DUP2 DUP6 DUP9 DUP9 CALL SWAP4 POP POP POP POP ISZERO DUP1 ISZERO PUSH2 0x4A5 JUMPI RETURNDATASIZE PUSH1 0x0 DUP1 RETURNDATACOPY RETURNDATASIZE PUSH1 0x0 REVERT JUMPDEST POP PUSH1 0x0 PUSH1 0x5 PUSH1 0x0 CALLER PUSH20 0xFFFFFFFFFFFFFFFFFFFFFFFFFFFFFFFFFFFFFFFF AND PUSH20 0xFFFFFFFFFFFFFFFFFFFFFFFFFFFFFFFFFFFFFFFF AND DUP2 MSTORE PUSH1 0x20 ADD SWAP1 DUP2 MSTORE PUSH1 0x20 ADD PUSH1 0x0 KECCAK256 PUSH1 0x0 DUP2 SLOAD DUP2 LT PUSH2 0x4FA JUMPI PUSH2 0x4F9 PUSH2 0x14C3 JUMP JUMPDEST JUMPDEST SWAP1 PUSH1 0x0 MSTORE PUSH1 0x20 PUSH1 0x0 KECCAK256 SWAP1 PUSH1 0x3 MUL ADD PUSH1 0x0 ADD DUP2 SWAP1 SSTORE POP PUSH1 0x0 PUSH1 0x7 PUSH1 0x0 CALLER PUSH20 0xFFFFFFFFFFFFFFFFFFFFFFFFFFFFFFFFFFFFFFFF AND PUSH20 0xFFFFFFFFFFFFFFFFFFFFFFFFFFFFFFFFFFFFFFFF AND DUP2 MSTORE PUSH1 0x20 ADD SWAP1 DUP2 MSTORE PUSH1 0x20 ADD PUSH1 0x0 KECCAK256 PUSH1 0x0 PUSH2 0x100 EXP DUP2 SLOAD DUP2 PUSH1 0xFF MUL NOT AND SWAP1 DUP4 ISZERO ISZERO MUL OR SWAP1 SSTORE POP JUMP JUMPDEST PUSH1 0x8 SLOAD DUP2 JUMP JUMPDEST PUSH1 0x0 DUP1 SLOAD SWAP1 PUSH2 0x100 EXP SWAP1 DIV PUSH20 0xFFFFFFFFFFFFFFFFFFFFFFFFFFFFFFFFFFFFFFFF AND PUSH20 0xFFFFFFFFFFFFFFFFFFFFFFFFFFFFFFFFFFFFFFFF AND CALLER PUSH20 0xFFFFFFFFFFFFFFFFFFFFFFFFFFFFFFFFFFFFFFFF AND EQ PUSH2 0x5FD JUMPI PUSH1 0x40 MLOAD PUSH32 0x8C379A000000000000000000000000000000000000000000000000000000000 DUP2 MSTORE PUSH1 0x4 ADD PUSH2 0x5F4 SWAP1 PUSH2 0x117C JUMP JUMPDEST PUSH1 0x40 MLOAD DUP1 SWAP2 SUB SWAP1 REVERT JUMPDEST PUSH1 0x0 ISZERO ISZERO PUSH1 0x0 PUSH1 0x14 SWAP1 SLOAD SWAP1 PUSH2 0x100 EXP SWAP1 DIV PUSH1 0xFF AND ISZERO ISZERO EQ PUSH2 0x653 JUMPI PUSH1 0x40 MLOAD PUSH32 0x8C379A000000000000000000000000000000000000000000000000000000000 DUP2 MSTORE PUSH1 0x4 ADD PUSH2 0x64A SWAP1 PUSH2 0x123C JUMP JUMPDEST PUSH1 0x40 MLOAD DUP1 SWAP2 SUB SWAP1 REVERT JUMPDEST JUMP JUMPDEST PUSH1 0x1 SLOAD DUP2 JUMP JUMPDEST PUSH1 0x0 CALLVALUE GT PUSH2 0x69E JUMPI PUSH1 0x40 MLOAD PUSH32 0x8C379A000000000000000000000000000000000000000000000000000000000 DUP2 MSTORE PUSH1 0x4 ADD PUSH2 0x695 SWAP1 PUSH2 0x11DC JUMP JUMPDEST PUSH1 0x40 MLOAD DUP1 SWAP2 SUB SWAP1 REVERT JUMPDEST PUSH1 0x0 ISZERO ISZERO PUSH1 0x0 PUSH1 0x15 SWAP1 SLOAD SWAP1 PUSH2 0x100 EXP SWAP1 DIV PUSH1 0xFF AND ISZERO ISZERO EQ PUSH2 0x6F4 JUMPI PUSH1 0x40 MLOAD PUSH32 0x8C379A000000000000000000000000000000000000000000000000000000000 DUP2 MSTORE PUSH1 0x4 ADD PUSH2 0x6EB SWAP1 PUSH2 0x11FC JUMP JUMPDEST PUSH1 0x40 MLOAD DUP1 SWAP2 SUB SWAP1 REVERT JUMPDEST CALLVALUE PUSH1 0x2 PUSH1 0x0 ADD DUP2 SWAP1 SSTORE POP TIMESTAMP PUSH1 0x2 PUSH1 0x1 ADD DUP2 SWAP1 SSTORE POP PUSH1 0x5 PUSH1 0x0 CALLER PUSH20 0xFFFFFFFFFFFFFFFFFFFFFFFFFFFFFFFFFFFFFFFF AND PUSH20 0xFFFFFFFFFFFFFFFFFFFFFFFFFFFFFFFFFFFFFFFF AND DUP2 MSTORE PUSH1 0x20 ADD SWAP1 DUP2 MSTORE PUSH1 0x20 ADD PUSH1 0x0 KECCAK256 PUSH1 0x2 SWAP1 DUP1 PUSH1 0x1 DUP2 SLOAD ADD DUP1 DUP3 SSTORE DUP1 SWAP2 POP POP PUSH1 0x1 SWAP1 SUB SWAP1 PUSH1 0x0 MSTORE PUSH1 0x20 PUSH1 0x0 KECCAK256 SWAP1 PUSH1 0x3 MUL ADD PUSH1 0x0 SWAP1 SWAP2 SWAP1 SWAP2 SWAP1 SWAP2 POP PUSH1 0x0 DUP3 ADD SLOAD DUP2 PUSH1 0x0 ADD SSTORE PUSH1 0x1 DUP3 ADD SLOAD DUP2 PUSH1 0x1 ADD SSTORE PUSH1 0x2 DUP3 ADD SLOAD DUP2 PUSH1 0x2 ADD SSTORE POP POP PUSH1 0x0 PUSH1 0x64 PUSH1 0x5 PUSH1 0x2 PUSH1 0x0 ADD SLOAD PUSH2 0x7A8 SWAP2 SWAP1 PUSH2 0x1346 JUMP JUMPDEST PUSH2 0x7B2 SWAP2 SWAP1 PUSH2 0x1315 JUMP JUMPDEST SWAP1 POP DUP1 PUSH1 0x2 PUSH1 0x0 ADD SLOAD PUSH2 0x7C5 SWAP2 SWAP1 PUSH2 0x12BF JUMP JUMPDEST PUSH1 0x1 DUP2 SWAP1 SSTORE POP PUSH1 0x1 PUSH1 0x7 PUSH1 0x0 CALLER PUSH20 0xFFFFFFFFFFFFFFFFFFFFFFFFFFFFFFFFFFFFFFFF AND PUSH20 0xFFFFFFFFFFFFFFFFFFFFFFFFFFFFFFFFFFFFFFFF AND DUP2 MSTORE PUSH1 0x20 ADD SWAP1 DUP2 MSTORE PUSH1 0x20 ADD PUSH1 0x0 KECCAK256 PUSH1 0x0 PUSH2 0x100 EXP DUP2 SLOAD DUP2 PUSH1 0xFF MUL NOT AND SWAP1 DUP4 ISZERO ISZERO MUL OR SWAP1 SSTORE POP PUSH1 0x1 PUSH1 0x6 PUSH1 0x0 CALLER PUSH20 0xFFFFFFFFFFFFFFFFFFFFFFFFFFFFFFFFFFFFFFFF AND PUSH20 0xFFFFFFFFFFFFFFFFFFFFFFFFFFFFFFFFFFFFFFFF AND DUP2 MSTORE PUSH1 0x20 ADD SWAP1 DUP2 MSTORE PUSH1 0x20 ADD PUSH1 0x0 KECCAK256 PUSH1 0x0 PUSH2 0x100 EXP DUP2 SLOAD DUP2 PUSH1 0xFF MUL NOT AND SWAP1 DUP4 ISZERO ISZERO MUL OR SWAP1 SSTORE POP POP JUMP JUMPDEST PUSH1 0x0 PUSH1 0x14 SWAP1 SLOAD SWAP1 PUSH2 0x100 EXP SWAP1 DIV PUSH1 0xFF AND DUP2 JUMP JUMPDEST PUSH1 0x7 PUSH1 0x20 MSTORE DUP1 PUSH1 0x0 MSTORE PUSH1 0x40 PUSH1 0x0 KECCAK256 PUSH1 0x0 SWAP2 POP SLOAD SWAP1 PUSH2 0x100 EXP SWAP1 DIV PUSH1 0xFF AND DUP2 JUMP JUMPDEST PUSH1 0x0 DUP1 SLOAD SWAP1 PUSH2 0x100 EXP SWAP1 DIV PUSH20 0xFFFFFFFFFFFFFFFFFFFFFFFFFFFFFFFFFFFFFFFF AND PUSH20 0xFFFFFFFFFFFFFFFFFFFFFFFFFFFFFFFFFFFFFFFF AND CALLER PUSH20 0xFFFFFFFFFFFFFFFFFFFFFFFFFFFFFFFFFFFFFFFF AND EQ PUSH2 0x93F JUMPI PUSH1 0x40 MLOAD PUSH32 0x8C379A000000000000000000000000000000000000000000000000000000000 DUP2 MSTORE PUSH1 0x4 ADD PUSH2 0x936 SWAP1 PUSH2 0x121C JUMP JUMPDEST PUSH1 0x40 MLOAD DUP1 SWAP2 SUB SWAP1 REVERT JUMPDEST DUP1 PUSH1 0x0 PUSH1 0x15 PUSH2 0x100 EXP DUP2 SLOAD DUP2 PUSH1 0xFF MUL NOT AND SWAP1 DUP4 ISZERO ISZERO MUL OR SWAP1 SSTORE POP POP JUMP JUMPDEST PUSH1 0x5 PUSH1 0x20 MSTORE DUP2 PUSH1 0x0 MSTORE PUSH1 0x40 PUSH1 0x0 KECCAK256 DUP2 DUP2 SLOAD DUP2 LT PUSH2 0x978 JUMPI PUSH1 0x0 DUP1 REVERT JUMPDEST SWAP1 PUSH1 0x0 MSTORE PUSH1 0x20 PUSH1 0x0 KECCAK256 SWAP1 PUSH1 0x3 MUL ADD PUSH1 0x0 SWAP2 POP SWAP2 POP POP DUP1 PUSH1 0x0 ADD SLOAD SWAP1 DUP1 PUSH1 0x1 ADD SLOAD SWAP1 DUP1 PUSH1 0x2 ADD SLOAD SWAP1 POP DUP4 JUMP JUMPDEST PUSH1 0x0 DUP1 SLOAD SWAP1 PUSH2 0x100 EXP SWAP1 DIV PUSH20 0xFFFFFFFFFFFFFFFFFFFFFFFFFFFFFFFFFFFFFFFF AND DUP2 JUMP JUMPDEST PUSH1 0x0 DUP1 SLOAD SWAP1 PUSH2 0x100 EXP SWAP1 DIV PUSH20 0xFFFFFFFFFFFFFFFFFFFFFFFFFFFFFFFFFFFFFFFF AND PUSH20 0xFFFFFFFFFFFFFFFFFFFFFFFFFFFFFFFFFFFFFFFF AND CALLER PUSH20 0xFFFFFFFFFFFFFFFFFFFFFFFFFFFFFFFFFFFFFFFF AND EQ PUSH2 0xA55 JUMPI PUSH1 0x40 MLOAD PUSH32 0x8C379A000000000000000000000000000000000000000000000000000000000 DUP2 MSTORE PUSH1 0x4 ADD PUSH2 0xA4C SWAP1 PUSH2 0x113C JUMP JUMPDEST PUSH1 0x40 MLOAD DUP1 SWAP2 SUB SWAP1 REVERT JUMPDEST PUSH1 0x0 JUMPDEST PUSH1 0x5 PUSH1 0x0 CALLER PUSH20 0xFFFFFFFFFFFFFFFFFFFFFFFFFFFFFFFFFFFFFFFF AND PUSH20 0xFFFFFFFFFFFFFFFFFFFFFFFFFFFFFFFFFFFFFFFF AND DUP2 MSTORE PUSH1 0x20 ADD SWAP1 DUP2 MSTORE PUSH1 0x20 ADD PUSH1 0x0 KECCAK256 DUP1 SLOAD SWAP1 POP DUP2 LT ISZERO PUSH2 0xCB5 JUMPI PUSH1 0x0 PUSH1 0x5 PUSH1 0x0 CALLER PUSH20 0xFFFFFFFFFFFFFFFFFFFFFFFFFFFFFFFFFFFFFFFF AND PUSH20 0xFFFFFFFFFFFFFFFFFFFFFFFFFFFFFFFFFFFFFFFF AND DUP2 MSTORE PUSH1 0x20 ADD SWAP1 DUP2 MSTORE PUSH1 0x20 ADD PUSH1 0x0 KECCAK256 DUP3 DUP2 SLOAD DUP2 LT PUSH2 0xAF5 JUMPI PUSH2 0xAF4 PUSH2 0x14C3 JUMP JUMPDEST JUMPDEST SWAP1 PUSH1 0x0 MSTORE PUSH1 0x20 PUSH1 0x0 KECCAK256 SWAP1 PUSH1 0x3 MUL ADD PUSH1 0x0 ADD SLOAD SWAP1 POP PUSH3 0x83D600 PUSH1 0x5 PUSH1 0x0 CALLER PUSH20 0xFFFFFFFFFFFFFFFFFFFFFFFFFFFFFFFFFFFFFFFF AND PUSH20 0xFFFFFFFFFFFFFFFFFFFFFFFFFFFFFFFFFFFFFFFF AND DUP2 MSTORE PUSH1 0x20 ADD SWAP1 DUP2 MSTORE PUSH1 0x20 ADD PUSH1 0x0 KECCAK256 DUP4 DUP2 SLOAD DUP2 LT PUSH2 0xB5E JUMPI PUSH2 0xB5D PUSH2 0x14C3 JUMP JUMPDEST JUMPDEST SWAP1 PUSH1 0x0 MSTORE PUSH1 0x20 PUSH1 0x0 KECCAK256 SWAP1 PUSH1 0x3 MUL ADD PUSH1 0x1 ADD SLOAD TIMESTAMP PUSH2 0xB7B SWAP2 SWAP1 PUSH2 0x13A0 JUMP JUMPDEST LT ISZERO PUSH2 0xCA1 JUMPI PUSH1 0x64 DUP2 PUSH1 0xA PUSH1 0x5 PUSH1 0x0 CALLER PUSH20 0xFFFFFFFFFFFFFFFFFFFFFFFFFFFFFFFFFFFFFFFF AND PUSH20 0xFFFFFFFFFFFFFFFFFFFFFFFFFFFFFFFFFFFFFFFF AND DUP2 MSTORE PUSH1 0x20 ADD SWAP1 DUP2 MSTORE PUSH1 0x20 ADD PUSH1 0x0 KECCAK256 DUP6 DUP2 SLOAD DUP2 LT PUSH2 0xBD7 JUMPI PUSH2 0xBD6 PUSH2 0x14C3 JUMP JUMPDEST JUMPDEST SWAP1 PUSH1 0x0 MSTORE PUSH1 0x20 PUSH1 0x0 KECCAK256 SWAP1 PUSH1 0x3 MUL ADD PUSH1 0x1 ADD SLOAD TIMESTAMP PUSH2 0xBF4 SWAP2 SWAP1 PUSH2 0x13A0 JUMP JUMPDEST PUSH2 0xBFE SWAP2 SWAP1 PUSH2 0x1315 JUMP JUMPDEST PUSH2 0xC08 SWAP2 SWAP1 PUSH2 0x1346 JUMP JUMPDEST PUSH2 0xC12 SWAP2 SWAP1 PUSH2 0x1315 JUMP JUMPDEST PUSH1 0x8 PUSH1 0x0 DUP3 DUP3 SLOAD PUSH2 0xC23 SWAP2 SWAP1 PUSH2 0x12BF JUMP JUMPDEST SWAP3 POP POP DUP2 SWAP1 SSTORE POP PUSH1 0x8 SLOAD PUSH1 0x5 PUSH1 0x0 CALLER PUSH20 0xFFFFFFFFFFFFFFFFFFFFFFFFFFFFFFFFFFFFFFFF AND PUSH20 0xFFFFFFFFFFFFFFFFFFFFFFFFFFFFFFFFFFFFFFFF AND DUP2 MSTORE PUSH1 0x20 ADD SWAP1 DUP2 MSTORE PUSH1 0x20 ADD PUSH1 0x0 KECCAK256 DUP4 DUP2 SLOAD DUP2 LT PUSH2 0xC7E JUMPI PUSH2 0xC7D PUSH2 0x14C3 JUMP JUMPDEST JUMPDEST SWAP1 PUSH1 0x0 MSTORE PUSH1 0x20 PUSH1 0x0 KECCAK256 SWAP1 PUSH1 0x3 MUL ADD PUSH1 0x0 ADD SLOAD PUSH2 0xC9A SWAP2 SWAP1 PUSH2 0x12BF JUMP JUMPDEST PUSH1 0x9 DUP2 SWAP1 SSTORE POP JUMPDEST POP DUP1 DUP1 PUSH2 0xCAD SWAP1 PUSH2 0x141C JUMP JUMPDEST SWAP2 POP POP PUSH2 0xA58 JUMP JUMPDEST POP PUSH1 0x0 JUMPDEST PUSH1 0x5 PUSH1 0x0 CALLER PUSH20 0xFFFFFFFFFFFFFFFFFFFFFFFFFFFFFFFFFFFFFFFF AND PUSH20 0xFFFFFFFFFFFFFFFFFFFFFFFFFFFFFFFFFFFFFFFF AND DUP2 MSTORE PUSH1 0x20 ADD SWAP1 DUP2 MSTORE PUSH1 0x20 ADD PUSH1 0x0 KECCAK256 DUP1 SLOAD SWAP1 POP DUP2 LT ISZERO PUSH2 0xDD8 JUMPI PUSH3 0x83D600 PUSH1 0x5 PUSH1 0x0 CALLER PUSH20 0xFFFFFFFFFFFFFFFFFFFFFFFFFFFFFFFFFFFFFFFF AND PUSH20 0xFFFFFFFFFFFFFFFFFFFFFFFFFFFFFFFFFFFFFFFF AND DUP2 MSTORE PUSH1 0x20 ADD SWAP1 DUP2 MSTORE PUSH1 0x20 ADD PUSH1 0x0 KECCAK256 DUP3 DUP2 SLOAD DUP2 LT PUSH2 0xD58 JUMPI PUSH2 0xD57 PUSH2 0x14C3 JUMP JUMPDEST JUMPDEST SWAP1 PUSH1 0x0 MSTORE PUSH1 0x20 PUSH1 0x0 KECCAK256 SWAP1 PUSH1 0x3 MUL ADD PUSH1 0x2 ADD SLOAD TIMESTAMP PUSH2 0xD75 SWAP2 SWAP1 PUSH2 0x13A0 JUMP JUMPDEST LT ISZERO PUSH2 0xDC5 JUMPI CALLER PUSH20 0xFFFFFFFFFFFFFFFFFFFFFFFFFFFFFFFFFFFFFFFF AND PUSH2 0x8FC PUSH1 0x8 SLOAD SWAP1 DUP2 ISZERO MUL SWAP1 PUSH1 0x40 MLOAD PUSH1 0x0 PUSH1 0x40 MLOAD DUP1 DUP4 SUB DUP2 DUP6 DUP9 DUP9 CALL SWAP4 POP POP POP POP ISZERO DUP1 ISZERO PUSH2 0xDC3 JUMPI RETURNDATASIZE PUSH1 0x0 DUP1 RETURNDATACOPY RETURNDATASIZE PUSH1 0x0 REVERT JUMPDEST POP JUMPDEST DUP1 DUP1 PUSH2 0xDD0 SWAP1 PUSH2 0x141C JUMP JUMPDEST SWAP2 POP POP PUSH2 0xCB9 JUMP JUMPDEST POP JUMP JUMPDEST PUSH1 0x6 PUSH1 0x20 MSTORE DUP1 PUSH1 0x0 MSTORE PUSH1 0x40 PUSH1 0x0 KECCAK256 PUSH1 0x0 SWAP2 POP SLOAD SWAP1 PUSH2 0x100 EXP SWAP1 DIV PUSH1 0xFF AND DUP2 JUMP JUMPDEST PUSH1 0x0 DUP1 SLOAD SWAP1 PUSH2 0x100 EXP SWAP1 DIV PUSH20 0xFFFFFFFFFFFFFFFFFFFFFFFFFFFFFFFFFFFFFFFF AND PUSH20 0xFFFFFFFFFFFFFFFFFFFFFFFFFFFFFFFFFFFFFFFF AND CALLER PUSH20 0xFFFFFFFFFFFFFFFFFFFFFFFFFFFFFFFFFFFFFFFF AND EQ PUSH2 0xE89 JUMPI PUSH1 0x40 MLOAD PUSH32 0x8C379A000000000000000000000000000000000000000000000000000000000 DUP2 MSTORE PUSH1 0x4 ADD PUSH2 0xE80 SWAP1 PUSH2 0x119C JUMP JUMPDEST PUSH1 0x40 MLOAD DUP1 SWAP2 SUB SWAP1 REVERT JUMPDEST PUSH1 0x0 PUSH1 0x64 PUSH1 0x5 PUSH1 0x2 PUSH1 0x0 ADD SLOAD PUSH2 0xE9F SWAP2 SWAP1 PUSH2 0x1346 JUMP JUMPDEST PUSH2 0xEA9 SWAP2 SWAP1 PUSH2 0x1315 JUMP JUMPDEST SWAP1 POP DUP1 PUSH1 0x2 PUSH1 0x0 ADD SLOAD PUSH2 0xEBC SWAP2 SWAP1 PUSH2 0x13A0 JUMP JUMPDEST PUSH1 0x1 DUP2 SWAP1 SSTORE POP POP JUMP JUMPDEST PUSH1 0x0 DUP2 CALLDATALOAD SWAP1 POP PUSH2 0xED4 DUP2 PUSH2 0x168E JUMP JUMPDEST SWAP3 SWAP2 POP POP JUMP JUMPDEST PUSH1 0x0 DUP2 CALLDATALOAD SWAP1 POP PUSH2 0xEE9 DUP2 PUSH2 0x16A5 JUMP JUMPDEST SWAP3 SWAP2 POP POP JUMP JUMPDEST PUSH1 0x0 DUP2 CALLDATALOAD SWAP1 POP PUSH2 0xEFE DUP2 PUSH2 0x16BC JUMP JUMPDEST SWAP3 SWAP2 POP POP JUMP JUMPDEST PUSH1 0x0 PUSH1 0x20 DUP3 DUP5 SUB SLT ISZERO PUSH2 0xF1A JUMPI PUSH2 0xF19 PUSH2 0x14F2 JUMP JUMPDEST JUMPDEST PUSH1 0x0 PUSH2 0xF28 DUP5 DUP3 DUP6 ADD PUSH2 0xEC5 JUMP JUMPDEST SWAP2 POP POP SWAP3 SWAP2 POP POP JUMP JUMPDEST PUSH1 0x0 DUP1 PUSH1 0x40 DUP4 DUP6 SUB SLT ISZERO PUSH2 0xF48 JUMPI PUSH2 0xF47 PUSH2 0x14F2 JUMP JUMPDEST JUMPDEST PUSH1 0x0 PUSH2 0xF56 DUP6 DUP3 DUP7 ADD PUSH2 0xEC5 JUMP JUMPDEST SWAP3 POP POP PUSH1 0x20 PUSH2 0xF67 DUP6 DUP3 DUP7 ADD PUSH2 0xEEF JUMP JUMPDEST SWAP2 POP POP SWAP3 POP SWAP3 SWAP1 POP JUMP JUMPDEST PUSH1 0x0 PUSH1 0x20 DUP3 DUP5 SUB SLT ISZERO PUSH2 0xF87 JUMPI PUSH2 0xF86 PUSH2 0x14F2 JUMP JUMPDEST JUMPDEST PUSH1 0x0 PUSH2 0xF95 DUP5 DUP3 DUP6 ADD PUSH2 0xEDA JUMP JUMPDEST SWAP2 POP POP SWAP3 SWAP2 POP POP JUMP JUMPDEST PUSH2 0xFA7 DUP2 PUSH2 0x13D4 JUMP JUMPDEST DUP3 MSTORE POP POP JUMP JUMPDEST PUSH2 0xFB6 DUP2 PUSH2 0x13E6 JUMP JUMPDEST DUP3 MSTORE POP POP JUMP JUMPDEST PUSH1 0x0 PUSH2 0xFC9 PUSH1 0x18 DUP4 PUSH2 0x12AE JUMP JUMPDEST SWAP2 POP PUSH2 0xFD4 DUP3 PUSH2 0x14F7 JUMP JUMPDEST PUSH1 0x20 DUP3 ADD SWAP1 POP SWAP2 SWAP1 POP JUMP JUMPDEST PUSH1 0x0 PUSH2 0xFEC PUSH1 0x15 DUP4 PUSH2 0x12AE JUMP JUMPDEST SWAP2 POP PUSH2 0xFF7 DUP3 PUSH2 0x1520 JUMP JUMPDEST PUSH1 0x20 DUP3 ADD SWAP1 POP SWAP2 SWAP1 POP JUMP JUMPDEST PUSH1 0x0 PUSH2 0x100F PUSH1 0x21 DUP4 PUSH2 0x12AE JUMP JUMPDEST SWAP2 POP PUSH2 0x101A DUP3 PUSH2 0x1549 JUMP JUMPDEST PUSH1 0x40 DUP3 ADD SWAP1 POP SWAP2 SWAP1 POP JUMP JUMPDEST PUSH1 0x0 PUSH2 0x1032 PUSH1 0x1F DUP4 PUSH2 0x12AE JUMP JUMPDEST SWAP2 POP PUSH2 0x103D DUP3 PUSH2 0x1598 JUMP JUMPDEST PUSH1 0x20 DUP3 ADD SWAP1 POP SWAP2 SWAP1 POP JUMP JUMPDEST PUSH1 0x0 PUSH2 0x1055 PUSH1 0x1B DUP4 PUSH2 0x12AE JUMP JUMPDEST SWAP2 POP PUSH2 0x1060 DUP3 PUSH2 0x15C1 JUMP JUMPDEST PUSH1 0x20 DUP3 ADD SWAP1 POP SWAP2 SWAP1 POP JUMP JUMPDEST PUSH1 0x0 PUSH2 0x1078 PUSH1 0x12 DUP4 PUSH2 0x12AE JUMP JUMPDEST SWAP2 POP PUSH2 0x1083 DUP3 PUSH2 0x15EA JUMP JUMPDEST PUSH1 0x20 DUP3 ADD SWAP1 POP SWAP2 SWAP1 POP JUMP JUMPDEST PUSH1 0x0 PUSH2 0x109B PUSH1 0xD DUP4 PUSH2 0x12AE JUMP JUMPDEST SWAP2 POP PUSH2 0x10A6 DUP3 PUSH2 0x1613 JUMP JUMPDEST PUSH1 0x20 DUP3 ADD SWAP1 POP SWAP2 SWAP1 POP JUMP JUMPDEST PUSH1 0x0 PUSH2 0x10BE PUSH1 0x1D DUP4 PUSH2 0x12AE JUMP JUMPDEST SWAP2 POP PUSH2 0x10C9 DUP3 PUSH2 0x163C JUMP JUMPDEST PUSH1 0x20 DUP3 ADD SWAP1 POP SWAP2 SWAP1 POP JUMP JUMPDEST PUSH1 0x0 PUSH2 0x10E1 PUSH1 0xF DUP4 PUSH2 0x12AE JUMP JUMPDEST SWAP2 POP PUSH2 0x10EC DUP3 PUSH2 0x1665 JUMP JUMPDEST PUSH1 0x20 DUP3 ADD SWAP1 POP SWAP2 SWAP1 POP JUMP JUMPDEST PUSH2 0x1100 DUP2 PUSH2 0x1412 JUMP JUMPDEST DUP3 MSTORE POP POP JUMP JUMPDEST PUSH1 0x0 PUSH1 0x20 DUP3 ADD SWAP1 POP PUSH2 0x111B PUSH1 0x0 DUP4 ADD DUP5 PUSH2 0xF9E JUMP JUMPDEST SWAP3 SWAP2 POP POP JUMP JUMPDEST PUSH1 0x0 PUSH1 0x20 DUP3 ADD SWAP1 POP PUSH2 0x1136 PUSH1 0x0 DUP4 ADD DUP5 PUSH2 0xFAD JUMP JUMPDEST SWAP3 SWAP2 POP POP JUMP JUMPDEST PUSH1 0x0 PUSH1 0x20 DUP3 ADD SWAP1 POP DUP2 DUP2 SUB PUSH1 0x0 DUP4 ADD MSTORE PUSH2 0x1155 DUP2 PUSH2 0xFBC JUMP JUMPDEST SWAP1 POP SWAP2 SWAP1 POP JUMP JUMPDEST PUSH1 0x0 PUSH1 0x20 DUP3 ADD SWAP1 POP DUP2 DUP2 SUB PUSH1 0x0 DUP4 ADD MSTORE PUSH2 0x1175 DUP2 PUSH2 0xFDF JUMP JUMPDEST SWAP1 POP SWAP2 SWAP1 POP JUMP JUMPDEST PUSH1 0x0 PUSH1 0x20 DUP3 ADD SWAP1 POP DUP2 DUP2 SUB PUSH1 0x0 DUP4 ADD MSTORE PUSH2 0x1195 DUP2 PUSH2 0x1002 JUMP JUMPDEST SWAP1 POP SWAP2 SWAP1 POP JUMP JUMPDEST PUSH1 0x0 PUSH1 0x20 DUP3 ADD SWAP1 POP DUP2 DUP2 SUB PUSH1 0x0 DUP4 ADD MSTORE PUSH2 0x11B5 DUP2 PUSH2 0x1025 JUMP JUMPDEST SWAP1 POP SWAP2 SWAP1 POP JUMP JUMPDEST PUSH1 0x0 PUSH1 0x20 DUP3 ADD SWAP1 POP DUP2 DUP2 SUB PUSH1 0x0 DUP4 ADD MSTORE PUSH2 0x11D5 DUP2 PUSH2 0x1048 JUMP JUMPDEST SWAP1 POP SWAP2 SWAP1 POP JUMP JUMPDEST PUSH1 0x0 PUSH1 0x20 DUP3 ADD SWAP1 POP DUP2 DUP2 SUB PUSH1 0x0 DUP4 ADD MSTORE PUSH2 0x11F5 DUP2 PUSH2 0x106B JUMP JUMPDEST SWAP1 POP SWAP2 SWAP1 POP JUMP JUMPDEST PUSH1 0x0 PUSH1 0x20 DUP3 ADD SWAP1 POP DUP2 DUP2 SUB PUSH1 0x0 DUP4 ADD MSTORE PUSH2 0x1215 DUP2 PUSH2 0x108E JUMP JUMPDEST SWAP1 POP SWAP2 SWAP1 POP JUMP JUMPDEST PUSH1 0x0 PUSH1 0x20 DUP3 ADD SWAP1 POP DUP2 DUP2 SUB PUSH1 0x0 DUP4 ADD MSTORE PUSH2 0x1235 DUP2 PUSH2 0x10B1 JUMP JUMPDEST SWAP1 POP SWAP2 SWAP1 POP JUMP JUMPDEST PUSH1 0x0 PUSH1 0x20 DUP3 ADD SWAP1 POP DUP2 DUP2 SUB PUSH1 0x0 DUP4 ADD MSTORE PUSH2 0x1255 DUP2 PUSH2 0x10D4 JUMP JUMPDEST SWAP1 POP SWAP2 SWAP1 POP JUMP JUMPDEST PUSH1 0x0 PUSH1 0x20 DUP3 ADD SWAP1 POP PUSH2 0x1271 PUSH1 0x0 DUP4 ADD DUP5 PUSH2 0x10F7 JUMP JUMPDEST SWAP3 SWAP2 POP POP JUMP JUMPDEST PUSH1 0x0 PUSH1 0x60 DUP3 ADD SWAP1 POP PUSH2 0x128C PUSH1 0x0 DUP4 ADD DUP7 PUSH2 0x10F7 JUMP JUMPDEST PUSH2 0x1299 PUSH1 0x20 DUP4 ADD DUP6 PUSH2 0x10F7 JUMP JUMPDEST PUSH2 0x12A6 PUSH1 0x40 DUP4 ADD DUP5 PUSH2 0x10F7 JUMP JUMPDEST SWAP5 SWAP4 POP POP POP POP JUMP JUMPDEST PUSH1 0x0 DUP3 DUP3 MSTORE PUSH1 0x20 DUP3 ADD SWAP1 POP SWAP3 SWAP2 POP POP JUMP JUMPDEST PUSH1 0x0 PUSH2 0x12CA DUP3 PUSH2 0x1412 JUMP JUMPDEST SWAP2 POP PUSH2 0x12D5 DUP4 PUSH2 0x1412 JUMP JUMPDEST SWAP3 POP DUP3 PUSH32 0xFFFFFFFFFFFFFFFFFFFFFFFFFFFFFFFFFFFFFFFFFFFFFFFFFFFFFFFFFFFFFFFF SUB DUP3 GT ISZERO PUSH2 0x130A JUMPI PUSH2 0x1309 PUSH2 0x1465 JUMP JUMPDEST JUMPDEST DUP3 DUP3 ADD SWAP1 POP SWAP3 SWAP2 POP POP JUMP JUMPDEST PUSH1 0x0 PUSH2 0x1320 DUP3 PUSH2 0x1412 JUMP JUMPDEST SWAP2 POP PUSH2 0x132B DUP4 PUSH2 0x1412 JUMP JUMPDEST SWAP3 POP DUP3 PUSH2 0x133B JUMPI PUSH2 0x133A PUSH2 0x1494 JUMP JUMPDEST JUMPDEST DUP3 DUP3 DIV SWAP1 POP SWAP3 SWAP2 POP POP JUMP JUMPDEST PUSH1 0x0 PUSH2 0x1351 DUP3 PUSH2 0x1412 JUMP JUMPDEST SWAP2 POP PUSH2 0x135C DUP4 PUSH2 0x1412 JUMP JUMPDEST SWAP3 POP DUP2 PUSH32 0xFFFFFFFFFFFFFFFFFFFFFFFFFFFFFFFFFFFFFFFFFFFFFFFFFFFFFFFFFFFFFFFF DIV DUP4 GT DUP3 ISZERO ISZERO AND ISZERO PUSH2 0x1395 JUMPI PUSH2 0x1394 PUSH2 0x1465 JUMP JUMPDEST JUMPDEST DUP3 DUP3 MUL SWAP1 POP SWAP3 SWAP2 POP POP JUMP JUMPDEST PUSH1 0x0 PUSH2 0x13AB DUP3 PUSH2 0x1412 JUMP JUMPDEST SWAP2 POP PUSH2 0x13B6 DUP4 PUSH2 0x1412 JUMP JUMPDEST SWAP3 POP DUP3 DUP3 LT ISZERO PUSH2 0x13C9 JUMPI PUSH2 0x13C8 PUSH2 0x1465 JUMP JUMPDEST JUMPDEST DUP3 DUP3 SUB SWAP1 POP SWAP3 SWAP2 POP POP JUMP JUMPDEST PUSH1 0x0 PUSH2 0x13DF DUP3 PUSH2 0x13F2 JUMP JUMPDEST SWAP1 POP SWAP2 SWAP1 POP JUMP JUMPDEST PUSH1 0x0 DUP2 ISZERO ISZERO SWAP1 POP SWAP2 SWAP1 POP JUMP JUMPDEST PUSH1 0x0 PUSH20 0xFFFFFFFFFFFFFFFFFFFFFFFFFFFFFFFFFFFFFFFF DUP3 AND SWAP1 POP SWAP2 SWAP1 POP JUMP JUMPDEST PUSH1 0x0 DUP2 SWAP1 POP SWAP2 SWAP1 POP JUMP JUMPDEST PUSH1 0x0 PUSH2 0x1427 DUP3 PUSH2 0x1412 JUMP JUMPDEST SWAP2 POP PUSH32 0xFFFFFFFFFFFFFFFFFFFFFFFFFFFFFFFFFFFFFFFFFFFFFFFFFFFFFFFFFFFFFFFF DUP3 EQ ISZERO PUSH2 0x145A JUMPI PUSH2 0x1459 PUSH2 0x1465 JUMP JUMPDEST JUMPDEST PUSH1 0x1 DUP3 ADD SWAP1 POP SWAP2 SWAP1 POP JUMP JUMPDEST PUSH32 0x4E487B7100000000000000000000000000000000000000000000000000000000 PUSH1 0x0 MSTORE PUSH1 0x11 PUSH1 0x4 MSTORE PUSH1 0x24 PUSH1 0x0 REVERT JUMPDEST PUSH32 0x4E487B7100000000000000000000000000000000000000000000000000000000 PUSH1 0x0 MSTORE PUSH1 0x12 PUSH1 0x4 MSTORE PUSH1 0x24 PUSH1 0x0 REVERT JUMPDEST PUSH32 0x4E487B7100000000000000000000000000000000000000000000000000000000 PUSH1 0x0 MSTORE PUSH1 0x32 PUSH1 0x4 MSTORE PUSH1 0x24 PUSH1 0x0 REVERT JUMPDEST PUSH1 0x0 DUP1 REVERT JUMPDEST PUSH32 0x63616C6C6572206D75737420626520746865206F776E65720000000000000000 PUSH1 0x0 DUP3 ADD MSTORE POP JUMP JUMPDEST PUSH32 0x596F7520617265206E6F7420746865206F776E65720000000000000000000000 PUSH1 0x0 DUP3 ADD MSTORE POP JUMP JUMPDEST PUSH32 0x4F6E6C79206F776E65722063616E2070617573652074686520636F6E74726163 PUSH1 0x0 DUP3 ADD MSTORE PUSH32 0x7400000000000000000000000000000000000000000000000000000000000000 PUSH1 0x20 DUP3 ADD MSTORE POP JUMP JUMPDEST PUSH32 0x4F6E6C79206F776E65722063616E207769746864726177207468652074617800 PUSH1 0x0 DUP3 ADD MSTORE POP JUMP JUMPDEST PUSH32 0x66756E64732063616E6E6F74206265206C657373207468616E20300000000000 PUSH1 0x0 DUP3 ADD MSTORE POP JUMP JUMPDEST PUSH32 0x616D6F756E742063616E6E6F7420626520300000000000000000000000000000 PUSH1 0x0 DUP3 ADD MSTORE POP JUMP JUMPDEST PUSH32 0x5573657220426C6F636B65642100000000000000000000000000000000000000 PUSH1 0x0 DUP3 ADD MSTORE POP JUMP JUMPDEST PUSH32 0x4F6E6C79206F776E65722063616E20626C6F636B207468652075736572000000 PUSH1 0x0 DUP3 ADD MSTORE POP JUMP JUMPDEST PUSH32 0x436F6E7472616374205061757365640000000000000000000000000000000000 PUSH1 0x0 DUP3 ADD MSTORE POP JUMP JUMPDEST PUSH2 0x1697 DUP2 PUSH2 0x13D4 JUMP JUMPDEST DUP2 EQ PUSH2 0x16A2 JUMPI PUSH1 0x0 DUP1 REVERT JUMPDEST POP JUMP JUMPDEST PUSH2 0x16AE DUP2 PUSH2 0x13E6 JUMP JUMPDEST DUP2 EQ PUSH2 0x16B9 JUMPI PUSH1 0x0 DUP1 REVERT JUMPDEST POP JUMP JUMPDEST PUSH2 0x16C5 DUP2 PUSH2 0x1412 JUMP JUMPDEST DUP2 EQ PUSH2 0x16D0 JUMPI PUSH1 0x0 DUP1 REVERT JUMPDEST POP JUMP INVALID LOG2 PUSH5 0x6970667358 0x22 SLT KECCAK256 0xD XOR 0xC0 DUP15 0xC9 PUSH3 0xE059F5 0x1E BASEFEE MUL SLT 0xDE PUSH30 0x2B5D5D71C865CB3F48660ED3092362F9C464736F6C634300080700330000 "
				},
				"gasEstimates": {
					"creation": {
						"codeDepositCost": "1179400",
						"executionCost": "25493",
						"totalCost": "1204893"
					},
					"external": {
						"blockUser()": "2545",
						"funds(address,uint256)": "infinite",
						"hasStaked(address)": "2911",
						"isStaking(address)": "2890",
						"issueRewards()": "infinite",
						"owner()": "2533",
						"pauseContract()": "4866",
						"paused()": "2544",
						"reward()": "2452",
						"setBlockUser(bool)": "26963",
						"setPaused(bool)": "26942",
						"stakeToken()": "infinite",
						"totalAmount()": "2497",
						"treasuryWallet()": "2496",
						"unstakeToken()": "infinite",
						"withdrawTax()": "infinite"
					}
				},
				"methodIdentifiers": {
					"blockUser()": "021a89ad",
					"funds(address,uint256)": "88b22c24",
					"hasStaked(address)": "c93c8f34",
					"isStaking(address)": "6f49712b",
					"issueRewards()": "b0370e0c",
					"owner()": "8da5cb5b",
					"pauseContract()": "439766ce",
					"paused()": "5c975abb",
					"reward()": "228cb733",
					"setBlockUser(bool)": "75c96c5d",
					"setPaused(bool)": "16c38b3c",
					"stakeToken()": "51ed6a30",
					"totalAmount()": "1a39d8ef",
					"treasuryWallet()": "4626402b",
					"unstakeToken()": "20eb640c",
					"withdrawTax()": "dfa20f0a"
				}
			},
			"storageLayout": {
				"storage": [
					{
						"astId": 3,
						"contract": "contracts/staking.sol:App",
						"label": "owner",
						"offset": 0,
						"slot": "0",
						"type": "t_address"
					},
					{
						"astId": 5,
						"contract": "contracts/staking.sol:App",
						"label": "paused",
						"offset": 20,
						"slot": "0",
						"type": "t_bool"
					},
					{
						"astId": 7,
						"contract": "contracts/staking.sol:App",
						"label": "blockUser",
						"offset": 21,
						"slot": "0",
						"type": "t_bool"
					},
					{
						"astId": 9,
						"contract": "contracts/staking.sol:App",
						"label": "treasuryWallet",
						"offset": 0,
						"slot": "1",
						"type": "t_uint256"
					},
					{
						"astId": 19,
						"contract": "contracts/staking.sol:App",
						"label": "userFunds",
						"offset": 0,
						"slot": "2",
						"type": "t_struct(Stakers)16_storage"
					},
					{
						"astId": 25,
						"contract": "contracts/staking.sol:App",
						"label": "funds",
						"offset": 0,
						"slot": "5",
						"type": "t_mapping(t_address,t_array(t_struct(Stakers)16_storage)dyn_storage)"
					},
					{
						"astId": 29,
						"contract": "contracts/staking.sol:App",
						"label": "hasStaked",
						"offset": 0,
						"slot": "6",
						"type": "t_mapping(t_address,t_bool)"
					},
					{
						"astId": 33,
						"contract": "contracts/staking.sol:App",
						"label": "isStaking",
						"offset": 0,
						"slot": "7",
						"type": "t_mapping(t_address,t_bool)"
					},
					{
						"astId": 153,
						"contract": "contracts/staking.sol:App",
						"label": "reward",
						"offset": 0,
						"slot": "8",
						"type": "t_uint256"
					},
					{
						"astId": 155,
						"contract": "contracts/staking.sol:App",
						"label": "totalAmount",
						"offset": 0,
						"slot": "9",
						"type": "t_uint256"
					}
				],
				"types": {
					"t_address": {
						"encoding": "inplace",
						"label": "address",
						"numberOfBytes": "20"
					},
					"t_array(t_struct(Stakers)16_storage)dyn_storage": {
						"base": "t_struct(Stakers)16_storage",
						"encoding": "dynamic_array",
						"label": "struct App.Stakers[]",
						"numberOfBytes": "32"
					},
					"t_bool": {
						"encoding": "inplace",
						"label": "bool",
						"numberOfBytes": "1"
					},
					"t_mapping(t_address,t_array(t_struct(Stakers)16_storage)dyn_storage)": {
						"encoding": "mapping",
						"key": "t_address",
						"label": "mapping(address => struct App.Stakers[])",
						"numberOfBytes": "32",
						"value": "t_array(t_struct(Stakers)16_storage)dyn_storage"
					},
					"t_mapping(t_address,t_bool)": {
						"encoding": "mapping",
						"key": "t_address",
						"label": "mapping(address => bool)",
						"numberOfBytes": "32",
						"value": "t_bool"
					},
					"t_struct(Stakers)16_storage": {
						"encoding": "inplace",
						"label": "struct App.Stakers",
						"members": [
							{
								"astId": 11,
								"contract": "contracts/staking.sol:App",
								"label": "amount",
								"offset": 0,
								"slot": "0",
								"type": "t_uint256"
							},
							{
								"astId": 13,
								"contract": "contracts/staking.sol:App",
								"label": "since",
								"offset": 0,
								"slot": "1",
								"type": "t_uint256"
							},
							{
								"astId": 15,
								"contract": "contracts/staking.sol:App",
								"label": "lastWithdraw",
								"offset": 0,
								"slot": "2",
								"type": "t_uint256"
							}
						],
						"numberOfBytes": "96"
					},
					"t_uint256": {
						"encoding": "inplace",
						"label": "uint256",
						"numberOfBytes": "32"
					}
				}
			},
			"userdoc": {
				"kind": "user",
				"methods": {},
				"version": 1
			}
		}
	}
}