{
	"contracts/staking.sol": {
		"App": {
			"abi": [
				{
					"inputs": [],
					"stateMutability": "nonpayable",
					"type": "constructor"
				},
				{
					"inputs": [],
					"name": "blockUser",
					"outputs": [
						{
							"internalType": "bool",
							"name": "",
							"type": "bool"
						}
					],
					"stateMutability": "view",
					"type": "function"
				},
				{
					"inputs": [],
					"name": "depositTax",
					"outputs": [],
					"stateMutability": "nonpayable",
					"type": "function"
				},
				{
					"inputs": [
						{
							"internalType": "address",
							"name": "",
							"type": "address"
						},
						{
							"internalType": "uint256",
							"name": "",
							"type": "uint256"
						}
					],
					"name": "funds",
					"outputs": [
						{
							"internalType": "uint256",
							"name": "amount",
							"type": "uint256"
						},
						{
							"internalType": "uint256",
							"name": "since",
							"type": "uint256"
						}
					],
					"stateMutability": "view",
					"type": "function"
				},
				{
					"inputs": [
						{
							"internalType": "address",
							"name": "",
							"type": "address"
						}
					],
					"name": "hasStaked",
					"outputs": [
						{
							"internalType": "bool",
							"name": "",
							"type": "bool"
						}
					],
					"stateMutability": "view",
					"type": "function"
				},
				{
					"inputs": [
						{
							"internalType": "address",
							"name": "",
							"type": "address"
						}
					],
					"name": "isStaking",
					"outputs": [
						{
							"internalType": "bool",
							"name": "",
							"type": "bool"
						}
					],
					"stateMutability": "view",
					"type": "function"
				},
				{
					"inputs": [],
					"name": "issueRewards",
					"outputs": [],
					"stateMutability": "payable",
					"type": "function"
				},
				{
					"inputs": [],
					"name": "owner",
					"outputs": [
						{
							"internalType": "address",
							"name": "",
							"type": "address"
						}
					],
					"stateMutability": "view",
					"type": "function"
				},
				{
					"inputs": [],
					"name": "pauseContract",
					"outputs": [],
					"stateMutability": "view",
					"type": "function"
				},
				{
					"inputs": [],
					"name": "paused",
					"outputs": [
						{
							"internalType": "bool",
							"name": "",
							"type": "bool"
						}
					],
					"stateMutability": "view",
					"type": "function"
				},
				{
					"inputs": [],
					"name": "reward",
					"outputs": [
						{
							"internalType": "uint256",
							"name": "",
							"type": "uint256"
						}
					],
					"stateMutability": "view",
					"type": "function"
				},
				{
					"inputs": [
						{
							"internalType": "bool",
							"name": "_blockUser",
							"type": "bool"
						}
					],
					"name": "setBlockUser",
					"outputs": [],
					"stateMutability": "nonpayable",
					"type": "function"
				},
				{
					"inputs": [
						{
							"internalType": "bool",
							"name": "_paused",
							"type": "bool"
						}
					],
					"name": "setPaused",
					"outputs": [],
					"stateMutability": "nonpayable",
					"type": "function"
				},
				{
					"inputs": [],
					"name": "stakeToken",
					"outputs": [],
					"stateMutability": "payable",
					"type": "function"
				},
				{
					"inputs": [],
					"name": "treasuryWallet",
					"outputs": [
						{
							"internalType": "uint256",
							"name": "",
							"type": "uint256"
						}
					],
					"stateMutability": "view",
					"type": "function"
				},
				{
					"inputs": [],
					"name": "unstakeToken",
					"outputs": [],
					"stateMutability": "payable",
					"type": "function"
				},
				{
					"inputs": [],
					"name": "withdrawTax",
					"outputs": [],
					"stateMutability": "nonpayable",
					"type": "function"
				}
			],
			"devdoc": {
				"kind": "dev",
				"methods": {},
				"version": 1
			},
			"evm": {
				"assembly": "    /* \"contracts/staking.sol\":68:2586  contract App{\r... */\n  mstore(0x40, 0x80)\n    /* \"contracts/staking.sol\":447:506  constructor() public{\r... */\n  callvalue\n  dup1\n  iszero\n  tag_1\n  jumpi\n  0x00\n  dup1\n  revert\ntag_1:\n  pop\n    /* \"contracts/staking.sol\":486:496  msg.sender */\n  caller\n    /* \"contracts/staking.sol\":478:483  owner */\n  0x00\n  dup1\n    /* \"contracts/staking.sol\":478:496  owner = msg.sender */\n  0x0100\n  exp\n  dup2\n  sload\n  dup2\n  0xffffffffffffffffffffffffffffffffffffffff\n  mul\n  not\n  and\n  swap1\n  dup4\n  0xffffffffffffffffffffffffffffffffffffffff\n  and\n  mul\n  or\n  swap1\n  sstore\n  pop\n    /* \"contracts/staking.sol\":68:2586  contract App{\r... */\n  dataSize(sub_0)\n  dup1\n  dataOffset(sub_0)\n  0x00\n  codecopy\n  0x00\n  return\nstop\n\nsub_0: assembly {\n        /* \"contracts/staking.sol\":68:2586  contract App{\r... */\n      mstore(0x40, 0x80)\n      jumpi(tag_1, lt(calldatasize, 0x04))\n      shr(0xe0, calldataload(0x00))\n      dup1\n      0x6f49712b\n      gt\n      tag_18\n      jumpi\n      dup1\n      0xb0370e0c\n      gt\n      tag_19\n      jumpi\n      dup1\n      0xb0370e0c\n      eq\n      tag_14\n      jumpi\n      dup1\n      0xc93c8f34\n      eq\n      tag_15\n      jumpi\n      dup1\n      0xdfa20f0a\n      eq\n      tag_16\n      jumpi\n      dup1\n      0xf765fd8f\n      eq\n      tag_17\n      jumpi\n      jump(tag_1)\n    tag_19:\n      dup1\n      0x6f49712b\n      eq\n      tag_10\n      jumpi\n      dup1\n      0x75c96c5d\n      eq\n      tag_11\n      jumpi\n      dup1\n      0x88b22c24\n      eq\n      tag_12\n      jumpi\n      dup1\n      0x8da5cb5b\n      eq\n      tag_13\n      jumpi\n      jump(tag_1)\n    tag_18:\n      dup1\n      0x439766ce\n      gt\n      tag_20\n      jumpi\n      dup1\n      0x439766ce\n      eq\n      tag_6\n      jumpi\n      dup1\n      0x4626402b\n      eq\n      tag_7\n      jumpi\n      dup1\n      0x51ed6a30\n      eq\n      tag_8\n      jumpi\n      dup1\n      0x5c975abb\n      eq\n      tag_9\n      jumpi\n      jump(tag_1)\n    tag_20:\n      dup1\n      0x021a89ad\n      eq\n      tag_2\n      jumpi\n      dup1\n      0x16c38b3c\n      eq\n      tag_3\n      jumpi\n      dup1\n      0x20eb640c\n      eq\n      tag_4\n      jumpi\n      dup1\n      0x228cb733\n      eq\n      tag_5\n      jumpi\n    tag_1:\n      0x00\n      dup1\n      revert\n        /* \"contracts/staking.sol\":139:160  bool public blockUser */\n    tag_2:\n      callvalue\n      dup1\n      iszero\n      tag_21\n      jumpi\n      0x00\n      dup1\n      revert\n    tag_21:\n      pop\n      tag_22\n      tag_23\n      jump\t// in\n    tag_22:\n      mload(0x40)\n      tag_24\n      swap2\n      swap1\n      tag_25\n      jump\t// in\n    tag_24:\n      mload(0x40)\n      dup1\n      swap2\n      sub\n      swap1\n      return\n        /* \"contracts/staking.sol\":1735:1874  function setPaused(bool _paused) public {\r... */\n    tag_3:\n      callvalue\n      dup1\n      iszero\n      tag_26\n      jumpi\n      0x00\n      dup1\n      revert\n    tag_26:\n      pop\n      tag_27\n      0x04\n      dup1\n      calldatasize\n      sub\n      dup2\n      add\n      swap1\n      tag_28\n      swap2\n      swap1\n      tag_29\n      jump\t// in\n    tag_28:\n      tag_30\n      jump\t// in\n    tag_27:\n      stop\n        /* \"contracts/staking.sol\":941:1207  function unstakeToken() payable public{\r... */\n    tag_4:\n      tag_31\n      tag_32\n      jump\t// in\n    tag_31:\n      stop\n        /* \"contracts/staking.sol\":1241:1259  uint public reward */\n    tag_5:\n      callvalue\n      dup1\n      iszero\n      tag_33\n      jumpi\n      0x00\n      dup1\n      revert\n    tag_33:\n      pop\n      tag_34\n      tag_35\n      jump\t// in\n    tag_34:\n      mload(0x40)\n      tag_36\n      swap2\n      swap1\n      tag_37\n      jump\t// in\n    tag_36:\n      mload(0x40)\n      dup1\n      swap2\n      sub\n      swap1\n      return\n        /* \"contracts/staking.sol\":1882:2066  function pauseContract() public view{\r... */\n    tag_6:\n      callvalue\n      dup1\n      iszero\n      tag_38\n      jumpi\n      0x00\n      dup1\n      revert\n    tag_38:\n      pop\n      tag_39\n      tag_40\n      jump\t// in\n    tag_39:\n      stop\n        /* \"contracts/staking.sol\":167:193  uint public treasuryWallet */\n    tag_7:\n      callvalue\n      dup1\n      iszero\n      tag_41\n      jumpi\n      0x00\n      dup1\n      revert\n    tag_41:\n      pop\n      tag_42\n      tag_43\n      jump\t// in\n    tag_42:\n      mload(0x40)\n      tag_44\n      swap2\n      swap1\n      tag_37\n      jump\t// in\n    tag_44:\n      mload(0x40)\n      dup1\n      swap2\n      sub\n      swap1\n      return\n        /* \"contracts/staking.sol\":539:909  function stakeToken() payable public {\r... */\n    tag_8:\n      tag_45\n      tag_46\n      jump\t// in\n    tag_45:\n      stop\n        /* \"contracts/staking.sol\":114:132  bool public paused */\n    tag_9:\n      callvalue\n      dup1\n      iszero\n      tag_47\n      jumpi\n      0x00\n      dup1\n      revert\n    tag_47:\n      pop\n      tag_48\n      tag_49\n      jump\t// in\n    tag_48:\n      mload(0x40)\n      tag_50\n      swap2\n      swap1\n      tag_25\n      jump\t// in\n    tag_50:\n      mload(0x40)\n      dup1\n      swap2\n      sub\n      swap1\n      return\n        /* \"contracts/staking.sol\":397:438  mapping(address => bool) public isStaking */\n    tag_10:\n      callvalue\n      dup1\n      iszero\n      tag_51\n      jumpi\n      0x00\n      dup1\n      revert\n    tag_51:\n      pop\n      tag_52\n      0x04\n      dup1\n      calldatasize\n      sub\n      dup2\n      add\n      swap1\n      tag_53\n      swap2\n      swap1\n      tag_54\n      jump\t// in\n    tag_53:\n      tag_55\n      jump\t// in\n    tag_52:\n      mload(0x40)\n      tag_56\n      swap2\n      swap1\n      tag_25\n      jump\t// in\n    tag_56:\n      mload(0x40)\n      dup1\n      swap2\n      sub\n      swap1\n      return\n        /* \"contracts/staking.sol\":2421:2580  function setBlockUser(bool _blockUser) public {\r... */\n    tag_11:\n      callvalue\n      dup1\n      iszero\n      tag_57\n      jumpi\n      0x00\n      dup1\n      revert\n    tag_57:\n      pop\n      tag_58\n      0x04\n      dup1\n      calldatasize\n      sub\n      dup2\n      add\n      swap1\n      tag_59\n      swap2\n      swap1\n      tag_29\n      jump\t// in\n    tag_59:\n      tag_60\n      jump\t// in\n    tag_58:\n      stop\n        /* \"contracts/staking.sol\":300:342  mapping(address => Stakers[]) public funds */\n    tag_12:\n      callvalue\n      dup1\n      iszero\n      tag_61\n      jumpi\n      0x00\n      dup1\n      revert\n    tag_61:\n      pop\n      tag_62\n      0x04\n      dup1\n      calldatasize\n      sub\n      dup2\n      add\n      swap1\n      tag_63\n      swap2\n      swap1\n      tag_64\n      jump\t// in\n    tag_63:\n      tag_65\n      jump\t// in\n    tag_62:\n      mload(0x40)\n      tag_66\n      swap3\n      swap2\n      swap1\n      tag_67\n      jump\t// in\n    tag_66:\n      mload(0x40)\n      dup1\n      swap2\n      sub\n      swap1\n      return\n        /* \"contracts/staking.sol\":87:107  address public owner */\n    tag_13:\n      callvalue\n      dup1\n      iszero\n      tag_68\n      jumpi\n      0x00\n      dup1\n      revert\n    tag_68:\n      pop\n      tag_69\n      tag_70\n      jump\t// in\n    tag_69:\n      mload(0x40)\n      tag_71\n      swap2\n      swap1\n      tag_72\n      jump\t// in\n    tag_71:\n      mload(0x40)\n      dup1\n      swap2\n      sub\n      swap1\n      return\n        /* \"contracts/staking.sol\":1268:1698  function issueRewards() payable public{\r... */\n    tag_14:\n      tag_73\n      tag_74\n      jump\t// in\n    tag_73:\n      stop\n        /* \"contracts/staking.sol\":349:390  mapping(address => bool) public hasStaked */\n    tag_15:\n      callvalue\n      dup1\n      iszero\n      tag_75\n      jumpi\n      0x00\n      dup1\n      revert\n    tag_75:\n      pop\n      tag_76\n      0x04\n      dup1\n      calldatasize\n      sub\n      dup2\n      add\n      swap1\n      tag_77\n      swap2\n      swap1\n      tag_54\n      jump\t// in\n    tag_77:\n      tag_78\n      jump\t// in\n    tag_76:\n      mload(0x40)\n      tag_79\n      swap2\n      swap1\n      tag_25\n      jump\t// in\n    tag_79:\n      mload(0x40)\n      dup1\n      swap2\n      sub\n      swap1\n      return\n        /* \"contracts/staking.sol\":2249:2384  function withdrawTax() public{\r... */\n    tag_16:\n      callvalue\n      dup1\n      iszero\n      tag_80\n      jumpi\n      0x00\n      dup1\n      revert\n    tag_80:\n      pop\n      tag_81\n      tag_82\n      jump\t// in\n    tag_81:\n      stop\n        /* \"contracts/staking.sol\":2107:2241  function depositTax() public{\r... */\n    tag_17:\n      callvalue\n      dup1\n      iszero\n      tag_83\n      jumpi\n      0x00\n      dup1\n      revert\n    tag_83:\n      pop\n      tag_84\n      tag_85\n      jump\t// in\n    tag_84:\n      stop\n        /* \"contracts/staking.sol\":139:160  bool public blockUser */\n    tag_23:\n      0x00\n      0x15\n      swap1\n      sload\n      swap1\n      0x0100\n      exp\n      swap1\n      div\n      0xff\n      and\n      dup2\n      jump\t// out\n        /* \"contracts/staking.sol\":1735:1874  function setPaused(bool _paused) public {\r... */\n    tag_30:\n        /* \"contracts/staking.sol\":1808:1813  owner */\n      0x00\n      dup1\n      sload\n      swap1\n      0x0100\n      exp\n      swap1\n      div\n      0xffffffffffffffffffffffffffffffffffffffff\n      and\n        /* \"contracts/staking.sol\":1794:1813  msg.sender == owner */\n      0xffffffffffffffffffffffffffffffffffffffff\n      and\n        /* \"contracts/staking.sol\":1794:1804  msg.sender */\n      caller\n        /* \"contracts/staking.sol\":1794:1813  msg.sender == owner */\n      0xffffffffffffffffffffffffffffffffffffffff\n      and\n      eq\n        /* \"contracts/staking.sol\":1786:1839  require(msg.sender == owner, \"You are not the owner\") */\n      tag_87\n      jumpi\n      mload(0x40)\n      0x08c379a000000000000000000000000000000000000000000000000000000000\n      dup2\n      mstore\n      0x04\n      add\n      tag_88\n      swap1\n      tag_89\n      jump\t// in\n    tag_88:\n      mload(0x40)\n      dup1\n      swap2\n      sub\n      swap1\n      revert\n    tag_87:\n        /* \"contracts/staking.sol\":1859:1866  _paused */\n      dup1\n        /* \"contracts/staking.sol\":1850:1856  paused */\n      0x00\n      0x14\n        /* \"contracts/staking.sol\":1850:1866  paused = _paused */\n      0x0100\n      exp\n      dup2\n      sload\n      dup2\n      0xff\n      mul\n      not\n      and\n      swap1\n      dup4\n      iszero\n      iszero\n      mul\n      or\n      swap1\n      sstore\n      pop\n        /* \"contracts/staking.sol\":1735:1874  function setPaused(bool _paused) public {\r... */\n      pop\n      jump\t// out\n        /* \"contracts/staking.sol\":941:1207  function unstakeToken() payable public{\r... */\n    tag_32:\n        /* \"contracts/staking.sol\":1027:1028  0 */\n      0x00\n        /* \"contracts/staking.sol\":1008:1017  userFunds */\n      0x02\n        /* \"contracts/staking.sol\":1008:1024  userFunds.amount */\n      0x00\n      add\n      sload\n        /* \"contracts/staking.sol\":1008:1028  userFunds.amount > 0 */\n      gt\n        /* \"contracts/staking.sol\":1000:1060  require(userFunds.amount > 0, \"funds cannot be less than 0\") */\n      tag_91\n      jumpi\n      mload(0x40)\n      0x08c379a000000000000000000000000000000000000000000000000000000000\n      dup2\n      mstore\n      0x04\n      add\n      tag_92\n      swap1\n      tag_93\n      jump\t// in\n    tag_92:\n      mload(0x40)\n      dup1\n      swap2\n      sub\n      swap1\n      revert\n    tag_91:\n        /* \"contracts/staking.sol\":1079:1089  msg.sender */\n      caller\n        /* \"contracts/staking.sol\":1071:1099  payable(msg.sender).transfer */\n      0xffffffffffffffffffffffffffffffffffffffff\n      and\n        /* \"contracts/staking.sol\":1071:1122  payable(msg.sender).transfer(address(this).balance) */\n      0x08fc\n        /* \"contracts/staking.sol\":1100:1121  address(this).balance */\n      selfbalance\n        /* \"contracts/staking.sol\":1071:1122  payable(msg.sender).transfer(address(this).balance) */\n      swap1\n      dup2\n      iszero\n      mul\n      swap1\n      mload(0x40)\n      0x00\n      mload(0x40)\n      dup1\n      dup4\n      sub\n      dup2\n      dup6\n      dup9\n      dup9\n      call\n      swap4\n      pop\n      pop\n      pop\n      pop\n      iszero\n      dup1\n      iszero\n      tag_95\n      jumpi\n      returndatasize\n      0x00\n      dup1\n      returndatacopy\n      revert(0x00, returndatasize)\n    tag_95:\n      pop\n        /* \"contracts/staking.sol\":1192:1197  false */\n      0x00\n        /* \"contracts/staking.sol\":1168:1177  isStaking */\n      0x06\n        /* \"contracts/staking.sol\":1168:1189  isStaking[msg.sender] */\n      0x00\n        /* \"contracts/staking.sol\":1178:1188  msg.sender */\n      caller\n        /* \"contracts/staking.sol\":1168:1189  isStaking[msg.sender] */\n      0xffffffffffffffffffffffffffffffffffffffff\n      and\n      0xffffffffffffffffffffffffffffffffffffffff\n      and\n      dup2\n      mstore\n      0x20\n      add\n      swap1\n      dup2\n      mstore\n      0x20\n      add\n      0x00\n      keccak256\n      0x00\n        /* \"contracts/staking.sol\":1168:1197  isStaking[msg.sender] = false */\n      0x0100\n      exp\n      dup2\n      sload\n      dup2\n      0xff\n      mul\n      not\n      and\n      swap1\n      dup4\n      iszero\n      iszero\n      mul\n      or\n      swap1\n      sstore\n      pop\n        /* \"contracts/staking.sol\":941:1207  function unstakeToken() payable public{\r... */\n      jump\t// out\n        /* \"contracts/staking.sol\":1241:1259  uint public reward */\n    tag_35:\n      sload(0x07)\n      dup2\n      jump\t// out\n        /* \"contracts/staking.sol\":1882:2066  function pauseContract() public view{\r... */\n    tag_40:\n        /* \"contracts/staking.sol\":1951:1956  owner */\n      0x00\n      dup1\n      sload\n      swap1\n      0x0100\n      exp\n      swap1\n      div\n      0xffffffffffffffffffffffffffffffffffffffff\n      and\n        /* \"contracts/staking.sol\":1937:1956  msg.sender == owner */\n      0xffffffffffffffffffffffffffffffffffffffff\n      and\n        /* \"contracts/staking.sol\":1937:1947  msg.sender */\n      caller\n        /* \"contracts/staking.sol\":1937:1956  msg.sender == owner */\n      0xffffffffffffffffffffffffffffffffffffffff\n      and\n      eq\n        /* \"contracts/staking.sol\":1929:1994  require(msg.sender == owner, \"Only owner can pause the contract\") */\n      tag_97\n      jumpi\n      mload(0x40)\n      0x08c379a000000000000000000000000000000000000000000000000000000000\n      dup2\n      mstore\n      0x04\n      add\n      tag_98\n      swap1\n      tag_99\n      jump\t// in\n    tag_98:\n      mload(0x40)\n      dup1\n      swap2\n      sub\n      swap1\n      revert\n    tag_97:\n        /* \"contracts/staking.sol\":2023:2028  false */\n      0x00\n        /* \"contracts/staking.sol\":2013:2028  paused == false */\n      iszero\n      iszero\n        /* \"contracts/staking.sol\":2013:2019  paused */\n      0x00\n      0x14\n      swap1\n      sload\n      swap1\n      0x0100\n      exp\n      swap1\n      div\n      0xff\n      and\n        /* \"contracts/staking.sol\":2013:2028  paused == false */\n      iszero\n      iszero\n      eq\n        /* \"contracts/staking.sol\":2005:2048  require(paused == false, \"Contract Paused\") */\n      tag_100\n      jumpi\n      mload(0x40)\n      0x08c379a000000000000000000000000000000000000000000000000000000000\n      dup2\n      mstore\n      0x04\n      add\n      tag_101\n      swap1\n      tag_102\n      jump\t// in\n    tag_101:\n      mload(0x40)\n      dup1\n      swap2\n      sub\n      swap1\n      revert\n    tag_100:\n        /* \"contracts/staking.sol\":1882:2066  function pauseContract() public view{\r... */\n      jump\t// out\n        /* \"contracts/staking.sol\":167:193  uint public treasuryWallet */\n    tag_43:\n      sload(0x01)\n      dup2\n      jump\t// out\n        /* \"contracts/staking.sol\":539:909  function stakeToken() payable public {\r... */\n    tag_46:\n        /* \"contracts/staking.sol\":613:614  0 */\n      0x00\n        /* \"contracts/staking.sol\":601:610  msg.value */\n      callvalue\n        /* \"contracts/staking.sol\":601:614  msg.value > 0 */\n      gt\n        /* \"contracts/staking.sol\":593:637  require(msg.value > 0, \"amount cannot be 0\") */\n      tag_104\n      jumpi\n      mload(0x40)\n      0x08c379a000000000000000000000000000000000000000000000000000000000\n      dup2\n      mstore\n      0x04\n      add\n      tag_105\n      swap1\n      tag_106\n      jump\t// in\n    tag_105:\n      mload(0x40)\n      dup1\n      swap2\n      sub\n      swap1\n      revert\n    tag_104:\n        /* \"contracts/staking.sol\":669:674  false */\n      0x00\n        /* \"contracts/staking.sol\":656:674  blockUser == false */\n      iszero\n      iszero\n        /* \"contracts/staking.sol\":656:665  blockUser */\n      0x00\n      0x15\n      swap1\n      sload\n      swap1\n      0x0100\n      exp\n      swap1\n      div\n      0xff\n      and\n        /* \"contracts/staking.sol\":656:674  blockUser == false */\n      iszero\n      iszero\n      eq\n        /* \"contracts/staking.sol\":648:692  require(blockUser == false, \"User Blocked!\") */\n      tag_107\n      jumpi\n      mload(0x40)\n      0x08c379a000000000000000000000000000000000000000000000000000000000\n      dup2\n      mstore\n      0x04\n      add\n      tag_108\n      swap1\n      tag_109\n      jump\t// in\n    tag_108:\n      mload(0x40)\n      dup1\n      swap2\n      sub\n      swap1\n      revert\n    tag_107:\n        /* \"contracts/staking.sol\":722:731  msg.value */\n      callvalue\n        /* \"contracts/staking.sol\":703:712  userFunds */\n      0x02\n        /* \"contracts/staking.sol\":703:719  userFunds.amount */\n      0x00\n      add\n        /* \"contracts/staking.sol\":703:731  userFunds.amount = msg.value */\n      dup2\n      swap1\n      sstore\n      pop\n        /* \"contracts/staking.sol\":760:775  block.timestamp */\n      timestamp\n        /* \"contracts/staking.sol\":742:751  userFunds */\n      0x02\n        /* \"contracts/staking.sol\":742:757  userFunds.since */\n      0x01\n      add\n        /* \"contracts/staking.sol\":742:775  userFunds.since = block.timestamp */\n      dup2\n      swap1\n      sstore\n      pop\n        /* \"contracts/staking.sol\":788:793  funds */\n      0x04\n        /* \"contracts/staking.sol\":788:805  funds[msg.sender] */\n      0x00\n        /* \"contracts/staking.sol\":794:804  msg.sender */\n      caller\n        /* \"contracts/staking.sol\":788:805  funds[msg.sender] */\n      0xffffffffffffffffffffffffffffffffffffffff\n      and\n      0xffffffffffffffffffffffffffffffffffffffff\n      and\n      dup2\n      mstore\n      0x20\n      add\n      swap1\n      dup2\n      mstore\n      0x20\n      add\n      0x00\n      keccak256\n        /* \"contracts/staking.sol\":811:820  userFunds */\n      0x02\n        /* \"contracts/staking.sol\":788:821  funds[msg.sender].push(userFunds) */\n      swap1\n      dup1\n      0x01\n      dup2\n      sload\n      add\n      dup1\n      dup3\n      sstore\n      dup1\n      swap2\n      pop\n      pop\n      0x01\n      swap1\n      sub\n      swap1\n      0x00\n      mstore\n      keccak256(0x00, 0x20)\n      swap1\n      0x02\n      mul\n      add\n      0x00\n      swap1\n      swap2\n      swap1\n      swap2\n      swap1\n      swap2\n      pop\n      0x00\n      dup3\n      add\n      sload\n      dup2\n      0x00\n      add\n      sstore\n      0x01\n      dup3\n      add\n      sload\n      dup2\n      0x01\n      add\n      sstore\n      pop\n      pop\n        /* \"contracts/staking.sol\":858:862  true */\n      0x01\n        /* \"contracts/staking.sol\":834:843  isStaking */\n      0x06\n        /* \"contracts/staking.sol\":834:855  isStaking[msg.sender] */\n      0x00\n        /* \"contracts/staking.sol\":844:854  msg.sender */\n      caller\n        /* \"contracts/staking.sol\":834:855  isStaking[msg.sender] */\n      0xffffffffffffffffffffffffffffffffffffffff\n      and\n      0xffffffffffffffffffffffffffffffffffffffff\n      and\n      dup2\n      mstore\n      0x20\n      add\n      swap1\n      dup2\n      mstore\n      0x20\n      add\n      0x00\n      keccak256\n      0x00\n        /* \"contracts/staking.sol\":834:862  isStaking[msg.sender] = true */\n      0x0100\n      exp\n      dup2\n      sload\n      dup2\n      0xff\n      mul\n      not\n      and\n      swap1\n      dup4\n      iszero\n      iszero\n      mul\n      or\n      swap1\n      sstore\n      pop\n        /* \"contracts/staking.sol\":897:901  true */\n      0x01\n        /* \"contracts/staking.sol\":873:882  hasStaked */\n      0x05\n        /* \"contracts/staking.sol\":873:894  hasStaked[msg.sender] */\n      0x00\n        /* \"contracts/staking.sol\":883:893  msg.sender */\n      caller\n        /* \"contracts/staking.sol\":873:894  hasStaked[msg.sender] */\n      0xffffffffffffffffffffffffffffffffffffffff\n      and\n      0xffffffffffffffffffffffffffffffffffffffff\n      and\n      dup2\n      mstore\n      0x20\n      add\n      swap1\n      dup2\n      mstore\n      0x20\n      add\n      0x00\n      keccak256\n      0x00\n        /* \"contracts/staking.sol\":873:901  hasStaked[msg.sender] = true */\n      0x0100\n      exp\n      dup2\n      sload\n      dup2\n      0xff\n      mul\n      not\n      and\n      swap1\n      dup4\n      iszero\n      iszero\n      mul\n      or\n      swap1\n      sstore\n      pop\n        /* \"contracts/staking.sol\":539:909  function stakeToken() payable public {\r... */\n      jump\t// out\n        /* \"contracts/staking.sol\":114:132  bool public paused */\n    tag_49:\n      0x00\n      0x14\n      swap1\n      sload\n      swap1\n      0x0100\n      exp\n      swap1\n      div\n      0xff\n      and\n      dup2\n      jump\t// out\n        /* \"contracts/staking.sol\":397:438  mapping(address => bool) public isStaking */\n    tag_55:\n      mstore(0x20, 0x06)\n      dup1\n      0x00\n      mstore\n      keccak256(0x00, 0x40)\n      0x00\n      swap2\n      pop\n      sload\n      swap1\n      0x0100\n      exp\n      swap1\n      div\n      0xff\n      and\n      dup2\n      jump\t// out\n        /* \"contracts/staking.sol\":2421:2580  function setBlockUser(bool _blockUser) public {\r... */\n    tag_60:\n        /* \"contracts/staking.sol\":2500:2505  owner */\n      0x00\n      dup1\n      sload\n      swap1\n      0x0100\n      exp\n      swap1\n      div\n      0xffffffffffffffffffffffffffffffffffffffff\n      and\n        /* \"contracts/staking.sol\":2486:2505  msg.sender == owner */\n      0xffffffffffffffffffffffffffffffffffffffff\n      and\n        /* \"contracts/staking.sol\":2486:2496  msg.sender */\n      caller\n        /* \"contracts/staking.sol\":2486:2505  msg.sender == owner */\n      0xffffffffffffffffffffffffffffffffffffffff\n      and\n      eq\n        /* \"contracts/staking.sol\":2478:2539  require(msg.sender == owner, \"Only owner can block the user\") */\n      tag_112\n      jumpi\n      mload(0x40)\n      0x08c379a000000000000000000000000000000000000000000000000000000000\n      dup2\n      mstore\n      0x04\n      add\n      tag_113\n      swap1\n      tag_114\n      jump\t// in\n    tag_113:\n      mload(0x40)\n      dup1\n      swap2\n      sub\n      swap1\n      revert\n    tag_112:\n        /* \"contracts/staking.sol\":2562:2572  _blockUser */\n      dup1\n        /* \"contracts/staking.sol\":2550:2559  blockUser */\n      0x00\n      0x15\n        /* \"contracts/staking.sol\":2550:2572  blockUser = _blockUser */\n      0x0100\n      exp\n      dup2\n      sload\n      dup2\n      0xff\n      mul\n      not\n      and\n      swap1\n      dup4\n      iszero\n      iszero\n      mul\n      or\n      swap1\n      sstore\n      pop\n        /* \"contracts/staking.sol\":2421:2580  function setBlockUser(bool _blockUser) public {\r... */\n      pop\n      jump\t// out\n        /* \"contracts/staking.sol\":300:342  mapping(address => Stakers[]) public funds */\n    tag_65:\n      mstore(0x20, 0x04)\n      dup2\n      0x00\n      mstore\n      keccak256(0x00, 0x40)\n      dup2\n      dup2\n      sload\n      dup2\n      lt\n      tag_115\n      jumpi\n      0x00\n      dup1\n      revert\n    tag_115:\n      swap1\n      0x00\n      mstore\n      keccak256(0x00, 0x20)\n      swap1\n      0x02\n      mul\n      add\n      0x00\n      swap2\n      pop\n      swap2\n      pop\n      pop\n      dup1\n      0x00\n      add\n      sload\n      swap1\n      dup1\n      0x01\n      add\n      sload\n      swap1\n      pop\n      dup3\n      jump\t// out\n        /* \"contracts/staking.sol\":87:107  address public owner */\n    tag_70:\n      0x00\n      dup1\n      sload\n      swap1\n      0x0100\n      exp\n      swap1\n      div\n      0xffffffffffffffffffffffffffffffffffffffff\n      and\n      dup2\n      jump\t// out\n        /* \"contracts/staking.sol\":1268:1698  function issueRewards() payable public{\r... */\n    tag_74:\n        /* \"contracts/staking.sol\":1339:1344  owner */\n      0x00\n      dup1\n      sload\n      swap1\n      0x0100\n      exp\n      swap1\n      div\n      0xffffffffffffffffffffffffffffffffffffffff\n      and\n        /* \"contracts/staking.sol\":1325:1344  msg.sender == owner */\n      0xffffffffffffffffffffffffffffffffffffffff\n      and\n        /* \"contracts/staking.sol\":1325:1335  msg.sender */\n      caller\n        /* \"contracts/staking.sol\":1325:1344  msg.sender == owner */\n      0xffffffffffffffffffffffffffffffffffffffff\n      and\n      eq\n        /* \"contracts/staking.sol\":1317:1373  require(msg.sender == owner, \"caller must be the owner\") */\n      tag_118\n      jumpi\n      mload(0x40)\n      0x08c379a000000000000000000000000000000000000000000000000000000000\n      dup2\n      mstore\n      0x04\n      add\n      tag_119\n      swap1\n      tag_120\n      jump\t// in\n    tag_119:\n      mload(0x40)\n      dup1\n      swap2\n      sub\n      swap1\n      revert\n    tag_118:\n        /* \"contracts/staking.sol\":1400:1406  uint i */\n      0x00\n        /* \"contracts/staking.sol\":1395:1632  for (uint i = 0; i < funds[msg.sender].length; i++){\r... */\n    tag_121:\n        /* \"contracts/staking.sol\":1416:1421  funds */\n      0x04\n        /* \"contracts/staking.sol\":1416:1433  funds[msg.sender] */\n      0x00\n        /* \"contracts/staking.sol\":1422:1432  msg.sender */\n      caller\n        /* \"contracts/staking.sol\":1416:1433  funds[msg.sender] */\n      0xffffffffffffffffffffffffffffffffffffffff\n      and\n      0xffffffffffffffffffffffffffffffffffffffff\n      and\n      dup2\n      mstore\n      0x20\n      add\n      swap1\n      dup2\n      mstore\n      0x20\n      add\n      0x00\n      keccak256\n        /* \"contracts/staking.sol\":1416:1440  funds[msg.sender].length */\n      dup1\n      sload\n      swap1\n      pop\n        /* \"contracts/staking.sol\":1412:1413  i */\n      dup2\n        /* \"contracts/staking.sol\":1412:1440  i < funds[msg.sender].length */\n      lt\n        /* \"contracts/staking.sol\":1395:1632  for (uint i = 0; i < funds[msg.sender].length; i++){\r... */\n      iszero\n      tag_122\n      jumpi\n        /* \"contracts/staking.sol\":1461:1481  uint currentUserFund */\n      0x00\n        /* \"contracts/staking.sol\":1484:1489  funds */\n      0x04\n        /* \"contracts/staking.sol\":1484:1501  funds[msg.sender] */\n      0x00\n        /* \"contracts/staking.sol\":1490:1500  msg.sender */\n      caller\n        /* \"contracts/staking.sol\":1484:1501  funds[msg.sender] */\n      0xffffffffffffffffffffffffffffffffffffffff\n      and\n      0xffffffffffffffffffffffffffffffffffffffff\n      and\n      dup2\n      mstore\n      0x20\n      add\n      swap1\n      dup2\n      mstore\n      0x20\n      add\n      0x00\n      keccak256\n        /* \"contracts/staking.sol\":1502:1503  i */\n      dup3\n        /* \"contracts/staking.sol\":1484:1504  funds[msg.sender][i] */\n      dup2\n      sload\n      dup2\n      lt\n      tag_124\n      jumpi\n      tag_125\n      tag_126\n      jump\t// in\n    tag_125:\n    tag_124:\n      swap1\n      0x00\n      mstore\n      keccak256(0x00, 0x20)\n      swap1\n      0x02\n      mul\n      add\n        /* \"contracts/staking.sol\":1484:1511  funds[msg.sender][i].amount */\n      0x00\n      add\n      sload\n        /* \"contracts/staking.sol\":1461:1511  uint currentUserFund = funds[msg.sender][i].amount */\n      swap1\n      pop\n        /* \"contracts/staking.sol\":1612:1615  100 */\n      0x64\n        /* \"contracts/staking.sol\":1596:1611  currentUserFund */\n      dup2\n        /* \"contracts/staking.sol\":1587:1592  86400 */\n      0x015180\n        /* \"contracts/staking.sol\":1557:1562  funds */\n      0x04\n        /* \"contracts/staking.sol\":1557:1574  funds[msg.sender] */\n      0x00\n        /* \"contracts/staking.sol\":1563:1573  msg.sender */\n      caller\n        /* \"contracts/staking.sol\":1557:1574  funds[msg.sender] */\n      0xffffffffffffffffffffffffffffffffffffffff\n      and\n      0xffffffffffffffffffffffffffffffffffffffff\n      and\n      dup2\n      mstore\n      0x20\n      add\n      swap1\n      dup2\n      mstore\n      0x20\n      add\n      0x00\n      keccak256\n        /* \"contracts/staking.sol\":1575:1576  i */\n      dup6\n        /* \"contracts/staking.sol\":1557:1577  funds[msg.sender][i] */\n      dup2\n      sload\n      dup2\n      lt\n      tag_128\n      jumpi\n      tag_129\n      tag_126\n      jump\t// in\n    tag_129:\n    tag_128:\n      swap1\n      0x00\n      mstore\n      keccak256(0x00, 0x20)\n      swap1\n      0x02\n      mul\n      add\n        /* \"contracts/staking.sol\":1557:1583  funds[msg.sender][i].since */\n      0x01\n      add\n      sload\n        /* \"contracts/staking.sol\":1539:1554  block.timestamp */\n      timestamp\n        /* \"contracts/staking.sol\":1539:1583  block.timestamp - funds[msg.sender][i].since */\n      tag_131\n      swap2\n      swap1\n      tag_132\n      jump\t// in\n    tag_131:\n        /* \"contracts/staking.sol\":1538:1592  (block.timestamp - funds[msg.sender][i].since) / 86400 */\n      tag_133\n      swap2\n      swap1\n      tag_134\n      jump\t// in\n    tag_133:\n        /* \"contracts/staking.sol\":1537:1611  ((block.timestamp - funds[msg.sender][i].since) / 86400) * currentUserFund */\n      tag_135\n      swap2\n      swap1\n      tag_136\n      jump\t// in\n    tag_135:\n        /* \"contracts/staking.sol\":1537:1615  ((block.timestamp - funds[msg.sender][i].since) / 86400) * currentUserFund/100 */\n      tag_137\n      swap2\n      swap1\n      tag_134\n      jump\t// in\n    tag_137:\n        /* \"contracts/staking.sol\":1526:1532  reward */\n      0x07\n      0x00\n        /* \"contracts/staking.sol\":1526:1616  reward += (((block.timestamp - funds[msg.sender][i].since) / 86400) * currentUserFund/100) */\n      dup3\n      dup3\n      sload\n      tag_138\n      swap2\n      swap1\n      tag_139\n      jump\t// in\n    tag_138:\n      swap3\n      pop\n      pop\n      dup2\n      swap1\n      sstore\n      pop\n        /* \"contracts/staking.sol\":1446:1632  {\r... */\n      pop\n        /* \"contracts/staking.sol\":1442:1445  i++ */\n      dup1\n      dup1\n      tag_140\n      swap1\n      tag_141\n      jump\t// in\n    tag_140:\n      swap2\n      pop\n      pop\n        /* \"contracts/staking.sol\":1395:1632  for (uint i = 0; i < funds[msg.sender].length; i++){\r... */\n      jump(tag_121)\n    tag_122:\n      pop\n        /* \"contracts/staking.sol\":1650:1660  msg.sender */\n      caller\n        /* \"contracts/staking.sol\":1642:1670  payable(msg.sender).transfer */\n      0xffffffffffffffffffffffffffffffffffffffff\n      and\n        /* \"contracts/staking.sol\":1642:1678  payable(msg.sender).transfer(reward) */\n      0x08fc\n        /* \"contracts/staking.sol\":1671:1677  reward */\n      sload(0x07)\n        /* \"contracts/staking.sol\":1642:1678  payable(msg.sender).transfer(reward) */\n      swap1\n      dup2\n      iszero\n      mul\n      swap1\n      mload(0x40)\n      0x00\n      mload(0x40)\n      dup1\n      dup4\n      sub\n      dup2\n      dup6\n      dup9\n      dup9\n      call\n      swap4\n      pop\n      pop\n      pop\n      pop\n      iszero\n      dup1\n      iszero\n      tag_143\n      jumpi\n      returndatasize\n      0x00\n      dup1\n      returndatacopy\n      revert(0x00, returndatasize)\n    tag_143:\n      pop\n        /* \"contracts/staking.sol\":1268:1698  function issueRewards() payable public{\r... */\n      jump\t// out\n        /* \"contracts/staking.sol\":349:390  mapping(address => bool) public hasStaked */\n    tag_78:\n      mstore(0x20, 0x05)\n      dup1\n      0x00\n      mstore\n      keccak256(0x00, 0x40)\n      0x00\n      swap2\n      pop\n      sload\n      swap1\n      0x0100\n      exp\n      swap1\n      div\n      0xff\n      and\n      dup2\n      jump\t// out\n        /* \"contracts/staking.sol\":2249:2384  function withdrawTax() public{\r... */\n    tag_82:\n        /* \"contracts/staking.sol\":2289:2297  uint tax */\n      0x00\n        /* \"contracts/staking.sol\":2323:2326  100 */\n      0x64\n        /* \"contracts/staking.sol\":2319:2320  5 */\n      0x05\n        /* \"contracts/staking.sol\":2300:2309  userFunds */\n      0x02\n        /* \"contracts/staking.sol\":2300:2316  userFunds.amount */\n      0x00\n      add\n      sload\n        /* \"contracts/staking.sol\":2300:2320  userFunds.amount * 5 */\n      tag_145\n      swap2\n      swap1\n      tag_136\n      jump\t// in\n    tag_145:\n        /* \"contracts/staking.sol\":2300:2326  userFunds.amount * 5 / 100 */\n      tag_146\n      swap2\n      swap1\n      tag_134\n      jump\t// in\n    tag_146:\n        /* \"contracts/staking.sol\":2289:2326  uint tax = userFunds.amount * 5 / 100 */\n      swap1\n      pop\n        /* \"contracts/staking.sol\":2373:2376  tax */\n      dup1\n        /* \"contracts/staking.sol\":2354:2363  userFunds */\n      0x02\n        /* \"contracts/staking.sol\":2354:2370  userFunds.amount */\n      0x00\n      add\n      sload\n        /* \"contracts/staking.sol\":2354:2376  userFunds.amount - tax */\n      tag_147\n      swap2\n      swap1\n      tag_132\n      jump\t// in\n    tag_147:\n        /* \"contracts/staking.sol\":2337:2351  treasuryWallet */\n      0x01\n        /* \"contracts/staking.sol\":2337:2376  treasuryWallet = userFunds.amount - tax */\n      dup2\n      swap1\n      sstore\n      pop\n        /* \"contracts/staking.sol\":2278:2384  {\r... */\n      pop\n        /* \"contracts/staking.sol\":2249:2384  function withdrawTax() public{\r... */\n      jump\t// out\n        /* \"contracts/staking.sol\":2107:2241  function depositTax() public{\r... */\n    tag_85:\n        /* \"contracts/staking.sol\":2146:2154  uint tax */\n      0x00\n        /* \"contracts/staking.sol\":2180:2183  100 */\n      0x64\n        /* \"contracts/staking.sol\":2176:2177  5 */\n      0x05\n        /* \"contracts/staking.sol\":2157:2166  userFunds */\n      0x02\n        /* \"contracts/staking.sol\":2157:2173  userFunds.amount */\n      0x00\n      add\n      sload\n        /* \"contracts/staking.sol\":2157:2177  userFunds.amount * 5 */\n      tag_149\n      swap2\n      swap1\n      tag_136\n      jump\t// in\n    tag_149:\n        /* \"contracts/staking.sol\":2157:2183  userFunds.amount * 5 / 100 */\n      tag_150\n      swap2\n      swap1\n      tag_134\n      jump\t// in\n    tag_150:\n        /* \"contracts/staking.sol\":2146:2183  uint tax = userFunds.amount * 5 / 100 */\n      swap1\n      pop\n        /* \"contracts/staking.sol\":2230:2233  tax */\n      dup1\n        /* \"contracts/staking.sol\":2211:2220  userFunds */\n      0x02\n        /* \"contracts/staking.sol\":2211:2227  userFunds.amount */\n      0x00\n      add\n      sload\n        /* \"contracts/staking.sol\":2211:2233  userFunds.amount + tax */\n      tag_151\n      swap2\n      swap1\n      tag_139\n      jump\t// in\n    tag_151:\n        /* \"contracts/staking.sol\":2194:2208  treasuryWallet */\n      0x01\n        /* \"contracts/staking.sol\":2194:2233  treasuryWallet = userFunds.amount + tax */\n      dup2\n      swap1\n      sstore\n      pop\n        /* \"contracts/staking.sol\":2135:2241  {\r... */\n      pop\n        /* \"contracts/staking.sol\":2107:2241  function depositTax() public{\r... */\n      jump\t// out\n        /* \"#utility.yul\":7:146   */\n    tag_153:\n        /* \"#utility.yul\":53:58   */\n      0x00\n        /* \"#utility.yul\":91:97   */\n      dup2\n        /* \"#utility.yul\":78:98   */\n      calldataload\n        /* \"#utility.yul\":69:98   */\n      swap1\n      pop\n        /* \"#utility.yul\":107:140   */\n      tag_155\n        /* \"#utility.yul\":134:139   */\n      dup2\n        /* \"#utility.yul\":107:140   */\n      tag_156\n      jump\t// in\n    tag_155:\n        /* \"#utility.yul\":7:146   */\n      swap3\n      swap2\n      pop\n      pop\n      jump\t// out\n        /* \"#utility.yul\":152:285   */\n    tag_157:\n        /* \"#utility.yul\":195:200   */\n      0x00\n        /* \"#utility.yul\":233:239   */\n      dup2\n        /* \"#utility.yul\":220:240   */\n      calldataload\n        /* \"#utility.yul\":211:240   */\n      swap1\n      pop\n        /* \"#utility.yul\":249:279   */\n      tag_159\n        /* \"#utility.yul\":273:278   */\n      dup2\n        /* \"#utility.yul\":249:279   */\n      tag_160\n      jump\t// in\n    tag_159:\n        /* \"#utility.yul\":152:285   */\n      swap3\n      swap2\n      pop\n      pop\n      jump\t// out\n        /* \"#utility.yul\":291:430   */\n    tag_161:\n        /* \"#utility.yul\":337:342   */\n      0x00\n        /* \"#utility.yul\":375:381   */\n      dup2\n        /* \"#utility.yul\":362:382   */\n      calldataload\n        /* \"#utility.yul\":353:382   */\n      swap1\n      pop\n        /* \"#utility.yul\":391:424   */\n      tag_163\n        /* \"#utility.yul\":418:423   */\n      dup2\n        /* \"#utility.yul\":391:424   */\n      tag_164\n      jump\t// in\n    tag_163:\n        /* \"#utility.yul\":291:430   */\n      swap3\n      swap2\n      pop\n      pop\n      jump\t// out\n        /* \"#utility.yul\":436:765   */\n    tag_54:\n        /* \"#utility.yul\":495:501   */\n      0x00\n        /* \"#utility.yul\":544:546   */\n      0x20\n        /* \"#utility.yul\":532:541   */\n      dup3\n        /* \"#utility.yul\":523:530   */\n      dup5\n        /* \"#utility.yul\":519:542   */\n      sub\n        /* \"#utility.yul\":515:547   */\n      slt\n        /* \"#utility.yul\":512:631   */\n      iszero\n      tag_166\n      jumpi\n        /* \"#utility.yul\":550:629   */\n      tag_167\n      tag_168\n      jump\t// in\n    tag_167:\n        /* \"#utility.yul\":512:631   */\n    tag_166:\n        /* \"#utility.yul\":670:671   */\n      0x00\n        /* \"#utility.yul\":695:748   */\n      tag_169\n        /* \"#utility.yul\":740:747   */\n      dup5\n        /* \"#utility.yul\":731:737   */\n      dup3\n        /* \"#utility.yul\":720:729   */\n      dup6\n        /* \"#utility.yul\":716:738   */\n      add\n        /* \"#utility.yul\":695:748   */\n      tag_153\n      jump\t// in\n    tag_169:\n        /* \"#utility.yul\":685:748   */\n      swap2\n      pop\n        /* \"#utility.yul\":641:758   */\n      pop\n        /* \"#utility.yul\":436:765   */\n      swap3\n      swap2\n      pop\n      pop\n      jump\t// out\n        /* \"#utility.yul\":771:1245   */\n    tag_64:\n        /* \"#utility.yul\":839:845   */\n      0x00\n        /* \"#utility.yul\":847:853   */\n      dup1\n        /* \"#utility.yul\":896:898   */\n      0x40\n        /* \"#utility.yul\":884:893   */\n      dup4\n        /* \"#utility.yul\":875:882   */\n      dup6\n        /* \"#utility.yul\":871:894   */\n      sub\n        /* \"#utility.yul\":867:899   */\n      slt\n        /* \"#utility.yul\":864:983   */\n      iszero\n      tag_171\n      jumpi\n        /* \"#utility.yul\":902:981   */\n      tag_172\n      tag_168\n      jump\t// in\n    tag_172:\n        /* \"#utility.yul\":864:983   */\n    tag_171:\n        /* \"#utility.yul\":1022:1023   */\n      0x00\n        /* \"#utility.yul\":1047:1100   */\n      tag_173\n        /* \"#utility.yul\":1092:1099   */\n      dup6\n        /* \"#utility.yul\":1083:1089   */\n      dup3\n        /* \"#utility.yul\":1072:1081   */\n      dup7\n        /* \"#utility.yul\":1068:1090   */\n      add\n        /* \"#utility.yul\":1047:1100   */\n      tag_153\n      jump\t// in\n    tag_173:\n        /* \"#utility.yul\":1037:1100   */\n      swap3\n      pop\n        /* \"#utility.yul\":993:1110   */\n      pop\n        /* \"#utility.yul\":1149:1151   */\n      0x20\n        /* \"#utility.yul\":1175:1228   */\n      tag_174\n        /* \"#utility.yul\":1220:1227   */\n      dup6\n        /* \"#utility.yul\":1211:1217   */\n      dup3\n        /* \"#utility.yul\":1200:1209   */\n      dup7\n        /* \"#utility.yul\":1196:1218   */\n      add\n        /* \"#utility.yul\":1175:1228   */\n      tag_161\n      jump\t// in\n    tag_174:\n        /* \"#utility.yul\":1165:1228   */\n      swap2\n      pop\n        /* \"#utility.yul\":1120:1238   */\n      pop\n        /* \"#utility.yul\":771:1245   */\n      swap3\n      pop\n      swap3\n      swap1\n      pop\n      jump\t// out\n        /* \"#utility.yul\":1251:1574   */\n    tag_29:\n        /* \"#utility.yul\":1307:1313   */\n      0x00\n        /* \"#utility.yul\":1356:1358   */\n      0x20\n        /* \"#utility.yul\":1344:1353   */\n      dup3\n        /* \"#utility.yul\":1335:1342   */\n      dup5\n        /* \"#utility.yul\":1331:1354   */\n      sub\n        /* \"#utility.yul\":1327:1359   */\n      slt\n        /* \"#utility.yul\":1324:1443   */\n      iszero\n      tag_176\n      jumpi\n        /* \"#utility.yul\":1362:1441   */\n      tag_177\n      tag_168\n      jump\t// in\n    tag_177:\n        /* \"#utility.yul\":1324:1443   */\n    tag_176:\n        /* \"#utility.yul\":1482:1483   */\n      0x00\n        /* \"#utility.yul\":1507:1557   */\n      tag_178\n        /* \"#utility.yul\":1549:1556   */\n      dup5\n        /* \"#utility.yul\":1540:1546   */\n      dup3\n        /* \"#utility.yul\":1529:1538   */\n      dup6\n        /* \"#utility.yul\":1525:1547   */\n      add\n        /* \"#utility.yul\":1507:1557   */\n      tag_157\n      jump\t// in\n    tag_178:\n        /* \"#utility.yul\":1497:1557   */\n      swap2\n      pop\n        /* \"#utility.yul\":1453:1567   */\n      pop\n        /* \"#utility.yul\":1251:1574   */\n      swap3\n      swap2\n      pop\n      pop\n      jump\t// out\n        /* \"#utility.yul\":1580:1698   */\n    tag_179:\n        /* \"#utility.yul\":1667:1691   */\n      tag_181\n        /* \"#utility.yul\":1685:1690   */\n      dup2\n        /* \"#utility.yul\":1667:1691   */\n      tag_182\n      jump\t// in\n    tag_181:\n        /* \"#utility.yul\":1662:1665   */\n      dup3\n        /* \"#utility.yul\":1655:1692   */\n      mstore\n        /* \"#utility.yul\":1580:1698   */\n      pop\n      pop\n      jump\t// out\n        /* \"#utility.yul\":1704:1813   */\n    tag_183:\n        /* \"#utility.yul\":1785:1806   */\n      tag_185\n        /* \"#utility.yul\":1800:1805   */\n      dup2\n        /* \"#utility.yul\":1785:1806   */\n      tag_186\n      jump\t// in\n    tag_185:\n        /* \"#utility.yul\":1780:1783   */\n      dup3\n        /* \"#utility.yul\":1773:1807   */\n      mstore\n        /* \"#utility.yul\":1704:1813   */\n      pop\n      pop\n      jump\t// out\n        /* \"#utility.yul\":1819:2185   */\n    tag_187:\n        /* \"#utility.yul\":1961:1964   */\n      0x00\n        /* \"#utility.yul\":1982:2049   */\n      tag_189\n        /* \"#utility.yul\":2046:2048   */\n      0x18\n        /* \"#utility.yul\":2041:2044   */\n      dup4\n        /* \"#utility.yul\":1982:2049   */\n      tag_190\n      jump\t// in\n    tag_189:\n        /* \"#utility.yul\":1975:2049   */\n      swap2\n      pop\n        /* \"#utility.yul\":2058:2151   */\n      tag_191\n        /* \"#utility.yul\":2147:2150   */\n      dup3\n        /* \"#utility.yul\":2058:2151   */\n      tag_192\n      jump\t// in\n    tag_191:\n        /* \"#utility.yul\":2176:2178   */\n      0x20\n        /* \"#utility.yul\":2171:2174   */\n      dup3\n        /* \"#utility.yul\":2167:2179   */\n      add\n        /* \"#utility.yul\":2160:2179   */\n      swap1\n      pop\n        /* \"#utility.yul\":1819:2185   */\n      swap2\n      swap1\n      pop\n      jump\t// out\n        /* \"#utility.yul\":2191:2557   */\n    tag_193:\n        /* \"#utility.yul\":2333:2336   */\n      0x00\n        /* \"#utility.yul\":2354:2421   */\n      tag_195\n        /* \"#utility.yul\":2418:2420   */\n      0x15\n        /* \"#utility.yul\":2413:2416   */\n      dup4\n        /* \"#utility.yul\":2354:2421   */\n      tag_190\n      jump\t// in\n    tag_195:\n        /* \"#utility.yul\":2347:2421   */\n      swap2\n      pop\n        /* \"#utility.yul\":2430:2523   */\n      tag_196\n        /* \"#utility.yul\":2519:2522   */\n      dup3\n        /* \"#utility.yul\":2430:2523   */\n      tag_197\n      jump\t// in\n    tag_196:\n        /* \"#utility.yul\":2548:2550   */\n      0x20\n        /* \"#utility.yul\":2543:2546   */\n      dup3\n        /* \"#utility.yul\":2539:2551   */\n      add\n        /* \"#utility.yul\":2532:2551   */\n      swap1\n      pop\n        /* \"#utility.yul\":2191:2557   */\n      swap2\n      swap1\n      pop\n      jump\t// out\n        /* \"#utility.yul\":2563:2929   */\n    tag_198:\n        /* \"#utility.yul\":2705:2708   */\n      0x00\n        /* \"#utility.yul\":2726:2793   */\n      tag_200\n        /* \"#utility.yul\":2790:2792   */\n      0x21\n        /* \"#utility.yul\":2785:2788   */\n      dup4\n        /* \"#utility.yul\":2726:2793   */\n      tag_190\n      jump\t// in\n    tag_200:\n        /* \"#utility.yul\":2719:2793   */\n      swap2\n      pop\n        /* \"#utility.yul\":2802:2895   */\n      tag_201\n        /* \"#utility.yul\":2891:2894   */\n      dup3\n        /* \"#utility.yul\":2802:2895   */\n      tag_202\n      jump\t// in\n    tag_201:\n        /* \"#utility.yul\":2920:2922   */\n      0x40\n        /* \"#utility.yul\":2915:2918   */\n      dup3\n        /* \"#utility.yul\":2911:2923   */\n      add\n        /* \"#utility.yul\":2904:2923   */\n      swap1\n      pop\n        /* \"#utility.yul\":2563:2929   */\n      swap2\n      swap1\n      pop\n      jump\t// out\n        /* \"#utility.yul\":2935:3301   */\n    tag_203:\n        /* \"#utility.yul\":3077:3080   */\n      0x00\n        /* \"#utility.yul\":3098:3165   */\n      tag_205\n        /* \"#utility.yul\":3162:3164   */\n      0x1b\n        /* \"#utility.yul\":3157:3160   */\n      dup4\n        /* \"#utility.yul\":3098:3165   */\n      tag_190\n      jump\t// in\n    tag_205:\n        /* \"#utility.yul\":3091:3165   */\n      swap2\n      pop\n        /* \"#utility.yul\":3174:3267   */\n      tag_206\n        /* \"#utility.yul\":3263:3266   */\n      dup3\n        /* \"#utility.yul\":3174:3267   */\n      tag_207\n      jump\t// in\n    tag_206:\n        /* \"#utility.yul\":3292:3294   */\n      0x20\n        /* \"#utility.yul\":3287:3290   */\n      dup3\n        /* \"#utility.yul\":3283:3295   */\n      add\n        /* \"#utility.yul\":3276:3295   */\n      swap1\n      pop\n        /* \"#utility.yul\":2935:3301   */\n      swap2\n      swap1\n      pop\n      jump\t// out\n        /* \"#utility.yul\":3307:3673   */\n    tag_208:\n        /* \"#utility.yul\":3449:3452   */\n      0x00\n        /* \"#utility.yul\":3470:3537   */\n      tag_210\n        /* \"#utility.yul\":3534:3536   */\n      0x12\n        /* \"#utility.yul\":3529:3532   */\n      dup4\n        /* \"#utility.yul\":3470:3537   */\n      tag_190\n      jump\t// in\n    tag_210:\n        /* \"#utility.yul\":3463:3537   */\n      swap2\n      pop\n        /* \"#utility.yul\":3546:3639   */\n      tag_211\n        /* \"#utility.yul\":3635:3638   */\n      dup3\n        /* \"#utility.yul\":3546:3639   */\n      tag_212\n      jump\t// in\n    tag_211:\n        /* \"#utility.yul\":3664:3666   */\n      0x20\n        /* \"#utility.yul\":3659:3662   */\n      dup3\n        /* \"#utility.yul\":3655:3667   */\n      add\n        /* \"#utility.yul\":3648:3667   */\n      swap1\n      pop\n        /* \"#utility.yul\":3307:3673   */\n      swap2\n      swap1\n      pop\n      jump\t// out\n        /* \"#utility.yul\":3679:4045   */\n    tag_213:\n        /* \"#utility.yul\":3821:3824   */\n      0x00\n        /* \"#utility.yul\":3842:3909   */\n      tag_215\n        /* \"#utility.yul\":3906:3908   */\n      0x0d\n        /* \"#utility.yul\":3901:3904   */\n      dup4\n        /* \"#utility.yul\":3842:3909   */\n      tag_190\n      jump\t// in\n    tag_215:\n        /* \"#utility.yul\":3835:3909   */\n      swap2\n      pop\n        /* \"#utility.yul\":3918:4011   */\n      tag_216\n        /* \"#utility.yul\":4007:4010   */\n      dup3\n        /* \"#utility.yul\":3918:4011   */\n      tag_217\n      jump\t// in\n    tag_216:\n        /* \"#utility.yul\":4036:4038   */\n      0x20\n        /* \"#utility.yul\":4031:4034   */\n      dup3\n        /* \"#utility.yul\":4027:4039   */\n      add\n        /* \"#utility.yul\":4020:4039   */\n      swap1\n      pop\n        /* \"#utility.yul\":3679:4045   */\n      swap2\n      swap1\n      pop\n      jump\t// out\n        /* \"#utility.yul\":4051:4417   */\n    tag_218:\n        /* \"#utility.yul\":4193:4196   */\n      0x00\n        /* \"#utility.yul\":4214:4281   */\n      tag_220\n        /* \"#utility.yul\":4278:4280   */\n      0x1d\n        /* \"#utility.yul\":4273:4276   */\n      dup4\n        /* \"#utility.yul\":4214:4281   */\n      tag_190\n      jump\t// in\n    tag_220:\n        /* \"#utility.yul\":4207:4281   */\n      swap2\n      pop\n        /* \"#utility.yul\":4290:4383   */\n      tag_221\n        /* \"#utility.yul\":4379:4382   */\n      dup3\n        /* \"#utility.yul\":4290:4383   */\n      tag_222\n      jump\t// in\n    tag_221:\n        /* \"#utility.yul\":4408:4410   */\n      0x20\n        /* \"#utility.yul\":4403:4406   */\n      dup3\n        /* \"#utility.yul\":4399:4411   */\n      add\n        /* \"#utility.yul\":4392:4411   */\n      swap1\n      pop\n        /* \"#utility.yul\":4051:4417   */\n      swap2\n      swap1\n      pop\n      jump\t// out\n        /* \"#utility.yul\":4423:4789   */\n    tag_223:\n        /* \"#utility.yul\":4565:4568   */\n      0x00\n        /* \"#utility.yul\":4586:4653   */\n      tag_225\n        /* \"#utility.yul\":4650:4652   */\n      0x0f\n        /* \"#utility.yul\":4645:4648   */\n      dup4\n        /* \"#utility.yul\":4586:4653   */\n      tag_190\n      jump\t// in\n    tag_225:\n        /* \"#utility.yul\":4579:4653   */\n      swap2\n      pop\n        /* \"#utility.yul\":4662:4755   */\n      tag_226\n        /* \"#utility.yul\":4751:4754   */\n      dup3\n        /* \"#utility.yul\":4662:4755   */\n      tag_227\n      jump\t// in\n    tag_226:\n        /* \"#utility.yul\":4780:4782   */\n      0x20\n        /* \"#utility.yul\":4775:4778   */\n      dup3\n        /* \"#utility.yul\":4771:4783   */\n      add\n        /* \"#utility.yul\":4764:4783   */\n      swap1\n      pop\n        /* \"#utility.yul\":4423:4789   */\n      swap2\n      swap1\n      pop\n      jump\t// out\n        /* \"#utility.yul\":4795:4913   */\n    tag_228:\n        /* \"#utility.yul\":4882:4906   */\n      tag_230\n        /* \"#utility.yul\":4900:4905   */\n      dup2\n        /* \"#utility.yul\":4882:4906   */\n      tag_231\n      jump\t// in\n    tag_230:\n        /* \"#utility.yul\":4877:4880   */\n      dup3\n        /* \"#utility.yul\":4870:4907   */\n      mstore\n        /* \"#utility.yul\":4795:4913   */\n      pop\n      pop\n      jump\t// out\n        /* \"#utility.yul\":4919:5141   */\n    tag_72:\n        /* \"#utility.yul\":5012:5016   */\n      0x00\n        /* \"#utility.yul\":5050:5052   */\n      0x20\n        /* \"#utility.yul\":5039:5048   */\n      dup3\n        /* \"#utility.yul\":5035:5053   */\n      add\n        /* \"#utility.yul\":5027:5053   */\n      swap1\n      pop\n        /* \"#utility.yul\":5063:5134   */\n      tag_233\n        /* \"#utility.yul\":5131:5132   */\n      0x00\n        /* \"#utility.yul\":5120:5129   */\n      dup4\n        /* \"#utility.yul\":5116:5133   */\n      add\n        /* \"#utility.yul\":5107:5113   */\n      dup5\n        /* \"#utility.yul\":5063:5134   */\n      tag_179\n      jump\t// in\n    tag_233:\n        /* \"#utility.yul\":4919:5141   */\n      swap3\n      swap2\n      pop\n      pop\n      jump\t// out\n        /* \"#utility.yul\":5147:5357   */\n    tag_25:\n        /* \"#utility.yul\":5234:5238   */\n      0x00\n        /* \"#utility.yul\":5272:5274   */\n      0x20\n        /* \"#utility.yul\":5261:5270   */\n      dup3\n        /* \"#utility.yul\":5257:5275   */\n      add\n        /* \"#utility.yul\":5249:5275   */\n      swap1\n      pop\n        /* \"#utility.yul\":5285:5350   */\n      tag_235\n        /* \"#utility.yul\":5347:5348   */\n      0x00\n        /* \"#utility.yul\":5336:5345   */\n      dup4\n        /* \"#utility.yul\":5332:5349   */\n      add\n        /* \"#utility.yul\":5323:5329   */\n      dup5\n        /* \"#utility.yul\":5285:5350   */\n      tag_183\n      jump\t// in\n    tag_235:\n        /* \"#utility.yul\":5147:5357   */\n      swap3\n      swap2\n      pop\n      pop\n      jump\t// out\n        /* \"#utility.yul\":5363:5782   */\n    tag_120:\n        /* \"#utility.yul\":5529:5533   */\n      0x00\n        /* \"#utility.yul\":5567:5569   */\n      0x20\n        /* \"#utility.yul\":5556:5565   */\n      dup3\n        /* \"#utility.yul\":5552:5570   */\n      add\n        /* \"#utility.yul\":5544:5570   */\n      swap1\n      pop\n        /* \"#utility.yul\":5616:5625   */\n      dup2\n        /* \"#utility.yul\":5610:5614   */\n      dup2\n        /* \"#utility.yul\":5606:5626   */\n      sub\n        /* \"#utility.yul\":5602:5603   */\n      0x00\n        /* \"#utility.yul\":5591:5600   */\n      dup4\n        /* \"#utility.yul\":5587:5604   */\n      add\n        /* \"#utility.yul\":5580:5627   */\n      mstore\n        /* \"#utility.yul\":5644:5775   */\n      tag_237\n        /* \"#utility.yul\":5770:5774   */\n      dup2\n        /* \"#utility.yul\":5644:5775   */\n      tag_187\n      jump\t// in\n    tag_237:\n        /* \"#utility.yul\":5636:5775   */\n      swap1\n      pop\n        /* \"#utility.yul\":5363:5782   */\n      swap2\n      swap1\n      pop\n      jump\t// out\n        /* \"#utility.yul\":5788:6207   */\n    tag_89:\n        /* \"#utility.yul\":5954:5958   */\n      0x00\n        /* \"#utility.yul\":5992:5994   */\n      0x20\n        /* \"#utility.yul\":5981:5990   */\n      dup3\n        /* \"#utility.yul\":5977:5995   */\n      add\n        /* \"#utility.yul\":5969:5995   */\n      swap1\n      pop\n        /* \"#utility.yul\":6041:6050   */\n      dup2\n        /* \"#utility.yul\":6035:6039   */\n      dup2\n        /* \"#utility.yul\":6031:6051   */\n      sub\n        /* \"#utility.yul\":6027:6028   */\n      0x00\n        /* \"#utility.yul\":6016:6025   */\n      dup4\n        /* \"#utility.yul\":6012:6029   */\n      add\n        /* \"#utility.yul\":6005:6052   */\n      mstore\n        /* \"#utility.yul\":6069:6200   */\n      tag_239\n        /* \"#utility.yul\":6195:6199   */\n      dup2\n        /* \"#utility.yul\":6069:6200   */\n      tag_193\n      jump\t// in\n    tag_239:\n        /* \"#utility.yul\":6061:6200   */\n      swap1\n      pop\n        /* \"#utility.yul\":5788:6207   */\n      swap2\n      swap1\n      pop\n      jump\t// out\n        /* \"#utility.yul\":6213:6632   */\n    tag_99:\n        /* \"#utility.yul\":6379:6383   */\n      0x00\n        /* \"#utility.yul\":6417:6419   */\n      0x20\n        /* \"#utility.yul\":6406:6415   */\n      dup3\n        /* \"#utility.yul\":6402:6420   */\n      add\n        /* \"#utility.yul\":6394:6420   */\n      swap1\n      pop\n        /* \"#utility.yul\":6466:6475   */\n      dup2\n        /* \"#utility.yul\":6460:6464   */\n      dup2\n        /* \"#utility.yul\":6456:6476   */\n      sub\n        /* \"#utility.yul\":6452:6453   */\n      0x00\n        /* \"#utility.yul\":6441:6450   */\n      dup4\n        /* \"#utility.yul\":6437:6454   */\n      add\n        /* \"#utility.yul\":6430:6477   */\n      mstore\n        /* \"#utility.yul\":6494:6625   */\n      tag_241\n        /* \"#utility.yul\":6620:6624   */\n      dup2\n        /* \"#utility.yul\":6494:6625   */\n      tag_198\n      jump\t// in\n    tag_241:\n        /* \"#utility.yul\":6486:6625   */\n      swap1\n      pop\n        /* \"#utility.yul\":6213:6632   */\n      swap2\n      swap1\n      pop\n      jump\t// out\n        /* \"#utility.yul\":6638:7057   */\n    tag_93:\n        /* \"#utility.yul\":6804:6808   */\n      0x00\n        /* \"#utility.yul\":6842:6844   */\n      0x20\n        /* \"#utility.yul\":6831:6840   */\n      dup3\n        /* \"#utility.yul\":6827:6845   */\n      add\n        /* \"#utility.yul\":6819:6845   */\n      swap1\n      pop\n        /* \"#utility.yul\":6891:6900   */\n      dup2\n        /* \"#utility.yul\":6885:6889   */\n      dup2\n        /* \"#utility.yul\":6881:6901   */\n      sub\n        /* \"#utility.yul\":6877:6878   */\n      0x00\n        /* \"#utility.yul\":6866:6875   */\n      dup4\n        /* \"#utility.yul\":6862:6879   */\n      add\n        /* \"#utility.yul\":6855:6902   */\n      mstore\n        /* \"#utility.yul\":6919:7050   */\n      tag_243\n        /* \"#utility.yul\":7045:7049   */\n      dup2\n        /* \"#utility.yul\":6919:7050   */\n      tag_203\n      jump\t// in\n    tag_243:\n        /* \"#utility.yul\":6911:7050   */\n      swap1\n      pop\n        /* \"#utility.yul\":6638:7057   */\n      swap2\n      swap1\n      pop\n      jump\t// out\n        /* \"#utility.yul\":7063:7482   */\n    tag_106:\n        /* \"#utility.yul\":7229:7233   */\n      0x00\n        /* \"#utility.yul\":7267:7269   */\n      0x20\n        /* \"#utility.yul\":7256:7265   */\n      dup3\n        /* \"#utility.yul\":7252:7270   */\n      add\n        /* \"#utility.yul\":7244:7270   */\n      swap1\n      pop\n        /* \"#utility.yul\":7316:7325   */\n      dup2\n        /* \"#utility.yul\":7310:7314   */\n      dup2\n        /* \"#utility.yul\":7306:7326   */\n      sub\n        /* \"#utility.yul\":7302:7303   */\n      0x00\n        /* \"#utility.yul\":7291:7300   */\n      dup4\n        /* \"#utility.yul\":7287:7304   */\n      add\n        /* \"#utility.yul\":7280:7327   */\n      mstore\n        /* \"#utility.yul\":7344:7475   */\n      tag_245\n        /* \"#utility.yul\":7470:7474   */\n      dup2\n        /* \"#utility.yul\":7344:7475   */\n      tag_208\n      jump\t// in\n    tag_245:\n        /* \"#utility.yul\":7336:7475   */\n      swap1\n      pop\n        /* \"#utility.yul\":7063:7482   */\n      swap2\n      swap1\n      pop\n      jump\t// out\n        /* \"#utility.yul\":7488:7907   */\n    tag_109:\n        /* \"#utility.yul\":7654:7658   */\n      0x00\n        /* \"#utility.yul\":7692:7694   */\n      0x20\n        /* \"#utility.yul\":7681:7690   */\n      dup3\n        /* \"#utility.yul\":7677:7695   */\n      add\n        /* \"#utility.yul\":7669:7695   */\n      swap1\n      pop\n        /* \"#utility.yul\":7741:7750   */\n      dup2\n        /* \"#utility.yul\":7735:7739   */\n      dup2\n        /* \"#utility.yul\":7731:7751   */\n      sub\n        /* \"#utility.yul\":7727:7728   */\n      0x00\n        /* \"#utility.yul\":7716:7725   */\n      dup4\n        /* \"#utility.yul\":7712:7729   */\n      add\n        /* \"#utility.yul\":7705:7752   */\n      mstore\n        /* \"#utility.yul\":7769:7900   */\n      tag_247\n        /* \"#utility.yul\":7895:7899   */\n      dup2\n        /* \"#utility.yul\":7769:7900   */\n      tag_213\n      jump\t// in\n    tag_247:\n        /* \"#utility.yul\":7761:7900   */\n      swap1\n      pop\n        /* \"#utility.yul\":7488:7907   */\n      swap2\n      swap1\n      pop\n      jump\t// out\n        /* \"#utility.yul\":7913:8332   */\n    tag_114:\n        /* \"#utility.yul\":8079:8083   */\n      0x00\n        /* \"#utility.yul\":8117:8119   */\n      0x20\n        /* \"#utility.yul\":8106:8115   */\n      dup3\n        /* \"#utility.yul\":8102:8120   */\n      add\n        /* \"#utility.yul\":8094:8120   */\n      swap1\n      pop\n        /* \"#utility.yul\":8166:8175   */\n      dup2\n        /* \"#utility.yul\":8160:8164   */\n      dup2\n        /* \"#utility.yul\":8156:8176   */\n      sub\n        /* \"#utility.yul\":8152:8153   */\n      0x00\n        /* \"#utility.yul\":8141:8150   */\n      dup4\n        /* \"#utility.yul\":8137:8154   */\n      add\n        /* \"#utility.yul\":8130:8177   */\n      mstore\n        /* \"#utility.yul\":8194:8325   */\n      tag_249\n        /* \"#utility.yul\":8320:8324   */\n      dup2\n        /* \"#utility.yul\":8194:8325   */\n      tag_218\n      jump\t// in\n    tag_249:\n        /* \"#utility.yul\":8186:8325   */\n      swap1\n      pop\n        /* \"#utility.yul\":7913:8332   */\n      swap2\n      swap1\n      pop\n      jump\t// out\n        /* \"#utility.yul\":8338:8757   */\n    tag_102:\n        /* \"#utility.yul\":8504:8508   */\n      0x00\n        /* \"#utility.yul\":8542:8544   */\n      0x20\n        /* \"#utility.yul\":8531:8540   */\n      dup3\n        /* \"#utility.yul\":8527:8545   */\n      add\n        /* \"#utility.yul\":8519:8545   */\n      swap1\n      pop\n        /* \"#utility.yul\":8591:8600   */\n      dup2\n        /* \"#utility.yul\":8585:8589   */\n      dup2\n        /* \"#utility.yul\":8581:8601   */\n      sub\n        /* \"#utility.yul\":8577:8578   */\n      0x00\n        /* \"#utility.yul\":8566:8575   */\n      dup4\n        /* \"#utility.yul\":8562:8579   */\n      add\n        /* \"#utility.yul\":8555:8602   */\n      mstore\n        /* \"#utility.yul\":8619:8750   */\n      tag_251\n        /* \"#utility.yul\":8745:8749   */\n      dup2\n        /* \"#utility.yul\":8619:8750   */\n      tag_223\n      jump\t// in\n    tag_251:\n        /* \"#utility.yul\":8611:8750   */\n      swap1\n      pop\n        /* \"#utility.yul\":8338:8757   */\n      swap2\n      swap1\n      pop\n      jump\t// out\n        /* \"#utility.yul\":8763:8985   */\n    tag_37:\n        /* \"#utility.yul\":8856:8860   */\n      0x00\n        /* \"#utility.yul\":8894:8896   */\n      0x20\n        /* \"#utility.yul\":8883:8892   */\n      dup3\n        /* \"#utility.yul\":8879:8897   */\n      add\n        /* \"#utility.yul\":8871:8897   */\n      swap1\n      pop\n        /* \"#utility.yul\":8907:8978   */\n      tag_253\n        /* \"#utility.yul\":8975:8976   */\n      0x00\n        /* \"#utility.yul\":8964:8973   */\n      dup4\n        /* \"#utility.yul\":8960:8977   */\n      add\n        /* \"#utility.yul\":8951:8957   */\n      dup5\n        /* \"#utility.yul\":8907:8978   */\n      tag_228\n      jump\t// in\n    tag_253:\n        /* \"#utility.yul\":8763:8985   */\n      swap3\n      swap2\n      pop\n      pop\n      jump\t// out\n        /* \"#utility.yul\":8991:9323   */\n    tag_67:\n        /* \"#utility.yul\":9112:9116   */\n      0x00\n        /* \"#utility.yul\":9150:9152   */\n      0x40\n        /* \"#utility.yul\":9139:9148   */\n      dup3\n        /* \"#utility.yul\":9135:9153   */\n      add\n        /* \"#utility.yul\":9127:9153   */\n      swap1\n      pop\n        /* \"#utility.yul\":9163:9234   */\n      tag_255\n        /* \"#utility.yul\":9231:9232   */\n      0x00\n        /* \"#utility.yul\":9220:9229   */\n      dup4\n        /* \"#utility.yul\":9216:9233   */\n      add\n        /* \"#utility.yul\":9207:9213   */\n      dup6\n        /* \"#utility.yul\":9163:9234   */\n      tag_228\n      jump\t// in\n    tag_255:\n        /* \"#utility.yul\":9244:9316   */\n      tag_256\n        /* \"#utility.yul\":9312:9314   */\n      0x20\n        /* \"#utility.yul\":9301:9310   */\n      dup4\n        /* \"#utility.yul\":9297:9315   */\n      add\n        /* \"#utility.yul\":9288:9294   */\n      dup5\n        /* \"#utility.yul\":9244:9316   */\n      tag_228\n      jump\t// in\n    tag_256:\n        /* \"#utility.yul\":8991:9323   */\n      swap4\n      swap3\n      pop\n      pop\n      pop\n      jump\t// out\n        /* \"#utility.yul\":9410:9579   */\n    tag_190:\n        /* \"#utility.yul\":9494:9505   */\n      0x00\n        /* \"#utility.yul\":9528:9534   */\n      dup3\n        /* \"#utility.yul\":9523:9526   */\n      dup3\n        /* \"#utility.yul\":9516:9535   */\n      mstore\n        /* \"#utility.yul\":9568:9572   */\n      0x20\n        /* \"#utility.yul\":9563:9566   */\n      dup3\n        /* \"#utility.yul\":9559:9573   */\n      add\n        /* \"#utility.yul\":9544:9573   */\n      swap1\n      pop\n        /* \"#utility.yul\":9410:9579   */\n      swap3\n      swap2\n      pop\n      pop\n      jump\t// out\n        /* \"#utility.yul\":9585:9890   */\n    tag_139:\n        /* \"#utility.yul\":9625:9628   */\n      0x00\n        /* \"#utility.yul\":9644:9664   */\n      tag_261\n        /* \"#utility.yul\":9662:9663   */\n      dup3\n        /* \"#utility.yul\":9644:9664   */\n      tag_231\n      jump\t// in\n    tag_261:\n        /* \"#utility.yul\":9639:9664   */\n      swap2\n      pop\n        /* \"#utility.yul\":9678:9698   */\n      tag_262\n        /* \"#utility.yul\":9696:9697   */\n      dup4\n        /* \"#utility.yul\":9678:9698   */\n      tag_231\n      jump\t// in\n    tag_262:\n        /* \"#utility.yul\":9673:9698   */\n      swap3\n      pop\n        /* \"#utility.yul\":9832:9833   */\n      dup3\n        /* \"#utility.yul\":9764:9830   */\n      0xffffffffffffffffffffffffffffffffffffffffffffffffffffffffffffffff\n        /* \"#utility.yul\":9760:9834   */\n      sub\n        /* \"#utility.yul\":9757:9758   */\n      dup3\n        /* \"#utility.yul\":9754:9835   */\n      gt\n        /* \"#utility.yul\":9751:9858   */\n      iszero\n      tag_263\n      jumpi\n        /* \"#utility.yul\":9838:9856   */\n      tag_264\n      tag_265\n      jump\t// in\n    tag_264:\n        /* \"#utility.yul\":9751:9858   */\n    tag_263:\n        /* \"#utility.yul\":9882:9883   */\n      dup3\n        /* \"#utility.yul\":9879:9880   */\n      dup3\n        /* \"#utility.yul\":9875:9884   */\n      add\n        /* \"#utility.yul\":9868:9884   */\n      swap1\n      pop\n        /* \"#utility.yul\":9585:9890   */\n      swap3\n      swap2\n      pop\n      pop\n      jump\t// out\n        /* \"#utility.yul\":9896:10081   */\n    tag_134:\n        /* \"#utility.yul\":9936:9937   */\n      0x00\n        /* \"#utility.yul\":9953:9973   */\n      tag_267\n        /* \"#utility.yul\":9971:9972   */\n      dup3\n        /* \"#utility.yul\":9953:9973   */\n      tag_231\n      jump\t// in\n    tag_267:\n        /* \"#utility.yul\":9948:9973   */\n      swap2\n      pop\n        /* \"#utility.yul\":9987:10007   */\n      tag_268\n        /* \"#utility.yul\":10005:10006   */\n      dup4\n        /* \"#utility.yul\":9987:10007   */\n      tag_231\n      jump\t// in\n    tag_268:\n        /* \"#utility.yul\":9982:10007   */\n      swap3\n      pop\n        /* \"#utility.yul\":10026:10027   */\n      dup3\n        /* \"#utility.yul\":10016:10051   */\n      tag_269\n      jumpi\n        /* \"#utility.yul\":10031:10049   */\n      tag_270\n      tag_271\n      jump\t// in\n    tag_270:\n        /* \"#utility.yul\":10016:10051   */\n    tag_269:\n        /* \"#utility.yul\":10073:10074   */\n      dup3\n        /* \"#utility.yul\":10070:10071   */\n      dup3\n        /* \"#utility.yul\":10066:10075   */\n      div\n        /* \"#utility.yul\":10061:10075   */\n      swap1\n      pop\n        /* \"#utility.yul\":9896:10081   */\n      swap3\n      swap2\n      pop\n      pop\n      jump\t// out\n        /* \"#utility.yul\":10087:10435   */\n    tag_136:\n        /* \"#utility.yul\":10127:10134   */\n      0x00\n        /* \"#utility.yul\":10150:10170   */\n      tag_273\n        /* \"#utility.yul\":10168:10169   */\n      dup3\n        /* \"#utility.yul\":10150:10170   */\n      tag_231\n      jump\t// in\n    tag_273:\n        /* \"#utility.yul\":10145:10170   */\n      swap2\n      pop\n        /* \"#utility.yul\":10184:10204   */\n      tag_274\n        /* \"#utility.yul\":10202:10203   */\n      dup4\n        /* \"#utility.yul\":10184:10204   */\n      tag_231\n      jump\t// in\n    tag_274:\n        /* \"#utility.yul\":10179:10204   */\n      swap3\n      pop\n        /* \"#utility.yul\":10372:10373   */\n      dup2\n        /* \"#utility.yul\":10304:10370   */\n      0xffffffffffffffffffffffffffffffffffffffffffffffffffffffffffffffff\n        /* \"#utility.yul\":10300:10374   */\n      div\n        /* \"#utility.yul\":10297:10298   */\n      dup4\n        /* \"#utility.yul\":10294:10375   */\n      gt\n        /* \"#utility.yul\":10289:10290   */\n      dup3\n        /* \"#utility.yul\":10282:10291   */\n      iszero\n        /* \"#utility.yul\":10275:10292   */\n      iszero\n        /* \"#utility.yul\":10271:10376   */\n      and\n        /* \"#utility.yul\":10268:10399   */\n      iszero\n      tag_275\n      jumpi\n        /* \"#utility.yul\":10379:10397   */\n      tag_276\n      tag_265\n      jump\t// in\n    tag_276:\n        /* \"#utility.yul\":10268:10399   */\n    tag_275:\n        /* \"#utility.yul\":10427:10428   */\n      dup3\n        /* \"#utility.yul\":10424:10425   */\n      dup3\n        /* \"#utility.yul\":10420:10429   */\n      mul\n        /* \"#utility.yul\":10409:10429   */\n      swap1\n      pop\n        /* \"#utility.yul\":10087:10435   */\n      swap3\n      swap2\n      pop\n      pop\n      jump\t// out\n        /* \"#utility.yul\":10441:10632   */\n    tag_132:\n        /* \"#utility.yul\":10481:10485   */\n      0x00\n        /* \"#utility.yul\":10501:10521   */\n      tag_278\n        /* \"#utility.yul\":10519:10520   */\n      dup3\n        /* \"#utility.yul\":10501:10521   */\n      tag_231\n      jump\t// in\n    tag_278:\n        /* \"#utility.yul\":10496:10521   */\n      swap2\n      pop\n        /* \"#utility.yul\":10535:10555   */\n      tag_279\n        /* \"#utility.yul\":10553:10554   */\n      dup4\n        /* \"#utility.yul\":10535:10555   */\n      tag_231\n      jump\t// in\n    tag_279:\n        /* \"#utility.yul\":10530:10555   */\n      swap3\n      pop\n        /* \"#utility.yul\":10574:10575   */\n      dup3\n        /* \"#utility.yul\":10571:10572   */\n      dup3\n        /* \"#utility.yul\":10568:10576   */\n      lt\n        /* \"#utility.yul\":10565:10599   */\n      iszero\n      tag_280\n      jumpi\n        /* \"#utility.yul\":10579:10597   */\n      tag_281\n      tag_265\n      jump\t// in\n    tag_281:\n        /* \"#utility.yul\":10565:10599   */\n    tag_280:\n        /* \"#utility.yul\":10624:10625   */\n      dup3\n        /* \"#utility.yul\":10621:10622   */\n      dup3\n        /* \"#utility.yul\":10617:10626   */\n      sub\n        /* \"#utility.yul\":10609:10626   */\n      swap1\n      pop\n        /* \"#utility.yul\":10441:10632   */\n      swap3\n      swap2\n      pop\n      pop\n      jump\t// out\n        /* \"#utility.yul\":10638:10734   */\n    tag_182:\n        /* \"#utility.yul\":10675:10682   */\n      0x00\n        /* \"#utility.yul\":10704:10728   */\n      tag_283\n        /* \"#utility.yul\":10722:10727   */\n      dup3\n        /* \"#utility.yul\":10704:10728   */\n      tag_284\n      jump\t// in\n    tag_283:\n        /* \"#utility.yul\":10693:10728   */\n      swap1\n      pop\n        /* \"#utility.yul\":10638:10734   */\n      swap2\n      swap1\n      pop\n      jump\t// out\n        /* \"#utility.yul\":10740:10830   */\n    tag_186:\n        /* \"#utility.yul\":10774:10781   */\n      0x00\n        /* \"#utility.yul\":10817:10822   */\n      dup2\n        /* \"#utility.yul\":10810:10823   */\n      iszero\n        /* \"#utility.yul\":10803:10824   */\n      iszero\n        /* \"#utility.yul\":10792:10824   */\n      swap1\n      pop\n        /* \"#utility.yul\":10740:10830   */\n      swap2\n      swap1\n      pop\n      jump\t// out\n        /* \"#utility.yul\":10836:10962   */\n    tag_284:\n        /* \"#utility.yul\":10873:10880   */\n      0x00\n        /* \"#utility.yul\":10913:10955   */\n      0xffffffffffffffffffffffffffffffffffffffff\n        /* \"#utility.yul\":10906:10911   */\n      dup3\n        /* \"#utility.yul\":10902:10956   */\n      and\n        /* \"#utility.yul\":10891:10956   */\n      swap1\n      pop\n        /* \"#utility.yul\":10836:10962   */\n      swap2\n      swap1\n      pop\n      jump\t// out\n        /* \"#utility.yul\":10968:11045   */\n    tag_231:\n        /* \"#utility.yul\":11005:11012   */\n      0x00\n        /* \"#utility.yul\":11034:11039   */\n      dup2\n        /* \"#utility.yul\":11023:11039   */\n      swap1\n      pop\n        /* \"#utility.yul\":10968:11045   */\n      swap2\n      swap1\n      pop\n      jump\t// out\n        /* \"#utility.yul\":11051:11284   */\n    tag_141:\n        /* \"#utility.yul\":11090:11093   */\n      0x00\n        /* \"#utility.yul\":11113:11137   */\n      tag_289\n        /* \"#utility.yul\":11131:11136   */\n      dup3\n        /* \"#utility.yul\":11113:11137   */\n      tag_231\n      jump\t// in\n    tag_289:\n        /* \"#utility.yul\":11104:11137   */\n      swap2\n      pop\n        /* \"#utility.yul\":11159:11225   */\n      0xffffffffffffffffffffffffffffffffffffffffffffffffffffffffffffffff\n        /* \"#utility.yul\":11152:11157   */\n      dup3\n        /* \"#utility.yul\":11149:11226   */\n      eq\n        /* \"#utility.yul\":11146:11249   */\n      iszero\n      tag_290\n      jumpi\n        /* \"#utility.yul\":11229:11247   */\n      tag_291\n      tag_265\n      jump\t// in\n    tag_291:\n        /* \"#utility.yul\":11146:11249   */\n    tag_290:\n        /* \"#utility.yul\":11276:11277   */\n      0x01\n        /* \"#utility.yul\":11269:11274   */\n      dup3\n        /* \"#utility.yul\":11265:11278   */\n      add\n        /* \"#utility.yul\":11258:11278   */\n      swap1\n      pop\n        /* \"#utility.yul\":11051:11284   */\n      swap2\n      swap1\n      pop\n      jump\t// out\n        /* \"#utility.yul\":11290:11470   */\n    tag_265:\n        /* \"#utility.yul\":11338:11415   */\n      0x4e487b7100000000000000000000000000000000000000000000000000000000\n        /* \"#utility.yul\":11335:11336   */\n      0x00\n        /* \"#utility.yul\":11328:11416   */\n      mstore\n        /* \"#utility.yul\":11435:11439   */\n      0x11\n        /* \"#utility.yul\":11432:11433   */\n      0x04\n        /* \"#utility.yul\":11425:11440   */\n      mstore\n        /* \"#utility.yul\":11459:11463   */\n      0x24\n        /* \"#utility.yul\":11456:11457   */\n      0x00\n        /* \"#utility.yul\":11449:11464   */\n      revert\n        /* \"#utility.yul\":11476:11656   */\n    tag_271:\n        /* \"#utility.yul\":11524:11601   */\n      0x4e487b7100000000000000000000000000000000000000000000000000000000\n        /* \"#utility.yul\":11521:11522   */\n      0x00\n        /* \"#utility.yul\":11514:11602   */\n      mstore\n        /* \"#utility.yul\":11621:11625   */\n      0x12\n        /* \"#utility.yul\":11618:11619   */\n      0x04\n        /* \"#utility.yul\":11611:11626   */\n      mstore\n        /* \"#utility.yul\":11645:11649   */\n      0x24\n        /* \"#utility.yul\":11642:11643   */\n      0x00\n        /* \"#utility.yul\":11635:11650   */\n      revert\n        /* \"#utility.yul\":11662:11842   */\n    tag_126:\n        /* \"#utility.yul\":11710:11787   */\n      0x4e487b7100000000000000000000000000000000000000000000000000000000\n        /* \"#utility.yul\":11707:11708   */\n      0x00\n        /* \"#utility.yul\":11700:11788   */\n      mstore\n        /* \"#utility.yul\":11807:11811   */\n      0x32\n        /* \"#utility.yul\":11804:11805   */\n      0x04\n        /* \"#utility.yul\":11797:11812   */\n      mstore\n        /* \"#utility.yul\":11831:11835   */\n      0x24\n        /* \"#utility.yul\":11828:11829   */\n      0x00\n        /* \"#utility.yul\":11821:11836   */\n      revert\n        /* \"#utility.yul\":11971:12088   */\n    tag_168:\n        /* \"#utility.yul\":12080:12081   */\n      0x00\n        /* \"#utility.yul\":12077:12078   */\n      dup1\n        /* \"#utility.yul\":12070:12082   */\n      revert\n        /* \"#utility.yul\":12094:12268   */\n    tag_192:\n        /* \"#utility.yul\":12234:12260   */\n      0x63616c6c6572206d75737420626520746865206f776e65720000000000000000\n        /* \"#utility.yul\":12230:12231   */\n      0x00\n        /* \"#utility.yul\":12222:12228   */\n      dup3\n        /* \"#utility.yul\":12218:12232   */\n      add\n        /* \"#utility.yul\":12211:12261   */\n      mstore\n        /* \"#utility.yul\":12094:12268   */\n      pop\n      jump\t// out\n        /* \"#utility.yul\":12274:12445   */\n    tag_197:\n        /* \"#utility.yul\":12414:12437   */\n      0x596f7520617265206e6f7420746865206f776e65720000000000000000000000\n        /* \"#utility.yul\":12410:12411   */\n      0x00\n        /* \"#utility.yul\":12402:12408   */\n      dup3\n        /* \"#utility.yul\":12398:12412   */\n      add\n        /* \"#utility.yul\":12391:12438   */\n      mstore\n        /* \"#utility.yul\":12274:12445   */\n      pop\n      jump\t// out\n        /* \"#utility.yul\":12451:12671   */\n    tag_202:\n        /* \"#utility.yul\":12591:12625   */\n      0x4f6e6c79206f776e65722063616e2070617573652074686520636f6e74726163\n        /* \"#utility.yul\":12587:12588   */\n      0x00\n        /* \"#utility.yul\":12579:12585   */\n      dup3\n        /* \"#utility.yul\":12575:12589   */\n      add\n        /* \"#utility.yul\":12568:12626   */\n      mstore\n        /* \"#utility.yul\":12660:12663   */\n      0x7400000000000000000000000000000000000000000000000000000000000000\n        /* \"#utility.yul\":12655:12657   */\n      0x20\n        /* \"#utility.yul\":12647:12653   */\n      dup3\n        /* \"#utility.yul\":12643:12658   */\n      add\n        /* \"#utility.yul\":12636:12664   */\n      mstore\n        /* \"#utility.yul\":12451:12671   */\n      pop\n      jump\t// out\n        /* \"#utility.yul\":12677:12854   */\n    tag_207:\n        /* \"#utility.yul\":12817:12846   */\n      0x66756e64732063616e6e6f74206265206c657373207468616e20300000000000\n        /* \"#utility.yul\":12813:12814   */\n      0x00\n        /* \"#utility.yul\":12805:12811   */\n      dup3\n        /* \"#utility.yul\":12801:12815   */\n      add\n        /* \"#utility.yul\":12794:12847   */\n      mstore\n        /* \"#utility.yul\":12677:12854   */\n      pop\n      jump\t// out\n        /* \"#utility.yul\":12860:13028   */\n    tag_212:\n        /* \"#utility.yul\":13000:13020   */\n      0x616d6f756e742063616e6e6f7420626520300000000000000000000000000000\n        /* \"#utility.yul\":12996:12997   */\n      0x00\n        /* \"#utility.yul\":12988:12994   */\n      dup3\n        /* \"#utility.yul\":12984:12998   */\n      add\n        /* \"#utility.yul\":12977:13021   */\n      mstore\n        /* \"#utility.yul\":12860:13028   */\n      pop\n      jump\t// out\n        /* \"#utility.yul\":13034:13197   */\n    tag_217:\n        /* \"#utility.yul\":13174:13189   */\n      0x5573657220426c6f636b65642100000000000000000000000000000000000000\n        /* \"#utility.yul\":13170:13171   */\n      0x00\n        /* \"#utility.yul\":13162:13168   */\n      dup3\n        /* \"#utility.yul\":13158:13172   */\n      add\n        /* \"#utility.yul\":13151:13190   */\n      mstore\n        /* \"#utility.yul\":13034:13197   */\n      pop\n      jump\t// out\n        /* \"#utility.yul\":13203:13382   */\n    tag_222:\n        /* \"#utility.yul\":13343:13374   */\n      0x4f6e6c79206f776e65722063616e20626c6f636b207468652075736572000000\n        /* \"#utility.yul\":13339:13340   */\n      0x00\n        /* \"#utility.yul\":13331:13337   */\n      dup3\n        /* \"#utility.yul\":13327:13341   */\n      add\n        /* \"#utility.yul\":13320:13375   */\n      mstore\n        /* \"#utility.yul\":13203:13382   */\n      pop\n      jump\t// out\n        /* \"#utility.yul\":13388:13553   */\n    tag_227:\n        /* \"#utility.yul\":13528:13545   */\n      0x436f6e7472616374205061757365640000000000000000000000000000000000\n        /* \"#utility.yul\":13524:13525   */\n      0x00\n        /* \"#utility.yul\":13516:13522   */\n      dup3\n        /* \"#utility.yul\":13512:13526   */\n      add\n        /* \"#utility.yul\":13505:13546   */\n      mstore\n        /* \"#utility.yul\":13388:13553   */\n      pop\n      jump\t// out\n        /* \"#utility.yul\":13559:13681   */\n    tag_156:\n        /* \"#utility.yul\":13632:13656   */\n      tag_307\n        /* \"#utility.yul\":13650:13655   */\n      dup2\n        /* \"#utility.yul\":13632:13656   */\n      tag_182\n      jump\t// in\n    tag_307:\n        /* \"#utility.yul\":13625:13630   */\n      dup2\n        /* \"#utility.yul\":13622:13657   */\n      eq\n        /* \"#utility.yul\":13612:13675   */\n      tag_308\n      jumpi\n        /* \"#utility.yul\":13671:13672   */\n      0x00\n        /* \"#utility.yul\":13668:13669   */\n      dup1\n        /* \"#utility.yul\":13661:13673   */\n      revert\n        /* \"#utility.yul\":13612:13675   */\n    tag_308:\n        /* \"#utility.yul\":13559:13681   */\n      pop\n      jump\t// out\n        /* \"#utility.yul\":13687:13803   */\n    tag_160:\n        /* \"#utility.yul\":13757:13778   */\n      tag_310\n        /* \"#utility.yul\":13772:13777   */\n      dup2\n        /* \"#utility.yul\":13757:13778   */\n      tag_186\n      jump\t// in\n    tag_310:\n        /* \"#utility.yul\":13750:13755   */\n      dup2\n        /* \"#utility.yul\":13747:13779   */\n      eq\n        /* \"#utility.yul\":13737:13797   */\n      tag_311\n      jumpi\n        /* \"#utility.yul\":13793:13794   */\n      0x00\n        /* \"#utility.yul\":13790:13791   */\n      dup1\n        /* \"#utility.yul\":13783:13795   */\n      revert\n        /* \"#utility.yul\":13737:13797   */\n    tag_311:\n        /* \"#utility.yul\":13687:13803   */\n      pop\n      jump\t// out\n        /* \"#utility.yul\":13809:13931   */\n    tag_164:\n        /* \"#utility.yul\":13882:13906   */\n      tag_313\n        /* \"#utility.yul\":13900:13905   */\n      dup2\n        /* \"#utility.yul\":13882:13906   */\n      tag_231\n      jump\t// in\n    tag_313:\n        /* \"#utility.yul\":13875:13880   */\n      dup2\n        /* \"#utility.yul\":13872:13907   */\n      eq\n        /* \"#utility.yul\":13862:13925   */\n      tag_314\n      jumpi\n        /* \"#utility.yul\":13921:13922   */\n      0x00\n        /* \"#utility.yul\":13918:13919   */\n      dup1\n        /* \"#utility.yul\":13911:13923   */\n      revert\n        /* \"#utility.yul\":13862:13925   */\n    tag_314:\n        /* \"#utility.yul\":13809:13931   */\n      pop\n      jump\t// out\n\n    auxdata: 0xa2646970667358221220ee3371179c80ce764349cb4731dca5f16f56bae0a6eafa4186853fe21243df5464736f6c63430008070033\n}\n",
				"bytecode": {
					"linkReferences": {},
					"object": "608060405234801561001057600080fd5b50336000806101000a81548173ffffffffffffffffffffffffffffffffffffffff021916908373ffffffffffffffffffffffffffffffffffffffff1602179055506113a6806100606000396000f3fe6080604052600436106100f35760003560e01c80636f49712b1161008a578063b0370e0c11610059578063b0370e0c146102c7578063c93c8f34146102d1578063dfa20f0a1461030e578063f765fd8f14610325576100f3565b80636f49712b146101f857806375c96c5d1461023557806388b22c241461025e5780638da5cb5b1461029c576100f3565b8063439766ce116100c6578063439766ce146101815780634626402b1461019857806351ed6a30146101c35780635c975abb146101cd576100f3565b8063021a89ad146100f857806316c38b3c1461012357806320eb640c1461014c578063228cb73314610156575b600080fd5b34801561010457600080fd5b5061010d61033c565b60405161011a9190610e15565b60405180910390f35b34801561012f57600080fd5b5061014a60048036038101906101459190610c88565b61034f565b005b6101546103fa565b005b34801561016257600080fd5b5061016b6104e3565b6040516101789190610f30565b60405180910390f35b34801561018d57600080fd5b506101966104e9565b005b3480156101a457600080fd5b506101ad6105cf565b6040516101ba9190610f30565b60405180910390f35b6101cb6105d5565b005b3480156101d957600080fd5b506101e26107b4565b6040516101ef9190610e15565b60405180910390f35b34801561020457600080fd5b5061021f600480360381019061021a9190610c1b565b6107c7565b60405161022c9190610e15565b60405180910390f35b34801561024157600080fd5b5061025c60048036038101906102579190610c88565b6107e7565b005b34801561026a57600080fd5b5061028560048036038101906102809190610c48565b610892565b604051610293929190610f4b565b60405180910390f35b3480156102a857600080fd5b506102b16108d3565b6040516102be9190610dfa565b60405180910390f35b6102cf6108f7565b005b3480156102dd57600080fd5b506102f860048036038101906102f39190610c1b565b610b44565b6040516103059190610e15565b60405180910390f35b34801561031a57600080fd5b50610323610b64565b005b34801561033157600080fd5b5061033a610ba0565b005b600060159054906101000a900460ff1681565b60008054906101000a900473ffffffffffffffffffffffffffffffffffffffff1673ffffffffffffffffffffffffffffffffffffffff163373ffffffffffffffffffffffffffffffffffffffff16146103dd576040517f08c379a00000000000000000000000000000000000000000000000000000000081526004016103d490610e50565b60405180910390fd5b80600060146101000a81548160ff02191690831515021790555050565b600060026000015411610442576040517f08c379a000000000000000000000000000000000000000000000000000000000815260040161043990610e90565b60405180910390fd5b3373ffffffffffffffffffffffffffffffffffffffff166108fc479081150290604051600060405180830381858888f19350505050158015610488573d6000803e3d6000fd5b506000600660003373ffffffffffffffffffffffffffffffffffffffff1673ffffffffffffffffffffffffffffffffffffffff16815260200190815260200160002060006101000a81548160ff021916908315150217905550565b60075481565b60008054906101000a900473ffffffffffffffffffffffffffffffffffffffff1673ffffffffffffffffffffffffffffffffffffffff163373ffffffffffffffffffffffffffffffffffffffff1614610577576040517f08c379a000000000000000000000000000000000000000000000000000000000815260040161056e90610e70565b60405180910390fd5b60001515600060149054906101000a900460ff161515146105cd576040517f08c379a00000000000000000000000000000000000000000000000000000000081526004016105c490610f10565b60405180910390fd5b565b60015481565b60003411610618576040517f08c379a000000000000000000000000000000000000000000000000000000000815260040161060f90610eb0565b60405180910390fd5b60001515600060159054906101000a900460ff1615151461066e576040517f08c379a000000000000000000000000000000000000000000000000000000000815260040161066590610ed0565b60405180910390fd5b3460026000018190555042600260010181905550600460003373ffffffffffffffffffffffffffffffffffffffff1673ffffffffffffffffffffffffffffffffffffffff16815260200190815260200160002060029080600181540180825580915050600190039060005260206000209060020201600090919091909150600082015481600001556001820154816001015550506001600660003373ffffffffffffffffffffffffffffffffffffffff1673ffffffffffffffffffffffffffffffffffffffff16815260200190815260200160002060006101000a81548160ff0219169083151502179055506001600560003373ffffffffffffffffffffffffffffffffffffffff1673ffffffffffffffffffffffffffffffffffffffff16815260200190815260200160002060006101000a81548160ff021916908315150217905550565b600060149054906101000a900460ff1681565b60066020528060005260406000206000915054906101000a900460ff1681565b60008054906101000a900473ffffffffffffffffffffffffffffffffffffffff1673ffffffffffffffffffffffffffffffffffffffff163373ffffffffffffffffffffffffffffffffffffffff1614610875576040517f08c379a000000000000000000000000000000000000000000000000000000000815260040161086c90610ef0565b60405180910390fd5b80600060156101000a81548160ff02191690831515021790555050565b600460205281600052604060002081815481106108ae57600080fd5b9060005260206000209060020201600091509150508060000154908060010154905082565b60008054906101000a900473ffffffffffffffffffffffffffffffffffffffff1681565b60008054906101000a900473ffffffffffffffffffffffffffffffffffffffff1673ffffffffffffffffffffffffffffffffffffffff163373ffffffffffffffffffffffffffffffffffffffff1614610985576040517f08c379a000000000000000000000000000000000000000000000000000000000815260040161097c90610e30565b60405180910390fd5b60005b600460003373ffffffffffffffffffffffffffffffffffffffff1673ffffffffffffffffffffffffffffffffffffffff16815260200190815260200160002080549050811015610af8576000600460003373ffffffffffffffffffffffffffffffffffffffff1673ffffffffffffffffffffffffffffffffffffffff1681526020019081526020016000208281548110610a2557610a24611189565b5b906000526020600020906002020160000154905060648162015180600460003373ffffffffffffffffffffffffffffffffffffffff1673ffffffffffffffffffffffffffffffffffffffff1681526020019081526020016000208581548110610a9157610a90611189565b5b90600052602060002090600202016001015442610aae9190611066565b610ab89190610fdb565b610ac2919061100c565b610acc9190610fdb565b60076000828254610add9190610f85565b92505081905550508080610af0906110e2565b915050610988565b503373ffffffffffffffffffffffffffffffffffffffff166108fc6007549081150290604051600060405180830381858888f19350505050158015610b41573d6000803e3d6000fd5b50565b60056020528060005260406000206000915054906101000a900460ff1681565b600060646005600260000154610b7a919061100c565b610b849190610fdb565b905080600260000154610b979190611066565b60018190555050565b600060646005600260000154610bb6919061100c565b610bc09190610fdb565b905080600260000154610bd39190610f85565b60018190555050565b600081359050610beb8161132b565b92915050565b600081359050610c0081611342565b92915050565b600081359050610c1581611359565b92915050565b600060208284031215610c3157610c306111b8565b5b6000610c3f84828501610bdc565b91505092915050565b60008060408385031215610c5f57610c5e6111b8565b5b6000610c6d85828601610bdc565b9250506020610c7e85828601610c06565b9150509250929050565b600060208284031215610c9e57610c9d6111b8565b5b6000610cac84828501610bf1565b91505092915050565b610cbe8161109a565b82525050565b610ccd816110ac565b82525050565b6000610ce0601883610f74565b9150610ceb826111bd565b602082019050919050565b6000610d03601583610f74565b9150610d0e826111e6565b602082019050919050565b6000610d26602183610f74565b9150610d318261120f565b604082019050919050565b6000610d49601b83610f74565b9150610d548261125e565b602082019050919050565b6000610d6c601283610f74565b9150610d7782611287565b602082019050919050565b6000610d8f600d83610f74565b9150610d9a826112b0565b602082019050919050565b6000610db2601d83610f74565b9150610dbd826112d9565b602082019050919050565b6000610dd5600f83610f74565b9150610de082611302565b602082019050919050565b610df4816110d8565b82525050565b6000602082019050610e0f6000830184610cb5565b92915050565b6000602082019050610e2a6000830184610cc4565b92915050565b60006020820190508181036000830152610e4981610cd3565b9050919050565b60006020820190508181036000830152610e6981610cf6565b9050919050565b60006020820190508181036000830152610e8981610d19565b9050919050565b60006020820190508181036000830152610ea981610d3c565b9050919050565b60006020820190508181036000830152610ec981610d5f565b9050919050565b60006020820190508181036000830152610ee981610d82565b9050919050565b60006020820190508181036000830152610f0981610da5565b9050919050565b60006020820190508181036000830152610f2981610dc8565b9050919050565b6000602082019050610f456000830184610deb565b92915050565b6000604082019050610f606000830185610deb565b610f6d6020830184610deb565b9392505050565b600082825260208201905092915050565b6000610f90826110d8565b9150610f9b836110d8565b9250827fffffffffffffffffffffffffffffffffffffffffffffffffffffffffffffffff03821115610fd057610fcf61112b565b5b828201905092915050565b6000610fe6826110d8565b9150610ff1836110d8565b9250826110015761100061115a565b5b828204905092915050565b6000611017826110d8565b9150611022836110d8565b9250817fffffffffffffffffffffffffffffffffffffffffffffffffffffffffffffffff048311821515161561105b5761105a61112b565b5b828202905092915050565b6000611071826110d8565b915061107c836110d8565b92508282101561108f5761108e61112b565b5b828203905092915050565b60006110a5826110b8565b9050919050565b60008115159050919050565b600073ffffffffffffffffffffffffffffffffffffffff82169050919050565b6000819050919050565b60006110ed826110d8565b91507fffffffffffffffffffffffffffffffffffffffffffffffffffffffffffffffff8214156111205761111f61112b565b5b600182019050919050565b7f4e487b7100000000000000000000000000000000000000000000000000000000600052601160045260246000fd5b7f4e487b7100000000000000000000000000000000000000000000000000000000600052601260045260246000fd5b7f4e487b7100000000000000000000000000000000000000000000000000000000600052603260045260246000fd5b600080fd5b7f63616c6c6572206d75737420626520746865206f776e65720000000000000000600082015250565b7f596f7520617265206e6f7420746865206f776e65720000000000000000000000600082015250565b7f4f6e6c79206f776e65722063616e2070617573652074686520636f6e7472616360008201527f7400000000000000000000000000000000000000000000000000000000000000602082015250565b7f66756e64732063616e6e6f74206265206c657373207468616e20300000000000600082015250565b7f616d6f756e742063616e6e6f7420626520300000000000000000000000000000600082015250565b7f5573657220426c6f636b65642100000000000000000000000000000000000000600082015250565b7f4f6e6c79206f776e65722063616e20626c6f636b207468652075736572000000600082015250565b7f436f6e7472616374205061757365640000000000000000000000000000000000600082015250565b6113348161109a565b811461133f57600080fd5b50565b61134b816110ac565b811461135657600080fd5b50565b611362816110d8565b811461136d57600080fd5b5056fea2646970667358221220ee3371179c80ce764349cb4731dca5f16f56bae0a6eafa4186853fe21243df5464736f6c63430008070033",
					"opcodes": "PUSH1 0x80 PUSH1 0x40 MSTORE CALLVALUE DUP1 ISZERO PUSH2 0x10 JUMPI PUSH1 0x0 DUP1 REVERT JUMPDEST POP CALLER PUSH1 0x0 DUP1 PUSH2 0x100 EXP DUP2 SLOAD DUP2 PUSH20 0xFFFFFFFFFFFFFFFFFFFFFFFFFFFFFFFFFFFFFFFF MUL NOT AND SWAP1 DUP4 PUSH20 0xFFFFFFFFFFFFFFFFFFFFFFFFFFFFFFFFFFFFFFFF AND MUL OR SWAP1 SSTORE POP PUSH2 0x13A6 DUP1 PUSH2 0x60 PUSH1 0x0 CODECOPY PUSH1 0x0 RETURN INVALID PUSH1 0x80 PUSH1 0x40 MSTORE PUSH1 0x4 CALLDATASIZE LT PUSH2 0xF3 JUMPI PUSH1 0x0 CALLDATALOAD PUSH1 0xE0 SHR DUP1 PUSH4 0x6F49712B GT PUSH2 0x8A JUMPI DUP1 PUSH4 0xB0370E0C GT PUSH2 0x59 JUMPI DUP1 PUSH4 0xB0370E0C EQ PUSH2 0x2C7 JUMPI DUP1 PUSH4 0xC93C8F34 EQ PUSH2 0x2D1 JUMPI DUP1 PUSH4 0xDFA20F0A EQ PUSH2 0x30E JUMPI DUP1 PUSH4 0xF765FD8F EQ PUSH2 0x325 JUMPI PUSH2 0xF3 JUMP JUMPDEST DUP1 PUSH4 0x6F49712B EQ PUSH2 0x1F8 JUMPI DUP1 PUSH4 0x75C96C5D EQ PUSH2 0x235 JUMPI DUP1 PUSH4 0x88B22C24 EQ PUSH2 0x25E JUMPI DUP1 PUSH4 0x8DA5CB5B EQ PUSH2 0x29C JUMPI PUSH2 0xF3 JUMP JUMPDEST DUP1 PUSH4 0x439766CE GT PUSH2 0xC6 JUMPI DUP1 PUSH4 0x439766CE EQ PUSH2 0x181 JUMPI DUP1 PUSH4 0x4626402B EQ PUSH2 0x198 JUMPI DUP1 PUSH4 0x51ED6A30 EQ PUSH2 0x1C3 JUMPI DUP1 PUSH4 0x5C975ABB EQ PUSH2 0x1CD JUMPI PUSH2 0xF3 JUMP JUMPDEST DUP1 PUSH4 0x21A89AD EQ PUSH2 0xF8 JUMPI DUP1 PUSH4 0x16C38B3C EQ PUSH2 0x123 JUMPI DUP1 PUSH4 0x20EB640C EQ PUSH2 0x14C JUMPI DUP1 PUSH4 0x228CB733 EQ PUSH2 0x156 JUMPI JUMPDEST PUSH1 0x0 DUP1 REVERT JUMPDEST CALLVALUE DUP1 ISZERO PUSH2 0x104 JUMPI PUSH1 0x0 DUP1 REVERT JUMPDEST POP PUSH2 0x10D PUSH2 0x33C JUMP JUMPDEST PUSH1 0x40 MLOAD PUSH2 0x11A SWAP2 SWAP1 PUSH2 0xE15 JUMP JUMPDEST PUSH1 0x40 MLOAD DUP1 SWAP2 SUB SWAP1 RETURN JUMPDEST CALLVALUE DUP1 ISZERO PUSH2 0x12F JUMPI PUSH1 0x0 DUP1 REVERT JUMPDEST POP PUSH2 0x14A PUSH1 0x4 DUP1 CALLDATASIZE SUB DUP2 ADD SWAP1 PUSH2 0x145 SWAP2 SWAP1 PUSH2 0xC88 JUMP JUMPDEST PUSH2 0x34F JUMP JUMPDEST STOP JUMPDEST PUSH2 0x154 PUSH2 0x3FA JUMP JUMPDEST STOP JUMPDEST CALLVALUE DUP1 ISZERO PUSH2 0x162 JUMPI PUSH1 0x0 DUP1 REVERT JUMPDEST POP PUSH2 0x16B PUSH2 0x4E3 JUMP JUMPDEST PUSH1 0x40 MLOAD PUSH2 0x178 SWAP2 SWAP1 PUSH2 0xF30 JUMP JUMPDEST PUSH1 0x40 MLOAD DUP1 SWAP2 SUB SWAP1 RETURN JUMPDEST CALLVALUE DUP1 ISZERO PUSH2 0x18D JUMPI PUSH1 0x0 DUP1 REVERT JUMPDEST POP PUSH2 0x196 PUSH2 0x4E9 JUMP JUMPDEST STOP JUMPDEST CALLVALUE DUP1 ISZERO PUSH2 0x1A4 JUMPI PUSH1 0x0 DUP1 REVERT JUMPDEST POP PUSH2 0x1AD PUSH2 0x5CF JUMP JUMPDEST PUSH1 0x40 MLOAD PUSH2 0x1BA SWAP2 SWAP1 PUSH2 0xF30 JUMP JUMPDEST PUSH1 0x40 MLOAD DUP1 SWAP2 SUB SWAP1 RETURN JUMPDEST PUSH2 0x1CB PUSH2 0x5D5 JUMP JUMPDEST STOP JUMPDEST CALLVALUE DUP1 ISZERO PUSH2 0x1D9 JUMPI PUSH1 0x0 DUP1 REVERT JUMPDEST POP PUSH2 0x1E2 PUSH2 0x7B4 JUMP JUMPDEST PUSH1 0x40 MLOAD PUSH2 0x1EF SWAP2 SWAP1 PUSH2 0xE15 JUMP JUMPDEST PUSH1 0x40 MLOAD DUP1 SWAP2 SUB SWAP1 RETURN JUMPDEST CALLVALUE DUP1 ISZERO PUSH2 0x204 JUMPI PUSH1 0x0 DUP1 REVERT JUMPDEST POP PUSH2 0x21F PUSH1 0x4 DUP1 CALLDATASIZE SUB DUP2 ADD SWAP1 PUSH2 0x21A SWAP2 SWAP1 PUSH2 0xC1B JUMP JUMPDEST PUSH2 0x7C7 JUMP JUMPDEST PUSH1 0x40 MLOAD PUSH2 0x22C SWAP2 SWAP1 PUSH2 0xE15 JUMP JUMPDEST PUSH1 0x40 MLOAD DUP1 SWAP2 SUB SWAP1 RETURN JUMPDEST CALLVALUE DUP1 ISZERO PUSH2 0x241 JUMPI PUSH1 0x0 DUP1 REVERT JUMPDEST POP PUSH2 0x25C PUSH1 0x4 DUP1 CALLDATASIZE SUB DUP2 ADD SWAP1 PUSH2 0x257 SWAP2 SWAP1 PUSH2 0xC88 JUMP JUMPDEST PUSH2 0x7E7 JUMP JUMPDEST STOP JUMPDEST CALLVALUE DUP1 ISZERO PUSH2 0x26A JUMPI PUSH1 0x0 DUP1 REVERT JUMPDEST POP PUSH2 0x285 PUSH1 0x4 DUP1 CALLDATASIZE SUB DUP2 ADD SWAP1 PUSH2 0x280 SWAP2 SWAP1 PUSH2 0xC48 JUMP JUMPDEST PUSH2 0x892 JUMP JUMPDEST PUSH1 0x40 MLOAD PUSH2 0x293 SWAP3 SWAP2 SWAP1 PUSH2 0xF4B JUMP JUMPDEST PUSH1 0x40 MLOAD DUP1 SWAP2 SUB SWAP1 RETURN JUMPDEST CALLVALUE DUP1 ISZERO PUSH2 0x2A8 JUMPI PUSH1 0x0 DUP1 REVERT JUMPDEST POP PUSH2 0x2B1 PUSH2 0x8D3 JUMP JUMPDEST PUSH1 0x40 MLOAD PUSH2 0x2BE SWAP2 SWAP1 PUSH2 0xDFA JUMP JUMPDEST PUSH1 0x40 MLOAD DUP1 SWAP2 SUB SWAP1 RETURN JUMPDEST PUSH2 0x2CF PUSH2 0x8F7 JUMP JUMPDEST STOP JUMPDEST CALLVALUE DUP1 ISZERO PUSH2 0x2DD JUMPI PUSH1 0x0 DUP1 REVERT JUMPDEST POP PUSH2 0x2F8 PUSH1 0x4 DUP1 CALLDATASIZE SUB DUP2 ADD SWAP1 PUSH2 0x2F3 SWAP2 SWAP1 PUSH2 0xC1B JUMP JUMPDEST PUSH2 0xB44 JUMP JUMPDEST PUSH1 0x40 MLOAD PUSH2 0x305 SWAP2 SWAP1 PUSH2 0xE15 JUMP JUMPDEST PUSH1 0x40 MLOAD DUP1 SWAP2 SUB SWAP1 RETURN JUMPDEST CALLVALUE DUP1 ISZERO PUSH2 0x31A JUMPI PUSH1 0x0 DUP1 REVERT JUMPDEST POP PUSH2 0x323 PUSH2 0xB64 JUMP JUMPDEST STOP JUMPDEST CALLVALUE DUP1 ISZERO PUSH2 0x331 JUMPI PUSH1 0x0 DUP1 REVERT JUMPDEST POP PUSH2 0x33A PUSH2 0xBA0 JUMP JUMPDEST STOP JUMPDEST PUSH1 0x0 PUSH1 0x15 SWAP1 SLOAD SWAP1 PUSH2 0x100 EXP SWAP1 DIV PUSH1 0xFF AND DUP2 JUMP JUMPDEST PUSH1 0x0 DUP1 SLOAD SWAP1 PUSH2 0x100 EXP SWAP1 DIV PUSH20 0xFFFFFFFFFFFFFFFFFFFFFFFFFFFFFFFFFFFFFFFF AND PUSH20 0xFFFFFFFFFFFFFFFFFFFFFFFFFFFFFFFFFFFFFFFF AND CALLER PUSH20 0xFFFFFFFFFFFFFFFFFFFFFFFFFFFFFFFFFFFFFFFF AND EQ PUSH2 0x3DD JUMPI PUSH1 0x40 MLOAD PUSH32 0x8C379A000000000000000000000000000000000000000000000000000000000 DUP2 MSTORE PUSH1 0x4 ADD PUSH2 0x3D4 SWAP1 PUSH2 0xE50 JUMP JUMPDEST PUSH1 0x40 MLOAD DUP1 SWAP2 SUB SWAP1 REVERT JUMPDEST DUP1 PUSH1 0x0 PUSH1 0x14 PUSH2 0x100 EXP DUP2 SLOAD DUP2 PUSH1 0xFF MUL NOT AND SWAP1 DUP4 ISZERO ISZERO MUL OR SWAP1 SSTORE POP POP JUMP JUMPDEST PUSH1 0x0 PUSH1 0x2 PUSH1 0x0 ADD SLOAD GT PUSH2 0x442 JUMPI PUSH1 0x40 MLOAD PUSH32 0x8C379A000000000000000000000000000000000000000000000000000000000 DUP2 MSTORE PUSH1 0x4 ADD PUSH2 0x439 SWAP1 PUSH2 0xE90 JUMP JUMPDEST PUSH1 0x40 MLOAD DUP1 SWAP2 SUB SWAP1 REVERT JUMPDEST CALLER PUSH20 0xFFFFFFFFFFFFFFFFFFFFFFFFFFFFFFFFFFFFFFFF AND PUSH2 0x8FC SELFBALANCE SWAP1 DUP2 ISZERO MUL SWAP1 PUSH1 0x40 MLOAD PUSH1 0x0 PUSH1 0x40 MLOAD DUP1 DUP4 SUB DUP2 DUP6 DUP9 DUP9 CALL SWAP4 POP POP POP POP ISZERO DUP1 ISZERO PUSH2 0x488 JUMPI RETURNDATASIZE PUSH1 0x0 DUP1 RETURNDATACOPY RETURNDATASIZE PUSH1 0x0 REVERT JUMPDEST POP PUSH1 0x0 PUSH1 0x6 PUSH1 0x0 CALLER PUSH20 0xFFFFFFFFFFFFFFFFFFFFFFFFFFFFFFFFFFFFFFFF AND PUSH20 0xFFFFFFFFFFFFFFFFFFFFFFFFFFFFFFFFFFFFFFFF AND DUP2 MSTORE PUSH1 0x20 ADD SWAP1 DUP2 MSTORE PUSH1 0x20 ADD PUSH1 0x0 KECCAK256 PUSH1 0x0 PUSH2 0x100 EXP DUP2 SLOAD DUP2 PUSH1 0xFF MUL NOT AND SWAP1 DUP4 ISZERO ISZERO MUL OR SWAP1 SSTORE POP JUMP JUMPDEST PUSH1 0x7 SLOAD DUP2 JUMP JUMPDEST PUSH1 0x0 DUP1 SLOAD SWAP1 PUSH2 0x100 EXP SWAP1 DIV PUSH20 0xFFFFFFFFFFFFFFFFFFFFFFFFFFFFFFFFFFFFFFFF AND PUSH20 0xFFFFFFFFFFFFFFFFFFFFFFFFFFFFFFFFFFFFFFFF AND CALLER PUSH20 0xFFFFFFFFFFFFFFFFFFFFFFFFFFFFFFFFFFFFFFFF AND EQ PUSH2 0x577 JUMPI PUSH1 0x40 MLOAD PUSH32 0x8C379A000000000000000000000000000000000000000000000000000000000 DUP2 MSTORE PUSH1 0x4 ADD PUSH2 0x56E SWAP1 PUSH2 0xE70 JUMP JUMPDEST PUSH1 0x40 MLOAD DUP1 SWAP2 SUB SWAP1 REVERT JUMPDEST PUSH1 0x0 ISZERO ISZERO PUSH1 0x0 PUSH1 0x14 SWAP1 SLOAD SWAP1 PUSH2 0x100 EXP SWAP1 DIV PUSH1 0xFF AND ISZERO ISZERO EQ PUSH2 0x5CD JUMPI PUSH1 0x40 MLOAD PUSH32 0x8C379A000000000000000000000000000000000000000000000000000000000 DUP2 MSTORE PUSH1 0x4 ADD PUSH2 0x5C4 SWAP1 PUSH2 0xF10 JUMP JUMPDEST PUSH1 0x40 MLOAD DUP1 SWAP2 SUB SWAP1 REVERT JUMPDEST JUMP JUMPDEST PUSH1 0x1 SLOAD DUP2 JUMP JUMPDEST PUSH1 0x0 CALLVALUE GT PUSH2 0x618 JUMPI PUSH1 0x40 MLOAD PUSH32 0x8C379A000000000000000000000000000000000000000000000000000000000 DUP2 MSTORE PUSH1 0x4 ADD PUSH2 0x60F SWAP1 PUSH2 0xEB0 JUMP JUMPDEST PUSH1 0x40 MLOAD DUP1 SWAP2 SUB SWAP1 REVERT JUMPDEST PUSH1 0x0 ISZERO ISZERO PUSH1 0x0 PUSH1 0x15 SWAP1 SLOAD SWAP1 PUSH2 0x100 EXP SWAP1 DIV PUSH1 0xFF AND ISZERO ISZERO EQ PUSH2 0x66E JUMPI PUSH1 0x40 MLOAD PUSH32 0x8C379A000000000000000000000000000000000000000000000000000000000 DUP2 MSTORE PUSH1 0x4 ADD PUSH2 0x665 SWAP1 PUSH2 0xED0 JUMP JUMPDEST PUSH1 0x40 MLOAD DUP1 SWAP2 SUB SWAP1 REVERT JUMPDEST CALLVALUE PUSH1 0x2 PUSH1 0x0 ADD DUP2 SWAP1 SSTORE POP TIMESTAMP PUSH1 0x2 PUSH1 0x1 ADD DUP2 SWAP1 SSTORE POP PUSH1 0x4 PUSH1 0x0 CALLER PUSH20 0xFFFFFFFFFFFFFFFFFFFFFFFFFFFFFFFFFFFFFFFF AND PUSH20 0xFFFFFFFFFFFFFFFFFFFFFFFFFFFFFFFFFFFFFFFF AND DUP2 MSTORE PUSH1 0x20 ADD SWAP1 DUP2 MSTORE PUSH1 0x20 ADD PUSH1 0x0 KECCAK256 PUSH1 0x2 SWAP1 DUP1 PUSH1 0x1 DUP2 SLOAD ADD DUP1 DUP3 SSTORE DUP1 SWAP2 POP POP PUSH1 0x1 SWAP1 SUB SWAP1 PUSH1 0x0 MSTORE PUSH1 0x20 PUSH1 0x0 KECCAK256 SWAP1 PUSH1 0x2 MUL ADD PUSH1 0x0 SWAP1 SWAP2 SWAP1 SWAP2 SWAP1 SWAP2 POP PUSH1 0x0 DUP3 ADD SLOAD DUP2 PUSH1 0x0 ADD SSTORE PUSH1 0x1 DUP3 ADD SLOAD DUP2 PUSH1 0x1 ADD SSTORE POP POP PUSH1 0x1 PUSH1 0x6 PUSH1 0x0 CALLER PUSH20 0xFFFFFFFFFFFFFFFFFFFFFFFFFFFFFFFFFFFFFFFF AND PUSH20 0xFFFFFFFFFFFFFFFFFFFFFFFFFFFFFFFFFFFFFFFF AND DUP2 MSTORE PUSH1 0x20 ADD SWAP1 DUP2 MSTORE PUSH1 0x20 ADD PUSH1 0x0 KECCAK256 PUSH1 0x0 PUSH2 0x100 EXP DUP2 SLOAD DUP2 PUSH1 0xFF MUL NOT AND SWAP1 DUP4 ISZERO ISZERO MUL OR SWAP1 SSTORE POP PUSH1 0x1 PUSH1 0x5 PUSH1 0x0 CALLER PUSH20 0xFFFFFFFFFFFFFFFFFFFFFFFFFFFFFFFFFFFFFFFF AND PUSH20 0xFFFFFFFFFFFFFFFFFFFFFFFFFFFFFFFFFFFFFFFF AND DUP2 MSTORE PUSH1 0x20 ADD SWAP1 DUP2 MSTORE PUSH1 0x20 ADD PUSH1 0x0 KECCAK256 PUSH1 0x0 PUSH2 0x100 EXP DUP2 SLOAD DUP2 PUSH1 0xFF MUL NOT AND SWAP1 DUP4 ISZERO ISZERO MUL OR SWAP1 SSTORE POP JUMP JUMPDEST PUSH1 0x0 PUSH1 0x14 SWAP1 SLOAD SWAP1 PUSH2 0x100 EXP SWAP1 DIV PUSH1 0xFF AND DUP2 JUMP JUMPDEST PUSH1 0x6 PUSH1 0x20 MSTORE DUP1 PUSH1 0x0 MSTORE PUSH1 0x40 PUSH1 0x0 KECCAK256 PUSH1 0x0 SWAP2 POP SLOAD SWAP1 PUSH2 0x100 EXP SWAP1 DIV PUSH1 0xFF AND DUP2 JUMP JUMPDEST PUSH1 0x0 DUP1 SLOAD SWAP1 PUSH2 0x100 EXP SWAP1 DIV PUSH20 0xFFFFFFFFFFFFFFFFFFFFFFFFFFFFFFFFFFFFFFFF AND PUSH20 0xFFFFFFFFFFFFFFFFFFFFFFFFFFFFFFFFFFFFFFFF AND CALLER PUSH20 0xFFFFFFFFFFFFFFFFFFFFFFFFFFFFFFFFFFFFFFFF AND EQ PUSH2 0x875 JUMPI PUSH1 0x40 MLOAD PUSH32 0x8C379A000000000000000000000000000000000000000000000000000000000 DUP2 MSTORE PUSH1 0x4 ADD PUSH2 0x86C SWAP1 PUSH2 0xEF0 JUMP JUMPDEST PUSH1 0x40 MLOAD DUP1 SWAP2 SUB SWAP1 REVERT JUMPDEST DUP1 PUSH1 0x0 PUSH1 0x15 PUSH2 0x100 EXP DUP2 SLOAD DUP2 PUSH1 0xFF MUL NOT AND SWAP1 DUP4 ISZERO ISZERO MUL OR SWAP1 SSTORE POP POP JUMP JUMPDEST PUSH1 0x4 PUSH1 0x20 MSTORE DUP2 PUSH1 0x0 MSTORE PUSH1 0x40 PUSH1 0x0 KECCAK256 DUP2 DUP2 SLOAD DUP2 LT PUSH2 0x8AE JUMPI PUSH1 0x0 DUP1 REVERT JUMPDEST SWAP1 PUSH1 0x0 MSTORE PUSH1 0x20 PUSH1 0x0 KECCAK256 SWAP1 PUSH1 0x2 MUL ADD PUSH1 0x0 SWAP2 POP SWAP2 POP POP DUP1 PUSH1 0x0 ADD SLOAD SWAP1 DUP1 PUSH1 0x1 ADD SLOAD SWAP1 POP DUP3 JUMP JUMPDEST PUSH1 0x0 DUP1 SLOAD SWAP1 PUSH2 0x100 EXP SWAP1 DIV PUSH20 0xFFFFFFFFFFFFFFFFFFFFFFFFFFFFFFFFFFFFFFFF AND DUP2 JUMP JUMPDEST PUSH1 0x0 DUP1 SLOAD SWAP1 PUSH2 0x100 EXP SWAP1 DIV PUSH20 0xFFFFFFFFFFFFFFFFFFFFFFFFFFFFFFFFFFFFFFFF AND PUSH20 0xFFFFFFFFFFFFFFFFFFFFFFFFFFFFFFFFFFFFFFFF AND CALLER PUSH20 0xFFFFFFFFFFFFFFFFFFFFFFFFFFFFFFFFFFFFFFFF AND EQ PUSH2 0x985 JUMPI PUSH1 0x40 MLOAD PUSH32 0x8C379A000000000000000000000000000000000000000000000000000000000 DUP2 MSTORE PUSH1 0x4 ADD PUSH2 0x97C SWAP1 PUSH2 0xE30 JUMP JUMPDEST PUSH1 0x40 MLOAD DUP1 SWAP2 SUB SWAP1 REVERT JUMPDEST PUSH1 0x0 JUMPDEST PUSH1 0x4 PUSH1 0x0 CALLER PUSH20 0xFFFFFFFFFFFFFFFFFFFFFFFFFFFFFFFFFFFFFFFF AND PUSH20 0xFFFFFFFFFFFFFFFFFFFFFFFFFFFFFFFFFFFFFFFF AND DUP2 MSTORE PUSH1 0x20 ADD SWAP1 DUP2 MSTORE PUSH1 0x20 ADD PUSH1 0x0 KECCAK256 DUP1 SLOAD SWAP1 POP DUP2 LT ISZERO PUSH2 0xAF8 JUMPI PUSH1 0x0 PUSH1 0x4 PUSH1 0x0 CALLER PUSH20 0xFFFFFFFFFFFFFFFFFFFFFFFFFFFFFFFFFFFFFFFF AND PUSH20 0xFFFFFFFFFFFFFFFFFFFFFFFFFFFFFFFFFFFFFFFF AND DUP2 MSTORE PUSH1 0x20 ADD SWAP1 DUP2 MSTORE PUSH1 0x20 ADD PUSH1 0x0 KECCAK256 DUP3 DUP2 SLOAD DUP2 LT PUSH2 0xA25 JUMPI PUSH2 0xA24 PUSH2 0x1189 JUMP JUMPDEST JUMPDEST SWAP1 PUSH1 0x0 MSTORE PUSH1 0x20 PUSH1 0x0 KECCAK256 SWAP1 PUSH1 0x2 MUL ADD PUSH1 0x0 ADD SLOAD SWAP1 POP PUSH1 0x64 DUP2 PUSH3 0x15180 PUSH1 0x4 PUSH1 0x0 CALLER PUSH20 0xFFFFFFFFFFFFFFFFFFFFFFFFFFFFFFFFFFFFFFFF AND PUSH20 0xFFFFFFFFFFFFFFFFFFFFFFFFFFFFFFFFFFFFFFFF AND DUP2 MSTORE PUSH1 0x20 ADD SWAP1 DUP2 MSTORE PUSH1 0x20 ADD PUSH1 0x0 KECCAK256 DUP6 DUP2 SLOAD DUP2 LT PUSH2 0xA91 JUMPI PUSH2 0xA90 PUSH2 0x1189 JUMP JUMPDEST JUMPDEST SWAP1 PUSH1 0x0 MSTORE PUSH1 0x20 PUSH1 0x0 KECCAK256 SWAP1 PUSH1 0x2 MUL ADD PUSH1 0x1 ADD SLOAD TIMESTAMP PUSH2 0xAAE SWAP2 SWAP1 PUSH2 0x1066 JUMP JUMPDEST PUSH2 0xAB8 SWAP2 SWAP1 PUSH2 0xFDB JUMP JUMPDEST PUSH2 0xAC2 SWAP2 SWAP1 PUSH2 0x100C JUMP JUMPDEST PUSH2 0xACC SWAP2 SWAP1 PUSH2 0xFDB JUMP JUMPDEST PUSH1 0x7 PUSH1 0x0 DUP3 DUP3 SLOAD PUSH2 0xADD SWAP2 SWAP1 PUSH2 0xF85 JUMP JUMPDEST SWAP3 POP POP DUP2 SWAP1 SSTORE POP POP DUP1 DUP1 PUSH2 0xAF0 SWAP1 PUSH2 0x10E2 JUMP JUMPDEST SWAP2 POP POP PUSH2 0x988 JUMP JUMPDEST POP CALLER PUSH20 0xFFFFFFFFFFFFFFFFFFFFFFFFFFFFFFFFFFFFFFFF AND PUSH2 0x8FC PUSH1 0x7 SLOAD SWAP1 DUP2 ISZERO MUL SWAP1 PUSH1 0x40 MLOAD PUSH1 0x0 PUSH1 0x40 MLOAD DUP1 DUP4 SUB DUP2 DUP6 DUP9 DUP9 CALL SWAP4 POP POP POP POP ISZERO DUP1 ISZERO PUSH2 0xB41 JUMPI RETURNDATASIZE PUSH1 0x0 DUP1 RETURNDATACOPY RETURNDATASIZE PUSH1 0x0 REVERT JUMPDEST POP JUMP JUMPDEST PUSH1 0x5 PUSH1 0x20 MSTORE DUP1 PUSH1 0x0 MSTORE PUSH1 0x40 PUSH1 0x0 KECCAK256 PUSH1 0x0 SWAP2 POP SLOAD SWAP1 PUSH2 0x100 EXP SWAP1 DIV PUSH1 0xFF AND DUP2 JUMP JUMPDEST PUSH1 0x0 PUSH1 0x64 PUSH1 0x5 PUSH1 0x2 PUSH1 0x0 ADD SLOAD PUSH2 0xB7A SWAP2 SWAP1 PUSH2 0x100C JUMP JUMPDEST PUSH2 0xB84 SWAP2 SWAP1 PUSH2 0xFDB JUMP JUMPDEST SWAP1 POP DUP1 PUSH1 0x2 PUSH1 0x0 ADD SLOAD PUSH2 0xB97 SWAP2 SWAP1 PUSH2 0x1066 JUMP JUMPDEST PUSH1 0x1 DUP2 SWAP1 SSTORE POP POP JUMP JUMPDEST PUSH1 0x0 PUSH1 0x64 PUSH1 0x5 PUSH1 0x2 PUSH1 0x0 ADD SLOAD PUSH2 0xBB6 SWAP2 SWAP1 PUSH2 0x100C JUMP JUMPDEST PUSH2 0xBC0 SWAP2 SWAP1 PUSH2 0xFDB JUMP JUMPDEST SWAP1 POP DUP1 PUSH1 0x2 PUSH1 0x0 ADD SLOAD PUSH2 0xBD3 SWAP2 SWAP1 PUSH2 0xF85 JUMP JUMPDEST PUSH1 0x1 DUP2 SWAP1 SSTORE POP POP JUMP JUMPDEST PUSH1 0x0 DUP2 CALLDATALOAD SWAP1 POP PUSH2 0xBEB DUP2 PUSH2 0x132B JUMP JUMPDEST SWAP3 SWAP2 POP POP JUMP JUMPDEST PUSH1 0x0 DUP2 CALLDATALOAD SWAP1 POP PUSH2 0xC00 DUP2 PUSH2 0x1342 JUMP JUMPDEST SWAP3 SWAP2 POP POP JUMP JUMPDEST PUSH1 0x0 DUP2 CALLDATALOAD SWAP1 POP PUSH2 0xC15 DUP2 PUSH2 0x1359 JUMP JUMPDEST SWAP3 SWAP2 POP POP JUMP JUMPDEST PUSH1 0x0 PUSH1 0x20 DUP3 DUP5 SUB SLT ISZERO PUSH2 0xC31 JUMPI PUSH2 0xC30 PUSH2 0x11B8 JUMP JUMPDEST JUMPDEST PUSH1 0x0 PUSH2 0xC3F DUP5 DUP3 DUP6 ADD PUSH2 0xBDC JUMP JUMPDEST SWAP2 POP POP SWAP3 SWAP2 POP POP JUMP JUMPDEST PUSH1 0x0 DUP1 PUSH1 0x40 DUP4 DUP6 SUB SLT ISZERO PUSH2 0xC5F JUMPI PUSH2 0xC5E PUSH2 0x11B8 JUMP JUMPDEST JUMPDEST PUSH1 0x0 PUSH2 0xC6D DUP6 DUP3 DUP7 ADD PUSH2 0xBDC JUMP JUMPDEST SWAP3 POP POP PUSH1 0x20 PUSH2 0xC7E DUP6 DUP3 DUP7 ADD PUSH2 0xC06 JUMP JUMPDEST SWAP2 POP POP SWAP3 POP SWAP3 SWAP1 POP JUMP JUMPDEST PUSH1 0x0 PUSH1 0x20 DUP3 DUP5 SUB SLT ISZERO PUSH2 0xC9E JUMPI PUSH2 0xC9D PUSH2 0x11B8 JUMP JUMPDEST JUMPDEST PUSH1 0x0 PUSH2 0xCAC DUP5 DUP3 DUP6 ADD PUSH2 0xBF1 JUMP JUMPDEST SWAP2 POP POP SWAP3 SWAP2 POP POP JUMP JUMPDEST PUSH2 0xCBE DUP2 PUSH2 0x109A JUMP JUMPDEST DUP3 MSTORE POP POP JUMP JUMPDEST PUSH2 0xCCD DUP2 PUSH2 0x10AC JUMP JUMPDEST DUP3 MSTORE POP POP JUMP JUMPDEST PUSH1 0x0 PUSH2 0xCE0 PUSH1 0x18 DUP4 PUSH2 0xF74 JUMP JUMPDEST SWAP2 POP PUSH2 0xCEB DUP3 PUSH2 0x11BD JUMP JUMPDEST PUSH1 0x20 DUP3 ADD SWAP1 POP SWAP2 SWAP1 POP JUMP JUMPDEST PUSH1 0x0 PUSH2 0xD03 PUSH1 0x15 DUP4 PUSH2 0xF74 JUMP JUMPDEST SWAP2 POP PUSH2 0xD0E DUP3 PUSH2 0x11E6 JUMP JUMPDEST PUSH1 0x20 DUP3 ADD SWAP1 POP SWAP2 SWAP1 POP JUMP JUMPDEST PUSH1 0x0 PUSH2 0xD26 PUSH1 0x21 DUP4 PUSH2 0xF74 JUMP JUMPDEST SWAP2 POP PUSH2 0xD31 DUP3 PUSH2 0x120F JUMP JUMPDEST PUSH1 0x40 DUP3 ADD SWAP1 POP SWAP2 SWAP1 POP JUMP JUMPDEST PUSH1 0x0 PUSH2 0xD49 PUSH1 0x1B DUP4 PUSH2 0xF74 JUMP JUMPDEST SWAP2 POP PUSH2 0xD54 DUP3 PUSH2 0x125E JUMP JUMPDEST PUSH1 0x20 DUP3 ADD SWAP1 POP SWAP2 SWAP1 POP JUMP JUMPDEST PUSH1 0x0 PUSH2 0xD6C PUSH1 0x12 DUP4 PUSH2 0xF74 JUMP JUMPDEST SWAP2 POP PUSH2 0xD77 DUP3 PUSH2 0x1287 JUMP JUMPDEST PUSH1 0x20 DUP3 ADD SWAP1 POP SWAP2 SWAP1 POP JUMP JUMPDEST PUSH1 0x0 PUSH2 0xD8F PUSH1 0xD DUP4 PUSH2 0xF74 JUMP JUMPDEST SWAP2 POP PUSH2 0xD9A DUP3 PUSH2 0x12B0 JUMP JUMPDEST PUSH1 0x20 DUP3 ADD SWAP1 POP SWAP2 SWAP1 POP JUMP JUMPDEST PUSH1 0x0 PUSH2 0xDB2 PUSH1 0x1D DUP4 PUSH2 0xF74 JUMP JUMPDEST SWAP2 POP PUSH2 0xDBD DUP3 PUSH2 0x12D9 JUMP JUMPDEST PUSH1 0x20 DUP3 ADD SWAP1 POP SWAP2 SWAP1 POP JUMP JUMPDEST PUSH1 0x0 PUSH2 0xDD5 PUSH1 0xF DUP4 PUSH2 0xF74 JUMP JUMPDEST SWAP2 POP PUSH2 0xDE0 DUP3 PUSH2 0x1302 JUMP JUMPDEST PUSH1 0x20 DUP3 ADD SWAP1 POP SWAP2 SWAP1 POP JUMP JUMPDEST PUSH2 0xDF4 DUP2 PUSH2 0x10D8 JUMP JUMPDEST DUP3 MSTORE POP POP JUMP JUMPDEST PUSH1 0x0 PUSH1 0x20 DUP3 ADD SWAP1 POP PUSH2 0xE0F PUSH1 0x0 DUP4 ADD DUP5 PUSH2 0xCB5 JUMP JUMPDEST SWAP3 SWAP2 POP POP JUMP JUMPDEST PUSH1 0x0 PUSH1 0x20 DUP3 ADD SWAP1 POP PUSH2 0xE2A PUSH1 0x0 DUP4 ADD DUP5 PUSH2 0xCC4 JUMP JUMPDEST SWAP3 SWAP2 POP POP JUMP JUMPDEST PUSH1 0x0 PUSH1 0x20 DUP3 ADD SWAP1 POP DUP2 DUP2 SUB PUSH1 0x0 DUP4 ADD MSTORE PUSH2 0xE49 DUP2 PUSH2 0xCD3 JUMP JUMPDEST SWAP1 POP SWAP2 SWAP1 POP JUMP JUMPDEST PUSH1 0x0 PUSH1 0x20 DUP3 ADD SWAP1 POP DUP2 DUP2 SUB PUSH1 0x0 DUP4 ADD MSTORE PUSH2 0xE69 DUP2 PUSH2 0xCF6 JUMP JUMPDEST SWAP1 POP SWAP2 SWAP1 POP JUMP JUMPDEST PUSH1 0x0 PUSH1 0x20 DUP3 ADD SWAP1 POP DUP2 DUP2 SUB PUSH1 0x0 DUP4 ADD MSTORE PUSH2 0xE89 DUP2 PUSH2 0xD19 JUMP JUMPDEST SWAP1 POP SWAP2 SWAP1 POP JUMP JUMPDEST PUSH1 0x0 PUSH1 0x20 DUP3 ADD SWAP1 POP DUP2 DUP2 SUB PUSH1 0x0 DUP4 ADD MSTORE PUSH2 0xEA9 DUP2 PUSH2 0xD3C JUMP JUMPDEST SWAP1 POP SWAP2 SWAP1 POP JUMP JUMPDEST PUSH1 0x0 PUSH1 0x20 DUP3 ADD SWAP1 POP DUP2 DUP2 SUB PUSH1 0x0 DUP4 ADD MSTORE PUSH2 0xEC9 DUP2 PUSH2 0xD5F JUMP JUMPDEST SWAP1 POP SWAP2 SWAP1 POP JUMP JUMPDEST PUSH1 0x0 PUSH1 0x20 DUP3 ADD SWAP1 POP DUP2 DUP2 SUB PUSH1 0x0 DUP4 ADD MSTORE PUSH2 0xEE9 DUP2 PUSH2 0xD82 JUMP JUMPDEST SWAP1 POP SWAP2 SWAP1 POP JUMP JUMPDEST PUSH1 0x0 PUSH1 0x20 DUP3 ADD SWAP1 POP DUP2 DUP2 SUB PUSH1 0x0 DUP4 ADD MSTORE PUSH2 0xF09 DUP2 PUSH2 0xDA5 JUMP JUMPDEST SWAP1 POP SWAP2 SWAP1 POP JUMP JUMPDEST PUSH1 0x0 PUSH1 0x20 DUP3 ADD SWAP1 POP DUP2 DUP2 SUB PUSH1 0x0 DUP4 ADD MSTORE PUSH2 0xF29 DUP2 PUSH2 0xDC8 JUMP JUMPDEST SWAP1 POP SWAP2 SWAP1 POP JUMP JUMPDEST PUSH1 0x0 PUSH1 0x20 DUP3 ADD SWAP1 POP PUSH2 0xF45 PUSH1 0x0 DUP4 ADD DUP5 PUSH2 0xDEB JUMP JUMPDEST SWAP3 SWAP2 POP POP JUMP JUMPDEST PUSH1 0x0 PUSH1 0x40 DUP3 ADD SWAP1 POP PUSH2 0xF60 PUSH1 0x0 DUP4 ADD DUP6 PUSH2 0xDEB JUMP JUMPDEST PUSH2 0xF6D PUSH1 0x20 DUP4 ADD DUP5 PUSH2 0xDEB JUMP JUMPDEST SWAP4 SWAP3 POP POP POP JUMP JUMPDEST PUSH1 0x0 DUP3 DUP3 MSTORE PUSH1 0x20 DUP3 ADD SWAP1 POP SWAP3 SWAP2 POP POP JUMP JUMPDEST PUSH1 0x0 PUSH2 0xF90 DUP3 PUSH2 0x10D8 JUMP JUMPDEST SWAP2 POP PUSH2 0xF9B DUP4 PUSH2 0x10D8 JUMP JUMPDEST SWAP3 POP DUP3 PUSH32 0xFFFFFFFFFFFFFFFFFFFFFFFFFFFFFFFFFFFFFFFFFFFFFFFFFFFFFFFFFFFFFFFF SUB DUP3 GT ISZERO PUSH2 0xFD0 JUMPI PUSH2 0xFCF PUSH2 0x112B JUMP JUMPDEST JUMPDEST DUP3 DUP3 ADD SWAP1 POP SWAP3 SWAP2 POP POP JUMP JUMPDEST PUSH1 0x0 PUSH2 0xFE6 DUP3 PUSH2 0x10D8 JUMP JUMPDEST SWAP2 POP PUSH2 0xFF1 DUP4 PUSH2 0x10D8 JUMP JUMPDEST SWAP3 POP DUP3 PUSH2 0x1001 JUMPI PUSH2 0x1000 PUSH2 0x115A JUMP JUMPDEST JUMPDEST DUP3 DUP3 DIV SWAP1 POP SWAP3 SWAP2 POP POP JUMP JUMPDEST PUSH1 0x0 PUSH2 0x1017 DUP3 PUSH2 0x10D8 JUMP JUMPDEST SWAP2 POP PUSH2 0x1022 DUP4 PUSH2 0x10D8 JUMP JUMPDEST SWAP3 POP DUP2 PUSH32 0xFFFFFFFFFFFFFFFFFFFFFFFFFFFFFFFFFFFFFFFFFFFFFFFFFFFFFFFFFFFFFFFF DIV DUP4 GT DUP3 ISZERO ISZERO AND ISZERO PUSH2 0x105B JUMPI PUSH2 0x105A PUSH2 0x112B JUMP JUMPDEST JUMPDEST DUP3 DUP3 MUL SWAP1 POP SWAP3 SWAP2 POP POP JUMP JUMPDEST PUSH1 0x0 PUSH2 0x1071 DUP3 PUSH2 0x10D8 JUMP JUMPDEST SWAP2 POP PUSH2 0x107C DUP4 PUSH2 0x10D8 JUMP JUMPDEST SWAP3 POP DUP3 DUP3 LT ISZERO PUSH2 0x108F JUMPI PUSH2 0x108E PUSH2 0x112B JUMP JUMPDEST JUMPDEST DUP3 DUP3 SUB SWAP1 POP SWAP3 SWAP2 POP POP JUMP JUMPDEST PUSH1 0x0 PUSH2 0x10A5 DUP3 PUSH2 0x10B8 JUMP JUMPDEST SWAP1 POP SWAP2 SWAP1 POP JUMP JUMPDEST PUSH1 0x0 DUP2 ISZERO ISZERO SWAP1 POP SWAP2 SWAP1 POP JUMP JUMPDEST PUSH1 0x0 PUSH20 0xFFFFFFFFFFFFFFFFFFFFFFFFFFFFFFFFFFFFFFFF DUP3 AND SWAP1 POP SWAP2 SWAP1 POP JUMP JUMPDEST PUSH1 0x0 DUP2 SWAP1 POP SWAP2 SWAP1 POP JUMP JUMPDEST PUSH1 0x0 PUSH2 0x10ED DUP3 PUSH2 0x10D8 JUMP JUMPDEST SWAP2 POP PUSH32 0xFFFFFFFFFFFFFFFFFFFFFFFFFFFFFFFFFFFFFFFFFFFFFFFFFFFFFFFFFFFFFFFF DUP3 EQ ISZERO PUSH2 0x1120 JUMPI PUSH2 0x111F PUSH2 0x112B JUMP JUMPDEST JUMPDEST PUSH1 0x1 DUP3 ADD SWAP1 POP SWAP2 SWAP1 POP JUMP JUMPDEST PUSH32 0x4E487B7100000000000000000000000000000000000000000000000000000000 PUSH1 0x0 MSTORE PUSH1 0x11 PUSH1 0x4 MSTORE PUSH1 0x24 PUSH1 0x0 REVERT JUMPDEST PUSH32 0x4E487B7100000000000000000000000000000000000000000000000000000000 PUSH1 0x0 MSTORE PUSH1 0x12 PUSH1 0x4 MSTORE PUSH1 0x24 PUSH1 0x0 REVERT JUMPDEST PUSH32 0x4E487B7100000000000000000000000000000000000000000000000000000000 PUSH1 0x0 MSTORE PUSH1 0x32 PUSH1 0x4 MSTORE PUSH1 0x24 PUSH1 0x0 REVERT JUMPDEST PUSH1 0x0 DUP1 REVERT JUMPDEST PUSH32 0x63616C6C6572206D75737420626520746865206F776E65720000000000000000 PUSH1 0x0 DUP3 ADD MSTORE POP JUMP JUMPDEST PUSH32 0x596F7520617265206E6F7420746865206F776E65720000000000000000000000 PUSH1 0x0 DUP3 ADD MSTORE POP JUMP JUMPDEST PUSH32 0x4F6E6C79206F776E65722063616E2070617573652074686520636F6E74726163 PUSH1 0x0 DUP3 ADD MSTORE PUSH32 0x7400000000000000000000000000000000000000000000000000000000000000 PUSH1 0x20 DUP3 ADD MSTORE POP JUMP JUMPDEST PUSH32 0x66756E64732063616E6E6F74206265206C657373207468616E20300000000000 PUSH1 0x0 DUP3 ADD MSTORE POP JUMP JUMPDEST PUSH32 0x616D6F756E742063616E6E6F7420626520300000000000000000000000000000 PUSH1 0x0 DUP3 ADD MSTORE POP JUMP JUMPDEST PUSH32 0x5573657220426C6F636B65642100000000000000000000000000000000000000 PUSH1 0x0 DUP3 ADD MSTORE POP JUMP JUMPDEST PUSH32 0x4F6E6C79206F776E65722063616E20626C6F636B207468652075736572000000 PUSH1 0x0 DUP3 ADD MSTORE POP JUMP JUMPDEST PUSH32 0x436F6E7472616374205061757365640000000000000000000000000000000000 PUSH1 0x0 DUP3 ADD MSTORE POP JUMP JUMPDEST PUSH2 0x1334 DUP2 PUSH2 0x109A JUMP JUMPDEST DUP2 EQ PUSH2 0x133F JUMPI PUSH1 0x0 DUP1 REVERT JUMPDEST POP JUMP JUMPDEST PUSH2 0x134B DUP2 PUSH2 0x10AC JUMP JUMPDEST DUP2 EQ PUSH2 0x1356 JUMPI PUSH1 0x0 DUP1 REVERT JUMPDEST POP JUMP JUMPDEST PUSH2 0x1362 DUP2 PUSH2 0x10D8 JUMP JUMPDEST DUP2 EQ PUSH2 0x136D JUMPI PUSH1 0x0 DUP1 REVERT JUMPDEST POP JUMP INVALID LOG2 PUSH5 0x6970667358 0x22 SLT KECCAK256 0xEE CALLER PUSH18 0x179C80CE764349CB4731DCA5F16F56BAE0A6 0xEA STATICCALL COINBASE DUP7 DUP6 EXTCODEHASH 0xE2 SLT NUMBER 0xDF SLOAD PUSH5 0x736F6C6343 STOP ADDMOD SMOD STOP CALLER "
				},
				"gasEstimates": {
					"creation": {
						"codeDepositCost": "1006000",
						"executionCost": "25313",
						"totalCost": "1031313"
					},
					"external": {
						"blockUser()": "2545",
						"depositTax()": "infinite",
						"funds(address,uint256)": "infinite",
						"hasStaked(address)": "2889",
						"isStaking(address)": "2868",
						"issueRewards()": "infinite",
						"owner()": "2600",
						"pauseContract()": "4844",
						"paused()": "2610",
						"reward()": "2519",
						"setBlockUser(bool)": "26941",
						"setPaused(bool)": "26942",
						"stakeToken()": "168243",
						"treasuryWallet()": "2474",
						"unstakeToken()": "infinite",
						"withdrawTax()": "infinite"
					}
				},
				"methodIdentifiers": {
					"blockUser()": "021a89ad",
					"depositTax()": "f765fd8f",
					"funds(address,uint256)": "88b22c24",
					"hasStaked(address)": "c93c8f34",
					"isStaking(address)": "6f49712b",
					"issueRewards()": "b0370e0c",
					"owner()": "8da5cb5b",
					"pauseContract()": "439766ce",
					"paused()": "5c975abb",
					"reward()": "228cb733",
					"setBlockUser(bool)": "75c96c5d",
					"setPaused(bool)": "16c38b3c",
					"stakeToken()": "51ed6a30",
					"treasuryWallet()": "4626402b",
					"unstakeToken()": "20eb640c",
					"withdrawTax()": "dfa20f0a"
				}
			},
			"storageLayout": {
				"storage": [
					{
						"astId": 3,
						"contract": "contracts/staking.sol:App",
						"label": "owner",
						"offset": 0,
						"slot": "0",
						"type": "t_address"
					},
					{
						"astId": 5,
						"contract": "contracts/staking.sol:App",
						"label": "paused",
						"offset": 20,
						"slot": "0",
						"type": "t_bool"
					},
					{
						"astId": 7,
						"contract": "contracts/staking.sol:App",
						"label": "blockUser",
						"offset": 21,
						"slot": "0",
						"type": "t_bool"
					},
					{
						"astId": 9,
						"contract": "contracts/staking.sol:App",
						"label": "treasuryWallet",
						"offset": 0,
						"slot": "1",
						"type": "t_uint256"
					},
					{
						"astId": 17,
						"contract": "contracts/staking.sol:App",
						"label": "userFunds",
						"offset": 0,
						"slot": "2",
						"type": "t_struct(Stakers)14_storage"
					},
					{
						"astId": 23,
						"contract": "contracts/staking.sol:App",
						"label": "funds",
						"offset": 0,
						"slot": "4",
						"type": "t_mapping(t_address,t_array(t_struct(Stakers)14_storage)dyn_storage)"
					},
					{
						"astId": 27,
						"contract": "contracts/staking.sol:App",
						"label": "hasStaked",
						"offset": 0,
						"slot": "5",
						"type": "t_mapping(t_address,t_bool)"
					},
					{
						"astId": 31,
						"contract": "contracts/staking.sol:App",
						"label": "isStaking",
						"offset": 0,
						"slot": "6",
						"type": "t_mapping(t_address,t_bool)"
					},
					{
						"astId": 129,
						"contract": "contracts/staking.sol:App",
						"label": "reward",
						"offset": 0,
						"slot": "7",
						"type": "t_uint256"
					}
				],
				"types": {
					"t_address": {
						"encoding": "inplace",
						"label": "address",
						"numberOfBytes": "20"
					},
					"t_array(t_struct(Stakers)14_storage)dyn_storage": {
						"base": "t_struct(Stakers)14_storage",
						"encoding": "dynamic_array",
						"label": "struct App.Stakers[]",
						"numberOfBytes": "32"
					},
					"t_bool": {
						"encoding": "inplace",
						"label": "bool",
						"numberOfBytes": "1"
					},
					"t_mapping(t_address,t_array(t_struct(Stakers)14_storage)dyn_storage)": {
						"encoding": "mapping",
						"key": "t_address",
						"label": "mapping(address => struct App.Stakers[])",
						"numberOfBytes": "32",
						"value": "t_array(t_struct(Stakers)14_storage)dyn_storage"
					},
					"t_mapping(t_address,t_bool)": {
						"encoding": "mapping",
						"key": "t_address",
						"label": "mapping(address => bool)",
						"numberOfBytes": "32",
						"value": "t_bool"
					},
					"t_struct(Stakers)14_storage": {
						"encoding": "inplace",
						"label": "struct App.Stakers",
						"members": [
							{
								"astId": 11,
								"contract": "contracts/staking.sol:App",
								"label": "amount",
								"offset": 0,
								"slot": "0",
								"type": "t_uint256"
							},
							{
								"astId": 13,
								"contract": "contracts/staking.sol:App",
								"label": "since",
								"offset": 0,
								"slot": "1",
								"type": "t_uint256"
							}
						],
						"numberOfBytes": "64"
					},
					"t_uint256": {
						"encoding": "inplace",
						"label": "uint256",
						"numberOfBytes": "32"
					}
				}
			},
			"userdoc": {
				"kind": "user",
				"methods": {},
				"version": 1
			}
		}
	}
}