{
	"contracts/staking.sol": {
		"App": {
			"abi": [
				{
					"inputs": [],
					"stateMutability": "nonpayable",
					"type": "constructor"
				},
				{
					"inputs": [],
					"name": "depositTax",
					"outputs": [],
					"stateMutability": "nonpayable",
					"type": "function"
				},
				{
					"inputs": [
						{
							"internalType": "address",
							"name": "",
							"type": "address"
						}
					],
					"name": "hasStaked",
					"outputs": [
						{
							"internalType": "bool",
							"name": "",
							"type": "bool"
						}
					],
					"stateMutability": "view",
					"type": "function"
				},
				{
					"inputs": [
						{
							"internalType": "address",
							"name": "",
							"type": "address"
						}
					],
					"name": "isStaking",
					"outputs": [
						{
							"internalType": "bool",
							"name": "",
							"type": "bool"
						}
					],
					"stateMutability": "view",
					"type": "function"
				},
				{
					"inputs": [],
					"name": "issueRewards",
					"outputs": [
						{
							"internalType": "uint256",
							"name": "",
							"type": "uint256"
						}
					],
					"stateMutability": "view",
					"type": "function"
				},
				{
					"inputs": [],
					"name": "owner",
					"outputs": [
						{
							"internalType": "address",
							"name": "",
							"type": "address"
						}
					],
					"stateMutability": "view",
					"type": "function"
				},
				{
					"inputs": [],
					"name": "pauseContract",
					"outputs": [],
					"stateMutability": "view",
					"type": "function"
				},
				{
					"inputs": [],
					"name": "paused",
					"outputs": [
						{
							"internalType": "bool",
							"name": "",
							"type": "bool"
						}
					],
					"stateMutability": "view",
					"type": "function"
				},
				{
					"inputs": [
						{
							"internalType": "bool",
							"name": "_paused",
							"type": "bool"
						}
					],
					"name": "setPaused",
					"outputs": [],
					"stateMutability": "nonpayable",
					"type": "function"
				},
				{
					"inputs": [
						{
							"internalType": "uint256",
							"name": "_amount",
							"type": "uint256"
						}
					],
					"name": "stakeToken",
					"outputs": [],
					"stateMutability": "nonpayable",
					"type": "function"
				},
				{
					"inputs": [
						{
							"internalType": "uint256",
							"name": "",
							"type": "uint256"
						}
					],
					"name": "stakers",
					"outputs": [
						{
							"internalType": "address",
							"name": "",
							"type": "address"
						}
					],
					"stateMutability": "view",
					"type": "function"
				},
				{
					"inputs": [
						{
							"internalType": "address",
							"name": "",
							"type": "address"
						}
					],
					"name": "stakingBalance",
					"outputs": [
						{
							"internalType": "uint256",
							"name": "",
							"type": "uint256"
						}
					],
					"stateMutability": "view",
					"type": "function"
				},
				{
					"inputs": [],
					"name": "treasuryWallet",
					"outputs": [
						{
							"internalType": "uint256",
							"name": "",
							"type": "uint256"
						}
					],
					"stateMutability": "view",
					"type": "function"
				},
				{
					"inputs": [],
					"name": "treasuryWalletResult",
					"outputs": [
						{
							"internalType": "uint256",
							"name": "",
							"type": "uint256"
						}
					],
					"stateMutability": "view",
					"type": "function"
				},
				{
					"inputs": [],
					"name": "unstakeToken",
					"outputs": [],
					"stateMutability": "nonpayable",
					"type": "function"
				},
				{
					"inputs": [],
					"name": "withdrawTax",
					"outputs": [],
					"stateMutability": "nonpayable",
					"type": "function"
				}
			],
			"devdoc": {
				"kind": "dev",
				"methods": {},
				"version": 1
			},
			"evm": {
				"assembly": "    /* \"contracts/staking.sol\":68:2293  contract App{\r... */\n  mstore(0x40, 0x80)\n    /* \"contracts/staking.sol\":358:415  constructor() public{\r... */\n  callvalue\n  dup1\n  iszero\n  tag_1\n  jumpi\n  0x00\n  dup1\n  revert\ntag_1:\n  pop\n    /* \"contracts/staking.sol\":397:407  msg.sender */\n  caller\n    /* \"contracts/staking.sol\":389:394  owner */\n  0x00\n  dup1\n    /* \"contracts/staking.sol\":389:407  owner = msg.sender */\n  0x0100\n  exp\n  dup2\n  sload\n  dup2\n  0xffffffffffffffffffffffffffffffffffffffff\n  mul\n  not\n  and\n  swap1\n  dup4\n  0xffffffffffffffffffffffffffffffffffffffff\n  and\n  mul\n  or\n  swap1\n  sstore\n  pop\n    /* \"contracts/staking.sol\":68:2293  contract App{\r... */\n  dataSize(sub_0)\n  dup1\n  dataOffset(sub_0)\n  0x00\n  codecopy\n  0x00\n  return\nstop\n\nsub_0: assembly {\n        /* \"contracts/staking.sol\":68:2293  contract App{\r... */\n      mstore(0x40, 0x80)\n      callvalue\n      dup1\n      iszero\n      tag_1\n      jumpi\n      0x00\n      dup1\n      revert\n    tag_1:\n      pop\n      jumpi(tag_2, lt(calldatasize, 0x04))\n      shr(0xe0, calldataload(0x00))\n      dup1\n      0x8da5cb5b\n      gt\n      tag_18\n      jumpi\n      dup1\n      0xcdfcecc2\n      gt\n      tag_19\n      jumpi\n      dup1\n      0xcdfcecc2\n      eq\n      tag_14\n      jumpi\n      dup1\n      0xdfa20f0a\n      eq\n      tag_15\n      jumpi\n      dup1\n      0xf765fd8f\n      eq\n      tag_16\n      jumpi\n      dup1\n      0xfd5e6dd1\n      eq\n      tag_17\n      jumpi\n      jump(tag_2)\n    tag_19:\n      dup1\n      0x8da5cb5b\n      eq\n      tag_10\n      jumpi\n      dup1\n      0xb0370e0c\n      eq\n      tag_11\n      jumpi\n      dup1\n      0xc93c8f34\n      eq\n      tag_12\n      jumpi\n      dup1\n      0xcda6b847\n      eq\n      tag_13\n      jumpi\n      jump(tag_2)\n    tag_18:\n      dup1\n      0x45bc78ab\n      gt\n      tag_20\n      jumpi\n      dup1\n      0x45bc78ab\n      eq\n      tag_6\n      jumpi\n      dup1\n      0x4626402b\n      eq\n      tag_7\n      jumpi\n      dup1\n      0x5c975abb\n      eq\n      tag_8\n      jumpi\n      dup1\n      0x6f49712b\n      eq\n      tag_9\n      jumpi\n      jump(tag_2)\n    tag_20:\n      dup1\n      0x16c38b3c\n      eq\n      tag_3\n      jumpi\n      dup1\n      0x20eb640c\n      eq\n      tag_4\n      jumpi\n      dup1\n      0x439766ce\n      eq\n      tag_5\n      jumpi\n    tag_2:\n      0x00\n      dup1\n      revert\n        /* \"contracts/staking.sol\":1526:1665  function setPaused(bool _paused) public {\r... */\n    tag_3:\n      tag_21\n      0x04\n      dup1\n      calldatasize\n      sub\n      dup2\n      add\n      swap1\n      tag_22\n      swap2\n      swap1\n      tag_23\n      jump\t// in\n    tag_22:\n      tag_24\n      jump\t// in\n    tag_21:\n      stop\n        /* \"contracts/staking.sol\":768:1124  function unstakeToken() public{\r... */\n    tag_4:\n      tag_25\n      tag_26\n      jump\t// in\n    tag_25:\n      stop\n        /* \"contracts/staking.sol\":1673:1857  function pauseContract() public view{\r... */\n    tag_5:\n      tag_27\n      tag_28\n      jump\t// in\n    tag_27:\n      stop\n        /* \"contracts/staking.sol\":207:253  mapping(address => uint) public stakingBalance */\n    tag_6:\n      tag_29\n      0x04\n      dup1\n      calldatasize\n      sub\n      dup2\n      add\n      swap1\n      tag_30\n      swap2\n      swap1\n      tag_31\n      jump\t// in\n    tag_30:\n      tag_32\n      jump\t// in\n    tag_29:\n      mload(0x40)\n      tag_33\n      swap2\n      swap1\n      tag_34\n      jump\t// in\n    tag_33:\n      mload(0x40)\n      dup1\n      swap2\n      sub\n      swap1\n      return\n        /* \"contracts/staking.sol\":139:165  uint public treasuryWallet */\n    tag_7:\n      tag_35\n      tag_36\n      jump\t// in\n    tag_35:\n      mload(0x40)\n      tag_37\n      swap2\n      swap1\n      tag_34\n      jump\t// in\n    tag_37:\n      mload(0x40)\n      dup1\n      swap2\n      sub\n      swap1\n      return\n        /* \"contracts/staking.sol\":114:132  bool public paused */\n    tag_8:\n      tag_38\n      tag_39\n      jump\t// in\n    tag_38:\n      mload(0x40)\n      tag_40\n      swap2\n      swap1\n      tag_41\n      jump\t// in\n    tag_40:\n      mload(0x40)\n      dup1\n      swap2\n      sub\n      swap1\n      return\n        /* \"contracts/staking.sol\":308:349  mapping(address => bool) public isStaking */\n    tag_9:\n      tag_42\n      0x04\n      dup1\n      calldatasize\n      sub\n      dup2\n      add\n      swap1\n      tag_43\n      swap2\n      swap1\n      tag_31\n      jump\t// in\n    tag_43:\n      tag_44\n      jump\t// in\n    tag_42:\n      mload(0x40)\n      tag_45\n      swap2\n      swap1\n      tag_41\n      jump\t// in\n    tag_45:\n      mload(0x40)\n      dup1\n      swap2\n      sub\n      swap1\n      return\n        /* \"contracts/staking.sol\":87:107  address public owner */\n    tag_10:\n      tag_46\n      tag_47\n      jump\t// in\n    tag_46:\n      mload(0x40)\n      tag_48\n      swap2\n      swap1\n      tag_49\n      jump\t// in\n    tag_48:\n      mload(0x40)\n      dup1\n      swap2\n      sub\n      swap1\n      return\n        /* \"contracts/staking.sol\":1132:1518  function issueRewards() public view returns(uint){\r... */\n    tag_11:\n      tag_50\n      tag_51\n      jump\t// in\n    tag_50:\n      mload(0x40)\n      tag_52\n      swap2\n      swap1\n      tag_34\n      jump\t// in\n    tag_52:\n      mload(0x40)\n      dup1\n      swap2\n      sub\n      swap1\n      return\n        /* \"contracts/staking.sol\":260:301  mapping(address => bool) public hasStaked */\n    tag_12:\n      tag_53\n      0x04\n      dup1\n      calldatasize\n      sub\n      dup2\n      add\n      swap1\n      tag_54\n      swap2\n      swap1\n      tag_31\n      jump\t// in\n    tag_54:\n      tag_55\n      jump\t// in\n    tag_53:\n      mload(0x40)\n      tag_56\n      swap2\n      swap1\n      tag_41\n      jump\t// in\n    tag_56:\n      mload(0x40)\n      dup1\n      swap2\n      sub\n      swap1\n      return\n        /* \"contracts/staking.sol\":425:760  function stakeToken(uint _amount) public {\r... */\n    tag_13:\n      tag_57\n      0x04\n      dup1\n      calldatasize\n      sub\n      dup2\n      add\n      swap1\n      tag_58\n      swap2\n      swap1\n      tag_59\n      jump\t// in\n    tag_58:\n      tag_60\n      jump\t// in\n    tag_57:\n      stop\n        /* \"contracts/staking.sol\":2190:2287  function treasuryWalletResult() public view returns(uint){\r... */\n    tag_14:\n      tag_61\n      tag_62\n      jump\t// in\n    tag_61:\n      mload(0x40)\n      tag_63\n      swap2\n      swap1\n      tag_34\n      jump\t// in\n    tag_63:\n      mload(0x40)\n      dup1\n      swap2\n      sub\n      swap1\n      return\n        /* \"contracts/staking.sol\":2027:2182  function withdrawTax() public{\r... */\n    tag_15:\n      tag_64\n      tag_65\n      jump\t// in\n    tag_64:\n      stop\n        /* \"contracts/staking.sol\":1865:2019  function depositTax() public{\r... */\n    tag_16:\n      tag_66\n      tag_67\n      jump\t// in\n    tag_66:\n      stop\n        /* \"contracts/staking.sol\":174:198  address[] public stakers */\n    tag_17:\n      tag_68\n      0x04\n      dup1\n      calldatasize\n      sub\n      dup2\n      add\n      swap1\n      tag_69\n      swap2\n      swap1\n      tag_59\n      jump\t// in\n    tag_69:\n      tag_70\n      jump\t// in\n    tag_68:\n      mload(0x40)\n      tag_71\n      swap2\n      swap1\n      tag_49\n      jump\t// in\n    tag_71:\n      mload(0x40)\n      dup1\n      swap2\n      sub\n      swap1\n      return\n        /* \"contracts/staking.sol\":1526:1665  function setPaused(bool _paused) public {\r... */\n    tag_24:\n        /* \"contracts/staking.sol\":1599:1604  owner */\n      0x00\n      dup1\n      sload\n      swap1\n      0x0100\n      exp\n      swap1\n      div\n      0xffffffffffffffffffffffffffffffffffffffff\n      and\n        /* \"contracts/staking.sol\":1585:1604  msg.sender == owner */\n      0xffffffffffffffffffffffffffffffffffffffff\n      and\n        /* \"contracts/staking.sol\":1585:1595  msg.sender */\n      caller\n        /* \"contracts/staking.sol\":1585:1604  msg.sender == owner */\n      0xffffffffffffffffffffffffffffffffffffffff\n      and\n      eq\n        /* \"contracts/staking.sol\":1577:1630  require(msg.sender == owner, \"You are not the owner\") */\n      tag_73\n      jumpi\n      mload(0x40)\n      0x08c379a000000000000000000000000000000000000000000000000000000000\n      dup2\n      mstore\n      0x04\n      add\n      tag_74\n      swap1\n      tag_75\n      jump\t// in\n    tag_74:\n      mload(0x40)\n      dup1\n      swap2\n      sub\n      swap1\n      revert\n    tag_73:\n        /* \"contracts/staking.sol\":1650:1657  _paused */\n      dup1\n        /* \"contracts/staking.sol\":1641:1647  paused */\n      0x00\n      0x14\n        /* \"contracts/staking.sol\":1641:1657  paused = _paused */\n      0x0100\n      exp\n      dup2\n      sload\n      dup2\n      0xff\n      mul\n      not\n      and\n      swap1\n      dup4\n      iszero\n      iszero\n      mul\n      or\n      swap1\n      sstore\n      pop\n        /* \"contracts/staking.sol\":1526:1665  function setPaused(bool _paused) public {\r... */\n      pop\n      jump\t// out\n        /* \"contracts/staking.sol\":768:1124  function unstakeToken() public{\r... */\n    tag_26:\n        /* \"contracts/staking.sol\":819:831  uint balance */\n      0x00\n        /* \"contracts/staking.sol\":834:848  stakingBalance */\n      0x03\n        /* \"contracts/staking.sol\":834:860  stakingBalance[msg.sender] */\n      0x00\n        /* \"contracts/staking.sol\":849:859  msg.sender */\n      caller\n        /* \"contracts/staking.sol\":834:860  stakingBalance[msg.sender] */\n      0xffffffffffffffffffffffffffffffffffffffff\n      and\n      0xffffffffffffffffffffffffffffffffffffffff\n      and\n      dup2\n      mstore\n      0x20\n      add\n      swap1\n      dup2\n      mstore\n      0x20\n      add\n      0x00\n      keccak256\n      sload\n        /* \"contracts/staking.sol\":819:860  uint balance = stakingBalance[msg.sender] */\n      swap1\n      pop\n        /* \"contracts/staking.sol\":889:890  0 */\n      0x00\n        /* \"contracts/staking.sol\":879:886  balance */\n      dup2\n        /* \"contracts/staking.sol\":879:890  balance > 0 */\n      gt\n        /* \"contracts/staking.sol\":871:932  require(balance > 0, \"staking Balance cannot be less than 0\") */\n      tag_77\n      jumpi\n      mload(0x40)\n      0x08c379a000000000000000000000000000000000000000000000000000000000\n      dup2\n      mstore\n      0x04\n      add\n      tag_78\n      swap1\n      tag_79\n      jump\t// in\n    tag_78:\n      mload(0x40)\n      dup1\n      swap2\n      sub\n      swap1\n      revert\n    tag_77:\n        /* \"contracts/staking.sol\":974:975  0 */\n      0x00\n        /* \"contracts/staking.sol\":945:959  stakingBalance */\n      0x03\n        /* \"contracts/staking.sol\":945:971  stakingBalance[msg.sender] */\n      0x00\n        /* \"contracts/staking.sol\":960:970  msg.sender */\n      caller\n        /* \"contracts/staking.sol\":945:971  stakingBalance[msg.sender] */\n      0xffffffffffffffffffffffffffffffffffffffff\n      and\n      0xffffffffffffffffffffffffffffffffffffffff\n      and\n      dup2\n      mstore\n      0x20\n      add\n      swap1\n      dup2\n      mstore\n      0x20\n      add\n      0x00\n      keccak256\n        /* \"contracts/staking.sol\":945:975  stakingBalance[msg.sender] = 0 */\n      dup2\n      swap1\n      sstore\n      pop\n        /* \"contracts/staking.sol\":1000:1009  hasStaked */\n      0x04\n        /* \"contracts/staking.sol\":1000:1021  hasStaked[msg.sender] */\n      0x00\n        /* \"contracts/staking.sol\":1010:1020  msg.sender */\n      caller\n        /* \"contracts/staking.sol\":1000:1021  hasStaked[msg.sender] */\n      0xffffffffffffffffffffffffffffffffffffffff\n      and\n      0xffffffffffffffffffffffffffffffffffffffff\n      and\n      dup2\n      mstore\n      0x20\n      add\n      swap1\n      dup2\n      mstore\n      0x20\n      add\n      0x00\n      keccak256\n      0x00\n      swap1\n      sload\n      swap1\n      0x0100\n      exp\n      swap1\n      div\n      0xff\n      and\n        /* \"contracts/staking.sol\":996:1073  if(!hasStaked[msg.sender]){\r... */\n      tag_80\n      jumpi\n        /* \"contracts/staking.sol\":1037:1044  stakers */\n      0x02\n        /* \"contracts/staking.sol\":1050:1060  msg.sender */\n      caller\n        /* \"contracts/staking.sol\":1037:1061  stakers.push(msg.sender) */\n      swap1\n      dup1\n      0x01\n      dup2\n      sload\n      add\n      dup1\n      dup3\n      sstore\n      dup1\n      swap2\n      pop\n      pop\n      0x01\n      swap1\n      sub\n      swap1\n      0x00\n      mstore\n      keccak256(0x00, 0x20)\n      add\n      0x00\n      swap1\n      swap2\n      swap1\n      swap2\n      swap1\n      swap2\n      0x0100\n      exp\n      dup2\n      sload\n      dup2\n      0xffffffffffffffffffffffffffffffffffffffff\n      mul\n      not\n      and\n      swap1\n      dup4\n      0xffffffffffffffffffffffffffffffffffffffff\n      and\n      mul\n      or\n      swap1\n      sstore\n      pop\n        /* \"contracts/staking.sol\":996:1073  if(!hasStaked[msg.sender]){\r... */\n    tag_80:\n        /* \"contracts/staking.sol\":1109:1114  false */\n      0x00\n        /* \"contracts/staking.sol\":1085:1094  isStaking */\n      0x05\n        /* \"contracts/staking.sol\":1085:1106  isStaking[msg.sender] */\n      0x00\n        /* \"contracts/staking.sol\":1095:1105  msg.sender */\n      caller\n        /* \"contracts/staking.sol\":1085:1106  isStaking[msg.sender] */\n      0xffffffffffffffffffffffffffffffffffffffff\n      and\n      0xffffffffffffffffffffffffffffffffffffffff\n      and\n      dup2\n      mstore\n      0x20\n      add\n      swap1\n      dup2\n      mstore\n      0x20\n      add\n      0x00\n      keccak256\n      0x00\n        /* \"contracts/staking.sol\":1085:1114  isStaking[msg.sender] = false */\n      0x0100\n      exp\n      dup2\n      sload\n      dup2\n      0xff\n      mul\n      not\n      and\n      swap1\n      dup4\n      iszero\n      iszero\n      mul\n      or\n      swap1\n      sstore\n      pop\n        /* \"contracts/staking.sol\":798:1124  {\r... */\n      pop\n        /* \"contracts/staking.sol\":768:1124  function unstakeToken() public{\r... */\n      jump\t// out\n        /* \"contracts/staking.sol\":1673:1857  function pauseContract() public view{\r... */\n    tag_28:\n        /* \"contracts/staking.sol\":1742:1747  owner */\n      0x00\n      dup1\n      sload\n      swap1\n      0x0100\n      exp\n      swap1\n      div\n      0xffffffffffffffffffffffffffffffffffffffff\n      and\n        /* \"contracts/staking.sol\":1728:1747  msg.sender == owner */\n      0xffffffffffffffffffffffffffffffffffffffff\n      and\n        /* \"contracts/staking.sol\":1728:1738  msg.sender */\n      caller\n        /* \"contracts/staking.sol\":1728:1747  msg.sender == owner */\n      0xffffffffffffffffffffffffffffffffffffffff\n      and\n      eq\n        /* \"contracts/staking.sol\":1720:1785  require(msg.sender == owner, \"Only owner can pause the contract\") */\n      tag_83\n      jumpi\n      mload(0x40)\n      0x08c379a000000000000000000000000000000000000000000000000000000000\n      dup2\n      mstore\n      0x04\n      add\n      tag_84\n      swap1\n      tag_85\n      jump\t// in\n    tag_84:\n      mload(0x40)\n      dup1\n      swap2\n      sub\n      swap1\n      revert\n    tag_83:\n        /* \"contracts/staking.sol\":1814:1819  false */\n      0x00\n        /* \"contracts/staking.sol\":1804:1819  paused == false */\n      iszero\n      iszero\n        /* \"contracts/staking.sol\":1804:1810  paused */\n      0x00\n      0x14\n      swap1\n      sload\n      swap1\n      0x0100\n      exp\n      swap1\n      div\n      0xff\n      and\n        /* \"contracts/staking.sol\":1804:1819  paused == false */\n      iszero\n      iszero\n      eq\n        /* \"contracts/staking.sol\":1796:1839  require(paused == false, \"Contract Paused\") */\n      tag_86\n      jumpi\n      mload(0x40)\n      0x08c379a000000000000000000000000000000000000000000000000000000000\n      dup2\n      mstore\n      0x04\n      add\n      tag_87\n      swap1\n      tag_88\n      jump\t// in\n    tag_87:\n      mload(0x40)\n      dup1\n      swap2\n      sub\n      swap1\n      revert\n    tag_86:\n        /* \"contracts/staking.sol\":1673:1857  function pauseContract() public view{\r... */\n      jump\t// out\n        /* \"contracts/staking.sol\":207:253  mapping(address => uint) public stakingBalance */\n    tag_32:\n      mstore(0x20, 0x03)\n      dup1\n      0x00\n      mstore\n      keccak256(0x00, 0x40)\n      0x00\n      swap2\n      pop\n      swap1\n      pop\n      sload\n      dup2\n      jump\t// out\n        /* \"contracts/staking.sol\":139:165  uint public treasuryWallet */\n    tag_36:\n      sload(0x01)\n      dup2\n      jump\t// out\n        /* \"contracts/staking.sol\":114:132  bool public paused */\n    tag_39:\n      0x00\n      0x14\n      swap1\n      sload\n      swap1\n      0x0100\n      exp\n      swap1\n      div\n      0xff\n      and\n      dup2\n      jump\t// out\n        /* \"contracts/staking.sol\":308:349  mapping(address => bool) public isStaking */\n    tag_44:\n      mstore(0x20, 0x05)\n      dup1\n      0x00\n      mstore\n      keccak256(0x00, 0x40)\n      0x00\n      swap2\n      pop\n      sload\n      swap1\n      0x0100\n      exp\n      swap1\n      div\n      0xff\n      and\n      dup2\n      jump\t// out\n        /* \"contracts/staking.sol\":87:107  address public owner */\n    tag_47:\n      0x00\n      dup1\n      sload\n      swap1\n      0x0100\n      exp\n      swap1\n      div\n      0xffffffffffffffffffffffffffffffffffffffff\n      and\n      dup2\n      jump\t// out\n        /* \"contracts/staking.sol\":1132:1518  function issueRewards() public view returns(uint){\r... */\n    tag_51:\n        /* \"contracts/staking.sol\":1176:1180  uint */\n      0x00\n        /* \"contracts/staking.sol\":1214:1219  owner */\n      dup1\n      0x00\n      swap1\n      sload\n      swap1\n      0x0100\n      exp\n      swap1\n      div\n      0xffffffffffffffffffffffffffffffffffffffff\n      and\n        /* \"contracts/staking.sol\":1200:1219  msg.sender == owner */\n      0xffffffffffffffffffffffffffffffffffffffff\n      and\n        /* \"contracts/staking.sol\":1200:1210  msg.sender */\n      caller\n        /* \"contracts/staking.sol\":1200:1219  msg.sender == owner */\n      0xffffffffffffffffffffffffffffffffffffffff\n      and\n      eq\n        /* \"contracts/staking.sol\":1192:1248  require(msg.sender == owner, \"caller must be the owner\") */\n      tag_90\n      jumpi\n      mload(0x40)\n      0x08c379a000000000000000000000000000000000000000000000000000000000\n      dup2\n      mstore\n      0x04\n      add\n      tag_91\n      swap1\n      tag_92\n      jump\t// in\n    tag_91:\n      mload(0x40)\n      dup1\n      swap2\n      sub\n      swap1\n      revert\n    tag_90:\n        /* \"contracts/staking.sol\":1274:1280  uint i */\n      0x00\n        /* \"contracts/staking.sol\":1269:1501  for (uint i = 0; i < stakers.length; i++){\r... */\n    tag_93:\n        /* \"contracts/staking.sol\":1290:1297  stakers */\n      0x02\n        /* \"contracts/staking.sol\":1290:1304  stakers.length */\n      dup1\n      sload\n      swap1\n      pop\n        /* \"contracts/staking.sol\":1286:1287  i */\n      dup2\n        /* \"contracts/staking.sol\":1286:1304  i < stakers.length */\n      lt\n        /* \"contracts/staking.sol\":1269:1501  for (uint i = 0; i < stakers.length; i++){\r... */\n      iszero\n      tag_94\n      jumpi\n        /* \"contracts/staking.sol\":1325:1342  address recipient */\n      0x00\n        /* \"contracts/staking.sol\":1345:1352  stakers */\n      0x02\n        /* \"contracts/staking.sol\":1353:1354  i */\n      dup3\n        /* \"contracts/staking.sol\":1345:1355  stakers[i] */\n      dup2\n      sload\n      dup2\n      lt\n      tag_96\n      jumpi\n      tag_97\n      tag_98\n      jump\t// in\n    tag_97:\n    tag_96:\n      swap1\n      0x00\n      mstore\n      keccak256(0x00, 0x20)\n      add\n      0x00\n      swap1\n      sload\n      swap1\n      0x0100\n      exp\n      swap1\n      div\n      0xffffffffffffffffffffffffffffffffffffffff\n      and\n        /* \"contracts/staking.sol\":1325:1355  address recipient = stakers[i] */\n      swap1\n      pop\n        /* \"contracts/staking.sol\":1370:1381  uint reward */\n      0x00\n        /* \"contracts/staking.sol\":1410:1413  100 */\n      0x64\n        /* \"contracts/staking.sol\":1384:1398  stakingBalance */\n      0x03\n        /* \"contracts/staking.sol\":1384:1409  stakingBalance[recipient] */\n      0x00\n        /* \"contracts/staking.sol\":1399:1408  recipient */\n      dup5\n        /* \"contracts/staking.sol\":1384:1409  stakingBalance[recipient] */\n      0xffffffffffffffffffffffffffffffffffffffff\n      and\n      0xffffffffffffffffffffffffffffffffffffffff\n      and\n      dup2\n      mstore\n      0x20\n      add\n      swap1\n      dup2\n      mstore\n      0x20\n      add\n      0x00\n      keccak256\n      sload\n        /* \"contracts/staking.sol\":1384:1413  stakingBalance[recipient]/100 */\n      tag_100\n      swap2\n      swap1\n      tag_101\n      jump\t// in\n    tag_100:\n        /* \"contracts/staking.sol\":1370:1413  uint reward = stakingBalance[recipient]/100 */\n      swap1\n      pop\n        /* \"contracts/staking.sol\":1440:1441  0 */\n      0x00\n        /* \"contracts/staking.sol\":1431:1437  reward */\n      dup2\n        /* \"contracts/staking.sol\":1431:1441  reward > 0 */\n      gt\n        /* \"contracts/staking.sol\":1428:1490  if(reward > 0){\r... */\n      iszero\n      tag_102\n      jumpi\n        /* \"contracts/staking.sol\":1468:1474  reward */\n      dup1\n        /* \"contracts/staking.sol\":1461:1474  return reward */\n      swap4\n      pop\n      pop\n      pop\n      pop\n      jump(tag_89)\n        /* \"contracts/staking.sol\":1428:1490  if(reward > 0){\r... */\n    tag_102:\n        /* \"contracts/staking.sol\":1310:1501  {\r... */\n      pop\n      pop\n        /* \"contracts/staking.sol\":1306:1309  i++ */\n      dup1\n      dup1\n      tag_103\n      swap1\n      tag_104\n      jump\t// in\n    tag_103:\n      swap2\n      pop\n      pop\n        /* \"contracts/staking.sol\":1269:1501  for (uint i = 0; i < stakers.length; i++){\r... */\n      jump(tag_93)\n    tag_94:\n      pop\n        /* \"contracts/staking.sol\":1132:1518  function issueRewards() public view returns(uint){\r... */\n    tag_89:\n      swap1\n      jump\t// out\n        /* \"contracts/staking.sol\":260:301  mapping(address => bool) public hasStaked */\n    tag_55:\n      mstore(0x20, 0x04)\n      dup1\n      0x00\n      mstore\n      keccak256(0x00, 0x40)\n      0x00\n      swap2\n      pop\n      sload\n      swap1\n      0x0100\n      exp\n      swap1\n      div\n      0xff\n      and\n      dup2\n      jump\t// out\n        /* \"contracts/staking.sol\":425:760  function stakeToken(uint _amount) public {\r... */\n    tag_60:\n        /* \"contracts/staking.sol\":501:502  0 */\n      0x00\n        /* \"contracts/staking.sol\":491:498  _amount */\n      dup2\n        /* \"contracts/staking.sol\":491:502  _amount > 0 */\n      gt\n        /* \"contracts/staking.sol\":483:525  require(_amount > 0, \"amount cannot be 0\") */\n      tag_106\n      jumpi\n      mload(0x40)\n      0x08c379a000000000000000000000000000000000000000000000000000000000\n      dup2\n      mstore\n      0x04\n      add\n      tag_107\n      swap1\n      tag_108\n      jump\t// in\n    tag_107:\n      mload(0x40)\n      dup1\n      swap2\n      sub\n      swap1\n      revert\n    tag_106:\n        /* \"contracts/staking.sol\":568:575  _amount */\n      dup1\n        /* \"contracts/staking.sol\":538:552  stakingBalance */\n      0x03\n        /* \"contracts/staking.sol\":538:564  stakingBalance[msg.sender] */\n      0x00\n        /* \"contracts/staking.sol\":553:563  msg.sender */\n      caller\n        /* \"contracts/staking.sol\":538:564  stakingBalance[msg.sender] */\n      0xffffffffffffffffffffffffffffffffffffffff\n      and\n      0xffffffffffffffffffffffffffffffffffffffff\n      and\n      dup2\n      mstore\n      0x20\n      add\n      swap1\n      dup2\n      mstore\n      0x20\n      add\n      0x00\n      keccak256\n      0x00\n        /* \"contracts/staking.sol\":538:575  stakingBalance[msg.sender] += _amount */\n      dup3\n      dup3\n      sload\n      tag_109\n      swap2\n      swap1\n      tag_110\n      jump\t// in\n    tag_109:\n      swap3\n      pop\n      pop\n      dup2\n      swap1\n      sstore\n      pop\n        /* \"contracts/staking.sol\":600:609  hasStaked */\n      0x04\n        /* \"contracts/staking.sol\":600:621  hasStaked[msg.sender] */\n      0x00\n        /* \"contracts/staking.sol\":610:620  msg.sender */\n      caller\n        /* \"contracts/staking.sol\":600:621  hasStaked[msg.sender] */\n      0xffffffffffffffffffffffffffffffffffffffff\n      and\n      0xffffffffffffffffffffffffffffffffffffffff\n      and\n      dup2\n      mstore\n      0x20\n      add\n      swap1\n      dup2\n      mstore\n      0x20\n      add\n      0x00\n      keccak256\n      0x00\n      swap1\n      sload\n      swap1\n      0x0100\n      exp\n      swap1\n      div\n      0xff\n      and\n        /* \"contracts/staking.sol\":596:673  if(!hasStaked[msg.sender]){\r... */\n      tag_111\n      jumpi\n        /* \"contracts/staking.sol\":637:644  stakers */\n      0x02\n        /* \"contracts/staking.sol\":650:660  msg.sender */\n      caller\n        /* \"contracts/staking.sol\":637:661  stakers.push(msg.sender) */\n      swap1\n      dup1\n      0x01\n      dup2\n      sload\n      add\n      dup1\n      dup3\n      sstore\n      dup1\n      swap2\n      pop\n      pop\n      0x01\n      swap1\n      sub\n      swap1\n      0x00\n      mstore\n      keccak256(0x00, 0x20)\n      add\n      0x00\n      swap1\n      swap2\n      swap1\n      swap2\n      swap1\n      swap2\n      0x0100\n      exp\n      dup2\n      sload\n      dup2\n      0xffffffffffffffffffffffffffffffffffffffff\n      mul\n      not\n      and\n      swap1\n      dup4\n      0xffffffffffffffffffffffffffffffffffffffff\n      and\n      mul\n      or\n      swap1\n      sstore\n      pop\n        /* \"contracts/staking.sol\":596:673  if(!hasStaked[msg.sender]){\r... */\n    tag_111:\n        /* \"contracts/staking.sol\":709:713  true */\n      0x01\n        /* \"contracts/staking.sol\":685:694  isStaking */\n      0x05\n        /* \"contracts/staking.sol\":685:706  isStaking[msg.sender] */\n      0x00\n        /* \"contracts/staking.sol\":695:705  msg.sender */\n      caller\n        /* \"contracts/staking.sol\":685:706  isStaking[msg.sender] */\n      0xffffffffffffffffffffffffffffffffffffffff\n      and\n      0xffffffffffffffffffffffffffffffffffffffff\n      and\n      dup2\n      mstore\n      0x20\n      add\n      swap1\n      dup2\n      mstore\n      0x20\n      add\n      0x00\n      keccak256\n      0x00\n        /* \"contracts/staking.sol\":685:713  isStaking[msg.sender] = true */\n      0x0100\n      exp\n      dup2\n      sload\n      dup2\n      0xff\n      mul\n      not\n      and\n      swap1\n      dup4\n      iszero\n      iszero\n      mul\n      or\n      swap1\n      sstore\n      pop\n        /* \"contracts/staking.sol\":748:752  true */\n      0x01\n        /* \"contracts/staking.sol\":724:733  hasStaked */\n      0x04\n        /* \"contracts/staking.sol\":724:745  hasStaked[msg.sender] */\n      0x00\n        /* \"contracts/staking.sol\":734:744  msg.sender */\n      caller\n        /* \"contracts/staking.sol\":724:745  hasStaked[msg.sender] */\n      0xffffffffffffffffffffffffffffffffffffffff\n      and\n      0xffffffffffffffffffffffffffffffffffffffff\n      and\n      dup2\n      mstore\n      0x20\n      add\n      swap1\n      dup2\n      mstore\n      0x20\n      add\n      0x00\n      keccak256\n      0x00\n        /* \"contracts/staking.sol\":724:752  hasStaked[msg.sender] = true */\n      0x0100\n      exp\n      dup2\n      sload\n      dup2\n      0xff\n      mul\n      not\n      and\n      swap1\n      dup4\n      iszero\n      iszero\n      mul\n      or\n      swap1\n      sstore\n      pop\n        /* \"contracts/staking.sol\":425:760  function stakeToken(uint _amount) public {\r... */\n      pop\n      jump\t// out\n        /* \"contracts/staking.sol\":2190:2287  function treasuryWalletResult() public view returns(uint){\r... */\n    tag_62:\n        /* \"contracts/staking.sol\":2242:2246  uint */\n      0x00\n        /* \"contracts/staking.sol\":2265:2279  treasuryWallet */\n      sload(0x01)\n        /* \"contracts/staking.sol\":2258:2279  return treasuryWallet */\n      swap1\n      pop\n        /* \"contracts/staking.sol\":2190:2287  function treasuryWalletResult() public view returns(uint){\r... */\n      swap1\n      jump\t// out\n        /* \"contracts/staking.sol\":2027:2182  function withdrawTax() public{\r... */\n    tag_65:\n        /* \"contracts/staking.sol\":2067:2075  uint tax */\n      0x00\n        /* \"contracts/staking.sol\":2111:2114  100 */\n      0x64\n        /* \"contracts/staking.sol\":2107:2108  5 */\n      0x05\n        /* \"contracts/staking.sol\":2078:2092  stakingBalance */\n      0x03\n        /* \"contracts/staking.sol\":2078:2104  stakingBalance[msg.sender] */\n      0x00\n        /* \"contracts/staking.sol\":2093:2103  msg.sender */\n      caller\n        /* \"contracts/staking.sol\":2078:2104  stakingBalance[msg.sender] */\n      0xffffffffffffffffffffffffffffffffffffffff\n      and\n      0xffffffffffffffffffffffffffffffffffffffff\n      and\n      dup2\n      mstore\n      0x20\n      add\n      swap1\n      dup2\n      mstore\n      0x20\n      add\n      0x00\n      keccak256\n      sload\n        /* \"contracts/staking.sol\":2078:2108  stakingBalance[msg.sender] * 5 */\n      tag_115\n      swap2\n      swap1\n      tag_116\n      jump\t// in\n    tag_115:\n        /* \"contracts/staking.sol\":2078:2114  stakingBalance[msg.sender] * 5 / 100 */\n      tag_117\n      swap2\n      swap1\n      tag_101\n      jump\t// in\n    tag_117:\n        /* \"contracts/staking.sol\":2067:2114  uint tax = stakingBalance[msg.sender] * 5 / 100 */\n      swap1\n      pop\n        /* \"contracts/staking.sol\":2171:2174  tax */\n      dup1\n        /* \"contracts/staking.sol\":2142:2156  stakingBalance */\n      0x03\n        /* \"contracts/staking.sol\":2142:2168  stakingBalance[msg.sender] */\n      0x00\n        /* \"contracts/staking.sol\":2157:2167  msg.sender */\n      caller\n        /* \"contracts/staking.sol\":2142:2168  stakingBalance[msg.sender] */\n      0xffffffffffffffffffffffffffffffffffffffff\n      and\n      0xffffffffffffffffffffffffffffffffffffffff\n      and\n      dup2\n      mstore\n      0x20\n      add\n      swap1\n      dup2\n      mstore\n      0x20\n      add\n      0x00\n      keccak256\n      sload\n        /* \"contracts/staking.sol\":2142:2174  stakingBalance[msg.sender] - tax */\n      tag_118\n      swap2\n      swap1\n      tag_119\n      jump\t// in\n    tag_118:\n        /* \"contracts/staking.sol\":2125:2139  treasuryWallet */\n      0x01\n        /* \"contracts/staking.sol\":2125:2174  treasuryWallet = stakingBalance[msg.sender] - tax */\n      dup2\n      swap1\n      sstore\n      pop\n        /* \"contracts/staking.sol\":2056:2182  {\r... */\n      pop\n        /* \"contracts/staking.sol\":2027:2182  function withdrawTax() public{\r... */\n      jump\t// out\n        /* \"contracts/staking.sol\":1865:2019  function depositTax() public{\r... */\n    tag_67:\n        /* \"contracts/staking.sol\":1904:1912  uint tax */\n      0x00\n        /* \"contracts/staking.sol\":1948:1951  100 */\n      0x64\n        /* \"contracts/staking.sol\":1944:1945  5 */\n      0x05\n        /* \"contracts/staking.sol\":1915:1929  stakingBalance */\n      0x03\n        /* \"contracts/staking.sol\":1915:1941  stakingBalance[msg.sender] */\n      0x00\n        /* \"contracts/staking.sol\":1930:1940  msg.sender */\n      caller\n        /* \"contracts/staking.sol\":1915:1941  stakingBalance[msg.sender] */\n      0xffffffffffffffffffffffffffffffffffffffff\n      and\n      0xffffffffffffffffffffffffffffffffffffffff\n      and\n      dup2\n      mstore\n      0x20\n      add\n      swap1\n      dup2\n      mstore\n      0x20\n      add\n      0x00\n      keccak256\n      sload\n        /* \"contracts/staking.sol\":1915:1945  stakingBalance[msg.sender] * 5 */\n      tag_121\n      swap2\n      swap1\n      tag_116\n      jump\t// in\n    tag_121:\n        /* \"contracts/staking.sol\":1915:1951  stakingBalance[msg.sender] * 5 / 100 */\n      tag_122\n      swap2\n      swap1\n      tag_101\n      jump\t// in\n    tag_122:\n        /* \"contracts/staking.sol\":1904:1951  uint tax = stakingBalance[msg.sender] * 5 / 100 */\n      swap1\n      pop\n        /* \"contracts/staking.sol\":2008:2011  tax */\n      dup1\n        /* \"contracts/staking.sol\":1979:1993  stakingBalance */\n      0x03\n        /* \"contracts/staking.sol\":1979:2005  stakingBalance[msg.sender] */\n      0x00\n        /* \"contracts/staking.sol\":1994:2004  msg.sender */\n      caller\n        /* \"contracts/staking.sol\":1979:2005  stakingBalance[msg.sender] */\n      0xffffffffffffffffffffffffffffffffffffffff\n      and\n      0xffffffffffffffffffffffffffffffffffffffff\n      and\n      dup2\n      mstore\n      0x20\n      add\n      swap1\n      dup2\n      mstore\n      0x20\n      add\n      0x00\n      keccak256\n      sload\n        /* \"contracts/staking.sol\":1979:2011  stakingBalance[msg.sender] + tax */\n      tag_123\n      swap2\n      swap1\n      tag_110\n      jump\t// in\n    tag_123:\n        /* \"contracts/staking.sol\":1962:1976  treasuryWallet */\n      0x01\n        /* \"contracts/staking.sol\":1962:2011  treasuryWallet = stakingBalance[msg.sender] + tax */\n      dup2\n      swap1\n      sstore\n      pop\n        /* \"contracts/staking.sol\":1893:2019  {\r... */\n      pop\n        /* \"contracts/staking.sol\":1865:2019  function depositTax() public{\r... */\n      jump\t// out\n        /* \"contracts/staking.sol\":174:198  address[] public stakers */\n    tag_70:\n      0x02\n      dup2\n      dup2\n      sload\n      dup2\n      lt\n      tag_124\n      jumpi\n      0x00\n      dup1\n      revert\n    tag_124:\n      swap1\n      0x00\n      mstore\n      keccak256(0x00, 0x20)\n      add\n      0x00\n      swap2\n      pop\n      sload\n      swap1\n      0x0100\n      exp\n      swap1\n      div\n      0xffffffffffffffffffffffffffffffffffffffff\n      and\n      dup2\n      jump\t// out\n        /* \"#utility.yul\":7:146   */\n    tag_127:\n        /* \"#utility.yul\":53:58   */\n      0x00\n        /* \"#utility.yul\":91:97   */\n      dup2\n        /* \"#utility.yul\":78:98   */\n      calldataload\n        /* \"#utility.yul\":69:98   */\n      swap1\n      pop\n        /* \"#utility.yul\":107:140   */\n      tag_129\n        /* \"#utility.yul\":134:139   */\n      dup2\n        /* \"#utility.yul\":107:140   */\n      tag_130\n      jump\t// in\n    tag_129:\n        /* \"#utility.yul\":7:146   */\n      swap3\n      swap2\n      pop\n      pop\n      jump\t// out\n        /* \"#utility.yul\":152:285   */\n    tag_131:\n        /* \"#utility.yul\":195:200   */\n      0x00\n        /* \"#utility.yul\":233:239   */\n      dup2\n        /* \"#utility.yul\":220:240   */\n      calldataload\n        /* \"#utility.yul\":211:240   */\n      swap1\n      pop\n        /* \"#utility.yul\":249:279   */\n      tag_133\n        /* \"#utility.yul\":273:278   */\n      dup2\n        /* \"#utility.yul\":249:279   */\n      tag_134\n      jump\t// in\n    tag_133:\n        /* \"#utility.yul\":152:285   */\n      swap3\n      swap2\n      pop\n      pop\n      jump\t// out\n        /* \"#utility.yul\":291:430   */\n    tag_135:\n        /* \"#utility.yul\":337:342   */\n      0x00\n        /* \"#utility.yul\":375:381   */\n      dup2\n        /* \"#utility.yul\":362:382   */\n      calldataload\n        /* \"#utility.yul\":353:382   */\n      swap1\n      pop\n        /* \"#utility.yul\":391:424   */\n      tag_137\n        /* \"#utility.yul\":418:423   */\n      dup2\n        /* \"#utility.yul\":391:424   */\n      tag_138\n      jump\t// in\n    tag_137:\n        /* \"#utility.yul\":291:430   */\n      swap3\n      swap2\n      pop\n      pop\n      jump\t// out\n        /* \"#utility.yul\":436:765   */\n    tag_31:\n        /* \"#utility.yul\":495:501   */\n      0x00\n        /* \"#utility.yul\":544:546   */\n      0x20\n        /* \"#utility.yul\":532:541   */\n      dup3\n        /* \"#utility.yul\":523:530   */\n      dup5\n        /* \"#utility.yul\":519:542   */\n      sub\n        /* \"#utility.yul\":515:547   */\n      slt\n        /* \"#utility.yul\":512:631   */\n      iszero\n      tag_140\n      jumpi\n        /* \"#utility.yul\":550:629   */\n      tag_141\n      tag_142\n      jump\t// in\n    tag_141:\n        /* \"#utility.yul\":512:631   */\n    tag_140:\n        /* \"#utility.yul\":670:671   */\n      0x00\n        /* \"#utility.yul\":695:748   */\n      tag_143\n        /* \"#utility.yul\":740:747   */\n      dup5\n        /* \"#utility.yul\":731:737   */\n      dup3\n        /* \"#utility.yul\":720:729   */\n      dup6\n        /* \"#utility.yul\":716:738   */\n      add\n        /* \"#utility.yul\":695:748   */\n      tag_127\n      jump\t// in\n    tag_143:\n        /* \"#utility.yul\":685:748   */\n      swap2\n      pop\n        /* \"#utility.yul\":641:758   */\n      pop\n        /* \"#utility.yul\":436:765   */\n      swap3\n      swap2\n      pop\n      pop\n      jump\t// out\n        /* \"#utility.yul\":771:1094   */\n    tag_23:\n        /* \"#utility.yul\":827:833   */\n      0x00\n        /* \"#utility.yul\":876:878   */\n      0x20\n        /* \"#utility.yul\":864:873   */\n      dup3\n        /* \"#utility.yul\":855:862   */\n      dup5\n        /* \"#utility.yul\":851:874   */\n      sub\n        /* \"#utility.yul\":847:879   */\n      slt\n        /* \"#utility.yul\":844:963   */\n      iszero\n      tag_145\n      jumpi\n        /* \"#utility.yul\":882:961   */\n      tag_146\n      tag_142\n      jump\t// in\n    tag_146:\n        /* \"#utility.yul\":844:963   */\n    tag_145:\n        /* \"#utility.yul\":1002:1003   */\n      0x00\n        /* \"#utility.yul\":1027:1077   */\n      tag_147\n        /* \"#utility.yul\":1069:1076   */\n      dup5\n        /* \"#utility.yul\":1060:1066   */\n      dup3\n        /* \"#utility.yul\":1049:1058   */\n      dup6\n        /* \"#utility.yul\":1045:1067   */\n      add\n        /* \"#utility.yul\":1027:1077   */\n      tag_131\n      jump\t// in\n    tag_147:\n        /* \"#utility.yul\":1017:1077   */\n      swap2\n      pop\n        /* \"#utility.yul\":973:1087   */\n      pop\n        /* \"#utility.yul\":771:1094   */\n      swap3\n      swap2\n      pop\n      pop\n      jump\t// out\n        /* \"#utility.yul\":1100:1429   */\n    tag_59:\n        /* \"#utility.yul\":1159:1165   */\n      0x00\n        /* \"#utility.yul\":1208:1210   */\n      0x20\n        /* \"#utility.yul\":1196:1205   */\n      dup3\n        /* \"#utility.yul\":1187:1194   */\n      dup5\n        /* \"#utility.yul\":1183:1206   */\n      sub\n        /* \"#utility.yul\":1179:1211   */\n      slt\n        /* \"#utility.yul\":1176:1295   */\n      iszero\n      tag_149\n      jumpi\n        /* \"#utility.yul\":1214:1293   */\n      tag_150\n      tag_142\n      jump\t// in\n    tag_150:\n        /* \"#utility.yul\":1176:1295   */\n    tag_149:\n        /* \"#utility.yul\":1334:1335   */\n      0x00\n        /* \"#utility.yul\":1359:1412   */\n      tag_151\n        /* \"#utility.yul\":1404:1411   */\n      dup5\n        /* \"#utility.yul\":1395:1401   */\n      dup3\n        /* \"#utility.yul\":1384:1393   */\n      dup6\n        /* \"#utility.yul\":1380:1402   */\n      add\n        /* \"#utility.yul\":1359:1412   */\n      tag_135\n      jump\t// in\n    tag_151:\n        /* \"#utility.yul\":1349:1412   */\n      swap2\n      pop\n        /* \"#utility.yul\":1305:1422   */\n      pop\n        /* \"#utility.yul\":1100:1429   */\n      swap3\n      swap2\n      pop\n      pop\n      jump\t// out\n        /* \"#utility.yul\":1435:1553   */\n    tag_152:\n        /* \"#utility.yul\":1522:1546   */\n      tag_154\n        /* \"#utility.yul\":1540:1545   */\n      dup2\n        /* \"#utility.yul\":1522:1546   */\n      tag_155\n      jump\t// in\n    tag_154:\n        /* \"#utility.yul\":1517:1520   */\n      dup3\n        /* \"#utility.yul\":1510:1547   */\n      mstore\n        /* \"#utility.yul\":1435:1553   */\n      pop\n      pop\n      jump\t// out\n        /* \"#utility.yul\":1559:1668   */\n    tag_156:\n        /* \"#utility.yul\":1640:1661   */\n      tag_158\n        /* \"#utility.yul\":1655:1660   */\n      dup2\n        /* \"#utility.yul\":1640:1661   */\n      tag_159\n      jump\t// in\n    tag_158:\n        /* \"#utility.yul\":1635:1638   */\n      dup3\n        /* \"#utility.yul\":1628:1662   */\n      mstore\n        /* \"#utility.yul\":1559:1668   */\n      pop\n      pop\n      jump\t// out\n        /* \"#utility.yul\":1674:2040   */\n    tag_160:\n        /* \"#utility.yul\":1816:1819   */\n      0x00\n        /* \"#utility.yul\":1837:1904   */\n      tag_162\n        /* \"#utility.yul\":1901:1903   */\n      0x18\n        /* \"#utility.yul\":1896:1899   */\n      dup4\n        /* \"#utility.yul\":1837:1904   */\n      tag_163\n      jump\t// in\n    tag_162:\n        /* \"#utility.yul\":1830:1904   */\n      swap2\n      pop\n        /* \"#utility.yul\":1913:2006   */\n      tag_164\n        /* \"#utility.yul\":2002:2005   */\n      dup3\n        /* \"#utility.yul\":1913:2006   */\n      tag_165\n      jump\t// in\n    tag_164:\n        /* \"#utility.yul\":2031:2033   */\n      0x20\n        /* \"#utility.yul\":2026:2029   */\n      dup3\n        /* \"#utility.yul\":2022:2034   */\n      add\n        /* \"#utility.yul\":2015:2034   */\n      swap1\n      pop\n        /* \"#utility.yul\":1674:2040   */\n      swap2\n      swap1\n      pop\n      jump\t// out\n        /* \"#utility.yul\":2046:2412   */\n    tag_166:\n        /* \"#utility.yul\":2188:2191   */\n      0x00\n        /* \"#utility.yul\":2209:2276   */\n      tag_168\n        /* \"#utility.yul\":2273:2275   */\n      0x15\n        /* \"#utility.yul\":2268:2271   */\n      dup4\n        /* \"#utility.yul\":2209:2276   */\n      tag_163\n      jump\t// in\n    tag_168:\n        /* \"#utility.yul\":2202:2276   */\n      swap2\n      pop\n        /* \"#utility.yul\":2285:2378   */\n      tag_169\n        /* \"#utility.yul\":2374:2377   */\n      dup3\n        /* \"#utility.yul\":2285:2378   */\n      tag_170\n      jump\t// in\n    tag_169:\n        /* \"#utility.yul\":2403:2405   */\n      0x20\n        /* \"#utility.yul\":2398:2401   */\n      dup3\n        /* \"#utility.yul\":2394:2406   */\n      add\n        /* \"#utility.yul\":2387:2406   */\n      swap1\n      pop\n        /* \"#utility.yul\":2046:2412   */\n      swap2\n      swap1\n      pop\n      jump\t// out\n        /* \"#utility.yul\":2418:2784   */\n    tag_171:\n        /* \"#utility.yul\":2560:2563   */\n      0x00\n        /* \"#utility.yul\":2581:2648   */\n      tag_173\n        /* \"#utility.yul\":2645:2647   */\n      0x21\n        /* \"#utility.yul\":2640:2643   */\n      dup4\n        /* \"#utility.yul\":2581:2648   */\n      tag_163\n      jump\t// in\n    tag_173:\n        /* \"#utility.yul\":2574:2648   */\n      swap2\n      pop\n        /* \"#utility.yul\":2657:2750   */\n      tag_174\n        /* \"#utility.yul\":2746:2749   */\n      dup3\n        /* \"#utility.yul\":2657:2750   */\n      tag_175\n      jump\t// in\n    tag_174:\n        /* \"#utility.yul\":2775:2777   */\n      0x40\n        /* \"#utility.yul\":2770:2773   */\n      dup3\n        /* \"#utility.yul\":2766:2778   */\n      add\n        /* \"#utility.yul\":2759:2778   */\n      swap1\n      pop\n        /* \"#utility.yul\":2418:2784   */\n      swap2\n      swap1\n      pop\n      jump\t// out\n        /* \"#utility.yul\":2790:3156   */\n    tag_176:\n        /* \"#utility.yul\":2932:2935   */\n      0x00\n        /* \"#utility.yul\":2953:3020   */\n      tag_178\n        /* \"#utility.yul\":3017:3019   */\n      0x12\n        /* \"#utility.yul\":3012:3015   */\n      dup4\n        /* \"#utility.yul\":2953:3020   */\n      tag_163\n      jump\t// in\n    tag_178:\n        /* \"#utility.yul\":2946:3020   */\n      swap2\n      pop\n        /* \"#utility.yul\":3029:3122   */\n      tag_179\n        /* \"#utility.yul\":3118:3121   */\n      dup3\n        /* \"#utility.yul\":3029:3122   */\n      tag_180\n      jump\t// in\n    tag_179:\n        /* \"#utility.yul\":3147:3149   */\n      0x20\n        /* \"#utility.yul\":3142:3145   */\n      dup3\n        /* \"#utility.yul\":3138:3150   */\n      add\n        /* \"#utility.yul\":3131:3150   */\n      swap1\n      pop\n        /* \"#utility.yul\":2790:3156   */\n      swap2\n      swap1\n      pop\n      jump\t// out\n        /* \"#utility.yul\":3162:3528   */\n    tag_181:\n        /* \"#utility.yul\":3304:3307   */\n      0x00\n        /* \"#utility.yul\":3325:3392   */\n      tag_183\n        /* \"#utility.yul\":3389:3391   */\n      0x0f\n        /* \"#utility.yul\":3384:3387   */\n      dup4\n        /* \"#utility.yul\":3325:3392   */\n      tag_163\n      jump\t// in\n    tag_183:\n        /* \"#utility.yul\":3318:3392   */\n      swap2\n      pop\n        /* \"#utility.yul\":3401:3494   */\n      tag_184\n        /* \"#utility.yul\":3490:3493   */\n      dup3\n        /* \"#utility.yul\":3401:3494   */\n      tag_185\n      jump\t// in\n    tag_184:\n        /* \"#utility.yul\":3519:3521   */\n      0x20\n        /* \"#utility.yul\":3514:3517   */\n      dup3\n        /* \"#utility.yul\":3510:3522   */\n      add\n        /* \"#utility.yul\":3503:3522   */\n      swap1\n      pop\n        /* \"#utility.yul\":3162:3528   */\n      swap2\n      swap1\n      pop\n      jump\t// out\n        /* \"#utility.yul\":3534:3900   */\n    tag_186:\n        /* \"#utility.yul\":3676:3679   */\n      0x00\n        /* \"#utility.yul\":3697:3764   */\n      tag_188\n        /* \"#utility.yul\":3761:3763   */\n      0x25\n        /* \"#utility.yul\":3756:3759   */\n      dup4\n        /* \"#utility.yul\":3697:3764   */\n      tag_163\n      jump\t// in\n    tag_188:\n        /* \"#utility.yul\":3690:3764   */\n      swap2\n      pop\n        /* \"#utility.yul\":3773:3866   */\n      tag_189\n        /* \"#utility.yul\":3862:3865   */\n      dup3\n        /* \"#utility.yul\":3773:3866   */\n      tag_190\n      jump\t// in\n    tag_189:\n        /* \"#utility.yul\":3891:3893   */\n      0x40\n        /* \"#utility.yul\":3886:3889   */\n      dup3\n        /* \"#utility.yul\":3882:3894   */\n      add\n        /* \"#utility.yul\":3875:3894   */\n      swap1\n      pop\n        /* \"#utility.yul\":3534:3900   */\n      swap2\n      swap1\n      pop\n      jump\t// out\n        /* \"#utility.yul\":3906:4024   */\n    tag_191:\n        /* \"#utility.yul\":3993:4017   */\n      tag_193\n        /* \"#utility.yul\":4011:4016   */\n      dup2\n        /* \"#utility.yul\":3993:4017   */\n      tag_194\n      jump\t// in\n    tag_193:\n        /* \"#utility.yul\":3988:3991   */\n      dup3\n        /* \"#utility.yul\":3981:4018   */\n      mstore\n        /* \"#utility.yul\":3906:4024   */\n      pop\n      pop\n      jump\t// out\n        /* \"#utility.yul\":4030:4252   */\n    tag_49:\n        /* \"#utility.yul\":4123:4127   */\n      0x00\n        /* \"#utility.yul\":4161:4163   */\n      0x20\n        /* \"#utility.yul\":4150:4159   */\n      dup3\n        /* \"#utility.yul\":4146:4164   */\n      add\n        /* \"#utility.yul\":4138:4164   */\n      swap1\n      pop\n        /* \"#utility.yul\":4174:4245   */\n      tag_196\n        /* \"#utility.yul\":4242:4243   */\n      0x00\n        /* \"#utility.yul\":4231:4240   */\n      dup4\n        /* \"#utility.yul\":4227:4244   */\n      add\n        /* \"#utility.yul\":4218:4224   */\n      dup5\n        /* \"#utility.yul\":4174:4245   */\n      tag_152\n      jump\t// in\n    tag_196:\n        /* \"#utility.yul\":4030:4252   */\n      swap3\n      swap2\n      pop\n      pop\n      jump\t// out\n        /* \"#utility.yul\":4258:4468   */\n    tag_41:\n        /* \"#utility.yul\":4345:4349   */\n      0x00\n        /* \"#utility.yul\":4383:4385   */\n      0x20\n        /* \"#utility.yul\":4372:4381   */\n      dup3\n        /* \"#utility.yul\":4368:4386   */\n      add\n        /* \"#utility.yul\":4360:4386   */\n      swap1\n      pop\n        /* \"#utility.yul\":4396:4461   */\n      tag_198\n        /* \"#utility.yul\":4458:4459   */\n      0x00\n        /* \"#utility.yul\":4447:4456   */\n      dup4\n        /* \"#utility.yul\":4443:4460   */\n      add\n        /* \"#utility.yul\":4434:4440   */\n      dup5\n        /* \"#utility.yul\":4396:4461   */\n      tag_156\n      jump\t// in\n    tag_198:\n        /* \"#utility.yul\":4258:4468   */\n      swap3\n      swap2\n      pop\n      pop\n      jump\t// out\n        /* \"#utility.yul\":4474:4893   */\n    tag_92:\n        /* \"#utility.yul\":4640:4644   */\n      0x00\n        /* \"#utility.yul\":4678:4680   */\n      0x20\n        /* \"#utility.yul\":4667:4676   */\n      dup3\n        /* \"#utility.yul\":4663:4681   */\n      add\n        /* \"#utility.yul\":4655:4681   */\n      swap1\n      pop\n        /* \"#utility.yul\":4727:4736   */\n      dup2\n        /* \"#utility.yul\":4721:4725   */\n      dup2\n        /* \"#utility.yul\":4717:4737   */\n      sub\n        /* \"#utility.yul\":4713:4714   */\n      0x00\n        /* \"#utility.yul\":4702:4711   */\n      dup4\n        /* \"#utility.yul\":4698:4715   */\n      add\n        /* \"#utility.yul\":4691:4738   */\n      mstore\n        /* \"#utility.yul\":4755:4886   */\n      tag_200\n        /* \"#utility.yul\":4881:4885   */\n      dup2\n        /* \"#utility.yul\":4755:4886   */\n      tag_160\n      jump\t// in\n    tag_200:\n        /* \"#utility.yul\":4747:4886   */\n      swap1\n      pop\n        /* \"#utility.yul\":4474:4893   */\n      swap2\n      swap1\n      pop\n      jump\t// out\n        /* \"#utility.yul\":4899:5318   */\n    tag_75:\n        /* \"#utility.yul\":5065:5069   */\n      0x00\n        /* \"#utility.yul\":5103:5105   */\n      0x20\n        /* \"#utility.yul\":5092:5101   */\n      dup3\n        /* \"#utility.yul\":5088:5106   */\n      add\n        /* \"#utility.yul\":5080:5106   */\n      swap1\n      pop\n        /* \"#utility.yul\":5152:5161   */\n      dup2\n        /* \"#utility.yul\":5146:5150   */\n      dup2\n        /* \"#utility.yul\":5142:5162   */\n      sub\n        /* \"#utility.yul\":5138:5139   */\n      0x00\n        /* \"#utility.yul\":5127:5136   */\n      dup4\n        /* \"#utility.yul\":5123:5140   */\n      add\n        /* \"#utility.yul\":5116:5163   */\n      mstore\n        /* \"#utility.yul\":5180:5311   */\n      tag_202\n        /* \"#utility.yul\":5306:5310   */\n      dup2\n        /* \"#utility.yul\":5180:5311   */\n      tag_166\n      jump\t// in\n    tag_202:\n        /* \"#utility.yul\":5172:5311   */\n      swap1\n      pop\n        /* \"#utility.yul\":4899:5318   */\n      swap2\n      swap1\n      pop\n      jump\t// out\n        /* \"#utility.yul\":5324:5743   */\n    tag_85:\n        /* \"#utility.yul\":5490:5494   */\n      0x00\n        /* \"#utility.yul\":5528:5530   */\n      0x20\n        /* \"#utility.yul\":5517:5526   */\n      dup3\n        /* \"#utility.yul\":5513:5531   */\n      add\n        /* \"#utility.yul\":5505:5531   */\n      swap1\n      pop\n        /* \"#utility.yul\":5577:5586   */\n      dup2\n        /* \"#utility.yul\":5571:5575   */\n      dup2\n        /* \"#utility.yul\":5567:5587   */\n      sub\n        /* \"#utility.yul\":5563:5564   */\n      0x00\n        /* \"#utility.yul\":5552:5561   */\n      dup4\n        /* \"#utility.yul\":5548:5565   */\n      add\n        /* \"#utility.yul\":5541:5588   */\n      mstore\n        /* \"#utility.yul\":5605:5736   */\n      tag_204\n        /* \"#utility.yul\":5731:5735   */\n      dup2\n        /* \"#utility.yul\":5605:5736   */\n      tag_171\n      jump\t// in\n    tag_204:\n        /* \"#utility.yul\":5597:5736   */\n      swap1\n      pop\n        /* \"#utility.yul\":5324:5743   */\n      swap2\n      swap1\n      pop\n      jump\t// out\n        /* \"#utility.yul\":5749:6168   */\n    tag_108:\n        /* \"#utility.yul\":5915:5919   */\n      0x00\n        /* \"#utility.yul\":5953:5955   */\n      0x20\n        /* \"#utility.yul\":5942:5951   */\n      dup3\n        /* \"#utility.yul\":5938:5956   */\n      add\n        /* \"#utility.yul\":5930:5956   */\n      swap1\n      pop\n        /* \"#utility.yul\":6002:6011   */\n      dup2\n        /* \"#utility.yul\":5996:6000   */\n      dup2\n        /* \"#utility.yul\":5992:6012   */\n      sub\n        /* \"#utility.yul\":5988:5989   */\n      0x00\n        /* \"#utility.yul\":5977:5986   */\n      dup4\n        /* \"#utility.yul\":5973:5990   */\n      add\n        /* \"#utility.yul\":5966:6013   */\n      mstore\n        /* \"#utility.yul\":6030:6161   */\n      tag_206\n        /* \"#utility.yul\":6156:6160   */\n      dup2\n        /* \"#utility.yul\":6030:6161   */\n      tag_176\n      jump\t// in\n    tag_206:\n        /* \"#utility.yul\":6022:6161   */\n      swap1\n      pop\n        /* \"#utility.yul\":5749:6168   */\n      swap2\n      swap1\n      pop\n      jump\t// out\n        /* \"#utility.yul\":6174:6593   */\n    tag_88:\n        /* \"#utility.yul\":6340:6344   */\n      0x00\n        /* \"#utility.yul\":6378:6380   */\n      0x20\n        /* \"#utility.yul\":6367:6376   */\n      dup3\n        /* \"#utility.yul\":6363:6381   */\n      add\n        /* \"#utility.yul\":6355:6381   */\n      swap1\n      pop\n        /* \"#utility.yul\":6427:6436   */\n      dup2\n        /* \"#utility.yul\":6421:6425   */\n      dup2\n        /* \"#utility.yul\":6417:6437   */\n      sub\n        /* \"#utility.yul\":6413:6414   */\n      0x00\n        /* \"#utility.yul\":6402:6411   */\n      dup4\n        /* \"#utility.yul\":6398:6415   */\n      add\n        /* \"#utility.yul\":6391:6438   */\n      mstore\n        /* \"#utility.yul\":6455:6586   */\n      tag_208\n        /* \"#utility.yul\":6581:6585   */\n      dup2\n        /* \"#utility.yul\":6455:6586   */\n      tag_181\n      jump\t// in\n    tag_208:\n        /* \"#utility.yul\":6447:6586   */\n      swap1\n      pop\n        /* \"#utility.yul\":6174:6593   */\n      swap2\n      swap1\n      pop\n      jump\t// out\n        /* \"#utility.yul\":6599:7018   */\n    tag_79:\n        /* \"#utility.yul\":6765:6769   */\n      0x00\n        /* \"#utility.yul\":6803:6805   */\n      0x20\n        /* \"#utility.yul\":6792:6801   */\n      dup3\n        /* \"#utility.yul\":6788:6806   */\n      add\n        /* \"#utility.yul\":6780:6806   */\n      swap1\n      pop\n        /* \"#utility.yul\":6852:6861   */\n      dup2\n        /* \"#utility.yul\":6846:6850   */\n      dup2\n        /* \"#utility.yul\":6842:6862   */\n      sub\n        /* \"#utility.yul\":6838:6839   */\n      0x00\n        /* \"#utility.yul\":6827:6836   */\n      dup4\n        /* \"#utility.yul\":6823:6840   */\n      add\n        /* \"#utility.yul\":6816:6863   */\n      mstore\n        /* \"#utility.yul\":6880:7011   */\n      tag_210\n        /* \"#utility.yul\":7006:7010   */\n      dup2\n        /* \"#utility.yul\":6880:7011   */\n      tag_186\n      jump\t// in\n    tag_210:\n        /* \"#utility.yul\":6872:7011   */\n      swap1\n      pop\n        /* \"#utility.yul\":6599:7018   */\n      swap2\n      swap1\n      pop\n      jump\t// out\n        /* \"#utility.yul\":7024:7246   */\n    tag_34:\n        /* \"#utility.yul\":7117:7121   */\n      0x00\n        /* \"#utility.yul\":7155:7157   */\n      0x20\n        /* \"#utility.yul\":7144:7153   */\n      dup3\n        /* \"#utility.yul\":7140:7158   */\n      add\n        /* \"#utility.yul\":7132:7158   */\n      swap1\n      pop\n        /* \"#utility.yul\":7168:7239   */\n      tag_212\n        /* \"#utility.yul\":7236:7237   */\n      0x00\n        /* \"#utility.yul\":7225:7234   */\n      dup4\n        /* \"#utility.yul\":7221:7238   */\n      add\n        /* \"#utility.yul\":7212:7218   */\n      dup5\n        /* \"#utility.yul\":7168:7239   */\n      tag_191\n      jump\t// in\n    tag_212:\n        /* \"#utility.yul\":7024:7246   */\n      swap3\n      swap2\n      pop\n      pop\n      jump\t// out\n        /* \"#utility.yul\":7333:7502   */\n    tag_163:\n        /* \"#utility.yul\":7417:7428   */\n      0x00\n        /* \"#utility.yul\":7451:7457   */\n      dup3\n        /* \"#utility.yul\":7446:7449   */\n      dup3\n        /* \"#utility.yul\":7439:7458   */\n      mstore\n        /* \"#utility.yul\":7491:7495   */\n      0x20\n        /* \"#utility.yul\":7486:7489   */\n      dup3\n        /* \"#utility.yul\":7482:7496   */\n      add\n        /* \"#utility.yul\":7467:7496   */\n      swap1\n      pop\n        /* \"#utility.yul\":7333:7502   */\n      swap3\n      swap2\n      pop\n      pop\n      jump\t// out\n        /* \"#utility.yul\":7508:7813   */\n    tag_110:\n        /* \"#utility.yul\":7548:7551   */\n      0x00\n        /* \"#utility.yul\":7567:7587   */\n      tag_217\n        /* \"#utility.yul\":7585:7586   */\n      dup3\n        /* \"#utility.yul\":7567:7587   */\n      tag_194\n      jump\t// in\n    tag_217:\n        /* \"#utility.yul\":7562:7587   */\n      swap2\n      pop\n        /* \"#utility.yul\":7601:7621   */\n      tag_218\n        /* \"#utility.yul\":7619:7620   */\n      dup4\n        /* \"#utility.yul\":7601:7621   */\n      tag_194\n      jump\t// in\n    tag_218:\n        /* \"#utility.yul\":7596:7621   */\n      swap3\n      pop\n        /* \"#utility.yul\":7755:7756   */\n      dup3\n        /* \"#utility.yul\":7687:7753   */\n      0xffffffffffffffffffffffffffffffffffffffffffffffffffffffffffffffff\n        /* \"#utility.yul\":7683:7757   */\n      sub\n        /* \"#utility.yul\":7680:7681   */\n      dup3\n        /* \"#utility.yul\":7677:7758   */\n      gt\n        /* \"#utility.yul\":7674:7781   */\n      iszero\n      tag_219\n      jumpi\n        /* \"#utility.yul\":7761:7779   */\n      tag_220\n      tag_221\n      jump\t// in\n    tag_220:\n        /* \"#utility.yul\":7674:7781   */\n    tag_219:\n        /* \"#utility.yul\":7805:7806   */\n      dup3\n        /* \"#utility.yul\":7802:7803   */\n      dup3\n        /* \"#utility.yul\":7798:7807   */\n      add\n        /* \"#utility.yul\":7791:7807   */\n      swap1\n      pop\n        /* \"#utility.yul\":7508:7813   */\n      swap3\n      swap2\n      pop\n      pop\n      jump\t// out\n        /* \"#utility.yul\":7819:8004   */\n    tag_101:\n        /* \"#utility.yul\":7859:7860   */\n      0x00\n        /* \"#utility.yul\":7876:7896   */\n      tag_223\n        /* \"#utility.yul\":7894:7895   */\n      dup3\n        /* \"#utility.yul\":7876:7896   */\n      tag_194\n      jump\t// in\n    tag_223:\n        /* \"#utility.yul\":7871:7896   */\n      swap2\n      pop\n        /* \"#utility.yul\":7910:7930   */\n      tag_224\n        /* \"#utility.yul\":7928:7929   */\n      dup4\n        /* \"#utility.yul\":7910:7930   */\n      tag_194\n      jump\t// in\n    tag_224:\n        /* \"#utility.yul\":7905:7930   */\n      swap3\n      pop\n        /* \"#utility.yul\":7949:7950   */\n      dup3\n        /* \"#utility.yul\":7939:7974   */\n      tag_225\n      jumpi\n        /* \"#utility.yul\":7954:7972   */\n      tag_226\n      tag_227\n      jump\t// in\n    tag_226:\n        /* \"#utility.yul\":7939:7974   */\n    tag_225:\n        /* \"#utility.yul\":7996:7997   */\n      dup3\n        /* \"#utility.yul\":7993:7994   */\n      dup3\n        /* \"#utility.yul\":7989:7998   */\n      div\n        /* \"#utility.yul\":7984:7998   */\n      swap1\n      pop\n        /* \"#utility.yul\":7819:8004   */\n      swap3\n      swap2\n      pop\n      pop\n      jump\t// out\n        /* \"#utility.yul\":8010:8358   */\n    tag_116:\n        /* \"#utility.yul\":8050:8057   */\n      0x00\n        /* \"#utility.yul\":8073:8093   */\n      tag_229\n        /* \"#utility.yul\":8091:8092   */\n      dup3\n        /* \"#utility.yul\":8073:8093   */\n      tag_194\n      jump\t// in\n    tag_229:\n        /* \"#utility.yul\":8068:8093   */\n      swap2\n      pop\n        /* \"#utility.yul\":8107:8127   */\n      tag_230\n        /* \"#utility.yul\":8125:8126   */\n      dup4\n        /* \"#utility.yul\":8107:8127   */\n      tag_194\n      jump\t// in\n    tag_230:\n        /* \"#utility.yul\":8102:8127   */\n      swap3\n      pop\n        /* \"#utility.yul\":8295:8296   */\n      dup2\n        /* \"#utility.yul\":8227:8293   */\n      0xffffffffffffffffffffffffffffffffffffffffffffffffffffffffffffffff\n        /* \"#utility.yul\":8223:8297   */\n      div\n        /* \"#utility.yul\":8220:8221   */\n      dup4\n        /* \"#utility.yul\":8217:8298   */\n      gt\n        /* \"#utility.yul\":8212:8213   */\n      dup3\n        /* \"#utility.yul\":8205:8214   */\n      iszero\n        /* \"#utility.yul\":8198:8215   */\n      iszero\n        /* \"#utility.yul\":8194:8299   */\n      and\n        /* \"#utility.yul\":8191:8322   */\n      iszero\n      tag_231\n      jumpi\n        /* \"#utility.yul\":8302:8320   */\n      tag_232\n      tag_221\n      jump\t// in\n    tag_232:\n        /* \"#utility.yul\":8191:8322   */\n    tag_231:\n        /* \"#utility.yul\":8350:8351   */\n      dup3\n        /* \"#utility.yul\":8347:8348   */\n      dup3\n        /* \"#utility.yul\":8343:8352   */\n      mul\n        /* \"#utility.yul\":8332:8352   */\n      swap1\n      pop\n        /* \"#utility.yul\":8010:8358   */\n      swap3\n      swap2\n      pop\n      pop\n      jump\t// out\n        /* \"#utility.yul\":8364:8555   */\n    tag_119:\n        /* \"#utility.yul\":8404:8408   */\n      0x00\n        /* \"#utility.yul\":8424:8444   */\n      tag_234\n        /* \"#utility.yul\":8442:8443   */\n      dup3\n        /* \"#utility.yul\":8424:8444   */\n      tag_194\n      jump\t// in\n    tag_234:\n        /* \"#utility.yul\":8419:8444   */\n      swap2\n      pop\n        /* \"#utility.yul\":8458:8478   */\n      tag_235\n        /* \"#utility.yul\":8476:8477   */\n      dup4\n        /* \"#utility.yul\":8458:8478   */\n      tag_194\n      jump\t// in\n    tag_235:\n        /* \"#utility.yul\":8453:8478   */\n      swap3\n      pop\n        /* \"#utility.yul\":8497:8498   */\n      dup3\n        /* \"#utility.yul\":8494:8495   */\n      dup3\n        /* \"#utility.yul\":8491:8499   */\n      lt\n        /* \"#utility.yul\":8488:8522   */\n      iszero\n      tag_236\n      jumpi\n        /* \"#utility.yul\":8502:8520   */\n      tag_237\n      tag_221\n      jump\t// in\n    tag_237:\n        /* \"#utility.yul\":8488:8522   */\n    tag_236:\n        /* \"#utility.yul\":8547:8548   */\n      dup3\n        /* \"#utility.yul\":8544:8545   */\n      dup3\n        /* \"#utility.yul\":8540:8549   */\n      sub\n        /* \"#utility.yul\":8532:8549   */\n      swap1\n      pop\n        /* \"#utility.yul\":8364:8555   */\n      swap3\n      swap2\n      pop\n      pop\n      jump\t// out\n        /* \"#utility.yul\":8561:8657   */\n    tag_155:\n        /* \"#utility.yul\":8598:8605   */\n      0x00\n        /* \"#utility.yul\":8627:8651   */\n      tag_239\n        /* \"#utility.yul\":8645:8650   */\n      dup3\n        /* \"#utility.yul\":8627:8651   */\n      tag_240\n      jump\t// in\n    tag_239:\n        /* \"#utility.yul\":8616:8651   */\n      swap1\n      pop\n        /* \"#utility.yul\":8561:8657   */\n      swap2\n      swap1\n      pop\n      jump\t// out\n        /* \"#utility.yul\":8663:8753   */\n    tag_159:\n        /* \"#utility.yul\":8697:8704   */\n      0x00\n        /* \"#utility.yul\":8740:8745   */\n      dup2\n        /* \"#utility.yul\":8733:8746   */\n      iszero\n        /* \"#utility.yul\":8726:8747   */\n      iszero\n        /* \"#utility.yul\":8715:8747   */\n      swap1\n      pop\n        /* \"#utility.yul\":8663:8753   */\n      swap2\n      swap1\n      pop\n      jump\t// out\n        /* \"#utility.yul\":8759:8885   */\n    tag_240:\n        /* \"#utility.yul\":8796:8803   */\n      0x00\n        /* \"#utility.yul\":8836:8878   */\n      0xffffffffffffffffffffffffffffffffffffffff\n        /* \"#utility.yul\":8829:8834   */\n      dup3\n        /* \"#utility.yul\":8825:8879   */\n      and\n        /* \"#utility.yul\":8814:8879   */\n      swap1\n      pop\n        /* \"#utility.yul\":8759:8885   */\n      swap2\n      swap1\n      pop\n      jump\t// out\n        /* \"#utility.yul\":8891:8968   */\n    tag_194:\n        /* \"#utility.yul\":8928:8935   */\n      0x00\n        /* \"#utility.yul\":8957:8962   */\n      dup2\n        /* \"#utility.yul\":8946:8962   */\n      swap1\n      pop\n        /* \"#utility.yul\":8891:8968   */\n      swap2\n      swap1\n      pop\n      jump\t// out\n        /* \"#utility.yul\":8974:9207   */\n    tag_104:\n        /* \"#utility.yul\":9013:9016   */\n      0x00\n        /* \"#utility.yul\":9036:9060   */\n      tag_245\n        /* \"#utility.yul\":9054:9059   */\n      dup3\n        /* \"#utility.yul\":9036:9060   */\n      tag_194\n      jump\t// in\n    tag_245:\n        /* \"#utility.yul\":9027:9060   */\n      swap2\n      pop\n        /* \"#utility.yul\":9082:9148   */\n      0xffffffffffffffffffffffffffffffffffffffffffffffffffffffffffffffff\n        /* \"#utility.yul\":9075:9080   */\n      dup3\n        /* \"#utility.yul\":9072:9149   */\n      eq\n        /* \"#utility.yul\":9069:9172   */\n      iszero\n      tag_246\n      jumpi\n        /* \"#utility.yul\":9152:9170   */\n      tag_247\n      tag_221\n      jump\t// in\n    tag_247:\n        /* \"#utility.yul\":9069:9172   */\n    tag_246:\n        /* \"#utility.yul\":9199:9200   */\n      0x01\n        /* \"#utility.yul\":9192:9197   */\n      dup3\n        /* \"#utility.yul\":9188:9201   */\n      add\n        /* \"#utility.yul\":9181:9201   */\n      swap1\n      pop\n        /* \"#utility.yul\":8974:9207   */\n      swap2\n      swap1\n      pop\n      jump\t// out\n        /* \"#utility.yul\":9213:9393   */\n    tag_221:\n        /* \"#utility.yul\":9261:9338   */\n      0x4e487b7100000000000000000000000000000000000000000000000000000000\n        /* \"#utility.yul\":9258:9259   */\n      0x00\n        /* \"#utility.yul\":9251:9339   */\n      mstore\n        /* \"#utility.yul\":9358:9362   */\n      0x11\n        /* \"#utility.yul\":9355:9356   */\n      0x04\n        /* \"#utility.yul\":9348:9363   */\n      mstore\n        /* \"#utility.yul\":9382:9386   */\n      0x24\n        /* \"#utility.yul\":9379:9380   */\n      0x00\n        /* \"#utility.yul\":9372:9387   */\n      revert\n        /* \"#utility.yul\":9399:9579   */\n    tag_227:\n        /* \"#utility.yul\":9447:9524   */\n      0x4e487b7100000000000000000000000000000000000000000000000000000000\n        /* \"#utility.yul\":9444:9445   */\n      0x00\n        /* \"#utility.yul\":9437:9525   */\n      mstore\n        /* \"#utility.yul\":9544:9548   */\n      0x12\n        /* \"#utility.yul\":9541:9542   */\n      0x04\n        /* \"#utility.yul\":9534:9549   */\n      mstore\n        /* \"#utility.yul\":9568:9572   */\n      0x24\n        /* \"#utility.yul\":9565:9566   */\n      0x00\n        /* \"#utility.yul\":9558:9573   */\n      revert\n        /* \"#utility.yul\":9585:9765   */\n    tag_98:\n        /* \"#utility.yul\":9633:9710   */\n      0x4e487b7100000000000000000000000000000000000000000000000000000000\n        /* \"#utility.yul\":9630:9631   */\n      0x00\n        /* \"#utility.yul\":9623:9711   */\n      mstore\n        /* \"#utility.yul\":9730:9734   */\n      0x32\n        /* \"#utility.yul\":9727:9728   */\n      0x04\n        /* \"#utility.yul\":9720:9735   */\n      mstore\n        /* \"#utility.yul\":9754:9758   */\n      0x24\n        /* \"#utility.yul\":9751:9752   */\n      0x00\n        /* \"#utility.yul\":9744:9759   */\n      revert\n        /* \"#utility.yul\":9894:10011   */\n    tag_142:\n        /* \"#utility.yul\":10003:10004   */\n      0x00\n        /* \"#utility.yul\":10000:10001   */\n      dup1\n        /* \"#utility.yul\":9993:10005   */\n      revert\n        /* \"#utility.yul\":10017:10191   */\n    tag_165:\n        /* \"#utility.yul\":10157:10183   */\n      0x63616c6c6572206d75737420626520746865206f776e65720000000000000000\n        /* \"#utility.yul\":10153:10154   */\n      0x00\n        /* \"#utility.yul\":10145:10151   */\n      dup3\n        /* \"#utility.yul\":10141:10155   */\n      add\n        /* \"#utility.yul\":10134:10184   */\n      mstore\n        /* \"#utility.yul\":10017:10191   */\n      pop\n      jump\t// out\n        /* \"#utility.yul\":10197:10368   */\n    tag_170:\n        /* \"#utility.yul\":10337:10360   */\n      0x596f7520617265206e6f7420746865206f776e65720000000000000000000000\n        /* \"#utility.yul\":10333:10334   */\n      0x00\n        /* \"#utility.yul\":10325:10331   */\n      dup3\n        /* \"#utility.yul\":10321:10335   */\n      add\n        /* \"#utility.yul\":10314:10361   */\n      mstore\n        /* \"#utility.yul\":10197:10368   */\n      pop\n      jump\t// out\n        /* \"#utility.yul\":10374:10594   */\n    tag_175:\n        /* \"#utility.yul\":10514:10548   */\n      0x4f6e6c79206f776e65722063616e2070617573652074686520636f6e74726163\n        /* \"#utility.yul\":10510:10511   */\n      0x00\n        /* \"#utility.yul\":10502:10508   */\n      dup3\n        /* \"#utility.yul\":10498:10512   */\n      add\n        /* \"#utility.yul\":10491:10549   */\n      mstore\n        /* \"#utility.yul\":10583:10586   */\n      0x7400000000000000000000000000000000000000000000000000000000000000\n        /* \"#utility.yul\":10578:10580   */\n      0x20\n        /* \"#utility.yul\":10570:10576   */\n      dup3\n        /* \"#utility.yul\":10566:10581   */\n      add\n        /* \"#utility.yul\":10559:10587   */\n      mstore\n        /* \"#utility.yul\":10374:10594   */\n      pop\n      jump\t// out\n        /* \"#utility.yul\":10600:10768   */\n    tag_180:\n        /* \"#utility.yul\":10740:10760   */\n      0x616d6f756e742063616e6e6f7420626520300000000000000000000000000000\n        /* \"#utility.yul\":10736:10737   */\n      0x00\n        /* \"#utility.yul\":10728:10734   */\n      dup3\n        /* \"#utility.yul\":10724:10738   */\n      add\n        /* \"#utility.yul\":10717:10761   */\n      mstore\n        /* \"#utility.yul\":10600:10768   */\n      pop\n      jump\t// out\n        /* \"#utility.yul\":10774:10939   */\n    tag_185:\n        /* \"#utility.yul\":10914:10931   */\n      0x436f6e7472616374205061757365640000000000000000000000000000000000\n        /* \"#utility.yul\":10910:10911   */\n      0x00\n        /* \"#utility.yul\":10902:10908   */\n      dup3\n        /* \"#utility.yul\":10898:10912   */\n      add\n        /* \"#utility.yul\":10891:10932   */\n      mstore\n        /* \"#utility.yul\":10774:10939   */\n      pop\n      jump\t// out\n        /* \"#utility.yul\":10945:11169   */\n    tag_190:\n        /* \"#utility.yul\":11085:11119   */\n      0x7374616b696e672042616c616e63652063616e6e6f74206265206c6573732074\n        /* \"#utility.yul\":11081:11082   */\n      0x00\n        /* \"#utility.yul\":11073:11079   */\n      dup3\n        /* \"#utility.yul\":11069:11083   */\n      add\n        /* \"#utility.yul\":11062:11120   */\n      mstore\n        /* \"#utility.yul\":11154:11161   */\n      0x68616e2030000000000000000000000000000000000000000000000000000000\n        /* \"#utility.yul\":11149:11151   */\n      0x20\n        /* \"#utility.yul\":11141:11147   */\n      dup3\n        /* \"#utility.yul\":11137:11152   */\n      add\n        /* \"#utility.yul\":11130:11162   */\n      mstore\n        /* \"#utility.yul\":10945:11169   */\n      pop\n      jump\t// out\n        /* \"#utility.yul\":11175:11297   */\n    tag_130:\n        /* \"#utility.yul\":11248:11272   */\n      tag_261\n        /* \"#utility.yul\":11266:11271   */\n      dup2\n        /* \"#utility.yul\":11248:11272   */\n      tag_155\n      jump\t// in\n    tag_261:\n        /* \"#utility.yul\":11241:11246   */\n      dup2\n        /* \"#utility.yul\":11238:11273   */\n      eq\n        /* \"#utility.yul\":11228:11291   */\n      tag_262\n      jumpi\n        /* \"#utility.yul\":11287:11288   */\n      0x00\n        /* \"#utility.yul\":11284:11285   */\n      dup1\n        /* \"#utility.yul\":11277:11289   */\n      revert\n        /* \"#utility.yul\":11228:11291   */\n    tag_262:\n        /* \"#utility.yul\":11175:11297   */\n      pop\n      jump\t// out\n        /* \"#utility.yul\":11303:11419   */\n    tag_134:\n        /* \"#utility.yul\":11373:11394   */\n      tag_264\n        /* \"#utility.yul\":11388:11393   */\n      dup2\n        /* \"#utility.yul\":11373:11394   */\n      tag_159\n      jump\t// in\n    tag_264:\n        /* \"#utility.yul\":11366:11371   */\n      dup2\n        /* \"#utility.yul\":11363:11395   */\n      eq\n        /* \"#utility.yul\":11353:11413   */\n      tag_265\n      jumpi\n        /* \"#utility.yul\":11409:11410   */\n      0x00\n        /* \"#utility.yul\":11406:11407   */\n      dup1\n        /* \"#utility.yul\":11399:11411   */\n      revert\n        /* \"#utility.yul\":11353:11413   */\n    tag_265:\n        /* \"#utility.yul\":11303:11419   */\n      pop\n      jump\t// out\n        /* \"#utility.yul\":11425:11547   */\n    tag_138:\n        /* \"#utility.yul\":11498:11522   */\n      tag_267\n        /* \"#utility.yul\":11516:11521   */\n      dup2\n        /* \"#utility.yul\":11498:11522   */\n      tag_194\n      jump\t// in\n    tag_267:\n        /* \"#utility.yul\":11491:11496   */\n      dup2\n        /* \"#utility.yul\":11488:11523   */\n      eq\n        /* \"#utility.yul\":11478:11541   */\n      tag_268\n      jumpi\n        /* \"#utility.yul\":11537:11538   */\n      0x00\n        /* \"#utility.yul\":11534:11535   */\n      dup1\n        /* \"#utility.yul\":11527:11539   */\n      revert\n        /* \"#utility.yul\":11478:11541   */\n    tag_268:\n        /* \"#utility.yul\":11425:11547   */\n      pop\n      jump\t// out\n\n    auxdata: 0xa2646970667358221220fc1c421ee18cf5330706999914f517c174497aa5469dbf130429c559a19f0b5364736f6c63430008070033\n}\n",
				"bytecode": {
					"linkReferences": {},
					"object": "608060405234801561001057600080fd5b50336000806101000a81548173ffffffffffffffffffffffffffffffffffffffff021916908373ffffffffffffffffffffffffffffffffffffffff16021790555061129a806100606000396000f3fe608060405234801561001057600080fd5b50600436106100f55760003560e01c80638da5cb5b11610097578063cdfcecc211610066578063cdfcecc21461024e578063dfa20f0a1461026c578063f765fd8f14610276578063fd5e6dd114610280576100f5565b80638da5cb5b146101c6578063b0370e0c146101e4578063c93c8f3414610202578063cda6b84714610232576100f5565b806345bc78ab116100d357806345bc78ab1461012a5780634626402b1461015a5780635c975abb146101785780636f49712b14610196576100f5565b806316c38b3c146100fa57806320eb640c14610116578063439766ce14610120575b600080fd5b610114600480360381019061010f9190610c2a565b6102b0565b005b61011e61035b565b005b610128610537565b005b610144600480360381019061013f9190610bfd565b61061d565b6040516101519190610e79565b60405180910390f35b610162610635565b60405161016f9190610e79565b60405180910390f35b61018061063b565b60405161018d9190610d9e565b60405180910390f35b6101b060048036038101906101ab9190610bfd565b61064e565b6040516101bd9190610d9e565b60405180910390f35b6101ce61066e565b6040516101db9190610d83565b60405180910390f35b6101ec610692565b6040516101f99190610e79565b60405180910390f35b61021c60048036038101906102179190610bfd565b6107f4565b6040516102299190610d9e565b60405180910390f35b61024c60048036038101906102479190610c57565b610814565b005b610256610a15565b6040516102639190610e79565b60405180910390f35b610274610a1f565b005b61027e610acf565b005b61029a60048036038101906102959190610c57565b610b7f565b6040516102a79190610d83565b60405180910390f35b60008054906101000a900473ffffffffffffffffffffffffffffffffffffffff1673ffffffffffffffffffffffffffffffffffffffff163373ffffffffffffffffffffffffffffffffffffffff161461033e576040517f08c379a000000000000000000000000000000000000000000000000000000000815260040161033590610dd9565b60405180910390fd5b80600060146101000a81548160ff02191690831515021790555050565b6000600360003373ffffffffffffffffffffffffffffffffffffffff1673ffffffffffffffffffffffffffffffffffffffff168152602001908152602001600020549050600081116103e2576040517f08c379a00000000000000000000000000000000000000000000000000000000081526004016103d990610e59565b60405180910390fd5b6000600360003373ffffffffffffffffffffffffffffffffffffffff1673ffffffffffffffffffffffffffffffffffffffff16815260200190815260200160002081905550600460003373ffffffffffffffffffffffffffffffffffffffff1673ffffffffffffffffffffffffffffffffffffffff16815260200190815260200160002060009054906101000a900460ff166104dc576002339080600181540180825580915050600190039060005260206000200160009091909190916101000a81548173ffffffffffffffffffffffffffffffffffffffff021916908373ffffffffffffffffffffffffffffffffffffffff1602179055505b6000600560003373ffffffffffffffffffffffffffffffffffffffff1673ffffffffffffffffffffffffffffffffffffffff16815260200190815260200160002060006101000a81548160ff02191690831515021790555050565b60008054906101000a900473ffffffffffffffffffffffffffffffffffffffff1673ffffffffffffffffffffffffffffffffffffffff163373ffffffffffffffffffffffffffffffffffffffff16146105c5576040517f08c379a00000000000000000000000000000000000000000000000000000000081526004016105bc90610df9565b60405180910390fd5b60001515600060149054906101000a900460ff1615151461061b576040517f08c379a000000000000000000000000000000000000000000000000000000000815260040161061290610e39565b60405180910390fd5b565b60036020528060005260406000206000915090505481565b60015481565b600060149054906101000a900460ff1681565b60056020528060005260406000206000915054906101000a900460ff1681565b60008054906101000a900473ffffffffffffffffffffffffffffffffffffffff1681565b60008060009054906101000a900473ffffffffffffffffffffffffffffffffffffffff1673ffffffffffffffffffffffffffffffffffffffff163373ffffffffffffffffffffffffffffffffffffffff1614610723576040517f08c379a000000000000000000000000000000000000000000000000000000000815260040161071a90610db9565b60405180910390fd5b60005b6002805490508110156107ef57600060028281548110610749576107486110a9565b5b9060005260206000200160009054906101000a900473ffffffffffffffffffffffffffffffffffffffff16905060006064600360008473ffffffffffffffffffffffffffffffffffffffff1673ffffffffffffffffffffffffffffffffffffffff168152602001908152602001600020546107c49190610efb565b905060008111156107da578093505050506107f1565b505080806107e790611002565b915050610726565b505b90565b60046020528060005260406000206000915054906101000a900460ff1681565b60008111610857576040517f08c379a000000000000000000000000000000000000000000000000000000000815260040161084e90610e19565b60405180910390fd5b80600360003373ffffffffffffffffffffffffffffffffffffffff1673ffffffffffffffffffffffffffffffffffffffff16815260200190815260200160002060008282546108a69190610ea5565b92505081905550600460003373ffffffffffffffffffffffffffffffffffffffff1673ffffffffffffffffffffffffffffffffffffffff16815260200190815260200160002060009054906101000a900460ff16610962576002339080600181540180825580915050600190039060005260206000200160009091909190916101000a81548173ffffffffffffffffffffffffffffffffffffffff021916908373ffffffffffffffffffffffffffffffffffffffff1602179055505b6001600560003373ffffffffffffffffffffffffffffffffffffffff1673ffffffffffffffffffffffffffffffffffffffff16815260200190815260200160002060006101000a81548160ff0219169083151502179055506001600460003373ffffffffffffffffffffffffffffffffffffffff1673ffffffffffffffffffffffffffffffffffffffff16815260200190815260200160002060006101000a81548160ff02191690831515021790555050565b6000600154905090565b600060646005600360003373ffffffffffffffffffffffffffffffffffffffff1673ffffffffffffffffffffffffffffffffffffffff16815260200190815260200160002054610a6f9190610f2c565b610a799190610efb565b905080600360003373ffffffffffffffffffffffffffffffffffffffff1673ffffffffffffffffffffffffffffffffffffffff16815260200190815260200160002054610ac69190610f86565b60018190555050565b600060646005600360003373ffffffffffffffffffffffffffffffffffffffff1673ffffffffffffffffffffffffffffffffffffffff16815260200190815260200160002054610b1f9190610f2c565b610b299190610efb565b905080600360003373ffffffffffffffffffffffffffffffffffffffff1673ffffffffffffffffffffffffffffffffffffffff16815260200190815260200160002054610b769190610ea5565b60018190555050565b60028181548110610b8f57600080fd5b906000526020600020016000915054906101000a900473ffffffffffffffffffffffffffffffffffffffff1681565b600081359050610bcd8161121f565b92915050565b600081359050610be281611236565b92915050565b600081359050610bf78161124d565b92915050565b600060208284031215610c1357610c126110d8565b5b6000610c2184828501610bbe565b91505092915050565b600060208284031215610c4057610c3f6110d8565b5b6000610c4e84828501610bd3565b91505092915050565b600060208284031215610c6d57610c6c6110d8565b5b6000610c7b84828501610be8565b91505092915050565b610c8d81610fba565b82525050565b610c9c81610fcc565b82525050565b6000610caf601883610e94565b9150610cba826110dd565b602082019050919050565b6000610cd2601583610e94565b9150610cdd82611106565b602082019050919050565b6000610cf5602183610e94565b9150610d008261112f565b604082019050919050565b6000610d18601283610e94565b9150610d238261117e565b602082019050919050565b6000610d3b600f83610e94565b9150610d46826111a7565b602082019050919050565b6000610d5e602583610e94565b9150610d69826111d0565b604082019050919050565b610d7d81610ff8565b82525050565b6000602082019050610d986000830184610c84565b92915050565b6000602082019050610db36000830184610c93565b92915050565b60006020820190508181036000830152610dd281610ca2565b9050919050565b60006020820190508181036000830152610df281610cc5565b9050919050565b60006020820190508181036000830152610e1281610ce8565b9050919050565b60006020820190508181036000830152610e3281610d0b565b9050919050565b60006020820190508181036000830152610e5281610d2e565b9050919050565b60006020820190508181036000830152610e7281610d51565b9050919050565b6000602082019050610e8e6000830184610d74565b92915050565b600082825260208201905092915050565b6000610eb082610ff8565b9150610ebb83610ff8565b9250827fffffffffffffffffffffffffffffffffffffffffffffffffffffffffffffffff03821115610ef057610eef61104b565b5b828201905092915050565b6000610f0682610ff8565b9150610f1183610ff8565b925082610f2157610f2061107a565b5b828204905092915050565b6000610f3782610ff8565b9150610f4283610ff8565b9250817fffffffffffffffffffffffffffffffffffffffffffffffffffffffffffffffff0483118215151615610f7b57610f7a61104b565b5b828202905092915050565b6000610f9182610ff8565b9150610f9c83610ff8565b925082821015610faf57610fae61104b565b5b828203905092915050565b6000610fc582610fd8565b9050919050565b60008115159050919050565b600073ffffffffffffffffffffffffffffffffffffffff82169050919050565b6000819050919050565b600061100d82610ff8565b91507fffffffffffffffffffffffffffffffffffffffffffffffffffffffffffffffff8214156110405761103f61104b565b5b600182019050919050565b7f4e487b7100000000000000000000000000000000000000000000000000000000600052601160045260246000fd5b7f4e487b7100000000000000000000000000000000000000000000000000000000600052601260045260246000fd5b7f4e487b7100000000000000000000000000000000000000000000000000000000600052603260045260246000fd5b600080fd5b7f63616c6c6572206d75737420626520746865206f776e65720000000000000000600082015250565b7f596f7520617265206e6f7420746865206f776e65720000000000000000000000600082015250565b7f4f6e6c79206f776e65722063616e2070617573652074686520636f6e7472616360008201527f7400000000000000000000000000000000000000000000000000000000000000602082015250565b7f616d6f756e742063616e6e6f7420626520300000000000000000000000000000600082015250565b7f436f6e7472616374205061757365640000000000000000000000000000000000600082015250565b7f7374616b696e672042616c616e63652063616e6e6f74206265206c657373207460008201527f68616e2030000000000000000000000000000000000000000000000000000000602082015250565b61122881610fba565b811461123357600080fd5b50565b61123f81610fcc565b811461124a57600080fd5b50565b61125681610ff8565b811461126157600080fd5b5056fea2646970667358221220fc1c421ee18cf5330706999914f517c174497aa5469dbf130429c559a19f0b5364736f6c63430008070033",
					"opcodes": "PUSH1 0x80 PUSH1 0x40 MSTORE CALLVALUE DUP1 ISZERO PUSH2 0x10 JUMPI PUSH1 0x0 DUP1 REVERT JUMPDEST POP CALLER PUSH1 0x0 DUP1 PUSH2 0x100 EXP DUP2 SLOAD DUP2 PUSH20 0xFFFFFFFFFFFFFFFFFFFFFFFFFFFFFFFFFFFFFFFF MUL NOT AND SWAP1 DUP4 PUSH20 0xFFFFFFFFFFFFFFFFFFFFFFFFFFFFFFFFFFFFFFFF AND MUL OR SWAP1 SSTORE POP PUSH2 0x129A DUP1 PUSH2 0x60 PUSH1 0x0 CODECOPY PUSH1 0x0 RETURN INVALID PUSH1 0x80 PUSH1 0x40 MSTORE CALLVALUE DUP1 ISZERO PUSH2 0x10 JUMPI PUSH1 0x0 DUP1 REVERT JUMPDEST POP PUSH1 0x4 CALLDATASIZE LT PUSH2 0xF5 JUMPI PUSH1 0x0 CALLDATALOAD PUSH1 0xE0 SHR DUP1 PUSH4 0x8DA5CB5B GT PUSH2 0x97 JUMPI DUP1 PUSH4 0xCDFCECC2 GT PUSH2 0x66 JUMPI DUP1 PUSH4 0xCDFCECC2 EQ PUSH2 0x24E JUMPI DUP1 PUSH4 0xDFA20F0A EQ PUSH2 0x26C JUMPI DUP1 PUSH4 0xF765FD8F EQ PUSH2 0x276 JUMPI DUP1 PUSH4 0xFD5E6DD1 EQ PUSH2 0x280 JUMPI PUSH2 0xF5 JUMP JUMPDEST DUP1 PUSH4 0x8DA5CB5B EQ PUSH2 0x1C6 JUMPI DUP1 PUSH4 0xB0370E0C EQ PUSH2 0x1E4 JUMPI DUP1 PUSH4 0xC93C8F34 EQ PUSH2 0x202 JUMPI DUP1 PUSH4 0xCDA6B847 EQ PUSH2 0x232 JUMPI PUSH2 0xF5 JUMP JUMPDEST DUP1 PUSH4 0x45BC78AB GT PUSH2 0xD3 JUMPI DUP1 PUSH4 0x45BC78AB EQ PUSH2 0x12A JUMPI DUP1 PUSH4 0x4626402B EQ PUSH2 0x15A JUMPI DUP1 PUSH4 0x5C975ABB EQ PUSH2 0x178 JUMPI DUP1 PUSH4 0x6F49712B EQ PUSH2 0x196 JUMPI PUSH2 0xF5 JUMP JUMPDEST DUP1 PUSH4 0x16C38B3C EQ PUSH2 0xFA JUMPI DUP1 PUSH4 0x20EB640C EQ PUSH2 0x116 JUMPI DUP1 PUSH4 0x439766CE EQ PUSH2 0x120 JUMPI JUMPDEST PUSH1 0x0 DUP1 REVERT JUMPDEST PUSH2 0x114 PUSH1 0x4 DUP1 CALLDATASIZE SUB DUP2 ADD SWAP1 PUSH2 0x10F SWAP2 SWAP1 PUSH2 0xC2A JUMP JUMPDEST PUSH2 0x2B0 JUMP JUMPDEST STOP JUMPDEST PUSH2 0x11E PUSH2 0x35B JUMP JUMPDEST STOP JUMPDEST PUSH2 0x128 PUSH2 0x537 JUMP JUMPDEST STOP JUMPDEST PUSH2 0x144 PUSH1 0x4 DUP1 CALLDATASIZE SUB DUP2 ADD SWAP1 PUSH2 0x13F SWAP2 SWAP1 PUSH2 0xBFD JUMP JUMPDEST PUSH2 0x61D JUMP JUMPDEST PUSH1 0x40 MLOAD PUSH2 0x151 SWAP2 SWAP1 PUSH2 0xE79 JUMP JUMPDEST PUSH1 0x40 MLOAD DUP1 SWAP2 SUB SWAP1 RETURN JUMPDEST PUSH2 0x162 PUSH2 0x635 JUMP JUMPDEST PUSH1 0x40 MLOAD PUSH2 0x16F SWAP2 SWAP1 PUSH2 0xE79 JUMP JUMPDEST PUSH1 0x40 MLOAD DUP1 SWAP2 SUB SWAP1 RETURN JUMPDEST PUSH2 0x180 PUSH2 0x63B JUMP JUMPDEST PUSH1 0x40 MLOAD PUSH2 0x18D SWAP2 SWAP1 PUSH2 0xD9E JUMP JUMPDEST PUSH1 0x40 MLOAD DUP1 SWAP2 SUB SWAP1 RETURN JUMPDEST PUSH2 0x1B0 PUSH1 0x4 DUP1 CALLDATASIZE SUB DUP2 ADD SWAP1 PUSH2 0x1AB SWAP2 SWAP1 PUSH2 0xBFD JUMP JUMPDEST PUSH2 0x64E JUMP JUMPDEST PUSH1 0x40 MLOAD PUSH2 0x1BD SWAP2 SWAP1 PUSH2 0xD9E JUMP JUMPDEST PUSH1 0x40 MLOAD DUP1 SWAP2 SUB SWAP1 RETURN JUMPDEST PUSH2 0x1CE PUSH2 0x66E JUMP JUMPDEST PUSH1 0x40 MLOAD PUSH2 0x1DB SWAP2 SWAP1 PUSH2 0xD83 JUMP JUMPDEST PUSH1 0x40 MLOAD DUP1 SWAP2 SUB SWAP1 RETURN JUMPDEST PUSH2 0x1EC PUSH2 0x692 JUMP JUMPDEST PUSH1 0x40 MLOAD PUSH2 0x1F9 SWAP2 SWAP1 PUSH2 0xE79 JUMP JUMPDEST PUSH1 0x40 MLOAD DUP1 SWAP2 SUB SWAP1 RETURN JUMPDEST PUSH2 0x21C PUSH1 0x4 DUP1 CALLDATASIZE SUB DUP2 ADD SWAP1 PUSH2 0x217 SWAP2 SWAP1 PUSH2 0xBFD JUMP JUMPDEST PUSH2 0x7F4 JUMP JUMPDEST PUSH1 0x40 MLOAD PUSH2 0x229 SWAP2 SWAP1 PUSH2 0xD9E JUMP JUMPDEST PUSH1 0x40 MLOAD DUP1 SWAP2 SUB SWAP1 RETURN JUMPDEST PUSH2 0x24C PUSH1 0x4 DUP1 CALLDATASIZE SUB DUP2 ADD SWAP1 PUSH2 0x247 SWAP2 SWAP1 PUSH2 0xC57 JUMP JUMPDEST PUSH2 0x814 JUMP JUMPDEST STOP JUMPDEST PUSH2 0x256 PUSH2 0xA15 JUMP JUMPDEST PUSH1 0x40 MLOAD PUSH2 0x263 SWAP2 SWAP1 PUSH2 0xE79 JUMP JUMPDEST PUSH1 0x40 MLOAD DUP1 SWAP2 SUB SWAP1 RETURN JUMPDEST PUSH2 0x274 PUSH2 0xA1F JUMP JUMPDEST STOP JUMPDEST PUSH2 0x27E PUSH2 0xACF JUMP JUMPDEST STOP JUMPDEST PUSH2 0x29A PUSH1 0x4 DUP1 CALLDATASIZE SUB DUP2 ADD SWAP1 PUSH2 0x295 SWAP2 SWAP1 PUSH2 0xC57 JUMP JUMPDEST PUSH2 0xB7F JUMP JUMPDEST PUSH1 0x40 MLOAD PUSH2 0x2A7 SWAP2 SWAP1 PUSH2 0xD83 JUMP JUMPDEST PUSH1 0x40 MLOAD DUP1 SWAP2 SUB SWAP1 RETURN JUMPDEST PUSH1 0x0 DUP1 SLOAD SWAP1 PUSH2 0x100 EXP SWAP1 DIV PUSH20 0xFFFFFFFFFFFFFFFFFFFFFFFFFFFFFFFFFFFFFFFF AND PUSH20 0xFFFFFFFFFFFFFFFFFFFFFFFFFFFFFFFFFFFFFFFF AND CALLER PUSH20 0xFFFFFFFFFFFFFFFFFFFFFFFFFFFFFFFFFFFFFFFF AND EQ PUSH2 0x33E JUMPI PUSH1 0x40 MLOAD PUSH32 0x8C379A000000000000000000000000000000000000000000000000000000000 DUP2 MSTORE PUSH1 0x4 ADD PUSH2 0x335 SWAP1 PUSH2 0xDD9 JUMP JUMPDEST PUSH1 0x40 MLOAD DUP1 SWAP2 SUB SWAP1 REVERT JUMPDEST DUP1 PUSH1 0x0 PUSH1 0x14 PUSH2 0x100 EXP DUP2 SLOAD DUP2 PUSH1 0xFF MUL NOT AND SWAP1 DUP4 ISZERO ISZERO MUL OR SWAP1 SSTORE POP POP JUMP JUMPDEST PUSH1 0x0 PUSH1 0x3 PUSH1 0x0 CALLER PUSH20 0xFFFFFFFFFFFFFFFFFFFFFFFFFFFFFFFFFFFFFFFF AND PUSH20 0xFFFFFFFFFFFFFFFFFFFFFFFFFFFFFFFFFFFFFFFF AND DUP2 MSTORE PUSH1 0x20 ADD SWAP1 DUP2 MSTORE PUSH1 0x20 ADD PUSH1 0x0 KECCAK256 SLOAD SWAP1 POP PUSH1 0x0 DUP2 GT PUSH2 0x3E2 JUMPI PUSH1 0x40 MLOAD PUSH32 0x8C379A000000000000000000000000000000000000000000000000000000000 DUP2 MSTORE PUSH1 0x4 ADD PUSH2 0x3D9 SWAP1 PUSH2 0xE59 JUMP JUMPDEST PUSH1 0x40 MLOAD DUP1 SWAP2 SUB SWAP1 REVERT JUMPDEST PUSH1 0x0 PUSH1 0x3 PUSH1 0x0 CALLER PUSH20 0xFFFFFFFFFFFFFFFFFFFFFFFFFFFFFFFFFFFFFFFF AND PUSH20 0xFFFFFFFFFFFFFFFFFFFFFFFFFFFFFFFFFFFFFFFF AND DUP2 MSTORE PUSH1 0x20 ADD SWAP1 DUP2 MSTORE PUSH1 0x20 ADD PUSH1 0x0 KECCAK256 DUP2 SWAP1 SSTORE POP PUSH1 0x4 PUSH1 0x0 CALLER PUSH20 0xFFFFFFFFFFFFFFFFFFFFFFFFFFFFFFFFFFFFFFFF AND PUSH20 0xFFFFFFFFFFFFFFFFFFFFFFFFFFFFFFFFFFFFFFFF AND DUP2 MSTORE PUSH1 0x20 ADD SWAP1 DUP2 MSTORE PUSH1 0x20 ADD PUSH1 0x0 KECCAK256 PUSH1 0x0 SWAP1 SLOAD SWAP1 PUSH2 0x100 EXP SWAP1 DIV PUSH1 0xFF AND PUSH2 0x4DC JUMPI PUSH1 0x2 CALLER SWAP1 DUP1 PUSH1 0x1 DUP2 SLOAD ADD DUP1 DUP3 SSTORE DUP1 SWAP2 POP POP PUSH1 0x1 SWAP1 SUB SWAP1 PUSH1 0x0 MSTORE PUSH1 0x20 PUSH1 0x0 KECCAK256 ADD PUSH1 0x0 SWAP1 SWAP2 SWAP1 SWAP2 SWAP1 SWAP2 PUSH2 0x100 EXP DUP2 SLOAD DUP2 PUSH20 0xFFFFFFFFFFFFFFFFFFFFFFFFFFFFFFFFFFFFFFFF MUL NOT AND SWAP1 DUP4 PUSH20 0xFFFFFFFFFFFFFFFFFFFFFFFFFFFFFFFFFFFFFFFF AND MUL OR SWAP1 SSTORE POP JUMPDEST PUSH1 0x0 PUSH1 0x5 PUSH1 0x0 CALLER PUSH20 0xFFFFFFFFFFFFFFFFFFFFFFFFFFFFFFFFFFFFFFFF AND PUSH20 0xFFFFFFFFFFFFFFFFFFFFFFFFFFFFFFFFFFFFFFFF AND DUP2 MSTORE PUSH1 0x20 ADD SWAP1 DUP2 MSTORE PUSH1 0x20 ADD PUSH1 0x0 KECCAK256 PUSH1 0x0 PUSH2 0x100 EXP DUP2 SLOAD DUP2 PUSH1 0xFF MUL NOT AND SWAP1 DUP4 ISZERO ISZERO MUL OR SWAP1 SSTORE POP POP JUMP JUMPDEST PUSH1 0x0 DUP1 SLOAD SWAP1 PUSH2 0x100 EXP SWAP1 DIV PUSH20 0xFFFFFFFFFFFFFFFFFFFFFFFFFFFFFFFFFFFFFFFF AND PUSH20 0xFFFFFFFFFFFFFFFFFFFFFFFFFFFFFFFFFFFFFFFF AND CALLER PUSH20 0xFFFFFFFFFFFFFFFFFFFFFFFFFFFFFFFFFFFFFFFF AND EQ PUSH2 0x5C5 JUMPI PUSH1 0x40 MLOAD PUSH32 0x8C379A000000000000000000000000000000000000000000000000000000000 DUP2 MSTORE PUSH1 0x4 ADD PUSH2 0x5BC SWAP1 PUSH2 0xDF9 JUMP JUMPDEST PUSH1 0x40 MLOAD DUP1 SWAP2 SUB SWAP1 REVERT JUMPDEST PUSH1 0x0 ISZERO ISZERO PUSH1 0x0 PUSH1 0x14 SWAP1 SLOAD SWAP1 PUSH2 0x100 EXP SWAP1 DIV PUSH1 0xFF AND ISZERO ISZERO EQ PUSH2 0x61B JUMPI PUSH1 0x40 MLOAD PUSH32 0x8C379A000000000000000000000000000000000000000000000000000000000 DUP2 MSTORE PUSH1 0x4 ADD PUSH2 0x612 SWAP1 PUSH2 0xE39 JUMP JUMPDEST PUSH1 0x40 MLOAD DUP1 SWAP2 SUB SWAP1 REVERT JUMPDEST JUMP JUMPDEST PUSH1 0x3 PUSH1 0x20 MSTORE DUP1 PUSH1 0x0 MSTORE PUSH1 0x40 PUSH1 0x0 KECCAK256 PUSH1 0x0 SWAP2 POP SWAP1 POP SLOAD DUP2 JUMP JUMPDEST PUSH1 0x1 SLOAD DUP2 JUMP JUMPDEST PUSH1 0x0 PUSH1 0x14 SWAP1 SLOAD SWAP1 PUSH2 0x100 EXP SWAP1 DIV PUSH1 0xFF AND DUP2 JUMP JUMPDEST PUSH1 0x5 PUSH1 0x20 MSTORE DUP1 PUSH1 0x0 MSTORE PUSH1 0x40 PUSH1 0x0 KECCAK256 PUSH1 0x0 SWAP2 POP SLOAD SWAP1 PUSH2 0x100 EXP SWAP1 DIV PUSH1 0xFF AND DUP2 JUMP JUMPDEST PUSH1 0x0 DUP1 SLOAD SWAP1 PUSH2 0x100 EXP SWAP1 DIV PUSH20 0xFFFFFFFFFFFFFFFFFFFFFFFFFFFFFFFFFFFFFFFF AND DUP2 JUMP JUMPDEST PUSH1 0x0 DUP1 PUSH1 0x0 SWAP1 SLOAD SWAP1 PUSH2 0x100 EXP SWAP1 DIV PUSH20 0xFFFFFFFFFFFFFFFFFFFFFFFFFFFFFFFFFFFFFFFF AND PUSH20 0xFFFFFFFFFFFFFFFFFFFFFFFFFFFFFFFFFFFFFFFF AND CALLER PUSH20 0xFFFFFFFFFFFFFFFFFFFFFFFFFFFFFFFFFFFFFFFF AND EQ PUSH2 0x723 JUMPI PUSH1 0x40 MLOAD PUSH32 0x8C379A000000000000000000000000000000000000000000000000000000000 DUP2 MSTORE PUSH1 0x4 ADD PUSH2 0x71A SWAP1 PUSH2 0xDB9 JUMP JUMPDEST PUSH1 0x40 MLOAD DUP1 SWAP2 SUB SWAP1 REVERT JUMPDEST PUSH1 0x0 JUMPDEST PUSH1 0x2 DUP1 SLOAD SWAP1 POP DUP2 LT ISZERO PUSH2 0x7EF JUMPI PUSH1 0x0 PUSH1 0x2 DUP3 DUP2 SLOAD DUP2 LT PUSH2 0x749 JUMPI PUSH2 0x748 PUSH2 0x10A9 JUMP JUMPDEST JUMPDEST SWAP1 PUSH1 0x0 MSTORE PUSH1 0x20 PUSH1 0x0 KECCAK256 ADD PUSH1 0x0 SWAP1 SLOAD SWAP1 PUSH2 0x100 EXP SWAP1 DIV PUSH20 0xFFFFFFFFFFFFFFFFFFFFFFFFFFFFFFFFFFFFFFFF AND SWAP1 POP PUSH1 0x0 PUSH1 0x64 PUSH1 0x3 PUSH1 0x0 DUP5 PUSH20 0xFFFFFFFFFFFFFFFFFFFFFFFFFFFFFFFFFFFFFFFF AND PUSH20 0xFFFFFFFFFFFFFFFFFFFFFFFFFFFFFFFFFFFFFFFF AND DUP2 MSTORE PUSH1 0x20 ADD SWAP1 DUP2 MSTORE PUSH1 0x20 ADD PUSH1 0x0 KECCAK256 SLOAD PUSH2 0x7C4 SWAP2 SWAP1 PUSH2 0xEFB JUMP JUMPDEST SWAP1 POP PUSH1 0x0 DUP2 GT ISZERO PUSH2 0x7DA JUMPI DUP1 SWAP4 POP POP POP POP PUSH2 0x7F1 JUMP JUMPDEST POP POP DUP1 DUP1 PUSH2 0x7E7 SWAP1 PUSH2 0x1002 JUMP JUMPDEST SWAP2 POP POP PUSH2 0x726 JUMP JUMPDEST POP JUMPDEST SWAP1 JUMP JUMPDEST PUSH1 0x4 PUSH1 0x20 MSTORE DUP1 PUSH1 0x0 MSTORE PUSH1 0x40 PUSH1 0x0 KECCAK256 PUSH1 0x0 SWAP2 POP SLOAD SWAP1 PUSH2 0x100 EXP SWAP1 DIV PUSH1 0xFF AND DUP2 JUMP JUMPDEST PUSH1 0x0 DUP2 GT PUSH2 0x857 JUMPI PUSH1 0x40 MLOAD PUSH32 0x8C379A000000000000000000000000000000000000000000000000000000000 DUP2 MSTORE PUSH1 0x4 ADD PUSH2 0x84E SWAP1 PUSH2 0xE19 JUMP JUMPDEST PUSH1 0x40 MLOAD DUP1 SWAP2 SUB SWAP1 REVERT JUMPDEST DUP1 PUSH1 0x3 PUSH1 0x0 CALLER PUSH20 0xFFFFFFFFFFFFFFFFFFFFFFFFFFFFFFFFFFFFFFFF AND PUSH20 0xFFFFFFFFFFFFFFFFFFFFFFFFFFFFFFFFFFFFFFFF AND DUP2 MSTORE PUSH1 0x20 ADD SWAP1 DUP2 MSTORE PUSH1 0x20 ADD PUSH1 0x0 KECCAK256 PUSH1 0x0 DUP3 DUP3 SLOAD PUSH2 0x8A6 SWAP2 SWAP1 PUSH2 0xEA5 JUMP JUMPDEST SWAP3 POP POP DUP2 SWAP1 SSTORE POP PUSH1 0x4 PUSH1 0x0 CALLER PUSH20 0xFFFFFFFFFFFFFFFFFFFFFFFFFFFFFFFFFFFFFFFF AND PUSH20 0xFFFFFFFFFFFFFFFFFFFFFFFFFFFFFFFFFFFFFFFF AND DUP2 MSTORE PUSH1 0x20 ADD SWAP1 DUP2 MSTORE PUSH1 0x20 ADD PUSH1 0x0 KECCAK256 PUSH1 0x0 SWAP1 SLOAD SWAP1 PUSH2 0x100 EXP SWAP1 DIV PUSH1 0xFF AND PUSH2 0x962 JUMPI PUSH1 0x2 CALLER SWAP1 DUP1 PUSH1 0x1 DUP2 SLOAD ADD DUP1 DUP3 SSTORE DUP1 SWAP2 POP POP PUSH1 0x1 SWAP1 SUB SWAP1 PUSH1 0x0 MSTORE PUSH1 0x20 PUSH1 0x0 KECCAK256 ADD PUSH1 0x0 SWAP1 SWAP2 SWAP1 SWAP2 SWAP1 SWAP2 PUSH2 0x100 EXP DUP2 SLOAD DUP2 PUSH20 0xFFFFFFFFFFFFFFFFFFFFFFFFFFFFFFFFFFFFFFFF MUL NOT AND SWAP1 DUP4 PUSH20 0xFFFFFFFFFFFFFFFFFFFFFFFFFFFFFFFFFFFFFFFF AND MUL OR SWAP1 SSTORE POP JUMPDEST PUSH1 0x1 PUSH1 0x5 PUSH1 0x0 CALLER PUSH20 0xFFFFFFFFFFFFFFFFFFFFFFFFFFFFFFFFFFFFFFFF AND PUSH20 0xFFFFFFFFFFFFFFFFFFFFFFFFFFFFFFFFFFFFFFFF AND DUP2 MSTORE PUSH1 0x20 ADD SWAP1 DUP2 MSTORE PUSH1 0x20 ADD PUSH1 0x0 KECCAK256 PUSH1 0x0 PUSH2 0x100 EXP DUP2 SLOAD DUP2 PUSH1 0xFF MUL NOT AND SWAP1 DUP4 ISZERO ISZERO MUL OR SWAP1 SSTORE POP PUSH1 0x1 PUSH1 0x4 PUSH1 0x0 CALLER PUSH20 0xFFFFFFFFFFFFFFFFFFFFFFFFFFFFFFFFFFFFFFFF AND PUSH20 0xFFFFFFFFFFFFFFFFFFFFFFFFFFFFFFFFFFFFFFFF AND DUP2 MSTORE PUSH1 0x20 ADD SWAP1 DUP2 MSTORE PUSH1 0x20 ADD PUSH1 0x0 KECCAK256 PUSH1 0x0 PUSH2 0x100 EXP DUP2 SLOAD DUP2 PUSH1 0xFF MUL NOT AND SWAP1 DUP4 ISZERO ISZERO MUL OR SWAP1 SSTORE POP POP JUMP JUMPDEST PUSH1 0x0 PUSH1 0x1 SLOAD SWAP1 POP SWAP1 JUMP JUMPDEST PUSH1 0x0 PUSH1 0x64 PUSH1 0x5 PUSH1 0x3 PUSH1 0x0 CALLER PUSH20 0xFFFFFFFFFFFFFFFFFFFFFFFFFFFFFFFFFFFFFFFF AND PUSH20 0xFFFFFFFFFFFFFFFFFFFFFFFFFFFFFFFFFFFFFFFF AND DUP2 MSTORE PUSH1 0x20 ADD SWAP1 DUP2 MSTORE PUSH1 0x20 ADD PUSH1 0x0 KECCAK256 SLOAD PUSH2 0xA6F SWAP2 SWAP1 PUSH2 0xF2C JUMP JUMPDEST PUSH2 0xA79 SWAP2 SWAP1 PUSH2 0xEFB JUMP JUMPDEST SWAP1 POP DUP1 PUSH1 0x3 PUSH1 0x0 CALLER PUSH20 0xFFFFFFFFFFFFFFFFFFFFFFFFFFFFFFFFFFFFFFFF AND PUSH20 0xFFFFFFFFFFFFFFFFFFFFFFFFFFFFFFFFFFFFFFFF AND DUP2 MSTORE PUSH1 0x20 ADD SWAP1 DUP2 MSTORE PUSH1 0x20 ADD PUSH1 0x0 KECCAK256 SLOAD PUSH2 0xAC6 SWAP2 SWAP1 PUSH2 0xF86 JUMP JUMPDEST PUSH1 0x1 DUP2 SWAP1 SSTORE POP POP JUMP JUMPDEST PUSH1 0x0 PUSH1 0x64 PUSH1 0x5 PUSH1 0x3 PUSH1 0x0 CALLER PUSH20 0xFFFFFFFFFFFFFFFFFFFFFFFFFFFFFFFFFFFFFFFF AND PUSH20 0xFFFFFFFFFFFFFFFFFFFFFFFFFFFFFFFFFFFFFFFF AND DUP2 MSTORE PUSH1 0x20 ADD SWAP1 DUP2 MSTORE PUSH1 0x20 ADD PUSH1 0x0 KECCAK256 SLOAD PUSH2 0xB1F SWAP2 SWAP1 PUSH2 0xF2C JUMP JUMPDEST PUSH2 0xB29 SWAP2 SWAP1 PUSH2 0xEFB JUMP JUMPDEST SWAP1 POP DUP1 PUSH1 0x3 PUSH1 0x0 CALLER PUSH20 0xFFFFFFFFFFFFFFFFFFFFFFFFFFFFFFFFFFFFFFFF AND PUSH20 0xFFFFFFFFFFFFFFFFFFFFFFFFFFFFFFFFFFFFFFFF AND DUP2 MSTORE PUSH1 0x20 ADD SWAP1 DUP2 MSTORE PUSH1 0x20 ADD PUSH1 0x0 KECCAK256 SLOAD PUSH2 0xB76 SWAP2 SWAP1 PUSH2 0xEA5 JUMP JUMPDEST PUSH1 0x1 DUP2 SWAP1 SSTORE POP POP JUMP JUMPDEST PUSH1 0x2 DUP2 DUP2 SLOAD DUP2 LT PUSH2 0xB8F JUMPI PUSH1 0x0 DUP1 REVERT JUMPDEST SWAP1 PUSH1 0x0 MSTORE PUSH1 0x20 PUSH1 0x0 KECCAK256 ADD PUSH1 0x0 SWAP2 POP SLOAD SWAP1 PUSH2 0x100 EXP SWAP1 DIV PUSH20 0xFFFFFFFFFFFFFFFFFFFFFFFFFFFFFFFFFFFFFFFF AND DUP2 JUMP JUMPDEST PUSH1 0x0 DUP2 CALLDATALOAD SWAP1 POP PUSH2 0xBCD DUP2 PUSH2 0x121F JUMP JUMPDEST SWAP3 SWAP2 POP POP JUMP JUMPDEST PUSH1 0x0 DUP2 CALLDATALOAD SWAP1 POP PUSH2 0xBE2 DUP2 PUSH2 0x1236 JUMP JUMPDEST SWAP3 SWAP2 POP POP JUMP JUMPDEST PUSH1 0x0 DUP2 CALLDATALOAD SWAP1 POP PUSH2 0xBF7 DUP2 PUSH2 0x124D JUMP JUMPDEST SWAP3 SWAP2 POP POP JUMP JUMPDEST PUSH1 0x0 PUSH1 0x20 DUP3 DUP5 SUB SLT ISZERO PUSH2 0xC13 JUMPI PUSH2 0xC12 PUSH2 0x10D8 JUMP JUMPDEST JUMPDEST PUSH1 0x0 PUSH2 0xC21 DUP5 DUP3 DUP6 ADD PUSH2 0xBBE JUMP JUMPDEST SWAP2 POP POP SWAP3 SWAP2 POP POP JUMP JUMPDEST PUSH1 0x0 PUSH1 0x20 DUP3 DUP5 SUB SLT ISZERO PUSH2 0xC40 JUMPI PUSH2 0xC3F PUSH2 0x10D8 JUMP JUMPDEST JUMPDEST PUSH1 0x0 PUSH2 0xC4E DUP5 DUP3 DUP6 ADD PUSH2 0xBD3 JUMP JUMPDEST SWAP2 POP POP SWAP3 SWAP2 POP POP JUMP JUMPDEST PUSH1 0x0 PUSH1 0x20 DUP3 DUP5 SUB SLT ISZERO PUSH2 0xC6D JUMPI PUSH2 0xC6C PUSH2 0x10D8 JUMP JUMPDEST JUMPDEST PUSH1 0x0 PUSH2 0xC7B DUP5 DUP3 DUP6 ADD PUSH2 0xBE8 JUMP JUMPDEST SWAP2 POP POP SWAP3 SWAP2 POP POP JUMP JUMPDEST PUSH2 0xC8D DUP2 PUSH2 0xFBA JUMP JUMPDEST DUP3 MSTORE POP POP JUMP JUMPDEST PUSH2 0xC9C DUP2 PUSH2 0xFCC JUMP JUMPDEST DUP3 MSTORE POP POP JUMP JUMPDEST PUSH1 0x0 PUSH2 0xCAF PUSH1 0x18 DUP4 PUSH2 0xE94 JUMP JUMPDEST SWAP2 POP PUSH2 0xCBA DUP3 PUSH2 0x10DD JUMP JUMPDEST PUSH1 0x20 DUP3 ADD SWAP1 POP SWAP2 SWAP1 POP JUMP JUMPDEST PUSH1 0x0 PUSH2 0xCD2 PUSH1 0x15 DUP4 PUSH2 0xE94 JUMP JUMPDEST SWAP2 POP PUSH2 0xCDD DUP3 PUSH2 0x1106 JUMP JUMPDEST PUSH1 0x20 DUP3 ADD SWAP1 POP SWAP2 SWAP1 POP JUMP JUMPDEST PUSH1 0x0 PUSH2 0xCF5 PUSH1 0x21 DUP4 PUSH2 0xE94 JUMP JUMPDEST SWAP2 POP PUSH2 0xD00 DUP3 PUSH2 0x112F JUMP JUMPDEST PUSH1 0x40 DUP3 ADD SWAP1 POP SWAP2 SWAP1 POP JUMP JUMPDEST PUSH1 0x0 PUSH2 0xD18 PUSH1 0x12 DUP4 PUSH2 0xE94 JUMP JUMPDEST SWAP2 POP PUSH2 0xD23 DUP3 PUSH2 0x117E JUMP JUMPDEST PUSH1 0x20 DUP3 ADD SWAP1 POP SWAP2 SWAP1 POP JUMP JUMPDEST PUSH1 0x0 PUSH2 0xD3B PUSH1 0xF DUP4 PUSH2 0xE94 JUMP JUMPDEST SWAP2 POP PUSH2 0xD46 DUP3 PUSH2 0x11A7 JUMP JUMPDEST PUSH1 0x20 DUP3 ADD SWAP1 POP SWAP2 SWAP1 POP JUMP JUMPDEST PUSH1 0x0 PUSH2 0xD5E PUSH1 0x25 DUP4 PUSH2 0xE94 JUMP JUMPDEST SWAP2 POP PUSH2 0xD69 DUP3 PUSH2 0x11D0 JUMP JUMPDEST PUSH1 0x40 DUP3 ADD SWAP1 POP SWAP2 SWAP1 POP JUMP JUMPDEST PUSH2 0xD7D DUP2 PUSH2 0xFF8 JUMP JUMPDEST DUP3 MSTORE POP POP JUMP JUMPDEST PUSH1 0x0 PUSH1 0x20 DUP3 ADD SWAP1 POP PUSH2 0xD98 PUSH1 0x0 DUP4 ADD DUP5 PUSH2 0xC84 JUMP JUMPDEST SWAP3 SWAP2 POP POP JUMP JUMPDEST PUSH1 0x0 PUSH1 0x20 DUP3 ADD SWAP1 POP PUSH2 0xDB3 PUSH1 0x0 DUP4 ADD DUP5 PUSH2 0xC93 JUMP JUMPDEST SWAP3 SWAP2 POP POP JUMP JUMPDEST PUSH1 0x0 PUSH1 0x20 DUP3 ADD SWAP1 POP DUP2 DUP2 SUB PUSH1 0x0 DUP4 ADD MSTORE PUSH2 0xDD2 DUP2 PUSH2 0xCA2 JUMP JUMPDEST SWAP1 POP SWAP2 SWAP1 POP JUMP JUMPDEST PUSH1 0x0 PUSH1 0x20 DUP3 ADD SWAP1 POP DUP2 DUP2 SUB PUSH1 0x0 DUP4 ADD MSTORE PUSH2 0xDF2 DUP2 PUSH2 0xCC5 JUMP JUMPDEST SWAP1 POP SWAP2 SWAP1 POP JUMP JUMPDEST PUSH1 0x0 PUSH1 0x20 DUP3 ADD SWAP1 POP DUP2 DUP2 SUB PUSH1 0x0 DUP4 ADD MSTORE PUSH2 0xE12 DUP2 PUSH2 0xCE8 JUMP JUMPDEST SWAP1 POP SWAP2 SWAP1 POP JUMP JUMPDEST PUSH1 0x0 PUSH1 0x20 DUP3 ADD SWAP1 POP DUP2 DUP2 SUB PUSH1 0x0 DUP4 ADD MSTORE PUSH2 0xE32 DUP2 PUSH2 0xD0B JUMP JUMPDEST SWAP1 POP SWAP2 SWAP1 POP JUMP JUMPDEST PUSH1 0x0 PUSH1 0x20 DUP3 ADD SWAP1 POP DUP2 DUP2 SUB PUSH1 0x0 DUP4 ADD MSTORE PUSH2 0xE52 DUP2 PUSH2 0xD2E JUMP JUMPDEST SWAP1 POP SWAP2 SWAP1 POP JUMP JUMPDEST PUSH1 0x0 PUSH1 0x20 DUP3 ADD SWAP1 POP DUP2 DUP2 SUB PUSH1 0x0 DUP4 ADD MSTORE PUSH2 0xE72 DUP2 PUSH2 0xD51 JUMP JUMPDEST SWAP1 POP SWAP2 SWAP1 POP JUMP JUMPDEST PUSH1 0x0 PUSH1 0x20 DUP3 ADD SWAP1 POP PUSH2 0xE8E PUSH1 0x0 DUP4 ADD DUP5 PUSH2 0xD74 JUMP JUMPDEST SWAP3 SWAP2 POP POP JUMP JUMPDEST PUSH1 0x0 DUP3 DUP3 MSTORE PUSH1 0x20 DUP3 ADD SWAP1 POP SWAP3 SWAP2 POP POP JUMP JUMPDEST PUSH1 0x0 PUSH2 0xEB0 DUP3 PUSH2 0xFF8 JUMP JUMPDEST SWAP2 POP PUSH2 0xEBB DUP4 PUSH2 0xFF8 JUMP JUMPDEST SWAP3 POP DUP3 PUSH32 0xFFFFFFFFFFFFFFFFFFFFFFFFFFFFFFFFFFFFFFFFFFFFFFFFFFFFFFFFFFFFFFFF SUB DUP3 GT ISZERO PUSH2 0xEF0 JUMPI PUSH2 0xEEF PUSH2 0x104B JUMP JUMPDEST JUMPDEST DUP3 DUP3 ADD SWAP1 POP SWAP3 SWAP2 POP POP JUMP JUMPDEST PUSH1 0x0 PUSH2 0xF06 DUP3 PUSH2 0xFF8 JUMP JUMPDEST SWAP2 POP PUSH2 0xF11 DUP4 PUSH2 0xFF8 JUMP JUMPDEST SWAP3 POP DUP3 PUSH2 0xF21 JUMPI PUSH2 0xF20 PUSH2 0x107A JUMP JUMPDEST JUMPDEST DUP3 DUP3 DIV SWAP1 POP SWAP3 SWAP2 POP POP JUMP JUMPDEST PUSH1 0x0 PUSH2 0xF37 DUP3 PUSH2 0xFF8 JUMP JUMPDEST SWAP2 POP PUSH2 0xF42 DUP4 PUSH2 0xFF8 JUMP JUMPDEST SWAP3 POP DUP2 PUSH32 0xFFFFFFFFFFFFFFFFFFFFFFFFFFFFFFFFFFFFFFFFFFFFFFFFFFFFFFFFFFFFFFFF DIV DUP4 GT DUP3 ISZERO ISZERO AND ISZERO PUSH2 0xF7B JUMPI PUSH2 0xF7A PUSH2 0x104B JUMP JUMPDEST JUMPDEST DUP3 DUP3 MUL SWAP1 POP SWAP3 SWAP2 POP POP JUMP JUMPDEST PUSH1 0x0 PUSH2 0xF91 DUP3 PUSH2 0xFF8 JUMP JUMPDEST SWAP2 POP PUSH2 0xF9C DUP4 PUSH2 0xFF8 JUMP JUMPDEST SWAP3 POP DUP3 DUP3 LT ISZERO PUSH2 0xFAF JUMPI PUSH2 0xFAE PUSH2 0x104B JUMP JUMPDEST JUMPDEST DUP3 DUP3 SUB SWAP1 POP SWAP3 SWAP2 POP POP JUMP JUMPDEST PUSH1 0x0 PUSH2 0xFC5 DUP3 PUSH2 0xFD8 JUMP JUMPDEST SWAP1 POP SWAP2 SWAP1 POP JUMP JUMPDEST PUSH1 0x0 DUP2 ISZERO ISZERO SWAP1 POP SWAP2 SWAP1 POP JUMP JUMPDEST PUSH1 0x0 PUSH20 0xFFFFFFFFFFFFFFFFFFFFFFFFFFFFFFFFFFFFFFFF DUP3 AND SWAP1 POP SWAP2 SWAP1 POP JUMP JUMPDEST PUSH1 0x0 DUP2 SWAP1 POP SWAP2 SWAP1 POP JUMP JUMPDEST PUSH1 0x0 PUSH2 0x100D DUP3 PUSH2 0xFF8 JUMP JUMPDEST SWAP2 POP PUSH32 0xFFFFFFFFFFFFFFFFFFFFFFFFFFFFFFFFFFFFFFFFFFFFFFFFFFFFFFFFFFFFFFFF DUP3 EQ ISZERO PUSH2 0x1040 JUMPI PUSH2 0x103F PUSH2 0x104B JUMP JUMPDEST JUMPDEST PUSH1 0x1 DUP3 ADD SWAP1 POP SWAP2 SWAP1 POP JUMP JUMPDEST PUSH32 0x4E487B7100000000000000000000000000000000000000000000000000000000 PUSH1 0x0 MSTORE PUSH1 0x11 PUSH1 0x4 MSTORE PUSH1 0x24 PUSH1 0x0 REVERT JUMPDEST PUSH32 0x4E487B7100000000000000000000000000000000000000000000000000000000 PUSH1 0x0 MSTORE PUSH1 0x12 PUSH1 0x4 MSTORE PUSH1 0x24 PUSH1 0x0 REVERT JUMPDEST PUSH32 0x4E487B7100000000000000000000000000000000000000000000000000000000 PUSH1 0x0 MSTORE PUSH1 0x32 PUSH1 0x4 MSTORE PUSH1 0x24 PUSH1 0x0 REVERT JUMPDEST PUSH1 0x0 DUP1 REVERT JUMPDEST PUSH32 0x63616C6C6572206D75737420626520746865206F776E65720000000000000000 PUSH1 0x0 DUP3 ADD MSTORE POP JUMP JUMPDEST PUSH32 0x596F7520617265206E6F7420746865206F776E65720000000000000000000000 PUSH1 0x0 DUP3 ADD MSTORE POP JUMP JUMPDEST PUSH32 0x4F6E6C79206F776E65722063616E2070617573652074686520636F6E74726163 PUSH1 0x0 DUP3 ADD MSTORE PUSH32 0x7400000000000000000000000000000000000000000000000000000000000000 PUSH1 0x20 DUP3 ADD MSTORE POP JUMP JUMPDEST PUSH32 0x616D6F756E742063616E6E6F7420626520300000000000000000000000000000 PUSH1 0x0 DUP3 ADD MSTORE POP JUMP JUMPDEST PUSH32 0x436F6E7472616374205061757365640000000000000000000000000000000000 PUSH1 0x0 DUP3 ADD MSTORE POP JUMP JUMPDEST PUSH32 0x7374616B696E672042616C616E63652063616E6E6F74206265206C6573732074 PUSH1 0x0 DUP3 ADD MSTORE PUSH32 0x68616E2030000000000000000000000000000000000000000000000000000000 PUSH1 0x20 DUP3 ADD MSTORE POP JUMP JUMPDEST PUSH2 0x1228 DUP2 PUSH2 0xFBA JUMP JUMPDEST DUP2 EQ PUSH2 0x1233 JUMPI PUSH1 0x0 DUP1 REVERT JUMPDEST POP JUMP JUMPDEST PUSH2 0x123F DUP2 PUSH2 0xFCC JUMP JUMPDEST DUP2 EQ PUSH2 0x124A JUMPI PUSH1 0x0 DUP1 REVERT JUMPDEST POP JUMP JUMPDEST PUSH2 0x1256 DUP2 PUSH2 0xFF8 JUMP JUMPDEST DUP2 EQ PUSH2 0x1261 JUMPI PUSH1 0x0 DUP1 REVERT JUMPDEST POP JUMP INVALID LOG2 PUSH5 0x6970667358 0x22 SLT KECCAK256 0xFC SHR TIMESTAMP 0x1E 0xE1 DUP13 CREATE2 CALLER SMOD MOD SWAP10 SWAP10 EQ CREATE2 OR 0xC1 PUSH21 0x497AA5469DBF130429C559A19F0B5364736F6C6343 STOP ADDMOD SMOD STOP CALLER "
				},
				"gasEstimates": {
					"creation": {
						"codeDepositCost": "952400",
						"executionCost": "25254",
						"totalCost": "977654"
					},
					"external": {
						"depositTax()": "infinite",
						"hasStaked(address)": "2912",
						"isStaking(address)": "2934",
						"issueRewards()": "infinite",
						"owner()": "2534",
						"pauseContract()": "4889",
						"paused()": "2588",
						"setPaused(bool)": "26920",
						"stakeToken(uint256)": "infinite",
						"stakers(uint256)": "5044",
						"stakingBalance(address)": "2837",
						"treasuryWallet()": "2474",
						"treasuryWalletResult()": "2459",
						"unstakeToken()": "82694",
						"withdrawTax()": "infinite"
					}
				},
				"methodIdentifiers": {
					"depositTax()": "f765fd8f",
					"hasStaked(address)": "c93c8f34",
					"isStaking(address)": "6f49712b",
					"issueRewards()": "b0370e0c",
					"owner()": "8da5cb5b",
					"pauseContract()": "439766ce",
					"paused()": "5c975abb",
					"setPaused(bool)": "16c38b3c",
					"stakeToken(uint256)": "cda6b847",
					"stakers(uint256)": "fd5e6dd1",
					"stakingBalance(address)": "45bc78ab",
					"treasuryWallet()": "4626402b",
					"treasuryWalletResult()": "cdfcecc2",
					"unstakeToken()": "20eb640c",
					"withdrawTax()": "dfa20f0a"
				}
			},
			"storageLayout": {
				"storage": [
					{
						"astId": 3,
						"contract": "contracts/staking.sol:App",
						"label": "owner",
						"offset": 0,
						"slot": "0",
						"type": "t_address"
					},
					{
						"astId": 5,
						"contract": "contracts/staking.sol:App",
						"label": "paused",
						"offset": 20,
						"slot": "0",
						"type": "t_bool"
					},
					{
						"astId": 7,
						"contract": "contracts/staking.sol:App",
						"label": "treasuryWallet",
						"offset": 0,
						"slot": "1",
						"type": "t_uint256"
					},
					{
						"astId": 10,
						"contract": "contracts/staking.sol:App",
						"label": "stakers",
						"offset": 0,
						"slot": "2",
						"type": "t_array(t_address)dyn_storage"
					},
					{
						"astId": 14,
						"contract": "contracts/staking.sol:App",
						"label": "stakingBalance",
						"offset": 0,
						"slot": "3",
						"type": "t_mapping(t_address,t_uint256)"
					},
					{
						"astId": 18,
						"contract": "contracts/staking.sol:App",
						"label": "hasStaked",
						"offset": 0,
						"slot": "4",
						"type": "t_mapping(t_address,t_bool)"
					},
					{
						"astId": 22,
						"contract": "contracts/staking.sol:App",
						"label": "isStaking",
						"offset": 0,
						"slot": "5",
						"type": "t_mapping(t_address,t_bool)"
					}
				],
				"types": {
					"t_address": {
						"encoding": "inplace",
						"label": "address",
						"numberOfBytes": "20"
					},
					"t_array(t_address)dyn_storage": {
						"base": "t_address",
						"encoding": "dynamic_array",
						"label": "address[]",
						"numberOfBytes": "32"
					},
					"t_bool": {
						"encoding": "inplace",
						"label": "bool",
						"numberOfBytes": "1"
					},
					"t_mapping(t_address,t_bool)": {
						"encoding": "mapping",
						"key": "t_address",
						"label": "mapping(address => bool)",
						"numberOfBytes": "32",
						"value": "t_bool"
					},
					"t_mapping(t_address,t_uint256)": {
						"encoding": "mapping",
						"key": "t_address",
						"label": "mapping(address => uint256)",
						"numberOfBytes": "32",
						"value": "t_uint256"
					},
					"t_uint256": {
						"encoding": "inplace",
						"label": "uint256",
						"numberOfBytes": "32"
					}
				}
			},
			"userdoc": {
				"kind": "user",
				"methods": {},
				"version": 1
			}
		}
	}
}